:1000000000000320D1010000D1080200890802008D
:100010008908020089080200890802008908020094
:10002000890802008908020089080200D10802003C
:10003000D108020089080200392D02003D2D02007E
:10004000D1080200D1080200D1080200D108020044
:10005000D1080200D1080200D1080200D108020034
:10006000D1080200D1080200D1080200D108020024
:10007000D1080200D1080200D1080200D108020014
:10008000D1080200D1080200D1080200D108020004
:10009000D1080200D1080200D1080200D1080200F4
:1000A000F1480200FD480200D1080200D108020018
:1000B000D1080200D1080200D1080200691B020029
:1000C000D1080200D1080200D1080200D1080200C4
:1000D000D1080200D1080200D1080200D1080200B4
:1000E000D1080200D1080200D1080200D1080200A4
:1000F000D1080200D1080200D1080200D108020094
:10010000D1080200D1080200D1080200D108020083
:10011000D1080200AD1E0200D1080200D108020081
:10012000D1080200D1080200D1080200D108020063
:10013000D1080200D1080200D1080200D108020053
:100140009DEE0000D1080200D1080200D108020093
:10015000D1080200D1080200D1080200D108020033
:10016000D1080200D108020009490200D1080200AA
:10017000D1080200D1080200D1080200D108020013
:10018000D1080200D1080200D1080200D108020003
:10019000D1080200D1080200D1080200D1080200F3
:1001A000D1080200D1080200D1080200D1080200E3
:1001B000D1080200D1080200D1080200D1080200D3
:1001C000D1080200D1080200D1080200D1080200C3
:1001D0005C4B4CF2205210B51A804DF628121A8052
:1001E00000BF00BF20F078FB574B4FF030621A6021
:1001F000564A9A60564ADA60564B4FF470021A60BB
:10020000554B564A1A60564B1A78110703D51A787F
:1002100042F008021A70534B5349AA221A70534AEB
:10022000534B8B4204D252F8040F43F8040BF8E707
:10023000504B514900228B4202D243F8042BFAE77B
:100240004E494F4A002352F8230041F8230001335E
:10025000742BF8D14B4B4C4A802103F8011B93427D
:10026000FBD14A4B454A1A60494B8A221A70A3F5C2
:10027000805324225A70A0221A709A799207FCD5D2
:100280009A79D406FCD4434A937903F00C03082BE3
:10029000FAD1414B60221A7002331A78802AFCD1BD
:1002A0003C4B01221A715D225A719A799006FCD555
:1002B0009979384A4906FBD5384B394919600021EC
:1002C000596020231370937903F00C030C2BFAD19F
:1002D000344B354A1A60354A354C136813F4807331
:1002E00003D123604FF4A8531360324B324A1A6093
:1002F00000225A60072243F8042C304AC3F80C2D20
:1003000062B620F06FFF2368DA0705D52C4820F08D
:1003100071FC2C4B2C4A1A602C4B1B785B0609D5C0
:10032000284C294B22689A4204D1254820F062FCCF
:100330000023236027F074FE20F0D4FA20F0C8F9DF
:10034000FEE700BF0E20054030800440823F0400DD
:100350000100002B88ED00E0002008E0030000858C
:1003600002D0074000E00740B85102206C99050018
:10037000303F0220C0510220CC860220003A0220E9
:100380000000000000E400E064E400E008ED00E0AC
:10039000005006400040064001E007404480044011
:1003A0000000060204800440C010070010D0034083
:1003B00014D0034014E000E01FBF02000000202022
:1003C0001CF250631CE00340A5C3945A00F00740A0
:1003D000FFFFFFFFFFFFFFFFFFFFFFFFFFFFFFFF2D
:1003E000FFFFFFFFFFFFFFFFFFFFFFFFFFFFFFFF1D
:1003F000FFFFFFFFFFFFFFFFFFFFFFFFFFFFFFFF0D
:10040000FFFFFFFFFFFFFFFFFFFFFFFFDEF9FFFF23
:1004100010B5054C237833B9044B13B10448AFF33E
:1004200000800123237010BDC05102200000000095
:1004300068990500084B10B51BB108490848AFF38F
:1004400000800848036803B910BD074B002BFBD0A0
:10045000BDE81040184700BF00000000C451022052
:1004600068990500B8510220000000000020704784
:10047000704700BF00207047002070474FF0FF30EA
:10048000704700BF006910B103689B6A1847704746
:10049000006910B10368DB6A18477047006910B142
:1004A00003681B6918477047006910B103689B69AE
:1004B00018474FF0FF307047006910B10368DB68E0
:1004C00018477047006910B10168096B0847704709
:1004D00010B4006920B10468616B5DF8044B0847F3
:1004E0005DF8044B704700BF006910B103689B6B57
:1004F0001847002000217047006910B10368DB6BCA
:100500001847002000217047006910B103681B6C78
:1005100018477047006910B103685B6C1847704753
:10052000006910B103689B6C18470148704700BF11
:1005300030CE0200006910B10368DB6C18477047C9
:1005400038B50B6904462BB11D6819462B6D9847C9
:10055000204638BD4FF47A70064A23712373A06099
:1005600022600B692361002BF2D01A6901321A61F3
:10057000204638BD54C70200006910B103685B6DA6
:1005800018477047006980B100B5036883B09B6A63
:1005900001220DF10701984720B19DF8070003B033
:1005A0005DF804FB4FF0FF30F9E74FF0FF30704784
:1005B00010B582B002AB026803F8011DD46A194677
:1005C0000122A04702B010BDC36D0BB101207047DE
:1005D000006E003018BF0120704700BF704700BF99
:1005E0009FED057ADFED057AE0EE077AFCEEE77A1B
:1005F00017EE901A14F030BB00000143EE7CFF3E72
:1006000010B50446406E18B127F054FD0023636610
:1006100004F12400BDE8104012F084B810B5044B7A
:10062000044640F8103B12F07DF8204610BD00BF94
:100630000CC7020010B50446024603690549064886
:100640001FF064FE206920B10368BDE810405B6ABA
:10065000184710BDD0C80200484502200246036971
:10066000014902481FF052BEECC802004845022072
:100670002DE9F041002394B01A460546243104A820
:100680004FF47A74254F8DF804308DF80C301293A6
:1006900013930294009712F005F9129B002B32D0AD
:1006A000682020F08BF904469DF80460029A9DF8BA
:1006B0000C301B481B4926764FF47A7800262060C0
:1006C0006161E26184F8203004F1240004A92671FC
:1006D00026732661C4F8088011F0F6FF2369124AD8
:1006E0006761013366662E71C5F808802E732C6130
:1006F00023612A600D4B009304A812F013F82846DA
:1007000014B0BDE8F081139B002BC9D1064A2B71B0
:10071000AC602B732B612A60ECE700BF30C702008E
:10072000B4C70200DCC6020054C702000CC70200B6
:1007300020F05ABAF8B50D46064615F023FD15F01F
:1007400093FC044615F01EFD15F080FC074615F0DD
:1007500019FD15F06DFCA4F2BC739BB27F2B02D87F
:10076000FAB20C2A28D90023338015F00BFD15F0BE
:1007700035FC064615F006FD15F03EFC044615F066
:1007800001FD15F047FCF3B2172B12D8E3B23B2B57
:100790000FD8C3B23B2B0CD8F302640103F4FF2340
:1007A00004F4FF542343C0F3460003439BB22B8061
:1007B000F8BD00232B80F8BDC0B21F28D3D87F011D
:1007C00007F4FF57384340EA43239BB2CCE700BF0E
:1007D00010B504460EF0D2FC204610BD826C62B10A
:1007E000137803F0080303F0FF0003B3D3695069E3
:1007F000181A48BF6FF000407047C16CC1B191F842
:10080000313003F0080303F0FF0083B1D1E9042382
:10081000D1E90001101A30B463EB010100256FF03B
:1008200000448D4208BF844200D2204630BC70474D
:1008300008467047836C13B1184610F0ADBCC06C0D
:1008400008B10EF0A1BE4FF0FF30704700B5836CC9
:1008500083B063B1184601220DF1070110F0CCFB03
:1008600001280CD19DF8070003B05DF804FBC06CB3
:1008700028B101220DF107010EF0B2FDF0E74FF0B3
:10088000FF30F1E7836C13B1184610F0FFBEC06C67
:1008900008B10FF045BB704702684AB11369013BCC
:1008A000136103B17047006810B103681B6A1847F1
:1008B000704700BFD0B5C46D8CB1012B08BF002AB2
:1008C00001D30020D0BD1146204610F087FD00283E
:1008D000F7D0204610F0E0FE0028F2D0D0BD046E24
:1008E000002CEED020460EF067FE0028E9D020460E
:1008F000BDE8D0400FF0D0BC10B5044619B10129B5
:1009000011D0002010BD5522202114F067F80028D6
:10091000F7D0E28842F00402204692B22421BDE8DA
:10092000104014F05BB840F273122A2114F056F80C
:100930000028E6D088222021204614F04FF8002815
:10094000DFD0E288204622F004022421BDE81040D6
:1009500014F044B8C36D13B1D86900217047036E19
:1009600013B118695969704718461946704700BF96
:10097000C36D13B1586900217047036E13B193E83A
:100980000300704718461946704700BFC36D13B186
:10099000184610F031BB006E08B10EF021BD4FF0CB
:1009A000FF307047C36D13B1184610F0F5BB006EF1
:1009B00008B10EF0E9BD4FF0FF307047C36D33B1A1
:1009C0001B7813F0700F14BF012000207047006ED9
:1009D00030B190F8313013F0500F14BF01200020D7
:1009E000704700BFC36D13B1184610F04FBE006EC4
:1009F00008B10FF095BA7047C26D62B1137803F079
:100A0000080303F0FF0003B3D3695069181A48BF05
:100A10006FF000407047016EC1B191F8313003F0C2
:100A2000080303F0FF0083B1D1E90423D1E90001F9
:100A3000101A30B463EB010100256FF000448D42C1
:100A400008BF844200D2204630BC70470846704739
:100A5000C36D9BB11A7812F0700F00D1704710B5BA
:100A600004460021184610F0B9FC206E28B100227F
:100A70000023BDE810400EF09FBD10BD006E0028A1
:100A8000ECD090F8313013F0500FE7D00022002363
:100A90000EF092BD836C13B1184610F039BEC06CD5
:100AA00008B10FF06BBC7047C36D13B1184610F05E
:100AB0002FBE006E08B10FF061BC704700B5836CAB
:100AC00083B08DF8071043B1184601220DF10701DC
:100AD00010F01EFE03B05DF804FBC06C0028F9D0D6
:100AE00001220DF107010FF049FC03B05DF804FB92
:100AF0000269084B10B50446036042B11369013B1B
:100B0000136123B9006910B103681B6A9847204636
:100B100010BD00BF54C70200C26A0949094B10B595
:100B200004460160C36142B11369013B136123B9FB
:100B3000C06A10B103681B6A9847204610BD00BF09
:100B4000F448040054C7020038B5C36D144A02606B
:100B5000044600F12405F3B1284611F0E3FD606E70
:100B600008B127F0A7FA0F4B6361284611F0DAFDB0
:100B700022690D4B236042B11369013B136123B914
:100B8000206910B103681B6A9847204668211FF04E
:100B90001BFF204638BD036E002BDDD1DFE700BF11
:100BA000B4C702000CC7020054C7020002690A4B16
:100BB00010B50446036042B11369013B136123B9C8
:100BC000006910B103681B6A9847204614211FF082
:100BD000FBFE204610BD00BF54C70200D0B4039CEA
:100BE00016461F4634B1012C1ED0022C0DD0002019
:100BF000D0BC7047C46DDCB1012B08BF002AF6D20F
:100C000020461146D0BC10F0E9BBC36DB3B1DA6920
:100C1000B61847F10007012F08BF002EE7D2314672
:100C20001846D0BC10F0DABBC36D8BB15A69EFE740
:100C3000006E0028DBD0D0BC0EF0BEBC006E0028D9
:100C4000D5D0D0E9042392197B41D0BC0EF0B4BCBE
:100C5000006E0028CBD0D0E9002392197B41EAE74F
:100C600038B5C36D124A0260044600F12405D3B1C1
:100C7000284611F057FD606E08B127F01BFA0D4BA6
:100C80006361284611F04EFD22690B4B236042B18F
:100C90001369013B136123B9206910B103681B6A12
:100CA0009847204638BD036E002BE1D1E3E700BF33
:100CB000B4C702000CC7020054C7020038B5446E26
:100CC0000CB1204638BD05464FF4807027F0EAF994
:100CD0000146686680B1E86D0C7028B14FF48072EF
:100CE00010F060FE6C6EECE7286E40B14FF480723D
:100CF0000EF0A8FA6C6EE4E7024C6C66E1E70C4675
:100D0000DFE700BFDC5102202DE9F0412DED028B21
:100D10009AB040F20223A24AA24906A811F058FE56
:100D2000189B002B00F0278268201FF047FE044626
:100D300000259DF81C60089A9DF824309A489B492C
:100D400020604FF47A780AAF26766161E26184F818
:100D5000203004F124003946257125732561C4F83B
:100D6000088011F0B1FC2369914A924E6566013307
:100D70008DF80850CDF80C808DF810500594626104
:100D8000236101968C4B0693384611F0CBFC8B4BBC
:100D90008B491A689FED8B8A8B4C01A81FF0B6FA1D
:100DA0008A4B8B491A6801A81FF0B0FA894B8A490F
:100DB0001A6801A81FF0AAFA884B89491A6801A885
:100DC0001FF0A4FA874B88491A6801A81FF09EFA01
:100DD000864B87491A6801A81FF098FA854B864907
:100DE00093F9002001A81FF091FA844B844993F9EC
:100DF000002001A81FF08AFA824B83491A6801A8D3
:100E00001FF084FA814B82491A7801A81FF07EFAFC
:100E1000804B81491A7801A81FF078FA7F4B8049EE
:100E2000D3ED007A67EE887A01A8FDEEE77A17EE37
:100E3000902A1FF06BFA7B4B7B491A7801A81FF0B0
:100E400065FA7A4B7A491A7801A81FF05FFA794B54
:100E500079491A7801A81FF059FA784B78491A781D
:100E600001A81FF053FA774B77491A7801A81FF0B1
:100E70004DFA764B76491A7801A81FF047FA754B60
:100E800075491A7801A81FF041FA744B74491A7811
:100E900001A81FF03BFA734B73491A7801A81FF0A1
:100EA00035FA724B72491A7801A81FF02FFA714B6C
:100EB00071491A7801A81FF029FA704B70491A7805
:100EC00001A81FF023FA6F4B6F491A7801A81FF091
:100ED0001DFA6E4B6E491A7801A81FF017FA6D4B78
:100EE0006D491A7801A81FF011FA6C4B6C491A88E9
:100EF00001A81FF00BFA6B4B6B491A8801A81FF071
:100F000005FA6A4B6A491A8801A81FF0FFF9694B74
:100F100069491A8801A81FF0F9F9684B68491A78DD
:100F200001A81FF0F3F9674B67491A7801A81FF071
:100F3000EDF9664B66491A7801A81FF0E7F9654B91
:100F4000654993F9002001A81FF0E0F9634B64495B
:100F500093F9002001A81FF0D9F9624B62491A7871
:100F600001A81FF0D3F92268604901A81FF0CEF94B
:100F700062685F4901A81FF0C9F9A2685D4901A82C
:100F80001FF0C4F95C4B5D491A7801A81FF0BEF947
:100F90005B4B5C491A7801A81FF0B8F9B4E000BFB8
:100FA00070420220747D0220B4C70200DCC6020039
:100FB00030C7020054C702000CC7020008420220DA
:100FC0000CC902000000C842E47A022078420220E4
:100FD00020C902002443022038C90200AC6A022062
:100FE00050C902004C42022060C902004442022063
:100FF00070C90200B07B022080C90200B8570220ED
:1010000090C902007C4102209CC902006442022077
:10101000B0C9020081410220C0C902004C43022035
:10102000D4C9020058430220E4C90200E141022071
:10103000F4C902004843022000CA020043420220D1
:101040000CCA0200494202201CCA020028430220A6
:101050002CCA02001042022040CA0200E0410220D5
:101060004CCA0200D441022058CA02001142022098
:1010700064CA0200E241022070CA02005C770220CA
:101080007CCA0200B677022088CA02007C42022095
:101090009CCA0200FE6A0220B0CA02005A43022023
:1010A000C0CA020090410220D4CA02003643022086
:1010B000E8CA0200DE410220F8CA0200745402208D
:1010C00008CB0200E86502201CCB02005C42022033
:1010D00030CB0200BD41022044CB02009C410220E3
:1010E00058CB02008072022070CB020084CB020039
:1010F00094CB0200ACCB0200BC410220C0CB02006A
:10110000BA770220D4CB0200234B244993F9002064
:1011100001A81FF0FBF8224B224993F9002001A8F7
:101120001FF0F4F8204B2149D3ED007A67EE887A5E
:1011300001A8FDEEE77A17EE902A1FF0E7F8059870
:1011400098B10368DB689847059870B103681B6C19
:101150009847059A019642B11369013B136123B97F
:10116000059810B103681B6A984701201AB0BDECBE
:10117000028BBDE8F081199B002B7FF4D5AD4FF4B5
:101180007A720B4E8DF808308DF81030059303926B
:1011900001960AAFF6E500BF41420220E4CB02000F
:1011A000A86A0220F4CB02009441022008CC02007D
:1011B00054C70200214B10B4D3F8E02013685068E4
:1011C00019780478507A137A044201EA03011BD09B
:1011D000937A03F0030309B143F0040343F00803D7
:1011E0009910013B91720D2B0BD8DFE803F021071A
:1011F0001B070A152121150A071B0721D368013B8C
:10120000D3605DF8044B7047937A03F00303002921
:10121000E6D043F00403E3E7D3685DF8044B023BF8
:10122000D3607047D3685DF8044B0233D3607047D6
:10123000D3685DF8044B0133D36070478482022089
:10124000214B10B4D3F8E42013685068197804785F
:10125000507A137A044201EA03011BD0937A03F017
:10126000030309B143F0040343F008039910013B61
:1012700091720D2B0BD8DFE803F021071B070A152D
:101280002121150A071B0721D368013BD3605DF8B4
:10129000044B7047937A03F003030029E6D043F030
:1012A0000403E3E7D3685DF8044B023BD360704767
:1012B000D3685DF8044B0233D3607047D3685DF8A0
:1012C000044B0133D360704784820220214B10B459
:1012D000D3F8E8201368506819780478507A137AA4
:1012E000044201EA03011BD0937A03F0030309B11E
:1012F00043F0040343F008039910013B91720D2B56
:101300000BD8DFE803F021071B070A152121150A76
:10131000071B0721D368013BD3605DF8044B70477E
:10132000937A03F003030029E6D043F00403E3E7D4
:10133000D3685DF8044B023BD3607047D3685DF817
:10134000044B0233D3607047D3685DF8044B01331C
:10135000D360704784820220214B10B4D3F8EC2074
:101360001368506819780478507A137A044201EAB5
:1013700003011BD0937A03F0030309B143F0040384
:1013800043F008039910013B91720D2B0BD8DFE855
:1013900003F021071B070A152121150A071B072146
:1013A000D368013BD3605DF8044B7047937A03F038
:1013B00003030029E6D043F00403E3E7D3685DF8B4
:1013C000044B023BD3607047D3685DF8044B023393
:1013D000D3607047D3685DF8044B0133D360704726
:1013E00084820220214B10B41A681368506819785F
:1013F0000478507A137A044201EA03011BD0937AED
:1014000003F0030309B143F0040343F00803991008
:10141000013B91720D2B0BD8DFE803F021071B076E
:101420000A152121150A071B0721D368013BD36048
:101430005DF8044B7047937A03F003030029E6D06C
:1014400043F00403E3E7D3685DF8044B023BD36049
:101450007047D3685DF8044B0233D3607047D3689C
:101460005DF8044B0133D360704700BF84820220D3
:10147000214B10B45A681368506819780478507A70
:10148000137A044201EA03011BD0937A03F00303A9
:1014900009B143F0040343F008039910013B917232
:1014A0000D2B0BD8DFE803F021071B070A152121BC
:1014B000150A071B0721D368013BD3605DF8044B75
:1014C0007047937A03F003030029E6D043F0040346
:1014D000E3E7D3685DF8044B023BD3607047D36801
:1014E0005DF8044B0233D3607047D3685DF8044B5A
:1014F0000133D360704700BF84820220214B10B4B7
:101500009A681368506819780478507A137A0442FC
:1015100001EA03011BD0937A03F0030309B143F0FE
:10152000040343F008039910013B91720D2B0BD873
:10153000DFE803F021071B070A152121150A071B05
:101540000721D368013BD3605DF8044B7047937A61
:1015500003F003030029E6D043F00403E3E7D36874
:101560005DF8044B023BD3607047D3685DF8044BD1
:101570000233D3607047D3685DF8044B0133D36006
:10158000704700BF84820220214B10B4DA681368D0
:10159000506819780478507A137A044201EA0301FA
:1015A0001BD0937A03F0030309B143F0040343F023
:1015B00008039910013B91720D2B0BD8DFE803F063
:1015C00021071B070A152121150A071B0721D368CC
:1015D000013BD3605DF8044B7047937A03F003033B
:1015E0000029E6D043F00403E3E7D3685DF8044B39
:1015F000023BD3607047D3685DF8044B0233D3607D
:101600007047D3685DF8044B0133D360704700BF67
:1016100084820220214B10B41A691368506819782B
:101620000478507A137A044201EA03011BD0937ABA
:1016300003F0030309B143F0040343F008039910D6
:10164000013B91720D2B0BD8DFE803F021071B073C
:101650000A152121150A071B0721D368013BD36016
:101660005DF8044B7047937A03F003030029E6D03A
:1016700043F00403E3E7D3685DF8044B023BD36017
:101680007047D3685DF8044B0233D3607047D3686A
:101690005DF8044B0133D360704700BF84820220A1
:1016A000214B10B45A691368506819780478507A3D
:1016B000137A044201EA03011BD0937A03F0030377
:1016C00009B143F0040343F008039910013B917200
:1016D0000D2B0BD8DFE803F021071B070A1521218A
:1016E000150A071B0721D368013BD3605DF8044B43
:1016F0007047937A03F003030029E6D043F0040314
:10170000E3E7D3685DF8044B023BD3607047D368CE
:101710005DF8044B0233D3607047D3685DF8044B27
:101720000133D360704700BF84820220214B10B484
:101730009A691368506819780478507A137A0442C9
:1017400001EA03011BD0937A03F0030309B143F0CC
:10175000040343F008039910013B91720D2B0BD841
:10176000DFE803F021071B070A152121150A071BD3
:101770000721D368013BD3605DF8044B7047937A2F
:1017800003F003030029E6D043F00403E3E7D36842
:101790005DF8044B023BD3607047D3685DF8044B9F
:1017A0000233D3607047D3685DF8044B0133D360D4
:1017B000704700BF84820220214B10B4DA6913689D
:1017C000506819780478507A137A044201EA0301C8
:1017D0001BD0937A03F0030309B143F0040343F0F1
:1017E00008039910013B91720D2B0BD8DFE803F031
:1017F00021071B070A152121150A071B0721D3689A
:10180000013BD3605DF8044B7047937A03F0030308
:101810000029E6D043F00403E3E7D3685DF8044B06
:10182000023BD3607047D3685DF8044B0233D3604A
:101830007047D3685DF8044B0133D360704700BF35
:1018400084820220214B10B4D3F8A0201368506882
:1018500019780478507A137A044201EA03011BD004
:10186000937A03F0030309B143F0040343F0080340
:101870009910013B91720D2B0BD8DFE803F0210783
:101880001B070A152121150A071B0721D368013BF5
:10189000D3605DF8044B7047937A03F0030300298B
:1018A000E6D043F00403E3E7D3685DF8044B023B62
:1018B000D3607047D3685DF8044B0233D360704740
:1018C000D3685DF8044B0133D360704784820220F3
:1018D000214B10B4D3F8A420136850681978047809
:1018E000507A137A044201EA03011BD0937A03F081
:1018F000030309B143F0040343F008039910013BCB
:1019000091720D2B0BD8DFE803F021071B070A1596
:101910002121150A071B0721D368013BD3605DF81D
:10192000044B7047937A03F003030029E6D043F099
:101930000403E3E7D3685DF8044B023BD3607047D0
:10194000D3685DF8044B0233D3607047D3685DF809
:10195000044B0133D360704784820220214B10B4C2
:10196000D3F8A8201368506819780478507A137A4D
:10197000044201EA03011BD0937A03F0030309B187
:1019800043F0040343F008039910013B91720D2BBF
:101990000BD8DFE803F021071B070A152121150AE0
:1019A000071B0721D368013BD3605DF8044B7047E8
:1019B000937A03F003030029E6D043F00403E3E73E
:1019C000D3685DF8044B023BD3607047D3685DF881
:1019D000044B0233D3607047D3685DF8044B013386
:1019E000D360704784820220214B10B4D3F8AC201E
:1019F0001368506819780478507A137A044201EA1F
:101A000003011BD0937A03F0030309B143F00403ED
:101A100043F008039910013B91720D2B0BD8DFE8BE
:101A200003F021071B070A152121150A071B0721AF
:101A3000D368013BD3605DF8044B7047937A03F0A1
:101A400003030029E6D043F00403E3E7D3685DF81D
:101A5000044B023BD3607047D3685DF8044B0233FC
:101A6000D3607047D3685DF8044B0133D36070478F
:101A700084820220214B10B4D3F8B0201368506840
:101A800019780478507A137A044201EA03011BD0D2
:101A9000937A03F0030309B143F0040343F008030E
:101AA0009910013B91720D2B0BD8DFE803F0210751
:101AB0001B070A152121150A071B0721D368013BC3
:101AC000D3605DF8044B7047937A03F00303002959
:101AD000E6D043F00403E3E7D3685DF8044B023B30
:101AE000D3607047D3685DF8044B0233D36070470E
:101AF000D3685DF8044B0133D360704784820220C1
:101B0000214B10B4D3F8B4201368506819780478C6
:101B1000507A137A044201EA03011BD0937A03F04E
:101B2000030309B143F0040343F008039910013B98
:101B300091720D2B0BD8DFE803F021071B070A1564
:101B40002121150A071B0721D368013BD3605DF8EB
:101B5000044B7047937A03F003030029E6D043F067
:101B60000403E3E7D3685DF8044B023BD36070479E
:101B7000D3685DF8044B0233D3607047D3685DF8D7
:101B8000044B0133D360704784820220214B10B490
:101B9000D3F8B8201368506819780478507A137A0B
:101BA000044201EA03011BD0937A03F0030309B155
:101BB00043F0040343F008039910013B91720D2B8D
:101BC0000BD8DFE803F021071B070A152121150AAE
:101BD000071B0721D368013BD3605DF8044B7047B6
:101BE000937A03F003030029E6D043F00403E3E70C
:101BF000D3685DF8044B023BD3607047D3685DF84F
:101C0000044B0233D3607047D3685DF8044B013353
:101C1000D360704784820220214B10B4D3F8BC20DB
:101C20001368506819780478507A137A044201EAEC
:101C300003011BD0937A03F0030309B143F00403BB
:101C400043F008039910013B91720D2B0BD8DFE88C
:101C500003F021071B070A152121150A071B07217D
:101C6000D368013BD3605DF8044B7047937A03F06F
:101C700003030029E6D043F00403E3E7D3685DF8EB
:101C8000044B023BD3607047D3685DF8044B0233CA
:101C9000D3607047D3685DF8044B0133D36070475D
:101CA00084820220214B10B4D3F8C02013685068FE
:101CB00019780478507A137A044201EA03011BD0A0
:101CC000937A03F0030309B143F0040343F00803DC
:101CD0009910013B91720D2B0BD8DFE803F021071F
:101CE0001B070A152121150A071B0721D368013B91
:101CF000D3605DF8044B7047937A03F00303002927
:101D0000E6D043F00403E3E7D3685DF8044B023BFD
:101D1000D3607047D3685DF8044B0233D3607047DB
:101D2000D3685DF8044B0133D3607047848202208E
:101D3000214B10B4D3F8C420136850681978047884
:101D4000507A137A044201EA03011BD0937A03F01C
:101D5000030309B143F0040343F008039910013B66
:101D600091720D2B0BD8DFE803F021071B070A1532
:101D70002121150A071B0721D368013BD3605DF8B9
:101D8000044B7047937A03F003030029E6D043F035
:101D90000403E3E7D3685DF8044B023BD36070476C
:101DA000D3685DF8044B0233D3607047D3685DF8A5
:101DB000044B0133D360704784820220214B10B45E
:101DC000D3F8C8201368506819780478507A137AC9
:101DD000044201EA03011BD0937A03F0030309B123
:101DE00043F0040343F008039910013B91720D2B5B
:101DF0000BD8DFE803F021071B070A152121150A7C
:101E0000071B0721D368013BD3605DF8044B704783
:101E1000937A03F003030029E6D043F00403E3E7D9
:101E2000D3685DF8044B023BD3607047D3685DF81C
:101E3000044B0233D3607047D3685DF8044B013321
:101E4000D360704784820220214B10B4D3F8CC2099
:101E50001368506819780478507A137A044201EABA
:101E600003011BD0937A03F0030309B143F0040389
:101E700043F008039910013B91720D2B0BD8DFE85A
:101E800003F021071B070A152121150A071B07214B
:101E9000D368013BD3605DF8044B7047937A03F03D
:101EA00003030029E6D043F00403E3E7D3685DF8B9
:101EB000044B023BD3607047D3685DF8044B023398
:101EC000D3607047D3685DF8044B0133D36070472B
:101ED00084820220214B10B4D3F8D02013685068BC
:101EE00019780478507A137A044201EA03011BD06E
:101EF000937A03F0030309B143F0040343F00803AA
:101F00009910013B91720D2B0BD8DFE803F02107EC
:101F10001B070A152121150A071B0721D368013B5E
:101F2000D3605DF8044B7047937A03F003030029F4
:101F3000E6D043F00403E3E7D3685DF8044B023BCB
:101F4000D3607047D3685DF8044B0233D3607047A9
:101F5000D3685DF8044B0133D3607047848202205C
:101F6000214B10B4D3F8D420136850681978047842
:101F7000507A137A044201EA03011BD0937A03F0EA
:101F8000030309B143F0040343F008039910013B34
:101F900091720D2B0BD8DFE803F021071B070A1500
:101FA0002121150A071B0721D368013BD3605DF887
:101FB000044B7047937A03F003030029E6D043F003
:101FC0000403E3E7D3685DF8044B023BD36070473A
:101FD000D3685DF8044B0233D3607047D3685DF873
:101FE000044B0133D360704784820220214B10B42C
:101FF000D3F8D8201368506819780478507A137A87
:10200000044201EA03011BD0937A03F0030309B1F0
:1020100043F0040343F008039910013B91720D2B28
:102020000BD8DFE803F021071B070A152121150A49
:10203000071B0721D368013BD3605DF8044B704751
:10204000937A03F003030029E6D043F00403E3E7A7
:10205000D3685DF8044B023BD3607047D3685DF8EA
:10206000044B0233D3607047D3685DF8044B0133EF
:10207000D360704784820220214B10B4D3F8DC2057
:102080001368506819780478507A137A044201EA88
:1020900003011BD0937A03F0030309B143F0040357
:1020A00043F008039910013B91720D2B0BD8DFE828
:1020B00003F021071B070A152121150A071B072119
:1020C000D368013BD3605DF8044B7047937A03F00B
:1020D00003030029E6D043F00403E3E7D3685DF887
:1020E000044B023BD3607047D3685DF8044B023366
:1020F000D3607047D3685DF8044B0133D3607047F9
:1021000084820220214B10B41A6A1368506819782F
:102110000478507A137A044201EA03011BD0937ABF
:1021200003F0030309B143F0040343F008039910DB
:10213000013B91720D2B0BD8DFE803F021071B0741
:102140000A152121150A071B0721D368013BD3601B
:102150005DF8044B7047937A03F003030029E6D03F
:1021600043F00403E3E7D3685DF8044B023BD3601C
:102170007047D3685DF8044B0233D3607047D3686F
:102180005DF8044B0133D360704700BF84820220A6
:10219000214B10B45A6A1368506819780478507A41
:1021A000137A044201EA03011BD0937A03F003037C
:1021B00009B143F0040343F008039910013B917205
:1021C0000D2B0BD8DFE803F021071B070A1521218F
:1021D000150A071B0721D368013BD3605DF8044B48
:1021E0007047937A03F003030029E6D043F0040319
:1021F000E3E7D3685DF8044B023BD3607047D368D4
:102200005DF8044B0233D3607047D3685DF8044B2C
:102210000133D360704700BF84820220214B10B489
:102220009A6A1368506819780478507A137A0442CD
:1022300001EA03011BD0937A03F0030309B143F0D1
:10224000040343F008039910013B91720D2B0BD846
:10225000DFE803F021071B070A152121150A071BD8
:102260000721D368013BD3605DF8044B7047937A34
:1022700003F003030029E6D043F00403E3E7D36847
:102280005DF8044B023BD3607047D3685DF8044BA4
:102290000233D3607047D3685DF8044B0133D360D9
:1022A000704700BF84820220214B10B4DA6A1368A1
:1022B000506819780478507A137A044201EA0301CD
:1022C0001BD0937A03F0030309B143F0040343F0F6
:1022D00008039910013B91720D2B0BD8DFE803F036
:1022E00021071B070A152121150A071B0721D3689F
:1022F000013BD3605DF8044B7047937A03F003030E
:102300000029E6D043F00403E3E7D3685DF8044B0B
:10231000023BD3607047D3685DF8044B0233D3604F
:102320007047D3685DF8044B0133D360704700BF3A
:1023300084820220214B10B41A6B136850681978FC
:102340000478507A137A044201EA03011BD0937A8D
:1023500003F0030309B143F0040343F008039910A9
:10236000013B91720D2B0BD8DFE803F021071B070F
:102370000A152121150A071B0721D368013BD360E9
:102380005DF8044B7047937A03F003030029E6D00D
:1023900043F00403E3E7D3685DF8044B023BD360EA
:1023A0007047D3685DF8044B0233D3607047D3683D
:1023B0005DF8044B0133D360704700BF8482022074
:1023C000214B10B45A6B1368506819780478507A0E
:1023D000137A044201EA03011BD0937A03F003034A
:1023E00009B143F0040343F008039910013B9172D3
:1023F0000D2B0BD8DFE803F021071B070A1521215D
:10240000150A071B0721D368013BD3605DF8044B15
:102410007047937A03F003030029E6D043F00403E6
:10242000E3E7D3685DF8044B023BD3607047D368A1
:102430005DF8044B0233D3607047D3685DF8044BFA
:102440000133D360704700BF8482022070B5044618
:1024500008460D4626F014FE23680246294620460B
:102460005B68BDE87040184738B5044608460D461D
:1024700026F006FE2368024629465B6820469847F8
:10248000054620461DF026FF284438BD624B634AAE
:102490006349DFF8B8C12DE9F043A3FB0053614C59
:1024A000614E1D0C2F1DA4FB0043A2FB00E4A7FB03
:1024B00006896409A2FB04E2C9EB0706DB0A09EB03
:1024C00056065209A1FB03E1B608C2EB0212A4EBC7
:1024D0008202C6EBC606C4EB04140909BE1BDFF872
:1024E00070E1524FA0EB840001EB4101504C3A6087
:1024F0000136A3EBC1010023CEF80060CCF8000048
:102500002160DFF834E14B4F1C4640F26D18642621
:102510004FF4C87C0DE0C9090CFB112100285BD1E8
:10252000002914BF42464FF4B77213449D4211D3A1
:10253000013404F2B272A7FB02014809744506FB9C
:10254000102002D012F0030FE5D040F26D121344B8
:102550009D42EDD2384A394994420C604CD004F285
:10256000B27291073BD040F26D11324F344EDFF81A
:10257000C8E0A7FB02075B1A4FEA571C64204FF420
:10258000C871FF0900FB1C2C01FB1727EB1A02F096
:1025900003021F2000210CE0451CBCF1000F00D1FC
:1025A0005FB9012909D19D4224D85B1B022116F88D
:1025B000010F744501D0002AEED098421AD801319B
:1025C0000C29A3EB0003F2D10D211E481E4A013352
:1025D00003601160BDE8F0834FF4B772A5E71549B9
:1025E000A1FB02014809642606FB102040B14FF40C
:1025F000B771BAE70131E8E740F26D110022B4E7A4
:10260000C9094FF4C87000FB1121002940F26D1177
:1026100008BF4FF4B771A8E707452EC2898888889C
:10262000ABAAAAAAC5B3A29125499224707302202D
:102630003C7702201F85EB514EF8FFFFCC7C022037
:1026400030E80200EC650220B463022078540220D6
:102650005C63022010B59FED070A044611201EF0AE
:102660008BFC08201EF078FC21461120BDE81040AC
:102670001EF0D2BA001BB748DFED277A9FED277A0C
:1026800080EE270AB4EEC70AF1EE10FA32D4F6EE65
:10269000007AB4EEE70AF1EE10FA12D430EE670ACF
:1026A000DFED1F7A30EE000A6FF01F0020EE270AE0
:1026B000BCEEC00A10EE103AC3F3C403184380B254
:1026C000704730EE470ADFED176A9FED157AC0EECE
:1026D000267A002367EE877AFCEEE77A17EE900AF7
:1026E000C00000F4FC606FEA40506FEA505018439D
:1026F00080B27047C0EE077A00239FED097A67EE3B
:10270000877AFCEEE77A17EE900A000200F4784030
:1027100000B2184380B2704700401C46CDCCCC3D7F
:1027200000007F43CDCCCC3E9FED7E7ADFED7E7AFC
:10273000E0EE077A84B0F5EEC07AF1EE10FA00F11F
:10274000DF809FED7A7AF4EEC77AF1EE10FA00F3AB
:102750008980FCEEE77ACDED017A9DF80420B5EE94
:10276000C00AF1EE10FA40F38580DFED717AB4EE25
:10277000E70AF1EE10FA7DD5DFED6E7A60EE277A8A
:10278000F5EEC07AF1EE10FA00F1B8809FED677AAD
:10279000F4EEC77AF1EE10FA7ADCFCEEE77ACDEDD2
:1027A000017A9DF80430DFED647AB4EEE70AF1EEC9
:1027B00010FA76D89FED617ADFED617AE0EE077A64
:1027C000F5EEC07AF1EE10FA73D49FED587AF4EE7C
:1027D000C77AF1EE10FA00F39580FCEEE77ACDEDC2
:1027E000017A9DF804109FED526AB4EEC60AF1EE2C
:1027F00010FA29D507EE902A06EE901AB8EEE77A7D
:1028000007EE903AF8EEE66AF8EEE77A27EE007AFD
:1028100067EE807A26EE800AC7EE066A87EE867A31
:10282000C0EE067AFCEEE66ABCEEC77AFCEEE77A0A
:10283000CDED016A8DED027ACDED037A9DF804208D
:102840009DF808309DF80C10120222F4FF60DB00A6
:1028500020F0070003F4FC63034343EAD10080B295
:1028600004B07047B5EEC00AF1EE10FA4FF0FF0267
:102870003FF77BAFDFED2E7AB4EEE70AF1EE10FA08
:1028800035DBDFED307AB4EEE70AF1EE10FA2ED840
:10289000DFED297AB4EEE70AF1EE10FA4FF0FF030C
:1028A00088D908DDDFED287AB4EEE70AF1EE10FAF8
:1028B00001D8002197E7DFED247AB4EEE70AF1EEC4
:1028C00010FAF6DD9FED217ADFED217AE0EE077A4E
:1028D000F5EEC07AF1EE10FAEBD49FED1E7AF4EE2D
:1028E000C77AF1EE10FA7FF778AFF0217BE7DFEDE2
:1028F000157AB4EEE70AF1EE10FA05DC002352E790
:1029000000222CE7FF216EE79FED137ADFED137AAB
:10291000E0EE077AF5EEC07AF1EE10FA7FF536AF09
:10292000ECE700BF3F5B2C3D38A2B7C200007F43FD
:1029300000208C4454EF683E00600845821B76BE40
:10294000E71A034400C8004600780F465538963E03
:10295000C45F28C500007043C4E48ABECAAD1B45ED
:102960002DE9F0472DED028B4FF47A7999FBF1F9BF
:1029700009F1010982B08A46B0EE408A364DDFF88F
:10298000E080DFED368A07465FFA89F9002440F2DD
:10299000E7362DE094FBF9F080B200EB400007EB46
:1029A0008000D0ED006AD0ED017A90ED027A68EEF9
:1029B000266A68EE277AFCEEE66AFCEEE77A16EE07
:1029C000903A17EE902A68EE077A1B02D200FCEECE
:1029D000E77A02F4FC6203F47843134317EE902A7B
:1029E0000134C2F3C4021343B44225F8023F2ED08F
:1029F000B8F80030642BCDD007EE903AF8EEE77AC5
:102A000087EEA87A17EE100A24F0D2FD07EE904A5E
:102A1000F8EEE77ACDE9000187EEA87A17EE100A02
:102A200024F0C6FD9DED001B41EC100B22F0B8F820
:102A300053EC102B5046CDE9002324F0A7FDDDE92F
:102A4000002324F009FE25F0DFF880B2A5E702B0EC
:102A5000BDEC028BBDE8F087FE01FF1F00007A4449
:102A6000E4410220FFFFFFFF2DE9F0412DED048B33
:102A7000CD4B092282B01A70002840F08180CB4BE8
:102A8000CB4ACC4FCC4DDFF84883DFEDCC8A9FEDAD
:102A9000CC8A9FEDCC9A1A60064604463DE007EECC
:102AA000906AB8EEE77AF0EE086AC7EE267AF4EE9E
:102AB000C87AF1EE10FA61DCFCEEE77A17EE902AA4
:102AC000120202F4784211B2F2EE046AC7EE267ADC
:102AD000F4EEC87AF1EE10FA4DDCFCEEE77A17EE70
:102AE000902AD20002F4FC62C7EE097A0A4301344C
:102AF0000A36F4EEC87AF1EE10FAD7BFFCEEE77AA8
:102B00001F2317EE903AC3F3C403134340F2E73296
:102B1000944227F8023F00F077812B88B3F57A7F43
:102B2000BDD007EE903AF8EEE77AA8F8003087EECD
:102B3000A87A17EE100A24F03BFD07EE904AF8EE53
:102B4000E77ACDE9000187EEA87A17EE100A24F0A3
:102B50002FFD9DED001B41EC100B22F021F890A3FE
:102B6000D3E9002351EC100B24F076FD25F06CF82E
:102B700007EE100A97E74FF4FC62B5E79249A3E726
:102B8000012868D1894B914A8A4F8B4D9FED8B8AE2
:102B9000DFED8B8A1A60002634462EE007EE906A3D
:102BA000F8EEE77AB5EE007A67EE877AF4EEE87A27
:102BB000F1EE10FA00F39B80FCEEE77ACDED007A9F
:102BC0009DF800104FEA012300F395804FEAC102FF
:102BD00003F4784302F4FC6243EA02031BB200F3FD
:102BE0009180CA081343013440F2E732944227F837
:102BF000023F06F10A0600F007812B88B3F57A7FC1
:102C0000CCD007EE903AF8EEE77A714A87EE887AF0
:102C1000138017EE100A24F0CBFC07EE904AF8EE72
:102C2000E77ACDE9000187EE887A17EE100A24F0E2
:102C3000BFFC9DED001B41EC100B21F0B1FF58A330
:102C4000D3E9002351EC100B24F006FD24F0FCFF27
:102C500007EE900AA6E7022856D1544B5D4A554F1D
:102C6000554DDFF86C819FED558A1A600026344679
:102C70000FE007EE906AB8EEE70AFFF755FD013462
:102C800040F2E7339C4206F10A0627F8020F00F0F3
:102C9000BB802B88B3F57A7FEBD007EE903AF8EE45
:102CA000E77AA8F8003087EE887A17EE100A24F049
:102CB0007FFC07EE904AF8EEE77ACDE9000187EE57
:102CC000887A17EE100A24F073FC9DED001B41EC8E
:102CD000100B21F065FF32A3D3E9002351EC100B58
:102CE00024F0BAFC24F0B0FF00EE100AC5E76FF044
:102CF0001F031F2276E703F4784343F4FC631BB2FF
:102D00001F226FE71F226DE7032867D1274B324A46
:102D1000284F294DDFF8B8809FED288A1A600026D9
:102D200034460EE007EE906AB8EEE70AFFF7A4FC1F
:102D3000013440F2E7339C4206F10A0627F8020FFD
:102D400062D02B88B3F57A7FECD007EE903AF8EE9C
:102D5000E77AA8F8003087EE887A17EE100A24F098
:102D600027FC07EE904AF8EEE77ACDE9000187EEFE
:102D7000887A17EE100A24F01BFC9DED001B41EC35
:102D8000100B21F00DFF06A3D3E9002351EC100B2B
:102D900024F062FC24F058FF00EE100AC6E700BFE2
:102DA000000000000088C340806202201C580220FE
:102DB00018CC0200FE01FF1F6642022000007A4488
:102DC00000007F430000204200F8FFFF20CC0200FB
:102DD000E44102202CCC020034CC0200042818D19B
:102DE0004D4B4E491A884E484E4B08604FF448717F
:102DF0001980B2F57A7F9FED4C0A4C4818BF1A80B3
:102E00004FF48071FFF7ACFD02B0BDEC048BBDE860
:102E1000F081052818D1404B40491A884448414B5D
:102E200008609FED410A434840F24C411980B2F5D9
:102E30007A7F4FF4807118BF1A8002B0BDEC048B0A
:102E4000BDE8F041FFF78CBD062818D1324B33495D
:102E50001A883948334B08609FED330A37484FF4DE
:102E600061711980B2F57A7F4FF4807118BF1A80B2
:102E700002B0BDEC048BBDE8F041FFF771BD07283F
:102E800018D1254B25491A882D48264B08609FEDFF
:102E9000260A2C4840F24C411980B2F57A7F4FF453
:102EA000807118BF1A8002B0BDEC048BBDE8F04100
:102EB000FFF756BD082816D1174B184A1B88224920
:102EC0001160B3F57A7F18BF164A204818BF1380E7
:102ED000B7EE000A4FF4807102B0BDEC048BBDE880
:102EE000F041FFF73DBD09288ED10B4B0B4A1B88E3
:102EF00017491160B3F57A7F18BF0A4A154818BF01
:102F00001380B7EE000A4FF4807102B0BDEC048B61
:102F1000BDE8F041FFF724BD664202201C580220A4
:102F20003CCC0200E441022000007F43A0DA020012
:102F300044CC02006C20040050CC020098390400FC
:102F400058CC02003CE8020060CC02006C2C04006B
:102F50006CCC0200DCF40200404B41491A68DFF8F7
:102F600038C122F400422DE9F0411A601A683D4E42
:102F70003D4F3E4D3E4CDFF82481DFF824E142F026
:102F800000521A600B683B4A43F480730B600023C5
:102F90003B7033702B702370A4F55334A4F2FF34CC
:102FA000202188F800308CF800308EF80030B371A2
:102FB000117022683049DFF8ECC042F08062226074
:102FC0000A68AEF54C3E04F54054A7F54B37A6F51C
:102FD0004B366FF47D78A5F5473542F08042AEF16F
:102FE000020EA7F57E774644A5F2FA3508340A604A
:102FF000224ACCF80030CEF800303B6033602B60C2
:1030000023601368A1F51F41F8391C321844086089
:10301000136843F00403136013685B07FCD51FF0CB
:10302000A5FD174A174E537903F0DF0353711DF0C6
:1030300091FC154B15481649164A04250227002411
:1030400037701D7004701B780B6823F002030B604F
:1030500013682B43136030BFBDE8F0813C8004400F
:1030600010D0034001C0074000C0074002C0074025
:1030700003C0074008C007400070044000D0034070
:103080000040064000E0074001E0074002E0074042
:1030900010E000E010ED00E005C0074004C007406C
:1030A00006C0074000900440002310B4114C417347
:1030B000426104600373036141B1194600E0426953
:1030C00042F82310427B01339A42F8DC0A4B1A681B
:1030D0000AB90CE01A469369002BFBD190610023DA
:1030E00083614360836083735DF8044B70471860AD
:1030F000F5E700BF00C70200D87C022070B5144677
:1031000086B005460E460022194BD4E9000124F092
:10311000A3FA24F051FD0022154B0190D4E90201DD
:1031200024F09AFA24F048FD0022114B0290D4E9D1
:10313000040124F091FA24F03FFD00220C4B03908F
:10314000D4E9060124F088FA24F036FD084B0490F7
:103150000022D4E9080124F07FFA24F02DFD314645
:10316000059001AA284611F067FE06B070BD00BFA9
:103170000000D04170B51E4D4B08A5FB0335AD08CE
:1031800005EB8504A400C5EBC505E4B2A1EB450140
:10319000272C0646CDB227D8132C94BF002201223B
:1031A00042F4B8722A217181304611F017FC2021B7
:1031B00045F480727181304642EA051211F00EFC2E
:1031C00007EE905AB8EEE77A07EE904AF8EEE77A03
:1031D000F7EE086AE7EE267A064BB1EE087A77EE4C
:1031E000C77AC3ED007A70BD40F27312DAE700BF10
:1031F00093244992F8630220214BDFED226A93ED7C
:10320000006A9FED217A214AC6EE865A07EE900A9F
:10321000F8EEE77A67EEA57AF4EEC77AF1EE10FAE7
:10322000C2ED007A10DDC6EE265A1949194BF2EEAE
:10323000027AE5EE877A82ED007AFDEEE77AC1ED5B
:10324000007A154A13627047F5EEC07AF1EE10FA73
:1032500012D49FED127AF4EEC77AF1EE10FAC8BFDD
:103260004FF00043EDDC9FED0E7A67EE877AFCEEBF
:10327000E77A17EE903AE4E7074A002313627047B3
:10328000B063022000442C4700E0AB469841022086
:103290007C41022000B2B57FDC5502200044AC46E0
:1032A000C637BE472DE9F04FBD4EBE4C33782DEDED
:1032B000048B022B8DB040F28B810022BA4BDFEDE4
:1032C000BB9A9FEDBB9ADFF804B3D4E9000124F068
:1032D000C3F924F071FC0022B34B0790D4E902013A
:1032E00024F0BAF924F068FC0022AF4B0890D4E92E
:1032F000040124F0B1F924F05FFC0022AA4B0990EC
:10330000D4E9060124F0A8F924F056FCA64B0A9053
:103310000022D4E9080124F09FF924F04DFC07AA0B
:103320000B900021A34811F087FD00229E4BD4E9A9
:10333000000124F091F924F03FFC00229A4B079001
:10334000D4E9020124F088F924F036FC0022964BDF
:103350000890D4E9040124F07FF924F02DFC002228
:10336000914B0990D4E9060124F076F924F024FC6D
:103370008D4B0A900022D4E9080124F06DF924F065
:103380001BFC07AA0B9001218A4811F055FD002271
:10339000854BD4E9000124F05FF924F00DFC0022F4
:1033A000814B0790D4E9020124F056F924F004FC83
:1033B00000227D4B0890D4E9040124F04DF924F05B
:1033C000FBFB0022784B0990D4E9060124F044F974
:1033D00024F0F2FB744B0A900022D4E9080124F097
:1033E0003BF924F0E9FB07AA0B900221714811F088
:1033F00023FD00226C4BD4E9000124F02DF924F0C8
:10340000DBFB0022684B0790D4E9020124F024F989
:1034100024F0D2FB0022644B0890D4E9040124F08C
:103420001BF924F0C9FB00225F4B0990D4E9060187
:1034300024F012F924F0C0FB00225B4B0A90D4E97F
:10344000080124F009F924F0B7FB07AA0B90032127
:10345000584811F0F1FC4FF0000A9BF800205FFA89
:103460008AF39A420FD80AF1010ABAF1040FF4D193
:10347000514B00214FF48032D9611A620DB0BDEC7E
:10348000048BBDE8F08F4D4B3278D3ED007A89EE96
:10349000A77A4FF47A7303FB02F307EE903AF8EE43
:1034A000E77A67EE877A67EE897A17EE900A24F05A
:1034B0007FF841EC100B41EC180B21F08DFA404BDA
:1034C00018688DED020B24F073F802460B4623F0CA
:1034D00011FF9DED020B02460B4651EC100B24F040
:1034E000E5F9B0EE480AF0EE680A04460D4621F010
:1034F00013FA204629460022324B58EC107BCDE9C6
:10350000044523F0F7FE02460B460020264924F02E
:10351000CDF9002204460D462A4B38464146CDE9F6
:10352000027823F0E7FE00228946274B009009F13C
:10353000004724F091F822462B46019724F08CF89E
:1035400024F03AFB224607462B46DDE900010797A7
:1035500024F082F824F030FB002208904FF0404322
:10356000DDE90201099724F077F822462B4624F082
:1035700073F824F021FBDDE904230A9011490020AF
:1035800023F0B6FE22462B4624F066F824F014FB06
:1035900007AA0B905146074811F04EFC63E700BFA5
:1035A00064420220184202200000D04100442C470F
:1035B00093651539A856022034520220B0630220C8
:1035C0004C4302200000F03F0000E03F8141022018
:1035D0000022694BD4E9000124F03EF824F0ECFA13
:1035E0000022654B0790D4E9020124F035F824F05D
:1035F000E3FA0022604B0890D4E9040124F02CF88F
:1036000024F0DAFA00225C4B0990D4E9060124F098
:1036100023F824F0D1FA584B0A900022D4E908018B
:1036200024F01AF824F0C8FA07AA0B900021534896
:1036300011F002FCD4E9000100224F4B24F00CF8F9
:1036400024F0BAFA00224C4B0790D4E9020124F08E
:1036500003F824F0B1FA0022474B0890D4E90401A2
:1036600023F0FAFF24F0A8FA0022434B0990D4E992
:10367000060123F0F1FF24F09FFA3F4B0A9000224D
:10368000D4E9080123F0E8FF24F096FA07AA0B908A
:1036900001213A4811F0D0FBD4E900010022364B59
:1036A00023F0DAFF24F088FA0022334B0790D4E9A4
:1036B000020123F0D1FF24F07FFA00222E4B089064
:1036C000D4E9040123F0C8FF24F076FA00222A4B43
:1036D0000990D4E9060123F0BFFF24F06DFA264BD0
:1036E0000A900022D4E9080123F0B6FF24F064FA1E
:1036F00007AA0B900221214811F09EFBD4E900019A
:1037000000221D4B23F0A8FF24F056FA00221A4B8A
:103710000790D4E9020123F09FFF24F04DFA002224
:10372000154B0890D4E9040123F096FF24F044FAE5
:103730000022114B0990D4E9060123F08DFF24F0FB
:103740003BFA0D4B0A900022D4E9080123F084FFD4
:1037500024F032FA07AA0B900321084811F06CFB01
:10376000074B00214FF480321962DA610DB0BDECD5
:10377000048BBDE8F08F00BF0000D041A8560220A6
:103780003452022070B54000334BDFED346A01FB48
:103790000001B3FBF1F607EE906A314BF8EEE77AE1
:1037A00001242DED068B1B68DFED2EAAB0EE409AAA
:1037B000C7EE809A354622462346B6EE00AA03E0BD
:1037C0000134B4F5807F38D007EE904AF8EEE77AFE
:1037D00067EEA97AF5EEC07AF1EE10FAACBF77EE9B
:1037E0008A7A77EECA7ABDEEE78A07EE905AB8EE8B
:1037F000677AF8EE487A3544C7EE278A79EE688A08
:10380000F0EEE88AF4EEE68AF1EE10FAD8D518EE7A
:10381000101AB1F5805FD3D213481CF05BFDF4EEB3
:10382000EA8AF1EE10FA13D923460134B4F5807F09
:10383000F0EE686A18EE102AC6D1BDEC068B013B8B
:103840001B03013A03F47F23C2F30B00184370BD3E
:10385000234618EE102AF0E70095BA0A8096184B16
:1038600000F1024000007A44484502200F4B104A04
:103870001B6810491268096810B5C2F30340C3F30E
:103880000444C3F30463013304FB0000C9B21844C9
:10389000FFF778FF014638B1074A1368002BFCDBBD
:1038A000064B0120196010BD10BD00BF14F002408E
:1038B00010F0024008F0024000F1024004F1024022
:1038C00070B5334B334A1B789FED337ADFED335AB3
:1038D000334C34492578344C0001161806EE903AE2
:1038E000D6ED027A314BF8EE677AF8EEE66A27EE0B
:1038F000877A66EEA56A83ED007A86EE876AC4ED64
:10390000007AFDEEC66A16EE903A0B7075B1284B40
:103910001B7806EE903AF8EEE66A66EEA56A86EE49
:10392000876AFDEEC66A16EE903A0B70F6EE006AF4
:1039300067EEA67A1044C7EE876A1E4D42681E489D
:103940000421FDEEE67A17EE903A2B7025F07AF915
:103950001A4A1B4B012111601B681B0403D594ED0F
:10396000000AFFF783FFC8201DF0EAFB154B18681B
:10397000FFF742FC144B01241C6014201DF0E0FBF7
:10398000124B83F82447BDE87040FFF78BBC00BFA3
:10399000E1410220A0E602000000003B00007A4462
:1039A000A96A02201C7A0220B06302206842022029
:1039B00011420220606302206042022088E100E0A0
:1039C0003C8004407C41022008E100E0146B0220AE
:1039D00007EE900A9FED0C6ADFED0C6A0C4B0D4868
:1039E000B8EEE77ADFED0C7A27EE067A10B5E7EE4F
:1039F000267A01241C60FCEEE77A17EE901A11F08B
:103A00002BF9064B1C6010BD0AD7233C0000014374
:103A100088E100E0107B0220EE7CFF3E08E100E040
:103A200010B4036841681A780C78417A037A0C4222
:103A300002EA03021BD0837A03F003030AB143F0C6
:103A4000040343F008039A10013B82720D2B0BD83C
:103A5000DFE803F021071B070A152121150A071BC0
:103A60000721C368013BC3605DF8044B7047837A4C
:103A700003F00303002AE6D043F00403E3E7C3683E
:103A80005DF8044B023BC3607047C3685DF8044BAC
:103A90000233C3607047C3685DF8044B0133C360F1
:103AA000704700BF08B5034BD3F89C00FFF7B8FF81
:103AB00008BD00BF8482022008B5034BD3F89800EC
:103AC000FFF7AEFF08BD00BF8482022008B5034B9C
:103AD000D3F89400FFF7A4FF08BD00BF8482022042
:103AE00008B5034BD3F89000FFF79AFF08BD00BF5D
:103AF0008482022008B5034BD3F88C00FFF790FFB7
:103B000008BD00BF8482022008B5034BD3F88800AB
:103B1000FFF786FF08BD00BF8482022008B5034B73
:103B2000D3F88400FFF77CFF08BD00BF8482022029
:103B300008B5034BD3F88000FFF772FF08BD00BF44
:103B40008482022008B5024BD86FFFF769FF08BDD9
:103B50008482022008B5024B986FFFF761FF08BD11
:103B60008482022008B5024B586FFFF759FF08BD49
:103B70008482022008B5024B186FFFF751FF08BD81
:103B80008482022008B5024BD86EFFF749FF08BDBA
:103B90008482022008B5024B986EFFF741FF08BDF2
:103BA0008482022008B5024B586EFFF739FF08BD2A
:103BB0008482022008B5024B186EFFF731FF08BD62
:103BC0008482022008B5024BD86DFFF729FF08BD9B
:103BD0008482022008B5024B986DFFF721FF08BDD3
:103BE0008482022008B5024B586DFFF719FF08BD0B
:103BF0008482022008B5024B186DFFF711FF08BD43
:103C00008482022008B5024BD86CFFF709FF08BD7B
:103C10008482022008B5024B986CFFF701FF08BDB3
:103C20008482022008B5024B586CFFF7F9FE08BDEC
:103C30008482022008B5024B186CFFF7F1FE08BD24
:103C40008482022008B5024BD86BFFF7E9FE08BD5D
:103C50008482022008B5024B986BFFF7E1FE08BD95
:103C60008482022008B50B463B2800F2C682DFE8BA
:103C700010F0BB02B202A902A00297028E028502D6
:103C80007C0273026A02610258024F0246023D0240
:103C900034022B022202190210020702AE01A50112
:103CA0009C0193018A01810178016F0166015D0128
:103CB00054014A01400136012C01220118010E0174
:103CC0000401FA00F000E600DC00D200C800BE00EB
:103CD000B400AA00A00096008C00820078006E005C
:103CE00064005A00500046003C00BD4ABD49C2F87D
:103CF000EC303B2004221CF0FBFE012008BDB84A3A
:103D0000B949C2F8E8303A2004221CF0F1FE012043
:103D100008BDB34AB549C2F8E430392004221CF08A
:103D2000E7FE012008BDAE4AB149C2F8E0303820B4
:103D300004221CF0DDFE012008BDA94AAD49C2F8ED
:103D4000DC30372004221CF0D3FE012008BDA44A39
:103D5000A949C2F8D830362004221CF0C9FE01203F
:103D600008BD9F4AA549C2F8D430352004221CF072
:103D7000BFFE012008BD9A4AA149C2F8D0303420C4
:103D800004221CF0B5FE012008BD954A9D49C2F8E9
:103D9000CC30332004221CF0ABFE012008BD904A39
:103DA0009949C2F8C830322004221CF0A1FE01203B
:103DB00008BD8B4A9549C2F8C430312004221CF05A
:103DC00097FE012008BD864A9149C2F8C0303020D4
:103DD00004221CF08DFE012008BD814A8D49C2F8E5
:103DE000BC302F2004221CF083FE012008BD7C4A39
:103DF0008949C2F8B8302E2004221CF079FE012037
:103E000008BD774A8549C2F8B4302D2004221CF041
:103E10006FFE012008BD724A8149C2F8B0302C20E3
:103E200004221CF065FE012008BD6D4A7D49C2F8E0
:103E3000AC302B2004221CF05BFE012008BD684A38
:103E40007949C2F8A8302A2004221CF051FE012032
:103E500008BD634A7549C2F8A430292004221CF029
:103E600047FE012008BD5E4A7149C2F8A0302820F3
:103E700004221CF03DFE012008BD594A6D49C2F8DC
:103E80009C30272004221CF033FE012008BD544A38
:103E90006949C2F89830262004221CF029FE01202E
:103EA00008BD4F4A6549C2F89430252004221CF011
:103EB0001FFE012008BD4A4A6149C2F89030242003
:103EC00004221CF015FE012008BD454A5D49C2F8D8
:103ED0008C30232004221CF00BFE012008BD404A38
:103EE0005949C2F88830222004221CF001FE01202A
:103EF00008BD3B4A5549C2F88430212004221CF0F9
:103F0000F7FD012008BD364A5149C2F88030202013
:103F100004221CF0EDFD012008BD314A4D49D36754
:103F20001F2004221CF0E4FD012008BD2C4A4A4950
:103F300093671E2004221CF0DBFD012008BD284AE7
:103F4000464953671D2004221CF0D2FD012008BD04
:103F5000234A434913671C2004221CF0C9FD012099
:103F600008BD1F4A3F49D3661B2004221CF0C0FD38
:103F7000012008BD1A4A3C4993661A2004221CF00D
:103F8000B7FD012008BD164A38495366192004229E
:103F90001CF0AEFD012008BD114A354913661820FA
:103FA00004221CF0A5FD012008BD0D4A3149D3654E
:103FB000172004221CF09CFD012008BD084A2E4950
:103FC0009365162004221CF093FD012008BD044ACD
:103FD0002A495365152004221CF08AFD012008BDE2
:103FE0008482022059130000CD120000411200000B
:103FF000B511000079200000ED1F0000611F0000D6
:10400000D51E0000491E0000BD1D0000311D00002E
:10401000A51C0000191C00008D1B0000011B0000E6
:10402000751A0000E91900005D190000D1180000A0
:1040300045180000A53A0000B93A0000CD3A00004A
:10404000E13A0000F53A0000093B00001D3B00008A
:10405000313B0000453B0000553B0000653B000044
:10406000753B0000853B0000953B0000A53B000030
:10407000B53B0000C53B0000D53B0000E53B000020
:104080005F4A60491365142004221CF031FD0120B1
:1040900008BD5B4A5C49D364132004221CF028FD50
:1040A000012008BD564A59499364122004221CF08D
:1040B0001FFD012008BD524A5549536411200422B6
:1040C0001CF016FD012008BD4D4A52491364102012
:1040D00004221CF00DFD012008BD494A4E49D3635E
:1040E0000F2004221CF004FD012008BD444A4B4966
:1040F00093630E2004221CF0FBFC012008BD404A03
:10410000474953630D2004221CF0F2FC012008BD36
:104110003B4A444913630C2004221CF0E9FC0120B3
:1041200008BD374A4049D3620B2004221CF0E0FC52
:10413000012008BD324A3D4993620A2004221CF046
:10414000D7FC012008BD2E4A3949536209200422B8
:104150001CF0CEFC012008BD294A36491362082014
:1041600004221CF0C5FC012008BD254A3249D36158
:10417000072004221CF0BCFC012008BD204A2F4966
:104180009361062004221CF0B3FC012008BD1C4AE8
:104190002B495361052004221CF0AAFC012008BD14
:1041A000174A28491361042210461CF0A1FC012083
:1041B00008BD134A2449D360032004221CF098FC54
:1041C000012008BD0E4A21499360022004221CF000
:1041D0008FFC012008BD0A4A1D49536001200422BA
:1041E0001CF086FC012008BD054A1A491360002016
:1041F00004221CF07DFC012008BD002008BD00BF8A
:1042000084820220F53B0000053C0000153C0000C4
:10421000253C0000353C0000453C0000553C0000BA
:10422000C123000035230000A92200001D22000048
:104230009121000005210000B91700002D17000092
:10424000A11600001516000089150000FD140000DD
:1042500071140000E5130000F8B5044615460E463B
:10426000084602211CF042FF284602211CF03EFFB6
:10427000164A174B52F83610012001F500772760D7
:10428000207252F83520607202F5007700206760D6
:10429000E060013BFDD191F8003292F8002203F07A
:1042A0000103D20744BF43F00203DBB2A3722146ED
:1042B0003046FFF7D7FC214620742846FFF7D2FC92
:1042C000237C184420742046F8BD00BFCC95040020
:1042D000C0D401009B499C4A9C4B03C92DE9F04383
:1042E0009B4C9C4D206095E80300A06092E8030081
:1042F000E06093E8070004F114032DED048B03C381
:10430000954E23F8022B102031782061F825C24009
:104310008FB065601A70002940F08C802C254FF01A
:10432000D40C4FF0280E242304AE8C488C498D4ABF
:1043300090F800800F7892E80300B8F1020FE05087
:10434000234408BF4FF00008012F197144F80EC034
:1043500000F0A680844B186823F02AF9834ACDE93F
:1043600000012821304624F06DFC314607466019D3
:1043700024F024FE3D447E4BDFF8D4910FCB37462A
:1043800007C70D223B70314660191CF0A9F943465E
:10439000784A2821304624F055FC0C350746314632
:1043A000601924F00BFE744B1B783D440BBB734B20
:1043B0001B7883B1724B186823F0FAF8714ACDE983
:1043C00000012821304624F03DFC314607466019A3
:1043D00024F0F4FD3D442023314660190222ADF85B
:1043E00010301CF07DF95A480FB0BDEC048BBDE8CD
:1043F000F083654B654A1B782821304624F022FC67
:104400003146074609EB050024F0D8FD604B614AB0
:104410001B7803EB830303EB83032821304624F04E
:1044200011FC3D443146074609EB050024F0C6FD6A
:104430003D44BCE7584A9FED598AD2ED007A584B6B
:10444000F8EEE77A93E8030087EE887A606284F8F2
:10445000281004AE5C2517EE100A23F0A9F8514B82
:10446000D3ED007AF8EEE77ACDE9020187EE887A9B
:1044700017EE100A23F09CF84B4ACDE900012821E1
:10448000304624F0DFFB2823314604F12C00A362E0
:1044900024F094FD4FF0A40C4FF0580E542344E741
:1044A000424BDFF814911B7841495A08A9FB0202DC
:1044B0009208C2EBC200A3EB4003DBB207EE103A56
:1044C00007EE902AB8EEC77AB7EE089AF8EEE76AD8
:1044D00027EE097AF3EE048AA6EEA87A0F78B1EEF9
:1044E000088A77EE487A17EE900A23F061F87B0885
:1044F000A9FB03239B08C3EBC302A7EB4207FAB255
:1045000007EE902A07EE103AF8EEE77AB8EEC77A8F
:1045100067EE897ACDE90201E7EE287A77EEC87A6C
:1045200017EE900A23F044F8224ACDE90001282131
:10453000304624F087FB3146034660191D4424F0C1
:104540003DFD18E778CC020088CC020090CC020038
:10455000C87B022080CC0200FD6A02206442022057
:10456000FE6A0220BCCC0200F8630220DCCC020010
:10457000ECCC0200FCCC0200A96A02205872022096
:104580005C43022030CD02001142022010CD020017
:10459000E241022020CD0200FC6302208096184BED
:1045A0009CCC0200B87A0220A4CC02005A720220ED
:1045B00088410220C4CC020093244992F0B5884B74
:1045C000884D894E894F93E803002DED028B2860BA
:1045D0000FCE8FB004AC0FC4D6F800E0C4F800E0F2
:1045E00004AE0FCE05F108060FC60FCFC6F800E0E7
:1045F0004FF4FC7C3F68C5F804C004AE0FC604A9A4
:10460000277005F11B0024F0D9FC794A794B282149
:1046100004A824F017FB04A9044605F12B0024F09C
:10462000CDFC754B186822F0C3FF744ACDE9000138
:10463000282104A824F006FB2B34064604A92819D7
:1046400024F0BCFC6E4B6F4A1B78022B08BF002382
:10465000282104A824F0F6FA344404A906462819AF
:1046600024F0ACFC684A694B1168694A03EB0113FA
:1046700004A89B68282124F0E5FA3444034604A9E1
:1046800028191C4424F09AFC624A634B282104A890
:1046900024F0D8FA04A9034628191C4424F08EFCFF
:1046A0005E4B5F4A282104A824F0CCFA04A90646F0
:1046B000281924F083FC5B4B1B783444002B2FD14A
:1046C000594B1B78B3B1594B9FED597AD3ED007A12
:1046D000F4EE477AF1EE10FA11D1564F0FCF04AE37
:1046E0000FC697E8030046F8040B318004A9281987
:1046F00024F064FC3B480FB0BDEC028BF0BD4E4B88
:1047000093ED007A77EE877A17EE900A22F050FF49
:104710004A4ACDE90001282104A824F093FAE5E7EC
:10472000474B9FED488AD3ED007A474EF8EEE77A83
:1047300087EE887A17EE100A22F03AFF434BD3ED4A
:10474000007AF8EEE77ACDE9020187EE887A17EE73
:10475000100A22F02DFF3E4ACDE90001282104A8CD
:1047600024F070FA04A90746281924F027FC394BD5
:104770001868A6FB0030800907EE900AF8EEE77A89
:104780003C4417EE900A22F013FF334ACDE90001B2
:10479000282104A824F056FA04A90746281924F071
:1047A0000DFC2E4B1B6886FB0326DB17C3EBA61004
:1047B00007EE900AF8EEE77A3C4417EE900A22F0F2
:1047C000F7FE274ACDE90001282104A824F03AFA8F
:1047D00004A90646281924F0F1FB344470E700BF11
:1047E00040CD0200F077022048CD02005CCD0200EF
:1047F0007CCD020070CD0200F863022094CD02004F
:1048000064420220A8CD020030430220A0E602004C
:10481000BCCD0200D0CD0200105D0220BC5C0220A5
:10482000ECCD0200FD6A0220587202205C43022097
:104830000000FEC264CE0200944102204CCE020071
:10484000FC6302208096184BD34D6210B87A022088
:1048500000CE02003C4302201CCE0200E077022082
:1048600034CE02001A4A1B491B4BF0B5D2F800E0C7
:104870001A4F1B4E1B4D1C4C024603C9186097E88B
:104880000300986096E80300D86095E80300174994
:10489000586204EB0E1403C9A468C3F8A400AC3A30
:1048A00022F0010000F5697E102101226700022636
:1048B0007825C3F8A800C3F804E09C61DF611E847A
:1048C0009D62196159849A82DA821846F0BD00BF50
:1048D000304302207CCE0200BC72022084CE020053
:1048E0008CCE020094CE0200A0E602009CCE020014
:1048F0002DE9F843344ED6F88404002847D0827955
:10490000C469324D4FF4007303FA02F292B2013CD3
:10491000A2FB0423C5E900230DF0F0FDD6F8843492
:10492000294A241A4BB39A794FF4007303FA02F21E
:10493000D5E9006792B2A2FB04232549DFF8A0C0A5
:104940000968DFF8A0E0B41A67EB0305200D40EA20
:1049500005308842CCE90045CEE9002302D21D4B48
:1049600001221A701C4B1B68984204D21B4B012277
:104970001A70BDE8F883BDE8F883D2F88834D5E929
:1049800000679BB1D3F83C24A2FB0423D5E7D6F8FB
:10499000880470B1D0F83044D0F83C340B4DA4FBFF
:1049A0000389C5E900890BF0B9FFB7E700220023AE
:1049B000C3E70021054B0A4683E806000E460F4672
:1049C0000A460B46B9E700BF707D022088720220BC
:1049D0008C410220B57702202C430220645D022026
:1049E000C07702206057022070B5A2B0664B0093DA
:1049F000664A674B6748502124F024F9002302A837
:104A0000644A65490DF0E4FF149B002B00F0B2806E
:104A100068201BF0D3FF04464FF47A759DF80C0014
:104A2000049A9DF814305D49A5605D4E20760025FE
:104A30006161E26106A984F8203026602571257342
:104A4000256104F124000DF03FFE2369554A62619F
:104A5000013323616566544B029306A80DF062FE94
:104A600023680095596B002200232046884723685D
:104A700020469B6A242202A998479DF821509DF860
:104A800020309DF8222003EB052313EB024547D08D
:104A90009DF80D609DF80C209DF80E309DF80F00DC
:104AA0009FED427A424902EB062202EB034303EBFD
:104AB0000063A3F5697307EE903AF8EE677A67EE44
:104AC000877A07EE105AF8EEC76A87EEA67ABCEE30
:104AD000C77A81ED007A3CB32368042202A99B6A5D
:104AE000204698470422334902A823F0B9FD30B389
:104AF000314B002103F1780203F8011F9A42FBD1E8
:104B00005CB1236820461B6C98472369013B2361F5
:104B10001BB9236820461B6A9847284622B070BDFF
:104B2000234B1D60002CD7D102A80422214923F079
:104B300097FD0028DCD1214B01221A700EE01F4A9C
:104B40002368012111709B6A042202A9204698471C
:104B5000236802A99B6A782220469847164B0DF1DC
:104B6000070203F1780012F8011F03F8011F9842B1
:104B7000F9D1C5E7159C002C7FF44AAF0A4B02938C
:104B800006A80DF0CFFD78E75C610220A4CE0200FC
:104B900024620220E0510220747D0220DCC6020063
:104BA000B4C7020030C702000CC702000000FA437D
:104BB000207A022094CE02008362022075730220C4
:104BC000F0B5444D296891B0064621B10023424A10
:104BD00042480DF0F1FD424C40490023324604F1B9
:104BE00010000DF029FE3F49A06C00230B70002837
:104BF00069D050220CF0D6FE3B480DF093FD3748AB
:104C00000DF090FD296821B10023364A33480DF09C
:104C1000D3FD334F002519E00CF0C4FE334968463C
:104C20001BF068FC324904A81BF064FC04A9684628
:104C30001BF08CFC10B304A81BF01CFC68461BF096
:104C400019FC0135ADB228480DF06CFD0022234956
:104C500025480DF027FE254B00265022194648B363
:104C6000BC6C1E702046002CD6D1FC6C502219461C
:104C70002046002CD2D00AF0E5FACFE71B4908A85D
:104C80001BF038FC1B490CA81BF034FC0CA908A82D
:104C90001BF05CFC04460CA81BF0ECFB08A81BF006
:104CA000E9FB04A81BF0E6FB68461BF0E3FB002CC5
:104CB000C9D0C6E70C480DF035FD08480DF032FDAF
:104CC000284611B0F0BDE06C002895D050220AF0C3
:104CD000B9FA91E7187D0220ACCE0200547B022085
:104CE0008C550220685702209C5502205C610220EE
:104CF000B0CE0200B8CE0200F0B5594D296891B08F
:104D0000064621B10023574A57480DF055FD574C30
:104D100055490023324604F110000DF08DFD544931
:104D2000A06C00230B70002800F08E8050220CF045
:104D300039FE50480DF0F6FC4B480DF0F3FC2968A5
:104D400021B100234A4A48480DF036FD4A4EB06C66
:104D500010B100210CF042FBF06C18B100220023CE
:104D60000AF02AFC454D414C00232B802EE05022B6
:104D70000CF018FE424968461BF0BCFB414904A8F0
:104D80001BF0B8FB04A968461BF0E0FB002830D0FC
:104D900004A81BF06FFB68461BF06CFBB36C2A8801
:104DA0003549002B49D05B695B09013B9BB2364911
:104DB00040F2E63001EB4201824298BF0132A1F895
:104DC000DC3798BF2A802B480DF0ACFC0022264926
:104DD00028480DF067FD40B32949A06C00230B70F3
:104DE0000028C4D1E06C0028C4D050220AF02AFA6E
:104DF000C0E7234908A81BF07DFB24490CA81BF041
:104E000079FB0CA908A81BF0A1FB07460CA81BF016
:104E100031FB08A81BF02EFB04A81BF02BFB6846F7
:104E20001BF028FB002FCED0B8E712480DF07AFC1B
:104E30000D480DF077FC11B0F0BDCB6C63B11B6871
:104E40005B09013B9BB2B2E7E06C00283FF471AF15
:104E500050220AF0F7F96CE74FF6FF73A7E700BF9F
:104E6000187D0220ACCE0200547B02208C5502201B
:104E7000685702209C550220447B02205C57022088
:104E80005C610220B0CE02000002FF1FB8CE02001B
:104E900038B5054616480DF045FC164B196821B18A
:104EA0000023154A12480DF087FC144C10490023CA
:104EB0002A4604F110000DF0BFFC1149A06C00233C
:104EC0000B7068B150220CF06DFD09480DF02AFC02
:104ED0000C4B1B781BB9FFF787FD0B4B186038BDD7
:104EE000E06C0028F1D050220AF0ACF9EDE700BFE9
:104EF000547B0220187D0220246202208C5502205F
:104F00005C610220257B0220D47702202DE9F04F3E
:104F10007B487C4E97B00DF005FC7B480DF002FC01
:104F2000316821B10023794A77480DF045FC784D6E
:104F3000A86C10B100210CF051FAE86C18B10022F5
:104F400000230AF039FBDFF8DCA1DFF8D48100236D
:104F5000AAF80030444600226B4969480DF0A2FCD3
:104F60000746002842D06B49A06C00230B7040B369
:104F700050220CF017FDD8F8483063B31B7813F0BB
:104F8000700F14BF01230023BBB1AB6CBAF8002033
:104F90005F49002B00F0AA805B695B09013B9BB273
:104FA0005D4940F2E63001EB4201824298BF013296
:104FB000A1F8AC3F98BFAAF8002051480DF0B2FB11
:104FC000C9E7E06C0028F8D050220AF03BF9D8F885
:104FD0004830002BD2D1E36C002BEED093F8313067
:104FE00013F0500F14BF01230023CDE744480DF008
:104FF00099FB45480DF096FB316821B13B46434A89
:1050000041480DF0D9FBBAF80030012B65DD4FF0B7
:1050100001094F46002F58D000273D46CDF8049097
:105020003E4C2FE050220CF0BDFC35480DF07AFBD1
:10503000002334F8022F344931480DF0FDFBD8F835
:105040004800002301358DF80830002833D002AE27
:10505000314650220CF0A6FC29480DF063FB2D4888
:1050600022F0CEFF8346304622F0CAFF834507DD9B
:1050700034F8023C228824F8022C0137BFB2238086
:10508000BAF80030C9EB0302954220DA00231E492A
:1050900022881B480DF0D0FB1E49D8F84800002399
:1050A0000B700028BED11E4BD86C0028BDD05022FA
:1050B0000AF0C8F8B9E71A4BD86C02AE0028CBD07A
:1050C000314650220AF0BEF8C6E7CDF804900199A7
:1050D0005A1E8A4209F101099CDC09480DF022FBA5
:1050E00009480DF01FFB17B0BDE8F08FCB6C23B162
:1050F0001B685B09013B9BB252E74FF6FF734FE71A
:105100009C550220187D0220547B0220ACCE020068
:10511000447B0220685702200002FF1FAC11FF1FD2
:105120008C550220705202202DE9F04F5D4FBB6C70
:1051300095B0002B00F0A7805B480DF0F3FA5B4BB5
:105140005B4E18685B4D5C4CDFF8A8B1DFF8A8A196
:10515000DFF8A891DFF8A881FDF798F93368226895
:105160002968019103F2B27300925021534A5448C6
:1051700023F068FD336822682968DBF8000001919C
:105180000092DAF80010D9F80020049003F2B2730C
:105190000391029250214B4A4B4823F053FD4A4A57
:1051A0004A48502123F04EFD33682A682468DAF813
:1051B0000000D9F80010DBF8006003900291019222
:1051C0001421049603F2B2730094414A414823F03B
:1051D00039FDD8F8001021B100233F4A3F480DF0B7
:1051E000EBFA3F4D364A3F4805F1100101230DF01F
:1051F000ADFA0446E8B13C49344B009301240C70ED
:105200002F4B3A4A3048502123F01CFDD8F80010AB
:1052100029B140F201232C4A23480DF0CDFAB86C95
:10522000204B002834D032490BF0BEFE15B0BDE84B
:10523000F08FAE6CB6B103468DF818003146204AA7
:105240008DF8194006A88DF81A400BF03FFE002893
:10525000DCD01E4B0093254A194B1B48502123F0EC
:10526000F1FCD3E7E96C0029D0D03346144A8DF81D
:10527000496006A88DF84A608DF84B600AF00AFC78
:105280000028C3D0E5E7FB6C002B7FF455AF56E751
:10529000D86C0028CAD0164A00230AF06DFF15B05A
:1052A000BDE8F08F8C5502209C55022000D00340B1
:1052B000CC7C0220EC650220B4630220C0CE020048
:1052C00060770220D0CE02005C610220105D0220D7
:1052D000F0CE0200BC5C0220ACCE02006856022078
:1052E00058560220547B0220DC77022010CF0200A7
:1052F000C0E1E40078540220707302203C77022061
:10530000187D02202DE9F041A74F3D68C5F35115E6
:10531000ADF5856D002D00F03381A44CA44E04EB57
:105320008535B04605E00CF0F3F904F58044AC4255
:1053300014D0B36C4FF4804221461846002BF2D1B2
:10534000D8F84C3021464FF480421846002BECD060
:1053500004F580440BF012F8AC42EAD10023944DDE
:105360003B6004E00CF0D4F9924810F045FB914802
:1053700010F0F8FA00288F4813DD10F021FBB36C11
:10538000044601464FF480721846002BEAD1EB6CBC
:105390004FF4807221461846002BE5D00AF0EEFF4C
:1053A000E2E7B06C824B002800F0A0800CF074F9AA
:1053B000B06C7F4B002800F0EE8000210CF00EF85E
:1053C000B36C7B4A002B00F0D080DF6900253C469F
:1053D0003846FFF747FAAC2201461FA81BF080F9B8
:1053E000B06C734B002800F0B78000210BF0F6FF83
:1053F000B06C6F4B002800F0A6801FA9AC220CF007
:1054000087F9B06C6A4B002800F0BC802C210BF0AF
:10541000E5FF694A9FED697A02F5F070134653F88B
:10542000041F07EE901AF8EE677AF4EE477AF1EE71
:1054300010FAC8BFB0EE677A9842F0D1B5EE407A64
:10544000F1EE10FA1CBFF7EE007A87EE877A0DF1C5
:105450000301DFED5B6A52F8043F07EE903AF8EE85
:10546000677A904267EE877A67EEA67AFCEEE77A73
:1054700017EE903A01F8013FEDD1B06C4C4B00288B
:1054800052D0782201A90CF043F9B06C484B0028A7
:1054900055D1D86C18B122462B460AF08DF8FEF78C
:1054A00019FF4FF4807201464AA81BF019F9B06C3D
:1054B0003F4B80B34AA94FF480720CF029F9FFF7F3
:1054C0007DF84FF4007201468AA81BF009F9B06C10
:1054D000374B88B18AA94FF400720CF019F939489A
:1054E0000DF020F90DF5856DBDE8F081D86C002830
:1054F00042D00AF0D1FE5BE7D86C0028EFD08AA931
:105500004FF400720AF03AFF2E480DF00BF90DF53A
:10551000856DBDE8F081D86C0028D0D04AA94FF441
:1055200080720AF02BFFCAE7D86C0028B7D0782227
:1055300001A90AF023FFB06C1D4B0028A9D0394601
:105540000BF04CFFABE7D86C00283FF462AF1FA90B
:10555000AC220AF013FF54E7D86C00283FF459AF8F
:10556000002200230AF028F842E7D76C2FB1D7E9D0
:105570000445002527462BE707460024002527E79A
:105580000B4EEBE6D86C00283FF443AF2C220023EF
:105590000AF012F83DE7D86C0028EDD00022002375
:1055A0000AF00AF80CE700BF587702208019FF1FA5
:1055B0008C55022068590220705202200000000021
:1055C000000048439C5502202DE9F0433B4EC1B0FA
:1055D000374619E0DFF8F08000253368384805EBDE
:1055E000430308EB032410F0EBF94FF480720146FB
:1055F00020461BF075F80135314810F0FDF9022DF9
:10560000EBD13B6801333B602D4810F0ABF901282A
:10561000E0DC3368BF2B4ED9DFF8AC80294D44461F
:1056200008F5C037A94605E00CF072F804F580448F
:10563000BC4214D0AB6C4FF4804221461846002B7C
:10564000F2D1D9F84C3021464FF480421846002B55
:10565000ECD004F580440AF091FEBC42EAD100256A
:10566000294668464FF48072356023F08FF814485D
:1056700008EB052410F076F9D8B1114810F0A0F924
:105680004FF48072014620461BF02AF80C4810F0B7
:10569000B3F921464FF48072684622F0E1FF0028FA
:1056A000E5D00135064808EB052410F05BF9002829
:1056B000E3D16D08356041B0BDE8F0835877022032
:1056C000685902208C5502208019FF1F2DE9F04FE8
:1056D000DFF8F0816F4A98F8003000251570002B34
:1056E00000F0CD805F1EFFB26B4A6C4B92F800E079
:1056F000DFF8D4C1013707EB470703EB870703F156
:105700000804BEF1000F00F09C80197A05EB4506F5
:10571000A4F108020CEB860605F1010921B107CAC4
:1057200086E807005FFA89F50C33BB4204F10C04EC
:10573000E7D15B4E88F8005096F800E0BEF1000F0C
:1057400013D00EF1FF35EDB2013505EB4505DFF85D
:105750004CC1544FAD0000230CEB030207CAFC18E8
:105760000C33AB4284E80700F6D14F4A4F4B147814
:105770004F4886F800E00D210926062504221970FD
:10578000D9705E709D7002704A49002C75D00C244F
:105790004FF0050E0A701C7180F800E00D78434E42
:1057A00000240D23012733B3013BDBB20133424A0E
:1057B000DFF81881DFF818C14049414803EB430383
:1057C00002EB830A5FFA84F90023ECB991F808B080
:1057D000BBF1000F02D00133DBB24F724D451FD039
:1057E0000C32924508F10C080CF10C0C01F10C0183
:1057F00000F10C00E9D101345FFA84F9CE45337031
:1058000039D916F8013FCEE7B9F1010F10D19CF854
:1058100008B0BBF1000FE1D001334D45DBB2DFD161
:1058200092F808B0BBF1000FDAD00133DBB2D7E752
:10583000B9F1020F25D190F808B0BBF1000FCDD01F
:10584000EAE714F8082CA2F1640101297FF66CAF95
:10585000672A3FF469AF197A05EB4506A4F10802FF
:105860000CEB860600293FF45FAF07CA013586E8D6
:105870000700EDB258E7BDE8F08F96468EE71D466B
:1058800057E7B9F1030FA9D198F808B0BBF1000FA1
:10589000A4D0C1E7F463022081620220FC38040036
:1058A0008041022004560220046302207C5802201A
:1058B000E3410220404302206C3804008042022071
:1058C00088C8020020430220247A0220BC1F040062
:1058D0003CF40200FFFFFFFF70B5044B1B68044659
:1058E00084B018460D46FCF7D1FD01E000D003401E
:1058F000FF2C00F22281DFE814F0A8039D039B0334
:105900009103AE03AB032001B60334030D03200162
:10591000200100032001200120012001200120019D
:10592000200120012001200120012001200120016F
:10593000200120012001200120012001200120015F
:10594000200120012001200120012001200120014F
:10595000200120012001200120012001200120013F
:10596000200120012001200120012001200120012F
:10597000200120012001200120012001200120011F
:10598000200120012001200120012001200120010F
:1059900020012001200120012001200120012001FF
:1059A00020012001200120012001200120012001EF
:1059B00020012001200120012001200120012001DF
:1059C0002001F802F602F40220012001EC0220017D
:1059D00020012001200120012001200120012001BF
:1059E00020012001200120012001E302CD028603D5
:1059F000200120012001200120012001200120019F
:105A0000200120012001200120012001200120018E
:105A1000200120012001200120012001200120017E
:105A20002001200120017A0370036E036C036003E0
:105A30003F033D03C503BC03B8038803DC03CA036B
:105A4000200120012001200120012001200162020B
:105A5000200120012001200120012001200120013E
:105A6000200120012001200120012001200120012E
:105A7000200120012001200120012001200120011E
:105A80002001200120012001200120014E021E02E0
:105A90001202200120012001200120010B0203023B
:105AA00046023E02FB01EF012001200120012001FE
:105AB0002001ED01E201DA01200120012001200195
:105AC00020012001200120012001200120012001CE
:105AD00020012001200120012001D801C301B701CC
