:1000000000000320D1010000251C0200DD1B0200BE
:10001000DD1B0200DD1B0200DD1B0200DD1B0200F8
:10002000DD1B0200DD1B0200DD1B0200251C02009F
:10003000251C0200DD1B02008D40020091400200E1
:10004000251C0200251C0200251C0200251C0200A4
:10005000251C0200251C0200251C0200251C020094
:10006000251C0200251C0200251C0200251C020084
:10007000251C0200251C0200251C0200251C020074
:10008000251C0200251C0200251C0200251C020064
:10009000251C0200251C0200251C0200251C020054
:1000A000455C0200515C0200251C0200251C020078
:1000B000251C0200251C0200251C0200BD2E02008A
:1000C000251C0200251C0200251C0200251C020024
:1000D000251C0200251C0200251C0200251C020014
:1000E000251C0200251C0200251C0200251C020004
:1000F000251C0200251C0200251C0200251C0200F4
:10010000251C0200251C0200251C0200251C0200E3
:10011000251C020001320200251C0200251C0200E1
:10012000251C0200251C0200251C0200251C0200C3
:10013000251C0200251C0200251C0200251C0200B3
:10014000E9FF0000251C0200251C0200251C0200FE
:10015000251C0200251C0200251C0200251C020093
:10016000251C0200251C02005D5C0200251C02000B
:10017000251C0200251C0200251C0200251C020073
:10018000251C0200251C0200251C0200251C020063
:10019000251C0200251C0200251C0200251C020053
:1001A000251C0200251C0200251C0200251C020043
:1001B000251C0200251C0200251C0200251C020033
:1001C000251C0200251C0200251C0200251C020023
:1001D0005C4B4CF2205210B51A804DF628121A8052
:1001E00000BF00BF21F022FD574B4FF030621A6074
:1001F000564A9A60564ADA60564B4FF470021A60BB
:10020000554B564A1A60564B1A78110703D51A787F
:1002100042F008021A70534B5349AA221A70534AEB
:10022000534B8B4204D252F8040F43F8040BF8E707
:10023000504B514900228B4202D243F8042BFAE77B
:100240004E494F4A002352F8230041F8230001335E
:10025000742BF8D14B4B4C4A802103F8011B93427D
:10026000FBD14A4B454A1A60494B8A221A70A3F5C2
:10027000805324225A70A0221A709A799207FCD5D2
:100280009A79D406FCD4434A937903F00C03082BE3
:10029000FAD1414B60221A7002331A78802AFCD1BD
:1002A0003C4B01221A715D225A719A799006FCD555
:1002B0009979384A4906FBD5384B394919600021EC
:1002C000596020231370937903F00C030C2BFAD19F
:1002D000344B354A1A60354A354C136813F4807331
:1002E00003D123604FF4A8531360324B324A1A6093
:1002F00000225A60072243F8042C304AC3F80C2D20
:1003000062B622F019F92368DA0705D52C4821F0E6
:100310001BFE2C4B2C4A1A602C4B1B785B0609D514
:10032000284C294B22689A4204D1254821F00CFE22
:100330000023236029F01CF821F07EFC21F072FBE1
:10034000FEE700BF0E20054030800440823F0400DD
:100350000100002B88ED00E0002008E0030000858C
:1003600002D0074000E00740A853022074BC0500FB
:10037000303F0220C0530220CC880220003A0220E5
:100380000000000000E400E064E400E008ED00E0AC
:10039000005006400040064001E007404480044011
:1003A0000000060204800440C010070010D0034083
:1003B00014D0034014E000E01FBF02000000202022
:1003C000CC7452631CE00340A5C3945A00F007406C
:1003D000FFFFFFFFFFFFFFFFFFFFFFFFFFFFFFFF2D
:1003E000FFFFFFFFFFFFFFFFFFFFFFFFFFFFFFFF1D
:1003F000FFFFFFFFFFFFFFFFFFFFFFFFFFFFFFFF0D
:10040000FFFFFFFFFFFFFFFFFFFFFFFFDEF9FFFF23
:1004100010B5054C237833B9044B13B10448AFF33E
:1004200000800123237010BDC05302200000000093
:1004300070BC0500084B10B51BB108490848AFF364
:1004400000800848036803B910BD074B002BFBD0A0
:10045000BDE81040184700BF00000000C453022050
:1004600070BC0500A8530220000000000020704767
:10047000704700BF00207047002070474FF0FF30EA
:10048000704700BF006910B103689B6A1847704746
:10049000006910B10368DB6A18477047006910B142
:1004A00003681B6918477047006910B103689B69AE
:1004B00018474FF0FF307047006910B10368DB68E0
:1004C00018477047006910B10168096B0847704709
:1004D00010B4006920B10468616B5DF8044B0847F3
:1004E0005DF8044B704700BF006910B103689B6B57
:1004F0001847002000217047006910B10368DB6BCA
:100500001847002000217047006910B103681B6C78
:1005100018477047006910B103685B6C1847704753
:10052000006910B103689B6C18470148704700BF11
:10053000F8E30200006910B10368DB6C18477047EC
:1005400038B50B6904462BB11D6819462B6D9847C9
:10055000204638BD4FF47A70064A23712373A06099
:1005600022600B692361002BF2D01A6901321A61F3
:10057000204638BDD4DA0200006910B103685B6D13
:1005800018477047006980B100B5036883B09B6A63
:1005900001220DF10701984720B19DF8070003B033
:1005A0005DF804FB4FF0FF30F9E74FF0FF30704784
:1005B00010B582B002AB026803F8011DD46A194677
:1005C0000122A04702B010BDC36D0BB101207047DE
:1005D000006E003018BF0120704700BF704700BF99
:1005E0009FED057ADFED057AE0EE077AFCEEE77A1B
:1005F00017EE901A15F06EBB00000143EE7CFF3E33
:1006000010B50446406E18B128F0FCFE0023636666
:1006100004F12400BDE8104013F02AB910B5044BD2
:10062000044640F8103B13F023F9204610BD00BFEC
:100630008CDA020010B504460246036905490648F3
:1006400020F030FF206920B10368BDE810405B6AEC
:10065000184710BD50DC02003C47022002460369E7
:100660000149024820F01EBF6CDC02003C4702201A
:100670002DE9F041002394B01A460546243104A820
:100680004FF47A74254F8DF804308DF80C301293A6
:1006900013930294009713F0ABF9129B002B32D006
:1006A000682021F035FB04469DF80460029A9DF80D
:1006B0000C301B481B4926764FF47A7800262060C0
:1006C0006161E26184F8203004F1240004A92671FC
:1006D00026732661C4F8088013F09CF82369124A37
:1006E0006761013366662E71C5F808802E732C6130
:1006F00023612A600D4B009304A813F0B9F8284633
:1007000014B0BDE8F081139B002BC9D1064A2B71B0
:10071000AC602B732B612A60ECE700BFB0DA0200FB
:1007200034DB02005CDA0200D4DA02008CDA020068
:1007300021F004BCF8B50D46064616F061FD16F032
:10074000D1FC044616F05CFD16F0BEFC074616F020
:1007500057FD16F0ABFCA4F2BC739BB27F2B02D802
:10076000FAB20C2A28D90023338016F049FD16F07E
:1007700073FC064616F044FD16F07CFC044616F0A9
:100780003FFD16F085FCF3B2172B12D8E3B23B2BDA
:100790000FD8C3B23B2B0CD8F302640103F4FF2340
:1007A00004F4FF542343C0F3460003439BB22B8061
:1007B000F8BD00232B80F8BDC0B21F28D3D87F011D
:1007C00007F4FF57384340EA43239BB2CCE700BF0E
:1007D00010B504460FF078FD204610BDC26D62B121
:1007E000137803F0080303F0FF0003B3D3695069E3
:1007F000181A48BF6FF000407047016EC1B191F800
:10080000313003F0080303F0FF0083B1D1E9042382
:10081000D1E90001101A30B463EB010100256FF03B
:1008200000448D4208BF844200D2204630BC70474D
:1008300008467047C36D13B1184611F053BD006EE2
:1008400008B10FF047BF4FF0FF30704700B5836C21
:1008500083B063B1184601220DF1070111F072FC5B
:1008600001280CD19DF8070003B05DF804FBC06CB3
:1008700028B101220DF107010FF058FEF0E74FF00B
:10088000FF30F1E7836C13B1184611F0A5BFC06CBF
:1008900008B110F0EBBB7047026842B11369013B2D
:1008A00013612BB9006810B103681B6A18477047C1
:1008B000704700BFD0B5C46D8CB1012B08BF002AB2
:1008C00001D30020D0BD1146204611F02DFE002896
:1008D000F7D0204611F086FF0028F2D0D0BD046E7C
:1008E000002CEED020460FF00DFF0028E9D0204666
:1008F000BDE8D04010F076BD10B5044619B101290D
:1009000011D0002010BD5522202115F0A5F8002897
:10091000F7D0E28842F00402204692B22421BDE8DA
:10092000104015F099B840F273122A2115F094F88E
:100930000028E6D088222021204615F08DF80028D6
:10094000DFD0E288204622F004022421BDE81040D6
:1009500015F082B8C36D13B1D86900217047036EDA
:1009600013B118695969704718461946704700BF96
:10097000C36D13B1586900217047036E13B193E83A
:100980000300704718461946704700BFC36D13B186
:10099000184611F0D7BB006E08B10FF0C7BD4FF07D
:1009A000FF307047836C13B1184611F09BBCC06CCC
:1009B00008B10FF08FBE4FF0FF307047C36D33B1F9
:1009C0001B7813F0700F14BF012000207047006ED9
:1009D00030B190F8313013F0500F14BF01200020D7
:1009E000704700BFC36D13B1184611F0F5BE006E1D
:1009F00008B110F03BBB7047826C62B1137803F012
:100A0000080303F0FF0003B3D3695069181A48BF05
:100A10006FF000407047C16CC1B191F8313003F004
:100A2000080303F0FF0083B1D1E90423D1E90001F9
:100A3000101A30B463EB010100256FF000448D42C1
:100A400008BF844200D2204630BC70470846704739
:100A5000C36D9BB11A7812F0700F00D1704710B5BA
:100A600004460021184611F05FFD206E28B10022D7
:100A70000023BDE810400FF045BE10BD006E0028F9
:100A8000ECD090F8313013F0500FE7D00022002363
:100A90000FF038BE836C13B1184611F0DFBEC06C86
:100AA00008B110F011BD7047C36D13B1184611F0B5
:100AB000D5BE006E08B110F007BD704700B5836C5D
:100AC00083B08DF8071043B1184601220DF10701DC
:100AD00011F0C4FE03B05DF804FBC06C0028F9D02F
:100AE00001220DF1070110F0EFFC03B05DF804FBEB
:100AF0000269084B10B50446036042B11369013B1B
:100B0000136123B9006910B103681B6A9847204636
:100B100010BD00BFD4DA0200C26A0949094B10B502
:100B200004460160C36142B11369013B136123B9FB
:100B3000C06A10B103681B6A9847204610BD00BF09
:100B4000FC6B0400D4DA020038B5C36D144A0260AD
:100B5000044600F12405F3B1284612F089FE606EC8
:100B600008B128F04FFC0F4B6361284612F080FE5D
:100B700022690D4B236042B11369013B136123B914
:100B8000206910B103681B6A98472046682121F04C
:100B9000C5F8204638BD036E002BDDD1DFE700BF6E
:100BA00034DB02008CDA0200D4DA020002690A4B5C
:100BB00010B50446036042B11369013B136123B9C8
:100BC000006910B103681B6A98472046142121F080
:100BD000A5F8204610BD00BFD4DA0200D0B4039CB3
:100BE00016461F4634B1012C1ED0022C0DD0002019
:100BF000D0BC7047C46DDCB1012B08BF002AF6D20F
:100C000020461146D0BC11F08FBCC36DB3B1DA6978
:100C1000B61847F10007012F08BF002EE7D2314672
:100C20001846D0BC11F080BCC36D8BB15A69EFE798
:100C3000006E0028DBD0D0BC0FF064BD006E002831
:100C4000D5D0D0E9042392197B41D0BC0FF05ABD16
:100C5000006E0028CBD0D0E9002392197B41EAE74F
:100C600038B5C36D124A0260044600F12405D3B1C1
:100C7000284612F0FDFD606E08B128F0C3FB0D4B55
:100C80006361284612F0F4FD22690B4B236042B1E8
:100C90001369013B136123B9206910B103681B6A12
:100CA0009847204638BD036E002BE1D1E3E700BF33
:100CB00034DB02008CDA0200D4DA020038B5446E6C
:100CC0000CB1204638BD05464FF4807028F092FBE9
:100CD0000146686680B1E86D0C7028B14FF48072EF
:100CE00011F006FF6C6EECE7286E40B14FF4807295
:100CF0000FF04EFB6C6EE4E7024C6C66E1E70C46CD
:100D0000DFE700BFDC5302202DE9F0412DED028B1F
:100D100007219AB0A44822F0CFFF0F21A34822F068
:100D2000CBFFA34820F0A2FB0421A24822F0C4FF7D
:100D3000A14829F065FB01469F4822F0BDFF9C4871
:100D400020F094FB40F202239B4A9C4906A812F033
:100D5000E5FE189B002B00F02382682020F0D8FFCE
:100D6000044600259DF81C60089A9DF8243094489C
:100D7000944920604FF47A780AAF26766161E26187
:100D800084F8203004F1240039462571257325614B
:100D9000C4F8088012F03EFD23698B4A8B4E6566CD
:100DA00001338DF80850CDF80C808DF81050059463
:100DB000626123610196864B0693384612F058FD16
:100DC000844B85491A689FED858A854C01A820F0DF
:100DD00069FB844B84491A6801A820F063FB834BAC
:100DE00083491A6801A820F05DFB824B82491A688A
:100DF00001A820F057FB814B81491A6801A820F017
:100E000051FB804B80491A6801A820F04BFB7F4BB7
:100E10007F4993F9002001A820F044FB7D4B7E49D7
:100E200093F9002001A820F03DFB7C4B7C491A6817
:100E300001A820F037FB7B4B7B491A7801A820F0F2
:100E400031FB7A4B7A491A7801A820F02BFB794BB9
:100E50007949D3ED007A67EE887A01A8FDEEE77A4A
:100E600017EE902A20F01EFB744B75491A7801A8E2
:100E700020F018FB734B74491A7801A820F012FB7C
:100E8000724B73491A7801A820F00CFB714B724920
:100E90001A7801A820F006FB704B71491A7801A856
:100EA00020F000FB6F4B70491A7801A820F0FAFA85
:100EB0006E4B6F491A7801A820F0F4FA6D4B6E4919
:100EC0001A7801A820F0EEFA6C4B6D491A7801A847
:100ED00020F0E8FA6B4B6C491A7801A820F0E2FA8E
:100EE0006A4B6B491A7801A820F0DCFA694B6A4911
:100EF0001A7801A820F0D6FA684B69491A7801A837
:100F000020F0D0FA674B68491A7801A820F0CAFA95
:100F1000664B67491A7801A820F0C4FA654B664908
:100F20001A8801A820F0BEFA644B65491A8801A806
:100F300020F0B8FA634B64491A8801A820F0B2FA8D
:100F4000624B63491A8801A820F0ACFA614B6249F0
:100F50001A7801A820F0A6FA604B61491A7801A816
:100F600020F0A0FA5F4B60491A7801A820F09AFAA5
:100F70005E4B5F4993F9002001A820F093FA5D4B86
:100F80005D4993F9002001A820F08CFA5B4B5C4985
:100F90001A7801A820F086FA22685A4901A820F0A0
:100FA00081FA6268B0E000BF8CDC020094DC0200D1
:100FB0003C470220A4DC020048440220787F022043
:100FC00034DB02005CDA0200B0DA0200D4DA02009C
:100FD0008CDA0200E0430220ACDC02000000C842D0
:100FE000FC7C022060440220C0DC02000C45022090
:100FF000D8DC0200D06C0220F0DC02003444022075
:1010000000DD02001C44022010DD0200B47D02203D
:1010100020DD0200D059022030DD020054430220BE
:101020003CDD02005444022050DD020059430220FE
:1010300060DD02003445022074DD020040450220DC
:1010400084DD0200B943022094DD02003045022015
:10105000A0DD02001A440220ACDD0200314402206F
:10106000BCDD020010450220CCDD0200E843022076
:10107000E0DD0200B8430220ECDD0200AC430220B8
:10108000F8DD0200E943022004DE0200BA43022038
:1010900010DE0200847902201CDE0200DE790220CC
:1010A00028DE0200644402203CDE0200226D0220A1
:1010B00050DE02004C45022060DE02006843022040
:1010C00074DE02001E45022088DE0200B6430220C4
:1010D00098DE020074560220A8DE02000C6802208E
:1010E000BCDE020044440220D0DE02009543022010
:1010F000E4DE020074430220F8DE0200A474022041
:1011000010DF020024DF02002D4901A820F0CAF9F7
:10111000A2682C4901A820F0C5F92B4B2B491A785D
:1011200001A820F0BFF92A4B2A491A7801A820F01B
:10113000B9F9294B294993F9002001A820F0B2F907
:10114000274B284993F9002001A820F0ABF9264B42
:101150002649D3ED007A67EE887A01A8FDEEE77A9A
:1011600017EE902A20F09EF9059898B10368DB6885
:101170009847059870B103681B6C9847059A0196CB
:1011800042B11369013B136123B9059810B103689B
:101190001B6A984701201AB0BDEC028BBDE8F081B4
:1011A000199B002B7FF4D9AD4FF47A72104E8DF855
:1011B00008308DF810300593039201960AAFFAE5D6
:1011C00034DF02004CDF02009443022060DF0200A3
:1011D000E279022074DF02001844022084DF02005A
:1011E000CC6C022094DF02006C430220A8DF0200D6
:1011F000D4DA020070B5044608460D4629F000F91D
:1012000023680246294620465B68BDE870401847BF
:1012100038B5044608460D4629F0F2F82368024620
:1012200029465B68204698470546204620F01EF96F
:10123000284438BD38B50A220023054620F040F97D
:101240000446284620F012F9204438BD38B505463A
:1012500020F076F90446284620F008F9204438BDED
:1012600038B50A220023054620F02AF9044628460C
:1012700020F0FCF8204438BD624B634A6349DFF834
:10128000B8C12DE9F043A3FB0053614C614E1D0C26
:101290002F1DA4FB0043A2FB00E4A7FB0689640901
:1012A000A2FB04E2C9EB0706DB0A09EB560652096A
:1012B000A1FB03E1B608C2EB0212A4EB8202C6EB6B
:1012C000C606C4EB04140909BE1BDFF870E1524FD7
:1012D000A0EB840001EB4101504C3A600136A3EBD6
:1012E000C1010023CEF80060CCF800002160DFF8D7
:1012F00034E14B4F1C4640F26D1864264FF4C87C15
:101300000DE0C9090CFB112100285BD1002914BF95
:1013100042464FF4B77213449D4211D3013404F294
:10132000B272A7FB02014809744506FB102002D0E7
:1013300012F0030FE5D040F26D1213449D42EDD23E
:10134000384A394994420C604CD004F2B272910789
:101350003BD040F26D11324F344EDFF8C8E0A7FBAE
:1013600002075B1A4FEA571C64204FF4C871FF094B
:1013700000FB1C2C01FB1727EB1A02F003021F20B5
:1013800000210CE0451CBCF1000F00D15FB9012920
:1013900009D19D4224D85B1B022116F8010F744528
:1013A00001D0002AEED098421AD801310C29A3EBC3
:1013B0000003F2D10D211E481E4A01330360116063
:1013C000BDE8F0834FF4B772A5E71549A1FB020110
:1013D0004809642606FB102040B14FF4B771BAE704
:1013E0000131E8E740F26D110022B4E7C9094FF47A
:1013F000C87000FB1121002940F26D1108BF4FF4A5
:10140000B771A8E707452EC289888888ABAAAAAA1F
:10141000C5B3A291254992249875022064790220CF
:101420001F85EB514EF8FFFFD07E0220380B0300E2
:1014300010680220C4650220785602206C650220E4
:1014400038B50D2104460F4D0F4822F035FC01211F
:101450000E4822F031FC214600230A22284620F0C3
:101460002FF8284620F002F89FED090A112020F0FD
:101470002DFF082020F01AFF21461120BDE838403A
:1014800020F074BD3C470220C8DF0200E0E6020005
:10149000001BB748DFED277A9FED277A80EE270AF9
:1014A000B4EEC70AF1EE10FA32D4F6EE007AB4EEDA
:1014B000E70AF1EE10FA12D430EE670ADFED1F7A78
:1014C00030EE000A6FF01F0020EE270ABCEEC00AC3
:1014D00010EE103AC3F3C403184380B2704730EEE5
:1014E000470ADFED176A9FED157AC0EE267A0023D2
:1014F00067EE877AFCEEE77A17EE900AC00000F4F8
:10150000FC606FEA40506FEA5050184380B2704759
:10151000C0EE077A00239FED097A67EE877AFCEE2A
:10152000E77A17EE900A000200F4784000B2184300
:1015300080B2704700401C46CDCCCC3D00007F43BC
:10154000CDCCCC3E9FED7E7ADFED7E7AE0EE077A61
:1015500084B0F5EEC07AF1EE10FA00F1DF809FED75
:101560007A7AF4EEC77AF1EE10FA00F38980FCEE95
:10157000E77ACDED017A9DF80420B5EEC00AF1EED0
:1015800010FA40F38580DFED717AB4EEE70AF1EEF0
:1015900010FA7DD5DFED6E7A60EE277AF5EEC07A2F
:1015A000F1EE10FA00F1B8809FED677AF4EEC77A99
:1015B000F1EE10FA7ADCFCEEE77ACDED017A9DF8D7
:1015C0000430DFED647AB4EEE70AF1EE10FA76D873
:1015D0009FED617ADFED617AE0EE077AF5EEC07A91
:1015E000F1EE10FA73D49FED587AF4EEC77AF1EE6B
:1015F00010FA00F39580FCEEE77ACDED017A9DF8C4
:1016000004109FED526AB4EEC60AF1EE10FA29D525
:1016100007EE902A06EE901AB8EEE77A07EE903AB7
:10162000F8EEE66AF8EEE77A27EE007A67EE807A5F
:1016300026EE800AC7EE066A87EE867AC0EE067A44
:10164000FCEEE66ABCEEC77AFCEEE77ACDED016A05
:101650008DED027ACDED037A9DF804209DF80830D7
:101660009DF80C10120222F4FF60DB0020F007004E
:1016700003F4FC63034343EAD10080B204B0704733
:10168000B5EEC00AF1EE10FA4FF0FF023FF77BAF64
:10169000DFED2E7AB4EEE70AF1EE10FA35DBDFED7E
:1016A000307AB4EEE70AF1EE10FA2ED8DFED297A9F
:1016B000B4EEE70AF1EE10FA4FF0FF0388D908DD27
:1016C000DFED287AB4EEE70AF1EE10FA01D8002136
:1016D00097E7DFED247AB4EEE70AF1EE10FAF6DDD3
:1016E0009FED217ADFED217AE0EE077AF5EEC07A00
:1016F000F1EE10FAEBD49FED1E7AF4EEC77AF1EE1C
:1017000010FA7FF778AFF0217BE7DFED157AB4EEC2
:10171000E70AF1EE10FA05DC002352E700222CE77D
:10172000FF216EE79FED137ADFED137AE0EE077A83
:10173000F5EEC07AF1EE10FA7FF536AFECE700BFB8
:101740003F5B2C3D38A2B7C200007F4300208C4491
:1017500054EF683E00600845821B76BEE71A0344DA
:1017600000C8004600780F465538963EC45F28C52D
:1017700000007043C4E48ABECAAD1B452DE9F047A2
:101780002DED028B8A4682B0042180464048414DAF
:10179000414FDFED428AB0EE408A22F08DFA0121FE
:1017A0003F4822F089FA51463E481FF0C9FE3D48A5
:1017B0001FF05CFE4FF47A7999FBFAF909F10109FF
:1017C0005FFA89F9002440F2E7362DE094FBF9F046
:1017D00080B200EB400008EB8000D0ED006AD0ED55
:1017E000017A90ED027A68EE266A68EE277AFCEEBE
:1017F000E66AFCEEE77A16EE903A17EE902A68EE6B
:10180000077A1B02D200FCEEE77A02F4FC6203F4D2
:101810007843134317EE902A0134C2F3C4021343F2
:10182000B44225F8023F2DD03B88642BCED007EE82
:10183000903AF8EEE77A87EEA87A17EE100A27F0CA
:101840005FF807EE904AF8EEE77ACDE9000187EEFF
:10185000A87A17EE100A27F053F89DED001B41EC13
:10186000100B24F045FB53EC102B5046CDE9002320
:1018700027F034F8DDE9002327F096F827F06CFB19
:1018800080B2A6E702B0BDEC028BBDE8F08700BFD6
:10189000D8DF0200FE01FF1FBC43022000007A4493
:1018A000E0E602003C4702202DE9F0432DED048BD9
:1018B000D34B83B0092206460621D2481A7022F083
:1018C000FBF90121D04822F0F7F9314600230A2222
:1018D000CE481FF0F5FDCD481FF0C8FD002E40F0AA
:1018E000B380DFF86493CA4BCA4FCB4DDFF8408317
:1018F000DFEDCA8A9FEDCA8A9FEDCA9AC9F8003007
:1019000034463CE007EE906AB8EEE77AF0EE086AFB
:10191000C7EE267AF4EEC87AF1EE10FA60DCFCEE3F
:10192000E77A17EE902A120202F4784211B2F2EE30
:10193000046AC7EE267AF4EEC87AF1EE10FA4CDCAF
:10194000FCEEE77A17EE902AD20002F4FC62C7EEB2
:10195000097A0A4301340A36F4EEC87AF1EE10FA35
:10196000D7BFFCEEE77A1F2317EE903AC3F3C40308
:10197000134340F2E732944227F8023F4BD02B88C2
:10198000B3F57A7FBED007EE903AF8EEE77AA8F882
:10199000003087EEA87A17EE100A26F0B1FF07EEA6
:1019A000904AF8EEE77ACDE9000187EEA87A17EEC3
:1019B000100A26F0A5FF9DED001B41EC100B24F052
:1019C00097FA8DA3D3E9002351EC100B26F0ECFF1E
:1019D00027F0E2FA07EE100A98E74FF4FC62B6E748
:1019E0009149A4E7072E40F0BB818B4BDFF858925A
:1019F0001A888E498E4BC9F8001040F24C4119806C
:101A0000B2F57A7F9FED860A8A4818BF1A804FF494
:101A10008071FFF7B3FE0B21874822F04DF90121B9
:101A2000794822F049F9D9F80040204628F0E8FC2E
:101A30000146204622F040F9744803B0BDEC048B07
:101A4000BDE8F0431FF012BD012E69D1DFF8F89117
:101A50007A4B704F704D9FED718ADFED718AC9F836
:101A60000030002634462DE007EE906AF8EEE77A63
:101A7000B5EE007A67EE877AF4EEE87AF1EE10FAC6
:101A800000F39C80FCEEE77ACDED007A9DF8001023
:101A90004FEA012300F396804FEAC10203F4784332
:101AA00002F4FC6243EA02031BB200F39280CA080C
:101AB0001343013440F2E732944227F8023F06F123
:101AC0000A06A8D02B88B3F57A7FCDD007EE903ADE
:101AD000F8EEE77A564A87EE887A138017EE100AF6
:101AE00026F00EFF07EE904AF8EEE77ACDE9000106
:101AF00087EE887A17EE100A26F002FF9DED001B94
:101B000041EC100B24F0F4F93BA3D3E9002351EC92
:101B1000100B26F049FF27F03FFA07EE900AA7E7DF
:101B2000022E58D1DFF82091454B3A4F3A4DDFF85D
:101B300000819FED3A8AC9F80030002634460FE054
:101B400007EE906AB8EEE70AFFF7FCFC013440F2BA
:101B5000E7339C4206F10A0627F8020F3FF45BAF19
:101B60002B88B3F57A7FEBD007EE903AF8EEE77A60
:101B7000A8F8003087EE887A17EE100A26F0C0FE2B
:101B800007EE904AF8EEE77ACDE9000187EE887A11
:101B900017EE100A26F0B4FE9DED001B41EC100B71
:101BA00024F0A6F914A3D3E9002351EC100B26F07E
:101BB000FBFE27F0F1F900EE100AC5E76FF01F03F6
:101BC0001F2275E703F4784343F4FC631BB21F2222
:101BD0006EE71F226CE7032E76D1DFF86C90194B6D
:101BE0000C4F0D4DDFF848809FED0C8AC9F800308E
:101BF000002634463AE000BF000000000088C340E1
:101C000090640220E0DF0200E0E602003C47022090
:101C1000E8DF0200FE01FF1F5644022000007A4464
:101C200000007F430000204200F8FFFF28E0020090
:101C3000BC430220440B030048E00200F0DF020036
:101C4000FCDF020004E00200345A022007EE906A32
:101C5000B8EEE70AFFF71EFC013440F2E7339C427E
:101C600006F10A0627F8020F3FF4D5AE2B88B3F52C
:101C70007A7FEBD007EE903AF8EEE77AA8F80030DA
:101C800087EE887A17EE100A26F03AFE07EE904AA1
:101C9000F8EEE77ACDE9000187EE887A17EE100AB0
:101CA00026F02EFE9DED001B41EC100B24F020F9D8
:101CB00052A3D3E9002351EC100B26F075FE27F058
:101CC0006BF900EE100AC5E7042E16D13E4BDFF883
:101CD00034911A883D493E4BC9F800104FF44871C1
:101CE0001980B2F57A7F9FED3B0A3B4818BF1A80F6
:101CF0004FF48071FFF742FD8DE6052E16D1324B71
:101D0000DFF800911A883549314BC9F8001040F2CC
:101D10004C411980B2F57A7F9FED2E0A304818BFEA
:101D20001A804FF48071FFF729FD74E6062E7FF4C8
:101D300059AE254BDFF8CC901A882A49244BC9F8B4
:101D400000104FF461711980B2F57A7F9FED210A7E
:101D5000254818BF1A804FF48071FFF70FFD5AE62F
:101D6000082E14D1184BDFF89C901B881F4AC9F825
:101D70000020B3F57A7F18BF154A1D4818BF13809D
:101D8000B7EE000A4FF48071FFF7F8FC43E6092E26
:101D900014D10D4BDFF86C901B88164AC9F800204F
:101DA000B3F57A7F18BF0A4A134818BF1380B7EEFD
:101DB000000A4FF48071FFF7E1FC2CE6DFF8449055
:101DC00029E600BFAFF30080564402200CE0020079
:101DD000BC43022000007F43A8FD020014E0020083
:101DE0007443040020E00200A05C040030E0020024
:101DF000744F04003CE00200E41703000000000000
:101E00000088C340345A0220404B41491A68DFF829
:101E100038C122F400422DE9F0411A601A683D4EA3
:101E20003D4F3E4D3E4CDFF82481DFF824E142F087
:101E300000521A600B683B4A43F480730B60002326
:101E40003B7033702B702370A4F55334A4F2FF342D
:101E5000202188F800308CF800308EF80030B37103
:101E6000117022683049DFF8ECC042F080622260D5
:101E70000A68AEF54C3E04F54054A7F54B37A6F57D
:101E80004B366FF47D78A5F5473542F08042AEF1D0
:101E9000020EA7F57E774644A5F2FA3508340A60AB
:101EA000224ACCF80030CEF800303B6033602B6023
:101EB00023601368A1F51F41F8391C3218440860EB
:101EC000136843F00403136013685B07FCD521F02B
:101ED000F7FF174A174E537903F0DF0353711FF0D2
:101EE000E3FE154B15481649164A0425022700241F
:101EF00037701D7004701B780B6823F002030B60B1
:101F000013682B43136030BFBDE8F0813C80044070
:101F100010D0034001C0074000C0074002C0074086
:101F200003C0074008C007400070044000D00340D1
:101F30000040064000E0074001E0074002E00740A3
:101F400010E000E010ED00E005C0074004C00740CD
:101F500006C0074000900440002310B4114C4173A8
:101F6000426104600373036141B1194600E04269B4
:101F700042F82310427B01339A42F8DC0A4B1A687C
:101F80000AB90CE01A469369002BFBD1906100233B
:101F900083614360836083735DF8044B704718600E
:101FA000F5E700BF80DA0200DC7E022070B514463F
:101FB00086B005460E460022194BD4E9000126F0F2
:101FC000F3FC26F0A1FF0022154B0190D4E9020199
:101FD00026F0EAFC26F098FF0022114B0290D4E98B
:101FE000040126F0E1FC26F08FFF00220C4B039049
:101FF000D4E9060126F0D8FC26F086FF084B0490B1
:102000000022D4E9080126F0CFFC26F07DFF3146FE
:10201000059001AA284613F04DFF06B070BD00BF21
:102020000000D0412DE9F041012B94B0054641D08C
:10203000022B01F1040140F20223684618BF00237D
:1020400011F06CFD129B002B3DD068201FF060FE4C
:1020500004469DF8046022482249029A9DF80C30FB
:10206000206004AF2676616100264FF47A78394605
:1020700004F12400E26184F8203026712673266181
:10208000C4F8088011F0C6FB23691749174A666631
:1020900001332E71C5F808802E732C6161612361B4
:1020A0002A60134B0093384611F0E2FB284614B027
:1020B000BDE8F08144F202230431684611F02EFDA0
:1020C000129B002BC1D1139B002BBED14FF47A7110
:1020D000064A2B712B732B61A9602A6004AFE0E7DD
:1020E00034DB02005CDA0200B0DA0200D4DA02006B
:1020F0008CDA020070B51E4D4B08A5FB0335AD0808
:1021000005EB8504A400C5EBC505E4B2A1EB4501D0
:10211000272C0646CDB227D8132C94BF00220122CB
:1021200042F4B8722A217181304613F095FC2021C7
:1021300045F480727181304642EA051213F08CFC3E
:1021400007EE905AB8EEE77A07EE904AF8EEE77A93
:10215000F7EE086AE7EE267A064BB1EE087A77EEDC
:10216000C77AC3ED007A70BD40F27312DAE700BFA0
:10217000932449921C66022038B515210446104864
:1021800021F09AFD01210F4821F096FD0E4B53F8E6
:102190002450284628F034F90146284621F08CFDC9
:1021A0000A481FF063F90A480023032CC361036245
:1021B00004D800EB84004FF48033C36138BD00BF06
:1021C00054E00200E0E60200444502203C470220C1
:1021D000D46C022038B50E210446114821F06CFD64
:1021E0000121104821F068FD0F4B53F82450284678
:1021F00028F006F90146284621F05EFD0B481FF045
:1022000035F90B480023032CC361836243620362E8
:1022100004D800EB84004FF48033C36138BD00BFA5
:102220006CE00200E0E60200204402203C4702206D
:1022300018650220214BDFED226A93ED006A9FEDC5
:10224000217A214AC6EE865A07EE900AF8EEE77A1E
:1022500067EEA57AF4EEC77AF1EE10FAC2ED007AD5
:1022600010DDC6EE265A1949194BF2EE027AE5EE58
:10227000877A82ED007AFDEEE77AC1ED007A154AA1
:1022800013627047F5EEC07AF1EE10FA12D49FEDAA
:10229000127AF4EEC77AF1EE10FAC8BF4FF000439D
:1022A000EDDC9FED0E7A67EE877AFCEEE77A17EEAB
:1022B000903AE4E7074A002313627047C0650220A2
:1022C00000442C4700E0AB467043022054430220F8
:1022D00000B2B57FF05702200044AC46C637BE4777
:1022E0002DE9F04FDFF828B22DED048B9BF800307C
:1022F000022B8DB040F2AC8107217B487B4CDFED97
:102300007C9A9FED7C9A7C4E21F0D6FC01217B4883
:1023100021F0D2FC00230A229BF8001078481FF01D
:10232000CFF877481FF0A2F80022764BD4E90001DD
:1023300026F03AFB26F0E8FD0022724B0790D4E924
:10234000020126F031FB26F0DFFD00226D4B0890E4
:10235000D4E9040126F028FB26F0D6FD0022694BC3
:102360000990D4E9060126F01FFB26F0CDFD654B50
:102370000A900022D4E9080126F016FB26F0C4FDDD
:1023800007AA0B900021604813F094FD00225D4BDA
:10239000D4E9000126F008FB26F0B6FD0022594BD7
:1023A0000790D4E9020126F0FFFA26F0ADFD0022E5
:1023B000544B0890D4E9040126F0F6FA26F0A4FD67
:1023C0000022504B0990D4E9060126F0EDFA26F0E0
:1023D0009BFD4C4B0A900022D4E9080126F0E4FA58
:1023E00026F092FD07AA0B900121474813F062FDE9
:1023F0000022444BD4E9000126F0D6FA26F084FDF1
:102400000022404B0790D4E9020126F0CDFA26F0D5
:102410007BFD00223B4B0890D4E9040126F0C4FA6E
:1024200026F072FD0022374B0990D4E9060126F010
:10243000BBFA26F069FD334B0A900022D4E908016B
:1024400026F0B2FA26F060FD07AA0B9002212E4872
:1024500013F030FD00222B4BD4E9000126F0A4FA42
:1024600026F052FD0022274B0790D4E9020126F006
:102470009BFA26F049FD0022224B0890D4E9040182
:1024800026F092FA26F040FD00221E4B0990D4E976
:10249000060126F089FA26F037FD0022194B0A9032
:1024A000D4E9080126F080FA26F02EFD07AA0B9049
:1024B0000321154813F0FEFC4FF0000A32785FFA52
:1024C0008AF39A4226D80AF1010ABAF1040FF5D12B
:1024D0000E4B00214FF48032D9611A620DB0BDEC71
:1024E000048BBDE8F08F00BF7CE00200F0430220C7
:1024F00000442C479365153959430220E0E6020059
:102500003C4702200000D041BC5802203454022035
:10251000544402200D21BC4821F0CEFB0121BB48D0
:1025200021F0CAFB514600230A22B9481EF0C8FF19
:10253000B7481EF09BFFB74B9BF80020D3ED007A05
:1025400089EEA77A4FF47A7303FB02F307EE903A11
:10255000F8EEE77A67EE877A67EE897A17EE900AE7
:1025600026F0CEF941EC100B41EC180B23F0DCFB0C
:10257000A94B18688DED020B26F0C2F902460B46F6
:1025800026F060F89DED020B02460B4651EC100B55
:1025900026F034FBB0EE480AF0EE680A04460D4619
:1025A00023F062FB2046294600229C4B58EC107B0E
:1025B000CDE9044526F046F802460B46002098492E
:1025C00026F01CFB002204460D46944B384641463B
:1025D000CDE9027826F036F800228946914B00902A
:1025E00009F1004726F0E0F922462B46019726F034
:1025F000DBF926F089FC224607462B46DDE900017F
:10260000079726F0D1F926F07FFC002208904FF0C2
:102610004043DDE90201099726F0C6F922462B4620
:1026200026F0C2F926F070FCDDE904230A907B490C
:10263000002026F005F822462B4626F0B5F926F0B4
:1026400063FC07AA0B905146774813F033FC3AE736
:10265000764C77480B2121F02FFB6D481EF006FFCA
:10266000D4E9000100226E4B26F09EF926F04CFCC6
:1026700000226B4B0790D4E9020126F095F926F071
:1026800043FC0022664B0890D4E9040126F08CF943
:1026900026F03AFC0022624B0990D4E9060126F0AC
:1026A00083F926F031FC5E4B0A900022D4E9080140
:1026B00026F07AF926F028FC07AA0B9000215A4848
:1026C00013F0F8FBD4E900010022554B26F06CF919
:1026D00026F01AFC0022524B0790D4E9020126F0A2
:1026E00063F926F011FC00224D4B0890D4E9040157
:1026F00026F05AF926F008FC0022494B0990D4E94B
:10270000060126F051F926F0FFFB454B0A90002206
:10271000D4E9080126F048F926F0F6FB07AA0B9049
:102720000121414813F0C6FBD4E9000100223C4BD3
:1027300026F03AF926F0E8FB0022394B0790D4E95D
:10274000020126F031F926F0DFFB0022344B08901D
:10275000D4E9040126F028F926F0D6FB0022304BFC
:102760000990D4E9060126F01FF926F0CDFB2C4B89
:102770000A900022D4E9080126F016F926F0C4FBDD
:1027800007AA0B900221284813F094FBD4E900011A
:102790000022234B26F008F926F0B6FB0022204B3E
:1027A0000790D4E9020126F0FFF826F0ADFB0022E5
:1027B0001B4B0890D4E9040126F0F6F826F0A4FBA0
:1027C0000022174B0990D4E9060126F0EDF826F017
:1027D0009BFB134B0A900022D4E9080126F0E4F891
:1027E00026F092FB07AA0B9003210F4813F062FB1F
:1027F000104B00214FF480321962DA610DB0BDEC4C
:10280000048BBDE8F08F00BF84E00200E0E6020028
:102810003C470220C0650220344502200000F03F02
:102820000000D0410000E03FBC580220F0430220ED
:1028300094E002003454022070B54000334BDFEDC9
:10284000346A01FB0001B3FBF1F607EE906A314BED
:10285000F8EEE77A01242DED068B1B68DFED2EAA3A
:10286000B0EE409AC7EE809A354622462346B6EE31
:1028700000AA03E00134B4F5807F38D007EE904A17
:10288000F8EEE77A67EEA97AF5EEC07AF1EE10FA83
:10289000ACBF77EE8A7A77EECA7ABDEEE78A07EEAA
:1028A000905AB8EE677AF8EE487A3544C7EE278A30
:1028B00079EE688AF0EEE88AF4EEE68AF1EE10FA34
:1028C000D8D518EE101AB1F5805FD3D213481EF098
:1028D000CDFDF4EEEA8AF1EE10FA13D92346013465
:1028E000B4F5807FF0EE686A18EE102AC6D1BDEC10
:1028F000068B013B1B03013A03F47F23C2F30B0059
:10290000184370BD234618EE102AF0E70095BA0A66
:102910008096184B00F1024000007A443C470220A8
:10292000164B186810B510F400441DD0144B154A0E
:102930001B68154912680968C3F30444C2F30340D5
:10294000C3F30463013304FB0000C9B21844FFF76A
:1029500073FF014638B10D4A1368002BFCDB0C4BAA
:102960000120196010BD10BD0D210A4821F0A4F905
:1029700009481EF07BFD204610BD00BF3C8004408E
:1029800014F0024010F0024008F0024000F1024052
:1029900004F10240A0E002003C470220F8B5082103
:1029A00005467048704E714C21F086F9012170483F
:1029B00021F082F929466F481EF0C2FD2D016D48B5
:1029C0001EF054FD7319D3ED027A6648F8EE677A6B
:1029D0000821C4ED007A21F06FF90121644821F04B
:1029E0006BF9206825F08CFF41EC100B0221614847
:1029F0001EF00EFE5F481EF039FD5F4BDFED5F5AA3
:102A00001B78D4ED006ADFED5E7A5E495E4A097894
:102A100007EE103AB8EEC77A66EEA77A27EE257A67
:102A20005A4B87EE276AC3ED007ABDEEC67A17EEE1
:102A3000103A137071B1564B1B7807EE103AB8EE8E
:102A4000C77A27EE257A87EE276ABDEEC67A17EE9B
:102A5000103A1370B6EE007A66EE876A354486EE59
:102A6000A77A4C4E6A684C480421FDEEC77A17EEEF
:102A7000903A337027F08EFA484B94ED000A012209
:102A80001A60FFF74DFF0D2100284AD0444821F07D
:102A900013F938481EF0EAFCC8201FF0FBFC414B3C
:102AA000414F1868414EFFF7C5FB414B01251D60A2
:102AB00014201FF0EFFC3F4B83F82457FFF710FC66
:102AC0003B78B3B118213C4821F0F6F801212848A1
:102AD00021F0F2F8206825F013FF41EC100B0221E1
:102AE00024481EF095FD23481EF0C0FC337813B92E
:102AF000F8BD3378E3B11A21304821F0DDF8012127
:102B00001B4821F0D9F8206825F0FAFE41EC100BA3
:102B1000022118481EF07CFD1648BDE8F8401EF062
:102B2000A5BC274821F0C8F812481EF09FFCB3E767
:102B30001A21244821F0C0F829460D4821F0BCF89C
:102B4000206825F0DDFE41EC100B022109481EF043
:102B50005FFD08481EF08AFC3B78002BB2D1337829
:102B6000C5E700BFC0E10200A8090300C06502205C
:102B7000E0E602003C470220B943022000007A440C
:102B80000000003BCD6C0220347C0220584402201F
:102B9000E9430220706502205044022088E100E0F1
:102BA000CCE1020054430220F87902206879022027
:102BB00008E100E0386D0220ECE1020024E20200AE
:102BC000DCE1020008E2020007EE900A9FED0C6AC9
:102BD000DFED0C6A0C4B0D48B8EEE77ADFED0C7AAE
:102BE00027EE067A10B5E7EE267A01241C60FCEE8B
:102BF000E77A17EE901A13F06DF8064B1C6010BDC3
:102C00000AD7233C0000014388E100E0287D022030
:102C1000EE7CFF3E08E100E010B4036841681A78DA
:102C20000C78417A037A0C4202EA03021BD0837AC1
:102C300003F003030AB143F0040343F008039A10BE
:102C4000013B82720D2B0BD8DFE803F021071B0735
:102C50000A152121150A071B0721C368013BC36020
:102C60005DF8044B7047837A03F00303002AE6D033
:102C700043F00403E3E7C3685DF8044B023BC36021
:102C80007047C3685DF8044B0233C3607047C36884
:102C90005DF8044B0133C360704700BF08B5034BB8
:102CA000D3F8EC00FFF7B8FF08BD00BF888402200E
:102CB00008B5034BD3F8E800FFF7AEFF08BD00BF2F
:102CC0008884022008B5034BD3F8E400FFF7A4FF83
:102CD00008BD00BF8884022008B5034BD3F8E0008C
:102CE000FFF79AFF08BD00BF8884022008B5034B98
:102CF000D3F8DC00FFF790FF08BD00BF88840220F6
:102D000008B5034BD3F8D800FFF786FF08BD00BF16
:102D10008884022008B5034BD3F8D400FFF77CFF6A
:102D200008BD00BF8884022008B5034BD3F8D0004B
:102D3000FFF772FF08BD00BF8884022008B5034B6F
:102D4000D3F8CC00FFF768FF08BD00BF88840220DD
:102D500008B5034BD3F8C800FFF75EFF08BD00BFFE
:102D60008884022008B5034BD3F8C400FFF754FF52
:102D700008BD00BF8884022008B5034BD3F8C0000B
:102D8000FFF74AFF08BD00BF8884022008B5034B47
:102D9000D3F8BC00FFF740FF08BD00BF88840220C5
:102DA00008B5034BD3F8B800FFF736FF08BD00BFE6
:102DB0008884022008B5034BD3F8B400FFF72CFF3A
:102DC00008BD00BF8884022008B5034BD3F8B000CB
:102DD000FFF722FF08BD00BF8884022008B5034B1F
:102DE000D3F8AC00FFF718FF08BD00BF88840220AD
:102DF00008B5034BD3F8A800FFF70EFF08BD00BFCE
:102E00008884022008B5034BD3F8A400FFF704FF21
:102E100008BD00BF8884022008B5034BD3F8A0008A
:102E2000FFF7FAFE08BD00BF8884022008B5034BF7
:102E3000D3F89C00FFF7F0FE08BD00BF8884022095
:102E400008B5034BD3F89800FFF7E6FE08BD00BFB6
:102E50008884022008B5034BD3F89400FFF7DCFE0A
:102E600008BD00BF8884022008B5034BD3F890004A
:102E7000FFF7D2FE08BD00BF8884022008B5034BCF
:102E8000D3F88C00FFF7C8FE08BD00BF888402207D
:102E900008B5034BD3F88800FFF7BEFE08BD00BF9E
:102EA0008884022008B5034BD3F88400FFF7B4FEF2
:102EB00008BD00BF8884022008B5034BD3F880000A
:102EC000FFF7AAFE08BD00BF8884022008B5024BA8
:102ED000D86FFFF7A1FE08BD8884022008B5024B19
:102EE000986FFFF799FE08BD8884022008B5024B51
:102EF000586FFFF791FE08BD8884022008B5024B89
:102F0000186FFFF789FE08BD8884022008B5024BC0
:102F1000D86EFFF781FE08BD8884022008B5024BF9
:102F2000986EFFF779FE08BD8884022008B5024B31
:102F3000586EFFF771FE08BD8884022008B5024B69
:102F4000186EFFF769FE08BD8884022008B5024BA1
:102F5000D86DFFF761FE08BD8884022008B5024BDA
:102F6000986DFFF759FE08BD8884022008B5024B12
:102F7000586DFFF751FE08BD8884022008B5024B4A
:102F8000186DFFF749FE08BD8884022008B5024B82
:102F9000D86CFFF741FE08BD8884022008B5024BBB
:102FA000986CFFF739FE08BD8884022008B5024BF3
:102FB000586CFFF731FE08BD8884022008B5024B2B
:102FC000186CFFF729FE08BD8884022008B5024B63
:102FD000D86BFFF721FE08BD8884022008B5024B9C
:102FE000986BFFF719FE08BD8884022008B5024BD4
:102FF000586BFFF711FE08BD8884022008B5024B0C
:10300000186BFFF709FE08BD8884022008B5024B43
:10301000D86AFFF701FE08BD8884022008B5024B7C
:10302000986AFFF7F9FD08BD8884022008B5024BB5
:10303000586AFFF7F1FD08BD8884022008B5024BED
:10304000186AFFF7E9FD08BD8884022008B5024B25
:10305000D869FFF7E1FD08BD8884022008B5024B5E
:103060009869FFF7D9FD08BD8884022008B5024B96
:103070005869FFF7D1FD08BD8884022008B5024BCE
:103080001869FFF7C9FD08BD8884022008B5024B06
:10309000D868FFF7C1FD08BD8884022008B5024B3F
:1030A0009868FFF7B9FD08BD8884022008B5024B77
:1030B0005868FFF7B1FD08BD8884022008B5024BAF
:1030C0001868FFF7A9FD08BD8884022008B50B46E3
:1030D0003B2800F2C682DFE810F0BB02B202A90270
:1030E000A00297028E0285027C0273026A026102CC
:1030F00058024F0246023D0234022B0222021902FC
:1031000010020702AE01A5019C0193018A01810111
:1031100078016F0166015D0154014A0140013601E9
:103120002C01220118010E010401FA00F000E60052
:10313000DC00D200C800BE00B400AA00A0009600C7
:103140008C00820078006E0064005A005000460037
:103150003C00BD4ABD49C2F8EC303B2004221EF0C1
:1031600071FE012008BDB84AB949C2F8E8303A20DA
:1031700004221EF067FE012008BDB34AB549C2F81B
:10318000E430392004221EF05DFE012008BDAE4A65
:10319000B149C2F8E030382004221EF053FE01206D
:1031A00008BDA94AAD49C2F8DC30372004221EF020
:1031B00049FE012008BDA44AA949C2F8D8303620EA
:1031C00004221EF03FFE012008BD9F4AA549C2F817
:1031D000D430352004221EF035FE012008BD9A4A65
:1031E000A149C2F8D030342004221EF02BFE012069
:1031F00008BD954A9D49C2F8CC30332004221EF008
:1032000021FE012008BD904A9949C2F8C8303220F9
:1032100004221EF017FE012008BD8B4A9549C2F812
:10322000C430312004221EF00DFE012008BD864A64
:103230009149C2F8C030302004221EF003FE012064
:1032400008BD814A8D49C2F8BC302F2004221EF0EF
:10325000F9FD012008BD7C4A8949C2F8B8302E200A
:1032600004221EF0EFFD012008BD774A8549C2F80F
:10327000B4302D2004221EF0E5FD012008BD724A65
:103280008149C2F8B0302C2004221EF0DBFD012061
:1032900008BD6D4A7D49C2F8AC302B2004221EF0D7
:1032A000D1FD012008BD684A7949C2F8A8302A201A
:1032B00004221EF0C7FD012008BD634A7549C2F80B
:1032C000A430292004221EF0BDFD012008BD5E4A65
:1032D0007149C2F8A030282004221EF0B3FD01205D
:1032E00008BD594A6D49C2F89C30272004221EF0BF
:1032F000A9FD012008BD544A6949C2F8983026202A
:1033000004221EF09FFD012008BD4F4A6549C2F806
:103310009430252004221EF095FD012008BD4A4A64
:103320006149C2F89030242004221EF08BFD012058
:1033300008BD454A5D49C2F88C30232004221EF0A6
:1033400081FD012008BD404A5949C2F88830222039
:1033500004221EF077FD012008BD3B4A5549C2F802
:103360008430212004221EF06DFD012008BD364A64
:103370005149C2F88030202004221EF063FD012054
:1033800008BD314A4D49D3671F2004221EF05AFD63
:10339000012008BD2C4A4A4993671E2004221EF0D2
:1033A00051FD012008BD284A464953671D200422CB
:1033B0001EF048FD012008BD234A434913671C2025
:1033C00004221EF03FFD012008BD1F4A3F49D3667D
:1033D0001B2004221EF036FD012008BD1A4A3C497C
:1033E00093661A2004221EF02DFD012008BD164A06
:1033F00038495366192004221EF024FD012008BD1F
:10340000114A35491366182004221EF01BFD0120C5
:1034100008BD0D4A3149D365172004221EF012FD64
:10342000012008BD084A2E499365162004221EF08B
:1034300009FD012008BD044A2A49536515200422CC
:103440001EF000FD012008BD888402209D2C000094
:10345000B12C0000C52C0000D92C0000ED2C000080
:10346000012D0000152D0000292D00003D2D00002C
:10347000512D0000652D0000792D00008D2D0000DC
:10348000A12D0000B52D0000C92D0000DD2D00008C
:10349000F12D0000052E0000192E00002D2E000039
:1034A000412E0000552E0000692E00007D2E0000E8
:1034B000912E0000A52E0000B92E0000CD2E000098
:1034C000DD2E0000ED2E0000FD2E00000D2F00006F
:1034D0001D2F00002D2F00003D2F00004D2F00005C
:1034E0005D2F00006D2F00005F4A604913651420B6
:1034F00004221EF0A7FC012008BD5B4A5C49D3648E
:10350000132004221EF09EFC012008BD564A594992
:103510009364122004221EF095FC012008BD524A3B
:1035200055495364112004221EF08CFC012008BD73
:103530004D4A52491364102004221EF083FC0120DE
:1035400008BD494A4E49D3630F2004221EF07AFC7D
:10355000012008BD444A4B4993630E2004221EF00B
:1035600071FC012008BD404A474953630D200422E5
:103570001EF068FC012008BD3B4A444913630C203F
:1035800004221EF05FFC012008BD374A4049D36287
:103590000B2004221EF056FC012008BD324A3D4992
:1035A00093620A2004221EF04DFC012008BD2E4A21
:1035B00039495362092004221EF044FC012008BD51
:1035C000294A36491362082004221EF03BFC0120E0
:1035D00008BD254A3249D361072004221EF032FC7F
:1035E000012008BD204A2F499361062004221EF0C5
:1035F00029FC012008BD1C4A2B49536105200422E7
:103600001EF020FC012008BD174A2849136104223E
:1036100010461EF017FC012008BD134A2449D36050
:10362000032004221EF00EFC012008BD0E4A214991
:103630009360022004221EF005FC012008BD0A4A06
:103640001D495360012004221EF0FCFB012008BD2F
:10365000054A1A491360002004221EF0F3FB0120E2
:1036600008BD002008BD00BF888402207D2F000017
:103670008D2F00009D2F0000AD2F0000BD2F0000FA
:10368000CD2F0000DD2F0000ED2F0000FD2F0000EA
:103690000D3000001D3000002D3000003D300000D6
:1036A0004D3000005D3000006D3000007D300000C6
:1036B0008D3000009D300000AD300000BD300000B6
:1036C000F8B5044615460E46084602211EF0B8FE1F
:1036D000284602211EF0B4FE164A174B52F8361047
:1036E000012001F500772760207252F835206072C2
:1036F00002F5007700206760E060013BFDD191F8A2
:10370000003292F8002203F00103D20744BF43F0D5
:103710000203DBB2A37221463046FFF7D7FC2146F5
:1037200020742846FFF7D2FC237C184420742046DE
:10373000F8BD00BFD8B80400C0D401009B499C4A22
:103740009C4B03C92DE9F0439B4C9C4D206095E8B0
:103750000300A06092E80300E06093E8070004F132
:1037600014032DED048B03C3954E23F8022B102078
:1037700031782061F825C2408FB065601A70002949
:1037800040F08C802C254FF0D40C4FF0280E2423D1
:1037900004AE8C488C498D4A90F800800F7892E8EE
:1037A0000300B8F1020FE050234408BF4FF00008B7
:1037B000012F197144F80EC000F0A680844B1868E0
:1037C00025F09EF8834ACDE900012821304626F0F5
:1037D000E1FB31460746601926F0A0FD3D447E4BD3
:1037E000DFF8D4910FCB374607C70D223B70314627
:1037F00060191EF01FF94346784A2821304626F00A
:10380000C9FB0C3507463146601926F087FD744B1D
:103810001B783D440BBB734B1B7883B1724B18680C
:1038200025F06EF8714ACDE900012821304626F0D6
:10383000B1FB31460746601926F070FD3D44202358
:10384000314660190222ADF810301EF0F3F85A48E4
:103850000FB0BDEC048BBDE8F083654B654A1B7867
:103860002821304626F096FB3146074609EB050035
:1038700026F054FD604B614A1B7803EB830303EB96
:1038800083032821304626F085FB3D443146074618
:1038900009EB050026F042FD3D44BCE7584A9FED88
:1038A000598AD2ED007A584BF8EEE77A93E8030094
:1038B00087EE887A606284F8281004AE5C2517EEE3
:1038C000100A25F01DF8514BD3ED007AF8EEE77A97
:1038D000CDE9020187EE887A17EE100A25F010F87C
:1038E0004B4ACDE900012821304626F053FB28231E
:1038F000314604F12C00A36226F010FD4FF0A40C19
:103900004FF0580E542344E7424BDFF814911B78D4
:1039100041495A08A9FB02029208C2EBC200A3EB7C
:103920004003DBB207EE103A07EE902AB8EEC77AF2
:10393000B7EE089AF8EEE76A27EE097AF3EE048A02
:10394000A6EEA87A0F78B1EE088A77EE487A17EEDD
:10395000900A24F0D5FF7B08A9FB03239B08C3EB47
:10396000C302A7EB4207FAB207EE902A07EE103A1D
:10397000F8EEE77AB8EEC77A67EE897ACDE9020108
:10398000E7EE287A77EEC87A17EE900A24F0B8FFAF
:10399000224ACDE900012821304626F0FBFA3146C3
:1039A000034660191D4426F0B9FC18E740E2020006
:1039B00050E2020058E20200CC7D022048E2020000
:1039C000216D022054440220226D022084E2020074
:1039D0001C660220A4E20200B4E20200C4E202007B
:1039E000CD6C02207C74022050450220F8E20200D7
:1039F000E9430220D8E20200BA430220E8E20200D2
:103A0000206602208096184B64E20200D07C0220DF
:103A10006CE202007E740220604302208CE202000D
:103A200093244992F0B5884B884D894E894F93E88D
:103A300003002DED028B28600FCE8FB004AC0FC4B5
:103A4000D6F800E0C4F800E004AE0FCE05F1080699
:103A50000FC60FCFC6F800E04FF4FC7C3F68C5F8F6
:103A600004C004AE0FC604A9277005F11B0026F0A0
:103A700055FC794A794B282104A826F08BFA04A931
:103A8000044605F12B0026F049FC754B186824F01C
:103A900037FF744ACDE90001282104A826F07AFAFC
:103AA0002B34064604A9281926F038FC6E4B6F4AC1
:103AB0001B78022B08BF0023282104A826F06AFAED
:103AC000344404A90646281926F028FC684A694BA4
:103AD0001168694A03EB011304A89B68282126F0AA
:103AE00059FA3444034604A928191C4426F016FC4C
:103AF000624A634B282104A826F04CFA04A9034625
:103B000028191C4426F00AFC5E4B5F4A282104A8B1
:103B100026F040FA04A90646281926F0FFFB5B4B65
:103B20001B783444002B2FD1594B1B78B3B1594B20
:103B30009FED597AD3ED007AF4EE477AF1EE10FA60
:103B400011D1564F0FCF04AE0FC697E8030046F8C9
:103B5000040B318004A9281926F0E0FB3B480FB084
:103B6000BDEC028BF0BD4E4B93ED007A77EE877A79
:103B700017EE900A24F0C4FE4A4ACDE9000128213C
:103B800004A826F007FAE5E7474B9FED488AD3EDF6
:103B9000007A474EF8EEE77A87EE887A17EE100A39
:103BA00024F0AEFE434BD3ED007AF8EEE77ACDE990
:103BB000020187EE887A17EE100A24F0A1FE3E4A31
:103BC000CDE90001282104A826F0E4F904A907465C
:103BD000281926F0A3FB394B1868A6FB0030800992
:103BE00007EE900AF8EEE77A3C4417EE900A24F0CC
:103BF00087FE334ACDE90001282104A826F0CAF93E
:103C000004A90746281926F089FB2E4B1B6886FB62
:103C10000326DB17C3EBA61007EE900AF8EEE77A4F
:103C20003C4417EE900A24F06BFE274ACDE90001D0
:103C3000282104A826F0AEF904A90646281926F082
:103C40006DFB344470E700BF08E30200187A0220DD
:103C500010E3020024E3020044E3020038E3020020
:103C60001C6602205CE302005444022070E3020060
:103C700018450220A809030084E3020098E302002B
:103C8000245F0220D45E0220B4E30200216D0220F2
:103C90007C740220504502200000FEC22CE4020089
:103CA0006C43022014E40200206602208096184B28
:103CB000D34D6210D07C0220C8E3020024450220CC
:103CC000E4E30200087A0220FCE30200224AF8B58D
:103CD0001268224B224E234F03EB021304469D68C9
:103CE000214805211FF0E8FF012120481FF0E4FFD3
:103CF000294630461DF024FC30461DF0B7FB1C4918
:103D00001C4B1D4E1D4A9D6103C9186097E80300B6
:103D1000986096E80300D86092E80300184958625A
:103D200003C9A4F1AC0222F00102102401216D00AC
:103D300002F5697E02277826C3F8A400DD61C3F886
:103D4000A820C3F804E01F849E621C615C849982F1
:103D5000D9821846F8BD00BF18450220A809030003
:103D60003C47022054E4020044E40200E0E6020082
:103D70004CE40200E47402205CE4020064E402000B
:103D80006CE402002DE9F843344ED6F88404002890
:103D900047D08279C469324D4FF4007303FA02F2BE
:103DA00092B2013CA2FB0423C5E900230FF04CFCB6
:103DB000D6F88434294A241A4BB39A794FF4007305
:103DC00003FA02F2D5E9006792B2A2FB0423254967
:103DD000DFF8A0C00968DFF8A0E0B41A67EB0305BC
:103DE000200D40EA05308842CCE90045CEE90023A9
:103DF00002D21D4B01221A701C4B1B68984204D240
:103E00001B4B01221A70BDE8F883BDE8F883D2F895
:103E10008834D5E900679BB1D3F83C24A2FB042386
:103E2000D5E7D6F8880470B1D0F83044D0F83C34E7
:103E30000B4DA4FB0389C5E900890DF015FEB7E71A
:103E400000220023C3E70021054B0A4683E8060051
:103E50000E460F460A460B46B9E700BF747F0220A4
:103E6000B074022064430220DD7902201445022050
:103E7000785F0220E87902207859022070B5092184
:103E8000A2B082481FF018FF81481DF0EFFA814B65
:103E9000814A00935021814B814826F07BF809210B
:103EA00080481FF009FF01217F481FF005FF7C4873
:103EB00026F0A6FA01467A481FF0FEFE74481DF06F
:103EC000D5FA002302A8764A78490FF027FE149B02
:103ED000002B00F0D18068201DF01AFF04464FF43B
:103EE0007A759DF80C00049A9DF814307049A5600D
:103EF000704E207600256161E26106A984F82030C9
:103F0000266025712573256104F124000FF082FCE1
:103F10002369694A6261013323616566674B0293D5
:103F200006A80FF0A5FC23680095596B002200231A
:103F300020468847236820469B6A242202A9984786
:103F40009DF821509DF820309DF8222003EB052399
:103F500013EB024559D09DF80D609DF80C209DF89B
:103F60000E309DF80F009FED567A564902EB06225F
:103F700002EB034303EB0063A3F5697307EE903A8A
:103F8000F8EE677A67EE877A07EE105AF8EEC76A9E
:103F900087EEA67ABCEEC77A81ED007A0B214A48FB
:103FA0001FF08AFE012140481FF086FE00230A22EE
:103FB000294637481DF084FA35481DF057FA002C81
:103FC00048D02368042202A99B6A2046984704220D
:103FD0003E4902A825F0ECFCD0B13D4B002103F195
:103FE000780203F8011F9A42FBD15CB12368204696
:103FF0001B6C98472369013B23611BB9236820464A
:104000001B6A9847284622B070BD2E4B1D60C5E73D
:104010000E2130481FF050FE1D481DF027FA2E4A91
:104020002368012111709B6A042202A92046984747
:10403000236802A99B6A782220469847244B0DF1F9
:10404000070203F1780012F8011F03F8011F9842DC
:10405000F9D1CAE702A804221C4925F0A9FC0028CE
:10406000BBD10E211B481FF027FE09481DF0FEF9A9
:10407000194B01221A70E1E7159C002C7FF42BAF3D
:104080000E4B029306A80FF0F3FB59E774E402000D
:104090003C4702206C63022080E40200346402206A
:1040A000E053022088E40200E0E60200787F02206C
:1040B0005CDA020034DB0200B0DA02008CDA0200C3
:1040C0000000FA43387C022094E4020064E4020019
:1040D00093640220A0E402009E750220F0B54D4DCD
:1040E000296891B0064621B100234B4A4B480FF096
:1040F00009FC4B4C49490023324604F110000FF0F3
:1041000041FC4849A06C00230B7000287BD0502252
:104110000EF0EEFC44480FF0ABFB40480FF0A8FB5C
:10412000052142481FF0C8FD012141481FF0C4FD90
:104130003C4826F065F901463A481FF0BDFD3D4870
:104140001DF094F9296821B10023364A33480FF055
:10415000D9FB334F002519E00EF0CAFC36496846FA
:104160001DF072FB354904A81DF06EFB04A96846DA
:104170001DF096FB10B304A81DF026FB68461DF049
:1041800023FB0135ADB228480FF072FB0022234912
:1041900025480FF02DFC284B00265022194648B325
:1041A000BC6C1E702046002CD6D1FC6C50221946E7
:1041B0002046002CD2D00CF0EBF8CFE71E4908A81F
:1041C0001DF042FB1E490CA81DF03EFB0CA908A8DF
:1041D0001DF066FB04460CA81DF0F6FA08A81DF0B9
:1041E000F3FA04A81DF0F0FA68461DF0EDFA002C71
:1041F000C9D0C6E70C480FF03BFB08480FF038FB6E
:10420000284611B0F0BDE06C002883D050220CF09D
:10421000BFF87FE71C7F0220B0E402006C7D022023
:10422000A057022080590220B0570220B4E40200B7
:10423000E0E602003C4702206C630220BCE402007E
:10424000C4E402002DE9F041172190B006467A48F7
:104250007A4D1FF031FD7A481DF008F903217948A5
:104260001FF02AFD012178481FF026FD31467448D1
:104270001DF066F972481DF0F9F8296821B1002394
:10428000724A73480FF03EFB724C7149002332466C
:1042900004F110000FF076FB6F49A06C00230B7047
:1042A000002800F0AB8050220EF022FC6B480FF08B
:1042B000DFFA67480FF0DCFA052169481FF0FCFCC3
:1042C000012161481FF0F8FC634826F099F8014687
:1042D00061481FF0F1FC5A481DF0C8F8296821B167
:1042E00000235D4A5A480FF00DFB5E4EB06C10B1D2
:1042F00000210EF019F9F06C18B1002200230CF027
:1043000001FA594D534C00272F802FE050220EF018
:10431000EFFB564968461DF097FA554904A81DF071
:1043200093FA04A968461DF0BBFA002831D004A80E
:104330001DF04AFA68461DF047FAB36C2A884949CD
:10434000002B54D05B695B09013B9BB2494940F2A9
:10435000E63001EB4201824298BF0132A1F8DC371E
:1043600098BF2A8001273D480FF082FA0022384981
:104370003A480FF03DFB48B33C49A06C00230B705A
:104380000028C3D1E06C0028C3D050220CF000F804
:10439000BFE7364908A81DF057FA37490CA81DF0A9
:1043A00053FA0CA908A81DF07BFA80460CA81DF052
:1043B0000BFA08A81DF008FA04A81DF005FA6846D3
:1043C0001DF002FAB8F1000FCDD0B6E723480FF088
:1043D0004FFA1F480FF04CFAC7B9082127481FF0C1
:1043E0006BFC17481DF042F810B0BDE8F081CB6CB3
:1043F000F3B11B685B09013B9BB2A7E7E06C0028A7
:104400003FF454AF50220BF0C3FF4FE70D211C487F
:104410001FF052FC01210C481FF04EFC298808486F
:104420001DF08EF806481DF021F810B0BDE8F081AF
:104430004FF6FF738AE700BFCCE402001C7F022026
:104440003C470220E4E40200E0E60200B0E402009F
:104450006C7D0220A057022080590220B057022014
:10446000B4E402005C7D0220705902206C630220DB
:10447000BCE402000002FF1FC4E40200F8E40200F2
:10448000E8E4020038B51121054631481FF014FC5C
:10449000092130481FF010FC01212F481FF00CFCAF
:1044A00029462E481DF04CF82C481CF0DFFF2C4804
:1044B0000FF0DEF92B4B196821B100232A4A284856
:1044C0000FF020FA0A212948294C1FF0F5FB0121A1
:1044D00021481FF0F1FB244825F092FF01462248B5
:1044E0001FF0EAFB1D481CF0C1FF00231C492A46AF
:1044F00004F110000FF046FA1E49A06C00230B7067
:10450000F8B150220EF0F4FA04211B481FF0D4FB3E
:10451000012111481FF0D0FB164825F071FF01461C
:1045200014481FF0C9FB0D481CF0A0FF0C480FF009
:104530009FF9124B1B781BB9FFF7A0FC104B1860BA
:1045400038BDE06C0028DFD050220BF021FFDBE704
:1045500004E5020018E50200E0E602003C47022004
:104560006C7D02201C7F02203464022024E50200BE
:10457000A05702206C63022030E502003D7D02203E
:10458000FC7902202DE9F04F8E488F4E97B00FF046
:104590006FF98E480FF06CF9316821B100238C4A15
:1045A0008A480FF0AFF910218A488B4D1FF084FB29
:1045B0008A481CF05BFFA86C10B100210DF0B4FF1D
:1045C000E86C18B1002200230CF09CF8DFF82CA254
:1045D000DFF818820023AAF80030444699460022EA
:1045E0007A4978480FF004FA002844D07C49A06C3E
:1045F00000230B7050B350220EF07AFAD8F84830EE
:1046000073B31B7813F0700F14BF01230023CBB1D9
:10461000AB6CBAF800207049002B00F0B8805B69E1
:104620005B09013B9BB26F4940F2E63001EB42016E
:10463000824298BF0132A1F8AC3F98BFAAF800208F
:104640004FF001095F480FF013F9C8E7E06C00284C
:10465000F8D050220BF09CFED8F84830002BD0D177
:10466000E36C002BEED093F8313013F0500F14BFF1
:1046700001230023CBE707465248CDF804900FF002
:10468000F7F852480FF0F4F8316821B13B46504A30
:104690004E480FF037F9BAF80030012B65DD4FF0C6
:1046A00001094F46002F58D000273D46CDF8009015
:1046B0004D4C2FE050220EF01BFA42480FF0D8F874
:1046C000002334F8022F41493E480FF05BF9D8F837
:1046D0004800002301358DF80830002833D002AEA1
:1046E000314650220EF004FA36480FF0C1F83C482B
:1046F00024F02EFE8346304624F02AFE834507DD53
:1047000034F8023C228824F8022C0137BFB22380FF
:10471000BAF80030C9EB0302954220DA00232B4996
:10472000228828480FF02EF92D49D8F84800002398
:104730000B700028BED12D4BD86C0028BDD0502264
:104740000BF026FEB9E7294BD86C02AE0028CBD07F
:10475000314650220BF01CFEC6E7CDF800900099C0
:104760005A1E8A4209F101099CDC019BB3B9072159
:104770001F481FF0A1FA19481CF078FE11480FF0ED
:1047800077F812480FF074F817B0BDE8F08FCB6CD3
:10479000ABB11B685B09013B9BB244E70C21154898
:1047A0001FF08AFA012114481FF086FABAF80010A7
:1047B0000A481CF0C5FE09481CF058FEDEE74FF61B
:1047C000FF7330E7B05702201C7F02206C7D02206F
:1047D000B0E4020038E502005C7D02203C47022084
:1047E000805902200002FF1FAC11FF1FA0570220BA
:1047F0005CE502004CE50200E0E602007054022095
:104800002DE9F04F072195B0B448B54E1FF054FA8A
:104810000821B4481FF050FAB3481CF027FE0421C9
:10482000B2481FF049FAB36C002B00F05281B04837
:104830000FF01EF8AF4BB04F1868B04DB04CDFF81A
:1048400024B3DFF824A3DFF82493DFF82483FCF7F4
:1048500013FD3B6822682968019103F2B27300924C
:104860005021A84AA84825F095FB3B682268296892
:10487000DBF8000001910092DAF80010D9F800206E
:10488000049003F2B2730391029250219F4AA04810
:1048900025F080FB9E4A9F48502125F07BFB3B681A
:1048A0002A682468DAF80000D9F80010DBF80070F4
:1048B000039003F2B273029101921421964A049775
:1048C0000094964825F066FB082195481FF0F4F9FE
:1048D000012194481FF0F0F98B4825F091FD014625
:1048E00089481FF0E9F980481CF0C0FDD8F8001095
:1048F000002900F0E18000238B4A8C480FF002F879
:10490000044609218A488B4D1FF0D6F901218548BC
:104910001FF0D2F9214674481CF012FE72481CF0B8
:10492000A5FD0123784A844805F110010EF0B4FF7B
:104930000621044681481FF0BFF9012179481FF084
:10494000BBF9214668481CF0FBFD67481CF08EFD52
:1049500007217B481FF0B0F9012172481FF0ACF924
:10496000AF6C002F00F097804FF0000E3946734671
:10497000654A8DF818E006A88DF819E08DF81AE060
:104980000DF04AFB014658481CF0DAFD56481CF071
:104990006DFD002C4FD010216A481FF08DF9524850
:1049A0001CF064FD68495B4B009301240C70564B6E
:1049B000664A5748502125F0EDFA554825F020FD6C
:1049C000014653481FF078F947481CF04FFDD8F8CE
:1049D0000010002972D040F201234D4A44480EF0E5
:1049E00091FF04460C215A481FF066F901214D48F9
:1049F0001FF062F921463C481CF0A2FD3A481CF029
:104A000035FDB06C364B00285AD052490DF072FB80
:104A10000446112150481FF04FF9012141481FF071
:104A20004BF9214630481CF08BFD2F481CF01EFD31
:104A300015B0BDE8F08FA96C3E4BC1B12346324A98
:104A40008DF8184006A88DF819408DF81A400DF021
:104A5000E3FAD8B141492448FCF7DAFB2D4B009327
:104A60003A4A294B2A48502125F094FAA5E7D96CF7
:104A700061B12346244A8DF8494006A88DF84A4082
:104A80008DF84B400CF0ACF80028E3D134491648BF
:104A9000FCF7BEFB91E7E96C00293FF474AF3B469D
:104AA000194A8DF8497006A88DF84A708DF84B7038
:104AB0000CF096F8014666E70C4622E70C4691E7B3
:104AC000D86C002856D0234A00230CF0FBFB044688
:104AD0009FE7F36C002B7FF4AAAEABE6B0E00200D8
:104AE000A057022064E502003C470220A4DC02003B
:104AF000B057022000D00340D07E02201068022070
:104B0000C465022070E502008879022080E5020079
:104B10006C630220245F0220A0E50200D45E022024
:104B2000C0E50200E0E60200B0E402007C5802208A
:104B3000CCE502006C5802206C7D0220D8E5020012
:104B4000E0E50200E8E50200047A0220FCE502004C
:104B50002CE60200C0E1E4003CE6020004E60200AC
:104B600018E6020078560220987502206479022027
:104B70001C7F022004464CE72DE9F0410721ADF5EA
:104B8000866D3648364F1FF097F8102135481FF0D4
:104B900093F835481CF06AFC042134481FF08CF867
:104BA0003D68C5F35115002D00F03382304C314E75
:104BB00004EB8535B04605E00DF050FE04F5804469
:104BC000AC4214D0B36C4FF4804221461846002BFF
:104BD000F2D1D8F84C3021464FF480421846002BD1
:104BE000ECD004F580440CF06FFCAC42EAD1082113
:104BF0002148204D1FF060F8012120481FF05CF88B
:104C00001F4B19481A680292002302990A221CF0CD
:104C100057FC15481CF02AFC00233B6004E00DF013
:104C20001DFE184811F026FF164811F0D9FE002885
:104C3000144829DD11F002FFB36C044601464FF41D
:104C400080721846002BEAD1EB6C4FF4807221463B
:104C50001846002BE5D00CF037FCE2E7B0E002008C
:104C60008079022050E602003C470220A4DC0200CA
:104C70008019FF1FA057022064E60200E0E6020050
:104C8000AC860220805B0220B06CB94B002800F09B
:104C900030810DF0A7FD0C21B6481FF00DF8012161
:104CA000B5481FF009F8B54AB54B1268B54803EB93
:104CB0000212002391680A221CF002FCB1481CF089
:104CC000D5FBB06CAA4B002800F0888100210DF0C4
:104CD0002BFCB36CA64A002B00F08B81DF6900250A
:104CE0003C463846FEF7F2FFAC22014621A81CF0F4
:104CF000A1FEB06C9E4B002800F0828100210DF0D7
:104D000013FCB06C9A4B002800F01F8121A9AC2243
:104D10000DF0A4FDB06C964B002800F07C812C2196
:104D20000DF002FC984A9FED997A02F5F070134657
:104D300053F8041F07EE901AF8EE677AF4EE477AFC
:104D4000F1EE10FAC8BFB0EE677A9842F0D1B5EE36
:104D5000407AF1EE10FA1CBFF7EE007A87EE877A00
:104D60000DF10B01DFED8A6A52F8043F07EE903A2D
:104D7000F8EE677A904267EE877A67EEA67AFCEEE5
:104D8000E77A17EE903A01F8013FEDD1B06C784B1D
:104D9000002800F0C980782203A90DF05FFDB06CF7
:104DA000734B002840F0CD80D86C18B122462B46BA
:104DB0000BF0A8FCFEF7C2FC4FF4807201464CA831
:104DC0001CF038FEB06C6A4B002800F0A3804CA9A0
:104DD0004FF480720DF042FDFEF724FE4FF4007296
:104DE00001468CA81CF026FEB06C614B002800F038
:104DF00087808CA94FF400720DF030FD6548664E37
:104E00000EF036FD122165481EF056FF01215A486A
:104E10001EF052FF624B5B4819881CF091FB594809
:104E20001CF024FB08215F481EF046FF0121524878
:104E30001EF042FF5C4B534819881CF081FB51481F
:104E40001CF014FBD6F88404002800F0B7808279A7
:104E5000C469564D4FF4007303FA02F292B2013C5A
:104E6000A2FB0423C5E900230EF0EEFBD6F8843440
:104E7000494A241A002B71D09A794FF4007303FA2F
:104E800002F292B2A2FB0423494C4A480921C4E928
:104E900000231EF011FF012137481EF00DFF94E89A
:104EA0000C0000260A24120D42EA03328DE850005D
:104EB0001B0D34481CF04CFB32481CF0D7FA21463D
:104EC0003D481EF0F9FE01212B481EF0F5FE95E845
:104ED0000C00120D42EA033201961B0D0094294882
:104EE0001CF036FB27481CF0C1FA0DF5866DBDE8B5
:104EF000F081D86C00283FF4CEAE0CF073FACAE60D
:104F0000D86C00283FF47AAF8CA94FF400720CF0F3
:104F1000DBFA73E7D86C00283FF45EAF4CA94FF47E
:104F200080720CF0D1FA57E7D86C00283FF442AFFA
:104F3000782203A90CF0C8FAB06C0D4B00283FF49E
:104F400033AF39460DF0F0FA34E7D86C00283FF45F
:104F5000E9AE21A9AC220CF0B7FADBE6D2F888342E
:104F6000002B6DD0D3F83C24A2FB04238CE700BFB8
:104F7000A057022070E60200E0E602001845022079
:104F8000A80903003C4702207054022000000000E2
:104F900000004843B0570220747F022080E60200E0
:104FA000D47E022094E602000C7F0220B07402201E
:104FB00078590220A0E60200ACE60200D6F8880488
:104FC000002835D0D0F83044D0F83C241E4DA2FB48
:104FD0000423C5E900230CF047FD47E7D86C18B35C
:104FE000002200230BF08EFBB36C184A002B7FF4D9
:104FF00075AED76CCFB1D7E904450025274670E6DA
:10500000D86C00283FF48EAE002200230BF07AFB10
:1050100077E60E4EEBE5D86C00283FF483AE2C22E9
:1050200000230BF06FFB7DE607460024002558E6C1
:105030000020054D0146024685E80300034623E7AC
:105040000022002320E700BFB0740220A0570220F6
:105050002DE9F0433B4EC1B0374619E0DFF8F08050
:1050600000253368384805EB430308EB032411F0AF
:10507000E5FC4FF48072014620461CF0DBFC013554
:10508000314811F0F7FC022DEBD13B6801333B6056
:105090002D4811F0A5FC0128E0DC3368BF2B4ED968
:1050A000DFF8AC80294D444608F5C037A94605E035
:1050B0000DF0D4FB04F58044BC4214D0AB6C4FF42B
:1050C000804221461846002BF2D1D9F84C302146B7
:1050D0004FF480421846002BECD004F580440CF0CD
:1050E000F3F9BC42EAD10025294668464FF48072A4
:1050F000356024F0F3FC144808EB052411F070FC33
:10510000D8B1114811F09AFC4FF480720146204644
:105110001CF090FC0C4811F0ADFC21464FF480725D
:10512000684624F045FC0028E5D00135064808EB28
:10513000052411F055FC0028E3D16D08356041B01D
:10514000BDE8F08380790220805B0220A057022016
:105150008019FF1F2DE9F84FDFF8DC82A24A98F88A
:10516000003000251570002B00F032815E1EF6B273
:105170009E4A9F4B92F800E0DFF8C0C2013606EB72
:10518000460603EB860603F10804BEF1000F00F0AB
:10519000F080197A05EB4507A4F108020CEB8707AC
:1051A00005F1010921B107CA87E807005FFA89F50F
:1051B0000C33B34204F10C04E7D12C460D218D4889
:1051C00088F800501EF078FD214600230A228A4804
:1051D0001CF076F988481CF049F9DFF864E29EF883
:1051E000006096B1751EEDB2013505EB4505DFF89F
:1051F00000C2824FAD0000230CEB030207CAFC186B
:105200000C339D4284E80700F6D10E217C488EF8CD
:1052100000601EF051FD314600230A227648794C89
:10522000794E09251CF04CF973481CF01FF90D2329
:10523000062229467548A2702370E37065701EF03F
:105240003BFD012172481EF037FD00230A22217820
:1052500069481CF035F968481CF008F929466D4882
:105260001EF02AFD01216A481EF026FD00230A22B5
:10527000617861481CF024F95F481CF0F7F8294672
:1052800065481EF019FD012161481EF015FD00233F
:105290000A22A17858481CF013F957481CF0E6F888
:1052A00029465E481EF008FD012159481EF004FD04
:1052B0000023E17850480A221CF002F94E481CF005
:1052C000D5F8574B1B7804253570002B6BD1554B07
:1052D000AE461D78544E0024012716F8013F33B323
:1052E000013BDBB201335149DFF85891DFF85881B7
:1052F0004F48DFF858C103EB430301EB830AE2B2E6
:105300000023DCB990F808B0BBF1000F02D00133E4
:10531000DBB24772AA421CD00C318A4509F10C0954
:1053200008F10C0800F10C000CF10C0CE9D101346F
:10533000E2B272453370D0D3BDE8F88F012A10D1A4
:1053400098F808B0BBF1000FE4D00133AA42DBB2F9
:10535000E2D191F808B0BBF1000FDDD00133DBB230
:10536000DAE7022A37D19CF808B0BBF1000FD1D0A0
:10537000EBE714F8082CA2F1640101297FF618AFBD
:10538000672A3FF415AF197A05EB4507A4F1080227
:105390000CEB870700293FF40BAF07CA013587E8FC
:1053A0000700EDB204E70C231946224823711EF0D2
:1053B00083FC012116481EF07FFC21790E48FBF783
:1053C00039FF184B4FF0050E1D7086F800E080E79E
:1053D0001C461D46F2E6032A9CD199F808B0BBF1A1
:1053E000000F97D0B1E700BF186602209164022039
:1053F000045C0400B8E602003C4702201858022072
:10540000C8E60200945A0220BB430220D8E60200FC
:10541000E0E60200E4E60200F0E60200FCE602003C
:105420001465022029450220935A0220745B04006F
:105430006844022008E70200084502203C7C022064
:1054400058430220C44204004417030008DC020051
:1054500070B5044B1B68044684B018460D46FBF734
:105460000BFF01E000D00340FF2C00F22281DFE8B7
:1054700014F0A8039D039B039103AE03AB0320012B
:10548000B60334030D032001200100032001200195
:105490002001200120012001200120012001200104
:1054A00020012001200120012001200120012001F4
:1054B00020012001200120012001200120012001E4
:1054C00020012001200120012001200120012001D4
:1054D00020012001200120012001200120012001C4
:1054E00020012001200120012001200120012001B4
:1054F00020012001200120012001200120012001A4
:105500002001200120012001200120012001200193
:105510002001200120012001200120012001200183
:105520002001200120012001200120012001200173
:1055300020012001200120012001F802F602F402DE
:1055400020012001EC022001200120012001200186
:105550002001200120012001200120012001200143
:105560002001E302CD028603200120012001200159
:105570002001200120012001200120012001200123
:105580002001200120012001200120012001200113
:1055900020012001200120012001200120017A03A7
:1055A00070036E036C0360033F033D03C503BC033C
:1055B000B8038803DC03CA03200120012001200175
:1055C0002001200120016202200120012001200190
:1055D00020012001200120012001200120012001C3
:1055E00020012001200120012001200120012001B3
:1055F00020012001200120012001200120012001A3
:10560000200120014E021E02120220012001200171
:10561000200120010B02030246023E02FB01EF01C2
:1056200020012001200120012001ED01E201DA0129
:105630002001200120012001200120012001200162
:105640002001200120012001200120012001200152
:105650002001D801C301B701A2019C0191018F0172
:105660006B013E01350123012001200120012001B1
:105670000001032D00F2E582B14BB24853F825201A
:105680001E2124F087FCB04B1B78AB4200F08483D2
:10569000AE4B1B78AB420CD1AD4B1B78002B00F00E
:1056A0008B83AC4BA74C0FCB07C424F8023B1B0CDD
:1056B0002370A44804B070BDA74B93F90030002BB1
:1056C00000F0D082012B00F08583022BF1D1A34A98
:1056D0009C4B92E8030018601971EAE7A04BA14ABD
:1056E00093F9003097481E2124F054FCE1E79E4BCB
:1056F000D3ED006A9FED9D6A9FED9D7A9D4A91488A
:10570000F8EEE66A1E21C6EE867AFDEEE76AB8EE8E
:10571000E66A16EE903A77EEC67A67EE876AFDEE95
:10572000E66AB8EEE66ACDED006AC6EE076A77EE85
:10573000E67A67EE877A67EE877AFDEEE77ACDED57
:10574000017A24F027FCB4E78B4B9FED8C7AD3EDE4
:10575000007AF8EEE77AC7EE876A16EE900A23F031
:10576000CFF8874B9FED877AD3ED007AF8EEE77A92
:10577000CDE90201C7EE876A16EE900A23F0C0F861
:10578000814ACDE900011E216E4824F003FC90E718
:105790007E4BADE77E4A7F4B12781B7869480092BA
:1057A0001E217D4A24F0F6FB83E77C4A65481E21D2
:1057B00024F0F0FB7DE77A4B9FED7A7AD3ED007A07
:1057C000F8EE677A67EE877A17EE900A23F098F87A
:1057D000754ACDE900011E215A4824F0DBFB68E739
:1057E000724B9FED667AD3ED007AF8EEE77AC7EE5A
:1057F000876A16EE900AE9E75B4BD3ED007A9FEDDE
:105800005B7AF8EEE77AC7EE876A16EE900A23F025
:1058100077F8674ACDE900011E214A4824F0BAFB17
:1058200047E75A4BE9E7634B634A1B8845481E210B
:1058300024F0B0FB3DE7614B614A4248D3E90045A3
:105840001E21CDE9004524F0A5FB32E75D4BF3E7CF
:105850005D4B1B78002B40F099815C4B394A1B68EB
:1058600013801B0C937024E7594B5A4A1B78354818
:105870001E2124F08FFB1CE7574B564A1B6831480A
:105880001E2124F087FB14E7544B2E4819680C2284
:1058900024F074FE0DE7524B93F90030012B00F019
:1058A0008782504A274B07CA03C31A7001E74E4B41
:1058B0004E4C1868FBF7E0FC94F90030002B00F028
:1058C000DA81012B00F08C82022B7FF4F2AE484B80
:1058D0004849494A1B68096812680092019103F21D
:1058E000B273464A17481E2124F054FBE1E63A4BB6
:1058F000384A9B6813481E2124F04CFBD9E6364BEE
:10590000344A5B680F481E2124F044FBD1E6374C33
:1059100094F90030002B00F09881002B7FF7C9AE7E
:10592000374A384B12681B68064800921E21364AD7
:1059300024F030FBBDE6034B2E221A80B9E600BFEF
:105940009C430220F05E02202945022028450220C7
:105950009164022038E70200CC6C022034E8020097
:1059600018440220B07A0400206602208096184B6A
:1059700000007042FCE70200207D022000007A4413
:10598000407D02200050C34714E80200D07C022072
:10599000905A0220BE4302200CE80200EC6502206F
:1059A000244502206F12833ACCE70200087A0220D5
:1059B000F4E7020070590220F0E702007859022053
:1059C000E8E70200B0740220E27902209CEF0200B6
:1059D00094430220C87A0400FC7C0220345A02203E
:1059E00095430220DCE7020000D00340E47C022063
:1059F000D07E022010680220C4650220B4E70200B5
:105A00009875022064790220B8E70200A64B1B8833
:105A10009FEDA67A07EE903AF8EEE77A67EE877A7E
:105A200017EE900A22F06CFFA14ACDE900011E2179
:105A3000A04824F0AFFA3CE69F4B1B78002B00F007
:105A4000A5809C4B9D4A1A6033E69D4B9D4A1B786E
:105A500098481E2124F09EFA2BE69B4B05E79B4BB2
:105A6000F4E79B4B9B4A1B7892481E2124F092FA44
:105A70001FE6994B994A1B68D356012B00F09A8177
:105A8000974A8C481E2124F085FA12E6954B1B7824
:105A9000002B40F0CC80944B9FED947A93F900302A
:105AA00007EE903AF8EEE77A67EE877A17EE900AFB
:105AB00022F026FF41EC100B20F096F978A3D3E9F1
:105AC000002351EC100B22F06FFF894ACDE9000151
:105AD0001E21784824F05EFAEBE5864B864A93F95E
