:1000000000000320D1010000ADB0010065B0010087
:1000100065B0010065B0010065B0010065B0010088
:1000200065B0010065B0010065B00100ADB0010030
:10003000ADB0010065B00100C1A60100C5A6010078
:10004000ADB00100ADB00100ADB00100ADB0010038
:10005000ADB00100ADB00100ADB00100ADB0010028
:10006000ADB00100ADB00100ADB00100ADB0010018
:10007000ADB00100ADB00100ADB00100ADB0010008
:10008000ADB00100ADB00100ADB00100ADB00100F8
:10009000ADB00100ADB00100ADB00100ADB00100E8
:1000A000FDDB010009DC0100ADB00100ADB00100D5
:1000B000ADB00100ADB00100ADB00100ADB00100C8
:1000C000ADB00100ADB00100ADB00100ADB00100B8
:1000D000ADB00100ADB00100ADB00100ADB00100A8
:1000E000ADB00100ADB00100ADB00100ADB0010098
:1000F000ADB00100ADB00100ADB00100ADB0010088
:10010000ADB00100ADB00100ADB00100ADB0010077
:10011000ADB0010051BB0100ADB00100ADB00100B8
:10012000ADB00100ADB00100ADB00100ADB0010057
:10013000ADB00100ADB00100ADB00100ADB0010047
:1001400075A40100ADB00100ADB00100ADB001007B
:10015000ADB00100ADB00100ADB00100ADB0010027
:10016000ADB00100ADB0010015DC0100ADB0010083
:10017000ADB00100ADB00100ADB00100ADB0010007
:10018000ADB00100ADB00100ADB00100ADB00100F7
:10019000ADB00100ADB00100ADB00100ADB00100E7
:1001A000ADB00100ADB00100ADB00100ADB00100D7
:1001B000ADB00100ADB00100ADB00100ADB00100C7
:1001C000ADB00100ADB00100ADB00100ADB00100B7
:1001D0005C4B4CF2205210B51A804DF628121A8052
:1001E00000BF00BF1AF066FF574B4FF030621A6035
:1001F000564A9A60564ADA60564B4FF470021A60BB
:10020000554B564A1A60564B1A78110703D51A787F
:1002100042F008021A70534B5349AA221A70534AEB
:10022000534B8B4204D252F8040F43F8040BF8E707
:10023000504B514900228B4202D243F8042BFAE77B
:100240004E494F4A002352F8230041F8230001335E
:10025000742BF8D14B4B4C4A802103F8011B93427D
:10026000FBD14A4B454A1A60494B8A221A70A3F5C2
:10027000805324225A70A0221A709A799207FCD5D2
:100280009A79D406FCD4434A937903F00C03082BE3
:10029000FAD1414B60221A7002331A78802AFCD1BD
:1002A0003C4B01221A715D225A719A799006FCD555
:1002B0009979384A4906FBD5384B394919600021EC
:1002C000596020231370937903F00C030C2BFAD19F
:1002D000344B354A1A60354A354C136813F4807331
:1002E00003D123604FF4A8531360324B324A1A6093
:1002F00000225A60072243F8042C304AC3F80C2D20
:1003000062B61BF095FA2368DA0705D52C481BF076
:100310003DF82C4B2C4A1A602C4B1B785B0609D5F8
:10032000284C294B22689A4204D125481BF02EF80C
:100330000023236020F0E0FD1AF0C2FE1AF0F0FD69
:10034000FEE700BF0E20054030800440823F0400DD
:100350000100002B88ED00E0002008E0030000858C
:1003600002D0074000E00740F03AFF1F8404050078
:10037000302BFF1FF03AFF1FD09C01200026FF1FEB
:100380000000000000E400E064E400E008ED00E0AC
:10039000005006400040064001E007404480044011
:1003A0000000060204800440C010070010D0034083
:1003B00014D0034014E000E01FBF02000000202022
:1003C000139FA8601CE00340A5C3945A00F00740A7
:1003D000FFFFFFFFFFFFFFFFFFFFFFFFFFFFFFFF2D
:1003E000FFFFFFFFFFFFFFFFFFFFFFFFFFFFFFFF1D
:1003F000FFFFFFFFFFFFFFFFFFFFFFFFFFFFFFFF0D
:10040000FFFFFFFFFFFFFFFFFFFFFFFFDEF9FFFF23
:1004100010B5054C237833B9044B13B10448AFF33E
:1004200000800123237010BDF03AFF1F0000000080
:1004300080040500084B10B51BB108490848AFF30C
:1004400000800848036803B910BD074B002BFBD0A0
:10045000BDE81040184700BF00000000F43AFF1F3D
:1004600080040500F03AFF1F0000000000207047E4
:10047000704700BF4FF0FF30704700BF006910B1F8
:1004800003689B6A18477047006910B10368DB6A0C
:1004900018477047006910B103681B691847704717
:1004A000006910B103689B6918474FF0FF3070472F
:1004B000006910B10368DB6818477047006910B124
:1004C0000168096B0847704710B4006920B10468DF
:1004D000616B5DF8044B08475DF8044B704700BF43
:1004E000006910B103689B6B18470020002170471A
:1004F000006910B10368DB6B1847002000217047CA
:10050000006910B103681B6C18477047006910B18F
:1005100003685B6C18477047006910B103689B6CF7
:1005200018470148704700BF68590200006910B1C0
:100530000368DB6C1847704738B50B6904462BB16C
:100540001D6819462B6D9847204638BD4FF47A70C8
:10055000064A23712373A06022600B692361002B7C
:10056000F2D01A6901321A61204638BD5456020091
:10057000006910B103685B6D18477047006980B16E
:1005800000B5036883B09B6A01220DF1070198470B
:1005900020B19DF8070003B05DF804FB4FF0FF3079
:1005A000F9E74FF0FF30704710B582B002AB026838
:1005B00003F8011DD46A19460122A04702B010BDFC
:1005C000C36D0BB101207047006E003018BF0120D1
:1005D000704700BF704700BF10B50446406E18B1A9
:1005E00020F0D4FC0023636604F12400BDE8104031
:1005F0000EF02CBC10B5044B044640F8103B0EF036
:1006000025FC204610BD00BF0C56020010B5044664
:1006100002460369054906481AF0B0F8206920B17E
:100620000368BDE810405B6A184710BDE45702003C
:10063000402FFF1F02460369014902481AF09EB885
:1006400000580200402FFF1F2DE9F041002394B015
:100650001A460546243104A84FF47A74254F8DF8C4
:1006600004308DF80C3012931393029400970EF01F
:1006700077FC129B002B32D068201AF06FFD0446E5
:100680009DF80460029A9DF80C301B481B492676A1
:100690004FF47A78002620606161E26184F82030AE
:1006A00004F1240004A9267126732661C4F8088089
:1006B0000EF090FB2369124A6761013366662E7162
:1006C000C5F808802E732C6123612A600D4B0093BE
:1006D00004A80EF0BBFB284614B0BDE8F081139BC4
:1006E000002BC9D1064A2B71AC602B732B612A6099
:1006F000ECE700BF30560200B4560200DC550200A1
:10070000545602000C5602001AF03ABE10B50446C8
:1007100019F05AFE204610BDC26D62B1137803F085
:10072000080303F0FF0003B3D3695069181A48BFE8
:100730006FF000407047016EC1B191F8313003F0A5
:10074000080303F0FF0083B1D1E90423D1E90001DC
:10075000101A30B463EB010100256FF000448D42A4
:1007600008BF844200D2204630BC7047084670471C
:1007700010B4144600222270006828B121461A469F
:100780005DF8044B0DF0E4BC086828B121461A4618
:100790005DF8044B0BF028B95DF8044B704700BFBF
:1007A000C36D13B118460DF0A1B8006E08B10BF07F
:1007B000BDBA4FF0FF30704700B5836C83B063B1B2
:1007C000184601220DF107010CF0C0FF01280CD1E1
:1007D0009DF8070003B05DF804FBC06C28B101224E
:1007E0000DF107010BF0CEF9F0E74FF0FF30F1E724
:1007F000C36D13B118460DF01FBB006E08B10BF0AE
:100800006DBF704700B5836C83B08DF8071043B19E
:10081000184601220DF107010DF050FB03B05DF801
:1008200004FBC06C0028F9D001220DF107010CF087
:100830005BF903B05DF804FBD0B5C46D8CB1012B3E
:1008400008BF002A01D30020D0BD114620460DF07C
:100850009BF90028F7D020460DF0F4FA0028F2D0DA
:10086000D0BD046E002CEED020460BF077FA0028A5
:10087000E9D02046BDE8D0400CF0C4B8C36D13B138
:10088000D86900217047036E13B118695969704720
:1008900018461946704700BFC36D13B1586900214F
:1008A0007047036E13B193E803007047184619466A
:1008B000704700BFC36D13B118460CF047BF006E00
:1008C00008B10BF05FB94FF0FF307047836C13B184
:1008D00018460DF00BB8C06C08B10BF027BA4FF0FA
:1008E000FF307047C36D33B11B7813F0700F14BF26
:1008F000012000207047006E30B190F8313013F0C5
:10090000500F14BF01200020704700BF836C13B14B
:1009100018460DF091BAC06C08B10BF0DFBE7047FD
:10092000C36D13B118460DF0C9BA006E08B10CF0D2
:10093000DBB87047836C13B118460DF0BFBAC06CBA
:1009400008B10CF0D1B87047826C62B1137803F033
:10095000080303F0FF0003B3D3695069181A48BFB6
:100960006FF000407047C16CC1B191F8313003F0B5
:10097000080303F0FF0083B1D1E90423D1E90001AA
:10098000101A30B463EB010100256FF000448D4272
:1009900008BF844200D2204630BC704708467047EA
:1009A000C36D9BB11A7812F0700F00D1704710B56B
:1009B0000446002118460DF0E7F8206E28B1002209
:1009C0000023BDE810400BF0C9B910BD006E00282F
:1009D000ECD090F8313013F0500FE7D00022002314
:1009E0000BF0BCB9D0B4039C16461F4634B1012CA1
:1009F0001ED0022C0DD00020D0BC7047C46DDCB1DD
:100A0000012B08BF002AF6D220461146D0BC0DF0BB
:100A1000BBB8C36DB3B1DA69B61847F10007012F4F
:100A200008BF002EE7D231461846D0BC0DF0ACB856
:100A3000C36D8BB15A69EFE7006E0028DBD0D0BCE4
:100A40000BF08CB9006E0028D5D0D0E904239219A0
:100A50007B41D0BC0BF082B9006E0028CBD0D0E92E
:100A6000002392197B41EAE70269084B10B504465E
:100A7000036042B11369013B136123B9006910B1EE
:100A800003681B6A9847204610BD00BF54560200F9
:100A9000826A0949094B10B504460160836142B17D
:100AA0001369013B136123B9806A10B103681B6AA3
:100AB0009847204610BD00BFE402040054560200CF
:100AC00038B5C36D144A0260044600F12405F3B141
:100AD00028460EF0BBF9606E08B120F057FA0F4BB4
:100AE000636128460EF0B2F922690D4B236042B1D2
:100AF0001369013B136123B9206910B103681B6AB4
:100B00009847204668211AF02BFB204638BD036E1B
:100B1000002BDDD1DFE700BFB45602000C56020007
:100B20005456020002690A4B10B50446036042B1F4
:100B30001369013B136123B9006910B103681B6A93
:100B40009847204614211AF00BFB204610BD00BF29
:100B50005456020038B5C36D124A0260044600F1D3
:100B60002405D3B128460EF071F9606E08B120F06B
:100B70000DFA0D4B636128460EF068F922690B4BA4
:100B8000236042B11369013B136123B9206910B19D
:100B900003681B6A9847204638BD036E002BE1D1DD
:100BA000E3E700BFB45602000C56020054560200A0
:100BB00038B5446E0CB1204638BD05464FF4807000
:100BC00020F0DCF90146686680B1E86D0C7028B150
:100BD0004FF480720DF0BCFA6C6EECE7286E40B1F9
:100BE0004FF480720AF000FF6C6EE4E7024C6C6612
:100BF000E1E70C46DFE700BF0C3BFF1F214B10B4C1
:100C0000D3F8B0201368506819780478507A137AB2
:100C1000044201EA03011BD0937A03F0030309B1F4
:100C200043F0040343F008039910013B91720D2B2C
:100C30000BD8DFE803F021071B070A152121150A4D
:100C4000071B0721D368013BD3605DF8044B704755
:100C5000937A03F003030029E6D043F00403E3E7AB
:100C6000D3685DF8044B023BD3607047D3685DF8EE
:100C7000044B0233D3607047D3685DF8044B0133F3
:100C8000D3607047F8940120214B10B4D3F8B420FE
:100C90001368506819780478507A137A044201EA8C
:100CA00003011BD0937A03F0030309B143F004035B
:100CB00043F008039910013B91720D2B0BD8DFE82C
:100CC00003F021071B070A152121150A071B07211D
:100CD000D368013BD3605DF8044B7047937A03F00F
:100CE00003030029E6D043F00403E3E7D3685DF88B
:100CF000044B023BD3607047D3685DF8044B02336A
:100D0000D3607047D3685DF8044B0133D3607047FC
:100D1000F8940120214B10B4D3F8B8201368506820
:100D200019780478507A137A044201EA03011BD03F
:100D3000937A03F0030309B143F0040343F008037B
:100D40009910013B91720D2B0BD8DFE803F02107BE
:100D50001B070A152121150A071B0721D368013B30
:100D6000D3605DF8044B7047937A03F003030029C6
:100D7000E6D043F00403E3E7D3685DF8044B023B9D
:100D8000D3607047D3685DF8044B0233D36070477B
:100D9000D3685DF8044B0133D3607047F8940120A9
:100DA000214B10B4D3F8BC2013685068197804782C
:100DB000507A137A044201EA03011BD0937A03F0BC
:100DC000030309B143F0040343F008039910013B06
:100DD00091720D2B0BD8DFE803F021071B070A15D2
:100DE0002121150A071B0721D368013BD3605DF859
:100DF000044B7047937A03F003030029E6D043F0D5
:100E00000403E3E7D3685DF8044B023BD36070470B
:100E1000D3685DF8044B0233D3607047D3685DF844
:100E2000044B0133D3607047F8940120214B10B478
:100E3000D3F8C0201368506819780478507A137A70
:100E4000044201EA03011BD0937A03F0030309B1C2
:100E500043F0040343F008039910013B91720D2BFA
:100E60000BD8DFE803F021071B070A152121150A1B
:100E7000071B0721D368013BD3605DF8044B704723
:100E8000937A03F003030029E6D043F00403E3E779
:100E9000D3685DF8044B023BD3607047D3685DF8BC
:100EA000044B0233D3607047D3685DF8044B0133C1
:100EB000D3607047F8940120214B10B4D3F8C420BC
:100EC0001368506819780478507A137A044201EA5A
:100ED00003011BD0937A03F0030309B143F0040329
:100EE00043F008039910013B91720D2B0BD8DFE8FA
:100EF00003F021071B070A152121150A071B0721EB
:100F0000D368013BD3605DF8044B7047937A03F0DC
:100F100003030029E6D043F00403E3E7D3685DF858
:100F2000044B023BD3607047D3685DF8044B023337
:100F3000D3607047D3685DF8044B0133D3607047CA
:100F4000F8940120214B10B4D3F8C82013685068DE
:100F500019780478507A137A044201EA03011BD00D
:100F6000937A03F0030309B143F0040343F0080349
:100F70009910013B91720D2B0BD8DFE803F021078C
:100F80001B070A152121150A071B0721D368013BFE
:100F9000D3605DF8044B7047937A03F00303002994
:100FA000E6D043F00403E3E7D3685DF8044B023B6B
:100FB000D3607047D3685DF8044B0233D360704749
:100FC000D3685DF8044B0133D3607047F894012077
:100FD000214B10B4D3F8CC201368506819780478EA
:100FE000507A137A044201EA03011BD0937A03F08A
:100FF000030309B143F0040343F008039910013BD4
:1010000091720D2B0BD8DFE803F021071B070A159F
:101010002121150A071B0721D368013BD3605DF826
:10102000044B7047937A03F003030029E6D043F0A2
:101030000403E3E7D3685DF8044B023BD3607047D9
:10104000D3685DF8044B0233D3607047D3685DF812
:10105000044B0133D3607047F8940120214B10B446
:10106000D3F8D0201368506819780478507A137A2E
:10107000044201EA03011BD0937A03F0030309B190
:1010800043F0040343F008039910013B91720D2BC8
:101090000BD8DFE803F021071B070A152121150AE9
:1010A000071B0721D368013BD3605DF8044B7047F1
:1010B000937A03F003030029E6D043F00403E3E747
:1010C000D3685DF8044B023BD3607047D3685DF88A
:1010D000044B0233D3607047D3685DF8044B01338F
:1010E000D3607047F8940120214B10B4D3F8D4207A
:1010F0001368506819780478507A137A044201EA28
:1011000003011BD0937A03F0030309B143F00403F6
:1011100043F008039910013B91720D2B0BD8DFE8C7
:1011200003F021071B070A152121150A071B0721B8
:10113000D368013BD3605DF8044B7047937A03F0AA
:1011400003030029E6D043F00403E3E7D3685DF826
:10115000044B023BD3607047D3685DF8044B023305
:10116000D3607047D3685DF8044B0133D360704798
:10117000F8940120214B10B4D3F8D820136850689C
:1011800019780478507A137A044201EA03011BD0DB
:10119000937A03F0030309B143F0040343F0080317
:1011A0009910013B91720D2B0BD8DFE803F021075A
:1011B0001B070A152121150A071B0721D368013BCC
:1011C000D3605DF8044B7047937A03F00303002962
:1011D000E6D043F00403E3E7D3685DF8044B023B39
:1011E000D3607047D3685DF8044B0233D360704717
:1011F000D3685DF8044B0133D3607047F894012045
:10120000214B10B4D3F8DC201368506819780478A7
:10121000507A137A044201EA03011BD0937A03F057
:10122000030309B143F0040343F008039910013BA1
:1012300091720D2B0BD8DFE803F021071B070A156D
:101240002121150A071B0721D368013BD3605DF8F4
:10125000044B7047937A03F003030029E6D043F070
:101260000403E3E7D3685DF8044B023BD3607047A7
:10127000D3685DF8044B0233D3607047D3685DF8E0
:10128000044B0133D3607047F8940120214B10B414
:10129000D3F8E0201368506819780478507A137AEC
:1012A000044201EA03011BD0937A03F0030309B15E
:1012B00043F0040343F008039910013B91720D2B96
:1012C0000BD8DFE803F021071B070A152121150AB7
:1012D000071B0721D368013BD3605DF8044B7047BF
:1012E000937A03F003030029E6D043F00403E3E715
:1012F000D3685DF8044B023BD3607047D3685DF858
:10130000044B0233D3607047D3685DF8044B01335C
:10131000D3607047F8940120214B10B4D3F8E42037
:101320001368506819780478507A137A044201EAF5
:1013300003011BD0937A03F0030309B143F00403C4
:1013400043F008039910013B91720D2B0BD8DFE895
:1013500003F021071B070A152121150A071B072186
:10136000D368013BD3605DF8044B7047937A03F078
:1013700003030029E6D043F00403E3E7D3685DF8F4
:10138000044B023BD3607047D3685DF8044B0233D3
:10139000D3607047D3685DF8044B0133D360704766
:1013A000F8940120214B10B4D3F8E820136850685A
:1013B00019780478507A137A044201EA03011BD0A9
:1013C000937A03F0030309B143F0040343F00803E5
:1013D0009910013B91720D2B0BD8DFE803F0210728
:1013E0001B070A152121150A071B0721D368013B9A
:1013F000D3605DF8044B7047937A03F00303002930
:10140000E6D043F00403E3E7D3685DF8044B023B06
:10141000D3607047D3685DF8044B0233D3607047E4
:10142000D3685DF8044B0133D3607047F894012012
:10143000214B10B4D3F8EC20136850681978047865
:10144000507A137A044201EA03011BD0937A03F025
:10145000030309B143F0040343F008039910013B6F
:1014600091720D2B0BD8DFE803F021071B070A153B
:101470002121150A071B0721D368013BD3605DF8C2
:10148000044B7047937A03F003030029E6D043F03E
:101490000403E3E7D3685DF8044B023BD360704775
:1014A000D3685DF8044B0233D3607047D3685DF8AE
:1014B000044B0133D3607047F8940120214B10B4E2
:1014C0001A681368506819780478507A137A0442BD
:1014D00001EA03011BD0937A03F0030309B143F03F
:1014E000040343F008039910013B91720D2B0BD8B4
:1014F000DFE803F021071B070A152121150A071B46
:101500000721D368013BD3605DF8044B7047937AA1
:1015100003F003030029E6D043F00403E3E7D368B4
:101520005DF8044B023BD3607047D3685DF8044B11
:101530000233D3607047D3685DF8044B0133D36046
:10154000704700BFF8940120214B10B45A6813680B
:10155000506819780478507A137A044201EA03013A
:101560001BD0937A03F0030309B143F0040343F063
:1015700008039910013B91720D2B0BD8DFE803F0A3
:1015800021071B070A152121150A071B0721D3680C
:10159000013BD3605DF8044B7047937A03F003037B
:1015A0000029E6D043F00403E3E7D3685DF8044B79
:1015B000023BD3607047D3685DF8044B0233D360BD
:1015C0007047D3685DF8044B0133D360704700BFA8
:1015D000F8940120214B10B49A6813685068197868
:1015E0000478507A137A044201EA03011BD0937AFB
:1015F00003F0030309B143F0040343F00803991017
:10160000013B91720D2B0BD8DFE803F021071B077C
:101610000A152121150A071B0721D368013BD36056
:101620005DF8044B7047937A03F003030029E6D07A
:1016300043F00403E3E7D3685DF8044B023BD36057
:101640007047D3685DF8044B0233D3607047D368AA
:101650005DF8044B0133D360704700BFF89401205C
:10166000214B10B4DA681368506819780478507AFE
:10167000137A044201EA03011BD0937A03F00303B7
:1016800009B143F0040343F008039910013B917240
:101690000D2B0BD8DFE803F021071B070A152121CA
:1016A000150A071B0721D368013BD3605DF8044B83
:1016B0007047937A03F003030029E6D043F0040354
:1016C000E3E7D3685DF8044B023BD3607047D3680F
:1016D0005DF8044B0233D3607047D3685DF8044B68
:1016E0000133D360704700BFF8940120214B10B440
:1016F0001A691368506819780478507A137A04428A
:1017000001EA03011BD0937A03F0030309B143F00C
:10171000040343F008039910013B91720D2B0BD881
:10172000DFE803F021071B070A152121150A071B13
:101730000721D368013BD3605DF8044B7047937A6F
:1017400003F003030029E6D043F00403E3E7D36882
:101750005DF8044B023BD3607047D3685DF8044BDF
:101760000233D3607047D3685DF8044B0133D36014
:10177000704700BFF8940120214B10B45A691368D8
:10178000506819780478507A137A044201EA030108
:101790001BD0937A03F0030309B143F0040343F031
:1017A00008039910013B91720D2B0BD8DFE803F071
:1017B00021071B070A152121150A071B0721D368DA
:1017C000013BD3605DF8044B7047937A03F0030349
:1017D0000029E6D043F00403E3E7D3685DF8044B47
:1017E000023BD3607047D3685DF8044B0233D3608B
:1017F0007047D3685DF8044B0133D360704700BF76
:10180000F8940120214B10B49A6913685068197834
:101810000478507A137A044201EA03011BD0937AC8
:1018200003F0030309B143F0040343F008039910E4
:10183000013B91720D2B0BD8DFE803F021071B074A
:101840000A152121150A071B0721D368013BD36024
:101850005DF8044B7047937A03F003030029E6D048
:1018600043F00403E3E7D3685DF8044B023BD36025
:101870007047D3685DF8044B0233D3607047D36878
:101880005DF8044B0133D360704700BFF89401202A
:10189000214B10B4DA691368506819780478507ACB
:1018A000137A044201EA03011BD0937A03F0030385
:1018B00009B143F0040343F008039910013B91720E
:1018C0000D2B0BD8DFE803F021071B070A15212198
:1018D000150A071B0721D368013BD3605DF8044B51
:1018E0007047937A03F003030029E6D043F0040322
:1018F000E3E7D3685DF8044B023BD3607047D368DD
:101900005DF8044B0233D3607047D3685DF8044B35
:101910000133D360704700BFF8940120214B10B40D
:101920001A6A1368506819780478507A137A044256
:1019300001EA03011BD0937A03F0030309B143F0DA
:10194000040343F008039910013B91720D2B0BD84F
:10195000DFE803F021071B070A152121150A071BE1
:101960000721D368013BD3605DF8044B7047937A3D
:1019700003F003030029E6D043F00403E3E7D36850
:101980005DF8044B023BD3607047D3685DF8044BAD
:101990000233D3607047D3685DF8044B0133D360E2
:1019A000704700BFF8940120214B10B45A6A1368A5
:1019B000506819780478507A137A044201EA0301D6
:1019C0001BD0937A03F0030309B143F0040343F0FF
:1019D00008039910013B91720D2B0BD8DFE803F03F
:1019E00021071B070A152121150A071B0721D368A8
:1019F000013BD3605DF8044B7047937A03F0030317
:101A00000029E6D043F00403E3E7D3685DF8044B14
:101A1000023BD3607047D3685DF8044B0233D36058
:101A20007047D3685DF8044B0133D360704700BF43
:101A3000F8940120214B10B49A6A13685068197801
:101A40000478507A137A044201EA03011BD0937A96
:101A500003F0030309B143F0040343F008039910B2
:101A6000013B91720D2B0BD8DFE803F021071B0718
:101A70000A152121150A071B0721D368013BD360F2
:101A80005DF8044B7047937A03F003030029E6D016
:101A900043F00403E3E7D3685DF8044B023BD360F3
:101AA0007047D3685DF8044B0233D3607047D36846
:101AB0005DF8044B0133D360704700BFF8940120F8
:101AC000214B10B4DA6A1368506819780478507A98
:101AD000137A044201EA03011BD0937A03F0030353
:101AE00009B143F0040343F008039910013B9172DC
:101AF0000D2B0BD8DFE803F021071B070A15212166
:101B0000150A071B0721D368013BD3605DF8044B1E
:101B10007047937A03F003030029E6D043F00403EF
:101B2000E3E7D3685DF8044B023BD3607047D368AA
:101B30005DF8044B0233D3607047D3685DF8044B03
:101B40000133D360704700BFF8940120214B10B4DB
:101B50001A6B1368506819780478507A137A044223
:101B600001EA03011BD0937A03F0030309B143F0A8
:101B7000040343F008039910013B91720D2B0BD81D
:101B8000DFE803F021071B070A152121150A071BAF
:101B90000721D368013BD3605DF8044B7047937A0B
:101BA00003F003030029E6D043F00403E3E7D3681E
:101BB0005DF8044B023BD3607047D3685DF8044B7B
:101BC0000233D3607047D3685DF8044B0133D360B0
:101BD000704700BFF8940120214B10B45A6B136872
:101BE000506819780478507A137A044201EA0301A4
:101BF0001BD0937A03F0030309B143F0040343F0CD
:101C000008039910013B91720D2B0BD8DFE803F00C
:101C100021071B070A152121150A071B0721D36875
:101C2000013BD3605DF8044B7047937A03F00303E4
:101C30000029E6D043F00403E3E7D3685DF8044BE2
:101C4000023BD3607047D3685DF8044B0233D36026
:101C50007047D3685DF8044B0133D360704700BF11
:101C6000F894012070B5044608460D4620F088F926
:101C700023680246294620465B68BDE87040184745
:101C800038B5044608460D4620F07AF92368024626
:101C900029465B68204698470546204618F056FDC1
:101CA000284438BD624B634A6349DFF8B8C12DE967
:101CB000F043A3FB0053614C614E1D0C2F1DA4FB90
:101CC0000043A2FB00E4A7FB06896409A2FB04E22F
:101CD000C9EB0706DB0A09EB56065209A1FB03E133
:101CE000B608C2EB0212A4EB8202C6EBC606C4EB36
:101CF00004140909BE1BDFF870E1524FA0EB840009
:101D000001EB4101504C3A600136A3EBC1010023C5
:101D1000CEF80060CCF800002160DFF834E14B4FD2
:101D20001C4640F26D1864264FF4C87C0DE0C909CA
:101D30000CFB112100285BD1002914BF42464FF44F
:101D4000B77213449D4211D3013404F2B272A7FB5F
:101D500002014809744506FB102002D012F0030F5F
:101D6000E5D040F26D1213449D42EDD2384A394914
:101D700094420C604CD004F2B27291073BD040F216
:101D80006D11324F344EDFF8C8E0A7FB02075B1A33
:101D90004FEA571C64204FF4C871FF0900FB1C2C4C
:101DA00001FB1727EB1A02F003021F2000210CE0B1
:101DB000451CBCF1000F00D15FB9012909D19D423A
:101DC00024D85B1B022116F8010F744501D0002AAC
:101DD000EED098421AD801310C29A3EB0003F2D1BE
:101DE0000D211E481E4A013303601160BDE8F083D7
:101DF0004FF4B772A5E71549A1FB02014809642613
:101E000006FB102040B14FF4B771BAE70131E8E7A3
:101E100040F26D110022B4E7C9094FF4C87000FB0D
:101E20001121002940F26D1108BF4FF4B771A8E7E6
:101E300007452EC289888888ABAAAAAAC5B3A291F1
:101E400025499224BC030120A80701201F85EB51DE
:101E50004EF8FFFF7C0801208CC00300F4EC00204A
:101E6000C0D90020143DFF1FB08D0120DFED277A7F
:101E70009FED277A80EE270AB4EEC70AF1EE10FA3A
:101E800032D4F6EE007AB4EEE70AF1EE10FA12D48C
:101E900030EE670ADFED1F7A30EE000A6FF01F00A8
:101EA00020EE270ABCEEC00A10EE103AC3F3C403BA
:101EB000184380B2704730EE470ADFED176A9FED96
:101EC000157AC0EE267A002367EE877AFCEEE77A71
:101ED00017EE900AC00000F4FC606FEA40506FEA11
:101EE0005050184380B27047C0EE077A00239FED30
:101EF000097A67EE877AFCEEE77A17EE900A00021D
:101F000000F4784000B2184380B2704700401C468D
:101F1000CDCCCC3D00007F43CDCCCC3E9FED7E7A36
:101F2000DFED7E7AE0EE077A84B0F5EEC07AF1EE6E
:101F300010FA00F1DF809FED7A7AF4EEC77AF1EEC5
:101F400010FA00F38980FCEEE77ACDED017A9DF876
:101F50000420B5EEC00AF1EE10FA40F38580DFED03
:101F6000717AB4EEE70AF1EE10FA7DD5DFED6E7A04
:101F700060EE277AF5EEC07AF1EE10FA00F1B88043
:101F80009FED677AF4EEC77AF1EE10FA7ADCFCEE98
:101F9000E77ACDED017A9DF80430DFED647AB4EE96
:101FA000E70AF1EE10FA76D89FED617ADFED617AFB
:101FB000E0EE077AF5EEC07AF1EE10FA73D49FEDF9
:101FC000587AF4EEC77AF1EE10FA00F39580FCEE41
:101FD000E77ACDED017A9DF804109FED526AB4EED8
:101FE000C60AF1EE10FA29D507EE902A06EE901AED
:101FF000B8EEE77A07EE903AF8EEE66AF8EEE77A9E
:1020000027EE007A67EE807A26EE800AC7EE066A2F
:1020100087EE867AC0EE067AFCEEE66ABCEEC77AF8
:10202000FCEEE77ACDED016A8DED027ACDED037A13
:102030009DF804209DF808309DF80C10120222F43F
:10204000FF60DB0020F0070003F4FC63034343EA76
:10205000D10080B204B07047B5EEC00AF1EE10FABC
:102060004FF0FF023FF77BAFDFED2E7AB4EEE70AC9
:10207000F1EE10FA35DBDFED307AB4EEE70AF1EE7F
:1020800010FA2ED8DFED297AB4EEE70AF1EE10FA55
:102090004FF0FF0388D908DDDFED287AB4EEE70AB8
:1020A000F1EE10FA01D8002197E7DFED247AB4EEC3
:1020B000E70AF1EE10FAF6DD9FED217ADFED217AE5
:1020C000E0EE077AF5EEC07AF1EE10FAEBD49FED70
:1020D0001E7AF4EEC77AF1EE10FA7FF778AFF021AE
:1020E0007BE7DFED157AB4EEE70AF1EE10FA05DCD6
:1020F000002352E700222CE7FF216EE79FED137AC1
:10210000DFED137AE0EE077AF5EEC07AF1EE10FA21
:102110007FF536AFECE700BF3F5B2C3D38A2B7C27E
:1021200000007F4300208C4454EF683E0060084567
:10213000821B76BEE71A034400C8004600780F46AB
:102140005538963EC45F28C500007043C4E48ABE7B
:10215000CAAD1B452DE9F0472DED028B4FF47A797E
:1021600099FBF1F909F1010982B08A46B0EE408A83
:10217000364DDFF8E080DFED368A07465FFA89F9F1
:10218000002440F2E7362DE094FBF9F080B200EB3A
:10219000400007EB8000D0ED006AD0ED017A90EDB1
:1021A000027A68EE266A68EE277AFCEEE66AFCEEB2
:1021B000E77A16EE903A17EE902A68EE077A1B023D
:1021C000D200FCEEE77A02F4FC6203F47843134396
:1021D00017EE902A0134C2F3C4021343B44225F827
:1021E000023F2ED0B8F80030642BCDD007EE903AE5
:1021F000F8EEE77A87EEA87A17EE100A1EF044F997
:1022000007EE904AF8EEE77ACDE9000187EEA87A6A
:1022100017EE100A1EF038F99DED001B41EC100B73
:102220001BF0BEFD53EC102B5046CDE900231EF0F1
:1022300019F9DDE900231EF07BF91EF051FC80B294
:10224000A5E702B0BDEC028BBDE8F0873AF10020B3
:1022500000007A446E2CFF1F2DE9F0412DED048B18
:10226000CD4B092282B01A70002840F08180CB4B00
:10227000CB4ACC4FCC4DDFF84883DFEDCC8A9FEDC5
:10228000CC8A9FEDCC9A1A60064604463DE007EEE4
:10229000906AB8EEE77AF0EE086AC7EE267AF4EEB6
:1022A000C87AF1EE10FA61DCFCEEE77A17EE902ABC
:1022B000120202F4784211B2F2EE046AC7EE267AF4
:1022C000F4EEC87AF1EE10FA4DDCFCEEE77A17EE88
:1022D000902AD20002F4FC62C7EE097A0A43013464
:1022E0000A36F4EEC87AF1EE10FAD7BFFCEEE77AC0
:1022F0001F2317EE903AC3F3C403134340F2E732AF
:10230000944227F8023F00F077812B88B3F57A7F5B
:10231000BDD007EE903AF8EEE77AA8F8003087EEE5
:10232000A87A17EE100A1EF0AFF807EE904AF8EE02
:10233000E77ACDE9000187EEA87A17EE100A1EF0C1
:10234000A3F89DED001B41EC100B1BF029FD90A3A1
:10235000D3E9002351EC100B1EF0EAF81EF0E0FB6D
:1023600007EE100A97E74FF4FC62B5E79249A3E73E
:10237000012868D1894B914A8A4F8B4D9FED8B8AFA
:10238000DFED8B8A1A60002634462EE007EE906A55
:10239000F8EEE77AB5EE007A67EE877AF4EEE87A3F
:1023A000F1EE10FA00F39B80FCEEE77ACDED007AB7
:1023B0009DF800104FEA012300F395804FEAC10217
:1023C00003F4784302F4FC6243EA02031BB200F315
:1023D0009180CA081343013440F2E732944227F84F
:1023E000023F06F10A0600F007812B88B3F57A7FD9
:1023F000CCD007EE903AF8EEE77A714A87EE887A09
:10240000138017EE100A1EF03FF807EE904AF8EE20
:10241000E77ACDE9000187EE887A17EE100A1EF000
:1024200033F89DED001B41EC100B1BF0B9FC58A3D9
:10243000D3E9002351EC100B1EF07AF81EF070FB6C
:1024400007EE900AA6E7022856D1544B5D4A554F35
:10245000554DDFF86C819FED558A1A600026344691
:102460000FE007EE906AB8EEE70AFFF757FD013478
:1024700040F2E7339C4206F10A0627F8020F00F00B
:10248000BB802B88B3F57A7FEBD007EE903AF8EE5D
:10249000E77AA8F8003087EE887A17EE100A1DF068
:1024A000F3FF07EE904AF8EEE77ACDE9000187EEF8
:1024B000887A17EE100A1DF0E7FF9DED001B41EC36
:1024C000100B1BF06DFC32A3D3E9002351EC100B71
:1024D0001EF02EF81EF024FB00EE100AC5E76FF088
:1024E0001F031F2276E703F4784343F4FC631BB217
:1024F0001F226FE71F226DE7032867D1274B324A5F
:10250000284F294DDFF8B8809FED288A1A600026F1
:1025100034460EE007EE906AB8EEE70AFFF7A6FC35
:10252000013440F2E7339C4206F10A0627F8020F15
:1025300062D02B88B3F57A7FECD007EE903AF8EEB4
:10254000E77AA8F8003087EE887A17EE100A1DF0B7
:102550009BFF07EE904AF8EEE77ACDE9000187EE9F
:10256000887A17EE100A1DF08FFF9DED001B41ECDD
:10257000100B1BF015FC06A3D3E9002351EC100B44
:102580001DF0D6FF1EF0CCFA00EE100AC6E700BF21
:10259000000000000088C340BCD90020083FFF1F96
:1025A000205802003AF10020EA2CFF1F00007A4474
:1025B00000007F430000204200F8FFFF285802007F
:1025C0006E2CFF1F345802003C580200042818D11A
:1025D0004D4B4E491A884E484E4B08604FF4487197
:1025E0001980B2F57A7F9FED4C0A4C4818BF1A80CB
:1025F0004FF48071FFF7AEFD02B0BDEC048BBDE877
:10260000F081052818D1404B40491A884448414B75
:1026100008609FED410A434840F24C411980B2F5F1
:102620007A7F4FF4807118BF1A8002B0BDEC048B22
:10263000BDE8F041FFF78EBD062818D1324B334973
:102640001A883948334B08609FED330A37484FF4F6
:1026500061711980B2F57A7F4FF4807118BF1A80CA
:1026600002B0BDEC048BBDE8F041FFF773BD072855
:1026700018D1254B25491A882D48264B08609FED17
:10268000260A2C4840F24C411980B2F57A7F4FF46B
:10269000807118BF1A8002B0BDEC048BBDE8F04118
:1026A000FFF758BD082816D1174B184A1B88224936
:1026B0001160B3F57A7F18BF164A204818BF1380FF
:1026C000B7EE000A4FF4807102B0BDEC048BBDE898
:1026D000F041FFF73FBD09288ED10B4B0B4A1B88F9
:1026E00017491160B3F57A7F18BF0A4A154818BF19
:1026F0001380B7EE000A4FF4807102B0BDEC048B7A
:10270000BDE8F041FFF726BDEA2CFF1F083FFF1F81
:10271000445802006E2CFF1F00007F43B86E020079
:102720004C580200B86202005858020098C00300DA
:1027300060580200A87B020068580200C0B3030082
:1027400074580200A8870200002310B4114C417293
:10275000026104600372C36041B1194600E002697E
:1027600042F82310427A01339A42F8DC0A4B1A6885
:102770000AB90CE01A465369002BFBD150610023C3
:1027800043618380C38083725DF8044B7047186097
:10279000F5E700BF00560200BC9A0120334BDFED85
:1027A000346A93ED006A9FED337AC6EE865A07EEDF
:1027B000900AF8EEE77A67EEA57AF4EEC77AF1EEC2
:1027C00010FA2ADC2C4A2D4BC2ED007AF5EEC07AC5
:1027D0000122F1EE10FA1A603CD49FED297AF4EE52
:1027E000C77AF1EE10FA2CDD264B2749274AD1EDA6
:1027F000007AD361F5EEC07AF1EE10FA2CD4B7EE80
:10280000007AF4EEC77AF1EE10FA27DD4FF4803348
:102810001F49136201230B607047C6EE265A164B00
:102820001C48164A0121F2EE027AE5EE877A83ED22
:10283000007AFDEEE77A17EE903AF0EE477A036001
:1028400011609FED157A67EE877AFCEEE77A17EE56
:10285000903ACAE70023C8E70023D9E7B0EE677AC9
:10286000BEEEC87A17EE103AD2E700BF20DB002098
:10287000A6552C4700E0AB46342CFF1F88E100E052
:10288000A655AC4680FFFF7F7C2CFF1F4443FF1FF3
:1028900008E100E0242CFF1F4B24BE4738B52A4A2C
:1028A0002A4B127893ED007ADFED296A294C07EE66
:1028B000902AF8EEE77A4FF4FA7267EE877A216889
:1028C00087EEA67A40F6B830FDEEC77A17EE903A5A
:1028D00002FB03F303F57A73C91A0029B8BF494212
:1028E00081420FDD1C4941F65732934291ED007A47
:1028F00009DC41F658300346184D2B60FFF74EFFB8
:102900002B68236038BD9FED166ADFED166AC7EEAF
:10291000067A4FF47A706422FDEEE77A17EE901A89
:10292000013900FB01F18B42A8BF0B4602FB03F209
:1029300007EE902AB8EEE77AC7EE267AFDEEE77A40
:1029400017EE900AD8E700BFC1030120EC2CFF1F4F
:102950000000FA434CED002020DB0020242CFF1F58
:102960000000FA440000C8422DE9F04F2DED028B23
:10297000674B1A780A2A89B03DD8664C664B00220C
:10298000D4E900011DF0D4FD1EF082F80022624B54
:102990000390D4E902011DF0CBFD1EF079F800226E
:1029A0005D4B0490D4E904011DF0C2FD1EF070F8E7
:1029B0000022594B0590D4E906011DF0B9FD1EF027
:1029C00067F8554B06900022D4E908011DF0B0FDD0
:1029D0001EF05EF803AA0790002150480EF0F4FDA7
:1029E0004F4B00214FF48032D9619A6109B0BDECA0
:1029F000028BBDE8F08F4B4B9FED4B6AD3ED007A15
:102A00009FED4A7AC6EE276A4FF47A7303FB02F30E
:102A100007EE903AF8EEE77A67EEA67A67EE877AE5
:102A200017EE900A1DF030FD41EC100B41EC180B35
:102A30001BF056F934A3D3E9002351EC100B1DF021
:102A4000A1FEB0EE480AF0EE680ACDE900011BF0E5
:102A5000E7F8DDE900010022354B5BEC10AB1DF01F
:102A6000B5FB02460B4600202B491DF08BFE0022D1
:102A700004460D462E4B504659461DF0A7FB00223A
:102A80002C4B804689461DF053FD22462B461DF0F7
:102A90004FFD1DF0FDFF224606462B46404609F13C
:102AA000004103961DF044FD1DF0F2FF002204904A
:102AB0004FF040435046594605961DF039FD2246D9
:102AC0002B461DF035FD1DF0E3FFDDE900230690E8
:102AD000174900201DF078FB2B4622461DF028FDEB
:102AE0001DF0D6FF03AA079000210C480EF06CFDE4
:102AF0000B4B00214FF480329961DA6109B0BDECD3
:102B0000028BBDE8F08F00BF000000606666F63FF4
:102B1000E82CFF1F882CFF1F0000D041DCD90020CB
:102B2000443FFF1F20DB0020A6552C474656153991
:102B30000000F03F0000E03F40002D4BDFED2D5A3C
:102B400001FB0001B3FBF1F107EE901A2A4BF8EEFE
:102B5000E77A1B68012330B587EE805A0A461D4686
:102B60001C46F6EE004A08E017EE905AF0EE475A7F
:102B70001C460133B3F5807F37D007EE903AF8EE6C
:102B8000E77A07EE102A67EE857AB8EE476AF5EE27
:102B9000C07AF1EE10FAACBF77EEA47A77EEE47A61
:102BA0000A44FDEEE77AF8EE676A17EE900A86EEC1
:102BB000267A30EE477AB0EEC77AB4EEE57AF1EED7
:102BC00010FAD6D5B0F5805F17EE90EAD1D2B5EE07
:102BD000407AF1EE10FAC7D1013B1B03013803F430
:102BE0007F23C0F30B00184330BD28462346F3E78C
:102BF0000095BA0A8096184B00F102400F4B104A1C
:102C00001B6810491268096810B5C2F30340C3F38A
:102C10000444C3F30463013304FB0000C9B2184445
:102C2000FFF78AFF014638B1074A1368002BFCDB27
:102C3000064B0120196010BD10BD00BF14F002400A
:102C400010F0024008F0024000F1024004F102409E
:102C5000DFED407A404B9FED416A4149414A42488D
:102C60000978B4EEE70AF1EE10FAC4BFF3EE057A84
:102C700080EE270A10B51B7807EE103ADFED3B7A9D
:102C80003B4B80ED000AB8EEC77A60EE277A27EE5C
:102C9000067AC3ED007AC7EE276ABDEEE67A17EE34
:102CA000103A137071B1334B1B7807EE103AB8EE3F
:102CB000C77A27EE067AC7EE276ABDEEE67A17EEE8
:102CC000103A1370F6EE006A60EE266A2A492B4C21
:102CD0002B4A86EEA77A0120FDEEC77A17EE903ACE
:102CE000237008601368190429D4264B1B68BBB9EC
:102CF000234B1B681B0427D4C82018F047FD224B28
:102D00001868FFF74BFD2149214A01230B6014206D
:102D100082F8203718F03AFDBDE81040FFF724BED6
:102D2000174A12681204E7D51A4AA2FB0323DB08EC
:102D300000EE103AB8EEC00AFFF760FFDCE7FFF7DD
:102D40005DFF0028D8D1D0E79FED130AFFF756FFAB
:102D5000D2E700BF005898486C2CFF1F00007A444F
:102D60000CED00205CD9002020DB00200000003B9F
:102D7000EC2CFF1F822CFF1F88E100E006DB002007
:102D80003C80044084080120242CFF1F08E100E05F
:102D90001CF90020CDCCCCCC0000964670B5374B4A
:102DA000374D1B789FED377ADFED375A374A384E6B
:102DB0001178384A0401281906EE903AD0ED027ACB
:102DC000354BF8EE677AF8EEE66A27EE877A66EE1C
:102DD000A56A83ED007A86EE876AC6ED007AFDEE7D
:102DE000C66A16EE903A137071B12C4B1B7806EE42
:102DF000903AF8EEE66A66EEA56A86EE876AFDEE20
:102E0000C66A16EE903A1370F6EE006A67EEA67A7E
:102E10002B19C7EE876A5A68214E22480421FDEE1D
:102E2000E67A17EE903A33701EF078FE1E4B1F4A7A
:102E3000012119601368002BFCDB2C441C49A2897A
:102E4000E389013A1203013B02F47F22C3F30B032F
:102E500013430B60C82018F099FC164B1868FFF755
:102E60009DFC1549154A01230B60142082F8203778
:102E700018F08CFCBDE87040FFF776BD6C2CFF1F8E
:102E8000B87A02000000003B00007A440CED0020FC
:102E900020DB00205CD90020EC2CFF1F822CFF1FC0
:102EA00006DB0020E42CFF1F88E100E000F1024077
:102EB00004F10240242CFF1F08E100E01CF900206F
:102EC00007EE900A9FED0C6ADFED0C6A0C4B0D4883
:102ED000B8EEE77ADFED0C7A27EE067A10B5E7EE6A
:102EE000267A01241C60FCEEE77A17EE901A0EF0A9
:102EF0006BFA064B1C6010BD0AD7233C000001434F
:102F000088E100E0D48D0120EE7CFF3E08E100E086
:102F100070B5144E3468012C054614D094B9124B88
:102F2000124801221A6021460EF0D8F8002DB8BFD1
:102F30000335C5F3870211460C480EF005F90C4B1A
:102F400001221A6070BD084B08481C60002211461F
:102F50000EF0FAF8294605480EF0C0F8044B1C6044
:102F60003468DBE7582CFF1F88E100E0D48D012096
:102F700008E100E010B4036841681A780C78417ADF
:102F8000037A0C4202EA03021BD0837A03F00303A4
:102F90000AB143F0040343F008039A10013B827224
:102FA0000D2B0BD8DFE803F021071B070A152121A1
:102FB000150A071B0721C368013BC3605DF8044B7A
:102FC0007047837A03F00303002AE6D043F004033A
:102FD000E3E7C3685DF8044B023BC3607047C36816
:102FE0005DF8044B0233C3607047C3685DF8044B5F
:102FF0000133C360704700BF08B5034BD3F8AC0082
:10300000FFF7B8FF08BD00BFF894012008B5034BD7
:10301000D3F8A800FFF7AEFF08BD00BFF894012069
:1030200008B5034BD3F8A400FFF7A4FF08BD00BF09
:10303000F894012008B5034BD3F8A000FFF79AFFDE
:1030400008BD00BFF894012008B5034BD3F89C00DD
:10305000FFF790FF08BD00BFF894012008B5034BAF
:10306000D3F89800FFF786FF08BD00BFF894012051
:1030700008B5034BD3F89400FFF77CFF08BD00BFF1
:10308000F894012008B5034BD3F89000FFF772FFC6
:1030900008BD00BFF894012008B5034BD3F88C009D
:1030A000FFF768FF08BD00BFF894012008B5034B87
:1030B000D3F88800FFF75EFF08BD00BFF894012039
:1030C00008B5034BD3F88400FFF754FF08BD00BFD9
:1030D000F894012008B5034BD3F88000FFF74AFFAE
:1030E00008BD00BFF894012008B5024BD86FFFF768
:1030F00041FF08BDF894012008B5024B986FFFF717
:1031000039FF08BDF894012008B5024B586FFFF74E
:1031100031FF08BDF894012008B5024B186FFFF786
:1031200029FF08BDF894012008B5024BD86EFFF7BF
:1031300021FF08BDF894012008B5024B986EFFF7F7
:1031400019FF08BDF894012008B5024B586EFFF72F
:1031500011FF08BDF894012008B5024B186EFFF767
:1031600009FF08BDF894012008B5024BD86DFFF7A0
:1031700001FF08BDF894012008B5024B986DFFF7D8
:10318000F9FE08BDF894012008B5024B586DFFF711
:10319000F1FE08BDF894012008B5024B186DFFF749
:1031A000E9FE08BDF894012008B5024BD86CFFF782
:1031B000E1FE08BDF894012008B5024B986CFFF7BA
:1031C000D9FE08BDF894012008B5024B586CFFF7F2
:1031D000D1FE08BDF894012008B5024B186CFFF72A
:1031E000C9FE08BDF894012008B5024BD86BFFF763
:1031F000C1FE08BDF894012008B5024B986BFFF79B
:10320000B9FE08BDF894012008B50B463B2800F232
:10321000C682DFE810F0BB02B202A902A002970248
:103220008E0285027C0273026A02610258024F021A
:1032300046023D0234022B0222021902100207024A
:10324000AE01A5019C0193018A01810178016F0102
:1032500066015D0154014A01400136012C01220141
:1032600018010E010401FA00F000E600DC00D200B3
:10327000C800BE00B400AA00A00096008C00820026
:1032800078006E0064005A00500046003C00BD4AC1
:10329000BD49C2F8EC303B20042217F0F5FF0120B5
:1032A00008BDB84AB949C2F8E8303A20042217F0FC
:1032B000EBFF012008BDB34AB549C2F8E43039201C
:1032C000042217F0E1FF012008BDAE4AB149C2F85F
:1032D000E0303820042217F0D7FF012008BDA94AAA
:1032E000AD49C2F8DC303720042217F0CDFF0120B1
:1032F00008BDA44AA949C2F8D8303620042217F0E4
:10330000C3FF012008BD9F4AA549C2F8D43035202B
:10331000042217F0B9FF012008BD9A4AA149C2F85A
:10332000D0303420042217F0AFFF012008BD954AA9
:103330009D49C2F8CC303320042217F0A5FF0120AC
:1033400008BD904A9949C2F8C8303220042217F0CB
:103350009BFF012008BD8B4A9549C2F8C43031203B
:10336000042217F091FF012008BD864A9149C2F856
:10337000C0303020042217F087FF012008BD814AA9
:103380008D49C2F8BC302F20042217F07DFF0120A8
:1033900008BD7C4A8949C2F8B8302E20042217F0B3
:1033A00073FF012008BD774A8549C2F8B4302D204B
:1033B000042217F069FF012008BD724A8149C2F852
:1033C000B0302C20042217F05FFF012008BD6D4AA9
:1033D0007D49C2F8AC302B20042217F055FF0120A4
:1033E00008BD684A7949C2F8A8302A20042217F09B
:1033F0004BFF012008BD634A7549C2F8A43029205B
:10340000042217F041FF012008BD5E4A7149C2F84D
:10341000A0302820042217F037FF012008BD594AA8
:103420006D49C2F89C302720042217F02DFF01209F
:1034300008BD544A6949C2F898302620042217F082
:1034400023FF012008BD4F4A6549C2F8943025206A
:10345000042217F019FF012008BD4A4A6149C2F849
:1034600090302420042217F00FFF012008BD454AA8
:103470005D49C2F88C302320042217F005FF01209B
:1034800008BD404A5949C2F888302220042217F06A
:10349000FBFE012008BD3B4A5549C2F8843021207B
:1034A000042217F0F1FE012008BD364A5149C2F846
:1034B00080302020042217F0E7FE012008BD314AA9
:1034C0004D49D3671F20042217F0DEFE012008BDFE
:1034D0002C4A4A4993671E20042217F0D5FE01208A
:1034E00008BD284A464953671D20042217F0CCFE28
:1034F000012008BD234A434913671C20042217F00A
:10350000C3FE012008BD1F4A3F49D3661B20042289
:1035100017F0BAFE012008BD1A4A3C4993661A20EA
:10352000042217F0B1FE012008BD164A384953663F
:103530001920042217F0A8FE012008BD114A3549C0
:1035400013661820042217F09FFE012008BD0D4AC3
:103550003149D3651720042217F096FE012008BDDB
:10356000084A2E4993651620042217F08DFE01208B
:1035700008BD044A2A4953651520042217F084FE29
:10358000012008BDF894012031140000A5130000AB
:10359000191300008D1200000112000075110000C7
:1035A000E91000005D100000D10F0000450F000081
:1035B000B90E00002D0E0000A10D0000150D000039
:1035C000890C0000FD0B0000F92F00000D300000F9
:1035D0002130000035300000493000005D3000002F
:1035E000713000008530000099300000AD300000DF
:1035F000C1300000D5300000E9300000F930000093
:103600000931000019310000293100003931000072
:103610004931000059310000693100007931000062
:10362000893100005F4A604913651420042217F0B5
:103630002BFE012008BD5B4A5C49D36413200422A1
:1036400017F022FE012008BD564A59499364122002
:10365000042217F019FE012008BD524A554953644F
:103660001120042217F010FE012008BD4D4A5249D6
:1036700013641020042217F007FE012008BD494AF8
:103680004E49D3630F20042217F0FEFD012008BD30
:10369000444A4B4993630E20042217F0F5FD0120A4
:1036A00008BD404A474953630D20042217F0ECFD42
:1036B000012008BD3B4A444913630C20042217F043
:1036C000E3FD012008BD374A4049D3620B200422A4
:1036D00017F0DAFD012008BD324A3D4993620A2005
:1036E000042217F0D1FD012008BD2E4A394953624A
:1036F0000920042217F0C8FD012008BD294A3649D7
:1037000013620820042217F0BFFD012008BD254ADE
:103710003249D3610720042217F0B6FD012008BD0D
:10372000204A2F4993610620042217F0ADFD0120A5
:1037300008BD1C4A2B4953610520042217F0A4FD43
:10374000012008BD174A284913610422104617F0CA
:103750009BFD012008BD134A2449D36003200422A5
:1037600017F092FD012008BD0E4A21499360022006
:10377000042217F089FD012008BD0A4A1D49536043
:103780000120042217F080FD012008BD054A1A49D6
:1037900013600020042217F077FD012008BD0020EF
:1037A00008BD00BFF894012099310000A931000044
:1037B000B9310000C9310000D9310000E931000001
:1037C000F9310000D91B00004D1B0000C11A000098
:1037D000351A0000A91900001D19000091180000F9
:1037E0000518000079170000ED16000061160000B2
:1037F000D515000049150000BD140000F8B50446B9
:1038000015460E460846022117F096FF284602216B
:1038100017F092FF164A174B52F83610012001F5A7
:1038200000772760207252F83520607202F5007729
:1038300000206760E060013BFDD191F8003292F812
:10384000002203F00103D20744BF43F00203DBB2BE
:10385000A37221463046FFF7D7FC21462074284644
:10386000FFF7D2FC237C184420742046F8BD00BF2B
:103870005C030400C0D40100F0B536483649067830
:10388000364CDFF808E1364D364A374F374B03C91F
:1038900020609EE80300A06095E80300E06007CA8E
:1038A00004F1140503C597E8030025F8022B120C58
:1038B0008BB02A701021F8220A2E93F90030606232
:1038C0004FF0D40562602161294AA5624FF02801BA
:1038D000684608BF00261EF021F96946054604F136
:1038E0002C001EF0DBFA3346224A282168461EF0DF
:1038F00015F92C350646694660191EF0CFFA1E4BA5
:103900001B783544EBB11D4B1D4A1B7828216846B6
:103910001EF004F96946064660191EF0BFFA194BFD
:10392000194A1B7803EB830303EB830328216846C2
:103930001EF0F4F835446946064660191EF0AEFAEA
:1039400035442023ADF80030BDF800300348635300
:103950000BB0F0BDE82CFF1F805802002C8E012018
:103960009058020098580200A4580200108E0120BE
:10397000AC580200B85802000CED0020822CFF1F4A
:10398000C8580200B12CFF1FD85802008858020006
:103990003C4B93E80300F0B53B4D3C4E28600FCE06
:1039A0008BB06C460FC4D6F800E0C4F800E06E4659
:1039B0000FCE374F05F108060FC60FCFC6F800E04F
:1039C0004FF4FC7C3F68C5F804C06E460FC66946DC
:1039D000277005F11B001EF061FA2E4B2E4A684637
:1039E00028211EF09BF86946044605F12B001EF0C5
:1039F00055FA2A4B2A4A93F90030684628211EF0CE
:103A00008DF82B340646694628191EF047FA254BD7
:103A1000254A1B780A2B08BF0023684628211EF080
:103A20007DF834446946064628191EF037FA1F4AC5
:103A30001F4B11681F4A03EB011368469B6828213E
:103A40001EF06CF834440346694628191C441EF0E5
:103A500025FA194B194A684628211EF05FF8694675
:103A6000064628191EF01AFA154B164A68462821F0
:103A70001EF054F83019694628441EF00FFA284603
:103A80000BB0F0BDE8580200F80A0120F05802001F
:103A9000045902001859020030590200108E01200A
:103AA00048590200E82CFF1F58590200602CFF1FE4
:103AB000B87A02006C5902006853FF1F8059020057
:103AC0000C53FF1F9C5902001A4A1B491B4BF0B5AF
:103AD000D2F800E01A4F1B4E1B4D1C4C024603C986
:103AE000186097E80300986096E80300D86095E8AE
:103AF00003001749586204EB0E1403C9A468C3F805
:103B0000A400AC3A22F0010000F5697E10210122E8
:103B1000670002267825C3F8A800C3F804E09C617A
:103B2000DF611E849D62196159849A82DA82184687
:103B3000F0BD00BF602CFF1FB05902000803012038
:103B4000B8590200C0590200C8590200B87A0200F0
:103B5000D059020038B501230D4C0E4D0E492B7083
:103B60001A46002010F084FD20464FF000010CF0B2
:103B700055FB204644F8044C0BF0F0FE00B138BD74
:103B800054F8041CA4F59260BDE838400BF01ABA52
:103B900080940120000D0120D8590200F8B5194C7D
:103BA000194E1A4B1A4D31462046012200271F702C
:103BB00010F05EFDE36A6189DFED166AA269164CBA
:103BC0002870023B01FB03F307EE903AF8EE677AA8
:103BD00002FB01F267EEA67A07EE102AFCEEE77A06
:103BE000B8EE477AC4ED007AF8EE677A0B4BE7EE51
:103BF000667A3046FCEEE77AC3ED007A11F00EF9F2
:103C00002870F8BDA8080120D8590200000D012035
:103C1000B853FF1FBD37063AC40301205C3EFF1FA7
:103C200038B5244C24492046012210F021FD234BB5
:103C3000187018BBE36A61899FED216AA269214C63
:103C40002148023B01FB03F307EE903AF8EE677A56
:103C500002FB01F267EE867A07EE102AFCEEE77AA5
:103C6000F8EE476AB8EE677AC4ED007AF0EE477A6C
:103C7000E6EEC67AFCEEE77AC0ED007A134C0E4908
:103C800001220020A4F2944510F0F2FC20464FF0EF
:103C900000010CF0C3FA2046C5F890440BF05EFE1C
:103CA00008B1002038BDD5F89014281D0BF08AF912
:103CB00038BD00BFA8080120D8590200B853FF1F23
:103CC000BD37063AC40301205C3EFF1F80940120EB
:103CD00070B5A2B0664B0093664A674B67485021A7
:103CE0001DF01CFF002302A8644A65490BF0CEF9C1
:103CF000149B002B00F0B280682017F02FFA0446C6
:103D00004FF47A759DF80C00049A9DF814305D49C3
:103D1000A5605D4E207600256161E26106A984F808
:103D20002030266025712573256104F124000BF0F5
:103D300051F82369554A6261013323616566544B2A
:103D4000029306A80BF082F823680095596B0022B5
:103D5000002320468847236820469B6A242202A924
:103D600098479DF821509DF820309DF8222003EBC4
:103D7000052313EB024547D09DF80D609DF80C20FC
:103D80009DF80E309DF80F009FED427A424902EBFC
:103D9000062202EB034303EB0063A3F5697307EE0E
:103DA000903AF8EE677A67EE877A07EE105AF8EEE7
:103DB000C76A87EEA67ABCEEC77A81ED007A3CB37B
:103DC0002368042202A99B6A2046984704223349AB
:103DD00002A81DF0B1FB30B3314B002103F1780292
:103DE00003F8011F9A42FBD15CB1236820461B6C8B
:103DF00098472369013B23611BB9236820461B6A4E
:103E00009847284622B070BD234B1D60002CD7D1A7
:103E100002A8042221491DF08FFB0028DCD1214B90
:103E200001221A700EE01F4A2368012111709B6A5B
:103E3000042202A920469847236802A99B6A782297
:103E400020469847164B0DF1070203F1780012F84F
:103E5000011F03F8011F9842F9D1C5E7159C002CFA
:103E60007FF44AAF0A4B029306A80AF0EFFF78E707
:103E7000FC53FF1FDC59020060D90020FC3DFF1FEE
:103E8000F08F0120DC550200B456020030560200CB
:103E90000C5602000000FA4318F90020C85902002D
:103EA0007BDA0020C8030120F0B5444D296891B0A9
:103EB000064621B10023424A42480AF0DBFF424C49
:103EC00040490023324604F110000BF013F83F493B
:103ED000A06C00230B70002869D050220AF038F93A
:103EE0003B480AF0B3FF37480AF0B0FF296821B118
:103EF0000023364A33480AF0BDFF334F002519E04E
:103F00000AF026F93349684616F0CEFC324904A877
:103F100016F0CAFC04A9684616F0DAFC10B304A82F
:103F200016F082FC684616F07FFC0135ADB22848D9
:103F30000AF08CFF0022234925480BF011F8254B8D
:103F400000265022194648B3BC6C1E702046002C37
:103F5000D6D1FC6C502219462046002CD2D007F056
:103F600043FDCFE71B4908A816F09EFC1B490CA88F
:103F700016F09AFC0CA908A816F0AAFC04460CA896
:103F800016F052FC08A816F04FFC04A816F04CFCE2
:103F9000684616F049FC002CC9D0C6E70C480AF068
:103FA00055FF08480AF052FF284611B0F0BDE06CFA
:103FB000002895D0502207F017FD91E7988F012037
:103FC000E4590200508F01201C3DFF1F603EFF1F7F
:103FD0002C3DFF1FFC53FF1FE8590200F05902005F
:103FE000F0B5574D296891B0064621B10023554AD6
:103FF00055480AF03FFF554C53490023324604F11F
:1040000010000AF077FF5249A06C00230B700028C3
:1040100000F08B8050220AF09BF84E480AF016FF01
:1040200049480AF013FF296821B10023484A46484D
:104030000AF020FF484EB06C10B1002109F0A4FD39
:10404000F06C18B10022002307F088FE434D3F4C6E
:1040500000232B802BE050220AF07AF84049684672
:1040600016F022FC3F4904A816F01EFC04A968467D
:1040700016F02EFC00282DD004A816F0D5FB6846BB
:1040800016F0D2FBB36C2A883349002B46D05B690B
:104090005B09013B9BB2344840F2CE718A4220F862
:1040A00012309CBF01322A802A480AF0CFFE00223B
:1040B000254928480AF054FF40B32949A06C002341
:1040C0000B700028C7D1E06C0028C7D0502207F041
:1040D0008BFCC3E7224908A816F0E6FB23490CA88D
:1040E00016F0E2FB0CA908A816F0F2FB07460CA894
:1040F00016F09AFB08A816F097FB04A816F094FB9C
:10410000684616F091FB002FCED0BBE711480AF0AD
:104110009DFE0D480AF09AFE11B0F0BDCB6C63B164
:104120001B685B09013B9BB2B5E7E06C00283FF4DC
:1041300074AF502207F058FC6FE74FF6FF73AAE701
:10414000988F0120E4590200508F01201C3DFF1F71
:10415000603EFF1F2C3DFF1F408F0120C802012041
:10416000FC53FF1FE85902005CDB0020F0590200FD
:1041700038B5054616480AF069FE164B196821B194
:104180000023154A12480AF075FE144C104900230A
:104190002A4604F110000AF0ADFE1149A06C00237C
:1041A0000B7068B1502209F0D3FF09480AF04EFEA7
:1041B0000C4B1B781BB9FFF78BFD0B4B186038BD00
:1041C000E06C0028F1D0502207F00EFCEDE700BFB4
:1041D000508F0120988F012060D900201C3DFF1FC7
:1041E000FC53FF1FAC8D012084080120F8B5FFF7B8
:1041F000B1FC39480AF02AFE38480AF027FE384B4D
:10420000196821B10023374A34480AF033FE364F8B
:10421000B86C10B1002109F0B7FCF86C18B100229D
:10422000002307F09BFD314E314D002333802C4697
:1042300000222A4928480AF093FE00283AD02D4946
:10424000A06C00230B7008B3502209F081FFAB6C07
:104250002BB31B7813F0700F14BF012300238BB115
:10426000BB6C32882049002B2CD05B695B09013B79
:104270009BB2214840F2CE718A4220F812309CBF96
:104280000132328014480AF0E1FDD1E7E06C0028E9
:10429000F8D0502207F0A8FBAB6C002BD9D1E36C0F
:1042A000002BEFD093F8313013F0500F14BF0123DF
:1042B0000023D4E708480AF0C9FD0848BDE8F840E3
:1042C0000AF0C4BDCB6C23B11B685B09013B9BB2F8
:1042D000CFE74FF6FF73CCE72C3DFF1F508F012037
:1042E000988F0120E4590200408F0120123BFF1FEC
:1042F0001C3DFF1F603EFF1F6843FF1F2DE9F84371
:1043000006460DF04FFE01282CDDDFF86490DFF843
:1043100058800025D8F80000134F05EB40043046C4
:104320000DF072FE09EB042401464FF48072204622
:1043300016F0FEFD013530460DF084FE022DE9D168
:104340003B680133BF2B02D83B60BDE8F8830022F5
:10435000064B3A60064907484FF4C03210F02EFB76
:10436000054B1870BDE8F883B0070120D08D0120FF
:104370005054FF1F60000120B853FF1F70B54C4A16
:104380004C4D0023ADF5856D044680F866331370FF
:104390000CE00DF039FE484B01464FF4807247485F
:1043A00010F00CFB287020460DF04CFE20460DF05E
:1043B000F9FD00282046ECDC404C0023002220467A
:1043C00010F040FD26693046FFF77EFBAC22014627
:1043D0001FA816F0ADFD00220023204610F032FD8C
:1043E0001FA9354BAC22204610F0E8FA2C220023FE
:1043F000204610F027FD324A9FED327A02F5F07028
:104400001346F3EC017AF4EE477AF1EE10FAC8BFE6
:10441000B0EE677A8342F4D1B5EE407AF1EE10FA4D
:104420001CBFF7EE007A87EE877A0DF10301DFED0E
:10443000266AF2EC017A67EE277A824267EEA67A64
:10444000FCEEE77A17EE903A01F8013FF1D101A9AD
:10445000194B1A48782210F0B1FA32460023174857
:1044600010F0F0FCFFF708FA4FF4807201464AA8FA
:1044700016F05EFD4AA9104B10484FF4807210F000
:104480009DFAFFF785FA4FF4007201468AA816F0EC
:104490004FFD8AA9084B09484FF4007210F08EFABC
:1044A000064810F0A9FC28700DF5856D70BD00BFA1
:1044B000AC070120B853FF1FD08D01206000012000
:1044C000143BFF1F00000000000048432DE9F04F9F
:1044D0004B4F87B0FFF762FB3B68002B66D1DFF8DC
:1044E0005081484B484E1868484D494CDFF850B150
:1044F000DFF850A1DFF85091FDF7D4FB3368226854
:104500002968019103F2B27300925021414A424856
:104510001DF004FB336822682968DBF80000019174
:104520000092DAF80010D9F80020049003F2B27378
:10453000039102925021394A39481DF0EFFA384A66
:10454000384850211DF0EAFA33682468DAF8000090
:10455000D9F800102A68DBF80060039003F2B27308
:10456000029101921421304A049600942F481DF0C4
:10457000D5FA294810F04EFE88F8000000B308284C
:1045800035D0002126482A4C10F0ACFD0A2288F8CC
:1045900000002349274810F095F8022888F8000009
:1045A0001AD001233B6007B0BDE8F08F2148DFF847
:1045B000808010F021FC002388F800003B6090E729
:1045C0001D49184B009301240C70134B1B4A1448CF
:1045D00050211DF0A3FAD4E7164810F00DFC09286D
:1045E0002070DED10E4810F0A3FD2070D9E70D4BEE
:1045F0000093124A084B0A4850211DF08FFAC0E779
:10460000040D012000D003407C080120F4EC0020C0
:10461000C0D90020F8590200B4070120085A02004E
:10462000FC53FF1F6853FF1F285A02000C53FF1F43
:10463000B853FF1F60000120A4080120DC590200CC
:10464000143DFF1FBC030120A80701202DE9F047FE
:10465000DFF8B4C1664A9CF8003000251570002BC5
:1046600000F095805F1EFFB2624A634B92F800E053
:10467000DFF89881013707EB470703EB870703F162
:104680000804BEF1000F6BD0197A05EB4506A4F1C2
:10469000080208EB860605F1010921B107CA86E880
:1046A00007005FFA89F50C33BB4204F10C04E8D132
:1046B000524E8CF800503778A7B17D1EEDB201350F
:1046C00005EB4505DFF830C1DFF844E1AD0000231C
:1046D0000CEB030207CA0EEB03040C33AB4284E875
:1046E0000700F5D1464B47493770072408220920B7
:1046F0005C709A700A240522D870DFF818A1DFF8E0
:104700001891DFF81881DFF818C11C701F461D468C
:104710001A71DFF810E10A700020D4B101230026DD
:10472000C2B201E00133DBB2591EC9B288B3012A1B
:1047300039D0022A54D0032A3DD0042843D0A342C2
:10474000F0D3013005282E7008D015F8014F002C49
:10475000E4D10130264605282E70F6D1BDE8F08759
:1047600014F8082CA2F1640101299CD9672A9AD077
:10477000197A05EB4506A4F1080208EB8606002924
:1047800091D007CA013586E80700EDB28BE71D46D8
:104790008EE701EB41010EEB8101097A0029CED0B1
:1047A0000136F6B2CBE701EB41010CEB8101097A4E
:1047B0000029C4D0F4E701EB410109EB8101097A3A
:1047C0000029BCD0ECE701EB41010AEB8101097A39
:1047D00009B10136F6B2A342A4D33E71BDE8F08719
:1047E00001EB410108EB8101097A0029A7D0D7E745
:1047F00010EB0020C4D90020C0BF0300282CFF1FED
:10480000983FFF1F6D2CFF1FF42CFF1F080D012088
:10481000703DFF1F50C00300DCB20300845702004C
:10482000A893020048B3030030B5044B1B6804464C
:1048300097B018460D46FDF735FA01E000D0034069
:10484000FF2C00F22E81DFE814F0BB02D101CF0172
:104850002C01C401C201B901AD012C012C01A2013E
:10486000350181012C012C012C012C012C012C0182
:104870002C012C012C012C012C012C012C012C01D0
:104880002C012C012C012C012C012C012C012C01C0
:104890002C012C012C012C012C012C012C012C01B0
:1048A0002C012C012C012C012C012C012C012C01A0
:1048B0002C012C012C012C012C012C012C012C0190
:1048C0002C012C012C012C012C012C012C012C0180
:1048D0002C012C012C012C012C012C012C012C0170
:1048E0002C012C012C012C012C012C012C012C0160
:1048F0002C012C012C012C012C012C012C012C0150
:104900002C012C012C012C012C012C012C012C013F
:104910002C0179018C01710166012C015E012C01D1
:104920002C012C012C012C012C012C012C012C011F
:104930002C012C012C012C012C012C012C012C010F
:104940002C012C012C012C012C012C012C012C01FF
:104950002C012C012C012C012C012C012C012C01EF
:104960002C012C012C012C012C012C012C012C01DF
:104970002C012C012C013501410107020502D50152
:10498000D3012C012C012C012C012C012C012C0118
:104990002C012C012C012C012C012C012C012C01AF
:1049A0002C012C012C012C012C012C012C012C019F
:1049B0002C012C012C012C012C012C012C012C018F
:1049C0002C012C012C012C012C012C012C012C017F
:1049D0002C012C012C012C012C012C012902090293
:1049E00052012C012C012C012C012C014B01FD0149
:1049F000F501ED01EB01DF012C012C012C012C0153
:104A00002C01D701BE02B3022F012F0100012C019E
:104A10002C012C012C012C012C012C012C012C012E
:104A20002C012C012C012C012C012C012C012C011E
:104A30002C012C012C012C012C012C012C012C010E
:104A40002C012C012C012C018E019E4B196821B1E7
:104A500000239D4A9D480AF00DFA9D4A9D4B1288FD
:104A60009A4933F812209C4800230AF043FA9B49E4
:104A70005023081F02AAFBF77BFE97480AF0E6F9CD
:104A800002A9082296481CF057FD02AB002840F00E
:104A9000A081944A944810211DF040F88B480AF0F8
:104AA000D5F9914817B030BD904A8F4B07CA03C360
:104AB0001A70F6E78E4A11688E4B8F4A8A4803EBCC
:104AC000011314215B681DF029F8EAE78B4B1B7872
:104AD0008B4A854803EB830314211DF01FF8E0E7A0
:104AE000884B814819680C221DF008FBD9E7864BDA
:104AF00093F90030012B00F09181844A7A4B07CA68
:104B000003C31A70CDE7824B824A1B787648142182
:104B10001DF004F8C5E7804B1B78642B00F055812D
:104B2000774A714814211CF0F9FFBAE77B4B744AAD
:104B30001B786D4814211CF0F1FFB2E7784B794ADD
:104B40001B78694814211CF0E9FFAAE7764B1B6823
:104B5000012B40F36C81754A634814211CF0DEFF81
:104B60009FE7734BD0E7734B5F4853F82520142120
:104B70001CF0D4FF042D94D16F4B1B78002B90D1E7
:104B80006E4D594C0FCD0FC42B68238089E76C4ABA
:104B90006C4B1168544853F82130574A14211CF0CB
:104BA000BDFF7EE7684B1B78684A4F4803EB8303E1
:104BB00003EB830314211CF0B1FF72E7644B504AEE
:104BC00093F90030484814211CF0A8FF69E7614BB5
:104BD000F5E7614B1B780A2B40F2F780514A4248B7
:104BE00014211CF09BFF5CE75C4A64E75C4ACFE75A
:104BF0005C4B9CE75C4BD6E75C4B5D4A1B683A48D4
:104C000014211CF08BFF4CE75A4B1B78002B40F013
:104C1000DC80594B344A1B6813801B0C937040E7AF
:104C2000564B84E7564B364A9B682F4814211CF09C
:104C300075FF36E7524B324A5B682B4814211CF053
:104C40006DFF2EE74E4B2E4A1B68274814211CF09F
:104C500065FF26E74B4B72E74B4B38E74B4B4C4C11
:104C60001868FDF71FF894F90030002B00F0C4809D
:104C7000012B00F0DE80022B7FF413AF454B464939
:104C8000464A1B68096812680092019103F2B273E8
:104C9000434A154814211CF041FF02E73C4C94F9AB
:104CA0000030002B00F09B80002B7FF7FAAE3D4ACE
:104CB0003D4B12681B680C48009214213B4A1CF0C3
:104CC0002DFFEEE6988F0120E4590200508F01205D
:104CD0000E3BFF1F6843FF1F2C3DFF1F683DFF1F5A
:104CE00060D90020E45A02004053FF1FF05A02002E
:104CF000602CFF1FB87A0200805A0200812CFF1F2F
:104D0000685A0200083FFF1F5E2CFF1FD05A0200A6
:104D1000D52CFF1F705A0200FC2CFF1F282DFF1FEF
:104D20006C2CFF1F5C5A02002C2CFF1F845A0200BF
:104D30002A2DFF1F0C2DFF1FC4D90020485A020046
:104D4000682CFF1F3C2CFF1FC92CFF1F785A020044
:104D5000642CFF1F292DFF1FE82CFF1FCC2CFF1FE9
:104D6000F82CFF1F802CFF1FB12CFF1FC403012054
:104D7000DC5A020048ED0020C45A02005C2CFF1FE0
:104D8000C48D0120822CFF1FB02CFF1F00D00340D8
:104D900000DB00207C080120F4EC0020C0D90020BA
:104DA000B45A0200BC030120A8070120B85A02002F
:104DB000294B2A4A1B882A4814211CF0AFFE70E6B2
:104DC000284A294BE5E6294B17E7254B284A1A6064
:104DD00067E6284A224810211CF0A0FE5EE6264A1B
:104DE000264B12681B681E4800921421244A1CF0AE
:104DF00095FE94F9003057E7224B2349234A1B685C
:104E0000096812680092019103F2B273204A1448B3
:104E100014211CF083FE94F9003029E71D4A104B41
:104E200092E803000A0C186099809A7139E61A4AD0
:104E3000F5E7144B1449154A1B680968126800927B
:104E4000019103F2B273154A054814211CF066FE65
:104E500094F900300FE700BFC8020120EC5A0200AD
:104E60004053FF1F242DFF1F2C2DFF1F5C3EFF1FF3
:104E70004F464600805A0200BC030120A8070120CB
:104E8000A85A02007C080120F4EC0020C0D90020C0
:104E9000945A0200C85A02008C5A0200A45A020016
:104EA00070B582B070B9514A1378194449B20029DB
:104EB0002DDB5A29A8BF5A2108461170FEF700F8C9
:104EC00002B070BD032811D1494B1B78012BF7D0DC
:104ED000484A136819440E29A8BF0E2121EAE1713E
:104EE00008461160FDF75AFF02B070BD012812D1CB
:104EF000414A1378194449B200290ADB3F29A8BF67
:104F00003F2108461170FEF703F802B070BD01465C
:104F1000D2E70021F5E704280CD1384A13680133A1
:104F2000022B05DC002BB8BF0223136002B070BD5A
:104F30000023FAE702283CD1314B1B68002BBFD17C
:104F4000304C314D23680093009B2A689B1AB3F5BF
:104F5000FA7F44D2F92B45D8642B41F2883328BF1D
:104F60004FF4FA63294A2A4E106896ED007A03FB43
:104F7000010141F6573399422EDDDFED266AC7EE77
:104F8000267A4FF47A70FDEEE77A17EE903A013BFD
:104F900000FB03F39942A8BF19461F4B1160084656
:104FA0001960FDF7FBFB23680193019B2B6002B0A6
:104FB00070BD052884D1194A137803EB4101C9B2A9
:104FC000092907D93229A8BF32211170FDF7CCFC7D
:104FD00002B070BD0A21F8E741F65831DDE74FF421
:104FE000FA73BFE74FF47A73BCE700BFB03EFF1F10
:104FF0005A000120CC2CFF1F108E0120302CFF1FE7
:10500000782CFF1F609B012018080120242CFF1F13
:1050100020DB00200000FA444CED0020E82CFF1FAC
:10502000692870B505460C463AD007282DD0672868
:1050300040F0AC80AC4A13780B44642B51DD322332
:105040001370AA4B00224FF4803159629A611A62A0
:10505000DA61A74B1B78002B75D0E12D73D1A54BDE
:10506000A5491A880B88013A1C44A242C0F2A680C6
:10507000002CBABF92B21446A2B2A04B0A8033F8F9
:105080001400BDE87040FEF7ABBF9D4A13780B4497
:10509000C82B23DC002BC0F29480DBB213700EE02F
:1050A00098490B782344102B16DC032B40F38180A6
:1050B000DBB2954A0B70002082F8283050629B2D9D
:1050C00040F08580914A137823441E2B17DC002B77
:1050D0007ADDDBB21370BCE70423EAE70023137028
:1050E000EDE7312B67DD642B1370AAD17F4B0022D3
:1050F0004FF48031D9619A615A621A62A9E701239B
:105100001370A6E7D52D40F08081814A814E137837
:10511000A6FB0336B60806EB860604EB840151FABB
:1051200086F6FF2E00F36B81002EC0F26B81F3B286
:105130000820137016F0DCFA3146112016F038F909
:105140006B4B1B780BBBD12D12D1734A734913786B
:1051500008781C44A04227DB002C00DBE0B2107072
:105160006F4B4FF47A72BDE870401A80FDF774B847
:10517000CB2D0AD16B4A6C4892F900306B49037011
:105180005B425BB213700B7070BD70BD662838D186
:10519000674A1178052313FB0413C82B06DC0E2B7A
:1051A00097DCC823137054E70020D8E70F2313704F
:1051B0004FE710237DE76423137097E7002422460E
:1051C0005BE7C82313707AE71E23137041E7962D1F
:1051D0000BD1584A136823440E2B04DC042BD8BF90
:1051E0000E23136035E70523FBE79A2D40F0F4808A
:1051F000514A13782344C82B81DC002B3FF769AF59
:10520000CFE764281DD14D4A137803EB4103232BCC
:1052100047DC002B4FDB07EE903A9FED497AF8EE22
:10522000E77ADBB227EE877A46484749D0ED006A35
:105230001370C7EE267AFDEEE77A17EE903A0B7000
:1052400007E765280CD1414A137823441E2B2CDC38
:10525000042B2EDDDBB22C49137081F82930F8E6DF
:10526000022D0CD13A4A136823440E2BA8BF0E23FB
:1052700023EAE37318461360FDF790FDE9E6052D78
:105280001DD1344A137823445BB2002B0FDB3F2B34
:10529000A8BF3F233049137018460B70FDF738FE46
:1052A000D7E69FED2E7A0023BEE70523D3E7002340
:1052B000F0E71E23CFE79FED2A7A2323B4E7062DDC
:1052C00054D1284A137823445BB2002B09DB5A2BB4
:1052D000A8BF5A232449137018460B70FDF7F0FD40
:1052E000B7E60023F6E700BFFC2CFF1F24DB0020FD
:1052F000C4D90020123BFF1F0E3BFF1F6843FF1F56
:10530000C92CFF1FD52CFF1FB43EFF1F802CFF1F91
:105310005C2CFF1FCDCCCCCCB1020120BCD900202D
:10532000EA2CFF1F5E2CFF1F4C54FF1F4D54FF1F24
:10533000282DFF1F602CFF1FB12CFF1F6C2CFF1F9F
:1053400000007A44EC2CFF1F5CD900202A2DFF1F9F
:10535000CC2CFF1F292DFF1F108E01200000000004
:1053600000B80847642CFF1FB03EFF1F042D0FD16B
:10537000444A137803EB4403DBB2092B06D9322BE2
:10538000A8BF32231370FDF7EFFA62E60A23F9E7AC
:1053900055B93D4A13682344022B03DC002BB8BFE8
:1053A00002231EE72B461CE7012D0AD1374A13685A
:1053B0002344042B03DC002BB8BF042311E7002394
:1053C0000FE70A2D2AD1324A13682344012BF6DC59
:1053D000002BB8BF012304E7992D7FF493AE2D4A2B
:1053E000137803EB4404502C04DC002C05DBE4B2FE
:1053F000147070BD0024147070BD5024F8E70023B1
:105400001E4695E6FF231E4692E6D62D7FF421AE7A
:10541000214A137883F00103137091E60C2D10D10B
:105420001E4A1368012B08BF15232344042B05DDF6
:10543000142B7FF7D6AE012313600AE60523136011
:1054400007E60B2D3FF4C5AE972D0BD1144A137808
:1054500023443C2B3FF753AE002B3FF73AAE3C239F
:105460001370F6E5982D7FF42AAE0E4A1378234484
:105470003C2B03DC002BBFF62CAEF0E700231370AF
:10548000E7E500BFE82CFF1F242DFF1FF82CFF1FAE
:10549000682CFF1F822CFF1F48ED00202C2CFF1FC3
:1054A000812CFF1FB02CFF1F38B5314C237C012B02
:1054B00051D972B6E16862B62E4D2F4895F9002099
:1054C00091FBF2F302FB13122ABB2C4A0360116812
:1054D0008B4245DD2A482B4990F9000008602A4C90
:1054E0001360237C012B21D972B6E16862B695F96D
:1054F000002091FBF2F302FB13122449DAB9244A8B
:105500000B60106883421EDD1D48224990F900009F
:105510000860136038BD194A136803601A4C1360A1
:10552000237C18490020012B0860DDD872B6204684
:10553000FDF720FDD9E7164A13680B601549136083
:105540000020086038BDF9DA1348124990F90000CC
:105550000860136038BD72B62046FDF70BFDA9E761
:10556000DCDA0D48074990F900000860B7E700BF92
:105570000CDB0020382CFF1F50D40020EC8D0120C4
:105580004D54FF1FB0D90020F8EC0020A80D0120D9
:10559000F853FF1FFCDA00204C54FF1F10B50948D8
:1055A000094C0CF055FE09480CF052FE20460CF058
:1055B0004FFE07480CF04CFE20460CF027FE054B32
:1055C000187010BD2C8F0120B48D0120803FFF1F6B
:1055D000203FFF1F5800012008B50221242016F0AB
:1055E000ABF802211D2016F0A7F80221252016F0A5
:1055F000A3F82620022116F09FF86420BDE8084099
:1056000016F0C4B8F0B583B0064614F02DFD074679
:1056100014F080FC0546384614F06EFC1A4B93F9E2
:105620000030CBB944B22644172E20DD1C46EDB223
:105630006946384614F07CFB68468DF801508DF8B9
:10564000024014F093FC15F0A1FE684614F08EFCA5
:1056500014F05AFD03B0F0BD012B0ED16AB29519BA
:105660003B2D08DC002D0DDBEDB2C4B2E0E7002ECF
:1056700006DBF4B2DBE70025F7E7EDB2C4B2D7E70B
:105680001724D4E73B25F0E700DB002070B582B09B
:10569000064614F0E9FC054614F058FC044628467A
:1056A00014F046FC264B93F90030DBB922B23244A9
:1056B00040F2E9739A4221DD3124C6B26946284698
:1056C00014F036FB68468DF805608DF8064014F03E
:1056D0004DFC15F05BFE684614F048FC14F014FD18
:1056E00002B070BD012B0FD141B231440C291DDC39
:1056F000002923DDCEB24E34E4B2DFE740F2E2739C
:105700009A4215DC3724D8E7022B14D114F0ACFCF4
:105710000C4D05FB0605284614F018FC04462846E7
:1057200014F006FC4E34C6B2E4B2C7E71E46E2E708
:105730004E32D4B2C1E74E34E4B2BEE70C26DAE70B
:1057400000DB0020805101002DE9F04F784B93F8E9
:1057500000B0784B8BB01B780293BBF1000F04D0E4
:10576000754B1B78002B00F0D2810298734A744B62
:1057700012781B780AB1734B1B78734DDFF8FC81EC
:10578000DFF8D8A1714E724A9FED726A03EB830372
:1057900003EB830307EE903A2B680024591CF8EEC4
:1057A000E75A234629608AF80040A446A1464146AC
:1057B0004446012736F802EF92ED007A0EF101051A
:1057C00007EE90EA05EB85056D0006EE905AF8EEBF
:1057D000E77A1D1DF8EEE66A77EE277AA842C4ED57
:1057E000046AC2ED007A07F1010E03F1020304F12D
:1057F000080402F104020EDAF4EEE56AF1EE10FAA2
:1058000036EE266A5FFA8EF705DDF0EE665A5FFA2D
:1058100085F94FF0010CEC2BCCD1BCF1000F40F01E
:10582000A081FCEEE57A9AF800204B4BCDED017A91
:105830001446BDF804900392A3F80090474A002C48
:1058400062D007EE907A36EE656AF8EEE77AB0EE4F
:10585000007AC6EE276AC5EEA67AF4EEC77AF1EEB4
:1058600010FA4FD43E4B01221A703E4F3B78DBB208
:10587000752B11DC3C4A01EBC303F6EE006A93ED95
:10588000007AD3ED027A77EE277A083367EEA67AAC
:1058900043ED017A9342F2D1344E3A783378D2B262
:1058A0009A4271DA14B2DFF8D8C09FED317ADFF88E
:1058B000D4E001EB8404B2EE046A0FE0C7EE866A1E
:1058C000FCEEE67ACDED017ABDF8041035783EF8AD
:1058D00011102CF813100132954255DDF4EC017AC9
:1058E0003B78F5EEC07AD31AF1EE10FADBB207D4AA
:1058F000F4EEC77AF1EE10FAE0DD4FF46171E5E7FE
:105900000021E3E700231370154B1B78002B40F0B8
:105910002B81184A1370184B00221A70BBF1000F2C
:1059200003D0044B9DF808201A700BB0BDE8F08F2F
:10593000820801205CD90020C00301200CED00206A
:10594000C92CFF1FB12CFF1F3C8F012036F900200E
:105950001C3BFF1F00000000B8030120C103012011
:1059600004DB0020292CFF1F04F10020D42CFF1F92
:1059700000A00C46E0020120010D012054ED0020A2
:1059800014EB00203CF100207A4B1A88914502D993
:10599000A3F800904A4607EE902A06EE909AF8EE99
:1059A000E77AB5EE007A27EE877AF8EEE66AF4EE4B
:1059B000C76AF1EE10FA79D46F4A11686F4B0591FE
:1059C0001C6805996C4B091B0A292CD919686C4C69
:1059D000069106992468091B042924D8694F39784F
:1059E00009BB1968684C079107992568491BB1F5EF
:1059F0007A7F12D21B680893089B64495B1B07EEF1
:105A0000903A634D91ED007A2B78F8EE677A013386
:105A100077EE877A2B70C1ED007A13680993099BA2
:105A2000236001233B70039B5A4F002483423C7048
:105A30007FF671AF584B594A1B68DFED596ADFF8A2
:105A40008CE10121013B8B421170CEED006A3FF6E3
:105A500065AF49F63F4399453FF660AF337803B3EE
:105A6000504A2546A4462346D2ED007AB8EC017A86
:105A7000317877EE277AF4EEE67AF1EE10FAE2EC7E
:105A8000017A06DD834204DD0124F0EE676AA44654
:105A9000DDB201339942E7DCBCF1000F67D1002C85
:105AA00051D1414A13880133138037E73F490A78BF
:105AB000002A81D1304A324C15680495DFF810C1B4
:105AC0002568049F9CF800E0394C7F1B0125AE45FA
:105AD00027600D703DD9312F3FF66FAF354C3649F9
