:1000000000000320D1010000D1AF010089AF010041
:1000100089AF010089AF010089AF010089AF0100FC
:1000200089AF010089AF010089AF0100D1AF0100A4
:10003000D1AF010089AF01005DA6010061A60100FA
:10004000D1AF0100D1AF0100D1AF0100D1AF0100AC
:10005000D1AF0100D1AF0100D1AF0100D1AF01009C
:10006000D1AF0100D1AF0100D1AF0100D1AF01008C
:10007000D1AF0100D1AF0100D1AF0100D1AF01007C
:10008000D1AF0100D1AF0100D1AF0100D1AF01006C
:10009000D1AF0100D1AF0100D1AF0100D1AF01005C
:1000A000C1D70100CDD70100D1AF0100D1AF010010
:1000B000D1AF0100D1AF0100D1AF0100D1AF01003C
:1000C000D1AF0100D1AF0100D1AF0100D1AF01002C
:1000D000D1AF0100D1AF0100D1AF0100D1AF01001C
:1000E000D1AF0100D1AF0100D1AF0100D1AF01000C
:1000F000D1AF0100D1AF0100D1AF0100D1AF0100FC
:10010000D1AF0100D1AF0100D1AF0100D1AF0100EB
:10011000D1AF010015B70100D1AF0100D1AF01008F
:10012000D1AF0100D1AF0100D1AF0100D1AF0100CB
:10013000D1AF0100D1AF0100D1AF0100D1AF0100BB
:1001400011A40100D1AF0100D1AF0100D1AF010076
:10015000D1AF0100D1AF0100D1AF0100D1AF01009B
:10016000D1AF0100D1AF0100D9D70100D1AF01005B
:10017000D1AF0100D1AF0100D1AF0100D1AF01007B
:10018000D1AF0100D1AF0100D1AF0100D1AF01006B
:10019000D1AF0100D1AF0100D1AF0100D1AF01005B
:1001A000D1AF0100D1AF0100D1AF0100D1AF01004B
:1001B000D1AF0100D1AF0100D1AF0100D1AF01003B
:1001C000D1AF0100D1AF0100D1AF0100D1AF01002B
:1001D0005C4B4CF2205210B51A804DF628121A8052
:1001E00000BF00BF1AF0F8FE574B4FF030621A60A4
:1001F000564A9A60564ADA60564B4FF470021A60BB
:10020000554B564A1A60564B1A78110703D51A787F
:1002100042F008021A70534B5349AA221A70534AEB
:10022000534B8B4204D252F8040F43F8040BF8E707
:10023000504B514900228B4202D243F8042BFAE77B
:100240004E494F4A002352F8230041F8230001335E
:10025000742BF8D14B4B4C4A802103F8011B93427D
:10026000FBD14A4B454A1A60494B8A221A70A3F5C2
:10027000805324225A70A0221A709A799207FCD5D2
:100280009A79D406FCD4434A937903F00C03082BE3
:10029000FAD1414B60221A7002331A78802AFCD1BD
:1002A0003C4B01221A715D225A719A799006FCD555
:1002B0009979384A4906FBD5384B394919600021EC
:1002C000596020231370937903F00C030C2BFAD19F
:1002D000344B354A1A60354A354C136813F4807331
:1002E00003D123604FF4A8531360324B324A1A6093
:1002F00000225A60072243F8042C304AC3F80C2D20
:1003000062B61BF077F82368DA0705D52C481AF097
:10031000CFFF2C4B2C4A1A602C4B1B785B0609D55F
:10032000284C294B22689A4204D125481AF0C0FF74
:100330000023236020F0C4FB1AF054FE1AF082FD63
:10034000FEE700BF0E20054030800440823F0400DD
:100350000100002B88ED00E0002008E0030000858C
:1003600002D0074000E00740E83AFF1F2C000500DC
:10037000302BFF1FF03AFF1FD09C01200026FF1FEB
:100380000000000000E400E064E400E008ED00E0AC
:10039000005006400040064001E007404480044011
:1003A0000000060204800440C010070010D0034083
:1003B00014D0034014E000E01FBF02000000202022
:1003C0009E9FA8601CE00340A5C3945A00F007401C
:1003D000FFFFFFFFFFFFFFFFFFFFFFFFFFFFFFFF2D
:1003E000FFFFFFFFFFFFFFFFFFFFFFFFFFFFFFFF1D
:1003F000FFFFFFFFFFFFFFFFFFFFFFFFFFFFFFFF0D
:10040000FFFFFFFFFFFFFFFFFFFFFFFFDEF9FFFF23
:1004100010B5054C237833B9044B13B10448AFF33E
:1004200000800123237010BDF03AFF1F0000000080
:1004300028000500084B10B51BB108490848AFF368
:1004400000800848036803B910BD074B002BFBD0A0
:10045000BDE81040184700BF00000000F43AFF1F3D
:1004600028000500E83AFF1F000000000020704748
:10047000704700BF4FF0FF30704700BF006910B1F8
:1004800003689B6A18477047006910B10368DB6A0C
:1004900018477047006910B103681B691847704717
:1004A000006910B103689B6918474FF0FF3070472F
:1004B000006910B10368DB6818477047006910B124
:1004C0000168096B0847704710B4006920B10468DF
:1004D000616B5DF8044B08475DF8044B704700BF43
:1004E000006910B103689B6B18470020002170471A
:1004F000006910B10368DB6B1847002000217047CA
:10050000006910B103681B6C18477047006910B18F
:1005100003685B6C18477047006910B103689B6CF7
:1005200018470148704700BF28550200006910B104
:100530000368DB6C1847704738B50B6904462BB16C
:100540001D6819462B6D9847204638BD4FF47A70C8
:10055000064A23712373A06022600B692361002B7C
:10056000F2D01A6901321A61204638BD14520200D5
:10057000006910B103685B6D18477047006980B16E
:1005800000B5036883B09B6A01220DF1070198470B
:1005900020B19DF8070003B05DF804FB4FF0FF3079
:1005A000F9E74FF0FF30704710B582B002AB026838
:1005B00003F8011DD46A19460122A04702B010BDFC
:1005C000C36D0BB101207047006E003018BF0120D1
:1005D000704700BF704700BF10B50446406E18B1A9
:1005E00020F0B8FA0023636604F12400BDE810404F
:1005F0000EF0FABB10B5044B044640F8103B0EF069
:10060000F3FB204610BD00BFCC51020010B50446DC
:1006100002460369054906481AF07EF8206920B1B0
:100620000368BDE810405B6A184710BDA453020080
:100630003C2FFF1F02460369014902481AF06CB8BB
:10064000C05302003C2FFF1F2DE9F041002394B05E
:100650001A460546243104A84FF47A74254F8DF8C4
:1006600004308DF80C3012931393029400970EF01F
:1006700045FC129B002B32D068201AF001FD044685
:100680009DF80460029A9DF80C301B481B492676A1
:100690004FF47A78002620606161E26184F82030AE
:1006A00004F1240004A9267126732661C4F8088089
:1006B0000EF05EFB2369124A6761013366662E7194
:1006C000C5F808802E732C6123612A600D4B0093BE
:1006D00004A80EF089FB284614B0BDE8F081139BF6
:1006E000002BC9D1064A2B71AC602B732B612A6099
:1006F000ECE700BFF0510200745202009C5102006E
:1007000014520200CC5102001AF0CCBD10B50446C0
:1007100019F028FE204610BDC26D62B1137803F0B7
:10072000080303F0FF0003B3D3695069181A48BFE8
:100730006FF000407047016EC1B191F8313003F0A5
:10074000080303F0FF0083B1D1E90423D1E90001DC
:10075000101A30B463EB010100256FF000448D42A4
:1007600008BF844200D2204630BC7047084670471C
:1007700010B4144600222270006828B121461A469F
:100780005DF8044B0DF0B2BC086828B121461A464A
:100790005DF8044B0BF0F6B85DF8044B704700BFF2
:1007A000C36D13B118460DF06FB8006E08B10BF0B1
:1007B0008BBA4FF0FF30704700B5836C83B063B1E4
:1007C000184601220DF107010CF08EFF01280CD113
:1007D0009DF8070003B05DF804FBC06C28B101224E
:1007E0000DF107010BF09CF9F0E74FF0FF30F1E756
:1007F000C36D13B118460DF0EDBA006E08B10BF0E1
:100800003BBF704700B5836C83B08DF8071043B1D0
:10081000184601220DF107010DF01EFB03B05DF833
:1008200004FBC06C0028F9D001220DF107010CF087
:1008300029F903B05DF804FBD0B5C46D8CB1012B70
:1008400008BF002A01D30020D0BD114620460DF07C
:1008500069F90028F7D020460DF0C2FA0028F2D03E
:10086000D0BD046E002CEED020460BF045FA0028D7
:10087000E9D02046BDE8D0400CF092B8C36D13B16A
:10088000D86900217047036E13B118695969704720
:1008900018461946704700BFC36D13B1586900214F
:1008A0007047036E13B193E803007047184619466A
:1008B000704700BFC36D13B118460CF015BF006E32
:1008C00008B10BF02DB94FF0FF307047836C13B1B6
:1008D00018460CF0D9BFC06C08B10BF0F5B94FF059
:1008E000FF307047C36D33B11B7813F0700F14BF26
:1008F000012000207047006E30B190F8313013F0C5
:10090000500F14BF01200020704700BF836C13B14B
:1009100018460DF05FBAC06C08B10BF0ADBE704761
:10092000C36D13B118460DF097BA006E08B10CF004
:10093000A9B87047836C13B118460DF08DBAC06C1E
:1009400008B10CF09FB87047826C62B1137803F065
:10095000080303F0FF0003B3D3695069181A48BFB6
:100960006FF000407047C16CC1B191F8313003F0B5
:10097000080303F0FF0083B1D1E90423D1E90001AA
:10098000101A30B463EB010100256FF000448D4272
:1009900008BF844200D2204630BC704708467047EA
:1009A000C36D9BB11A7812F0700F00D1704710B56B
:1009B0000446002118460DF0B5F8206E28B100223B
:1009C0000023BDE810400BF097B910BD006E002861
:1009D000ECD090F8313013F0500FE7D00022002314
:1009E0000BF08AB9D0B4039C16461F4634B1012CD3
:1009F0001ED0022C0DD00020D0BC7047C46DDCB1DD
:100A0000012B08BF002AF6D220461146D0BC0DF0BB
:100A100089B8C36DB3B1DA69B61847F10007012F81
:100A200008BF002EE7D231461846D0BC0DF07AB888
:100A3000C36D8BB15A69EFE7006E0028DBD0D0BCE4
:100A40000BF05AB9006E0028D5D0D0E904239219D2
:100A50007B41D0BC0BF050B9006E0028CBD0D0E960
:100A6000002392197B41EAE70269084B10B504465E
:100A7000036042B11369013B136123B9006910B1EE
:100A800003681B6A9847204610BD00BF145202003D
:100A9000826A0949094B10B504460160836142B17D
:100AA0001369013B136123B9806A10B103681B6AA3
:100AB0009847204610BD00BF8CFE03001452020070
:100AC00038B5C36D144A0260044600F12405F3B141
:100AD00028460EF089F9606E08B120F03BF80F4B04
:100AE000636128460EF080F922690D4B236042B104
:100AF0001369013B136123B9206910B103681B6AB4
:100B00009847204668211AF0BDFA204638BD036E8A
:100B1000002BDDD1DFE700BF74520200CC51020090
:100B20001452020002690A4B10B50446036042B138
:100B30001369013B136123B9006910B103681B6A93
:100B40009847204614211AF09DFA204610BD00BF98
:100B50001452020038B5C36D124A0260044600F117
:100B60002405D3B128460EF03FF9606E08B11FF09E
:100B7000F1FF0D4B636128460EF036F922690B4BED
:100B8000236042B11369013B136123B9206910B19D
:100B900003681B6A9847204638BD036E002BE1D1DD
:100BA000E3E700BF74520200CC510200145202006D
:100BB00038B5446E0CB1204638BD05464FF4807000
:100BC0001FF0C0FF0146686680B1E86D0C7028B167
:100BD0004FF480720DF08AFA6C6EECE7286E40B12B
:100BE0004FF480720AF0CEFE6C6EE4E7024C6C6645
:100BF000E1E70C46DFE700BF0C3BFF1F214B10B4C1
:100C00001A681368506819780478507A137A044285
:100C100001EA03011BD0937A03F0030309B143F007
:100C2000040343F008039910013B91720D2B0BD87C
:100C3000DFE803F021071B070A152121150A071B0E
:100C40000721D368013BD3605DF8044B7047937A6A
:100C500003F003030029E6D043F00403E3E7D3687D
:100C60005DF8044B023BD3607047D3685DF8044BDA
:100C70000233D3607047D3685DF8044B0133D3600F
:100C8000704700BFF8940120214B10B45A681368D4
:100C9000506819780478507A137A044201EA030103
:100CA0001BD0937A03F0030309B143F0040343F02C
:100CB00008039910013B91720D2B0BD8DFE803F06C
:100CC00021071B070A152121150A071B0721D368D5
:100CD000013BD3605DF8044B7047937A03F0030344
:100CE0000029E6D043F00403E3E7D3685DF8044B42
:100CF000023BD3607047D3685DF8044B0233D36086
:100D00007047D3685DF8044B0133D360704700BF70
:100D1000F8940120214B10B49A6813685068197830
:100D20000478507A137A044201EA03011BD0937AC3
:100D300003F0030309B143F0040343F008039910DF
:100D4000013B91720D2B0BD8DFE803F021071B0745
:100D50000A152121150A071B0721D368013BD3601F
:100D60005DF8044B7047937A03F003030029E6D043
:100D700043F00403E3E7D3685DF8044B023BD36020
:100D80007047D3685DF8044B0233D3607047D36873
:100D90005DF8044B0133D360704700BFF894012025
:100DA000214B10B4DA681368506819780478507AC7
:100DB000137A044201EA03011BD0937A03F0030380
:100DC00009B143F0040343F008039910013B917209
:100DD0000D2B0BD8DFE803F021071B070A15212193
:100DE000150A071B0721D368013BD3605DF8044B4C
:100DF0007047937A03F003030029E6D043F004031D
:100E0000E3E7D3685DF8044B023BD3607047D368D7
:100E10005DF8044B0233D3607047D3685DF8044B30
:100E20000133D360704700BFF8940120214B10B408
:100E30001A691368506819780478507A137A044252
:100E400001EA03011BD0937A03F0030309B143F0D5
:100E5000040343F008039910013B91720D2B0BD84A
:100E6000DFE803F021071B070A152121150A071BDC
:100E70000721D368013BD3605DF8044B7047937A38
:100E800003F003030029E6D043F00403E3E7D3684B
:100E90005DF8044B023BD3607047D3685DF8044BA8
:100EA0000233D3607047D3685DF8044B0133D360DD
:100EB000704700BFF8940120214B10B45A691368A1
:100EC000506819780478507A137A044201EA0301D1
:100ED0001BD0937A03F0030309B143F0040343F0FA
:100EE00008039910013B91720D2B0BD8DFE803F03A
:100EF00021071B070A152121150A071B0721D368A3
:100F0000013BD3605DF8044B7047937A03F0030311
:100F10000029E6D043F00403E3E7D3685DF8044B0F
:100F2000023BD3607047D3685DF8044B0233D36053
:100F30007047D3685DF8044B0133D360704700BF3E
:100F4000F8940120214B10B49A69136850681978FD
:100F50000478507A137A044201EA03011BD0937A91
:100F600003F0030309B143F0040343F008039910AD
:100F7000013B91720D2B0BD8DFE803F021071B0713
:100F80000A152121150A071B0721D368013BD360ED
:100F90005DF8044B7047937A03F003030029E6D011
:100FA00043F00403E3E7D3685DF8044B023BD360EE
:100FB0007047D3685DF8044B0233D3607047D36841
:100FC0005DF8044B0133D360704700BFF8940120F3
:100FD000214B10B4DA691368506819780478507A94
:100FE000137A044201EA03011BD0937A03F003034E
:100FF00009B143F0040343F008039910013B9172D7
:101000000D2B0BD8DFE803F021071B070A15212160
:10101000150A071B0721D368013BD3605DF8044B19
:101020007047937A03F003030029E6D043F00403EA
:10103000E3E7D3685DF8044B023BD3607047D368A5
:101040005DF8044B0233D3607047D3685DF8044BFE
:101050000133D360704700BFF8940120214B10B4D6
:101060001A6A1368506819780478507A137A04421F
:1010700001EA03011BD0937A03F0030309B143F0A3
:10108000040343F008039910013B91720D2B0BD818
:10109000DFE803F021071B070A152121150A071BAA
:1010A0000721D368013BD3605DF8044B7047937A06
:1010B00003F003030029E6D043F00403E3E7D36819
:1010C0005DF8044B023BD3607047D3685DF8044B76
:1010D0000233D3607047D3685DF8044B0133D360AB
:1010E000704700BFF8940120214B10B45A6A13686E
:1010F000506819780478507A137A044201EA03019F
:101100001BD0937A03F0030309B143F0040343F0C7
:1011100008039910013B91720D2B0BD8DFE803F007
:1011200021071B070A152121150A071B0721D36870
:10113000013BD3605DF8044B7047937A03F00303DF
:101140000029E6D043F00403E3E7D3685DF8044BDD
:10115000023BD3607047D3685DF8044B0233D36021
:101160007047D3685DF8044B0133D360704700BF0C
:10117000F8940120214B10B49A6A136850681978CA
:101180000478507A137A044201EA03011BD0937A5F
:1011900003F0030309B143F0040343F0080399107B
:1011A000013B91720D2B0BD8DFE803F021071B07E1
:1011B0000A152121150A071B0721D368013BD360BB
:1011C0005DF8044B7047937A03F003030029E6D0DF
:1011D00043F00403E3E7D3685DF8044B023BD360BC
:1011E0007047D3685DF8044B0233D3607047D3680F
:1011F0005DF8044B0133D360704700BFF8940120C1
:10120000214B10B4DA6A1368506819780478507A60
:10121000137A044201EA03011BD0937A03F003031B
:1012200009B143F0040343F008039910013B9172A4
:101230000D2B0BD8DFE803F021071B070A1521212E
:10124000150A071B0721D368013BD3605DF8044BE7
:101250007047937A03F003030029E6D043F00403B8
:10126000E3E7D3685DF8044B023BD3607047D36873
:101270005DF8044B0233D3607047D3685DF8044BCC
:101280000133D360704700BFF8940120214B10B4A4
:101290001A6B1368506819780478507A137A0442EC
:1012A00001EA03011BD0937A03F0030309B143F071
:1012B000040343F008039910013B91720D2B0BD8E6
:1012C000DFE803F021071B070A152121150A071B78
:1012D0000721D368013BD3605DF8044B7047937AD4
:1012E00003F003030029E6D043F00403E3E7D368E7
:1012F0005DF8044B023BD3607047D3685DF8044B44
:101300000233D3607047D3685DF8044B0133D36078
:10131000704700BFF8940120214B10B45A6B13683A
:10132000506819780478507A137A044201EA03016C
:101330001BD0937A03F0030309B143F0040343F095
:1013400008039910013B91720D2B0BD8DFE803F0D5
:1013500021071B070A152121150A071B0721D3683E
:10136000013BD3605DF8044B7047937A03F00303AD
:101370000029E6D043F00403E3E7D3685DF8044BAB
:10138000023BD3607047D3685DF8044B0233D360EF
:101390007047D3685DF8044B0133D360704700BFDA
:1013A000F8940120214B10B49A6B13685068197897
:1013B0000478507A137A044201EA03011BD0937A2D
:1013C00003F0030309B143F0040343F00803991049
:1013D000013B91720D2B0BD8DFE803F021071B07AF
:1013E0000A152121150A071B0721D368013BD36089
:1013F0005DF8044B7047937A03F003030029E6D0AD
:1014000043F00403E3E7D3685DF8044B023BD36089
:101410007047D3685DF8044B0233D3607047D368DC
:101420005DF8044B0133D360704700BFF89401208E
:10143000214B10B4DA6B1368506819780478507A2D
:10144000137A044201EA03011BD0937A03F00303E9
:1014500009B143F0040343F008039910013B917272
:101460000D2B0BD8DFE803F021071B070A152121FC
:10147000150A071B0721D368013BD3605DF8044BB5
:101480007047937A03F003030029E6D043F0040386
:10149000E3E7D3685DF8044B023BD3607047D36841
:1014A0005DF8044B0233D3607047D3685DF8044B9A
:1014B0000133D360704700BFF8940120214B10B472
:1014C0001A6C1368506819780478507A137A0442B9
:1014D00001EA03011BD0937A03F0030309B143F03F
:1014E000040343F008039910013B91720D2B0BD8B4
:1014F000DFE803F021071B070A152121150A071B46
:101500000721D368013BD3605DF8044B7047937AA1
:1015100003F003030029E6D043F00403E3E7D368B4
:101520005DF8044B023BD3607047D3685DF8044B11
:101530000233D3607047D3685DF8044B0133D36046
:10154000704700BFF8940120214B10B45A6C136807
:10155000506819780478507A137A044201EA03013A
:101560001BD0937A03F0030309B143F0040343F063
:1015700008039910013B91720D2B0BD8DFE803F0A3
:1015800021071B070A152121150A071B0721D3680C
:10159000013BD3605DF8044B7047937A03F003037B
:1015A0000029E6D043F00403E3E7D3685DF8044B79
:1015B000023BD3607047D3685DF8044B0233D360BD
:1015C0007047D3685DF8044B0133D360704700BFA8
:1015D000F8940120214B10B49A6C13685068197864
:1015E0000478507A137A044201EA03011BD0937AFB
:1015F00003F0030309B143F0040343F00803991017
:10160000013B91720D2B0BD8DFE803F021071B077C
:101610000A152121150A071B0721D368013BD36056
:101620005DF8044B7047937A03F003030029E6D07A
:1016300043F00403E3E7D3685DF8044B023BD36057
:101640007047D3685DF8044B0233D3607047D368AA
:101650005DF8044B0133D360704700BFF89401205C
:10166000214B10B4DA6C1368506819780478507AFA
:10167000137A044201EA03011BD0937A03F00303B7
:1016800009B143F0040343F008039910013B917240
:101690000D2B0BD8DFE803F021071B070A152121CA
:1016A000150A071B0721D368013BD3605DF8044B83
:1016B0007047937A03F003030029E6D043F0040354
:1016C000E3E7D3685DF8044B023BD3607047D3680F
:1016D0005DF8044B0233D3607047D3685DF8044B68
:1016E0000133D360704700BFF8940120214B10B440
:1016F0001A6D1368506819780478507A137A044286
:1017000001EA03011BD0937A03F0030309B143F00C
:10171000040343F008039910013B91720D2B0BD881
:10172000DFE803F021071B070A152121150A071B13
:101730000721D368013BD3605DF8044B7047937A6F
:1017400003F003030029E6D043F00403E3E7D36882
:101750005DF8044B023BD3607047D3685DF8044BDF
:101760000233D3607047D3685DF8044B0133D36014
:10177000704700BFF8940120214B10B45A6D1368D4
:10178000506819780478507A137A044201EA030108
:101790001BD0937A03F0030309B143F0040343F031
:1017A00008039910013B91720D2B0BD8DFE803F071
:1017B00021071B070A152121150A071B0721D368DA
:1017C000013BD3605DF8044B7047937A03F0030349
:1017D0000029E6D043F00403E3E7D3685DF8044B47
:1017E000023BD3607047D3685DF8044B0233D3608B
:1017F0007047D3685DF8044B0133D360704700BF76
:10180000F8940120214B10B49A6D13685068197830
:101810000478507A137A044201EA03011BD0937AC8
:1018200003F0030309B143F0040343F008039910E4
:10183000013B91720D2B0BD8DFE803F021071B074A
:101840000A152121150A071B0721D368013BD36024
:101850005DF8044B7047937A03F003030029E6D048
:1018600043F00403E3E7D3685DF8044B023BD36025
:101870007047D3685DF8044B0233D3607047D36878
:101880005DF8044B0133D360704700BFF89401202A
:10189000214B10B4DA6D1368506819780478507AC7
:1018A000137A044201EA03011BD0937A03F0030385
:1018B00009B143F0040343F008039910013B91720E
:1018C0000D2B0BD8DFE803F021071B070A15212198
:1018D000150A071B0721D368013BD3605DF8044B51
:1018E0007047937A03F003030029E6D043F0040322
:1018F000E3E7D3685DF8044B023BD3607047D368DD
:101900005DF8044B0233D3607047D3685DF8044B35
:101910000133D360704700BFF8940120214B10B40D
:101920001A6E1368506819780478507A137A044252
:1019300001EA03011BD0937A03F0030309B143F0DA
:10194000040343F008039910013B91720D2B0BD84F
:10195000DFE803F021071B070A152121150A071BE1
:101960000721D368013BD3605DF8044B7047937A3D
:1019700003F003030029E6D043F00403E3E7D36850
:101980005DF8044B023BD3607047D3685DF8044BAD
:101990000233D3607047D3685DF8044B0133D360E2
:1019A000704700BFF8940120214B10B45A6E1368A1
:1019B000506819780478507A137A044201EA0301D6
:1019C0001BD0937A03F0030309B143F0040343F0FF
:1019D00008039910013B91720D2B0BD8DFE803F03F
:1019E00021071B070A152121150A071B0721D368A8
:1019F000013BD3605DF8044B7047937A03F0030317
:101A00000029E6D043F00403E3E7D3685DF8044B14
:101A1000023BD3607047D3685DF8044B0233D36058
:101A20007047D3685DF8044B0133D360704700BF43
:101A3000F8940120214B10B49A6E136850681978FD
:101A40000478507A137A044201EA03011BD0937A96
:101A500003F0030309B143F0040343F008039910B2
:101A6000013B91720D2B0BD8DFE803F021071B0718
:101A70000A152121150A071B0721D368013BD360F2
:101A80005DF8044B7047937A03F003030029E6D016
:101A900043F00403E3E7D3685DF8044B023BD360F3
:101AA0007047D3685DF8044B0233D3607047D36846
:101AB0005DF8044B0133D360704700BFF8940120F8
:101AC000214B10B4DA6E1368506819780478507A94
:101AD000137A044201EA03011BD0937A03F0030353
:101AE00009B143F0040343F008039910013B9172DC
:101AF0000D2B0BD8DFE803F021071B070A15212166
:101B0000150A071B0721D368013BD3605DF8044B1E
:101B10007047937A03F003030029E6D043F00403EF
:101B2000E3E7D3685DF8044B023BD3607047D368AA
:101B30005DF8044B0233D3607047D3685DF8044B03
:101B40000133D360704700BFF8940120214B10B4DB
:101B50001A6F1368506819780478507A137A04421F
:101B600001EA03011BD0937A03F0030309B143F0A8
:101B7000040343F008039910013B91720D2B0BD81D
:101B8000DFE803F021071B070A152121150A071BAF
:101B90000721D368013BD3605DF8044B7047937A0B
:101BA00003F003030029E6D043F00403E3E7D3681E
:101BB0005DF8044B023BD3607047D3685DF8044B7B
:101BC0000233D3607047D3685DF8044B0133D360B0
:101BD000704700BFF8940120214B10B45A6F13686E
:101BE000506819780478507A137A044201EA0301A4
:101BF0001BD0937A03F0030309B143F0040343F0CD
:101C000008039910013B91720D2B0BD8DFE803F00C
:101C100021071B070A152121150A071B0721D36875
:101C2000013BD3605DF8044B7047937A03F00303E4
:101C30000029E6D043F00403E3E7D3685DF8044BE2
:101C4000023BD3607047D3685DF8044B0233D36026
:101C50007047D3685DF8044B0133D360704700BF11
:101C6000F894012070B5044608460D461FF068FF41
:101C700023680246294620465B68BDE87040184745
:101C800038B5044608460D461FF05AFF2368024641
:101C900029465B68204698470546204618F024FDF3
:101CA000284438BD624B634A6349DFF8B8C12DE967
:101CB000F043A3FB0053614C614E1D0C2F1DA4FB90
:101CC0000043A2FB00E4A7FB06896409A2FB04E22F
:101CD000C9EB0706DB0A09EB56065209A1FB03E133
:101CE000B608C2EB0212A4EB8202C6EBC606C4EB36
:101CF00004140909BE1BDFF870E1524FA0EB840009
:101D000001EB4101504C3A600136A3EBC1010023C5
:101D1000CEF80060CCF800002160DFF834E14B4FD2
:101D20001C4640F26D1864264FF4C87C0DE0C909CA
:101D30000CFB112100285BD1002914BF42464FF44F
:101D4000B77213449D4211D3013404F2B272A7FB5F
:101D500002014809744506FB102002D012F0030F5F
:101D6000E5D040F26D1213449D42EDD2384A394914
:101D700094420C604CD004F2B27291073BD040F216
:101D80006D11324F344EDFF8C8E0A7FB02075B1A33
:101D90004FEA571C64204FF4C871FF0900FB1C2C4C
:101DA00001FB1727EB1A02F003021F2000210CE0B1
:101DB000451CBCF1000F00D15FB9012909D19D423A
:101DC00024D85B1B022116F8010F744501D0002AAC
:101DD000EED098421AD801310C29A3EB0003F2D1BE
:101DE0000D211E481E4A013303601160BDE8F083D7
:101DF0004FF4B772A5E71549A1FB02014809642613
:101E000006FB102040B14FF4B771BAE70131E8E7A3
:101E100040F26D110022B4E7C9094FF4C87000FB0D
:101E20001121002940F26D1108BF4FF4B771A8E7E6
:101E300007452EC289888888ABAAAAAAC5B3A291F1
:101E400025499224BC030120A80701201F85EB51DE
:101E50004EF8FFFF7C08012034BC0300F4EC0020A6
:101E6000C0D90020143DFF1FB08D0120DFED277A7F
:101E70009FED277A80EE270AB4EEC70AF1EE10FA3A
:101E800032D4F6EE007AB4EEE70AF1EE10FA12D48C
:101E900030EE670ADFED1F7A30EE000A6FF01F00A8
:101EA00020EE270ABCEEC00A10EE103AC3F3C403BA
:101EB000184380B2704730EE470ADFED176A9FED96
:101EC000157AC0EE267A002367EE877AFCEEE77A71
:101ED00017EE900AC00000F4FC606FEA40506FEA11
:101EE0005050184380B27047C0EE077A00239FED30
:101EF000097A67EE877AFCEEE77A17EE900A00021D
:101F000000F4784000B2184380B2704700401C468D
:101F1000CDCCCC3D00007F43CDCCCC3E9FED7E7A36
:101F2000DFED7E7AE0EE077A84B0F5EEC07AF1EE6E
:101F300010FA00F1DF809FED7A7AF4EEC77AF1EEC5
:101F400010FA00F38980FCEEE77ACDED017A9DF876
:101F50000420B5EEC00AF1EE10FA40F38580DFED03
:101F6000717AB4EEE70AF1EE10FA7DD5DFED6E7A04
:101F700060EE277AF5EEC07AF1EE10FA00F1B88043
:101F80009FED677AF4EEC77AF1EE10FA7ADCFCEE98
:101F9000E77ACDED017A9DF80430DFED647AB4EE96
:101FA000E70AF1EE10FA76D89FED617ADFED617AFB
:101FB000E0EE077AF5EEC07AF1EE10FA73D49FEDF9
:101FC000587AF4EEC77AF1EE10FA00F39580FCEE41
:101FD000E77ACDED017A9DF804109FED526AB4EED8
:101FE000C60AF1EE10FA29D507EE902A06EE901AED
:101FF000B8EEE77A07EE903AF8EEE66AF8EEE77A9E
:1020000027EE007A67EE807A26EE800AC7EE066A2F
:1020100087EE867AC0EE067AFCEEE66ABCEEC77AF8
:10202000FCEEE77ACDED016A8DED027ACDED037A13
:102030009DF804209DF808309DF80C10120222F43F
:10204000FF60DB0020F0070003F4FC63034343EA76
:10205000D10080B204B07047B5EEC00AF1EE10FABC
:102060004FF0FF023FF77BAFDFED2E7AB4EEE70AC9
:10207000F1EE10FA35DBDFED307AB4EEE70AF1EE7F
:1020800010FA2ED8DFED297AB4EEE70AF1EE10FA55
:102090004FF0FF0388D908DDDFED287AB4EEE70AB8
:1020A000F1EE10FA01D8002197E7DFED247AB4EEC3
:1020B000E70AF1EE10FAF6DD9FED217ADFED217AE5
:1020C000E0EE077AF5EEC07AF1EE10FAEBD49FED70
:1020D0001E7AF4EEC77AF1EE10FA7FF778AFF021AE
:1020E0007BE7DFED157AB4EEE70AF1EE10FA05DCD6
:1020F000002352E700222CE7FF216EE79FED137AC1
:10210000DFED137AE0EE077AF5EEC07AF1EE10FA21
:102110007FF536AFECE700BF3F5B2C3D38A2B7C27E
:1021200000007F4300208C4454EF683E0060084567
:10213000821B76BEE71A034400C8004600780F46AB
:102140005538963EC45F28C500007043C4E48ABE7B
:10215000CAAD1B452DE9F0472DED028B4FF47A797E
:1021600099FBF1F909F1010982B08A46B0EE408A83
:10217000364DDFF8E080DFED368A07465FFA89F9F1
:10218000002440F2E7362DE094FBF9F080B200EB3A
:10219000400007EB8000D0ED006AD0ED017A90EDB1
:1021A000027A68EE266A68EE277AFCEEE66AFCEEB2
:1021B000E77A16EE903A17EE902A68EE077A1B023D
:1021C000D200FCEEE77A02F4FC6203F47843134396
:1021D00017EE902A0134C2F3C4021343B44225F827
:1021E000023F2ED0B8F80030642BCDD007EE903AE5
:1021F000F8EEE77A87EEA87A17EE100A1DF028FFAE
:1022000007EE904AF8EEE77ACDE9000187EEA87A6A
:1022100017EE100A1DF01CFF9DED001B41EC100B8A
:102220001BF0A2FB53EC102B5046CDE900231DF010
:10223000FDFEDDE900231DF05FFF1EF035FA80B2E0
:10224000A5E702B0BDEC028BBDE8F0873AF10020B3
:1022500000007A446E2CFF1F2DE9F0412DED048B18
:10226000CD4B092282B01A70002840F08180CB4B00
:10227000CB4ACC4FCC4DDFF84883DFEDCC8A9FEDC5
:10228000CC8A9FEDCC9A1A60064604463DE007EEE4
:10229000906AB8EEE77AF0EE086AC7EE267AF4EEB6
:1022A000C87AF1EE10FA61DCFCEEE77A17EE902ABC
:1022B000120202F4784211B2F2EE046AC7EE267AF4
:1022C000F4EEC87AF1EE10FA4DDCFCEEE77A17EE88
:1022D000902AD20002F4FC62C7EE097A0A43013464
:1022E0000A36F4EEC87AF1EE10FAD7BFFCEEE77AC0
:1022F0001F2317EE903AC3F3C403134340F2E732AF
:10230000944227F8023F00F077812B88B3F57A7F5B
:10231000BDD007EE903AF8EEE77AA8F8003087EEE5
:10232000A87A17EE100A1DF093FE07EE904AF8EE19
:10233000E77ACDE9000187EEA87A17EE100A1DF0C2
:1023400087FE9DED001B41EC100B1BF00DFB90A3D5
:10235000D3E9002351EC100B1DF0CEFE1EF0C4F9A2
:1023600007EE100A97E74FF4FC62B5E79249A3E73E
:10237000012868D1894B914A8A4F8B4D9FED8B8AFA
:10238000DFED8B8A1A60002634462EE007EE906A55
:10239000F8EEE77AB5EE007A67EE877AF4EEE87A3F
:1023A000F1EE10FA00F39B80FCEEE77ACDED007AB7
:1023B0009DF800104FEA012300F395804FEAC10217
:1023C00003F4784302F4FC6243EA02031BB200F315
:1023D0009180CA081343013440F2E732944227F84F
:1023E000023F06F10A0600F007812B88B3F57A7FD9
:1023F000CCD007EE903AF8EEE77A714A87EE887A09
:10240000138017EE100A1DF023FE07EE904AF8EE37
:10241000E77ACDE9000187EE887A17EE100A1DF001
:1024200017FE9DED001B41EC100B1BF09DFA58A30D
:10243000D3E9002351EC100B1DF05EFE1EF054F9A1
:1024400007EE900AA6E7022856D1544B5D4A554F35
:10245000554DDFF86C819FED558A1A600026344691
:102460000FE007EE906AB8EEE70AFFF757FD013478
:1024700040F2E7339C4206F10A0627F8020F00F00B
:10248000BB802B88B3F57A7FEBD007EE903AF8EE5D
:10249000E77AA8F8003087EE887A17EE100A1DF068
:1024A000D7FD07EE904AF8EEE77ACDE9000187EE16
:1024B000887A17EE100A1DF0CBFD9DED001B41EC54
:1024C000100B1BF051FA32A3D3E9002351EC100B8F
:1024D0001DF012FE1EF008F900EE100AC5E76FF0BD
:1024E0001F031F2276E703F4784343F4FC631BB217
:1024F0001F226FE71F226DE7032867D1274B324A5F
:10250000284F294DDFF8B8809FED288A1A600026F1
:1025100034460EE007EE906AB8EEE70AFFF7A6FC35
:10252000013440F2E7339C4206F10A0627F8020F15
:1025300062D02B88B3F57A7FECD007EE903AF8EEB4
:10254000E77AA8F8003087EE887A17EE100A1DF0B7
:102550007FFD07EE904AF8EEE77ACDE9000187EEBD
:10256000887A17EE100A1DF073FD9DED001B41ECFB
:10257000100B1BF0F9F906A3D3E9002351EC100B63
:102580001DF0BAFD1EF0B0F800EE100AC6E700BF5D
:10259000000000000088C340BCD90020083FFF1F96
:1025A000E05302003AF10020EA2CFF1F00007A44B9
:1025B00000007F430000204200F8FFFFE8530200C4
:1025C0006E2CFF1FF4530200FC530200042818D1A4
:1025D0004D4B4E491A884E484E4B08604FF4487197
:1025E0001980B2F57A7F9FED4C0A4C4818BF1A80CB
:1025F0004FF48071FFF7AEFD02B0BDEC048BBDE877
:10260000F081052818D1404B40491A884448414B75
:1026100008609FED410A434840F24C411980B2F5F1
:102620007A7F4FF4807118BF1A8002B0BDEC048B22
:10263000BDE8F041FFF78EBD062818D1324B334973
:102640001A883948334B08609FED330A37484FF4F6
:1026500061711980B2F57A7F4FF4807118BF1A80CA
:1026600002B0BDEC048BBDE8F041FFF773BD072855
:1026700018D1254B25491A882D48264B08609FED17
:10268000260A2C4840F24C411980B2F57A7F4FF46B
:10269000807118BF1A8002B0BDEC048BBDE8F04118
:1026A000FFF758BD082816D1174B184A1B88224936
:1026B0001160B3F57A7F18BF164A204818BF1380FF
:1026C000B7EE000A4FF4807102B0BDEC048BBDE898
:1026D000F041FFF73FBD09288ED10B4B0B4A1B88F9
:1026E00017491160B3F57A7F18BF0A4A154818BF19
:1026F0001380B7EE000A4FF4807102B0BDEC048B7A
:10270000BDE8F041FFF726BDEA2CFF1F083FFF1F81
:10271000045402006E2CFF1F00007F436C6A02000D
:102720000C5402006C5E02001854020040BC03000E
:10273000205402005C7702002854020068AF0300B6
:10274000345402005C830200002310B4114C417227
:10275000026104600372C36041B1194600E002697E
:1027600042F82310427A01339A42F8DC0A4B1A6885
:102770000AB90CE01A465369002BFBD150610023C3
:1027800043618380C38083725DF8044B7047186097
:10279000F5E700BFC0510200BC9A0120334BDFEDCA
:1027A000346A93ED006A9FED337AC6EE865A07EEDF
:1027B000900AF8EEE77A67EEA57AF4EEC77AF1EEC2
:1027C00010FA2ADC2C4A2D4BC2ED007AF5EEC07AC5
:1027D0000122F1EE10FA1A603CD49FED297AF4EE52
:1027E000C77AF1EE10FA2CDD264B2749274AD1EDA6
:1027F000007AD361F5EEC07AF1EE10FA2CD4B7EE80
:10280000007AF4EEC77AF1EE10FA27DD4FF4803348
:102810001F49136201230B607047C6EE265A164B00
:102820001C48164A0121F2EE027AE5EE877A83ED22
:10283000007AFDEEE77A17EE903AF0EE477A036001
:1028400011609FED157A67EE877AFCEEE77A17EE56
:10285000903ACAE70023C8E70023D9E7B0EE677AC9
:10286000BEEEC87A17EE103AD2E700BF20DB002098
:10287000A6552C4700E0AB46342CFF1F88E100E052
:10288000A655AC4680FFFF7F7C2CFF1F4443FF1FF3
:1028900008E100E0242CFF1F4B24BE4738B52A4A2C
:1028A0002A4B127893ED007ADFED296A294C07EE66
:1028B000902AF8EEE77A4FF4FA7267EE877A216889
:1028C00087EEA67A40F6B830FDEEC77A17EE903A5A
:1028D00002FB03F303F57A73C91A0029B8BF494212
:1028E00081420FDD1C4941F65732934291ED007A47
:1028F00009DC41F658300346184D2B60FFF74EFFB8
:102900002B68236038BD9FED166ADFED166AC7EEAF
:10291000067A4FF47A706422FDEEE77A17EE901A89
:10292000013900FB01F18B42A8BF0B4602FB03F209
:1029300007EE902AB8EEE77AC7EE267AFDEEE77A40
:1029400017EE900AD8E700BFC1030120EC2CFF1F4F
:102950000000FA434CED002020DB0020242CFF1F58
:102960000000FA440000C8422DE9F04F2DED028B23
:10297000674B1A780A2A89B03DD8664C664B00220C
:10298000D4E900011DF0B8FB1DF066FE0022624B89
:102990000390D4E902011DF0AFFB1DF05DFE0022A3
:1029A0005D4B0490D4E904011DF0A6FB1DF054FE1C
:1029B0000022594B0590D4E906011DF09DFB1DF046
:1029C0004BFE554B06900022D4E908011DF094FB04
:1029D0001DF042FE03AA0790002150480EF0C2FDF0
:1029E0004F4B00214FF48032D9619A6109B0BDECA0
:1029F000028BBDE8F08F4B4B9FED4B6AD3ED007A15
:102A00009FED4A7AC6EE276A4FF47A7303FB02F30E
:102A100007EE903AF8EEE77A67EEA67A67EE877AE5
:102A200017EE900A1DF014FB41EC100B41EC180B53
:102A30001AF03AFF34A3D3E9002351EC100B1DF038
:102A400085FCB0EE480AF0EE680ACDE900011AF004
:102A5000CBFEDDE900010022354B5BEC10AB1DF035
:102A600099F902460B4600202B491DF06FFC00220D
:102A700004460D462E4B504659461DF08BF9002258
:102A80002C4B804689461DF037FB22462B461DF015
:102A900033FB1DF0E1FD224606462B46404609F178
:102AA000004103961DF028FB1DF0D6FD0022049086
:102AB0004FF040435046594605961DF01DFB2246F7
:102AC0002B461DF019FB1DF0C7FDDDE90023069024
:102AD000174900201DF05CF92B4622461DF00CFB27
:102AE0001DF0BAFD03AA079000210C480EF03AFD34
:102AF0000B4B00214FF480329961DA6109B0BDECD3
:102B0000028BBDE8F08F00BF000000606666F63FF4
:102B1000E82CFF1F882CFF1F0000D041DCD90020CB
:102B2000443FFF1F20DB0020A6552C474656153991
:102B30000000F03F0000E03F40002D4BDFED2D5A3C
:102B400001FB0001B3FBF1F107EE901A2A4BF8EEFE
:102B5000E77A1B68012330B587EE805A0A461D4686
:102B60001C46F6EE004A08E017EE905AF0EE475A7F
:102B70001C460133B3F5807F37D007EE903AF8EE6C
:102B8000E77A07EE102A67EE857AB8EE476AF5EE27
:102B9000C07AF1EE10FAACBF77EEA47A77EEE47A61
:102BA0000A44FDEEE77AF8EE676A17EE900A86EEC1
:102BB000267A30EE477AB0EEC77AB4EEE57AF1EED7
:102BC00010FAD6D5B0F5805F17EE90EAD1D2B5EE07
:102BD000407AF1EE10FAC7D1013B1B03013803F430
:102BE0007F23C0F30B00184330BD28462346F3E78C
:102BF0000095BA0A8096184B00F102400F4B104A1C
:102C00001B6810491268096810B5C2F30340C3F38A
:102C10000444C3F30463013304FB0000C9B2184445
:102C2000FFF78AFF014638B1074A1368002BFCDB27
:102C3000064B0120196010BD10BD00BF14F002400A
:102C400010F0024008F0024000F1024004F102409E
:102C5000DFED407A404B9FED416A4149414A42488D
:102C60000978B4EEE70AF1EE10FAC4BFF3EE057A84
:102C700080EE270A10B51B7807EE103ADFED3B7A9D
:102C80003B4B80ED000AB8EEC77A60EE277A27EE5C
:102C9000067AC3ED007AC7EE276ABDEEE67A17EE34
:102CA000103A137071B1334B1B7807EE103AB8EE3F
:102CB000C77A27EE067AC7EE276ABDEEE67A17EEE8
:102CC000103A1370F6EE006A60EE266A2A492B4C21
:102CD0002B4A86EEA77A0120FDEEC77A17EE903ACE
:102CE000237008601368190429D4264B1B68BBB9EC
:102CF000234B1B681B0427D4C82018F029FB224B48
:102D00001868FFF74BFD2149214A01230B6014206D
:102D100082F8203718F01CFBBDE81040FFF724BEF6
:102D2000174A12681204E7D51A4AA2FB0323DB08EC
:102D300000EE103AB8EEC00AFFF760FFDCE7FFF7DD
:102D40005DFF0028D8D1D0E79FED130AFFF756FFAB
:102D5000D2E700BF005898486C2CFF1F00007A444F
:102D60000CED00205CD9002020DB00200000003B9F
:102D7000EC2CFF1F822CFF1F88E100E006DB002007
:102D80003C80044084080120242CFF1F08E100E05F
:102D90001CF90020CDCCCCCC0000964670B5374B4A
:102DA000374D1B789FED377ADFED375A374A384E6B
:102DB0001178384A0401281906EE903AD0ED027ACB
:102DC000354BF8EE677AF8EEE66A27EE877A66EE1C
:102DD000A56A83ED007A86EE876AC6ED007AFDEE7D
:102DE000C66A16EE903A137071B12C4B1B7806EE42
:102DF000903AF8EEE66A66EEA56A86EE876AFDEE20
:102E0000C66A16EE903A1370F6EE006A67EEA67A7E
:102E10002B19C7EE876A5A68214E22480421FDEE1D
:102E2000E67A17EE903A33701EF05CFC1E4B1F4A98
:102E3000012119601368002BFCDB2C441C49A2897A
:102E4000E389013A1203013B02F47F22C3F30B032F
:102E500013430B60C82018F07BFA164B1868FFF775
:102E60009DFC1549154A01230B60142082F8203778
:102E700018F06EFABDE87040FFF776BD6C2CFF1FAE
:102E80006C7602000000003B00007A440CED00204C
:102E900020DB00205CD90020EC2CFF1F822CFF1FC0
:102EA00006DB0020E42CFF1F88E100E000F1024077
:102EB00004F10240242CFF1F08E100E01CF900206F
:102EC00007EE900A9FED0C6ADFED0C6A0C4B0D4883
:102ED000B8EEE77ADFED0C7A27EE067A10B5E7EE6A
:102EE000267A01241C60FCEEE77A17EE901A0EF0A9
:102EF00039FA064B1C6010BD0AD7233C0000014381
:102F000088E100E0D48D0120EE7CFF3E08E100E086
:102F100070B5144E3468012C054614D094B9124B88
:102F2000124801221A6021460EF0A6F8002DB8BF03
:102F30000335C5F3870211460C480EF0D3F80C4B4D
:102F400001221A6070BD084B08481C60002211461F
:102F50000EF0C8F8294605480EF08EF8044B1C60A8
:102F60003468DBE7582CFF1F88E100E0D48D012096
:102F700008E100E010B4036841681A780C78417ADF
:102F8000037A0C4202EA03021BD0837A03F00303A4
:102F90000AB143F0040343F008039A10013B827224
:102FA0000D2B0BD8DFE803F021071B070A152121A1
:102FB000150A071B0721C368013BC3605DF8044B7A
:102FC0007047837A03F00303002AE6D043F004033A
:102FD000E3E7C3685DF8044B023BC3607047C36816
:102FE0005DF8044B0233C3607047C3685DF8044B5F
:102FF0000133C360704700BF08B5034BD3F8EC0042
:10300000FFF7B8FF08BD00BFF894012008B5034BD7
:10301000D3F8E800FFF7AEFF08BD00BFF894012029
:1030200008B5034BD3F8E400FFF7A4FF08BD00BFC9
:10303000F894012008B5034BD3F8E000FFF79AFF9E
:1030400008BD00BFF894012008B5034BD3F8DC009D
:10305000FFF790FF08BD00BFF894012008B5034BAF
:10306000D3F8D800FFF786FF08BD00BFF894012011
:1030700008B5034BD3F8D400FFF77CFF08BD00BFB1
:10308000F894012008B5034BD3F8D000FFF772FF86
:1030900008BD00BFF894012008B5034BD3F8CC005D
:1030A000FFF768FF08BD00BFF894012008B5034B87
:1030B000D3F8C800FFF75EFF08BD00BFF8940120F9
:1030C00008B5034BD3F8C400FFF754FF08BD00BF99
:1030D000F894012008B5034BD3F8C000FFF74AFF6E
:1030E00008BD00BFF894012008B5034BD3F8BC001D
:1030F000FFF740FF08BD00BFF894012008B5034B5F
:10310000D3F8B800FFF736FF08BD00BFF8940120E0
:1031100008B5034BD3F8B400FFF72CFF08BD00BF80
:10312000F894012008B5034BD3F8B000FFF722FF55
:1031300008BD00BFF894012008B5034BD3F8AC00DC
:10314000FFF718FF08BD00BFF894012008B5034B36
:10315000D3F8A800FFF70EFF08BD00BFF8940120C8
:1031600008B5034BD3F8A400FFF704FF08BD00BF68
:10317000F894012008B5034BD3F8A000FFF7FAFE3E
:1031800008BD00BFF894012008B5034BD3F89C009C
:10319000FFF7F0FE08BD00BFF894012008B5034B0F
:1031A000D3F89800FFF7E6FE08BD00BFF8940120B1
:1031B00008B5034BD3F89400FFF7DCFE08BD00BF51
:1031C000F894012008B5034BD3F89000FFF7D2FE26
:1031D00008BD00BFF894012008B5034BD3F88C005C
:1031E000FFF7C8FE08BD00BFF894012008B5034BE7
:1031F000D3F88800FFF7BEFE08BD00BFF894012099
:1032000008B5034BD3F88400FFF7B4FE08BD00BF38
:10321000F894012008B5034BD3F88000FFF7AAFE0D
:1032200008BD00BFF894012008B5024BD86FFFF726
:10323000A1FE08BDF894012008B5024B986FFFF776
:1032400099FE08BDF894012008B50B463B2800F212
:10325000C682DFE810F0BB02B202A902A002970208
:103260008E0285027C0273026A02610258024F02DA
:1032700046023D0234022B0222021902100207020A
:10328000AE01A5019C0193018A01810178016F01C2
:1032900066015D0154014A01400136012C01220101
:1032A00018010E010401FA00F000E600DC00D20073
:1032B000C800BE00B400AA00A00096008C008200E6
:1032C00078006E0064005A00500046003C00BD4A81
:1032D000BD49C2F8EC303B20042217F067FF012003
:1032E00008BDB84AB949C2F8E8303A20042217F0BC
:1032F0005DFF012008BDB34AB549C2F8E43039206A
:10330000042217F053FF012008BDAE4AB149C2F8AC
:10331000E0303820042217F049FF012008BDA94AF7
:10332000AD49C2F8DC303720042217F03FFF0120FE
:1033300008BDA44AA949C2F8D8303620042217F0A3
:1033400035FF012008BD9F4AA549C2F8D430352079
:10335000042217F02BFF012008BD9A4AA149C2F8A8
:10336000D0303420042217F021FF012008BD954AF7
:103370009D49C2F8CC303320042217F017FF0120FA
:1033800008BD904A9949C2F8C8303220042217F08B
:103390000DFF012008BD8B4A9549C2F8C430312089
:1033A000042217F003FF012008BD864A9149C2F8A4
:1033B000C0303020042217F0F9FE012008BD814AF8
:1033C0008D49C2F8BC302F20042217F0EFFE0120F7
:1033D00008BD7C4A8949C2F8B8302E20042217F073
:1033E000E5FE012008BD774A8549C2F8B4302D209A
:1033F000042217F0DBFE012008BD724A8149C2F8A1
:10340000B0302C20042217F0D1FE012008BD6D4AF7
:103410007D49C2F8AC302B20042217F0C7FE0120F2
:1034200008BD684A7949C2F8A8302A20042217F05A
:10343000BDFE012008BD634A7549C2F8A4302920A9
:10344000042217F0B3FE012008BD5E4A7149C2F89C
:10345000A0302820042217F0A9FE012008BD594AF7
:103460006D49C2F89C302720042217F09FFE0120EE
:1034700008BD544A6949C2F898302620042217F042
:1034800095FE012008BD4F4A6549C2F894302520B9
:10349000042217F08BFE012008BD4A4A6149C2F898
:1034A00090302420042217F081FE012008BD454AF7
:1034B0005D49C2F88C302320042217F077FE0120EA
:1034C00008BD404A5949C2F888302220042217F02A
:1034D0006DFE012008BD3B4A5549C2F884302120C9
:1034E000042217F063FE012008BD364A5149C2F894
:1034F00080302020042217F059FE012008BD314AF7
:103500004D49D3671F20042217F050FE012008BD4B
:103510002C4A4A4993671E20042217F047FE0120D7
:1035200008BD284A464953671D20042217F03EFE75
:10353000012008BD234A434913671C20042217F0C9
:1035400035FE012008BD1F4A3F49D3661B200422D7
:1035500017F02CFE012008BD1A4A3C4993661A2038
:10356000042217F023FE012008BD164A384953668D
:103570001920042217F01AFE012008BD114A35490E
:1035800013661820042217F011FE012008BD0D4A11
:103590003149D3651720042217F008FE012008BD29
:1035A000084A2E4993651620042217F0FFFD0120DA
:1035B00008BD044A2A4953651520042217F0F6FD78
:1035C000012008BDF8940120F92F00000D30000003
:1035D0002130000035300000493000005D3000002F
:1035E000713000008530000099300000AD300000DF
:1035F000C1300000D5300000E9300000FD3000008F
:103600001131000025310000393100004D3100003A
:103610006131000075310000893100009D310000EA
:10362000B1310000C5310000D9310000ED3100009A
:10363000013200001532000029320000393200004A
:10364000D91B00004D1B0000C11A0000351A0000F4
:10365000A91900001D1900009118000005180000AC
:10366000791700005F4A604913651420042217F09F
:103670009DFD012008BD5B4A5C49D36413200422F0
:1036800017F094FD012008BD564A59499364122051
:10369000042217F08BFD012008BD524A554953649E
:1036A0001120042217F082FD012008BD4D4A524925
:1036B00013641020042217F079FD012008BD494A47
:1036C0004E49D3630F20042217F070FD012008BD7E
:1036D000444A4B4993630E20042217F067FD0120F2
:1036E00008BD404A474953630D20042217F05EFD90
:1036F000012008BD3B4A444913630C20042217F003
:1037000055FD012008BD374A4049D3620B200422F1
:1037100017F04CFD012008BD324A3D4993620A2052
:10372000042217F043FD012008BD2E4A3949536297
:103730000920042217F03AFD012008BD294A364924
:1037400013620820042217F031FD012008BD254A2C
:103750003249D3610720042217F028FD012008BD5B
:10376000204A2F4993610620042217F01FFD0120F3
:1037700008BD1C4A2B4953610520042217F016FD91
:10378000012008BD174A284913610422104617F08A
:103790000DFD012008BD134A2449D36003200422F3
:1037A00017F004FD012008BD0E4A21499360022054
:1037B000042217F0FBFC012008BD0A4A1D49536092
:1037C0000120042217F0F2FC012008BD054A1A4925
:1037D00013600020042217F0E9FC012008BD00203E
:1037E00008BD00BFF8940120ED160000611600002E
:1037F000D515000049150000BD140000311400006B
:10380000A5130000191300008D1200000112000022
:1038100075110000E91000005D100000D10F0000DC
:10382000450F0000B90E00002D0E0000A10D000094
:10383000150D0000890C0000FD0B0000F8B50446D2
:1038400015460E460846022117F058FD284602216B
:1038500017F054FD164A174B52F83610012001F5A7
:1038600000772760207252F83520607202F50077E9
:1038700000206760E060013BFDD191F8003292F8D2
:10388000002203F00103D20744BF43F00203DBB27E
:10389000A37221463046FFF7D7FC21462074284604
:1038A000FFF7D2FC237C184420742046F8BD00BFEB
:1038B00004FF0300C0D40100F0B53648364906784D
:1038C000364CDFF808E1364D364A374F374B03C9DF
:1038D00020609EE80300A06095E80300E06007CA4E
:1038E00004F1140503C597E8030025F8022B120C18
:1038F0008BB02A701021F8220A2E93F900306062F2
:103900004FF0D40562602161294AA5624FF0280179
:10391000684608BF00261DF0E5FE6946054604F12D
:103920002C001EF09BF83346224A282168461DF0E1
:10393000D9FE2C350646694660191EF08FF81E4BDD
:103940001B783544EBB11D4B1D4A1B782821684676
:103950001DF0C8FE6946064660191EF07FF8194B37
:10396000194A1B7803EB830303EB83032821684682
:103970001DF0B8FE35446946064660191EF06EF823
:1039800035442023ADF80030BDF8003003486353C0
:103990000BB0F0BDE82CFF1F405402002C8E01201C
:1039A000505402005854020064540200108E01204A
:1039B0006C540200785402000CED0020822CFF1F92
:1039C00088540200B12CFF1F985402004854020092
:1039D0003C4B93E80300F0B53B4D3C4E28600FCEC6
:1039E0008BB06C460FC4D6F800E0C4F800E06E4619
:1039F0000FCE374F05F108060FC60FCFC6F800E00F
:103A00004FF4FC7C3F68C5F804C06E460FC669469B
:103A1000277005F11B001EF021F82E4B2E4A684638
:103A200028211DF05FFE6946044605F12B001EF0BB
:103A300015F82A4B2A4A93F90030684628211DF0D0
:103A400051FE2B340646694628191EF007F8254B0F
:103A5000254A1B780A2B08BF0023684628211DF041
:103A600041FE34446946064628191DF0F7FF1F4AF7
:103A70001F4B11681F4A03EB011368469B682821FE
:103A80001DF030FE34440346694628191C441DF0DD
:103A9000E5FF194B194A684628211DF023FE6946A7
:103AA000064628191DF0DAFF154B164A68462821EC
:103AB0001DF018FE3019694628441DF0CFFF284636
:103AC0000BB0F0BDA8540200F80A0120B054020067
:103AD000C4540200D8540200F0540200108E012099
:103AE00008550200E82CFF1F18550200602CFF1F2C
:103AF0006C7602002C5502006853FF1F40550200EF
:103B00000C53FF1F5C5502001A4A1B491B4BF0B5B2
:103B1000D2F800E01A4F1B4E1B4D1C4C024603C945
:103B2000186097E80300986096E80300D86095E86D
:103B300003001749586204EB0E1403C9A468C3F8C4
:103B4000A400AC3A22F0010000F5697E10210122A8
:103B5000670002267825C3F8A800C3F804E09C613A
:103B6000DF611E849D62196159849A82DA82184647
:103B7000F0BD00BF602CFF1F70550200080301203C
:103B80007855020080550200885502006C760200CC
:103B90009055020038B501230D4C0E4D0E492B7087
:103BA0001A46002010F032FD20464FF000010CF0C4
:103BB00003FB204644F8044C0BF09EFE00B138BDD8
:103BC00054F8041CA4F59260BDE838400BF0C8B965
:103BD00080940120000D012098550200F8B5194C81
:103BE000194E1A4B1A4D31462046012200271F70EC
:103BF00010F00CFDE36A6189DFED166AA269164CCC
:103C00002870023B01FB03F307EE903AF8EE677A67
:103C100002FB01F267EEA67A07EE102AFCEEE77AC5
:103C2000B8EE477AC4ED007AF8EE677A0B4BE7EE10
:103C3000667A3046FCEEE77AC3ED007A11F0BCF804
:103C40002870F8BDA808012098550200000D012039
:103C5000B853FF1FBD37063AC40301205C3EFF1F67
:103C600038B5244C24492046012210F0CFFC234BC8
:103C7000187018BBE36A61899FED216AA269214C23
:103C80002148023B01FB03F307EE903AF8EE677A16
:103C900002FB01F267EE867A07EE102AFCEEE77A65
:103CA000F8EE476AB8EE677AC4ED007AF0EE477A2C
:103CB000E6EEC67AFCEEE77AC0ED007A134C0E49C8
:103CC00001220020A4F2944510F0A0FC20464FF001
:103CD00000010CF071FA2046C5F890440BF00CFE80
:103CE00008B1002038BDD5F89014281D0BF038F924
:103CF00038BD00BFA808012098550200B853FF1F27
:103D0000BD37063AC40301205C3EFF1F80940120AA
:103D100070B5A2B0664B0093664A674B6748502166
:103D20001DF0E0FC002302A8644A65490BF07CF911
:103D3000149B002B00F0B280682017F0A1F9044614
:103D40004FF47A759DF80C00049A9DF814305D4983
:103D5000A5605D4E207600256161E26106A984F8C8
:103D60002030266025712573256104F124000AF0B6
:103D7000FFFF2369554A6261013323616566544B35
:103D8000029306A80BF030F823680095596B0022C7
:103D9000002320468847236820469B6A242202A9E4
:103DA00098479DF821509DF820309DF8222003EB84
:103DB000052313EB024547D09DF80D609DF80C20BC
:103DC0009DF80E309DF80F009FED427A424902EBBC
:103DD000062202EB034303EB0063A3F5697307EECE
:103DE000903AF8EE677A67EE877A07EE105AF8EEA7
:103DF000C76A87EEA67ABCEEC77A81ED007A3CB33B
:103E00002368042202A99B6A20469847042233496A
:103E100002A81DF075F930B3314B002103F178028F
:103E200003F8011F9A42FBD15CB1236820461B6C4A
:103E300098472369013B23611BB9236820461B6A0D
:103E40009847284622B070BD234B1D60002CD7D167
:103E500002A8042221491DF053F90028DCD1214B8E
:103E600001221A700EE01F4A2368012111709B6A1B
:103E7000042202A920469847236802A99B6A782257
:103E800020469847164B0DF1070203F1780012F80F
:103E9000011F03F8011F9842F9D1C5E7159C002CBA
:103EA0007FF44AAF0A4B029306A80AF09DFF78E719
:103EB000FC53FF1F9C55020060D90020FC3DFF1FF2
:103EC000F08F01209C51020074520200F051020058
:103ED000CC5102000000FA4318F900208855020076
:103EE0007BDA0020C8030120F0B5444D296891B069
:103EF000064621B10023424A42480AF089FF424C5B
:103F000040490023324604F110000AF0C1FF3F4946
:103F1000A06C00230B70002869D050220AF0E6F84C
:103F20003B480AF061FF37480AF05EFF296821B17B
:103F30000023364A33480AF06BFF334F002519E05F
:103F40000AF0D4F83349684616F07CFC324904A8DC
:103F500016F078FC04A9684616F088FC10B304A893
:103F600016F030FC684616F02DFC0135ADB228483D
:103F70000AF03AFF0022234925480AF0BFFF254BEB
:103F800000265022194648B3BC6C1E702046002CF7
:103F9000D6D1FC6C502219462046002CD2D007F016
:103FA000F1FCCFE71B4908A816F04CFC1B490CA8F4
:103FB00016F048FC0CA908A816F058FC04460CA8FA
:103FC00016F000FC08A816F0FDFB04A816F0FAFB9A
:103FD000684616F0F7FB002CC9D0C6E70C480AF07B
:103FE00003FF08480AF000FF284611B0F0BDE06C5E
:103FF000002895D0502207F0C5FC91E7988F01204A
:10400000A4550200508F01201C3DFF1F603EFF1F82
:104010002C3DFF1FFC53FF1FA8550200B0550200A6
:10402000F0B5574D296891B0064621B10023554A95
:1040300055480AF0EDFE554C53490023324604F131
:1040400010000AF025FF5249A06C00230B700028D5
:1040500000F08B8050220AF049F84E480AF0C4FE66
:1040600049480AF0C1FE296821B10023484A464860
:104070000AF0CEFE484EB06C10B1002109F052FD9E
:10408000F06C18B10022002307F036FE434D3F4C80
:1040900000232B802BE050220AF028F84049684684
:1040A00016F0D0FB3F4904A816F0CCFB04A96846E3
:1040B00016F0DCFB00282DD004A816F083FB684620
:1040C00016F080FBB36C2A883349002B46D05B691D
:1040D0005B09013B9BB2344840F2CE718A4220F822
:1040E00012309CBF01322A802A480AF07DFE00224D
:1040F000254928480AF002FF40B32949A06C002353
:104100000B700028C7D1E06C0028C7D0502207F000
:1041100039FCC3E7224908A816F094FB23490CA8F0
:1041200016F090FB0CA908A816F0A0FB07460CA8F7
:1041300016F048FB08A816F045FB04A816F042FB51
:10414000684616F03FFB002FCED0BBE711480AF0BF
:104150004BFE0D480AF048FE11B0F0BDCB6C63B1C8
:104160001B685B09013B9BB2B5E7E06C00283FF49C
:1041700074AF502207F006FC6FE74FF6FF73AAE713
:10418000988F0120A4550200508F01201C3DFF1F75
:10419000603EFF1F2C3DFF1F408F0120C802012001
:1041A000FC53FF1FA85502005CDB0020B055020045
:1041B00038B5054616480AF017FE164B196821B1A6
:1041C0000023154A12480AF023FE144C104900231C
:1041D0002A4604F110000AF05BFE1149A06C00238E
:1041E0000B7068B1502209F081FF09480AF0FCFD0C
:1041F0000C4B1B781BB9FFF78BFD0B4B186038BDC0
:10420000E06C0028F1D0502207F0BCFBEDE700BFC6
:10421000508F0120988F012060D900201C3DFF1F86
:10422000FC53FF1FAC8D012084080120F8B5FFF777
:10423000B1FC39480AF0D8FD38480AF0D5FD384BB2
:10424000196821B10023374A34480AF0E1FD364F9E
:10425000B86C10B1002109F065FCF86C18B10022AF
:10426000002307F049FD314E314D002333802C46A9
:1042700000222A4928480AF041FE00283AD02D4958
:10428000A06C00230B7008B3502209F02FFFAB6C19
:104290002BB31B7813F0700F14BF012300238BB1D5
:1042A000BB6C32882049002B2CD05B695B09013B39
:1042B0009BB2214840F2CE718A4220F812309CBF56
:1042C0000132328014480AF08FFDD1E7E06C0028FB
:1042D000F8D0502207F056FBAB6C002BD9D1E36C21
:1042E000002BEFD093F8313013F0500F14BF01239F
:1042F0000023D4E708480AF077FD0848BDE8F840F5
:104300000AF072BDCB6C23B11B685B09013B9BB209
:10431000CFE74FF6FF73CCE72C3DFF1F508F0120F6
:10432000988F0120A4550200408F0120123BFF1FEF
:104330001C3DFF1F603EFF1F6843FF1F2DE9F84330
:1043400006460DF0FDFD01282CDDDFF86490DFF856
:1043500058800025D8F80000134F05EB4004304684
:104360000DF020FE09EB042401464FF48072204634
:1043700016F070FD013530460DF032FE022DE9D108
:104380003B680133BF2B02D83B60BDE8F8830022B5
:10439000064B3A60064907484FF4C03210F0DCFA89
:1043A000054B1870BDE8F883B0070120D08D0120BF
:1043B0005054FF1F60000120B853FF1F70B54C4AD6
:1043C0004C4D0023ADF5856D044680F866331370BF
:1043D0000CE00DF0E7FD484B01464FF48072474872
:1043E00010F0BAFA287020460DF0FAFD20460DF0C4
:1043F000A7FD00282046ECDC404C0023002220468C
:1044000010F0EEFC26693046FFF77EFBAC22014639
:104410001FA816F01FFD00220023204610F0E0FC2C
:104420001FA9354BAC22204610F096FA2C2200230F
:10443000204610F0D5FC324A9FED327A02F5F0703A
:104440001346F3EC017AF4EE477AF1EE10FAC8BFA6
:10445000B0EE677A8342F4D1B5EE407AF1EE10FA0D
:104460001CBFF7EE007A87EE877A0DF10301DFEDCE
:10447000266AF2EC017A67EE277A824267EEA67A24
:10448000FCEEE77A17EE903A01F8013FF1D101A96D
:10449000194B1A48782210F05FFA32460023174869
:1044A00010F09EFCFFF708FA4FF4807201464AA80C
:1044B00016F0D0FC4AA9104B10484FF4807210F04F
:1044C0004BFAFFF785FA4FF4007201468AA816F0FE
:1044D000C1FC8AA9084B09484FF4007210F03CFA5D
:1044E000064810F057FC28700DF5856D70BD00BFB3
:1044F000AC070120B853FF1FD08D012060000120C0
:10450000143BFF1F00000000000048432DE9F04F5E
:104510004B4F87B0FFF762FB3B68002B66D1DFF89B
:104520005081484B484E1868484D494CDFF850B10F
:10453000DFF850A1DFF85091FDF7B4FB3368226833
:104540002968019103F2B27300925021414A424816
:104550001DF0C8F8336822682968DBF80000019173
:104560000092DAF80010D9F80020049003F2B27338
:10457000039102925021394A39481DF0B3F8384A64
:10458000384850211DF0AEF833682468DAF800008E
:10459000D9F800102A68DBF80060039003F2B273C8
:1045A000029101921421304A049600942F481DF084
:1045B00099F8294810F0FCFD88F8000000B308289D
:1045C00035D0002126482A4C10F05AFD0A2288F8DE
:1045D00000002349274810F043F8022888F800001B
:1045E0001AD001233B6007B0BDE8F08F2148DFF807
:1045F000808010F0CFFB002388F800003B6090E73C
:104600001D49184B009301240C70134B1B4A14488E
:1046100050211DF067F8D4E7164810F0BBFB0928BD
:104620002070DED10E4810F051FD2070D9E70D4BFF
:104630000093124A084B0A4850211DF053F8C0E776
:10464000040D012000D003407C080120F4EC002080
:10465000C0D90020B8550200B4070120C855020097
:10466000FC53FF1F6853FF1FE85502000C53FF1F48
:10467000B853FF1F60000120A40801209C550200D0
:10468000143DFF1FBC030120A80701202DE9F047BE
:10469000DFF8B4C1664A9CF8003000251570002B85
:1046A00000F094805F1EFFB2624A634B92F800E014
:1046B000DFF89881013707EB470703EB870703F122
:1046C0000804BEF1000F6AD0197A05EB4506A4F183
:1046D000080208EB860605F1010921B107CA86E840
:1046E00007005FFA89F50C33BB4204F10C04E8D1F2
:1046F000524E8CF800503778A7B17D1EEDB20135CF
:1047000005EB4505DFF830C1DFF844E1AD000023DB
:104710000CEB030207CA0EEB03040C33AB4284E834
:104720000700F5D1464B47493770082207200A2475
:104730009A70DA7005225870DFF818A1DFF8189126
:10474000DFF81881DFF818C11C701F461D461A716A
:10475000DFF810E10A700020D4B101230026C2B2B4
:1047600001E00133DBB2591EC9B288B3012A39D046
:10477000022A54D0032A3DD0042843D0A342F0D3C8
:10478000013005282E7008D015F8014F002CE4D117
:104790000130264605282E70F6D1BDE8F08714F8C2
:1047A000082CA2F1640101299DD9672A9BD0197AAE
:1047B00005EB4506A4F1080208EB8606002992D015
:1047C00007CA013586E80700EDB28CE71D468FE782
:1047D00001EB41010EEB8101097A0029CED00136AF
:1047E000F6B2CBE701EB41010CEB8101097A00291C
:1047F000C4D0F4E701EB410109EB8101097A0029FA
:10480000BCD0ECE701EB41010AEB8101097A09B167
:104810000136F6B2A342A4D33E71BDE8F08701EBA6
:10482000410108EB8101097A0029A7D0D7E700BF31
:1048300010EB0020C4D9002068BB0300282CFF1F08
:10484000983FFF1F6D2CFF1FF42CFF1F080D012048
:10485000703DFF1FF8BB030090AE030044530200FD
:104860005C8F0200F0AE030030B5044B1B680446B9
:1048700097B018460D46FDF715FA01E000D0034049
:10488000FF2C00F22E81DFE814F0C201C001BE014E
:104890002C01B301B101A8019C012C012C01910153
:1048A000350170012C012C012C012C012C012C0153
:1048B0002C012C012C012C012C012C012C012C0190
:1048C0002C012C012C012C012C012C012C012C0180
:1048D0002C012C012C012C012C012C012C012C0170
:1048E0002C012C012C012C012C012C012C012C0160
:1048F0002C012C012C012C012C012C012C012C0150
:104900002C012C012C012C012C012C012C012C013F
:104910002C012C012C012C012C012C012C012C012F
:104920002C012C012C012C012C012C012C012C011F
:104930002C012C012C012C012C012C012C012C010F
:104940002C012C012C012C012C012C012C012C01FF
:104950002C0168017B01600155012C014D012C01E6
:104960002C012C012C012C012C012C012C012C01DF
:104970002C012C012C012C012C012C012C012C01CF
:104980002C012C012C012C012C012C012C012C01BF
:104990002C012C012C012C012C012C012C012C01AF
:1049A0002C012C012C012C012C012C012C012C019F
:1049B0002C012C012C013501BF02FC013C02C50178
:1049C0003A022C012C012C012C012C012C012C0170
:1049D0002C012C012C012C012C012C012C012C016F
:1049E0002C012C012C012C012C012C012C012C015F
:1049F0002C012C012C012C012C012C012C012C014F
:104A00002C012C012C012C012C012C012C012C013E
:104A10002C012C012C012C012C012C012602060258
:104A200041012C012C012C012C012C01F501ED017F
:104A3000E501DD012C01D1012C012C012C012C01FF
:104A40002C01CF01C701B7022F012F0100012C015A
:104A50002C012C012C012C012C012C012C012C01EE
:104A60002C012C012C012C012C012C012C012C01DE
:104A70002C012C012C012C012C012C012C012C01CE
:104A80002C012C012C012C017D019F4B196821B1B7
:104A900000239E4A9E480AF0BBF99E4A9E4B12880C
:104AA0009B4933F812209D4800230AF0F1F99C49F4
:104AB0005023081F02AAFBF75BFE98480AF094F9FE
:104AC00002A9082297481CF01BFB02AB002840F00B
:104AD000A181954A954810211CF004FE8C480AF0EB
:104AE00083F9924817B030BD914A904B07CA03C36F
:104AF0001A70F6E78F4A11688F4B904A8B4803EB88
:104B0000011314215B681CF0EDFDEAE78C4B93F96F
:104B10000030012B00F0A3818A4A844B07CA03C3EB
:104B20001A70DEE7884B894A1B78804814211CF0F4
:104B3000D9FDD6E7864B1B78642B00F06781854A48
:104B40007A4814211CF0CEFDCBE7834B814A1B78B9
:104B5000764814211CF0C6FDC3E7804B804A1B78C1
:104B6000724814211CF0BEFDBBE77E4B1B68012B75
:104B700040F37E817C4A6D4814211CF0B3FDB0E700
:104B80007A4BD0E77A4B694853F8252014211CF062
:104B9000A9FD042DA5D1774B1B78002BA1D1764D13
:104BA000624C0FCD0FC42B6823809AE7734A744B75
:104BB00011685E4853F82130604A14211CF092FDC0
:104BC0008FE7704B1B78704A584803EB830303EB65
:104BD000830314211CF086FD83E76C4B5D4A93F937
:104BE0000030524814211CF07DFD7AE7684BF5E750
:104BF000684B1B780A2B40F20981594A4B48142113
:104C00001CF070FD6DE7644A75E7644ACFE7644ABB
:104C1000644BCDE7644BD5E7644B654A1B6843485A
:104C200014211CF05FFD5CE7624BF6E7624B1B78DA
:104C3000002B40F0EB80614B3C4A1B6813801B0C3F
:104C400093704EE75E4B434A9B68384814211CF032
:104C500049FD46E75A4B3F4A5B68344814211CF033
:104C600041FD3EE7564B3B4A1B68304814211CF07F
:104C700039FD36E7534B2D4819680C221DF01EF8FC
:104C80002FE7514B1B78334A284803EB8303142149
:104C90001CF028FD25E74D4B4D4C1868FDF702F838
:104CA00094F90030002B00F0BB80012B00F0E28073
:104CB000022B7FF416AF474B4749484A1B680968E7
:104CC00012680092019103F2B273454A1748142109
:104CD0001CF008FD05E73E4C94F90030002B00F075
:104CE000B180002B7FF7FDAE3E4A3F4B12681B6838
:104CF0000E48009214213D4A1CF0F4FCF1E63C4BB6
:104D000024E73C4B2AE700BF988F0120A4550200FE
:104D1000508F01200E3BFF1F6843FF1F2C3DFF1FDC
:104D2000683DFF1F60D90020A45602004053FF1FBA
:104D3000B0560200602CFF1F6C7602004056020045
:104D40005E2CFF1F90560200D52CFF1F305602002C
:104D5000FC2CFF1F28560200282DFF1F6C2CFF1F64
:104D60001C5602002C2CFF1F445602002A2DFF1F48
:104D70000C2DFF1FC4D9002008560200682CFF1F0D
:104D80003C2CFF1FC92CFF1F38560200642CFF1F4C
:104D9000292DFF1FE82CFF1FCC2CFF1FF82CFF1F15
:104DA000242DFF1F2C2DFF1FB12CFF1F5C3EFF1F6A
:104DB0009C560200C403012048ED002084560200E6
:104DC000C48D0120083FFF1FB02CFF1F00D00340FF
:104DD00000DB00207C080120F4EC0020C0D900207A
:104DE00074560200BC030120A80701207856020077
:104DF000802CFF1F822CFF1F274B284A1B88284826
:104E000014211CF06FFC6CE6264B3BE7244B264A32
:104E10001A6066E6254A224810211CF063FC5DE614
:104E2000234B2449244A1B680968126800920191A7
:104E300003F2B273214A1A4814211CF053FC94F96E
:104E4000003032E71E4A1F4B12681B68144800925C
:104E500014211D4A1CF046FC94F9003041E71B4A1E
:104E60000F4B92E803000A0C186099809A7138E69B
:104E7000174AF5E70E4B0F490F4A1B68096812687D
:104E80000092019103F2B273124A054814211CF0FA
:104E900029FC94F900300BE7C8020120AC5602004F
:104EA0004053FF1F812CFF1F4F4646004056020013
:104EB0007C080120F4EC0020C0D9002054560200E8
:104EC000BC030120A8070120685602008856020092
:104ED0004C5602006456020070B582B070B9514A57
:104EE0001378194449B200292DDB5A29A8BF5A2149
:104EF00008461170FDF7E4FF02B070BD032811D120
:104F0000494B1B78012BF7D0484A136819440E29E6
:104F1000A8BF0E2121EAE17108461160FDF73EFFAE
:104F200002B070BD012812D1414A1378194449B228
:104F300000290ADB3F29A8BF3F2108461170FDF771
:104F4000E7FF02B070BD0146D2E70021F5E7042873
:104F50000CD1384A13680133022B05DC002BB8BF93
:104F60000223136002B070BD0023FAE702283CD18F
:104F7000314B1B68002BBFD1304C314D236800935F
:104F8000009B2A689B1AB3F5FA7F44D2F92B45D8C7
:104F9000642B41F2883328BF4FF4FA63294A2A4E22
:104FA000106896ED007A03FB010141F657339942F0
:104FB0002EDDDFED266AC7EE267A4FF47A70FDEE1D
:104FC000E77A17EE903A013B00FB03F39942A8BF42
:104FD00019461F4B116008461960FDF7DFFB236877
:104FE0000193019B2B6002B070BD052884D1194A42
:104FF000137803EB4101C9B2092907D93229A8BFA7
:1050000032211170FDF7B0FC02B070BD0A21F8E743
:1050100041F65831DDE74FF4FA73BFE74FF47A7386
:10502000BCE700BFB03EFF1F5A000120CC2CFF1F81
:10503000108E0120302CFF1F782CFF1F609B012059
:1050400018080120242CFF1F20DB00200000FA4458
:105050004CED0020E82CFF1F692838B505460C46AA
:1050600039D007282DD0672840F09780AA4A1378B6
:105070000B44642B4EDD32231370A84B00224FF4F7
:10508000803159629A611A62DA61A54B1B78002B54
:105090005DD0E12D5BD1A34BA34A1B881188013B56
:1050A0000C44A342C0F29180002CBABF9BB21C46B4
:1050B000A3B29E49138031F81400BDE83840FEF7D2
:1050C000AFBF9B4A13780B44C82B20DC002B7FDB3F
:1050D000DBB213700DE097490B782344102B14DCDE
:1050E000032B6DDDDBB2944A0B70002082F8283070
:1050F00050629B2D72D1914A137823441E2B49DCB8
:10510000002B68DDDBB21370BFE70423EBE700235D
:105110001370EEE7312B55DD642B1370ADD17F4B4F
:1051200000224FF48031D9619A615A621A62ACE769
:10513000992D76D1824A137803EB4403502B6CDC13
:10514000002B6CDBDBB21370754B1B780BBBD12DC6
:1051500012D17C4B7C4A197810780C44A0422ADB8F
:10516000002C00DBE0B2794A18704FF47A73138098
:10517000BDE83840FDF770B8CB2D0AD1744A7548A8
:1051800092F90030744903705B425BB213700B708C
:1051900038BD38BD0123137077E7662849D16F4ABF
:1051A0001178052313FB0413C82B06DC0E2BA9DC96
:1051B000C823137069E70020D5E70F23137064E755
:1051C000102390E764231370A9E70024234670E7B7
:1051D000C82313708DE71E23137056E7962D0BD14D
:1051E0005F4A136823440E2B04DC042BD8BF0E2324
:1051F00013604AE70523FBE79A2D99D1594B19789B
:105200000C44C82C04DC002C05DDE4B21C7038BD55
:1052100001241C7038BDC824F8E7002393E750230D
:1052200091E7D62D7FF431AF4F4A137883F0010315
:1052300089E764281DD14D4A137803EB4103232BE2
:1052400047DC002B4FDB07EE903A9FED497AF8EEF2
:10525000E77ADBB227EE877A46484749D0ED006A05
:105260001370C7EE267AFDEEE77A17EE903A0B70D0
:105270000BE765280CD1414A137823441E2B2CDC04
:10528000042B2EDDDBB22C49137081F82930FCE6AB
:10529000022D0CD13A4A136823440E2BA8BF0E23CB
:1052A00023EAE37318461360FDF778FDEDE6052D5C
:1052B0001DD1344A137823445BB2002B0FDB3F2B04
:1052C000A8BF3F233049137018460B70FDF720FE2E
:1052D000DBE69FED2E7A0023BEE70523D3E700230C
:1052E000F0E71E23CFE79FED2A7A2323B4E7062DAC
:1052F00054D1284A137823445BB2002B09DB5A2B84
:10530000A8BF5A232449137018460B70FDF7D8FD27
:10531000BBE60023F6E700BFFC2CFF1F24DB0020C8
:10532000C4D90020123BFF1F0E3BFF1F6843FF1F25
:10533000C92CFF1FD52CFF1FB43EFF1F802CFF1F61
:10534000822CFF1FB1020120BCD90020EA2CFF1FD4
:105350005E2CFF1F4C54FF1F4D54FF1F282DFF1FB5
:10536000602CFF1FB12CFF1F48ED00206C2CFF1F8D
:1053700000007A44EC2CFF1F5CD900202A2DFF1F6F
:10538000CC2CFF1F292DFF1F108E012000000000D4
:1053900000B80847642CFF1FB03EFF1F042D0FD13B
:1053A000334A137803EB4403DBB2092B06D9322BC3
:1053B000A8BF32231370FDF7D7FA66E60A23F9E790
:1053C00055B92C4A13682344022B03DC002BB8BFC9
:1053D00002230DE72B460BE7012D0AD1264A13685D
:1053E0002344042B03DC002BB8BF042300E7002375
:1053F000FEE60A2D08D1214A13682344012BF6DC6E
:10540000002BB8BF0123F3E60C2D10D11C4A136802
:10541000012B08BF15232344042B05DD142B7FF734
:10542000E7AE0123136030E6052313602DE60B2D54
:105430003FF4D6AE972D0BD1124A137823443C2B60
:105440003FF7A8AE002B3FF75DAE3C2313701CE680
:10545000982D7FF44EAE0C4A137823443C2B03DC8A
:10546000002BBFF64FAEF0E7002313700DE600BF30
:10547000E82CFF1F242DFF1FF82CFF1F682CFF1F97
:105480002C2CFF1F812CFF1FB02CFF1F38B5314C77
:10549000237C012B51D972B6E16862B62E4D2F489C
:1054A00095F9002091FBF2F302FB13122ABB2C4A60
:1054B000036011688B4245DD2A482B4990F90000B2
:1054C00008602A4C1360237C012B21D972B6E16855
:1054D00062B695F9002091FBF2F302FB1312244906
:1054E000DAB9244A0B60106883421EDD1D48224948
:1054F00090F900000860136038BD194A1368036012
:105500001A4C1360237C18490020012B0860DDD859
:1055100072B62046FDF72EFDD9E7164A13680B60D8
:10552000154913600020086038BDF9DA13481249A4
:1055300090F900000860136038BD72B62046FDF790
:1055400019FDA9E7DCDA0D48074990F90000086069
:10555000B7E700BF0CDB0020382CFF1F50D4002021
:10556000EC8D01204D54FF1FB0D90020F8EC002035
:10557000A80D0120F853FF1FFCDA00204C54FF1F38
:1055800010B50948094C0CF031FE09480CF02EFE0C
:1055900020460CF02BFE07480CF028FE20460CF0AD
:1055A00003FE054B187010BD2C8F0120B48D012017
:1055B000803FFF1F203FFF1F5800012008B5022138
:1055C000242015F09BFE02211D2015F097FE0221DC
:1055D000252015F093FE2620022115F08FFE642071
:1055E000BDE8084015F0B4BEF0B583B0064614F02F
:1055F00009FD074614F05CFC0546384614F04AFCE9
:105600001A4B93F90030CBB944B22644172E20DD53
:105610001C46EDB26946384614F058FB68468DF8D2
:1056200001508DF8024014F06FFC15F041FE684601
:1056300014F06AFC14F036FD03B0F0BD012B0ED15E
:105640006AB295193B2D08DC002D0DDBEDB2C4B21A
:10565000E0E7002E06DBF4B2DBE70025F7E7EDB26A
:10566000C4B2D7E71724D4E73B25F0E700DB0020DE
:1056700070B582B0064614F0C5FC054614F034FC43
:105680000446284614F022FC264B93F90030DBB97F
:1056900022B2324440F2E9739A4221DD3124C6B28B
:1056A0006946284614F012FB68468DF805608DF8AF
:1056B000064014F029FC15F0FBFD684614F024FCAC
:1056C00014F0F0FC02B070BD012B0FD141B2314497
:1056D0000C291DDC002923DDCEB24E34E4B2DFE715
:1056E00040F2E2739A4215DC3724D8E7022B14D13A
:1056F00014F088FC0C4D05FB0605284614F0F4FB5D
:105700000446284614F0E2FB4E34C6B2E4B2C7E7C2
:105710001E46E2E74E32D4B2C1E74E34E4B2BEE7F1
:105720000C26DAE700DB0020805101002DE9F04F64
:10573000784B93F800B0784B8BB01B780293BBF199
:10574000000F04D0754B1B78002B00F0D28102981B
:10575000734A744B12781B780AB1734B1B78734DE4
:10576000DFF8FC81DFF8D8A1714E724A9FED726AB2
:1057700003EB830303EB830307EE903A2B680024CB
:10578000591CF8EEE75A234629608AF80040A446DF
:10579000A14641464446012736F802EF92ED007AD1
:1057A0000EF1010507EE90EA05EB85056D0006EEAA
:1057B000905AF8EEE77A1D1DF8EEE66A77EE277A42
:1057C000A842C4ED046AC2ED007A07F1010E03F1AC
:1057D000020304F1080402F104020EDAF4EEE56AB1
:1057E000F1EE10FA36EE266A5FFA8EF705DDF0EE7E
:1057F000665A5FFA85F94FF0010CEC2BCCD1BCF165
:10580000000F40F0A081FCEEE57A9AF800204B4BA7
:10581000CDED017A1446BDF804900392A3F80090F0
:10582000474A002C62D007EE907A36EE656AF8EEB1
:10583000E77AB0EE007AC6EE276AC5EEA67AF4EEF5
:10584000C77AF1EE10FA4FD43E4B01221A703E4F48
:105850003B78DBB2752B11DC3C4A01EBC303F6EE5F
:10586000006A93ED007AD3ED027A77EE277A083357
:1058700067EEA67A43ED017A9342F2D1344E3A783C
:105880003378D2B29A4271DA14B2DFF8D8C09FED01
:10589000317ADFF8D4E001EB8404B2EE046A0FE061
:1058A000C7EE866AFCEEE67ACDED017ABDF804100B
:1058B00035783EF811102CF813100132954255DD61
:1058C000F4EC017A3B78F5EEC07AD31AF1EE10FAD7
:1058D000DBB207D4F4EEC77AF1EE10FAE0DD4FF454
:1058E0006171E5E70021E3E700231370154B1B7896
:1058F000002B40F02B81184A1370184B00221A70AD
:10590000BBF1000F03D0044B9DF808201A700BB0B8
:10591000BDE8F08F820801205CD90020C00301207F
:105920000CED0020C92CFF1FB12CFF1F3C8F012064
:1059300036F900201C3BFF1F00000000B8030120C7
:10594000C103012004DB0020292CFF1F04F10020EB
:10595000D42CFF1F00A00C46E0020120010D012005
:1059600054ED002014EB00203CF100207A4B1A8803
:10597000914502D9A3F800904A4607EE902A06EE18
:10598000909AF8EEE77AB5EE007A27EE877AF8EE8D
:10599000E66AF4EEC76AF1EE10FA79D46F4A11683C
:1059A0006F4B05911C6805996C4B091B0A292CD972
:1059B00019686C4C069106992468091B042924D89F
:1059C000694F397809BB1968684C079107992568B0
:1059D000491BB1F57A7F12D21B680893089B644972
:1059E0005B1B07EE903A634D91ED007A2B78F8EE51
:1059F000677A013377EE877A2B70C1ED007A1368EE
:105A00000993099B236001233B70039B5A4F002499
:105A100083423C707FF671AF584B594A1B68DFEDEB
:105A2000596ADFF88CE10121013B8B421170CEED08
:105A3000006A3FF665AF49F63F4399453FF660AFD0
:105A4000337803B3504A2546A4462346D2ED007A64
:105A5000B8EC017A317877EE277AF4EEE67AF1EE57
:105A600010FAE2EC017A06DD834204DD0124F0EE57
:105A7000676AA446DDB201339942E7DCBCF1000F4E
:105A800067D1002C51D1414A13880133138037E785
:105A90003F490A78002A81D1304A324C1568049572
:105AA000DFF810C12568049F9CF800E0394C7F1B8B
:105AB0000125AE4527600D703DD9312F3FF66FAF00
:105AC000354C364994ED006AD1ED006A07EE107A44
:105AD000B8EEC77A76EEA77A37EE067A0EF1010EA7
