:1000000000000320D1010000719D0100299D010025
:10001000299D0100299D0100299D0100299D0100C4
:10002000299D0100299D0100299D0100719D01006C
:10003000719D0100299D010081B4010085B401007A
:10004000719D0100719D0100719D0100719D010074
:10005000719D0100719D0100719D0100719D010064
:10006000719D0100719D0100719D0100719D010054
:10007000719D0100719D0100719D0100719D010044
:10008000719D0100719D0100719D0100719D010034
:10009000719D0100719D0100719D0100719D010024
:1000A000EDD00000F9D00000719D0100719D0100AC
:1000B000719D0100719D0100719D010001A301006E
:1000C000719D0100719D0100719D0100719D0100F4
:1000D000719D0100719D0100719D0100719D0100E4
:1000E000719D0100719D0100719D0100719D0100D4
:1000F000719D0100719D0100719D0100719D0100C4
:10010000719D0100719D0100719D0100719D0100B3
:10011000719D0100F5A50100719D0100719D010017
:10012000719D0100719D0100719D0100719D010093
:10013000719D0100719D0100719D0100719D010083
:10014000C5C60000719D0100719D0100719D0100F7
:10015000719D0100719D0100719D0100719D010063
:10016000719D0100719D010005D10000719D01008C
:10017000719D0100719D0100719D0100719D010043
:10018000719D0100719D0100719D0100719D010033
:10019000719D0100719D0100719D0100719D010023
:1001A000719D0100719D0100719D0100719D010013
:1001B000719D0100719D0100719D0100719D010003
:1001C000719D0100719D0100719D0100719D0100F3
:1001D0005C4B4CF2205210B51A804DF628121A8052
:1001E00000BF00BF19F0C8FD574B4FF030621A60D6
:1001F000564A9A60564ADA60564B4FF470021A60BB
:10020000554B564A1A60564B1A78110703D51A787F
:1002100042F008021A70534B5349AA221A70534AEB
:10022000534B8B4204D252F8040F43F8040BF8E707
:10023000504B514900228B4202D243F8042BFAE77B
:100240004E494F4A002352F8230041F8230001335E
:10025000742BF8D14B4B4C4A802103F8011B93427D
:10026000FBD14A4B454A1A60494B8A221A70A3F5C2
:10027000805324225A70A0221A709A799207FCD5D2
:100280009A79D406FCD4434A937903F00C03082BE3
:10029000FAD1414B60221A7002331A78802AFCD1BD
:1002A0003C4B01221A715D225A719A799006FCD555
:1002B0009979384A4906FBD5384B394919600021EC
:1002C000596020231370937903F00C030C2BFAD19F
:1002D000344B354A1A60354A354C136813F4807331
:1002E00003D123604FF4A8531360324B324A1A6093
:1002F00000225A60072243F8042C304AC3F80C2D20
:1003000062B619F047FF2368DA0705D52C4819F0C3
:100310009FFE2C4B2C4A1A602C4B1B785B0609D590
:10032000284C294B22689A4204D1254819F090FEA6
:10033000002323601FF06CFE19F024FD19F018FC57
:10034000FEE700BF0E20054030800440823F0400DD
:100350000100002B88ED00E0002008E0030000858C
:1003600002D0074000E00740D05002205CFA0400B1
:10037000303F0220E050022044850220003A022053
:100380000000000000E400E064E400E008ED00E0AC
:10039000005006400040064001E007404480044011
:1003A0000000060204800440C010070010D0034083
:1003B00014D0034014E000E01FBF02000000202022
:1003C00032E65A621CE00340A5C3945A00F007408D
:1003D000FFFFFFFFFFFFFFFFFFFFFFFFFFFFFFFF2D
:1003E000FFFFFFFFFFFFFFFFFFFFFFFFFFFFFFFF1D
:1003F000FFFFFFFFFFFFFFFFFFFFFFFFFFFFFFFF0D
:10040000FFFFFFFFFFFFFFFFFFFFFFFFDEF9FFFF23
:1004100010B5054C237833B9044B13B10448AFF33E
:1004200000800123237010BDE05002200000000076
:1004300058FA0400084B10B51BB108490848AFF33F
:1004400000800848036803B910BD074B002BFBD0A0
:10045000BDE81040184700BF00000000E450022033
:1004600058FA0400D050022000000000002070471D
:10047000704700BF00207047002070474FF0FF30EA
:10048000704700BF006910B103689B6A1847704746
:10049000006910B10368DB6A18477047006910B142
:1004A00003681B6918477047006910B103689B69AE
:1004B00018474FF0FF307047006910B10368DB68E0
:1004C00018477047006910B10168096B0847704709
:1004D00010B4006920B10468616B5DF8044B0847F3
:1004E0005DF8044B704700BF006910B103689B6B57
:1004F0001847002000217047006910B10368DB6BCA
:100500001847002000217047006910B103681B6C78
:1005100018477047006910B103685B6C1847704753
:10052000006910B103689B6C18470148704700BF11
:10053000204B0200006910B10368DB6C184770475C
:1005400038B50B6904462BB11D6819462B6D9847C9
:10055000204638BD4FF47A70064A23712373A06099
:1005600022600B692361002BF2D01A6901321A61F3
:10057000204638BD54470200006910B103685B6D26
:1005800018477047006980B100B5036883B09B6A63
:1005900001220DF10701984720B19DF8070003B033
:1005A0005DF804FB4FF0FF30F9E74FF0FF30704784
:1005B00010B582B002AB026803F8011DD46A194677
:1005C0000122A04702B010BDC36D0BB101207047DE
:1005D000006E003018BF0120704700BF704700BF99
:1005E0009FED057ADFED057AE0EE077AFCEEE77A1B
:1005F00017EE901A12F0A0BA00000143EE7CFF3E05
:1006000010B50446406E18B11FF04CFD0023636620
:1006100004F12400BDE810400FF0F4BF10B5044B06
:10062000044640F8103B0FF0EDFF204610BD00BF20
:100630000C47020010B50446024603690549064806
:1006400019F02AF9206920B10368BDE810405B6AFF
:10065000184710BDEC480200A84502200246036975
:100660000149024819F018B908490200A8450220BA
:100670002DE9F041002394B01A460546243104A820
:100680004FF47A74254F8DF804308DF80C301293A6
:1006900013930294009710F075F8129B002B32D040
:1006A000682019F0BDFB04469DF80460029A9DF88D
:1006B0000C301B481B4926764FF47A7800262060C0
:1006C0006161E26184F8203004F1240004A92671FC
:1006D00026732661C4F808800FF066FF2369124A6A
:1006E0006761013366662E71C5F808802E732C6130
:1006F00023612A600D4B009304A80FF083FF284666
:1007000014B0BDE8F081139B002BC9D1064A2B71B0
:10071000AC602B732B612A60ECE700BF304702000E
:10072000B4470200DC460200544702000C470200B6
:1007300019F088BCF8B50D46064613F03FFB13F0E0
:10074000AFFA044613F03AFB13F09CFA074613F095
:1007500035FB13F089FAA4F2BC739BB27F2B02D84D
:10076000FAB20C2A28D90023338013F027FB13F0A8
:1007700051FA064613F022FB13F05AFA044613F01E
:100780001DFB13F063FAF3B2172B12D8E3B23B2B25
:100790000FD8C3B23B2B0CD8F302640103F4FF2340
:1007A00004F4FF542343C0F3460003439BB22B8061
:1007B000F8BD00232B80F8BDC0B21F28D3D87F011D
:1007C00007F4FF57384340EA43239BB2CCE700BF0E
:1007D00010B504460CF0E6F8204610BDC26D62B1BB
:1007E000137803F0080303F0FF0003B3D3695069E3
:1007F000181A48BF6FF000407047016EC1B191F800
:10080000313003F0080303F0FF0083B1D1E9042382
:10081000D1E90001101A30B463EB010100256FF03B
:1008200000448D4208BF844200D2204630BC70474D
:1008300008467047836C13B118460EF01DBCC06C9F
:1008400008B10CF011BE4FF0FF30704700B5836C5B
:1008500083B063B1184601220DF107010EF03CFB95
:1008600001280CD19DF8070003B05DF804FBC06CB3
:1008700028B101220DF107010CF022FDF0E74FF045
:10088000FF30F1E7C36D13B118460EF06FBE006E76
:1008900008B10DF0B5BA704702684AB11369013B5F
:1008A000136103B17047006810B103681B6A1847F1
:1008B000704700BFD0B5C46D8CB1012B08BF002AB2
:1008C00001D30020D0BD114620460EF0F7FC0028D1
:1008D000F7D020460EF050FE0028F2D0D0BD046EB6
:1008E000002CEED020460CF0D7FD0028E9D02046A1
:1008F000BDE8D0400DF040BC10B5044619B1012947
:1009000011D0002010BD5522202111F0D7FF002862
:10091000F7D0E28842F00402204692B22421BDE8DA
:10092000104011F0CBBF40F273122A2111F0C6FF24
:100930000028E6D088222021204611F0BFFF0028A1
:10094000DFD0E288204622F004022421BDE81040D6
:1009500011F0B4BFC36D13B1D86900217047036EA5
:1009600013B118695969704718461946704700BF96
:10097000C36D13B1586900217047036E13B193E83A
:100980000300704718461946704700BFC36D13B186
:1009900018460EF0A1BA006E08B10CF091BC4FF0F1
:1009A000FF307047C36D13B118460EF065BB006E83
:1009B00008B10CF059BD4FF0FF307047C36D33B133
:1009C0001B7813F0700F14BF012000207047006ED9
:1009D00030B190F8313013F0500F14BF01200020D7
:1009E000704700BF836C13B118460EF0BFBDC06CDA
:1009F00008B10DF005BA7047826C62B1137803F04C
:100A0000080303F0FF0003B3D3695069181A48BF05
:100A10006FF000407047C16CC1B191F8313003F004
:100A2000080303F0FF0083B1D1E90423D1E90001F9
:100A3000101A30B463EB010100256FF000448D42C1
:100A400008BF844200D2204630BC70470846704739
:100A5000C36D9BB11A7812F0700F00D1704710B5BA
:100A60000446002118460EF029FC206E28B1002211
:100A70000023BDE810400CF00FBD10BD006E002833
:100A8000ECD090F8313013F0500FE7D00022002363
:100A90000CF002BD836C13B118460EF0A9BDC06CFA
:100AA00008B10DF0DBBB7047C36D13B118460EF0F3
:100AB0009FBD006E08B10DF0D1BB704700B5836CCF
:100AC00083B08DF8071043B1184601220DF10701DC
:100AD0000EF08EFD03B05DF804FBC06C0028F9D069
:100AE00001220DF107010DF0B9FB03B05DF804FB25
:100AF0000269084B10B50446036042B11369013B1B
:100B0000136123B9006910B103681B6A9847204636
:100B100010BD00BF54470200C26A0949094B10B515
:100B200004460160C36142B11369013B136123B9FB
:100B3000C06A10B103681B6A9847204610BD00BF09
:100B400084C503005447020038B5C36D144A0260DF
:100B5000044600F12405F3B128460FF053FD606E02
:100B600008B11FF09FFA0F4B636128460FF04AFD52
:100B700022690D4B236042B11369013B136123B914
:100B8000206910B103681B6A98472046682119F054
:100B900049F9204638BD036E002BDDD1DFE700BFE9
:100BA000B44702000C4702005447020002690A4B96
:100BB00010B50446036042B11369013B136123B9C8
:100BC000006910B103681B6A98472046142119F088
:100BD00029F9204610BD00BF54470200D0B4039C41
:100BE00016461F4634B1012C1ED0022C0DD0002019
:100BF000D0BC7047C46DDCB1012B08BF002AF6D20F
:100C000020461146D0BC0EF059BBC36DB3B1DA69B2
:100C1000B61847F10007012F08BF002EE7D2314672
:100C20001846D0BC0EF04ABBC36D8BB15A69EFE7D2
:100C3000006E0028DBD0D0BC0CF02EBC006E00286B
:100C4000D5D0D0E9042392197B41D0BC0CF024BC50
:100C5000006E0028CBD0D0E9002392197B41EAE74F
:100C600038B5C36D124A0260044600F12405D3B1C1
:100C700028460FF0C7FC606E08B11FF013FA0D4B49
:100C8000636128460FF0BEFC22690B4B236042B122
:100C90001369013B136123B9206910B103681B6A12
:100CA0009847204638BD036E002BE1D1E3E700BF33
:100CB000B44702000C4702005447020038B5446EA6
:100CC0000CB1204638BD05464FF480701FF0E2F9A4
:100CD0000146686680B1E86D0C7028B14FF48072EF
:100CE0000EF0D0FD6C6EECE7286E40B14FF48072D0
:100CF0000CF018FA6C6EE4E7024C6C66E1E70C4607
:100D0000DFE700BFFC5002202DE9F0419AB040F22D
:100D10000223A04AA04906A80FF0CAFD189B002B89
:100D200000F0F981682019F07BF8044600259DF851
:100D30001C60089A9DF824309848994920604FF427
:100D40007A780AAF26766161E26184F8203004F196
:100D500024003946257125732561C4F808800FF0F9
:100D600023FC23698F4A904E656601338DF8085045
:100D7000CDF80C808DF810500594626123610196C6
:100D80008A4B069338460FF03DFC894B89491A6817
:100D9000894C01A818F080FD884B89491A6801A880
:100DA00018F07AFD874B88491A6801A818F074FD7D
:100DB000864B87491A6801A818F06EFD854B864955
:100DC0001A6801A818F068FD844B854993F9002042
:100DD00001A818F061FD834B834993F9002001A815
:100DE00018F05AFD814B82491A6801A818F054FD89
:100DF000804B81491A7801A818F04EFD7F4B80493D
:100E00001A7801A818F048FD7E4B7F491A7801A88E
:100E100018F042FD7D4B7E491A7801A818F03CFD80
:100E20007C4B7D491A7801A818F036FD7B4B7C4934
:100E30001A7801A818F030FD7A4B7B491A7801A87E
:100E400018F02AFD794B7A491A7801A818F024FD88
:100E5000784B79491A7801A818F01EFD774B78492C
:100E60001A7801A818F018FD764B77491A7801A86E
:100E700018F012FD754B76491A7801A818F00CFD90
:100E8000744B75491A7801A818F006FD734B744924
:100E90001A7801A818F000FD724B73491A7801A85E
:100EA00018F0FAFC714B72491A7801A818F0F4FC9A
:100EB000704B71491A7801A818F0EEFC6F4B70491D
:100EC0001A8801A818F0E8FC6E4B6F491A8801A82F
:100ED00018F0E2FC6D4B6E491A8801A818F0DCFC92
:100EE0006C4B6D491A8801A818F0D6FC6B4B6C4905
:100EF0001A7801A818F0D0FC6A4B6B491A7801A83F
:100F000018F0CAFC694B6A491A7801A818F0C4FCA9
:100F1000684B694993F9002001A818F0BDFC674BA4
:100F2000674993F9002001A818F0B6FC654B6649A3
:100F30001A7801A818F0B0FC2268644901A818F0DA
:100F4000ABFC6268624901A818F0A6FCA26861497E
:100F500001A818F0A1FC604B60491A7801A818F0AC
:100F60009BFC5F4B5F491A7801A818F095FC5E4B1B
:100F70005E4993F9002001A818F08EFC059800281E
:100F800000F0C5800368DB6898470598002800F0EA
:100F9000BE80ADE048420220F47B0220B44702004C
:100FA000DC46020030470200544702000C470200B2
:100FB000EC410220284902007C79022054420220A0
:100FC0003C4902008041022054490200284202208C
:100FD00064490200D041022074490200287A0220AC
:100FE00084490200D456022094490200784102202C
:100FF000A04902003C420220B44902007D41022087
:10100000C449020084420220D8490200CD41022096
:10101000E849020074420220F449020023420220FF
:10102000004A020025420220104A020064420220C7
:10103000204A0200F2410220344A0200CC41022040
:10104000404A0200904102204C4A0200F341022033
:10105000584A0200CE410220644A0200147602205F
:10106000704A02007E5602207C4A020099570220F4
:10107000904A0200C0690220A44A0200864202206F
:10108000B44A020084410220C84A02006E42022093
:10109000DC4A0200CA410220EC4A020094530220BA
:1010A000FC4A0200C4600220104B020036420220BB
:1010B000244B0200B1410220384B02009141022032
:1010C0004C4B020038710220644B0200784B020046
:1010D000884B0200A04B0200B0410220B44B02003A
:1010E000DC410220C84B020021420220D84B020002
:1010F00003681B6C9847059A019642B11369013B3E
:10110000136123B9059810B103681B6A9847012041
:101110001AB0BDE8F081199B002B7FF403AE4FF4A9
:101120007A72054E8DF808308DF8103005930392D1
:1011300001960AAF24E600BF54470200214B10B4C9
:10114000D3F8E0201368506819780478507A137A3D
:10115000044201EA03011BD0937A03F0030309B1AF
:1011600043F0040343F008039910013B91720D2BE7
:101170000BD8DFE803F021071B070A152121150A08
:10118000071B0721D368013BD3605DF8044B704710
:10119000937A03F003030029E6D043F00403E3E766
:1011A000D3685DF8044B023BD3607047D3685DF8A9
:1011B000044B0233D3607047D3685DF8044B0133AE
:1011C000D360704704810220214B10B4D3F8E4208F
:1011D0001368506819780478507A137A044201EA47
:1011E00003011BD0937A03F0030309B143F0040316
:1011F00043F008039910013B91720D2B0BD8DFE8E7
:1012000003F021071B070A152121150A071B0721D7
:10121000D368013BD3605DF8044B7047937A03F0C9
:1012200003030029E6D043F00403E3E7D3685DF845
:10123000044B023BD3607047D3685DF8044B023324
:10124000D3607047D3685DF8044B0133D3607047B7
:1012500004810220214B10B4D3F8E82013685068B1
:1012600019780478507A137A044201EA03011BD0FA
:10127000937A03F0030309B143F0040343F0080336
:101280009910013B91720D2B0BD8DFE803F0210779
:101290001B070A152121150A071B0721D368013BEB
:1012A000D3605DF8044B7047937A03F00303002981
:1012B000E6D043F00403E3E7D3685DF8044B023B58
:1012C000D3607047D3685DF8044B0233D360704736
:1012D000D3685DF8044B0133D3607047048102206A
:1012E000214B10B4D3F8EC201368506819780478B7
:1012F000507A137A044201EA03011BD0937A03F077
:10130000030309B143F0040343F008039910013BC0
:1013100091720D2B0BD8DFE803F021071B070A158C
:101320002121150A071B0721D368013BD3605DF813
:10133000044B7047937A03F003030029E6D043F08F
:101340000403E3E7D3685DF8044B023BD3607047C6
:10135000D3685DF8044B0233D3607047D3685DF8FF
:10136000044B0133D360704704810220214B10B439
:10137000D3F8C0201368506819780478507A137A2B
:10138000044201EA03011BD0937A03F0030309B17D
:1013900043F0040343F008039910013B91720D2BB5
:1013A0000BD8DFE803F021071B070A152121150AD6
:1013B000071B0721D368013BD3605DF8044B7047DE
:1013C000937A03F003030029E6D043F00403E3E734
:1013D000D3685DF8044B023BD3607047D3685DF877
:1013E000044B0233D3607047D3685DF8044B01337C
:1013F000D360704704810220214B10B4D3F8C4207D
:101400001368506819780478507A137A044201EA14
:1014100003011BD0937A03F0030309B143F00403E3
:1014200043F008039910013B91720D2B0BD8DFE8B4
:1014300003F021071B070A152121150A071B0721A5
:10144000D368013BD3605DF8044B7047937A03F097
:1014500003030029E6D043F00403E3E7D3685DF813
:10146000044B023BD3607047D3685DF8044B0233F2
:10147000D3607047D3685DF8044B0133D360704785
:1014800004810220214B10B4D3F8C820136850689F
:1014900019780478507A137A044201EA03011BD0C8
:1014A000937A03F0030309B143F0040343F0080304
:1014B0009910013B91720D2B0BD8DFE803F0210747
:1014C0001B070A152121150A071B0721D368013BB9
:1014D000D3605DF8044B7047937A03F0030300294F
:1014E000E6D043F00403E3E7D3685DF8044B023B26
:1014F000D3607047D3685DF8044B0233D360704704
:10150000D3685DF8044B0133D36070470481022037
:10151000214B10B4D3F8CC201368506819780478A4
:10152000507A137A044201EA03011BD0937A03F044
:10153000030309B143F0040343F008039910013B8E
:1015400091720D2B0BD8DFE803F021071B070A155A
:101550002121150A071B0721D368013BD3605DF8E1
:10156000044B7047937A03F003030029E6D043F05D
:101570000403E3E7D3685DF8044B023BD360704794
:10158000D3685DF8044B0233D3607047D3685DF8CD
:10159000044B0133D360704704810220214B10B407
:1015A000D3F8D0201368506819780478507A137AE9
:1015B000044201EA03011BD0937A03F0030309B14B
:1015C00043F0040343F008039910013B91720D2B83
:1015D0000BD8DFE803F021071B070A152121150AA4
:1015E000071B0721D368013BD3605DF8044B7047AC
:1015F000937A03F003030029E6D043F00403E3E702
:10160000D3685DF8044B023BD3607047D3685DF844
:10161000044B0233D3607047D3685DF8044B013349
:10162000D360704704810220214B10B4D3F8D4203A
:101630001368506819780478507A137A044201EAE2
:1016400003011BD0937A03F0030309B143F00403B1
:1016500043F008039910013B91720D2B0BD8DFE882
:1016600003F021071B070A152121150A071B072173
:10167000D368013BD3605DF8044B7047937A03F065
:1016800003030029E6D043F00403E3E7D3685DF8E1
:10169000044B023BD3607047D3685DF8044B0233C0
:1016A000D3607047D3685DF8044B0133D360704753
:1016B00004810220214B10B4D3F8D820136850685D
:1016C00019780478507A137A044201EA03011BD096
:1016D000937A03F0030309B143F0040343F00803D2
:1016E0009910013B91720D2B0BD8DFE803F0210715
:1016F0001B070A152121150A071B0721D368013B87
:10170000D3605DF8044B7047937A03F0030300291C
:10171000E6D043F00403E3E7D3685DF8044B023BF3
:10172000D3607047D3685DF8044B0233D3607047D1
:10173000D3685DF8044B0133D36070470481022005
:10174000214B10B4D3F8DC20136850681978047862
:10175000507A137A044201EA03011BD0937A03F012
:10176000030309B143F0040343F008039910013B5C
:1017700091720D2B0BD8DFE803F021071B070A1528
:101780002121150A071B0721D368013BD3605DF8AF
:10179000044B7047937A03F003030029E6D043F02B
:1017A0000403E3E7D3685DF8044B023BD360704762
:1017B000D3685DF8044B0233D3607047D3685DF89B
:1017C000044B0133D360704704810220214B10B4D5
:1017D000D3F880201368506819780478507A137A07
:1017E000044201EA03011BD0937A03F0030309B119
:1017F00043F0040343F008039910013B91720D2B51
:101800000BD8DFE803F021071B070A152121150A71
:10181000071B0721D368013BD3605DF8044B704779
:10182000937A03F003030029E6D043F00403E3E7CF
:10183000D3685DF8044B023BD3607047D3685DF812
:10184000044B0233D3607047D3685DF8044B013317
:10185000D360704704810220214B10B4D3F8842058
:101860001368506819780478507A137A044201EAB0
:1018700003011BD0937A03F0030309B143F004037F
:1018800043F008039910013B91720D2B0BD8DFE850
:1018900003F021071B070A152121150A071B072141
:1018A000D368013BD3605DF8044B7047937A03F033
:1018B00003030029E6D043F00403E3E7D3685DF8AF
:1018C000044B023BD3607047D3685DF8044B02338E
:1018D000D3607047D3685DF8044B0133D360704721
:1018E00004810220214B10B4D3F88820136850687B
:1018F00019780478507A137A044201EA03011BD064
:10190000937A03F0030309B143F0040343F008039F
:101910009910013B91720D2B0BD8DFE803F02107E2
:101920001B070A152121150A071B0721D368013B54
:10193000D3605DF8044B7047937A03F003030029EA
:10194000E6D043F00403E3E7D3685DF8044B023BC1
:10195000D3607047D3685DF8044B0233D36070479F
:10196000D3685DF8044B0133D360704704810220D3
:10197000214B10B4D3F88C20136850681978047880
:10198000507A137A044201EA03011BD0937A03F0E0
:10199000030309B143F0040343F008039910013B2A
:1019A00091720D2B0BD8DFE803F021071B070A15F6
:1019B0002121150A071B0721D368013BD3605DF87D
:1019C000044B7047937A03F003030029E6D043F0F9
:1019D0000403E3E7D3685DF8044B023BD360704730
:1019E000D3685DF8044B0233D3607047D3685DF869
:1019F000044B0133D360704704810220214B10B4A3
:101A0000D3F890201368506819780478507A137AC4
:101A1000044201EA03011BD0937A03F0030309B1E6
:101A200043F0040343F008039910013B91720D2B1E
:101A30000BD8DFE803F021071B070A152121150A3F
:101A4000071B0721D368013BD3605DF8044B704747
:101A5000937A03F003030029E6D043F00403E3E79D
:101A6000D3685DF8044B023BD3607047D3685DF8E0
:101A7000044B0233D3607047D3685DF8044B0133E5
:101A8000D360704704810220214B10B4D3F8942016
:101A90001368506819780478507A137A044201EA7E
:101AA00003011BD0937A03F0030309B143F004034D
:101AB00043F008039910013B91720D2B0BD8DFE81E
:101AC00003F021071B070A152121150A071B07210F
:101AD000D368013BD3605DF8044B7047937A03F001
:101AE00003030029E6D043F00403E3E7D3685DF87D
:101AF000044B023BD3607047D3685DF8044B02335C
:101B0000D3607047D3685DF8044B0133D3607047EE
:101B100004810220214B10B4D3F898201368506838
:101B200019780478507A137A044201EA03011BD031
:101B3000937A03F0030309B143F0040343F008036D
:101B40009910013B91720D2B0BD8DFE803F02107B0
:101B50001B070A152121150A071B0721D368013B22
:101B6000D3605DF8044B7047937A03F003030029B8
:101B7000E6D043F00403E3E7D3685DF8044B023B8F
:101B8000D3607047D3685DF8044B0233D36070476D
:101B9000D3685DF8044B0133D360704704810220A1
:101BA000214B10B4D3F89C2013685068197804783E
:101BB000507A137A044201EA03011BD0937A03F0AE
:101BC000030309B143F0040343F008039910013BF8
:101BD00091720D2B0BD8DFE803F021071B070A15C4
:101BE0002121150A071B0721D368013BD3605DF84B
:101BF000044B7047937A03F003030029E6D043F0C7
:101C00000403E3E7D3685DF8044B023BD3607047FD
:101C1000D3685DF8044B0233D3607047D3685DF836
:101C2000044B0133D360704704810220214B10B470
:101C3000D3F8A0201368506819780478507A137A82
:101C4000044201EA03011BD0937A03F0030309B1B4
:101C500043F0040343F008039910013B91720D2BEC
:101C60000BD8DFE803F021071B070A152121150A0D
:101C7000071B0721D368013BD3605DF8044B704715
:101C8000937A03F003030029E6D043F00403E3E76B
:101C9000D3685DF8044B023BD3607047D3685DF8AE
:101CA000044B0233D3607047D3685DF8044B0133B3
:101CB000D360704704810220214B10B4D3F8A420D4
:101CC0001368506819780478507A137A044201EA4C
:101CD00003011BD0937A03F0030309B143F004031B
:101CE00043F008039910013B91720D2B0BD8DFE8EC
:101CF00003F021071B070A152121150A071B0721DD
:101D0000D368013BD3605DF8044B7047937A03F0CE
:101D100003030029E6D043F00403E3E7D3685DF84A
:101D2000044B023BD3607047D3685DF8044B023329
:101D3000D3607047D3685DF8044B0133D3607047BC
:101D400004810220214B10B4D3F8A82013685068F6
:101D500019780478507A137A044201EA03011BD0FF
:101D6000937A03F0030309B143F0040343F008033B
:101D70009910013B91720D2B0BD8DFE803F021077E
:101D80001B070A152121150A071B0721D368013BF0
:101D9000D3605DF8044B7047937A03F00303002986
:101DA000E6D043F00403E3E7D3685DF8044B023B5D
:101DB000D3607047D3685DF8044B0233D36070473B
:101DC000D3685DF8044B0133D3607047048102206F
:101DD000214B10B4D3F8AC201368506819780478FC
:101DE000507A137A044201EA03011BD0937A03F07C
:101DF000030309B143F0040343F008039910013BC6
:101E000091720D2B0BD8DFE803F021071B070A1591
:101E10002121150A071B0721D368013BD3605DF818
:101E2000044B7047937A03F003030029E6D043F094
:101E30000403E3E7D3685DF8044B023BD3607047CB
:101E4000D3685DF8044B0233D3607047D3685DF804
:101E5000044B0133D360704704810220214B10B43E
:101E6000D3F8B0201368506819780478507A137A40
:101E7000044201EA03011BD0937A03F0030309B182
:101E800043F0040343F008039910013B91720D2BBA
:101E90000BD8DFE803F021071B070A152121150ADB
:101EA000071B0721D368013BD3605DF8044B7047E3
:101EB000937A03F003030029E6D043F00403E3E739
:101EC000D3685DF8044B023BD3607047D3685DF87C
:101ED000044B0233D3607047D3685DF8044B013381
:101EE000D360704704810220214B10B4D3F8B42092
:101EF0001368506819780478507A137A044201EA1A
:101F000003011BD0937A03F0030309B143F00403E8
:101F100043F008039910013B91720D2B0BD8DFE8B9
:101F200003F021071B070A152121150A071B0721AA
:101F3000D368013BD3605DF8044B7047937A03F09C
:101F400003030029E6D043F00403E3E7D3685DF818
:101F5000044B023BD3607047D3685DF8044B0233F7
:101F6000D3607047D3685DF8044B0133D36070478A
:101F700004810220214B10B4D3F8B82013685068B4
:101F800019780478507A137A044201EA03011BD0CD
:101F9000937A03F0030309B143F0040343F0080309
:101FA0009910013B91720D2B0BD8DFE803F021074C
:101FB0001B070A152121150A071B0721D368013BBE
:101FC000D3605DF8044B7047937A03F00303002954
:101FD000E6D043F00403E3E7D3685DF8044B023B2B
:101FE000D3607047D3685DF8044B0233D360704709
:101FF000D3685DF8044B0133D3607047048102203D
:1020000070B5044608460D461FF03AF823680246AC
:10201000294620465B68BDE87040184738B504463D
:1020200008460D461FF02CF82368024629465B68D7
:10203000204698470546204617F012FC284438BD34
:10204000624B634A6349DFF8B8C12DE9F043A3FB53
:102050000053614C614E1D0C2F1DA4FB0043A2FBDD
:1020600000E4A7FB06896409A2FB04E2C9EB0706AA
:10207000DB0A09EB56065209A1FB03E1B608C2EBE5
:102080000212A4EB8202C6EBC606C4EB04140909D3
:10209000BE1BDFF870E1524FA0EB840001EB410161
:1020A000504C3A600136A3EBC1010023CEF800602A
:1020B000CCF800002160DFF834E14B4F1C4640F2C1
:1020C0006D1864264FF4C87C0DE0C9090CFB112182
:1020D00000285BD1002914BF42464FF4B772134465
:1020E0009D4211D3013404F2B272A7FB02014809E8
:1020F000744506FB102002D012F0030FE5D040F229
:102100006D1213449D42EDD2384A394994420C6015
:102110004CD004F2B27291073BD040F26D11324FB5
:10212000344EDFF8C8E0A7FB02075B1A4FEA571CE2
:1021300064204FF4C871FF0900FB1C2C01FB17271A
:10214000EB1A02F003021F2000210CE0451CBCF139
:10215000000F00D15FB9012909D19D4224D85B1B32
:10216000022116F8010F744501D0002AEED09842E2
:102170001AD801310C29A3EB0003F2D10D211E481E
:102180001E4A013303601160BDE8F0834FF4B7725B
:10219000A5E71549A1FB02014809642606FB1020AA
:1021A00040B14FF4B771BAE70131E8E740F26D1181
:1021B0000022B4E7C9094FF4C87000FB11210029BF
:1021C00040F26D1108BF4FF4B771A8E707452EC262
:1021D00089888888ABAAAAAAC5B3A2912549922466
:1021E0001C720220F47502201F85EB514EF8FFFF90
:1021F000487B0220D0700200C8600220805E02206E
:1022000098530220505E0220DFED277A9FED277A57
:1022100080EE270AB4EEC70AF1EE10FA32D4F6EED9
:10222000007AB4EEE70AF1EE10FA12D430EE670A43
:10223000DFED1F7A30EE000A6FF01F0020EE270A54
:10224000BCEEC00A10EE103AC3F3C403184380B2C8
:10225000704730EE470ADFED176A9FED157AC0EE42
:10226000267A002367EE877AFCEEE77A17EE900A6B
:10227000C00000F4FC606FEA40506FEA5050184311
:1022800080B27047C0EE077A00239FED097A67EEAF
:10229000877AFCEEE77A17EE900A000200F47840A5
:1022A00000B2184380B2704700401C46CDCCCC3DF4
:1022B00000007F43CDCCCC3E9FED7E7ADFED7E7A71
:1022C000E0EE077A84B0F5EEC07AF1EE10FA00F194
:1022D000DF809FED7A7AF4EEC77AF1EE10FA00F320
:1022E0008980FCEEE77ACDED017A9DF80420B5EE09
:1022F000C00AF1EE10FA40F38580DFED717AB4EE9A
:10230000E70AF1EE10FA7DD5DFED6E7A60EE277AFE
:10231000F5EEC07AF1EE10FA00F1B8809FED677A21
:10232000F4EEC77AF1EE10FA7ADCFCEEE77ACDED46
:10233000017A9DF80430DFED647AB4EEE70AF1EE3D
:1023400010FA76D89FED617ADFED617AE0EE077AD8
:10235000F5EEC07AF1EE10FA73D49FED587AF4EEF0
:10236000C77AF1EE10FA00F39580FCEEE77ACDED36
:10237000017A9DF804109FED526AB4EEC60AF1EEA0
:1023800010FA29D507EE902A06EE901AB8EEE77AF1
:1023900007EE903AF8EEE66AF8EEE77A27EE007A72
:1023A00067EE807A26EE800AC7EE066A87EE867AA6
:1023B000C0EE067AFCEEE66ABCEEC77AFCEEE77A7F
:1023C000CDED016A8DED027ACDED037A9DF8042002
:1023D0009DF808309DF80C10120222F4FF60DB001B
:1023E00020F0070003F4FC63034343EAD10080B20A
:1023F00004B07047B5EEC00AF1EE10FA4FF0FF02DC
:102400003FF77BAFDFED2E7AB4EEE70AF1EE10FA7C
:1024100035DBDFED307AB4EEE70AF1EE10FA2ED8B4
:10242000DFED297AB4EEE70AF1EE10FA4FF0FF0380
:1024300088D908DDDFED287AB4EEE70AF1EE10FA6C
:1024400001D8002197E7DFED247AB4EEE70AF1EE38
:1024500010FAF6DD9FED217ADFED217AE0EE077AC2
:10246000F5EEC07AF1EE10FAEBD49FED1E7AF4EEA1
:10247000C77AF1EE10FA7FF778AFF0217BE7DFED56
:10248000157AB4EEE70AF1EE10FA05DC002352E704
:1024900000222CE7FF216EE79FED137ADFED137A20
:1024A000E0EE077AF5EEC07AF1EE10FA7FF536AF7E
:1024B000ECE700BF3F5B2C3D38A2B7C200007F4372
:1024C00000208C4454EF683E00600845821B76BEB5
:1024D000E71A034400C8004600780F465538963E78
:1024E000C45F28C500007043C4E48ABECAAD1B4562
:1024F0002DE9F0472DED028B4FF47A7999FBF1F934
:1025000009F1010982B08A46B0EE408A364DDFF803
:10251000E080DFED368A07465FFA89F9002440F251
:10252000E7362DE094FBF9F080B200EB400007EBBA
:102530008000D0ED006AD0ED017A90ED027A68EE6D
:10254000266A68EE277AFCEEE66AFCEEE77A16EE7B
:10255000903A17EE902A68EE077A1B02D200FCEE42
:10256000E77A02F4FC6203F47843134317EE902AEF
:102570000134C2F3C4021343B44225F8023F2ED003
:10258000B8F80030642BCDD007EE903AF8EEE77A39
:1025900087EEA87A17EE100A1DF002F807EE904AAF
:1025A000F8EEE77ACDE9000187EEA87A17EE100A77
:1025B0001CF0F6FF9DED001B41EC100B1AF0E8FA41
:1025C00053EC102B5046CDE900231CF0D7FFDDE97A
:1025D00000231DF039F81DF00FFB80B2A5E702B013
:1025E000BDEC028BBDE8F087FE01FF1F00007A44BE
:1025F000F0410220FFFFFFFF2DE9F0412DED048B9C
:10260000CD4B092282B01A70002840F08180CB4B5C
:10261000CB4ACC4FCC4DDFF84883DFEDCC8A9FED21
:10262000CC8A9FEDCC9A1A60064604463DE007EE40
:10263000906AB8EEE77AF0EE086AC7EE267AF4EE12
:10264000C87AF1EE10FA61DCFCEEE77A17EE902A18
:10265000120202F4784211B2F2EE046AC7EE267A50
:10266000F4EEC87AF1EE10FA4DDCFCEEE77A17EEE4
:10267000902AD20002F4FC62C7EE097A0A430134C0
:102680000A36F4EEC87AF1EE10FAD7BFFCEEE77A1C
:102690001F2317EE903AC3F3C403134340F2E7320B
:1026A000944227F8023F00F077812B88B3F57A7FB8
:1026B000BDD007EE903AF8EEE77AA8F8003087EE42
:1026C000A87A17EE100A1CF06BFF07EE904AF8EE9E
:1026D000E77ACDE9000187EEA87A17EE100A1CF020
:1026E0005FFF9DED001B41EC100B1AF051FA90A317
:1026F000D3E9002351EC100B1CF0A6FF1DF09CFA4F
:1027000007EE100A97E74FF4FC62B5E79249A3E79A
:10271000012868D1894B914A8A4F8B4D9FED8B8A56
:10272000DFED8B8A1A60002634462EE007EE906AB1
:10273000F8EEE77AB5EE007A67EE877AF4EEE87A9B
:10274000F1EE10FA00F39B80FCEEE77ACDED007A13
:102750009DF800104FEA012300F395804FEAC10273
:1027600003F4784302F4FC6243EA02031BB200F371
:102770009180CA081343013440F2E732944227F8AB
:10278000023F06F10A0600F007812B88B3F57A7F35
:10279000CCD007EE903AF8EEE77A714A87EE887A65
:1027A000138017EE100A1CF0FBFE07EE904AF8EEBD
:1027B000E77ACDE9000187EE887A17EE100A1CF05F
:1027C000EFFE9DED001B41EC100B1AF0E1F958A350
:1027D000D3E9002351EC100B1CF036FF1DF02CFA4E
:1027E00007EE900AA6E7022856D1544B5D4A554F92
:1027F000554DDFF86C819FED558A1A6000263446EE
:102800000FE007EE906AB8EEE70AFFF755FD0134D6
:1028100040F2E7339C4206F10A0627F8020F00F067
:10282000BB802B88B3F57A7FEBD007EE903AF8EEB9
:10283000E77AA8F8003087EE887A17EE100A1CF0C5
:10284000AFFE07EE904AF8EEE77ACDE9000187EE99
:10285000887A17EE100A1CF0A3FE9DED001B41ECD8
:10286000100B1AF095F932A3D3E9002351EC100BA9
:102870001CF0EAFE1DF0E0F900EE100AC5E76FF06B
:102880001F031F2276E703F4784343F4FC631BB273
:102890001F226FE71F226DE7032867D1274B324ABB
:1028A000284F294DDFF8B8809FED288A1A6000264E
:1028B00034460EE007EE906AB8EEE70AFFF7A4FC94
:1028C000013440F2E7339C4206F10A0627F8020F72
:1028D00062D02B88B3F57A7FECD007EE903AF8EE11
:1028E000E77AA8F8003087EE887A17EE100A1CF015
:1028F00057FE07EE904AF8EEE77ACDE9000187EE41
:10290000887A17EE100A1CF04BFE9DED001B41EC7F
:10291000100B1AF03DF906A3D3E9002351EC100B7C
:102920001CF092FE1DF088F900EE100AC6E700BF09
:10293000000000000088C340C45D02203857022018
:10294000E84B0200FE01FF1F3E42022000007A44D5
:1029500000007F430000204200F8FFFFF04B020020
:10296000F0410220FC4B0200044C0200042818D164
:102970004D4B4E491A884E484E4B08604FF44871F3
:102980001980B2F57A7F9FED4C0A4C4818BF1A8027
:102990004FF48071FFF7ACFD02B0BDEC048BBDE8D5
:1029A000F081052818D1404B40491A884448414BD2
:1029B00008609FED410A434840F24C411980B2F54E
:1029C0007A7F4FF4807118BF1A8002B0BDEC048B7F
:1029D000BDE8F041FFF78CBD062818D1324B3349D2
:1029E0001A883948334B08609FED330A37484FF453
:1029F00061711980B2F57A7F4FF4807118BF1A8027
:102A000002B0BDEC048BBDE8F041FFF771BD0728B3
:102A100018D1254B25491A882D48264B08609FED73
:102A2000260A2C4840F24C411980B2F57A7F4FF4C7
:102A3000807118BF1A8002B0BDEC048BBDE8F04174
:102A4000FFF756BD082816D1174B184A1B88224994
:102A50001160B3F57A7F18BF164A204818BF13805B
:102A6000B7EE000A4FF4807102B0BDEC048BBDE8F4
:102A7000F041FFF73DBD09288ED10B4B0B4A1B8857
:102A800017491160B3F57A7F18BF0A4A154818BF75
:102A90001380B7EE000A4FF4807102B0BDEC048BD6
:102AA000BDE8F041FFF724BD3E4202203857022026
:102AB0000C4C0200F041022000007F43E063020062
:102AC000144C0200E0570200204C0200D0B5030075
:102AD000284C02003C710200304C020034A9030073
:102AE0003C4C02003C7D0200002310B4114C4173A9
:102AF000426104600373036141B1194600E0426919
:102B000042F82310427B01339A42F8DC0A4B1A68E0
:102B10000AB90CE01A469369002BFBD1906100239F
:102B200083614360836083735DF8044B7047186072
:102B3000F5E700BF00470200547B022070B51E4D30
:102B40004B08A5FB0335AD0805EB8504A400C5EBD8
:102B5000C505E4B2A1EB4501272C0646CDB227D826
:102B6000132C94BF0022012242F4B8722A217181F1
:102B700030460FF0A3FE202145F48072718130466B
:102B800042EA05120FF09AFE07EE905AB8EEE77A85
:102B900007EE904AF8EEE77AF7EE086AE7EE267A53
:102BA000064BB1EE087A77EEC77AC3ED007A70BDB6
:102BB00040F27312DAE700BF93244992DC5E0220F0
:102BC000214BDFED226A93ED006A9FED217A214AC5
:102BD000C6EE865A07EE900AF8EEE77A67EEA57A17
:102BE000F4EEC77AF1EE10FAC2ED007A10DDC6EE0F
:102BF000265A1949194BF2EE027AE5EE877A82EDF0
:102C0000007AFDEEE77AC1ED007A154A136270474B
:102C1000F5EEC07AF1EE10FA12D49FED127AF4EECE
:102C2000C77AF1EE10FAC8BF4FF00043EDDC9FED1C
:102C30000E7A67EE877AFCEEE77A17EE903AE4E7D1
:102C4000074A0023136270477C5E022000442C4731
:102C500000E0AB468C4102207841022000B2B57FF3
:102C6000FC5402200044AC46C637BE472DE9F04F65
:102C7000BD4EBE4C33782DED048B022B8DB040F24F
:102C80008B810022BA4BDFEDBB9A9FEDBB9ADFF838
:102C900004B3D4E900011CF0D7FC1CF085FF00222E
:102CA000B34B0790D4E902011CF0CEFC1CF07CFF72
:102CB0000022AF4B0890D4E904011CF0C5FC1CF0C5
:102CC00073FF0022AA4B0990D4E906011CF0BCFC5A
:102CD0001CF06AFFA64B0A900022D4E908011CF000
:102CE000B3FC1CF061FF07AA0B900021A34810F071
:102CF00013F800229E4BD4E900011CF0A5FC1CF047
:102D000053FF00229A4B0790D4E902011CF09CFC6F
:102D10001CF04AFF0022964B0890D4E904011CF0F5
:102D200093FC1CF041FF0022914B0990D4E906016D
:102D30001CF08AFC1CF038FF8D4B0A900022D4E96D
:102D400008011CF081FC1CF02FFF07AA0B90012149
:102D50008A480FF0E1FF0022854BD4E900011CF006
:102D600073FC1CF021FF0022814B0790D4E9020183
:102D70001CF06AFC1CF018FF00227D4B0890D4E97F
:102D800004011CF061FC1CF00FFF0022784B09903D
:102D9000D4E906011CF058FC1CF006FF744B0A90A5
:102DA0000022D4E908011CF04FFC1CF0FDFE07AA2C
:102DB0000B90022171480FF0AFFF00226C4BD4E959
:102DC00000011CF041FC1CF0EFFE0022684B079054
:102DD000D4E902011CF038FC1CF0E6FE0022644B32
:102DE0000890D4E904011CF02FFC1CF0DDFE002249
:102DF0005F4B0990D4E906011CF026FC1CF0D4FEC0
:102E000000225B4B0A90D4E908011CF01DFC1CF069
:102E1000CBFE07AA0B90032158480FF07DFF4FF01F
:102E2000000A9BF800205FFA8AF39A420FD80AF151
:102E3000010ABAF1040FF4D1514B00214FF4803252
:102E4000D9611A620DB0BDEC048BBDE8F08F4D4B1B
:102E50003278D3ED007A89EEA77A4FF47A7303FBC8
:102E600002F307EE903AF8EEE77A67EE877A67EEBC
:102E7000897A17EE900A1CF093FB41EC100B41ECA1
:102E8000180B19F0A1FD404B18688DED020B1CF0DA
:102E900087FB02460B461CF025FA9DED020B02460D
:102EA0000B4651EC100B1CF0F9FCB0EE480AF0EEAA
:102EB000680A04460D4619F027FD204629460022DF
:102EC000324B58EC107BCDE904451CF00BFA02465E
:102ED0000B46002026491CF0E1FC002204460D466A
:102EE0002A4B38464146CDE902781CF0FBF9002216
:102EF0008946274B009009F100471CF0A5FB2246AC
:102F00002B4601971CF0A0FB1CF04EFE2246074604
:102F10002B46DDE9000107971CF096FB1CF044FEF0
:102F2000002208904FF04043DDE9020109971CF0B0
:102F30008BFB22462B461CF087FB1CF035FEDDE99F
:102F400004230A90114900201CF0CAF922462B469E
:102F50001CF07AFB1CF028FE07AA0B90514607488C
:102F60000FF0DAFE63E700BF3C420220F841022086
:102F70000000D04100442C4793651539C855022004
:102F8000545102207C5E0220784202200000F03F73
:102F90000000E03F7D4102200022694BD4E900019E
:102FA0001CF052FB1CF000FE0022654B0790D4E998
:102FB00002011CF049FB1CF0F7FD0022604B089059
:102FC000D4E904011CF040FB1CF0EEFD00225C4B38
:102FD0000990D4E906011CF037FB1CF0E5FD584BC5
:102FE0000A900022D4E908011CF02EFB1CF0DCFD45
:102FF00007AA0B90002153480FF08EFED4E9000180
:1030000000224F4B1CF020FB1CF0CEFD00224C4B4D
:103010000790D4E902011CF017FB1CF0C5FD00224B
:10302000474B0890D4E904011CF00EFB1CF0BCFDDA
:103030000022434B0990D4E906011CF005FB1CF06B
:10304000B3FD3F4B0A900022D4E908011CF0FCFAC2
:103050001CF0AAFD07AA0B9001213A480FF05CFE74
:10306000D4E900010022364B1CF0EEFA1CF09CFD66
:103070000022334B0790D4E902011CF0E5FA1CF062
:1030800093FD00222E4B0890D4E904011CF0DCFAD9
:103090001CF08AFD00222A4B0990D4E906011CF09D
:1030A000D3FA1CF081FD264B0A900022D4E90801D6
:1030B0001CF0CAFA1CF078FD07AA0B9002212148E7
:1030C0000FF02AFED4E9000100221D4B1CF0BCFACF
:1030D0001CF06AFD00221A4B0790D4E902011CF093
:1030E000B3FA1CF061FD0022154B0890D4E90401ED
:1030F0001CF0AAFA1CF058FD0022114B0990D4E9EB
:1031000006011CF0A1FA1CF04FFD0D4B0A900022A5
:10311000D4E908011CF098FA1CF046FD07AA0B90B0
:10312000032108480FF0F8FD074B00214FF48032CF
:103130001962DA610DB0BDEC048BBDE8F08F00BF01
:103140000000D041C85502205451022070B5400003
:10315000334BDFED346A01FB0001B3FBF1F607EE00
:10316000906A314BF8EEE77A01242DED068B1B684F
:10317000DFED2EAAB0EE409AC7EE809A3546224681
:103180002346B6EE00AA03E00134B4F5807F38D0C0
:1031900007EE904AF8EEE77A67EEA97AF5EEC07A84
:1031A000F1EE10FAACBF77EE8A7A77EECA7ABDEE0E
:1031B000E78A07EE905AB8EE677AF8EE487A354417
:1031C000C7EE278A79EE688AF0EEE88AF4EEE68A9E
:1031D000F1EE10FAD8D518EE101AB1F5805FD3D2FF
:1031E000134816F03DFBF4EEEA8AF1EE10FA13D91B
:1031F00023460134B4F5807FF0EE686A18EE102A99
:10320000C6D1BDEC068B013B1B03013A03F47F23BF
:10321000C2F30B00184370BD234618EE102AF0E7E6
:103220000095BA0A8096184B00F1024000007A44DB
:10323000A84502200F4B104A1B6810491268096804
:1032400010B5C2F30340C3F30444C3F30463013372
:1032500004FB0000C9B21844FFF778FF014638B1FB
:10326000074A1368002BFCDB064B0120196010BDD8
:1032700010BD00BF14F0024010F0024008F0024000
:1032800000F1024004F1024070B5374B374D1B7816
:103290009FED377ADFED375A374A384E1178384A82
:1032A0000401281906EE903AD0ED027A354BF8EE7B
:1032B000677AF8EEE66A27EE877A66EEA56A83ED0E
:1032C000007A86EE876AC6ED007AFDEEC66A16EED3
:1032D000903A137071B12C4B1B7806EE903AF8EED1
:1032E000E66A66EEA56A86EE876AFDEEC66A16EEA7
:1032F000903A1370F6EE006A67EEA67A2B19C7EEC5
:10330000876A5A68214E22480421FDEEE67A17EEBC
:10331000903A33701DF08EFC1E4B1F4A012119603C
:103320001368002BFCDB2C441C49A289E389013A79
:103330001203013B02F47F22C3F30B0313430B6020
:10334000C82016F0D5FE164B1868FFF739FC154B50
:1033500001241C60142016F0CBFE134B83F8244785
:10336000BDE87040FFF782BCCD410220E06F020053
:103370000000003B00007A44A15C02207C5E022039
:10338000B878022040420220F3410220545E02201D
:103390003842022088E100E000F1024004F10240DE
:1033A0007841022008E100E0D869022007EE900A87
:1033B0009FED0C6ADFED0C6A0C4B0D48B8EEE77A16
:1033C000DFED0C7A27EE067A10B5E7EE267A0124B7
:1033D0001C60FCEEE77A17EE901A0FF0ADFB064B7F
:1033E0001C6010BD0AD7233C0000014388E100E0C7
:1033F0008C790220EE7CFF3E08E100E010B4036807
:1034000041681A780C78417A037A0C4202EA030286
:103410001BD0837A03F003030AB143F0040343F0A3
:1034200008039A10013B82720D2B0BD8DFE803F0E2
:1034300021071B070A152121150A071B0721C3684D
:10344000013BC3605DF8044B7047837A03F00303CC
:10345000002AE6D043F00403E3E7C3685DF8044BB9
:10346000023BC3607047C3685DF8044B0233C3601E
:103470007047C3685DF8044B0133C360704700BFF9
:1034800008B5034BD3F8BC00FFF7B8FF08BD00BF79
:103490000481022008B5024BD86FFFF7AFFF08BDCB
:1034A0000481022008B5024B986FFFF7A7FF08BD03
:1034B0000481022008B5024B586FFFF79FFF08BD3B
:1034C0000481022008B5024B186FFFF797FF08BD73
:1034D0000481022008B5024BD86EFFF78FFF08BDAC
:1034E0000481022008B5024B986EFFF787FF08BDE4
:1034F0000481022008B5024B586EFFF77FFF08BD1C
:103500000481022008B5024B186EFFF777FF08BD53
:103510000481022008B5024BD86DFFF76FFF08BD8C
:103520000481022008B5024B986DFFF767FF08BDC4
:103530000481022008B5024B586DFFF75FFF08BDFC
:103540000481022008B5024B186DFFF757FF08BD34
:103550000481022008B5024BD86CFFF74FFF08BD6D
:103560000481022008B5024B986CFFF747FF08BDA5
:103570000481022008B5024B586CFFF73FFF08BDDD
:103580000481022008B5024B186CFFF737FF08BD15
:103590000481022008B5024BD86BFFF72FFF08BD4E
:1035A0000481022008B5024B986BFFF727FF08BD86
:1035B0000481022008B5024B586BFFF71FFF08BDBE
:1035C0000481022008B5024B186BFFF717FF08BDF6
:1035D0000481022008B5024BD86AFFF70FFF08BD2F
:1035E0000481022008B5024B986AFFF707FF08BD67
:1035F0000481022008B5024B586AFFF7FFFE08BDA0
:103600000481022008B5024B186AFFF7F7FE08BDD7
:103610000481022008B5024BD869FFF7EFFE08BD10
:103620000481022008B5024B9869FFF7E7FE08BD48
:103630000481022008B5024B5869FFF7DFFE08BD80
:103640000481022008B5024B1869FFF7D7FE08BDB8
:103650000481022008B5024BD868FFF7CFFE08BDF1
:103660000481022008B5024B9868FFF7C7FE08BD29
:103670000481022008B5024B5868FFF7BFFE08BD61
:103680000481022008B5024B1868FFF7B7FE08BD99
:103690000481022008B50B463B2800F2C682DFE811
:1036A00010F0BB02B202A902A00297028E028502AC
:1036B0007C0273026A02610258024F0246023D0216
:1036C00034022B022202190210020702AE01A501E8
:1036D0009C0193018A01810178016F0166015D01FE
:1036E00054014A01400136012C01220118010E014A
:1036F0000401FA00F000E600DC00D200C800BE00C1
:10370000B400AA00A00096008C00820078006E0031
:1037100064005A00500046003C00BD4ABD49C2F852
:10372000EC303B20042216F011FC012008BDB84A01
:10373000B949C2F8E8303A20042216F007FC01200B
:1037400008BDB34AB549C2F8E4303920042216F066
:10375000FDFB012008BDAE4AB149C2F8E030382077
:10376000042216F0F3FB012008BDA94AAD49C2F8B6
:10377000DC303720042216F0E9FB012008BDA44A02
:10378000A949C2F8D8303620042216F0DFFB012008
:1037900008BD9F4AA549C2F8D4303520042216F04E
:1037A000D5FB012008BD9A4AA149C2F8D030342087
:1037B000042216F0CBFB012008BD954A9D49C2F8B2
:1037C000CC303320042216F0C1FB012008BD904A02
:1037D0009949C2F8C8303220042216F0B7FB012004
:1037E00008BD8B4A9549C2F8C4303120042216F036
:1037F000ADFB012008BD864A9149C2F8C030302097
:10380000042216F0A3FB012008BD814A8D49C2F8AD
:10381000BC302F20042216F099FB012008BD7C4A01
:103820008949C2F8B8302E20042216F08FFB0120FF
:1038300008BD774A8549C2F8B4302D20042216F01D
:1038400085FB012008BD724A8149C2F8B0302C20A6
:10385000042216F07BFB012008BD6D4A7D49C2F8A9
:10386000AC302B20042216F071FB012008BD684A01
:103870007949C2F8A8302A20042216F067FB0120FB
:1038800008BD634A7549C2F8A4302920042216F005
:103890005DFB012008BD5E4A7149C2F8A0302820B6
:1038A000042216F053FB012008BD594A6D49C2F8A5
:1038B0009C302720042216F049FB012008BD544A01
:1038C0006949C2F898302620042216F03FFB0120F7
:1038D00008BD4F4A6549C2F894302520042216F0ED
:1038E00035FB012008BD4A4A6149C2F890302420C6
:1038F000042216F02BFB012008BD454A5D49C2F8A1
:103900008C302320042216F021FB012008BD404A00
:103910005949C2F888302220042216F017FB0120F2
:1039200008BD3B4A5549C2F884302120042216F0D4
:103930000DFB012008BD364A5149C2F880302020D5
:10394000042216F003FB012008BD314A4D49D3671C
:103950001F20042216F0FAFA012008BD2C4A4A4919
:1039600093671E20042216F0F1FA012008BD284AB0
:10397000464953671D20042216F0E8FA012008BDCD
:10398000234A434913671C20042216F0DFFA012062
:1039900008BD1F4A3F49D3661B20042216F0D6FA01
:1039A000012008BD1A4A3C4993661A20042216F0E9
:1039B000CDFA012008BD164A384953661920042261
:1039C00016F0C4FA012008BD114A354913661820C3
:1039D000042216F0BBFA012008BD0D4A3149D36517
:1039E0001720042216F0B2FA012008BD084A2E4919
:1039F00093651620042216F0A9FA012008BD044A96
:103A00002A4953651520042216F0A0FA012008BDAA
:103A100004810220E112000055120000C9110000CB
:103A20003D11000041170000B516000029160000E6
:103A30009D1500001115000085140000F913000009
:103A40006D13000081340000751F0000E91E0000A6
:103A50005D1E0000D11D0000451D0000B91C0000C6
:103A60002D1C0000A11B0000151B0000891A00007E
:103A7000FD19000071190000E51800005918000038
:103A8000CD17000095340000A5340000B5340000C7
:103A9000C5340000D5340000E5340000F5340000E2
:103AA00005350000153500002535000035350000CE
:103AB0005F4A604913651420042216F047FA01207A
:103AC00008BD5B4A5C49D3641320042216F03EFA19
:103AD000012008BD564A594993641220042216F069
:103AE00035FA012008BD524A554953641120042279
:103AF00016F02CFA012008BD4D4A524913641020DB
:103B0000042216F023FA012008BD494A4E49D36326
:103B10000F20042216F01AFA012008BD444A4B492E
:103B200093630E20042216F011FA012008BD404ACA
:103B3000474953630D20042216F008FA012008BDFE
:103B40003B4A444913630C20042216F0FFF901207C
:103B500008BD374A4049D3620B20042216F0F6F91B
:103B6000012008BD324A3D4993620A20042216F022
:103B7000EDF9012008BD2E4A39495362092004227B
:103B800016F0E4F9012008BD294A364913620820DD
:103B9000042216F0DBF9012008BD254A3249D36121
:103BA0000720042216F0D2F9012008BD204A2F492F
:103BB00093610620042216F0C9F9012008BD1C4AB1
:103BC0002B4953610520042216F0C0F9012008BDDD
:103BD000174A284913610422104616F0B7F901204C
:103BE00008BD134A2449D3600320042216F0AEF91D
:103BF000012008BD0E4A214993600220042216F0DC
:103C0000A5F9012008BD0A4A1D495360012004227C
:103C100016F09CF9012008BD054A1A4913600020DE
:103C2000042216F093F9012008BD002008BD00BF52
:103C3000048102204535000055350000653500003F
:103C4000753500008535000095350000A53500006C
:103C5000B5350000C5350000D5350000E53500005C
:103C6000F535000005360000153600002536000049
:103C70003536000045360000553600006536000038
:103C80007536000085360000F8B5044615460E4628
:103C90000846022116F002FA2846022116F0FEF923
:103CA000164A174B52F83610012001F500772760AD
:103CB000207252F83520607202F5007700206760AC
:103CC000E060013BFDD191F8003292F8002203F050
:103CD0000103D20744BF43F00203DBB2A3722146C3
:103CE0003046FFF7D7FC214620742846FFF7D2FC68
:103CF000237C184420742046F8BD00BF38F7030029
:103D0000C0D401002DE9F0412DED048B6F487049BE
:103D100090F800E06F4C704E704A714B714F724DCD
:103D20003F7803C9206096E80300A06092E8030092
:103D3000E06093E8070004F1140303C395E803006F
:103D400023F8022BF821022F4FEA12424FF0100500
:103D5000616008BF0027D421BEF1010F1A708EB038
:103D600025616062A1625ED0604B18681BF018FC90
:103D700004AECDE900015E4A282130461CF05AFF0E
:103D80003146054604F12C001DF018F92C35594B2D
:103D9000DFF840810FCBB646AEE807000D228EF863
:103DA00000303146601915F0EBFE3B46524A28219F
:103DB00030461CF03FFF0C350746314660191DF0B8
:103DC000FDF84E4B1B783D44FBB14D4B4D4A1B78E3
:103DD000282130461CF02EFF3146074608EB05002F
:103DE0001DF0ECF8484B494A1B7803EB830303EBC7
:103DF0008303282130461CF01DFF3D443146074611
:103E000008EB05001DF0DAF83D4420233146601927
:103E10000222ADF8103015F0B3FE2E480EB0BDEC06
:103E2000048BBDE8F0813A4B3A4E1B783A495A0868
:103E3000A6FB02029208C2EBC200A3EB4003DBB276
:103E400007EE103A07EE902AB8EEC77AB7EE089A56
:103E5000F8EEE76A27EE097AF3EE048AA6EEA87A6E
:103E60000D78B1EE088A77EE487A17EE900A1BF0CB
:103E700097FB6B08A6FB03239B08C3EBC302A5EBD0
:103E80004205EAB207EE902A07EE103AF8EEE77A1A
:103E9000B8EEC77A67EE897ACDE90201E7EE287AB3
:103EA00004AE77EEC87A17EE900A1BF079FB1B4A36
:103EB000CDE90001304628211CF0BCFE3146054604
:103EC00004F12C002C351DF079F860E7C069022060
:103ED000484C0200447A0220504C0200584C020028
:103EE000604C02003C4202206C4C0200DC5E02206E
:103EF0008C4C02009C4C0200AC4C0200A15C0220E5
:103F0000F3410220C04C0200CE410220D04C0200FE
:103F10001F7102209324499265420220744C0200D2
:103F20003E4B93E80300F0B53D4D3E4E28600FCE6A
:103F30008DB002AC0FC4D6F800E0C4F800E002AEC9
:103F40000FCE394F05F108060FC60FCFC6F800E0B7
:103F50004FF4FC7C3F68C5F804C002AE0FC602A94E
:103F6000277005F11B001DF029F8304A304B02A8DC
:103F700028211CF05FFE02A9044605F12B001DF06C
:103F80001DF82C4B18681BF00BFB2B4ACDE90001E8
:103F900002A828211CF04EFE2B34064602A928193F
:103FA0001DF00CF8254B264A1B78022B08BF002376
:103FB00002A828211CF03EFE344402A90646281916
:103FC0001CF0FCFF1F4A204B1168204A03EB011331
:103FD00002A89B6828211CF02DFE3444034602A948
:103FE00028191C441CF0EAFF194B1A4A02A8282180
:103FF0001CF020FE02A9064628191CF0DFFF164B14
:10400000164A02A828211CF015FE301902A92844DE
:104010001CF0D4FF28460DB0F0BD00BFE04C0200FC
:10402000B0760220E84C0200FC4C02001C4D02005D
:10403000104D0200DC5E0220344D02003C420220A2
:10404000484D020068420220E06F02005C4D020011
:104050000C5C0220704D0200D85B02208C4D0200E7
:104060001A4A1B491B4BF0B5D2F800E01A4F1B4E01
:104070001B4D1C4C024603C9186097E8030098606A
:1040800096E80300D86095E803001749586204EBEE
:104090000E1403C9A468C3F8A400AC3A22F00100CE
:1040A00000F5697E10210122670002267825C3F8F9
:1040B000A800C3F804E09C61DF611E849D62196161
:1040C00059849A82DA821846F0BD00BF6842022005
:1040D000A04D02006C710220A84D0200B04D0200FC
:1040E000B84D0200E06F0200C04D020070B5A2B0F2
:1040F000664B0093664A674B674850211CF09AFD57
:10410000002302A8644A65490CF0D2FB149B002BE3
:1041100000F0B280682015F083FE04464FF47A75F3
:104120009DF80C00049A9DF814305D49A5605D4E21
:10413000207600256161E26106A984F820302660BE
:1041400025712573256104F124000CF02DFA2369F3
:10415000554A6261013323616566544B029306A898
:104160000CF050FA23680095596B0022002320467A
:104170008847236820469B6A242202A998479DF815
:1041800021509DF820309DF8222003EB052313EBEE
:10419000024547D09DF80D609DF80C209DF80E302B
:1041A0009DF80F009FED427A424902EB062202EB96
:1041B000034303EB0063A3F5697307EE903AF8EE4F
:1041C000677A67EE877A07EE105AF8EEC76A87EECD
:1041D000A67ABCEEC77A81ED007A3CB3236804224C
:1041E00002A99B6A204698470422334902A81CF082
:1041F0002FFA30B3314B002103F1780203F8011F8D
:104200009A42FBD15CB1236820461B6C9847236916
:10421000013B23611BB9236820461B6A9847284647
:1042200022B070BD234B1D60002CD7D102A8042200
:1042300021491CF00DFA0028DCD1214B01221A7013
:104240000EE01F4A2368012111709B6A042202A913
:1042500020469847236802A99B6A782220469847FF
:10426000164B0DF1070203F1780012F8011F03F855
:10427000011F9842F9D1C5E7159C002C7FF44AAF85
:104280000A4B029306A80CF0BDF978E7A45C022063
:10429000C84D0200685D022000510220F47B02201C
:1042A000DC460200B4470200304702000C4702001F
:1042B0000000FA43BC780220B84D0200C75D02201E
:1042C00028720220F0B5444D296891B0064621B10C
:1042D0000023424A42480CF0DFF9424C4049002397
:1042E000324604F110000CF017FA3F49A06C00238D
:1042F0000B70002869D050220BF0C4FA3B480CF038
:1043000081F937480CF07EF9296821B10023364A3B
:1043100033480CF0C1F9334F002519E00BF0B2FA25
:104320003349684615F04EFB324904A815F04AFBA4
:1043300004A9684615F05AFB10B304A815F002FB57
:10434000684615F0FFFA0135ADB228480CF05AF96D
:104350000022234925480CF015FA254B002650224F
:10436000194648B3BC6C1E702046002CD6D1FC6C9C
:10437000502219462046002CD2D008F0D3FECFE7B9
:104380001B4908A815F01EFB1B490CA815F01AFBC9
:104390000CA908A815F02AFB04460CA815F0D2FABF
:1043A00008A815F0CFFA04A815F0CCFA684615F065
:1043B000C9FA002CC9D0C6E70C480CF023F908480C
:1043C0000CF020F9284611B0F0BDE06C002895D023
:1043D000502208F0A7FE91E7987B0220D04D020002
:1043E000CC790220AC54022084560220BC54022016
:1043F000A45C0220D44D0200DC4D0200F0B5594D02
:10440000296891B0064621B10023574A57480CF05D
:1044100043F9574C55490023324604F110000CF083
:104420007BF95449A06C00230B70002800F08E80AB
:1044300050220BF027FA50480CF0E4F84B480CF0EF
:10444000E1F8296821B100234A4A48480CF024F9D0
:104450004A4EB06C10B100210AF030FFF06C18B178
:104460000022002309F018F8454D414C00232B8011
:104470002EE050220BF006FA4249684615F0A2FAE7
:10448000414904A815F09EFA04A9684615F0AEFA51
:10449000002830D004A815F055FA684615F052FAF5
:1044A000B36C2A883549002B49D05B695B09013B15
:1044B0009BB2364940F2E63001EB4201824298BF9E
:1044C0000132A1F8DC3798BF2A802B480CF09AF80B
:1044D0000022264928480CF055F940B32949A06C20
:1044E00000230B700028C4D1E06C0028C4D05022F7
:1044F00008F018FEC0E7234908A815F063FA24491C
:104500000CA815F05FFA0CA908A815F06FFA074679
:104510000CA815F017FA08A815F014FA04A815F05D
:1045200011FA684615F00EFA002FCED0B8E71248FF
:104530000CF068F80D480CF065F811B0F0BDCB6CCC
:1045400063B11B685B09013B9BB2B2E7E06C0028DA
:104550003FF471AF502208F0E5FD6CE74FF6FF73B2
:10456000A7E700BF987B0220D04D0200CC79022043
:10457000AC54022084560220BC540220BC79022094
:104580007C560220A45C0220D44D02000002FF1FD2
:10459000DC4D020038B5054616480CF033F8164BD2
:1045A000196821B10023154A12480CF075F8144C13
:1045B000104900232A4604F110000CF0ADF811490F
:1045C000A06C00230B7068B150220BF05BF9094816
:1045D0000CF018F80C4B1B781BB9FFF787FD0B4B41
:1045E000186038BDE06C0028F1D0502208F09AFD28
:1045F000EDE700BFCC790220987B0220685D0220A5
:10460000AC540220A45C0220A1790220A0760220F2
:104610002DE9F04F7B487C4E97B00BF0F3FF7B48C1
:104620000BF0F0FF316821B10023794A77480CF094
:1046300033F8784DA86C10B100210AF03FFEE86C09
:1046400018B10022002308F027FFDFF8DCA1DFF813
:10465000D4810023AAF80030444600226B496948FF
:104660000CF090F80746002842D06B49A06C00235C
:104670000B7040B350220BF005F9D8F8483063B303
:104680001B7813F0700F14BF01230023BBB1AB6C78
:10469000BAF800205F49002B00F0AA805B695B0933
:1046A000013B9BB25D4940F2E63001EB42018242A0
:1046B00098BF0132A1F8AC3F98BFAAF8002051483A
:1046C0000BF0A0FFC9E7E06C0028F8D0502208F0FA
:1046D00029FDD8F84830002BD2D1E36C002BEED066
:1046E00093F8313013F0500F14BF01230023CDE7AE
:1046F00044480BF087FF45480BF084FF316821B137
:104700003B46434A41480BF0C7FFBAF80030012B43
:1047100065DD4FF001094F46002F58D000273D4678
:10472000CDF804903E4C2FE050220BF0ABF835480A
:104730000BF068FF002334F8022F344931480BF0A6
:10474000EBFFD8F84800002301358DF80830002829
:1047500033D002AE314650220BF094F829480BF0CA
:1047600051FF2D481BF044FC834630461BF040FCB3
:10477000834507DD34F8023C228824F8022C0137F7
:10478000BFB22380BAF80030C9EB0302954220DAA9
:1047900000231E4922881B480BF0BEFF1E49D8F893
:1047A000480000230B700028BED11E4BD86C002897
:1047B000BDD0502208F0B6FCB9E71A4BD86C02AE57
:1047C0000028CBD03146502208F0ACFCC6E7CDF82B
:1047D000049001995A1E8A4209F101099CDC09489A
:1047E0000BF010FF09480BF00DFF17B0BDE8F08F7C
:1047F000CB6C23B11B685B09013B9BB252E74FF6C0
:10480000FF734FE7BC540220987B0220CC79022032
:10481000D04D0200BC790220845602200002FF1F06
:10482000AC11FF1FAC540220905102202DE9F04F33
:104830005D4FBB6C95B0002B00F0A7805B480BF080
:10484000E1FE5B4B5B4E18685B4D5C4CDFF8A8B13A
:10485000DFF8A8A1DFF8A891DFF8A881FDF7F0FB49
:10486000336822682968019103F2B27300925021E3
:10487000534A54481CF0DEF9336822682968DBF893
:10488000000001910092DAF80010D9F8002004909D
:1048900003F2B2730391029250214B4A4B481CF031
:1048A000C9F94A4A4A4850211CF0C4F933682A68B9
:1048B0002468DAF80000D9F80010DBF800600390F3
:1048C000029101921421049603F2B2730094414ABA
:1048D00041481CF0AFF9D8F8001021B100233F4A3D
:1048E0003F480BF0D9FE3F4D364A3F4805F11001D5
:1048F00001230BF09BFE0446E8B13C49344B009386
:1049000001240C702F4B3A4A304850211CF092F988
:10491000D8F8001029B140F201232C4A23480BF0AB
:10492000BBFEB86C204B002834D032490AF0ACFAF8
:1049300015B0BDE8F08FAE6CB6B103468DF8180027
:104940003146204A8DF8194006A88DF81A400AF021
:104950002DFA0028DCD01E4B0093254A194B1B482A
:1049600050211CF067F9D3E7E96C0029D0D0334619
:10497000144A8DF8496006A88DF84A608DF84B609E
:1049800008F0F8FF0028C3D0E5E7FB6C002B7FF4AC
:1049900055AF56E7D86C0028CAD0164A002309F054
:1049A0005BFB15B0BDE8F08FAC540220BC54022074
:1049B00000D00340487B0220C8600220805E0220B5
:1049C000E44D020018760220F44D0200A45C02209F
:1049D0000C5C0220144E0200D85B0220D04D020075
:1049E0008855022078550220CC790220A876022032
:1049F000344E0200C0E1E400985302201C720220F1
:104A0000F4750220987B02202DE9F041A74F3D6804
:104A1000C5F35115ADF5856D002D00F03381A44C23
:104A2000A44E04EB8535B04605E00AF0E1FD04F53F
:104A30008044AC4214D0B36C4FF4804221461846F7
:104A4000002BF2D1D8F84C3021464FF48042184662
:104A5000002BECD004F5804409F000FCAC42EAD114
:104A60000023944D3B6004E00AF0C2FD924814F02C
:104A70004DFD914814F000FD00288F4813DD14F01F
:104A800029FDB36C044601464FF480721846002B92
:104A9000EAD1EB6C4FF4807221461846002BE5D02A
:104AA00009F0DCFBE2E7B06C824B002800F0A0804C
:104AB0000AF062FDB06C7F4B002800F0EE80002110
:104AC0000AF0FCFBB36C7B4A002B00F0D080DF695E
:104AD00000253C463846FFF7C3FAAC2201461FA822
:104AE00015F04EF8B06C734B002800F0B780002131
:104AF0000AF0E4FBB06C6F4B002800F0A6801FA901
:104B0000AC220AF075FDB06C6A4B002800F0BC8046
:104B10002C210AF0D3FB694A9FED697A02F5F07007
:104B2000134653F8041F07EE901AF8EE677AF4EE76
:104B3000477AF1EE10FAC8BFB0EE677A9842F0D12A
:104B4000B5EE407AF1EE10FA1CBFF7EE007A87EE70
:104B5000877A0DF10301DFED5B6A52F8043F07EE3F
:104B6000903AF8EE677A904267EE877A67EEA67A17
:104B7000FCEEE77A17EE903A01F8013FEDD1B06C08
:104B80004C4B002852D0782201A90AF031FDB06CBC
:104B9000484B002855D1D86C18B122462B4608F056
:104BA0007BFCFFF7AFF84FF4807201464AA814F07F
:104BB000E7FFB06C3F4B80B34AA94FF480720AF014
:104BC00017FDFFF7ADF94FF4007201468AA814F003
:104BD000D7FFB06C374B88B18AA94FF400720AF046
:104BE00007FD39480BF00EFD0DF5856DBDE8F08130
:104BF000D86C002842D009F0BFFA5BE7D86C0028D7
:104C0000EFD08AA94FF4007209F028FB2E480BF070
:104C1000F9FC0DF5856DBDE8F081D86C0028D0D089
:104C20004AA94FF4807209F019FBCAE7D86C002832
:104C3000B7D0782201A909F011FBB06C1D4B0028F8
:104C4000A9D039460AF03AFBABE7D86C00283FF40C
:104C500062AF1FA9AC2209F001FB54E7D86C002811
:104C60003FF459AF0022002308F016FC42E7D76C4E
:104C70002FB1D7E90445002527462BE70746002436
:104C8000002527E70B4EEBE6D86C00283FF443AF36
:104C90002C22002308F000FC3DE7D86C0028EDD062
:104CA0000022002308F0F8FB0CE700BF107602207A
:104CB0008019FF1FAC54022084580220905102201A
:104CC0000000000000004843BC5402202DE9F043DE
:104CD0003B4EC1B0374619E0DFF8F080002533685D
:104CE000384805EB430308EB032414F0F3FB4FF4BF
:104CF00080720146204614F043FF0135314814F01C
:104D000005FC022DEBD13B6801333B602D4814F0CC
:104D1000B3FB0128E0DC3368BF2B4ED9DFF8AC8051
:104D2000294D444608F5C037A94605E00AF060FC65
:104D300004F58044BC4214D0AB6C4FF48042214651
:104D40001846002BF2D1D9F84C3021464FF480425E
:104D50001846002BECD004F5804409F07FFABC42E1
:104D6000EAD10025294668464FF4807235601BF071
:104D700005FD144808EB052414F07EFBD8B111485A
:104D800014F0A8FB4FF480720146204614F0F8FEA0
:104D90000C4814F0BBFB21464FF4807268461BF0B0
:104DA00057FC0028E5D00135064808EB052414F02F
:104DB00063FB0028E3D16D08356041B0BDE8F083A6
:104DC0001076022084580220AC5402208019FF1F64
:104DD0002DE9F043DFF884C1594A9CF800300025E2
:104DE0001570002B00F090805F1EFFB2554A564BA5
:104DF00092F800E0DFF86881013707EB470703EB23
:104E0000870703F10804BEF1000F5CD0197A05EBA7
:104E10004506A4F1080208EB860605F1010921B157
:104E200007CA86E807005FFA89F50C33BB4204F134
:104E30000C04E8D1454E8CF800503778A7B17D1EA0
:104E4000EDB2013505EB4505DFF8FCC0DFF814E1F4
:104E5000AD0000230CEB030207CA0EEB03040C3376
:104E6000AB4284E80700F5D1394B3A4A3A4DDFF8B6
:104E7000F890DFF8F880DFF8F8C0377008240A21CE
:104E800006205C70D9700D24042198709E461C7019
:104E90001E46117000206CB301220027C1B2531EC0
:104EA000DBB203EB430388B301293ED0022936D09D
:104EB00005EB83031B7A0BB10137FFB2A2423AD252
:104EC0000132D2B2EBE714F8082CA2F164010129F7
:104ED000ABD9672AA9D0197A05EB4506A4F10802D7
:104EE00008EB86060029A0D007CA013586E807002E
:104EF000EDB29AE7274601300428377002D016F841
:104F0000014FC8E7BDE8F0831D4693E70CEB830330
:104F10001B7A0BB10137FFB2A242D1D3EBE709EB09
:104F200083031B7A002BF7D0F4E708EB83031B7A8B
:104F3000002BF1D0EEE70EF80070BDE8F08300BF63
:104F4000D85E02209857022034B503007C4102202D
:104F50009C570220D44102201CA803005C4202207E
:104F6000C078022024550220A4480200DC70020010
:104F700094A80300FFFFFFFF30B5044B1B680446F5
:104F800083B018460D46FDF75BF801E000D0034002
:104F9000FF2C00F21B81DFE814F0C502BA02B80250
:104FA000AD023B022F0219012D022402DC0219017D
:104FB0001901D20219011901190119011901190167
:104FC0001901190119011901190119011901190111
:104FD0001901190119011901190119011901190101
:104FE00019011901190119011901190119011901F1
:104FF00019011901190119011901190119011901E1
:1050000019011901190119011901190119011901D0
:1050100019011901190119011901190119011901C0
:1050200019011901190119011901190119011901B0
:1050300019011901190119011901190119011901A0
:105040001901190119011901190119011901190190
:105050001901190119011901190119011901190180
:105060001901D002C8020303190119010103190132
:105070001901190119011901190119011901190160
:10508000190119011901190119019C018401F90182
:105090001901190119011901190119011901190140
:1050A0001901190119011901190119011901190130
:1050B0001901190119011901190119011901190120
:1050C000190119011901ED01EB01E101D901CD012E
:1050D000AC01A4011B0213020F02190119011901ED
:1050E00019011901190119011901190119011901F0
:1050F00019011901190119011901190119011901E0
:1051000019011901190119011901190119011901CF
:1051100019011901190119011901190119011901BF
:10512000190119011901190119011901FB01650181
:1051300059011901190119011901190152014A01F5
:1051400042013A0119012E01190119011901190130
:1051500019012C0124011C0119011901190119015E
:10516000190119011901190119011901190119016F
:10517000190119011901190119011901190119015F
:10518000190119011901190119011901190119014F
:1051900019011901190119010001032D00F20C82F6
:1051A0009F4BA04853F8252014211BF043FD9E4B34
:1051B0001B78AB420AD19D4B1B78002B40F03C8200
:1051C0009B4D984C0FCD0FC42B682360954803B0BE
:1051D00030BD984B984A1B88924814211BF02AFD39
:1051E000F4E7964B964A1B688E4814211BF022FD6B
:1051F000ECE7944BF6E7944B1B78002B40F0ED80E6
:10520000924B884A1B6813801B0C9370DEE7904B0F
:10521000904A9B68834814211BF00CFDD6E78C4B09
:105220008C4A5B687F4814211BF004FDCEE7884B55
:10523000884A1B687B4814211BF0FCFCC6E7864BA0
:10524000784819680C221BF0D9FFBFE7834B93F90C
:105250000030012B00F0D381814A724B07CA03C38F
:105260001A70B3E77F4B804C1868FCF7E9FE94F99D
:105270000030002B00F0A481012B00F0CB81022B29
:10528000A4D17A4B7A497B4A1B680968126800925C
:10529000019103F2B273784A624814211BF0CAFCF0
:1052A00094E7764B1B889FED767A07EE903AF8EEFE
:1052B000E77A67EE877A17EE900A1AF071F9714A69
:1052C000CDE90001142157481BF0B4FC554803B048
:1052D00030BD6D4B1B78002B7FD0524B6B4A1A6050
:1052E00074E76B4B5B4A1B784E4814211BF0A2FC01
:1052F0006CE7684B1B7868495A08A1FB02129208B8
:10530000C2EBC201A3EB4103DBB207EE903AF8EE29
:10531000E77AB7EE087A67EE877A07EE102AB8EEDA
:10532000C77AF3EE046AE7EE267AB1EE087A77EEF2
:10533000C77AC0E7594B5A4A1B783A4803EB8303B4
:1053400003EB830314211BF075FC3FE7554B564AD2
:105350001B78344814211BF06DFC37E7534B1B7846
:105360003C4A304803EB830314211BF063FC2DE718
:105370004F4BF4E74F4A11684F4B504A294803EB13
:10538000011314215B681BF055FC1FE74C4B89E7A8
:10539000354C94F90030002B00F02481002B7FF76E
:1053A00015AF484A484B12681B681E4800921421EA
:1053B000464A1BF03FFC09E71A4B20221A8005E7FA
:1053C000434B187848B107EE900AFAEEEF7A72E78D
:1053D000404B1B78002B7FF413AF124B3E4A1A60F0
:1053E000F4E63E4B1B4A93F900300E4814211BF0A3
:1053F00021FCEBE63A4B7DE73A4B18681AF0D0F8FF
:10540000394ACDE90001142106481BF013FCDDE602
:10541000364B374A1B78034814211BF00BFCD5E6AA
:10542000B8410220847602202042022098570220B0
:10543000F04E02007C560220EC4E02008056022004
:10544000E44E020024720220DC410220CC4E020015
:105450007C790220584E020038570220B1410220C8
:10546000D84E020000D003404C5E0220487B022050
:10547000C8600220805E0220AC4E02006E42022014
:10548000CDCCCC3DBC4E0200C06902204F4E200066
:10549000904102201476022093244992CE410220AA
:1054A000744E0200F34102204C4E0200CC41022017
:1054B000F241022028420220E06F0200384E020032
:1054C000CA4102201C720220F4750220B04E020074
:1054D000995702207E5602204F464600C8410220BE
:1054E0007E42022078420220C44E02007D4102200A
:1054F000EC4D0200584B1B78022B7FF66EAF574ADB
:10550000574814211BF096FB60E6564A33E7564A8B
:10551000564B1168524853F82130554A14211BF05C
:1055200089FB53E6534A544BF3E7544B544A1B78D8
:105530004B4814211BF07EFB48E6524B07E7524BC9
:105540001B68012B64DD514A454814211BF072FB96
:105550003CE64F4B1B782BBB4E4B9FED4F7A93F99C
:10556000003007EE903AF8EEE77A67EE877A17EEAA
:10557000900A1AF015F841EC100B17F085FA34A3D5
:10558000D3E9002351EC100B1AF05EF8434ACDE941
:105590000001142132481BF04DFB17E6404BC5E7D4
:1055A000404B9FE603EB830303EB83033E4A2C4807
:1055B00014211BF03FFB09E6294B3C4A1A60F6E533
:1055C0003B4B3C493C4A1B680968126800920191B8
:1055D00003F2B273394A224814211BF02BFB94F9D1
:1055E000003049E6364A374B12681B681C48009267
:1055F0001421354A1BF01EFB94F90030CEE6334AE5
:10560000174B92E803000A0C186099809A71DDE547
:105610002F4AF5E7264B2749274A1B680968126875
:105620000092019103F2B2732A4A0D4814211BF033
:1056300001FB94F9003022E6274B094C0FCB07C43D
:1056400024F8023B1B0C2370C0E500BFAFF30080C1
:1056500000000020AEC727403C4202204C4E020012
:1056600084760220D0410220604202209441022030
:10567000384E0200704202208842022084420220FA
:10568000604E0200CD410220804102207C4E02008B
:1056900023420220287A0220CFF7D33D684E020031
:1056A0002542022074420220744E02003F3F3F0018
:1056B000487B0220C8600220805E02208C4E0200DF
:1056C0001C720220F4750220A04E0200D04E02008F
:1056D000844E02009C4E02003C4E020070B582B027
:1056E00070B9644A1378194449B2002936DB5A2943
:1056F000A8BF5A2108461170FDF758FE02B070BDD0
:10570000032811D15C4B1B78012BF7D05B4A13683F
:1057100019440E29A8BF0E2121EAE1710846116043
:10572000FDF7B2FD02B070BD01281CD1544A1378B8
:10573000194449B2002913DB2729A8BF27214BB2FE
:10574000C9B25048504D0068504C13700128297060
:105750002370D3D14E48FDF7F1F9CFE70146C9E7F1
:1057600000210B46EDE704280CD14A4A13680133A7
:10577000022B05DC002BB8BF0223136002B070BD02
:105780000023FAE702284FD1434B1B68002BB5D109
:10579000424C434D23680093009B2A689B1AB3F543
:1057A000FA7F58D2F92B62D8642B41F2883328BF94
:1057B0004FF4FA633B4A3C4E106896ED007A03FBC7
:1057C000010141F65733994242DDDFED386AC7EEF9
:1057D000267A4FF47A70FDEEE77A17EE903A013BA5
:1057E00000FB03F39942A8BF1946314B11600846EC
:1057F0001960FDF7E5F92F4BD3ED007AF5EEC07A8D
:10580000F1EE10FA2AD4B7EE007AF4EEC77AF1EE90
:1058100010FA25DD4FF48033226801920199264A5F
:105820002960536202B070BD05287FF467AF234A38
:10583000137803EB4101C9B2012907D93229A8BF66
:1058400032211170FDF712FA02B070BD0221F8E7A3
:1058500041F65831C9E74FF4FA73ABE70023DBE7B1
:10586000B0EE677ABEEEC87A17EE103AD4E74FF47E
:105870007A739FE7D456022020710220D041022083
:105880007E420220AC41022094530220287A02205A
:105890008C79022088410220EC4102202C830220D6
:1058A0007C760220784102207C5E02200000FA44CF
:1058B000D0650220D8410220FC5402203C42022044
:1058C000692838B519D009280DD066283BD1AD4AD2
:1058D0001478052313FB0143C82B31DC0E2B09DCA4
:1058E000C82313701AE0A84A13780B44C82B24DC91
:1058F000002BF5DBDBB2137010E0A44C23780B44D3
:10590000102B18DC032B45DDDBB2A14A23700024E9
:1059100082F8243082F8254082F82640962840F00C
:1059200097809C4A136819440E292CDC0429D8BF9F
:105930000E21116038BD0423E7E700231370EDE763
:105940000F231370EAE764282AD1934A137803EBF4
:105950004103232B1ADC002B1EDB07EE903A9FED50
:105960008F7AF8EEE77ADBB227EE877A8C4D8D4C92
:10597000D5ED006A1370C7EE267AFDEEE77A17EED2
:10598000903A2370CAE70521116038BD9FED867AF1
:105990000023EBE71023B8E79FED847A2323E5E7A4
:1059A00065280ED1824A13780B441E2B43DC042B4E
:1059B00048DDDBB27F4D764C13702B7084F82730B6
:1059C000ACE702280B4604460CD17B490A68134415
:1059D0000E2BA8BF0E2323EAE37318460B60FDF7D6
:1059E00053FC38BD072814D1744A11780B4459B2BE
:1059F000002922DB2729A8BF27214BB2C9B2704852
:105A0000704D0068704C13700128297023701BD0F2
:105A100038BD08284DD16D490A7813445BB2002B7C
:105A20000EDB5A2BA8BF5A23694A0B701846137015
:105A3000FDF7BCFC38BD0523BCE700210B46DEE7C3
:105A40000023F1E71E23B5E76248FDF777F838BD7C
:105A50009A2818D1604A13781944C8290EDC002905
:105A60000FDDC9B2117038BD9D2840F006815B4A38
:105A700013781944012919DC0029F2DA0121117087
:105A800038BDC821EEE79B28EED1554A137819445A
:105A900027290BDC0029E4DA2721E3E7782840F006
:105AA0000881504A137819440129E5DD002111705D
:105AB00038BD03280FD14C490A7802EB4303DBB20F
:105AC000012B06D9322BA8BF32230B70FDF7CEF87D
:105AD00038BD0223F9E7052826D1444ADFED446AA0
