:1000000000000320D101000059070200110702007F
:100010001107020011070200110702001107020078
:100020001107020011070200110702005907020020
:100030005907020011070200C12B0200C52B020064
:100040005907020059070200590702005907020028
:100050005907020059070200590702005907020018
:100060005907020059070200590702005907020008
:1000700059070200590702005907020059070200F8
:1000800059070200590702005907020059070200E8
:1000900059070200590702005907020059070200D8
:1000A00091F100009DF1000059070200590702007C
:1000B000590702005907020059070200F11902000E
:1000C00059070200590702005907020059070200A8
:1000D0005907020059070200590702005907020098
:1000E0005907020059070200590702005907020088
:1000F0005907020059070200590702005907020078
:100100005907020059070200590702005907020067
:1001100059070200351D0200590702005907020065
:100120005907020059070200590702005907020047
:100130005907020059070200590702005907020037
:1001400069E7000059070200590702005907020039
:100150005907020059070200590702005907020017
:100160005907020059070200A9F1000059070200CF
:1001700059070200590702005907020059070200F7
:1001800059070200590702005907020059070200E7
:1001900059070200590702005907020059070200D7
:1001A00059070200590702005907020059070200C7
:1001B00059070200590702005907020059070200B7
:1001C00059070200590702005907020059070200A7
:1001D0005C4B4CF2205210B51A804DF628121A8052
:1001E00000BF00BF20F0BCFA574B4FF030621A60DE
:1001F000564A9A60564ADA60564B4FF470021A60BB
:10020000554B564A1A60564B1A78110703D51A787F
:1002100042F008021A70534B5349AA221A70534AEB
:10022000534B8B4204D252F8040F43F8040BF8E707
:10023000504B514900228B4202D243F8042BFAE77B
:100240004E494F4A002352F8230041F8230001335E
:10025000742BF8D14B4B4C4A802103F8011B93427D
:10026000FBD14A4B454A1A60494B8A221A70A3F5C2
:10027000805324225A70A0221A709A799207FCD5D2
:100280009A79D406FCD4434A937903F00C03082BE3
:10029000FAD1414B60221A7002331A78802AFCD1BD
:1002A0003C4B01221A715D225A719A799006FCD555
:1002B0009979384A4906FBD5384B394919600021EC
:1002C000596020231370937903F00C030C2BFAD19F
:1002D000344B354A1A60354A354C136813F4807331
:1002E00003D123604FF4A8531360324B324A1A6093
:1002F00000225A60072243F8042C304AC3F80C2D20
:1003000062B620F0B3FE2368DA0705D52C4820F04A
:10031000B5FB2C4B2C4A1A602C4B1B785B0609D57D
:10032000284C294B22689A4204D1254820F0A6FB8C
:100330000023236027F070FA20F018FA20F00CF95F
:10034000FEE700BF0E20054030800440823F0400DD
:100350000100002B88ED00E0002008E0030000858C
:1003600002D0074000E0074000510220A4910500A0
:10037000303F022000510220E8850220003A02208E
:100380000000000000E400E064E400E008ED00E0AC
:10039000005006400040064001E007404480044011
:1003A0000000060204800440C010070010D0034083
:1003B00014D0034014E000E01FBF02000000202022
:1003C00090EA5A621CE00340A5C3945A00F007402B
:1003D000FFFFFFFFFFFFFFFFFFFFFFFFFFFFFFFF2D
:1003E000FFFFFFFFFFFFFFFFFFFFFFFFFFFFFFFF1D
:1003F000FFFFFFFFFFFFFFFFFFFFFFFFFFFFFFFF0D
:10040000FFFFFFFFFFFFFFFFFFFFFFFFDEF9FFFF23
:1004100010B5054C237833B9044B13B10448AFF33E
:1004200000800123237010BD005102200000000055
:10043000A0910500084B10B51BB108490848AFF35F
:1004400000800848036803B910BD074B002BFBD0A0
:10045000BDE81040184700BF000000000451022012
:10046000A09105000051022000000000002070470C
:10047000704700BF00207047002070474FF0FF30EA
:10048000704700BF006910B103689B6A1847704746
:10049000006910B10368DB6A18477047006910B142
:1004A00003681B6918477047006910B103689B69AE
:1004B00018474FF0FF307047006910B10368DB68E0
:1004C00018477047006910B10168096B0847704709
:1004D00010B4006920B10468616B5DF8044B0847F3
:1004E0005DF8044B704700BF006910B103689B6B57
:1004F0001847002000217047006910B10368DB6BCA
:100500001847002000217047006910B103681B6C78
:1005100018477047006910B103685B6C1847704753
:10052000006910B103689B6C18470148704700BF11
:1005300010C60200006910B10368DB6C18477047F1
:1005400038B50B6904462BB11D6819462B6D9847C9
:10055000204638BD4FF47A70064A23712373A06099
:1005600022600B692361002BF2D01A6901321A61F3
:10057000204638BD54BF0200006910B103685B6DAE
:1005800018477047006980B100B5036883B09B6A63
:1005900001220DF10701984720B19DF8070003B033
:1005A0005DF804FB4FF0FF30F9E74FF0FF30704784
:1005B00010B582B002AB026803F8011DD46A194677
:1005C0000122A04702B010BDC36D0BB101207047DE
:1005D000006E003018BF0120704700BF704700BF99
:1005E0009FED057ADFED057AE0EE077AFCEEE77A1B
:1005F00017EE901A14F0F2BA00000143EE7CFF3EB1
:1006000010B50446406E18B127F050F90023636618
:1006100004F12400BDE8104012F046B810B5044BB8
:10062000044640F8103B12F03FF8204610BD00BFD2
:100630000CBF020010B5044602460369054906488E
:100640001FF01EFE206920B10368BDE810405B6A00
:10065000184710BDECC00200D845022002460369CD
:10066000014902481FF00CBE08C10200D845022013
:100670002DE9F041002394B01A460546243104A820
:100680004FF47A74254F8DF804308DF80C301293A6
:1006900013930294009712F0C7F8129B002B32D0EC
:1006A000682020F0CFF804469DF80460029A9DF877
:1006B0000C301B481B4926764FF47A7800262060C0
:1006C0006161E26184F8203004F1240004A92671FC
:1006D00026732661C4F8088011F0B8FF2369124A16
:1006E0006761013366662E71C5F808802E732C6130
:1006F00023612A600D4B009304A811F0D5FF284612
:1007000014B0BDE8F081139B002BC9D1064A2B71B0
:10071000AC602B732B612A60ECE700BF30BF020096
:10072000B4BF0200DCBE020054BF02000CBF0200D6
:1007300020F09EB9F8B50D46064615F091FB15F070
:1007400001FB044615F08CFB15F0EEFA074615F098
:1007500087FB15F0DBFAA4F2BC739BB27F2B02D8A7
:10076000FAB20C2A28D90023338015F079FB15F052
:10077000A3FA064615F074FB15F0ACFA044615F022
:100780006FFB15F0B5FAF3B2172B12D8E3B23B2B7F
:100790000FD8C3B23B2B0CD8F302640103F4FF2340
:1007A00004F4FF542343C0F3460003439BB22B8061
:1007B000F8BD00232B80F8BDC0B21F28D3D87F011D
:1007C00007F4FF57384340EA43239BB2CCE700BF0E
:1007D00010B504460EF038F9204610BD826C62B1A7
:1007E000137803F0080303F0FF0003B3D3695069E3
:1007F000181A48BF6FF000407047C16CC1B191F842
:10080000313003F0080303F0FF0083B1D1E9042382
:10081000D1E90001101A30B463EB010100256FF03B
:1008200000448D4208BF844200D2204630BC70474D
:1008300008467047836C13B1184610F06FBCC06C4B
:1008400008B10EF063BE4FF0FF30704700B5836C07
:1008500083B063B1184601220DF1070110F08EFB41
:1008600001280CD19DF8070003B05DF804FBC06CB3
:1008700028B101220DF107010EF074FDF0E74FF0F1
:10088000FF30F1E7C36D13B1184610F0C1BE006E22
:1008900008B10FF007BB704702684AB11369013B0A
:1008A000136103B17047006810B103681B6A1847F1
:1008B000704700BFD0B5C46D8CB1012B08BF002AB2
:1008C00001D30020D0BD1146204610F049FD00287C
:1008D000F7D0204610F0A2FE0028F2D0D0BD046E62
:1008E000002CEED020460EF029FE0028E9D020464C
:1008F000BDE8D0400FF092BC10B5044619B10129F3
:1009000011D0002010BD5522202114F029F8002814
:10091000F7D0E28842F00402204692B22421BDE8DA
:10092000104014F01DB840F273122A2114F018F888
:100930000028E6D088222021204614F011F8002853
:10094000DFD0E288204622F004022421BDE81040D6
:1009500014F006B8C36D13B1D86900217047036E57
:1009600013B118695969704718461946704700BF96
:10097000C36D13B1586900217047036E13B193E83A
:100980000300704718461946704700BFC36D13B186
:10099000184610F0F3BA006E08B10EF0E3BC4FF049
:1009A000FF307047C36D13B1184610F0B7BB006E2F
:1009B00008B10EF0ABBD4FF0FF307047C36D33B1DF
:1009C0001B7813F0700F14BF012000207047006ED9
:1009D00030B190F8313013F0500F14BF01200020D7
:1009E000704700BF836C13B1184610F011BEC06C85
:1009F00008B10FF057BA7047C26D62B1137803F0B7
:100A0000080303F0FF0003B3D3695069181A48BF05
:100A10006FF000407047016EC1B191F8313003F0C2
:100A2000080303F0FF0083B1D1E90423D1E90001F9
:100A3000101A30B463EB010100256FF000448D42C1
:100A400008BF844200D2204630BC70470846704739
:100A5000C36D9BB11A7812F0700F00D1704710B5BA
:100A600004460021184610F07BFC206E28B10022BD
:100A70000023BDE810400EF061BD10BD006E0028DF
:100A8000ECD090F8313013F0500FE7D00022002363
:100A90000EF054BD836C13B1184610F0FBBDC06C52
:100AA00008B10FF02DBC7047C36D13B1184610F09C
:100AB000F1BD006E08B10FF023BC704700B5836C28
:100AC00083B08DF8071043B1184601220DF10701DC
:100AD00010F0E0FD03B05DF804FBC06C0028F9D015
:100AE00001220DF107010FF00BFC03B05DF804FBD0
:100AF0000269084B10B50446036042B11369013B1B
:100B0000136123B9006910B103681B6A9847204636
:100B100010BD00BF54BF0200C26A0949094B10B59D
:100B200004460160C36142B11369013B136123B9FB
:100B3000C06A10B103681B6A9847204610BD00BF09
:100B4000A841040054BF020038B5C36D144A0260C6
:100B5000044600F12405F3B1284611F0A5FD606EAE
:100B600008B126F0A3FE0F4B6361284611F09CFDEF
:100B700022690D4B236042B11369013B136123B914
:100B8000206910B103681B6A9847204668211FF04E
:100B90005FFE204638BD036E002BDDD1DFE700BFCE
:100BA000B4BF02000CBF020054BF020002690A4B2E
:100BB00010B50446036042B11369013B136123B9C8
:100BC000006910B103681B6A9847204614211FF082
:100BD0003FFE204610BD00BF54BF0200D0B4039CAE
:100BE00016461F4634B1012C1ED0022C0DD0002019
:100BF000D0BC7047C46DDCB1012B08BF002AF6D20F
:100C000020461146D0BC10F0ABBBC36DB3B1DA695E
:100C1000B61847F10007012F08BF002EE7D2314672
:100C20001846D0BC10F09CBBC36D8BB15A69EFE77E
:100C3000006E0028DBD0D0BC0EF080BC006E002817
:100C4000D5D0D0E9042392197B41D0BC0EF076BCFC
:100C5000006E0028CBD0D0E9002392197B41EAE74F
:100C600038B5C36D124A0260044600F12405D3B1C1
:100C7000284611F019FD606E08B126F017FE0D4BE5
:100C80006361284611F010FD22690B4B236042B1CD
:100C90001369013B136123B9206910B103681B6A12
:100CA0009847204638BD036E002BE1D1E3E700BF33
:100CB000B4BF02000CBF020054BF020038B5446E3E
:100CC0000CB1204638BD05464FF4807026F0E6FD95
:100CD0000146686680B1E86D0C7028B14FF48072EF
:100CE00010F022FE6C6EECE7286E40B14FF480727B
:100CF0000EF06AFA6C6EE4E7024C6C66E1E70C46B3
:100D0000DFE700BF1C5102202DE9F0419AB040F20C
:100D10000223A24AA24906A811F01CFE189B002B30
:100D200000F00A8268201FF08DFD044600259DF822
:100D30001C60089A9DF824309A489B4920604FF423
:100D40007A780AAF26766161E26184F8203004F196
:100D500024003946257125732561C4F8088011F0F7
:100D600075FC2369914A924E656601338DF80850EF
:100D7000CDF80C808DF810500594626123610196C6
:100D80008C4B0693384611F08FFC8B4B8B491A68BD
:100D90008B4C01A81FF074FA8A4B8B491A6801A882
:100DA0001FF06EFA894B8A491A6801A81FF068FA89
:100DB000884B89491A6801A81FF062FA874B884955
:100DC0001A6801A81FF05CFA864B874993F9002046
:100DD00001A81FF055FA854B854993F9002001A819
:100DE0001FF04EFA834B84491A6801A81FF048FA95
:100DF000824B83491A7801A81FF042FA814B82493D
:100E00001A7801A81FF03CFA804B81491A7801A892
:100E10001FF036FA7F4B80491A7801A81FF030FA8C
:100E20007E4B7F491A7801A81FF02AFA7D4B7E4934
:100E30001A7801A81FF024FA7C4B7D491A7801A882
:100E40001FF01EFA7B4B7C491A7801A81FF018FA94
:100E50007A4B7B491A7801A81FF012FA794B7A492C
:100E60001A7801A81FF00CFA784B79491A7801A872
:100E70001FF006FA774B78491A7801A81FF000FA9C
:100E8000764B77491A7801A81FF0FAF9754B764925
:100E90001A7801A81FF0F4F9744B75491A7801A863
:100EA0001FF0EEF9734B74491A7801A81FF0E8F9A6
:100EB000724B73491A7801A81FF0E2F9714B72491D
:100EC0001A8801A81FF0DCF9704B71491A8801A833
:100ED0001FF0D6F96F4B70491A8801A81FF0D0F99E
:100EE0006E4B6F491A8801A81FF0CAF96D4B6E4905
:100EF0001A7801A81FF0C4F96C4B6D491A7801A843
:100F00001FF0BEF96B4B6C491A7801A81FF0B8F9B5
:100F10006A4B6B4993F9002001A81FF0B1F9694BA6
:100F2000694993F9002001A81FF0AAF9674B6849A5
:100F30001A7801A81FF0A4F92268664901A81FF0D9
:100F40009FF96268644901A81FF09AF9A268634991
:100F500001A81FF095F9624B62491A7801A81FF0A9
:100F60008FF9614B61491A7801A81FF089F9604B2C
:100F7000604993F9002001A81FF082F95E4B9FEDB4
:100F80005F7AD3ED007A5E4967EE877A01A8FDEEBD
:100F9000E77A17EE902A1FF073F9B3E0604202205F
:100FA000987C0220B4BF0200DCBE020030BF020009
:100FB00054BF02000CBF02000842022028C10200F8
:100FC000187A02206C4202203CC1020084410220B7
:100FD00054C102004042022064C10200D8410220F4
:100FE00074C10200D07A022084C10200F8560220A7
:100FF00094C102007C410220A0C1020054420220A0
:10100000B4C1020081410220C4C10200A4420220F6
:10101000D8C10200D5410220E8C10200944202205A
:10102000F4C102003B42022000C202003D42022005
:1010300010C202007C42022020C202000E420220A6
:1010400034C20200D441022040C202009441022076
:101050004CC202000F42022058C20200D6410220B8
:1010600064C202009C76022070C202000A7702204D
:101070007CC20200BE57022090C202003D6A0220DC
:10108000A4C20200A6420220B4C20200884102208B
:10109000C8C2020086420220DCC20200D241022005
:1010A000ECC20200B4530220FCC2020040610220E4
:1010B00010C302004E42022024C30200B5410220A8
:1010C00038C30200954102204CC30200C0710220C7
:1010D00064C3020078C3020088C30200A0C30200F8
:1010E000B4410220B4C30200E5410220C8C302009B
:1010F00039420220D8C302008C4102200000C842BD
:10110000E8C30200059898B10368DB689847059822
:1011100070B103681B6C9847059A019642B1136938
:10112000013B136123B9059810B103681B6A984706
:1011300001201AB0BDE8F081199B002B7FF4F2ADBD
:101140004FF47A72044E8DF808308DF81030059304
:10115000039201960AAF13E654BF0200214B10B46C
:10116000D3F8A8201368506819780478507A137A55
:10117000044201EA03011BD0937A03F0030309B18F
:1011800043F0040343F008039910013B91720D2BC7
:101190000BD8DFE803F021071B070A152121150AE8
:1011A000071B0721D368013BD3605DF8044B7047F0
:1011B000937A03F003030029E6D043F00403E3E746
:1011C000D3685DF8044B023BD3607047D3685DF889
:1011D000044B0233D3607047D3685DF8044B01338E
:1011E000D3607047A8810220214B10B4D3F8AC2003
:1011F0001368506819780478507A137A044201EA27
:1012000003011BD0937A03F0030309B143F00403F5
:1012100043F008039910013B91720D2B0BD8DFE8C6
:1012200003F021071B070A152121150A071B0721B7
:10123000D368013BD3605DF8044B7047937A03F0A9
:1012400003030029E6D043F00403E3E7D3685DF825
:10125000044B023BD3607047D3685DF8044B023304
:10126000D3607047D3685DF8044B0133D360704797
:10127000A8810220214B10B4D3F8B0201368506825
:1012800019780478507A137A044201EA03011BD0DA
:10129000937A03F0030309B143F0040343F0080316
:1012A0009910013B91720D2B0BD8DFE803F0210759
:1012B0001B070A152121150A071B0721D368013BCB
:1012C000D3605DF8044B7047937A03F00303002961
:1012D000E6D043F00403E3E7D3685DF8044B023B38
:1012E000D3607047D3685DF8044B0233D360704716
:1012F000D3685DF8044B0133D3607047A8810220A6
:10130000214B10B4D3F8B4201368506819780478CE
:10131000507A137A044201EA03011BD0937A03F056
:10132000030309B143F0040343F008039910013BA0
:1013300091720D2B0BD8DFE803F021071B070A156C
:101340002121150A071B0721D368013BD3605DF8F3
:10135000044B7047937A03F003030029E6D043F06F
:101360000403E3E7D3685DF8044B023BD3607047A6
:10137000D3685DF8044B0233D3607047D3685DF8DF
:10138000044B0133D3607047A8810220214B10B475
:10139000D3F8B8201368506819780478507A137A13
:1013A000044201EA03011BD0937A03F0030309B15D
:1013B00043F0040343F008039910013B91720D2B95
:1013C0000BD8DFE803F021071B070A152121150AB6
:1013D000071B0721D368013BD3605DF8044B7047BE
:1013E000937A03F003030029E6D043F00403E3E714
:1013F000D3685DF8044B023BD3607047D3685DF857
:10140000044B0233D3607047D3685DF8044B01335B
:10141000D3607047A8810220214B10B4D3F8BC20C0
:101420001368506819780478507A137A044201EAF4
:1014300003011BD0937A03F0030309B143F00403C3
:1014400043F008039910013B91720D2B0BD8DFE894
:1014500003F021071B070A152121150A071B072185
:10146000D368013BD3605DF8044B7047937A03F077
:1014700003030029E6D043F00403E3E7D3685DF8F3
:10148000044B023BD3607047D3685DF8044B0233D2
:10149000D3607047D3685DF8044B0133D360704765
:1014A000A8810220214B10B4D3F8C02013685068E3
:1014B00019780478507A137A044201EA03011BD0A8
:1014C000937A03F0030309B143F0040343F00803E4
:1014D0009910013B91720D2B0BD8DFE803F0210727
:1014E0001B070A152121150A071B0721D368013B99
:1014F000D3605DF8044B7047937A03F0030300292F
:10150000E6D043F00403E3E7D3685DF8044B023B05
:10151000D3607047D3685DF8044B0233D3607047E3
:10152000D3685DF8044B0133D3607047A881022073
:10153000214B10B4D3F8C42013685068197804788C
:10154000507A137A044201EA03011BD0937A03F024
:10155000030309B143F0040343F008039910013B6E
:1015600091720D2B0BD8DFE803F021071B070A153A
:101570002121150A071B0721D368013BD3605DF8C1
:10158000044B7047937A03F003030029E6D043F03D
:101590000403E3E7D3685DF8044B023BD360704774
:1015A000D3685DF8044B0233D3607047D3685DF8AD
:1015B000044B0133D3607047A8810220214B10B443
:1015C000D3F8C8201368506819780478507A137AD1
:1015D000044201EA03011BD0937A03F0030309B12B
:1015E00043F0040343F008039910013B91720D2B63
:1015F0000BD8DFE803F021071B070A152121150A84
:10160000071B0721D368013BD3605DF8044B70478B
:10161000937A03F003030029E6D043F00403E3E7E1
:10162000D3685DF8044B023BD3607047D3685DF824
:10163000044B0233D3607047D3685DF8044B013329
:10164000D3607047A8810220214B10B4D3F8CC207E
:101650001368506819780478507A137A044201EAC2
:1016600003011BD0937A03F0030309B143F0040391
:1016700043F008039910013B91720D2B0BD8DFE862
:1016800003F021071B070A152121150A071B072153
:10169000D368013BD3605DF8044B7047937A03F045
:1016A00003030029E6D043F00403E3E7D3685DF8C1
:1016B000044B023BD3607047D3685DF8044B0233A0
:1016C000D3607047D3685DF8044B0133D360704733
:1016D000A8810220214B10B4D3F8D02013685068A1
:1016E00019780478507A137A044201EA03011BD076
:1016F000937A03F0030309B143F0040343F00803B2
:101700009910013B91720D2B0BD8DFE803F02107F4
:101710001B070A152121150A071B0721D368013B66
:10172000D3605DF8044B7047937A03F003030029FC
:10173000E6D043F00403E3E7D3685DF8044B023BD3
:10174000D3607047D3685DF8044B0233D3607047B1
:10175000D3685DF8044B0133D3607047A881022041
:10176000214B10B4D3F8D42013685068197804784A
:10177000507A137A044201EA03011BD0937A03F0F2
:10178000030309B143F0040343F008039910013B3C
:1017900091720D2B0BD8DFE803F021071B070A1508
:1017A0002121150A071B0721D368013BD3605DF88F
:1017B000044B7047937A03F003030029E6D043F00B
:1017C0000403E3E7D3685DF8044B023BD360704742
:1017D000D3685DF8044B0233D3607047D3685DF87B
:1017E000044B0133D3607047A8810220214B10B411
:1017F000D3F8D8201368506819780478507A137A8F
:10180000044201EA03011BD0937A03F0030309B1F8
:1018100043F0040343F008039910013B91720D2B30
:101820000BD8DFE803F021071B070A152121150A51
:10183000071B0721D368013BD3605DF8044B704759
:10184000937A03F003030029E6D043F00403E3E7AF
:10185000D3685DF8044B023BD3607047D3685DF8F2
:10186000044B0233D3607047D3685DF8044B0133F7
:10187000D3607047A8810220214B10B4D3F8DC203C
:101880001368506819780478507A137A044201EA90
:1018900003011BD0937A03F0030309B143F004035F
:1018A00043F008039910013B91720D2B0BD8DFE830
:1018B00003F021071B070A152121150A071B072121
:1018C000D368013BD3605DF8044B7047937A03F013
:1018D00003030029E6D043F00403E3E7D3685DF88F
:1018E000044B023BD3607047D3685DF8044B02336E
:1018F000D3607047D3685DF8044B0133D360704701
:10190000A8810220214B10B4D3F8E020136850685E
:1019100019780478507A137A044201EA03011BD043
:10192000937A03F0030309B143F0040343F008037F
:101930009910013B91720D2B0BD8DFE803F02107C2
:101940001B070A152121150A071B0721D368013B34
:10195000D3605DF8044B7047937A03F003030029CA
:10196000E6D043F00403E3E7D3685DF8044B023BA1
:10197000D3607047D3685DF8044B0233D36070477F
:10198000D3685DF8044B0133D3607047A88102200F
:10199000214B10B4D3F8E420136850681978047808
:1019A000507A137A044201EA03011BD0937A03F0C0
:1019B000030309B143F0040343F008039910013B0A
:1019C00091720D2B0BD8DFE803F021071B070A15D6
:1019D0002121150A071B0721D368013BD3605DF85D
:1019E000044B7047937A03F003030029E6D043F0D9
:1019F0000403E3E7D3685DF8044B023BD360704710
:101A0000D3685DF8044B0233D3607047D3685DF848
:101A1000044B0133D3607047A8810220214B10B4DE
:101A20009A681368506819780478507A137A0442D7
:101A300001EA03011BD0937A03F0030309B143F0D9
:101A4000040343F008039910013B91720D2B0BD84E
:101A5000DFE803F021071B070A152121150A071BE0
:101A60000721D368013BD3605DF8044B7047937A3C
:101A700003F003030029E6D043F00403E3E7D3684F
:101A80005DF8044B023BD3607047D3685DF8044BAC
:101A90000233D3607047D3685DF8044B0133D360E1
:101AA000704700BFA8810220214B10B4DA68136888
:101AB000506819780478507A137A044201EA0301D5
:101AC0001BD0937A03F0030309B143F0040343F0FE
:101AD00008039910013B91720D2B0BD8DFE803F03E
:101AE00021071B070A152121150A071B0721D368A7
:101AF000013BD3605DF8044B7047937A03F0030316
:101B00000029E6D043F00403E3E7D3685DF8044B13
:101B1000023BD3607047D3685DF8044B0233D36057
:101B20007047D3685DF8044B0133D360704700BF42
:101B3000A8810220214B10B41A69136850681978E3
:101B40000478507A137A044201EA03011BD0937A95
:101B500003F0030309B143F0040343F008039910B1
:101B6000013B91720D2B0BD8DFE803F021071B0717
:101B70000A152121150A071B0721D368013BD360F1
:101B80005DF8044B7047937A03F003030029E6D015
:101B900043F00403E3E7D3685DF8044B023BD360F2
:101BA0007047D3685DF8044B0233D3607047D36845
:101BB0005DF8044B0133D360704700BFA881022059
:101BC000214B10B45A691368506819780478507A18
:101BD000137A044201EA03011BD0937A03F0030352
:101BE00009B143F0040343F008039910013B9172DB
:101BF0000D2B0BD8DFE803F021071B070A15212165
:101C0000150A071B0721D368013BD3605DF8044B1D
:101C10007047937A03F003030029E6D043F00403EE
:101C2000E3E7D3685DF8044B023BD3607047D368A9
:101C30005DF8044B0233D3607047D3685DF8044B02
:101C40000133D360704700BFA8810220214B10B43C
:101C50009A691368506819780478507A137A0442A4
:101C600001EA03011BD0937A03F0030309B143F0A7
:101C7000040343F008039910013B91720D2B0BD81C
:101C8000DFE803F021071B070A152121150A071BAE
:101C90000721D368013BD3605DF8044B7047937A0A
:101CA00003F003030029E6D043F00403E3E7D3681D
:101CB0005DF8044B023BD3607047D3685DF8044B7A
:101CC0000233D3607047D3685DF8044B0133D360AF
:101CD000704700BFA8810220214B10B4DA69136855
:101CE000506819780478507A137A044201EA0301A3
:101CF0001BD0937A03F0030309B143F0040343F0CC
:101D000008039910013B91720D2B0BD8DFE803F00B
:101D100021071B070A152121150A071B0721D36874
:101D2000013BD3605DF8044B7047937A03F00303E3
:101D30000029E6D043F00403E3E7D3685DF8044BE1
:101D4000023BD3607047D3685DF8044B0233D36025
:101D50007047D3685DF8044B0133D360704700BF10
:101D6000A8810220214B10B41A6A136850681978B0
:101D70000478507A137A044201EA03011BD0937A63
:101D800003F0030309B143F0040343F0080399107F
:101D9000013B91720D2B0BD8DFE803F021071B07E5
:101DA0000A152121150A071B0721D368013BD360BF
:101DB0005DF8044B7047937A03F003030029E6D0E3
:101DC00043F00403E3E7D3685DF8044B023BD360C0
:101DD0007047D3685DF8044B0233D3607047D36813
:101DE0005DF8044B0133D360704700BFA881022027
:101DF000214B10B45A6A1368506819780478507AE5
:101E0000137A044201EA03011BD0937A03F003031F
:101E100009B143F0040343F008039910013B9172A8
:101E20000D2B0BD8DFE803F021071B070A15212132
:101E3000150A071B0721D368013BD3605DF8044BEB
:101E40007047937A03F003030029E6D043F00403BC
:101E5000E3E7D3685DF8044B023BD3607047D36877
:101E60005DF8044B0233D3607047D3685DF8044BD0
:101E70000133D360704700BFA8810220214B10B40A
:101E80001A681368506819780478507A137A0442F3
:101E900001EA03011BD0937A03F0030309B143F075
:101EA000040343F008039910013B91720D2B0BD8EA
:101EB000DFE803F021071B070A152121150A071B7C
:101EC0000721D368013BD3605DF8044B7047937AD8
:101ED00003F003030029E6D043F00403E3E7D368EB
:101EE0005DF8044B023BD3607047D3685DF8044B48
:101EF0000233D3607047D3685DF8044B0133D3607D
:101F0000704700BFA8810220214B10B45A681368A3
:101F1000506819780478507A137A044201EA030170
:101F20001BD0937A03F0030309B143F0040343F099
:101F300008039910013B91720D2B0BD8DFE803F0D9
:101F400021071B070A152121150A071B0721D36842
:101F5000013BD3605DF8044B7047937A03F00303B1
:101F60000029E6D043F00403E3E7D3685DF8044BAF
:101F7000023BD3607047D3685DF8044B0233D360F3
:101F80007047D3685DF8044B0133D360704700BFDE
:101F9000A8810220214B10B4D3F8E82013685068C0
:101FA00019780478507A137A044201EA03011BD0AD
:101FB000937A03F0030309B143F0040343F00803E9
:101FC0009910013B91720D2B0BD8DFE803F021072C
:101FD0001B070A152121150A071B0721D368013B9E
:101FE000D3605DF8044B7047937A03F00303002934
:101FF000E6D043F00403E3E7D3685DF8044B023B0B
:10200000D3607047D3685DF8044B0233D3607047E8
:10201000D3685DF8044B0133D3607047A881022078
:10202000214B10B4D3F8EC20136850681978047869
:10203000507A137A044201EA03011BD0937A03F029
:10204000030309B143F0040343F008039910013B73
:1020500091720D2B0BD8DFE803F021071B070A153F
:102060002121150A071B0721D368013BD3605DF8C6
:10207000044B7047937A03F003030029E6D043F042
:102080000403E3E7D3685DF8044B023BD360704779
:10209000D3685DF8044B0233D3607047D3685DF8B2
:1020A000044B0133D3607047A8810220214B10B448
:1020B0009A6A1368506819780478507A137A04423F
:1020C00001EA03011BD0937A03F0030309B143F043
:1020D000040343F008039910013B91720D2B0BD8B8
:1020E000DFE803F021071B070A152121150A071B4A
:1020F0000721D368013BD3605DF8044B7047937AA6
:1021000003F003030029E6D043F00403E3E7D368B8
:102110005DF8044B023BD3607047D3685DF8044B15
:102120000233D3607047D3685DF8044B0133D3604A
:10213000704700BFA8810220214B10B4DA6A1368EF
:10214000506819780478507A137A044201EA03013E
:102150001BD0937A03F0030309B143F0040343F067
:1021600008039910013B91720D2B0BD8DFE803F0A7
:1021700021071B070A152121150A071B0721D36810
:10218000013BD3605DF8044B7047937A03F003037F
:102190000029E6D043F00403E3E7D3685DF8044B7D
:1021A000023BD3607047D3685DF8044B0233D360C1
:1021B0007047D3685DF8044B0133D360704700BFAC
:1021C000A8810220214B10B41A6B1368506819784B
:1021D0000478507A137A044201EA03011BD0937AFF
:1021E00003F0030309B143F0040343F0080399101B
:1021F000013B91720D2B0BD8DFE803F021071B0781
:102200000A152121150A071B0721D368013BD3605A
:102210005DF8044B7047937A03F003030029E6D07E
:1022200043F00403E3E7D3685DF8044B023BD3605B
:102230007047D3685DF8044B0233D3607047D368AE
:102240005DF8044B0133D360704700BFA8810220C2
:10225000214B10B45A6B1368506819780478507A7F
:10226000137A044201EA03011BD0937A03F00303BB
:1022700009B143F0040343F008039910013B917244
:102280000D2B0BD8DFE803F021071B070A152121CE
:10229000150A071B0721D368013BD3605DF8044B87
:1022A0007047937A03F003030029E6D043F0040358
:1022B000E3E7D3685DF8044B023BD3607047D36813
:1022C0005DF8044B0233D3607047D3685DF8044B6C
:1022D0000133D360704700BFA881022070B5044667
:1022E00008460D4626F0CCFA2368024629462046C9
:1022F0005B68BDE87040184738B5044608460D468F
:1023000026F0BEFA2368024629465B6820469847B5
:10231000054620461DF098FF284438BD624B634AAD
:102320006349DFF8B8C12DE9F043A3FB0053614CCA
:10233000614E1D0C2F1DA4FB0043A2FB00E4A7FB74
:1023400006896409A2FB04E2C9EB0706DB0A09EB74
:1023500056065209A1FB03E1B608C2EB0212A4EB38
:102360008202C6EBC606C4EB04140909BE1BDFF8E3
:1023700070E1524FA0EB840001EB4101504C3A60F8
:102380000136A3EBC1010023CEF80060CCF80000B9
:102390002160DFF834E14B4F1C4640F26D18642693
:1023A0004FF4C87C0DE0C9090CFB112100285BD15A
:1023B000002914BF42464FF4B77213449D4211D313
:1023C000013404F2B272A7FB02014809744506FB0E
:1023D000102002D012F0030FE5D040F26D1213442A
:1023E0009D42EDD2384A394994420C604CD004F2F7
:1023F000B27291073BD040F26D11324F344EDFF88C
:10240000C8E0A7FB02075B1A4FEA571C64204FF491
:10241000C871FF0900FB1C2C01FB1727EB1A02F007
:1024200003021F2000210CE0451CBCF1000F00D16D
:102430005FB9012909D19D4224D85B1B022116F8FE
:10244000010F744501D0002AEED098421AD801310C
:102450000C29A3EB0003F2D10D211E481E4A0133C3
:1024600003601160BDE8F0834FF4B772A5E715492A
:10247000A1FB02014809642606FB102040B14FF47D
:10248000B771BAE70131E8E740F26D110022B4E715
:10249000C9094FF4C87000FB1121002940F26D11E9
:1024A00008BF4FF4B771A8E707452EC2898888880E
:1024B000ABAAAAAAC5B3A29125499224A47202206C
:1024C0007C7602201F85EB514EF8FFFFEC7B02204B
:1024D000F0DF020044610220F45E0220B8530220C3
:1024E000A85E022010B59FED070A044611201EF0D9
:1024F00087FC08201EF074FC21461120BDE8104026
:102500001EF0CEBA001BB748DFED277A9FED277A81
:1025100080EE270AB4EEC70AF1EE10FA32D4F6EED6
:10252000007AB4EEE70AF1EE10FA12D430EE670A40
:10253000DFED1F7A30EE000A6FF01F0020EE270A51
:10254000BCEEC00A10EE103AC3F3C403184380B2C5
:10255000704730EE470ADFED176A9FED157AC0EE3F
:10256000267A002367EE877AFCEEE77A17EE900A68
:10257000C00000F4FC606FEA40506FEA505018430E
:1025800080B27047C0EE077A00239FED097A67EEAC
:10259000877AFCEEE77A17EE900A000200F47840A2
:1025A00000B2184380B2704700401C46CDCCCC3DF1
:1025B00000007F43CDCCCC3E9FED7E7ADFED7E7A6E
:1025C000E0EE077A84B0F5EEC07AF1EE10FA00F191
:1025D000DF809FED7A7AF4EEC77AF1EE10FA00F31D
:1025E0008980FCEEE77ACDED017A9DF80420B5EE06
:1025F000C00AF1EE10FA40F38580DFED717AB4EE97
:10260000E70AF1EE10FA7DD5DFED6E7A60EE277AFB
:10261000F5EEC07AF1EE10FA00F1B8809FED677A1E
:10262000F4EEC77AF1EE10FA7ADCFCEEE77ACDED43
:10263000017A9DF80430DFED647AB4EEE70AF1EE3A
:1026400010FA76D89FED617ADFED617AE0EE077AD5
:10265000F5EEC07AF1EE10FA73D49FED587AF4EEED
:10266000C77AF1EE10FA00F39580FCEEE77ACDED33
:10267000017A9DF804109FED526AB4EEC60AF1EE9D
:1026800010FA29D507EE902A06EE901AB8EEE77AEE
:1026900007EE903AF8EEE66AF8EEE77A27EE007A6F
:1026A00067EE807A26EE800AC7EE066A87EE867AA3
:1026B000C0EE067AFCEEE66ABCEEC77AFCEEE77A7C
:1026C000CDED016A8DED027ACDED037A9DF80420FF
:1026D0009DF808309DF80C10120222F4FF60DB0018
:1026E00020F0070003F4FC63034343EAD10080B207
:1026F00004B07047B5EEC00AF1EE10FA4FF0FF02D9
:102700003FF77BAFDFED2E7AB4EEE70AF1EE10FA79
:1027100035DBDFED307AB4EEE70AF1EE10FA2ED8B1
:10272000DFED297AB4EEE70AF1EE10FA4FF0FF037D
:1027300088D908DDDFED287AB4EEE70AF1EE10FA69
:1027400001D8002197E7DFED247AB4EEE70AF1EE35
:1027500010FAF6DD9FED217ADFED217AE0EE077ABF
:10276000F5EEC07AF1EE10FAEBD49FED1E7AF4EE9E
:10277000C77AF1EE10FA7FF778AFF0217BE7DFED53
:10278000157AB4EEE70AF1EE10FA05DC002352E701
:1027900000222CE7FF216EE79FED137ADFED137A1D
:1027A000E0EE077AF5EEC07AF1EE10FA7FF536AF7B
:1027B000ECE700BF3F5B2C3D38A2B7C200007F436F
:1027C00000208C4454EF683E00600845821B76BEB2
:1027D000E71A034400C8004600780F465538963E75
:1027E000C45F28C500007043C4E48ABECAAD1B455F
:1027F0002DE9F0472DED028B4FF47A7999FBF1F931
:1028000009F1010982B08A46B0EE408A364DDFF800
:10281000E080DFED368A07465FFA89F9002440F24E
:10282000E7362DE094FBF9F080B200EB400007EBB7
:102830008000D0ED006AD0ED017A90ED027A68EE6A
:10284000266A68EE277AFCEEE66AFCEEE77A16EE78
:10285000903A17EE902A68EE077A1B02D200FCEE3F
:10286000E77A02F4FC6203F47843134317EE902AEC
:102870000134C2F3C4021343B44225F8023F2ED000
:10288000B8F80030642BCDD007EE903AF8EEE77A36
:1028900087EEA87A17EE100A24F086FA07EE904A1F
:1028A000F8EEE77ACDE9000187EEA87A17EE100A74
:1028B00024F07AFA9DED001B41EC100B21F06CFD29
:1028C00053EC102B5046CDE9002324F05BFADDE9F0
:1028D000002324F0BDFA24F093FD80B2A5E702B0F6
:1028E000BDEC028BBDE8F087FE01FF1F00007A44BB
:1028F0000C420220FFFFFFFF2DE9F0412DED048B7C
:10290000CD4B092282B01A70002840F08180CB4B59
:10291000CB4ACC4FCC4DDFF84883DFEDCC8A9FED1E
:10292000CC8A9FEDCC9A1A60064604463DE007EE3D
:10293000906AB8EEE77AF0EE086AC7EE267AF4EE0F
:10294000C87AF1EE10FA61DCFCEEE77A17EE902A15
:10295000120202F4784211B2F2EE046AC7EE267A4D
:10296000F4EEC87AF1EE10FA4DDCFCEEE77A17EEE1
:10297000902AD20002F4FC62C7EE097A0A430134BD
:102980000A36F4EEC87AF1EE10FAD7BFFCEEE77A19
:102990001F2317EE903AC3F3C403134340F2E73208
:1029A000944227F8023F00F077812B88B3F57A7FB5
:1029B000BDD007EE903AF8EEE77AA8F8003087EE3F
:1029C000A87A17EE100A24F0EFF907EE904AF8EE15
:1029D000E77ACDE9000187EEA87A17EE100A24F015
:1029E000E3F99DED001B41EC100B21F0D5FC90A309
:1029F000D3E9002351EC100B24F02AFA24F020FD37
:102A000007EE100A97E74FF4FC62B5E79249A3E797
:102A1000012868D1894B914A8A4F8B4D9FED8B8A53
:102A2000DFED8B8A1A60002634462EE007EE906AAE
:102A3000F8EEE77AB5EE007A67EE877AF4EEE87A98
:102A4000F1EE10FA00F39B80FCEEE77ACDED007A10
:102A50009DF800104FEA012300F395804FEAC10270
:102A600003F4784302F4FC6243EA02031BB200F36E
:102A70009180CA081343013440F2E732944227F8A8
:102A8000023F06F10A0600F007812B88B3F57A7F32
:102A9000CCD007EE903AF8EEE77A714A87EE887A62
:102AA000138017EE100A24F07FF907EE904AF8EE33
:102AB000E77ACDE9000187EE887A17EE100A24F054
:102AC00073F99DED001B41EC100B21F065FC58A340
:102AD000D3E9002351EC100B24F0BAF924F0B0FC38
:102AE00007EE900AA6E7022856D1544B5D4A554F8F
:102AF000554DDFF86C819FED558A1A6000263446EB
:102B00000FE007EE906AB8EEE70AFFF755FD0134D3
:102B100040F2E7339C4206F10A0627F8020F00F064
:102B2000BB802B88B3F57A7FEBD007EE903AF8EEB6
:102B3000E77AA8F8003087EE887A17EE100A24F0BA
:102B400033F907EE904AF8EEE77ACDE9000187EE17
:102B5000887A17EE100A24F027F99DED001B41EC4E
:102B6000100B21F019FC32A3D3E9002351EC100B18
:102B700024F06EF924F064FC00EE100AC5E76FF053
:102B80001F031F2276E703F4784343F4FC631BB270
:102B90001F226FE71F226DE7032867D1274B324AB8
:102BA000284F294DDFF8B8809FED288A1A6000264B
:102BB00034460EE007EE906AB8EEE70AFFF7A4FC91
:102BC000013440F2E7339C4206F10A0627F8020F6F
:102BD00062D02B88B3F57A7FECD007EE903AF8EE0E
:102BE000E77AA8F8003087EE887A17EE100A24F00A
:102BF000DBF807EE904AF8EEE77ACDE9000187EEC0
:102C0000887A17EE100A24F0CFF89DED001B41ECF6
:102C1000100B21F0C1FB06A3D3E9002351EC100BEC
:102C200024F016F924F00CFC00EE100AC6E700BFF1
:102C3000000000000088C340045E02205C570220B0
:102C4000F8C30200FE01FF1F5642022000007A4432
:102C500000007F430000204200F8FFFF00C4020094
:102C60000C4202200CC4020014C40200042818D133
:102C70004D4B4E491A884E484E4B08604FF44871F0
:102C80001980B2F57A7F9FED4C0A4C4818BF1A8024
:102C90004FF48071FFF7ACFD02B0BDEC048BBDE8D2
:102CA000F081052818D1404B40491A884448414BCF
:102CB00008609FED410A434840F24C411980B2F54B
:102CC0007A7F4FF4807118BF1A8002B0BDEC048B7C
:102CD000BDE8F041FFF78CBD062818D1324B3349CF
:102CE0001A883948334B08609FED330A37484FF450
:102CF00061711980B2F57A7F4FF4807118BF1A8024
:102D000002B0BDEC048BBDE8F041FFF771BD0728B0
:102D100018D1254B25491A882D48264B08609FED70
:102D2000260A2C4840F24C411980B2F57A7F4FF4C4
:102D3000807118BF1A8002B0BDEC048BBDE8F04171
:102D4000FFF756BD082816D1174B184A1B88224991
:102D50001160B3F57A7F18BF164A204818BF138058
:102D6000B7EE000A4FF4807102B0BDEC048BBDE8F1
:102D7000F041FFF73DBD09288ED10B4B0B4A1B8854
:102D800017491160B3F57A7F18BF0A4A154818BF72
:102D90001380B7EE000A4FF4807102B0BDEC048BD3
:102DA000BDE8F041FFF724BD564202205C570220E7
:102DB0001CC402000C42022000007F4360D20200CB
:102DC00024C40200B018040030C40200C83104005A
:102DD00038C4020068E0020040C40200B4240400C9
:102DE0004CC4020098EC0200404B41491A68DFF8DD
:102DF00038C122F400422DE9F0411A601A683D4EB4
:102E00003D4F3E4D3E4CDFF82481DFF824E142F097
:102E100000521A600B683B4A43F480730B60002336
:102E20003B7033702B702370A4F55334A4F2FF343D
:102E3000202188F800308CF800308EF80030B37113
:102E4000117022683049DFF8ECC042F080622260E5
:102E50000A68AEF54C3E04F54054A7F54B37A6F58D
:102E60004B366FF47D78A5F5473542F08042AEF1E0
:102E7000020EA7F57E774644A5F2FA3508340A60BB
:102E8000224ACCF80030CEF800303B6033602B6033
:102E900023601368A1F51F41F8391C3218440860FB
:102EA000136843F00403136013685B07FCD51FF03D
:102EB000A1FD174A174E537903F0DF0353711DF03C
:102EC0008DFC154B15481649164A04250227002487
:102ED00037701D7004701B780B6823F002030B60C1
:102EE00013682B43136030BFBDE8F0813C80044081
:102EF00010D0034001C0074000C0074002C0074097
:102F000003C0074008C007400070044000D00340E1
:102F10000040064000E0074001E0074002E00740B3
:102F200010E000E010ED00E005C0074004C00740DD
:102F300006C0074000900440002310B4114C4173B8
:102F4000426104600373036141B1194600E04269C4
:102F500042F82310427B01339A42F8DC0A4B1A688C
:102F60000AB90CE01A469369002BFBD1906100234B
:102F700083614360836083735DF8044B704718601E
:102F8000F5E700BF00BF0200F87B022070B51446D1
:102F900086B005460E460022194BD4E9000123F005
:102FA00057FF24F005FA0022154B0190D4E90201E5
:102FB00023F04EFF24F0FCF90022114B0290D4E9DB
:102FC000040123F045FF24F0F3F900220C4B039099
:102FD000D4E9060123F03CFF24F0EAF9084B049001
:102FE0000022D4E9080123F033FF24F0E1F931464F
:102FF000059001AA284611F0E1FE06B070BD00BFA1
:103000000000D04170B51E4D4B08A5FB0335AD083F
:1030100005EB8504A400C5EBC505E4B2A1EB4501B1
:10302000272C0646CDB227D8132C94BF00220122AC
:1030300042F4B8722A217181304611F091FC2021AE
:1030400045F480727181304642EA051211F088FC25
:1030500007EE905AB8EEE77A07EE904AF8EEE77A74
:10306000F7EE086AE7EE267A064BB1EE087A77EEBD
:10307000C77AC3ED007A70BD40F27312DAE700BF81
:1030800093244992505F0220214BDFED226A93ED99
:10309000006A9FED217A214AC6EE865A07EE900A11
:1030A000F8EEE77A67EEA57AF4EEC77AF1EE10FA59
:1030B000C2ED007A10DDC6EE265A1949194BF2EE20
:1030C000027AE5EE877A82ED007AFDEEE77AC1EDCD
:1030D000007A154A13627047F5EEC07AF1EE10FAE5
:1030E00012D49FED127AF4EEC77AF1EE10FAC8BF4F
:1030F0004FF00043EDDC9FED0E7A67EE877AFCEE31
:10310000E77A17EE903AE4E7074A00231362704724
:10311000F05E022000442C4700E0AB4690410220C4
:103120007C41022000B2B57F1C5502200044AC4611
:10313000C637BE472DE9F04FBD4EBE4C33782DED5E
:10314000048B022B8DB040F28B810022BA4BDFED55
:10315000BB9A9FEDBB9ADFF804B3D4E9000123F0DA
:1031600077FE24F025F90022B34B0790D4E9020141
:1031700023F06EFE24F01CF90022AF4B0890D4E936
:10318000040123F065FE24F013F90022AA4B0990F4
:10319000D4E9060123F05CFE24F00AF9A64B0A905C
:1031A0000022D4E9080123F053FE24F001F907AA14
:1031B0000B900021A34811F001FE00229E4BD4E9A0
:1031C000000123F045FE24F0F3F800229A4B07900B
:1031D000D4E9020123F03CFE24F0EAF80022964BE9
:1031E0000890D4E9040123F033FE24F0E1F8002232
:1031F000914B0990D4E9060123F02AFE24F0D8F877
:103200008D4B0A900022D4E9080123F021FE24F01E
:10321000CFF807AA0B9001218A4811F0CFFD0022B8
:10322000854BD4E9000123F013FE24F0C1F80022FD
:10323000814B0790D4E9020123F00AFE24F0B8F88C
:1032400000227D4B0890D4E9040123F001FE24F014
:10325000AFF80022784B0990D4E9060123F0F8FD7D
:1032600024F0A6F8744B0A900022D4E9080123F058
:10327000EFFD24F09DF807AA0B900221714811F090
:103280009DFD00226C4BD4E9000123F0E1FD24F008
:103290008FF80022684B0790D4E9020123F0D8FD93
:1032A00024F086F80022644B0890D4E9040123F04E
:1032B000CFFD24F07DF800225F4B0990D4E9060190
:1032C00023F0C6FD24F074F800225B4B0A90D4E989
:1032D000080123F0BDFD24F06BF807AA0B90032131
:1032E000584811F06BFD4FF0000A9BF800205FFA80
:1032F0008AF39A420FD80AF1010ABAF1040FF4D105
:10330000514B00214FF48032D9611A620DB0BDECEF
:10331000048BBDE8F08F4D4B3278D3ED007A89EE07
:10332000A77A4FF47A7303FB02F307EE903AF8EEB4
:10333000E77A67EE877A67EE897A17EE900A23F0CC
:1033400033FD41EC100B41EC180B20F041FF404BDA
:1033500018688DED020B23F027FD02460B4623F083
:10336000C5FB9DED020B02460B4651EC100B23F002
:1033700099FEB0EE480AF0EE680A04460D4620F0C9
:10338000C7FE204629460022324B58EC107BCDE97F
:10339000044523F0ABFB02460B460020264923F0F0
:1033A00081FE002204460D462A4B38464146CDE9AF
:1033B000027823F09BFB00228946274B009009F1FD
:1033C000004723F045FD22462B46019723F040FDA0
:1033D00023F0EEFF224607462B46DDE90001079762
:1033E00023F036FD23F0E4FF002208904FF0404325
:1033F000DDE90201099723F02BFD22462B4623F03D
:1034000027FD23F0D5FFDDE904230A9011490020B0
:1034100023F06AFB22462B4623F01AFD23F0C8FF57
:1034200007AA0B905146074811F0C8FC63E700BF9C
:1034300054420220104202200000D04100442C4798
:1034400093651539EC55022074510220F05E02207C
:10345000984202200000F03F0000E03F814102203E
:103460000022694BD4E9000123F0F2FC23F0A0FF15
:103470000022654B0790D4E9020123F0E9FC23F018
:1034800097FF0022604B0890D4E9040123F0E0FC90
:1034900023F08EFF00225C4B0990D4E9060123F053
:1034A000D7FC23F085FF584B0A900022D4E908018D
:1034B00023F0CEFC23F07CFF07AA0B900021534899
:1034C00011F07CFCD4E9000100224F4B23F0C0FC3A
:1034D00023F06EFF00224C4B0790D4E9020123F049
:1034E000B7FC23F065FF0022474B0890D4E90401A4
:1034F00023F0AEFC23F05CFF0022434B0990D4E99B
:10350000060123F0A5FC23F053FF3F4B0A90002255
:10351000D4E9080123F09CFC23F04AFF07AA0B9092
:1035200001213A4811F04AFCD4E900010022364B4F
:1035300023F08EFC23F03CFF0022334B0790D4E9AC
:10354000020123F085FC23F033FF00222E4B08906C
:10355000D4E9040123F07CFC23F02AFF00222A4B4B
:103560000990D4E9060123F073FC23F021FF264BD8
:103570000A900022D4E9080123F06AFC23F018FF26
:1035800007AA0B900221214811F018FCD4E9000190
:1035900000221D4B23F05CFC23F00AFF00221A4B93
:1035A0000790D4E9020123F053FC23F001FF00222D
:1035B000154B0890D4E9040123F04AFC23F0F8FEEF
:1035C0000022114B0990D4E9060123F041FC23F0BD
:1035D000EFFE0D4B0A900022D4E9080123F038FCDD
:1035E00023F0E6FE07AA0B900321084811F0E6FB42
:1035F000074B00214FF480321962DA610DB0BDEC47
:10360000048BBDE8F08F00BF0000D041EC550220D4
:103610007451022070B54000334BDFED346A01FB7A
:103620000001B3FBF1F607EE906A314BF8EEE77A52
:1036300001242DED068B1B68DFED2EAAB0EE409A1B
:10364000C7EE809A354622462346B6EE00AA03E02E
:103650000134B4F5807F38D007EE904AF8EEE77A6F
:1036600067EEA97AF5EEC07AF1EE10FAACBF77EE0C
:103670008A7A77EECA7ABDEEE78A07EE905AB8EEFC
:10368000677AF8EE487A3544C7EE278A79EE688A79
:10369000F0EEE88AF4EEE68AF1EE10FAD8D518EEEC
:1036A000101AB1F5805FD3D213481CF0CDFDF4EEB3
:1036B000EA8AF1EE10FA13D923460134B4F5807F7B
:1036C000F0EE686A18EE102AC6D1BDEC068B013BFD
:1036D0001B03013A03F47F23C2F30B00184370BDB0
:1036E000234618EE102AF0E70095BA0A8096184B88
:1036F00000F1024000007A44D84502200F4B104AE6
:103700001B6810491268096810B5C2F30340C3F37F
:103710000444C3F30463013304FB0000C9B218443A
:10372000FFF778FF014638B1074A1368002BFCDB2E
:10373000064B0120196010BD10BD00BF14F00240FF
:1037400010F0024008F0024000F1024004F1024093
:1037500070B5374B374D1B789FED377ADFED375A11
:10376000374A384E1178384A0401281906EE903A43
:10377000D0ED027A354BF8EE677AF8EEE66A27EE7E
:10378000877A66EEA56A83ED007A86EE876AC6EDD3
:10379000007AFDEEC66A16EE903A137071B12C4BAA
:1037A0001B7806EE903AF8EEE66A66EEA56A86EEBB
:1037B000876AFDEEC66A16EE903A1370F6EE006A5E
:1037C00067EEA67A2B19C7EE876A5A68214E2248FF
:1037D0000421FDEEE67A17EE903A337024F02EFEC7
:1037E0001E4B1F4A012119601368002BFCDB2C447F
:1037F0001C49A289E389013A1203013B02F47F22AA
:10380000C3F30B0313430B60C8201DF0DDFB164B05
:103810001868FFF739FC154B01241C6014201DF0BB
:10382000D3FB134B83F82447BDE87040FFF782BCFD
:10383000D541022060DE02000000003B00007A4417
:10384000E15C0220F05E02205479022058420220FE
:103850000F420220AC5E02205042022088E100E0CC
:1038600000F1024004F102407C41022008E100E046
:10387000546A022007EE900A9FED0C6ADFED0C6A95
:103880000C4B0D48B8EEE77ADFED0C7A27EE067A9E
:1038900010B5E7EE267A01241C60FCEEE77A17EEFD
:1038A000901A11F09BF9064B1C6010BD0AD7233CFF
:1038B0000000014388E100E0307A0220EE7CFF3E08
:1038C00008E100E010B4036841681A780C78417A86
:1038D000037A0C4202EA03021BD0837A03F003034B
:1038E0000AB143F0040343F008039A10013B8272CB
:1038F0000D2B0BD8DFE803F021071B070A15212148
:10390000150A071B0721C368013BC3605DF8044B20
:103910007047837A03F00303002AE6D043F00403E0
:10392000E3E7C3685DF8044B023BC3607047C368BC
:103930005DF8044B0233C3607047C3685DF8044B05
:103940000133C360704700BF08B5034BD3F8A40030
:10395000FFF7B8FF08BD00BFA881022008B5034BE0
:10396000D3F8A000FFF7AEFF08BD00BFA88102207A
:1039700008B5034BD3F89C00FFF7A4FF08BD00BFB8
:10398000A881022008B5034BD3F89800FFF79AFFEF
:1039900008BD00BFA881022008B5034BD3F89400EE
:1039A000FFF790FF08BD00BFA881022008B5034BB8
:1039B000D3F89000FFF786FF08BD00BFA881022062
:1039C00008B5034BD3F88C00FFF77CFF08BD00BFA0
:1039D000A881022008B5034BD3F88800FFF772FFD7
:1039E00008BD00BFA881022008B5034BD3F88400AE
:1039F000FFF768FF08BD00BFA881022008B5034B90
:103A0000D3F88000FFF75EFF08BD00BFA881022049
:103A100008B5024BD86FFFF755FF08BDA8810220FB
:103A200008B5024B986FFFF74DFF08BDA881022033
:103A300008B5024B586FFFF745FF08BDA88102206B
:103A400008B5024B186FFFF73DFF08BDA8810220A3
:103A500008B5024BD86EFFF735FF08BDA8810220DC
:103A600008B5024B986EFFF72DFF08BDA881022014
:103A700008B5024B586EFFF725FF08BDA88102204C
:103A800008B5024B186EFFF71DFF08BDA881022084
:103A900008B5024BD86DFFF715FF08BDA8810220BD
:103AA00008B5024B986DFFF70DFF08BDA8810220F5
:103AB00008B5024B586DFFF705FF08BDA88102202D
:103AC00008B5024B186DFFF7FDFE08BDA881022066
:103AD00008B5024BD86CFFF7F5FE08BDA88102209F
:103AE00008B5024B986CFFF7EDFE08BDA8810220D7
:103AF00008B5024B586CFFF7E5FE08BDA88102200F
:103B000008B5024B186CFFF7DDFE08BDA881022046
:103B100008B5024BD86BFFF7D5FE08BDA88102207F
:103B200008B5024B986BFFF7CDFE08BDA8810220B7
:103B300008B50B463B2800F2C682DFE810F0BB0256
:103B4000B202A902A00297028E0285027C027302D1
:103B50006A02610258024F0246023D0234022B0201
:103B60002202190210020702AE01A5019C01930175
:103B70008A01810178016F0166015D0154014A01EA
:103B8000400136012C01220118010E010401FA0046
:103B9000F000E600DC00D200C800BE00B400AA00BD
:103BA000A00096008C00820078006E0064005A002D
:103BB000500046003C00BD4ABD49C2F8EC303B20F5
:103BC00004221CF0D9FE012008BDB84AB949C2F848
:103BD000E8303A2004221CF0CFFE012008BDB34A91
:103BE000B549C2F8E430392004221CF0C5FE01209A
:103BF00008BDAE4AB149C2F8E030382004221CF0BA
:103C0000BBFE012008BDA94AAD49C2F8DC3037200F
:103C100004221CF0B1FE012008BDA44AA949C2F843
:103C2000D830362004221CF0A7FE012008BD9F4A90
:103C3000A549C2F8D430352004221CF09DFE012095
:103C400008BD9A4AA149C2F8D030342004221CF0A1
:103C500093FE012008BD954A9D49C2F8CC3033201F
:103C600004221CF089FE012008BD904A9949C2F83F
:103C7000C830322004221CF07FFE012008BD8B4A90
:103C80009549C2F8C430312004221CF075FE012091
:103C900008BD864A9149C2F8C030302004221CF089
:103CA0006BFE012008BD814A8D49C2F8BC302F202F
:103CB00004221CF061FE012008BD7C4A8949C2F83B
:103CC000B8302E2004221CF057FE012008BD774A90
:103CD0008549C2F8B4302D2004221CF04DFE01208D
:103CE00008BD724A8149C2F8B0302C2004221CF071
:103CF00043FE012008BD6D4A7D49C2F8AC302B203F
:103D000004221CF039FE012008BD684A7949C2F836
:103D1000A8302A2004221CF02FFE012008BD634A8F
:103D20007549C2F8A430292004221CF025FE012088
:103D300008BD5E4A7149C2F8A030282004221CF058
:103D40001BFE012008BD594A6D49C2F89C3027204E
:103D500004221CF011FE012008BD544A6949C2F832
:103D60009830262004221CF007FE012008BD4F4A8F
:103D70006549C2F89430252004221CF0FDFD012085
:103D800008BD4A4A6149C2F89030242004221CF040
:103D9000F3FD012008BD454A5D49C2F88C3023205F
:103DA00004221CF0E9FD012008BD404A5949C2F82F
:103DB0008830222004221CF0DFFD012008BD3B4A90
:103DC0005549C2F88430212004221CF0D5FD012081
:103DD00008BD364A5149C2F88030202004221CF028
:103DE000CBFD012008BD314A4D49D3671F20042275
:103DF0001CF0C2FD012008BD2C4A4A4993671E20D1
:103E000004221CF0B9FD012008BD284A4649536729
:103E10001D2004221CF0B0FD012008BD234A4349A7
:103E200013671C2004221CF0A7FD012008BD1F4AB7
:103E30003F49D3661B2004221CF09EFD012008BDD3
:103E40001A4A3C4993661A2004221CF095FD012071
:103E500008BD164A38495366192004221CF08CFD0F
:103E6000012008BD114A35491366182004221CF0B0
:103E700083FD012008BD0D4A3149D3651720042276
:103E80001CF07AFD012008BD084A2E4993651620D2
:103E900004221CF071FD012008BD044A2A49536523
:103EA000152004221CF068FD012008BDA881022015
:103EB00021200000951F0000911900000519000045
:103EC00079180000ED17000061170000D5160000FA
:103ED00049160000BD15000031150000A5140000B2
:103EE000191400008D13000001130000751200006A
:103EF000E91100005D110000493900005D39000042
:103F0000713900008539000099390000AD39000091
:103F1000C1390000D5390000E9390000FD39000041
:103F2000113A0000213A0000313A0000413A000005
:103F3000513A0000613A0000713A0000813A0000F5
:103F4000913A0000A13A0000B13A00005F4A60498E
:103F50001365142004221CF00FFD012008BD5B4AEC
:103F60005C49D364132004221CF006FD012008BD27
:103F7000564A59499364122004221CF0FDFC01208A
:103F800008BD524A55495364112004221CF0F4FC28
:103F9000012008BD4D4A52491364102004221CF030
:103FA000EBFC012008BD494A4E49D3630F2004228F
:103FB0001CF0E2FC012008BD444A4B4993630E20EB
:103FC00004221CF0D9FC012008BD404A4749536334
:103FD0000D2004221CF0D0FC012008BD3B4A4449BE
:103FE00013630C2004221CF0C7FC012008BD374AD3
:103FF0004049D3620B2004221CF0BEFC012008BD06
:10400000324A3D4993620A2004221CF0B5FC01208B
:1040100008BD2E4A39495362092004221CF0ACFC29
:10402000012008BD294A36491362082004221CF0E9
:10403000A3FC012008BD254A3249D3610720042290
:104040001CF09AFC012008BD204A2F4993610620EC
:1040500004221CF091FC012008BD1C4A2B4953612D
:10406000052004221CF088FC012008BD174A2849BD
:104070001361042210461CF07FFC012008BD134A86
:104080002449D360032004221CF076FC012008BDE3
:104090000E4A21499360022004221CF06DFC01208D
:1040A00008BD0A4A1D495360012004221CF064FC2B
:1040B000012008BD054A1A491360002004221CF0A3
:1040C0005BFC012008BD002008BD00BFA8810220C4
:1040D000C13A0000D13A0000E13A0000F13A000094
:1040E000013B0000113B0000213B00005122000079
:1040F000C521000039210000AD200000F11D0000A5
:10410000651D0000D91C00004D1C0000C11B0000F3
:10411000351B0000A91A00001D1A0000091F00002D
:104120007D1E0000F8B5044615460E4608460221DD
:104130001CF020FF284602211CF01CFF164A174BDA
:1041400052F83610012001F500772760207252F8EE
:104150003520607202F5007700206760E060013B67
:10416000FDD191F8003292F8002203F00103D2074A
:1041700044BF43F00203DBB2A37221463046FFF78F
:10418000D7FC214620742846FFF7D2FC237C184434
:1041900020742046F8BD00BF808E0400C0D401000A
:1041A0002DE9F0418D488E49D0ED007A8D4C8E4E30
:1041B0008E4A8F4B8F4D03C92DED048BF8EEE77AB5
:1041C0009FED8D8A206087EE887A96E80300A060D4
:1041D00092E80300E06093E8070004F1140303C3CE
:1041E00095E8030023F8022B120C8EB01A70F82207
:1041F0001023606217EE100A6260236184F82810B1
:1042000022F0D2FD7D4BD3ED007AF8EEE77ACDE9CE
:10421000020187EE887A282617EE100A22F0C4FDE4
:10422000774ACDE90001282104A824F007F904A960
:1042300004F12C00A66224F0C1FA7249724B734A51
:104240000F78127893E80300022F4FF0A40308BF01
:104250000027012A6065A3656CD06D4B186822F0B9
:10426000A3FD6C4ACDE90001314604A824F0E6F82C
:1042700004A9054604F15C0024F0A0FA5C35664B05
:10428000DFF860810FCB04AE07C60D22337004A99E
:1042900060191CF069F93B46604A282104A824F003
:1042A000CDF80C35064604A9601924F087FA5C4B5A
:1042B0001B783544FBB15B4B5B4A1B78282104A873
:1042C00024F0BCF804A9064608EB050024F076FAB1
:1042D000564B574A1B7803EB830303EB83032821D8
:1042E00004A824F0ABF8354404A9064608EB050001
:1042F00024F064FA35444F4B186822F055FD4E4ABD
:10430000CDE90001282104A824F098F804A9064664
:10431000601924F053FA70192023204404A90222C2
:10432000ADF810301CF020F92E480EB0BDEC048B17
:10433000BDE8F081414BDFF810811B7840495A08F5
:10434000A8FB02029208C2EBC200A3EB4003DBB25F
:1043500007EE103A07EE902AB8EEC77AB7EE089A41
:10436000F8EEE76A27EE097AF3EE048AA6EEA87A59
:104370000D78B1EE088A77EE487A17EE900A22F0AF
:1043800013FD6B08A8FB03239B08C3EBC302A5EB3B
:104390004205EAB207EE902A07EE103AF8EEE77A05
:1043A000B8EEC77A67EE897ACDE90201E7EE287A9E
:1043B00077EEC87A17EE900A22F0F6FC214ACDE992
:1043C0000001314604A824F039F804A9054604F197
:1043D0005C005C3524F0F2F951E700BF545F022025
:1043E00058C40200E87A022060C4020068C40200D7
:1043F00070C402007CC402008096184BF079022041
:1044000084C40200544202209CC402003D6A02207F
:10441000505F0220BCC40200CCC40200DCC4020015
:10442000E15C02200F420220F0C40200D6410220CB
:1044300000C50200A842022010C502009B710220A4
:104440007D420220A4C4020093244992F0B5844B1B
:10445000844D854E854F93E803002DED028B286037
:104460000FCE8FB004AC0FC4D6F800E0C4F800E063
:1044700004AE0FCE05F108060FC60FCFC6F800E058
:104480004FF4FC7C3F68C5F804C004AE0FC627702B
:1044900004A905F11B0024F091F9754A754B9FEDB5
:1044A000768A764E282104A823F0C8FF04A9044682
:1044B00005F12B0024F082F9714B186822F074FC8E
:1044C000704ACDE90001282104A823F0B7FF2B345E
:1044D000074604A9281924F071F96B4B6B4A1B7825
:1044E000022B08BF0023282104A823F0A7FF3C4487
:1044F00004A90746281924F061F9654A654B11683B
:10450000654A03EB011304A89B68282123F096FF5A
:104510003C44034604A928191C4424F04FF95F4A7F
:104520005F4B282104A823F089FF04A9034628191A
:104530001C4424F043F95B4A5B4B282104A823F078
:104540007DFF04A90746281924F038F9574BD3ED0D
:10455000007AF8EEE77A3C4487EE887A17EE100A84
:1045600022F022FC524BD3ED007AF8EEE77ACDE947
:10457000020187EE887A17EE100A22F015FC4D4AE8
:10458000CDE90001282104A823F058FF04A907461B
:10459000281924F013F9484B1868A6FB003080094D
:1045A00007EE900AF8EEE77A3C4417EE900A22F004
:1045B000FBFB424ACDE90001282104A823F03EFF7D
:1045C00004A90746281924F0F9F83D4B1B6886FB1F
:1045D0000326DB17C3EBA61007EE900AF8EEE77A86
:1045E0003C4417EE900A22F0DFFB364ACDE9000189
:1045F000282104A823F022FF04A90646281924F044
:10460000DDF8314B9FED317AD3ED007AF4EE477A45
:10461000F1EE10FA344411D12D4F0FCF04AE0FC676
:1046200097E8030046F8040B318004A9281924F008
:10463000C5F80C480FB0BDEC028BF0BD254B93EDD7
:10464000007A77EE877A17EE900A22F0ADFB224AC5
:10465000CDE90001282104A823F0F0FEE5E700BF22
:1046600020C502003877022028C502003CC50200A0
:104670005CC5020050C502008096184BD34D6210F5
:10468000505F022074C502005442022088C5020017
:104690008042022060DE02009CC50200B0C502001C
:1046A000405C0220CCC50200FC5B0220545F02206B
:1046B000F0790220E0C5020088420220FCC5020019
:1046C0002877022014C60200A84202200000FEC281
:1046D00044C602008C4102202CC602001A4A1B4923
:1046E0001B4BF0B5D2F800E01A4F1B4E1B4D1C4C73
:1046F000024603C9186097E80300986096E8030033
:10470000D86095E803001749586204EB0E1403C9FA
:10471000A468C3F8A400AC3A22F0010000F5697E59
:1047200010210122670002267825C3F8A800C3F8EB
:1047300004E09C61DF611E849D62196159849A8244
:10474000DA821846F0BD00BF804202205CC602003B
:10475000F471022064C602006CC6020074C6020036
:1047600060DE02007CC6020070B5A2B0664B00930A
:10477000664A674B6748502123F060FE002302A879
:10478000644A65490EF0E6F8149B002B00F0B280F5
:1047900068201CF057F804464FF47A759DF80C0019
:1047A000049A9DF814305D49A5605D4E2076002581
:1047B0006161E26106A984F82030266025712573C5
:1047C000256104F124000DF041FF2369554A62611F
:1047D000013323616566544B029306A80DF064FF14
:1047E00023680095596B00220023204688472368E0
:1047F00020469B6A242202A998479DF821509DF8E3
:1048000020309DF8222003EB052313EB024547D00F
:104810009DF80D609DF80C209DF80E309DF80F005E
:104820009FED427A424902EB062202EB034303EB7F
:104830000063A3F5697307EE903AF8EE677A67EEC6
:10484000877A07EE105AF8EEC76A87EEA67ABCEEB2
:10485000C77A81ED007A3CB32368042202A99B6ADF
:10486000204698470422334902A823F0F5FA30B3D2
:10487000314B002103F1780203F8011F9A42FBD16A
:104880005CB1236820461B6C98472369013B236178
:104890001BB9236820461B6A9847284622B070BD82
:1048A000234B1D60002CD7D102A80422214923F0FC
:1048B000D3FA0028DCD1214B01221A700EE01F4AE6
:1048C0002368012111709B6A042202A9204698479F
:1048D000236802A99B6A782220469847164B0DF15F
:1048E000070203F1780012F8011F03F8011F984234
:1048F000F9D1C5E7159C002C7FF44AAF0A4B02930F
:1049000006A80DF0D1FE78E7E45C022084C6020020
:10491000A85D022020510220987C0220DCBE02000B
:10492000B4BF020030BF02000CBF02000000FA4317
:104930005879022074C60200075E0220B07202207D
:10494000F0B5444D296891B0064621B10023424A92
:1049500042480DF0F3FE424C40490023324604F138
:1049600010000DF02BFF3F49A06C00230B700028B6
:1049700069D050220CF0D8FF3B480DF095FE374827
:104980000DF092FE296821B10023364A33480DF01C
:10499000D5FE334F002519E00CF0C6FF33496846B9
:1049A0001BF004FD324904A81BF000FD04A9684671
:1049B0001BF010FD10B304A81BF0B8FC68461BF0F8
:1049C000B5FC0135ADB228480DF06EFE002223493A
:1049D00025480DF029FF254B00265022194648B3E3
:1049E000BC6C1E702046002CD6D1FC6C502219469F
:1049F0002046002CD2D00AF0E7FBCFE71B4908A8DD
:104A00001BF0D4FC1B490CA81BF0D0FC0CA908A877
:104A10001BF0E0FC04460CA81BF088FC08A81BF067
:104A200085FC04A81BF082FC68461BF07FFC002C70
:104A3000C9D0C6E70C480DF037FE08480DF034FE2B
:104A4000284611B0F0BDE06C002895D050220AF045
:104A5000BBFB91E73C7C02208CC60200747A0220EA
:104A6000CC540220A8560220DC540220E45C022030
:104A700090C6020098C60200F0B5594D296891B061
:104A8000064621B10023574A57480DF057FE574CB0
:104A900055490023324604F110000DF08FFE5449B1
:104AA000A06C00230B70002800F08E8050220CF0C8
:104AB0003BFF50480DF0F8FD4B480DF0F5FD29681F
:104AC00021B100234A4A48480DF038FE4A4EB06CE6
:104AD00010B100210CF044FCF06C18B1002200234E
:104AE0000AF02CFD454D414C00232B802EE0502236
:104AF0000CF01AFF424968461BF058FC414904A8D3
:104B00001BF054FC04A968461BF064FC002830D05C
:104B100004A81BF00BFC68461BF008FCB36C2A8849
:104B20003549002B49D05B695B09013B9BB2364993
:104B300040F2E63001EB4201824298BF0132A1F817
:104B4000DC3798BF2A802B480DF0AEFD00222649A5
:104B500028480DF069FE40B32949A06C00230B7072
:104B60000028C4D1E06C0028C4D050220AF02CFBED
:104B7000C0E7234908A81BF019FC24490CA81BF026
:104B800015FC0CA908A81BF025FC07460CA81BF077
:104B9000CDFB08A81BF0CAFB04A81BF0C7FB6846A6
:104BA0001BF0C4FB002FCED0B8E712480DF07CFDFF
:104BB0000D480DF079FD11B0F0BDCB6C63B11B68F1
:104BC0005B09013B9BB2B2E7E06C00283FF471AF98
:104BD00050220AF0F9FA6CE74FF6FF73A7E700BF1F
:104BE0003C7C02208CC60200747A0220CC54022045
:104BF000A8560220DC540220647A0220A05602202B
:104C0000E45C022090C602000002FF1F98C602006A
:104C100038B5054616480DF047FD164B196821B109
:104C20000023154A12480DF089FD144C1049002349
:104C30002A4604F110000DF0C1FD1149A06C0023BB
:104C40000B7068B150220CF06FFE09480DF02CFD7E
:104C50000C4B1B781BB9FFF787FD0B4B186038BD59
:104C6000E06C0028F1D050220AF0AEFAEDE700BF68
:104C7000747A02203C7C0220A85D0220CC540220E1
:104C8000E45C0220457A02201C7702202DE9F04FD7
:104C90007B487C4E97B00DF007FD7B480DF004FD7E
:104CA000316821B10023794A77480DF047FD784DEE
:104CB000A86C10B100210CF053FBE86C18B1002275
:104CC00000230AF03BFCDFF8DCA1DFF8D4810023ED
:104CD000AAF80030444600226B4969480DF0A4FD53
:104CE0000746002842D06B49A06C00230B7040B3EC
:104CF00050220CF019FED8F8483063B31B7813F03B
:104D0000700F14BF01230023BBB1AB6CBAF80020B5
:104D10005F49002B00F0AA805B695B09013B9BB2F5
:104D20005D4940F2E63001EB4201824298BF013218
:104D3000A1F8AC3F98BFAAF8002051480DF0B4FC90
:104D4000C9E7E06C0028F8D050220AF03DFAD8F804
:104D50004830002BD2D1E36C002BEED093F83130E9
:104D600013F0500F14BF01230023CDE744480DF08A
:104D70009BFC45480DF098FC316821B13B46434A05
:104D800041480DF0DBFCBAF80030012B65DD4FF037
:104D900001094F46002F58D000273D46CDF804901A
:104DA0003E4C2FE050220CF0BFFD35480DF07CFC4E
:104DB000002334F8022F344931480DF0FFFCD8F8B5
:104DC0004800002301358DF80830002833D002AEAA
:104DD000314650220CF0A8FD29480DF065FC2D4805
:104DE00022F00AFD8346304622F006FD834507DDAA
:104DF00034F8023C228824F8022C0137BFB2238009
:104E0000BAF80030C9EB0302954220DA00231E49AC
:104E100022881B480DF0D2FC1E49D8F84800002318
:104E20000B700028BED11E4BD86C0028BDD050227C
:104E30000AF0CAF9B9E71A4BD86C02AE0028CBD0F9
:104E4000314650220AF0C0F9C6E7CDF80490019926
:104E50005A1E8A4209F101099CDC09480DF024FC24
:104E600009480DF021FC17B0BDE8F08FCB6C23B1E1
:104E70001B685B09013B9BB252E74FF6FF734FE79C
:104E8000DC5402203C7C0220747A02208CC6020092
:104E9000647A0220A85602200002FF1FAC11FF1FF7
:104EA000CC540220B05102202DE9F04F5D4FBB6C75
:104EB00095B0002B00F0A7805B480DF0F5FB5B4B35
:104EC0005B4E18685B4D5C4CDFF8A8B1DFF8A8A119
:104ED000DFF8A891DFF8A881FDF720FA336822688F
:104EE0002968019103F2B27300925021534A544849
:104EF00023F0A4FA336822682968DBF800000191E6
:104F00000092DAF80010D9F80020049003F2B2738E
:104F10000391029250214B4A4B4823F08FFA4A4AA0
:104F20004A48502123F08AFA33682A682468DAF85C
:104F30000000D9F80010DBF80060039002910192A4
:104F40001421049603F2B2730094414A414823F0BD
:104F500075FAD8F8001021B100233F4A3F480DF000
:104F6000EDFB3F4D364A3F4805F1100101230DF09E
:104F7000AFFB0446E8B13C49344B009301240C706C
:104F80002F4B3A4A3048502123F058FAD8F80010F5
:104F900029B140F201232C4A23480DF0CFFBB86C15
:104FA000204B002834D032490BF0C0FF15B0BDE8CB
:104FB000F08FAE6CB6B103468DF818003146204A2A
:104FC0008DF8194006A88DF81A400BF041FF002813
:104FD000DCD01E4B0093254A194B1B48502123F06F
:104FE0002DFAD3E7E96C0029D0D03346144A8DF866
:104FF000496006A88DF84A608DF84B600AF00CFDF8
:105000000028C3D0E5E7FB6C002B7FF455AF56E7D3
:10501000D86C0028CAD0164A00230BF06FF815B0E0
:10502000BDE8F08FCC540220DC54022000D00340B5
:10503000EC7B022044610220F45E0220A0C6020044
:10504000A0760220B0C60200E45C0220405C022090
:10505000D0C60200FC5B02208CC60200AC550220C8
:105060009C550220747A022024770220F0C60200A8
:10507000C0E1E400B8530220A47202207C76022032
:105080003C7C02202DE9F041A74F3D68C5F3511546
:10509000ADF5856D002D00F03381A44CA44E04EBDA
:1050A0008535B04605E00CF0F5FA04F58044AC42D5
:1050B00014D0B36C4FF4804221461846002BF2D135
:1050C000D8F84C3021464FF480421846002BECD0E3
:1050D00004F580440BF014F9AC42EAD10023944D5E
:1050E0003B6004E00CF0D6FA92481AF07BFE91483F
:1050F0001AF02EFE00288F4813DD1AF057FEB36C0D
:10510000044601464FF480721846002BEAD1EB6C3E
:105110004FF4807221461846002BE5D00BF0F0F8D2
:10512000E2E7B06C824B002800F0A0800CF076FA29
:10513000B06C7F4B002800F0EE8000210CF010F9DD
:10514000B36C7B4A002B00F0D080DF6900253C4621
:105150003846FFF7C3FAAC2201461FA81BF004FA39
:10516000B06C734B002800F0B78000210CF0F8F809
:10517000B06C6F4B002800F0A6801FA9AC220CF089
:1051800089FAB06C6A4B002800F0BC802C210CF02E
:10519000E7F8694A9FED697A02F5F070134653F813
:1051A000041F07EE901AF8EE677AF4EE477AF1EEF4
:1051B00010FAC8BFB0EE677A9842F0D1B5EE407AE7
:1051C000F1EE10FA1CBFF7EE007A87EE877A0DF148
:1051D0000301DFED5B6A52F8043F07EE903AF8EE08
:1051E000677A904267EE877A67EEA67AFCEEE77AF6
:1051F00017EE903A01F8013FEDD1B06C4C4B00280E
:1052000052D0782201A90CF045FAB06C484B002826
:1052100055D1D86C18B122462B460AF08FF9FEF70B
:10522000BFFF4FF4807201464AA81BF09DF9B06C95
:105230003F4B80B34AA94FF480720CF02BFAFFF772
:1052400005F94FF4007201468AA81BF08DF9B06C85
:10525000374B88B18AA94FF400720CF01BFA394819
:105260000DF022FA0DF5856DBDE8F081D86C0028AF
:1052700042D00AF0D3FF5BE7D86C0028EFD08AA9B0
:105280004FF400720BF03CF82E480DF00DFA0DF5BE
:10529000856DBDE8F081D86C0028D0D04AA94FF4C4
:1052A00080720BF02DF8CAE7D86C0028B7D07822AE
:1052B00001A90BF025F8B06C1D4B0028A9D0394688
:1052C0000CF04EF8ABE7D86C00283FF462AF1FA992
:1052D000AC220BF015F854E7D86C00283FF459AF16
:1052E000002200230AF02AF942E7D76C2FB1D7E950
:1052F0000445002527462BE707460024002527E71D
:105300000B4EEBE6D86C00283FF443AF2C22002371
:105310000AF014F93DE7D86C0028EDD000220023F4
:105320000AF00CF90CE700BF987602208019FF1FE5
:10533000CC540220A8580220B051022000000000E6
:1053400000004843DC5402202DE9F0433B4EC1B03D
:10535000374619E0DFF8F08000253368384805EB60
:10536000430308EB03241AF021FD4FF48072014639
:1053700020461BF0F9F8013531481AF033FD022DB3
:10538000EBD13B6801333B602D481AF0E1FC01286A
:10539000E0DC3368BF2B4ED9DFF8AC80294D4446A2
:1053A00008F5C037A94605E00CF074F904F580440F
:1053B000BC4214D0AB6C4FF4804221461846002BFF
:1053C000F2D1D9F84C3021464FF480421846002BD8
:1053D000ECD004F580440AF093FFBC42EAD10025EA
:1053E000294668464FF48072356022F0CBFD1448A0
:1053F00008EB05241AF0ACFCD8B111481AF0D6FC21
:105400004FF48072014620461BF0AEF80C481AF0AB
:10541000E9FC21464FF48072684622F01DFD002809
:10542000E5D00135064808EB05241AF091FC002868
:10543000E3D16D08356041B0BDE8F0839876022075
:10544000A8580220CC5402208019FF1F2DE9F047F4
:10545000DFF8C0C1684A9CF8003000251570002BA9
:1054600000F098805F1EFFB2644A654B92F800E03E
:10547000DFF8A481013707EB470703EB870703F148
:105480000804BEF1000F6ED0197A05EB4506A4F1B1
:10549000080208EB860605F1010921B107CA86E872
:1054A00007005FFA89F50C33BB4204F10C04E8D124
:1054B000544E8CF800503778A7B17D1EEDB20135FF
:1054C00005EB4505DFF838C1DFF850E1AD000023FA
:1054D0000CEB030207CA0EEB03040C33AB4284E867
:1054E0000700F5D1484B4949494A37700624092538
:1054F0000A209C700D245D7018711F461D461C709B
:10550000DC7004230B700523DFF814A1DFF814917D
:10551000DFF81481DFF814C1DFF814E11370002004
:10552000D4B101230026C2B201E00133DBB2591E1F
:10553000C9B288B3012A39D0022A54D0032A3DD0F7
:10554000042843D0A342F0D3013005282E7008D0A0
:1055500015F8014F002CE4D10130264605282E70A5
:10556000F6D1BDE8F08714F8082CA2F164010129F6
:1055700099D9672A97D0197A05EB4506A4F1080254
:1055800008EB860600298ED007CA013586E8070099
:10559000EDB288E71D468BE701EB41010EEB81017F
:1055A000097A0029CED00136F6B2CBE701EB4101F2
:1055B0000CEB8101097A0029C4D0F4E701EB410129
:1055C00009EB8101097A0029BCD0ECE701EB41012C
:1055D0000AEB8101097A09B10136F6B2A342A4D3DC
:1055E0003E71BDE8F08701EB410108EB8101097ACA
:1055F0000029A7D0D7E700BF4C5F0220BC5702208C
:105600002C31040080410220C05702208C4202202D
:10561000DC410220744202205C79022048550220BD
:10562000B430040078170400A4C00200FCDF0200BC
:1056300014180400FFFFFFFF70B5044B1B680446FD
:1056400084B018460D46FCF769FE01E000D0034027
:10565000FF2C00F22081DFE814F098038D038B0308
:1056600080039E039B031E01A6033A0358031E01F9
:105670001E014D031E011E011E011E011E011E0101
:105680001E011E011E011E011E011E011E011E0122
:105690001E011E011E011E011E011E011E011E0112
:1056A0001E011E011E011E011E011E011E011E0102
:1056B0001E011E011E011E011E011E011E011E01F2
:1056C0001E011E011E011E011E011E011E011E01E2
:1056D0001E011E011E011E011E011E011E011E01D2
:1056E0001E011E011E011E011E011E011E011E01C2
:1056F0001E011E011E011E011E011E011E011E01B2
:105700001E011E011E011E011E011E011E011E01A1
:105710001E011E011E011E011E011E011E011E0191
:105720001E014B034303A8031E011E017E031E013D
:105730001E011E011E011E011E011E011E011E0171
:105740001E011E011E011E011E0130021A02F50279
:105750001E011E011E011E011E011E011E011E0151
:105760001E011E011E011E011E011E011E011E0141
:105770001E011E011E011E011E011E011E011E0131
:105780001E011E011E01E902E702DD02D502C90267
:105790003B0239020D0304030003F7022403120342
:1057A0001E011E011E011E011E011E011E011E0101
:1057B0001E011E011E011E011E011E011E011E01F1
:1057C0001E011E011E011E011E011E011E011E01E1
:1057D0001E011E011E011E011E011E011E011E01D1
:1057E0001E011E011E011E011E011E012603FA01DB
:1057F000EE011E011E011E011E011E01E701DF0157
:10580000D701CF01C701BB011E011E011E011E01F0
:105810001E01B901B101A9011E011E011E011E01D7
:105820001E011E011E011E011E011E011E011E0180
:105830001E011E011E011E011E01A701920186010B
:1058400071016B0160011E013C011E013301210148
:105850001E011E011E011E010001032D00F2B18276
:10586000AC4BAD4853F82520142122F0E7FDAB4B9B
:105870001B78AB4200F0D182A94B1B78AB420AD116
:10588000A84B1B78002B40F07483A74DA24C0FCD82
:105890000FC42B682360A04804B070BDA34B93F9DC
:1058A0000030002B00F0A382012B00F05583022B67
:1058B000F1D19F4A984B92E8030018601971EAE70A
:1058C0009C4B9D4A93F900309348142122F0B6FD79
:1058D000E1E79A4B9FED9A7AD3ED007AF8EEE77AFA
:1058E000C7EE876A16EE900A21F05EFA954B9FED9F
:1058F000967AD3ED007AF8EEE77ACDE90201C7EEA9
:10590000876A16EE900A21F04FFA904ACDE900011D
:105910001421814822F092FDBDE78D4A8D4B12780B
:105920001B787D48009214218B4A22F087FDB2E754
:105930008A4A7948142122F081FDACE7884B9FED1B
:10594000897AD3ED007AF8EE677A67EE877A17EEF8
:10595000900A21F029FA844ACDE9000114216E4809
:1059600022F06CFD97E7814B9FED757AD3ED007ABD
:10597000F8EEE77AC7EE876A16EE900AE9E77C4B05
:10598000D3ED007A9FED7B7AF8EEE77AC7EE876A6F
:1059900016EE900A21F008FA774ACDE900011421A9
:1059A0005D4822F04BFD76E7744BE9E7744B754A8E
:1059B0001B885948142122F041FD6CE7724B734A51
:1059C0001B685548142122F039FD64E7704BF6E757
:1059D000704B1B78002B40F03C816F4B4E4A1B688C
:1059E00013801B0C937056E76C4B6D4A1B784A482A
:1059F000142122F023FD4EE76A4B694A9B68464812
:105A0000142122F01BFD46E7664B654A5B6842485D
:105A1000142122F013FD3EE7624B614A1B683E48A9
:105A2000142122F00BFD36E75F4B3B4819680C222E
:105A300022F0E4FF2FE75D4B93F90030012B00F0DB
:105A4000FA815B4A344B07CA03C31A7023E7594BE8
:105A5000594C1868FCF762FC94F90030002B00F0F8
:105A6000B481012B00F0EB81022B7FF414AF534B78
:105A70005349544A1B68096812680092019103F265
:105A8000B273514A2448142122F0D8FC03E74F4B4B
:105A90001B889FED4F7A07EE903AF8EEE77A67EEB3
:105AA000877A17EE900A21F07FF94A4ACDE9000182
:105AB0001421194822F0C2FCEDE6474B1B78002B5D
:105AC00000F0C780144B454A1A60E4E6444B8CE76B
:105AD000444B1B7844495A08A1FB02129208C2EBBE
