:1000000000000320D101000009530100C15201008A
:10001000C1520100C1520100C1520100C152010090
:10002000C1520100C1520100C15201000953010037
:1000300009530100C15201004D6E0100516E0100D3
:10004000095301000953010009530100095301003C
:10005000095301000953010009530100095301002C
:10006000095301000953010009530100095301001C
:10007000095301000953010009530100095301000C
:1000800009530100095301000953010009530100FC
:1000900009530100095301000953010009530100EC
:1000A000758101008181010009530100095301009C
:1000B00009530100095301000953010009530100CC
:1000C00009530100095301000953010009530100BC
:1000D00009530100095301000953010009530100AC
:1000E000095301000953010009530100095301009C
:1000F000095301000953010009530100095301008C
:10010000095301000953010009530100095301007B
:10011000095301005D5D010009530100095301000D
:10012000095301000953010009530100095301005B
:10013000095301000953010009530100095301004B
:10014000DD47010009530100095301000953010073
:10015000095301000953010009530100095301002B
:1001600009530100095301008D8101000953010069
:10017000095301000953010009530100095301000B
:1001800009530100095301000953010009530100FB
:1001900009530100095301000953010009530100EB
:1001A00009530100095301000953010009530100DB
:1001B00009530100095301000953010009530100CB
:1001C00009530100095301000953010009530100BB
:1001D0005C4B4CF2205210B51A804DF628121A8052
:1001E00000BF00BF15F094F8574B4FF030621A6013
:1001F000564A9A60564ADA60564B4FF470021A60BB
:10020000554B564A1A60564B1A78110703D51A787F
:1002100042F008021A70534B5349AA221A70534AEB
:10022000534B8B4204D252F8040F43F8040BF8E707
:10023000504B514900228B4202D243F8042BFAE77B
:100240004E494F4A002352F8230041F8230001335E
:10025000742BF8D14B4B4C4A802103F8011B93427D
:10026000FBD14A4B454A1A60494B8A221A70A3F5C2
:10027000805324225A70A0221A709A799207FCD5D2
:100280009A79D406FCD4434A937903F00C03082BE3
:10029000FAD1414B60221A7002331A78802AFCD1BD
:1002A0003C4B01221A715D225A719A799006FCD555
:1002B0009979384A4906FBD5384B394919600021EC
:1002C000596020231370937903F00C030C2BFAD19F
:1002D000344B354A1A60354A354C136813F4807331
:1002E00003D123604FF4A8531360324B324A1A6093
:1002F00000225A60072243F8042C304AC3F80C2D20
:1003000062B615F09BFB2368DA0705D52C4815F07B
:1003100067F92C4B2C4A1A602C4B1B785B0609D5CD
:10032000284C294B22689A4204D1254815F058F9E7
:100330000023236019F08CFF14F0F0FF14F01EFF6F
:10034000FEE700BF0E20054030800440823F0400DD
:100350000100002B88ED00E0002008E0030000858C
:1003600002D0074000E00740F04C0020B0500400ED
:10037000303D0020F04C0020B495022000380020D1
:100380000000000000E400E064E400E008ED00E0AC
:10039000005006400040064001E007404480044011
:1003A0000000060204800440C010070010D0034083
:1003B00014D0034014E000E01FBF02000000202022
:1003C00097BD65601CE00340A5C3945A00F0074048
:1003D000FFFFFFFFFFFFFFFFFFFFFFFFFFFFFFFF2D
:1003E000FFFFFFFFFFFFFFFFFFFFFFFFFFFFFFFF1D
:1003F000FFFFFFFFFFFFFFFFFFFFFFFFFFFFFFFF0D
:10040000FFFFFFFFFFFFFFFFFFFFFFFFDEF9FFFF23
:1004100010B5054C237833B9044B13B10448AFF33E
:1004200000800123237010BDF04C0020000000006C
:10043000AC500400084B10B51BB108490848AFF395
:1004400000800848036803B910BD074B002BFBD0A0
:10045000BDE81040184700BF00000000F44C002029
:10046000AC500400F04C00200000000010B5044B1C
:10047000044640F8183B09F073F9204610BD00BF50
:10048000BC1C030015F0A6B810B5044614F050F9D2
:10049000204610BD214B10B4D3F8D8201368506803
:1004A00019780478507A137A044201EA03011BD0C8
:1004B000937A03F0030309B143F0040343F0080304
:1004C0009910013B91720D2B0BD8DFE803F0210747
:1004D0001B070A152121150A071B0721D368013BB9
:1004E000D3605DF8044B7047937A03F0030300294F
:1004F000E6D043F00403E3E7D3685DF8044B023B26
:10050000D3607047D3685DF8044B0233D360704703
:10051000D3685DF8044B0133D3607047DC8D022053
:10052000214B10B4D3F8E820136850681978047888
:10053000507A137A044201EA03011BD0937A03F044
:10054000030309B143F0040343F008039910013B8E
:1005500091720D2B0BD8DFE803F021071B070A155A
:100560002121150A071B0721D368013BD3605DF8E1
:10057000044B7047937A03F003030029E6D043F05D
:100580000403E3E7D3685DF8044B023BD360704794
:10059000D3685DF8044B0233D3607047D3685DF8CD
:1005A000044B0133D3607047DC8D0220214B10B423
:1005B000D3F8EC201368506819780478507A137ACD
:1005C000044201EA03011BD0937A03F0030309B14B
:1005D00043F0040343F008039910013B91720D2B83
:1005E0000BD8DFE803F021071B070A152121150AA4
:1005F000071B0721D368013BD3605DF8044B7047AC
:10060000937A03F003030029E6D043F00403E3E701
:10061000D3685DF8044B023BD3607047D3685DF844
:10062000044B0233D3607047D3685DF8044B013349
:10063000D3607047DC8D0220214B10B41A68136818
:10064000506819780478507A137A044201EA030159
:100650001BD0937A03F0030309B143F0040343F082
:1006600008039910013B91720D2B0BD8DFE803F0C2
:1006700021071B070A152121150A071B0721D3682B
:10068000013BD3605DF8044B7047937A03F003039A
:100690000029E6D043F00403E3E7D3685DF8044B98
:1006A000023BD3607047D3685DF8044B0233D360DC
:1006B0007047D3685DF8044B0133D360704700BFC7
:1006C000DC8D0220214B10B45A68136850681978E9
:1006D0000478507A137A044201EA03011BD0937A1A
:1006E00003F0030309B143F0040343F00803991036
:1006F000013B91720D2B0BD8DFE803F021071B079C
:100700000A152121150A071B0721D368013BD36075
:100710005DF8044B7047937A03F003030029E6D099
:1007200043F00403E3E7D3685DF8044B023BD36076
:100730007047D3685DF8044B0233D3607047D368C9
:100740005DF8044B0133D360704700BFDC8D02209D
:10075000214B10B49A681368506819780478507A5D
:10076000137A044201EA03011BD0937A03F00303D6
:1007700009B143F0040343F008039910013B91725F
:100780000D2B0BD8DFE803F021071B070A152121E9
:10079000150A071B0721D368013BD3605DF8044BA2
:1007A0007047937A03F003030029E6D043F0040373
:1007B000E3E7D3685DF8044B023BD3607047D3682E
:1007C0005DF8044B0233D3607047D3685DF8044B87
:1007D0000133D360704700BFDC8D0220214B10B481
:1007E000DA681368506819780478507A137A0442EA
:1007F00001EA03011BD0937A03F0030309B143F02C
:10080000040343F008039910013B91720D2B0BD8A0
:10081000DFE803F021071B070A152121150A071B32
:100820000721D368013BD3605DF8044B7047937A8E
:1008300003F003030029E6D043F00403E3E7D368A1
:100840005DF8044B023BD3607047D3685DF8044BFE
:100850000233D3607047D3685DF8044B0133D36033
:10086000704700BFDC8D0220214B10B41A69136859
:10087000506819780478507A137A044201EA030127
:100880001BD0937A03F0030309B143F0040343F050
:1008900008039910013B91720D2B0BD8DFE803F090
:1008A00021071B070A152121150A071B0721D368F9
:1008B000013BD3605DF8044B7047937A03F0030368
:1008C0000029E6D043F00403E3E7D3685DF8044B66
:1008D000023BD3607047D3685DF8044B0233D360AA
:1008E0007047D3685DF8044B0133D360704700BF95
:1008F000DC8D0220214B10B45A69136850681978B6
:100900000478507A137A044201EA03011BD0937AE7
:1009100003F0030309B143F0040343F00803991003
:10092000013B91720D2B0BD8DFE803F021071B0769
:100930000A152121150A071B0721D368013BD36043
:100940005DF8044B7047937A03F003030029E6D067
:1009500043F00403E3E7D3685DF8044B023BD36044
:100960007047D3685DF8044B0233D3607047D36897
:100970005DF8044B0133D360704700BFDC8D02206B
:10098000214B10B49A691368506819780478507A2A
:10099000137A044201EA03011BD0937A03F00303A4
:1009A00009B143F0040343F008039910013B91722D
:1009B0000D2B0BD8DFE803F021071B070A152121B7
:1009C000150A071B0721D368013BD3605DF8044B70
:1009D0007047937A03F003030029E6D043F0040341
:1009E000E3E7D3685DF8044B023BD3607047D368FC
:1009F0005DF8044B0233D3607047D3685DF8044B55
:100A00000133D360704700BFDC8D0220214B10B44E
:100A1000DA691368506819780478507A137A0442B6
:100A200001EA03011BD0937A03F0030309B143F0F9
:100A3000040343F008039910013B91720D2B0BD86E
:100A4000DFE803F021071B070A152121150A071B00
:100A50000721D368013BD3605DF8044B7047937A5C
:100A600003F003030029E6D043F00403E3E7D3686F
:100A70005DF8044B023BD3607047D3685DF8044BCC
:100A80000233D3607047D3685DF8044B0133D36001
:100A9000704700BFDC8D0220214B10B41A6A136826
:100AA000506819780478507A137A044201EA0301F5
:100AB0001BD0937A03F0030309B143F0040343F01E
:100AC00008039910013B91720D2B0BD8DFE803F05E
:100AD00021071B070A152121150A071B0721D368C7
:100AE000013BD3605DF8044B7047937A03F0030336
:100AF0000029E6D043F00403E3E7D3685DF8044B34
:100B0000023BD3607047D3685DF8044B0233D36077
:100B10007047D3685DF8044B0133D360704700BF62
:100B2000DC8D0220214B10B45A6A13685068197882
:100B30000478507A137A044201EA03011BD0937AB5
:100B400003F0030309B143F0040343F008039910D1
:100B5000013B91720D2B0BD8DFE803F021071B0737
:100B60000A152121150A071B0721D368013BD36011
:100B70005DF8044B7047937A03F003030029E6D035
:100B800043F00403E3E7D3685DF8044B023BD36012
:100B90007047D3685DF8044B0233D3607047D36865
:100BA0005DF8044B0133D360704700BFDC8D022039
:100BB000214B10B49A6A1368506819780478507AF7
:100BC000137A044201EA03011BD0937A03F0030372
:100BD00009B143F0040343F008039910013B9172FB
:100BE0000D2B0BD8DFE803F021071B070A15212185
:100BF000150A071B0721D368013BD3605DF8044B3E
:100C00007047937A03F003030029E6D043F004030E
:100C1000E3E7D3685DF8044B023BD3607047D368C9
:100C20005DF8044B0233D3607047D3685DF8044B22
:100C30000133D360704700BFDC8D0220214B10B41C
:100C4000DA6A1368506819780478507A137A044283
:100C500001EA03011BD0937A03F0030309B143F0C7
:100C6000040343F008039910013B91720D2B0BD83C
:100C7000DFE803F021071B070A152121150A071BCE
:100C80000721D368013BD3605DF8044B7047937A2A
:100C900003F003030029E6D043F00403E3E7D3683D
:100CA0005DF8044B023BD3607047D3685DF8044B9A
:100CB0000233D3607047D3685DF8044B0133D360CF
:100CC000704700BFDC8D0220214B10B41A6B1368F3
:100CD000506819780478507A137A044201EA0301C3
:100CE0001BD0937A03F0030309B143F0040343F0EC
:100CF00008039910013B91720D2B0BD8DFE803F02C
:100D000021071B070A152121150A071B0721D36894
:100D1000013BD3605DF8044B7047937A03F0030303
:100D20000029E6D043F00403E3E7D3685DF8044B01
:100D3000023BD3607047D3685DF8044B0233D36045
:100D40007047D3685DF8044B0133D360704700BF30
:100D5000DC8D0220214B10B45A6B1368506819784F
:100D60000478507A137A044201EA03011BD0937A83
:100D700003F0030309B143F0040343F0080399109F
:100D8000013B91720D2B0BD8DFE803F021071B0705
:100D90000A152121150A071B0721D368013BD360DF
:100DA0005DF8044B7047937A03F003030029E6D003
:100DB00043F00403E3E7D3685DF8044B023BD360E0
:100DC0007047D3685DF8044B0233D3607047D36833
:100DD0005DF8044B0133D360704700BFDC8D022007
:100DE000214B10B49A6B1368506819780478507AC4
:100DF000137A044201EA03011BD0937A03F0030340
:100E000009B143F0040343F008039910013B9172C8
:100E10000D2B0BD8DFE803F021071B070A15212152
:100E2000150A071B0721D368013BD3605DF8044B0B
:100E30007047937A03F003030029E6D043F00403DC
:100E4000E3E7D3685DF8044B023BD3607047D36897
:100E50005DF8044B0233D3607047D3685DF8044BF0
:100E60000133D360704700BFDC8D0220214B10B4EA
:100E7000DA6B1368506819780478507A137A044250
:100E800001EA03011BD0937A03F0030309B143F095
:100E9000040343F008039910013B91720D2B0BD80A
:100EA000DFE803F021071B070A152121150A071B9C
:100EB0000721D368013BD3605DF8044B7047937AF8
:100EC00003F003030029E6D043F00403E3E7D3680B
:100ED0005DF8044B023BD3607047D3685DF8044B68
:100EE0000233D3607047D3685DF8044B0133D3609D
:100EF000704700BFDC8D0220214B10B41A6C1368C0
:100F0000506819780478507A137A044201EA030190
:100F10001BD0937A03F0030309B143F0040343F0B9
:100F200008039910013B91720D2B0BD8DFE803F0F9
:100F300021071B070A152121150A071B0721D36862
:100F4000013BD3605DF8044B7047937A03F00303D1
:100F50000029E6D043F00403E3E7D3685DF8044BCF
:100F6000023BD3607047D3685DF8044B0233D36013
:100F70007047D3685DF8044B0133D360704700BFFE
:100F8000DC8D0220214B10B45A6C1368506819781C
:100F90000478507A137A044201EA03011BD0937A51
:100FA00003F0030309B143F0040343F0080399106D
:100FB000013B91720D2B0BD8DFE803F021071B07D3
:100FC0000A152121150A071B0721D368013BD360AD
:100FD0005DF8044B7047937A03F003030029E6D0D1
:100FE00043F00403E3E7D3685DF8044B023BD360AE
:100FF0007047D3685DF8044B0233D3607047D36801
:101000005DF8044B0133D360704700BFDC8D0220D4
:10101000214B10B49A6C1368506819780478507A90
:10102000137A044201EA03011BD0937A03F003030D
:1010300009B143F0040343F008039910013B917296
:101040000D2B0BD8DFE803F021071B070A15212120
:10105000150A071B0721D368013BD3605DF8044BD9
:101060007047937A03F003030029E6D043F00403AA
:10107000E3E7D3685DF8044B023BD3607047D36865
:101080005DF8044B0233D3607047D3685DF8044BBE
:101090000133D360704700BFDC8D0220214B10B4B8
:1010A000DA6C1368506819780478507A137A04421D
:1010B00001EA03011BD0937A03F0030309B143F063
:1010C000040343F008039910013B91720D2B0BD8D8
:1010D000DFE803F021071B070A152121150A071B6A
:1010E0000721D368013BD3605DF8044B7047937AC6
:1010F00003F003030029E6D043F00403E3E7D368D9
:101100005DF8044B023BD3607047D3685DF8044B35
:101110000233D3607047D3685DF8044B0133D3606A
:10112000704700BFDC8D0220214B10B41A6D13688C
:10113000506819780478507A137A044201EA03015E
:101140001BD0937A03F0030309B143F0040343F087
:1011500008039910013B91720D2B0BD8DFE803F0C7
:1011600021071B070A152121150A071B0721D36830
:10117000013BD3605DF8044B7047937A03F003039F
:101180000029E6D043F00403E3E7D3685DF8044B9D
:10119000023BD3607047D3685DF8044B0233D360E1
:1011A0007047D3685DF8044B0133D360704700BFCC
:1011B000DC8D0220214B10B45A6D136850681978E9
:1011C0000478507A137A044201EA03011BD0937A1F
:1011D00003F0030309B143F0040343F0080399103B
:1011E000013B91720D2B0BD8DFE803F021071B07A1
:1011F0000A152121150A071B0721D368013BD3607B
:101200005DF8044B7047937A03F003030029E6D09E
:1012100043F00403E3E7D3685DF8044B023BD3607B
:101220007047D3685DF8044B0233D3607047D368CE
:101230005DF8044B0133D360704700BFDC8D0220A2
:10124000214B10B49A6D1368506819780478507A5D
:10125000137A044201EA03011BD0937A03F00303DB
:1012600009B143F0040343F008039910013B917264
:101270000D2B0BD8DFE803F021071B070A152121EE
:10128000150A071B0721D368013BD3605DF8044BA7
:101290007047937A03F003030029E6D043F0040378
:1012A000E3E7D3685DF8044B023BD3607047D36833
:1012B0005DF8044B0233D3607047D3685DF8044B8C
:1012C0000133D360704700BFDC8D0220214B10B486
:1012D000DA6D1368506819780478507A137A0442EA
:1012E00001EA03011BD0937A03F0030309B143F031
:1012F000040343F008039910013B91720D2B0BD8A6
:10130000DFE803F021071B070A152121150A071B37
:101310000721D368013BD3605DF8044B7047937A93
:1013200003F003030029E6D043F00403E3E7D368A6
:101330005DF8044B023BD3607047D3685DF8044B03
:101340000233D3607047D3685DF8044B0133D36038
:10135000704700BFDC8D0220214B10B41A6E136859
:10136000506819780478507A137A044201EA03012C
:101370001BD0937A03F0030309B143F0040343F055
:1013800008039910013B91720D2B0BD8DFE803F095
:1013900021071B070A152121150A071B0721D368FE
:1013A000013BD3605DF8044B7047937A03F003036D
:1013B0000029E6D043F00403E3E7D3685DF8044B6B
:1013C000023BD3607047D3685DF8044B0233D360AF
:1013D0007047D3685DF8044B0133D360704700BF9A
:1013E000DC8D0220214B10B45A6E136850681978B6
:1013F0000478507A137A044201EA03011BD0937AED
:1014000003F0030309B143F0040343F00803991008
:10141000013B91720D2B0BD8DFE803F021071B076E
:101420000A152121150A071B0721D368013BD36048
:101430005DF8044B7047937A03F003030029E6D06C
:1014400043F00403E3E7D3685DF8044B023BD36049
:101450007047D3685DF8044B0233D3607047D3689C
:101460005DF8044B0133D360704700BFDC8D022070
:10147000214B10B49A6E1368506819780478507A2A
:10148000137A044201EA03011BD0937A03F00303A9
:1014900009B143F0040343F008039910013B917232
:1014A0000D2B0BD8DFE803F021071B070A152121BC
:1014B000150A071B0721D368013BD3605DF8044B75
:1014C0007047937A03F003030029E6D043F0040346
:1014D000E3E7D3685DF8044B023BD3607047D36801
:1014E0005DF8044B0233D3607047D3685DF8044B5A
:1014F0000133D360704700BFDC8D0220214B10B454
:10150000DA6E1368506819780478507A137A0442B6
:1015100001EA03011BD0937A03F0030309B143F0FE
:10152000040343F008039910013B91720D2B0BD873
:10153000DFE803F021071B070A152121150A071B05
:101540000721D368013BD3605DF8044B7047937A61
:1015500003F003030029E6D043F00403E3E7D36874
:101560005DF8044B023BD3607047D3685DF8044BD1
:101570000233D3607047D3685DF8044B0133D36006
:10158000704700BFDC8D0220214B10B41A6F136826
:10159000506819780478507A137A044201EA0301FA
:1015A0001BD0937A03F0030309B143F0040343F023
:1015B00008039910013B91720D2B0BD8DFE803F063
:1015C00021071B070A152121150A071B0721D368CC
:1015D000013BD3605DF8044B7047937A03F003033B
:1015E0000029E6D043F00403E3E7D3685DF8044B39
:1015F000023BD3607047D3685DF8044B0233D3607D
:101600007047D3685DF8044B0133D360704700BF67
:10161000DC8D0220214B10B45A6F13685068197882
:101620000478507A137A044201EA03011BD0937ABA
:1016300003F0030309B143F0040343F008039910D6
:10164000013B91720D2B0BD8DFE803F021071B073C
:101650000A152121150A071B0721D368013BD36016
:101660005DF8044B7047937A03F003030029E6D03A
:1016700043F00403E3E7D3685DF8044B023BD36017
:101680007047D3685DF8044B0233D3607047D3686A
:101690005DF8044B0133D360704700BFDC8D02203E
:1016A000214B10B49A6F1368506819780478507AF7
:1016B000137A044201EA03011BD0937A03F0030377
:1016C00009B143F0040343F008039910013B917200
:1016D0000D2B0BD8DFE803F021071B070A1521218A
:1016E000150A071B0721D368013BD3605DF8044B43
:1016F0007047937A03F003030029E6D043F0040314
:10170000E3E7D3685DF8044B023BD3607047D368CE
:101710005DF8044B0233D3607047D3685DF8044B27
:101720000133D360704700BFDC8D0220214B10B421
:10173000DA6F1368506819780478507A137A044283
:1017400001EA03011BD0937A03F0030309B143F0CC
:10175000040343F008039910013B91720D2B0BD841
:10176000DFE803F021071B070A152121150A071BD3
:101770000721D368013BD3605DF8044B7047937A2F
:1017800003F003030029E6D043F00403E3E7D36842
:101790005DF8044B023BD3607047D3685DF8044B9F
:1017A0000233D3607047D3685DF8044B0133D360D4
:1017B000704700BFDC8D0220214B10B4D3F880208D
:1017C0001368506819780478507A137A044201EA51
:1017D00003011BD0937A03F0030309B143F0040320
:1017E00043F008039910013B91720D2B0BD8DFE8F1
:1017F00003F021071B070A152121150A071B0721E2
:10180000D368013BD3605DF8044B7047937A03F0D3
:1018100003030029E6D043F00403E3E7D3685DF84F
:10182000044B023BD3607047D3685DF8044B02332E
:10183000D3607047D3685DF8044B0133D3607047C1
:10184000DC8D0220214B10B4D3F88420136850683B
:1018500019780478507A137A044201EA03011BD004
:10186000937A03F0030309B143F0040343F0080340
:101870009910013B91720D2B0BD8DFE803F0210783
:101880001B070A152121150A071B0721D368013BF5
:10189000D3605DF8044B7047937A03F0030300298B
:1018A000E6D043F00403E3E7D3685DF8044B023B62
:1018B000D3607047D3685DF8044B0233D360704740
:1018C000D3685DF8044B0133D3607047DC8D022090
:1018D000214B10B4D3F88820136850681978047825
:1018E000507A137A044201EA03011BD0937A03F081
:1018F000030309B143F0040343F008039910013BCB
:1019000091720D2B0BD8DFE803F021071B070A1596
:101910002121150A071B0721D368013BD3605DF81D
:10192000044B7047937A03F003030029E6D043F099
:101930000403E3E7D3685DF8044B023BD3607047D0
:10194000D3685DF8044B0233D3607047D3685DF809
:10195000044B0133D3607047DC8D0220214B10B45F
:10196000D3F88C201368506819780478507A137A69
:10197000044201EA03011BD0937A03F0030309B187
:1019800043F0040343F008039910013B91720D2BBF
:101990000BD8DFE803F021071B070A152121150AE0
:1019A000071B0721D368013BD3605DF8044B7047E8
:1019B000937A03F003030029E6D043F00403E3E73E
:1019C000D3685DF8044B023BD3607047D3685DF881
:1019D000044B0233D3607047D3685DF8044B013386
:1019E000D3607047DC8D0220214B10B4D3F89020D7
:1019F0001368506819780478507A137A044201EA1F
:101A000003011BD0937A03F0030309B143F00403ED
:101A100043F008039910013B91720D2B0BD8DFE8BE
:101A200003F021071B070A152121150A071B0721AF
:101A3000D368013BD3605DF8044B7047937A03F0A1
:101A400003030029E6D043F00403E3E7D3685DF81D
:101A5000044B023BD3607047D3685DF8044B0233FC
:101A6000D3607047D3685DF8044B0133D36070478F
:101A7000DC8D0220214B10B4D3F8942013685068F9
:101A800019780478507A137A044201EA03011BD0D2
:101A9000937A03F0030309B143F0040343F008030E
:101AA0009910013B91720D2B0BD8DFE803F0210751
:101AB0001B070A152121150A071B0721D368013BC3
:101AC000D3605DF8044B7047937A03F00303002959
:101AD000E6D043F00403E3E7D3685DF8044B023B30
:101AE000D3607047D3685DF8044B0233D36070470E
:101AF000D3685DF8044B0133D3607047DC8D02205E
:101B0000214B10B4D3F898201368506819780478E2
:101B1000507A137A044201EA03011BD0937A03F04E
:101B2000030309B143F0040343F008039910013B98
:101B300091720D2B0BD8DFE803F021071B070A1564
:101B40002121150A071B0721D368013BD3605DF8EB
:101B5000044B7047937A03F003030029E6D043F067
:101B60000403E3E7D3685DF8044B023BD36070479E
:101B7000D3685DF8044B0233D3607047D3685DF8D7
:101B8000044B0133D3607047DC8D0220214B10B42D
:101B9000D3F89C201368506819780478507A137A27
:101BA000044201EA03011BD0937A03F0030309B155
:101BB00043F0040343F008039910013B91720D2B8D
:101BC0000BD8DFE803F021071B070A152121150AAE
:101BD000071B0721D368013BD3605DF8044B7047B6
:101BE000937A03F003030029E6D043F00403E3E70C
:101BF000D3685DF8044B023BD3607047D3685DF84F
:101C0000044B0233D3607047D3685DF8044B013353
:101C1000D3607047DC8D0220214B10B4D3F8A02094
:101C20001368506819780478507A137A044201EAEC
:101C300003011BD0937A03F0030309B143F00403BB
:101C400043F008039910013B91720D2B0BD8DFE88C
:101C500003F021071B070A152121150A071B07217D
:101C6000D368013BD3605DF8044B7047937A03F06F
:101C700003030029E6D043F00403E3E7D3685DF8EB
:101C8000044B023BD3607047D3685DF8044B0233CA
:101C9000D3607047D3685DF8044B0133D36070475D
:101CA000DC8D0220214B10B4D3F8A42013685068B7
:101CB00019780478507A137A044201EA03011BD0A0
:101CC000937A03F0030309B143F0040343F00803DC
:101CD0009910013B91720D2B0BD8DFE803F021071F
:101CE0001B070A152121150A071B0721D368013B91
:101CF000D3605DF8044B7047937A03F00303002927
:101D0000E6D043F00403E3E7D3685DF8044B023BFD
:101D1000D3607047D3685DF8044B0233D3607047DB
:101D2000D3685DF8044B0133D3607047DC8D02202B
:101D3000214B10B4D3F8A8201368506819780478A0
:101D4000507A137A044201EA03011BD0937A03F01C
:101D5000030309B143F0040343F008039910013B66
:101D600091720D2B0BD8DFE803F021071B070A1532
:101D70002121150A071B0721D368013BD3605DF8B9
:101D8000044B7047937A03F003030029E6D043F035
:101D90000403E3E7D3685DF8044B023BD36070476C
:101DA000D3685DF8044B0233D3607047D3685DF8A5
:101DB000044B0133D3607047DC8D0220214B10B4FB
:101DC000D3F8AC201368506819780478507A137AE5
:101DD000044201EA03011BD0937A03F0030309B123
:101DE00043F0040343F008039910013B91720D2B5B
:101DF0000BD8DFE803F021071B070A152121150A7C
:101E0000071B0721D368013BD3605DF8044B704783
:101E1000937A03F003030029E6D043F00403E3E7D9
:101E2000D3685DF8044B023BD3607047D3685DF81C
:101E3000044B0233D3607047D3685DF8044B013321
:101E4000D3607047DC8D0220214B10B4D3F8B02052
:101E50001368506819780478507A137A044201EABA
:101E600003011BD0937A03F0030309B143F0040389
:101E700043F008039910013B91720D2B0BD8DFE85A
:101E800003F021071B070A152121150A071B07214B
:101E9000D368013BD3605DF8044B7047937A03F03D
:101EA00003030029E6D043F00403E3E7D3685DF8B9
:101EB000044B023BD3607047D3685DF8044B023398
:101EC000D3607047D3685DF8044B0133D36070472B
:101ED000DC8D0220214B10B4D3F8B4201368506875
:101EE00019780478507A137A044201EA03011BD06E
:101EF000937A03F0030309B143F0040343F00803AA
:101F00009910013B91720D2B0BD8DFE803F02107EC
:101F10001B070A152121150A071B0721D368013B5E
:101F2000D3605DF8044B7047937A03F003030029F4
:101F3000E6D043F00403E3E7D3685DF8044B023BCB
:101F4000D3607047D3685DF8044B0233D3607047A9
:101F5000D3685DF8044B0133D3607047DC8D0220F9
:101F6000214B10B4D3F8B82013685068197804785E
:101F7000507A137A044201EA03011BD0937A03F0EA
:101F8000030309B143F0040343F008039910013B34
:101F900091720D2B0BD8DFE803F021071B070A1500
:101FA0002121150A071B0721D368013BD3605DF887
:101FB000044B7047937A03F003030029E6D043F003
:101FC0000403E3E7D3685DF8044B023BD36070473A
:101FD000D3685DF8044B0233D3607047D3685DF873
:101FE000044B0133D3607047DC8D0220214B10B4C9
:101FF000D3F8BC201368506819780478507A137AA3
:10200000044201EA03011BD0937A03F0030309B1F0
:1020100043F0040343F008039910013B91720D2B28
:102020000BD8DFE803F021071B070A152121150A49
:10203000071B0721D368013BD3605DF8044B704751
:10204000937A03F003030029E6D043F00403E3E7A7
:10205000D3685DF8044B023BD3607047D3685DF8EA
:10206000044B0233D3607047D3685DF8044B0133EF
:10207000D3607047DC8D0220214B10B4D3F8C02010
:102080001368506819780478507A137A044201EA88
:1020900003011BD0937A03F0030309B143F0040357
:1020A00043F008039910013B91720D2B0BD8DFE828
:1020B00003F021071B070A152121150A071B072119
:1020C000D368013BD3605DF8044B7047937A03F00B
:1020D00003030029E6D043F00403E3E7D3685DF887
:1020E000044B023BD3607047D3685DF8044B023366
:1020F000D3607047D3685DF8044B0133D3607047F9
:10210000DC8D0220214B10B4D3F8C4201368506832
:1021100019780478507A137A044201EA03011BD03B
:10212000937A03F0030309B143F0040343F0080377
:102130009910013B91720D2B0BD8DFE803F02107BA
:102140001B070A152121150A071B0721D368013B2C
:10215000D3605DF8044B7047937A03F003030029C2
:10216000E6D043F00403E3E7D3685DF8044B023B99
:10217000D3607047D3685DF8044B0233D360704777
:10218000D3685DF8044B0133D3607047DC8D0220C7
:10219000214B10B4D3F8C82013685068197804781C
:1021A000507A137A044201EA03011BD0937A03F0B8
:1021B000030309B143F0040343F008039910013B02
:1021C00091720D2B0BD8DFE803F021071B070A15CE
:1021D0002121150A071B0721D368013BD3605DF855
:1021E000044B7047937A03F003030029E6D043F0D1
:1021F0000403E3E7D3685DF8044B023BD360704708
:10220000D3685DF8044B0233D3607047D3685DF840
:10221000044B0133D3607047DC8D0220214B10B496
:10222000D3F8CC201368506819780478507A137A60
:10223000044201EA03011BD0937A03F0030309B1BE
:1022400043F0040343F008039910013B91720D2BF6
:102250000BD8DFE803F021071B070A152121150A17
:10226000071B0721D368013BD3605DF8044B70471F
:10227000937A03F003030029E6D043F00403E3E775
:10228000D3685DF8044B023BD3607047D3685DF8B8
:10229000044B0233D3607047D3685DF8044B0133BD
:1022A000D3607047DC8D0220214B10B4D3F8D020CE
:1022B0001368506819780478507A137A044201EA56
:1022C00003011BD0937A03F0030309B143F0040325
:1022D00043F008039910013B91720D2B0BD8DFE8F6
:1022E00003F021071B070A152121150A071B0721E7
:1022F000D368013BD3605DF8044B7047937A03F0D9
:1023000003030029E6D043F00403E3E7D3685DF854
:10231000044B023BD3607047D3685DF8044B023333
:10232000D3607047D3685DF8044B0133D3607047C6
:10233000DC8D0220214B10B4D3F8D42013685068F0
:1023400019780478507A137A044201EA03011BD009
:10235000937A03F0030309B143F0040343F0080345
:102360009910013B91720D2B0BD8DFE803F0210788
:102370001B070A152121150A071B0721D368013BFA
:10238000D3605DF8044B7047937A03F00303002990
:10239000E6D043F00403E3E7D3685DF8044B023B67
:1023A000D3607047D3685DF8044B0233D360704745
:1023B000D3685DF8044B0133D3607047DC8D022095
:1023C000214B10B4D3F8E0201368506819780478D2
:1023D000507A137A044201EA03011BD0937A03F086
:1023E000030309B143F0040343F008039910013BD0
:1023F00091720D2B0BD8DFE803F021071B070A159C
:102400002121150A071B0721D368013BD3605DF822
:10241000044B7047937A03F003030029E6D043F09E
:102420000403E3E7D3685DF8044B023BD3607047D5
:10243000D3685DF8044B0233D3607047D3685DF80E
:10244000044B0133D3607047DC8D0220214B10B464
:10245000D3F8E4201368506819780478507A137A16
:10246000044201EA03011BD0937A03F0030309B18C
:1024700043F0040343F008039910013B91720D2BC4
:102480000BD8DFE803F021071B070A152121150AE5
:10249000071B0721D368013BD3605DF8044B7047ED
:1024A000937A03F003030029E6D043F00403E3E743
:1024B000D3685DF8044B023BD3607047D3685DF886
:1024C000044B0233D3607047D3685DF8044B01338B
:1024D000D3607047DC8D0220214B10B4D3F8DC2090
:1024E0001368506819780478507A137A044201EA24
:1024F00003011BD0937A03F0030309B143F00403F3
:1025000043F008039910013B91720D2B0BD8DFE8C3
:1025100003F021071B070A152121150A071B0721B4
:10252000D368013BD3605DF8044B7047937A03F0A6
:1025300003030029E6D043F00403E3E7D3685DF822
:10254000044B023BD3607047D3685DF8044B023301
:10255000D3607047D3685DF8044B0133D360704794
:10256000DC8D022070B5044608460D4618F0C8FD03
:1025700023680246294620465B68BDE8704018473C
:1025800038B5044608460D4618F0BAFD23680246E1
:1025900029465B68204698470546204612F01EFAF9
:1025A000284438BD002310B4114C4172026104600C
:1025B0000372C36041B1194600E0026942F823107A
:1025C000427A01339A42F8DC0A4B1A680AB90CE0E5
:1025D0001A465369002BFBD150610023436183806D
:1025E000C38083725DF8044B70471860F5E700BF45
:1025F000BCEA0100A093022038B50121044612482C
:1026000014F03AFA1521114814F036FA01210E4857
:1026100014F032FA0E4B53F82450284618F070FD8F
:102620000146284614F028FA0A4812F0D7F90A4B56
:102630000022032C9A61DA611A6204D806344FF43E
:10264000803243F8242038BDD8ED010020EB010092
:10265000203F00200441002064E4012038B501211E
:102660000446134814F008FA0E21124814F004FA34
:1026700001210F4814F000FA0F4B53F8245028465C
:1026800018F03EFD0146284614F0F6F90B4812F00A
:10269000A5F90B4B0022032C9A615A621A62DA6187
:1026A00004D806344FF4803243F8242038BD00BFEC
:1026B000D8ED010038EB0100583E00200441002015
:1026C000FCDD0120344B9FED356A93ED007ADFEDA0
:1026D000346AB8EEC77A07EE900AC6EE075AF8EEEB
:1026E000E77A67EEA57AF4EEE67AF1EE10FA2ADCE4
:1026F0002C4A2D4BC2ED007AF5EEC07A0122F1EEA4
:1027000010FA1A603CD49FED297AF4EEC77AF1EE04
:1027100010FA2CDD264B2749274AD1ED007AD361E8
:10272000F5EEC07AF1EE10FA2CD4B7EE007AF4EEA2
:10273000C77AF1EE10FA27DD4FF480331F49136298
:1027400001230B607047C7EE065A164B1C48164A09
:102750000121F2EE027AE5EEA67AC3ED006AFDEE03
:10276000E77A17EE903AF0EE667A036011609FED1B
:10277000157A67EE877AFCEEE77A17EE903ACAE7A9
:102780000023C8E70023D9E7B0EE677ABEEEC87A27
:1027900017EE103AD2E700BFF8DD0120A6552C470E
:1027A00000E0AB46303E002088E100E0A655AC4694
:1027B00080FFFF7F843E00205CDB012008E100E019
:1027C000243E00204B24BE47284ADFED296AD2ED83
:1027D000007A38B5274B284C93ED007A2268F8EE42
:1027E000677A4FF4FA7167EE877A40F6B83087EE71
:1027F000A67AFDEEC77A17EE903A01FB03F303F5D4
:102800007A73D21A002AB8BF524282421DDD1B4A97
:1028100041F657318B42126818DC41F65833184A9A
:10282000DFED186A1278184D03FB02F207EE902ACA
:10283000F8EEE77A2B6087EEA67AFDEEC77A17EE00
:10284000900AFFF73FFF2B68236038BD0F48D14344
:10285000C90F80FB0202C1EBE2124FF47A7101FB57
:1028600002F29342A8BF1346D9E700BF70E70120E8
:102870000000FA43D83E0020E0DD0120F8DD012011
:10288000B83E00200000C842243E0020D34D621014
:102890002DE9F04F2DED028B694B1B780A2B89B087
:1028A0003DD8684C684B0022D4E9000117F060F86D
:1028B00017F00EFB0022644B0390D4E9020117F0DD
:1028C00057F817F005FB00225F4B0490D4E9040190
:1028D00017F04EF817F0FCFA00225B4B0590D4E994
:1028E000060117F045F817F0F3FA574B069000224F
:1028F000D4E9080117F03CF817F0EAFA03AA0790A8
:102900000021524809F0E6FB514B00214FF4803280
:10291000D9619A6109B0BDEC028BBDE8F08F4D4AD8
:102920009FED4D6AD2ED007ADFED4C6AF8EEE77A62
:102930004FF47A7286EE277A02FB03F307EE903AA1
:10294000F8EEE77A67EE277A67EEA67A17EE900A36
:1029500016F0BAFF41EC100B41EC180B15F07CFCA3
:1029600035A3D3E9002351EC100B17F02BF9B0EE8F
:10297000480AF0EE680ACDE9000115F00DFCDDE92A
:1029800000010022364B5BEC10AB16F03FFE024616
:102990000B4600202C4917F015F9002204460D467D
:1029A0002F4B5046594616F031FE00222D4B8046E3
:1029B000894616F0DDFF22462B4616F0D9FF17F0A8
:1029C00087FA224606462B46404609F10041039607
:1029D00016F0CEFF17F07CFA002204904FF040432F
:1029E00050465946059616F0C3FF22462B4616F070
:1029F000BFFF17F06DFADDE90023069018490020AB
:102A000016F002FE2B46224616F0B2FF17F060FACF
:102A100003AA079000210D4809F05CFB0C4B002134
:102A20004FF480329961DA6109B0BDEC028BBDE8E8
:102A3000F08F00BFAFF30080000000606666F63FD5
:102A4000683E0020903E00200000D04124DD01209F
:102A500010CD0120F8DD0120A6552C47465615392A
:102A60000000F03F0000E03FF8B55B495B4D9FED93
:102A70005C6A2D785B4C5C4E00010B1807EE905A97
:102A80009B685A4D2360002BB4BF03F2FF121A4615
:102A9000521207EE102AF8EEE77AB8EEC77A67EE20
:102AA000867A534A2D7886ED007AC7EE876AFDEE66
:102AB000E66AC2ED006A6DB14E4D2D7807EE905A70
:102AC000F8EEE77A67EE867AC7EE876AFDEEE66A89
:102AD000C2ED006A03EBD3735B1007EE903AF8EE99
:102AE000E77A0B18C7EE876A434A5B68434E444D4A
:102AF00013600123434AFDEEE66AC6ED006A2B60CF
:102B00001368002BFCDB08443F498289C3893F4D91
:102B10003F4F013A1203013B02F47F22C3F30B0340
:102B200013430B60C82012F037FF3A4B1868FFF7C9
:102B3000C9FD394A394B01261660142083F8206BF1
:102B400012F02AFFFFF7A4FE2B78ABB10121344825
:102B500013F092FF1221334813F08EFF0121304809
:102B600013F08AFF2168304811F088FF2E4811F0D9
:102B700035FF3B7813B9F8BD3B78A3B10121284854
:102B800013F07AFF1421294813F076FF012124481D
:102B900013F072FF2168244811F070FF2248BDE84D
:102BA000F84011F01BBF31461D4813F065FF14219A
:102BB0001F4813F061FF3146194813F05DFF21688B
:102BC000194811F05BFF184811F008FF2B78002B13
:102BD000BCD13B78CEE700BF30F80100763E002044
:102BE00000007A44F8DD0120D83E002070E001208A
:102BF00020F00120893E0020B4EB0120DCDD012023
:102C000088E100E000F1024004F10240ACEB012059
:102C1000E8890220243E002008E100E04CCD01209C
:102C2000D8ED010048EB01000441002074EB0100E5
:102C30005CEB010007EE900A9FED0C6ADFED0C6A79
:102C40000C4B0D48B8EEE77ADFED0C7A27EE067AEA
:102C500010B5E7EE267A01241C60FCEEE77A17EE49
:102C6000901A08F037FF064B1C6010BD0AD7233CB2
:102C70000000014388E100E0BC890220EE7CFF3EB9
:102C800008E100E070B5314E04460921304813F0E8
:102C9000F3FE3568012D30D005B170BD04212D48FB
:102CA00013F0EAFE2C4811F099FE2C4B2C4801221F
:102CB0001A60294608F09EFE002CB8BF0334A41009
:102CC000E2B21146264808F0CBFE264B26480125E5
:102CD0001D60294613F0D0FE0721244813F0CCFED6
:102CE0002946214813F0C8FE21461B4811F0C6FEB4
:102CF0001948BDE8704011F071BE03211C4813F063
:102D0000BBFE154811F06AFE144B15481D600022E9
:102D1000114608F0A5FE2946134813F0ADFE072121
:102D2000124813F0A9FE29460F4813F0A5FE2146CC
:102D3000094811F0A3FE084811F050FE214608484A
:102D400008F058FE074B1D603568A5E7503E00208F
:102D50008CEB0100A4EB01000441002088E100E0BD
:102D6000BC89022008E100E0D8ED01009CEB0100E5
:102D700098EB010008B50B463B2800F2C682DFE85D
:102D800010F0BB02B202A902A00297028E028502D5
:102D90007C0273026A02610258024F0246023D023F
:102DA00034022B022202190210020702AE01A50111
:102DB0009C0193018A01810178016F0166015D0127
:102DC00054014A01400136012C01220118010E0173
:102DD0000401FA00F000E600DC00D200C800BE00EA
:102DE000B400AA00A00096008C00820078006E005B
:102DF00064005A00500046003C00BD4ABD49C2F87C
:102E0000EC303B20042212F069FB012008BDB84AD7
:102E1000B949C2F8E8303A20042212F05FFB0120E1
:102E200008BDB34AB549C2F8E4303920042212F093
:102E300055FB012008BDAE4AB149C2F8E030382048
:102E4000042212F04BFB012008BDA94AAD49C2F88B
:102E5000DC303720042212F041FB012008BDA44AD7
:102E6000A949C2F8D8303620042212F037FB0120DD
:102E700008BD9F4AA549C2F8D4303520042212F07B
:102E80002DFB012008BD9A4AA149C2F8D030342058
:102E9000042212F023FB012008BD954A9D49C2F887
:102EA000CC303320042212F019FB012008BD904AD7
:102EB0009949C2F8C8303220042212F00FFB0120D9
:102EC00008BD8B4A9549C2F8C4303120042212F063
:102ED00005FB012008BD864A9149C2F8C030302068
:102EE000042212F0FBFA012008BD814A8D49C2F884
:102EF000BC302F20042212F0F1FA012008BD7C4AD8
:102F00008949C2F8B8302E20042212F0E7FA0120D5
:102F100008BD774A8549C2F8B4302D20042212F04A
:102F2000DDFA012008BD724A8149C2F8B0302C2078
:102F3000042212F0D3FA012008BD6D4A7D49C2F87F
:102F4000AC302B20042212F0C9FA012008BD684AD7
:102F50007949C2F8A8302A20042212F0BFFA0120D1
:102F600008BD634A7549C2F8A4302920042212F032
:102F7000B5FA012008BD5E4A7149C2F8A030282088
:102F8000042212F0ABFA012008BD594A6D49C2F87B
:102F90009C302720042212F0A1FA012008BD544AD7
:102FA0006949C2F898302620042212F097FA0120CD
:102FB00008BD4F4A6549C2F894302520042212F01A
:102FC0008DFA012008BD4A4A6149C2F89030242098
:102FD000042212F083FA012008BD454A5D49C2F877
:102FE0008C302320042212F079FA012008BD404AD7
:102FF0005949C2F888302220042212F06FFA0120C9
:1030000008BD3B4A5549C2F884302120042212F001
:1030100065FA012008BD364A5149C2F880302020A7
:10302000042212F05BFA012008BD314A4D49D367F2
:103030001F20042212F052FA012008BD2C4A4A49EE
:1030400093671E20042212F049FA012008BD284A85
:10305000464953671D20042212F040FA012008BDA2
:10306000234A434913671C20042212F037FA012037
:1030700008BD1F4A3F49D3661B20042212F02EFAD6
:10308000012008BD1A4A3C4993661A20042212F016
:1030900025FA012008BD164A384953661920042232
:1030A00012F01CFA012008BD114A35491366182098
:1030B000042212F013FA012008BD0D4A3149D365EC
:1030C0001720042212F00AFA012008BD084A2E49EE
:1030D00093651620042212F001FA012008BD044A6B
:1030E0002A4953651520042212F0F8F9012008BD81
:1030F000DC8D0220AD050000210500004D240000FC
:10310000C1230000D92400009504000035230000ED
:10311000A92200001D2200009121000005210000CD
:1031200079200000ED1F0000611F0000D51E000087
:10313000491E0000BD1D0000311D0000A51C00003F
:10314000191C00008D1B0000011B0000751A0000F7
:10315000E91900005D190000D118000045180000B1
:10316000B91700002D170000A11600001516000069
:1031700089150000FD14000071140000E513000023
:1031800059130000CD12000041120000B5110000DB
:103190005F4A604913651420042212F09FF9012050
:1031A00008BD5B4A5C49D3641320042212F096F9EF
:1031B000012008BD564A594993641220042212F096
:1031C0008DF9012008BD524A55495364112004224B
:1031D00012F084F9012008BD4D4A524913641020B1
:1031E000042212F07BF9012008BD494A4E49D363FD
:1031F0000F20042212F072F9012008BD444A4B4905
:1032000093630E20042212F069F9012008BD404AA0
:10321000474953630D20042212F060F9012008BDD4
:103220003B4A444913630C20042212F057F9012051
:1032300008BD374A4049D3620B20042212F04EF9F0
:10324000012008BD324A3D4993620A20042212F04F
:1032500045F9012008BD2E4A39495362092004224C
:1032600012F03CF9012008BD294A364913620820B2
:10327000042212F033F9012008BD254A3249D361F6
:103280000720042212F02AF9012008BD204A2F4904
:1032900093610620042212F021F9012008BD1C4A86
:1032A0002B4953610520042212F018F9012008BDB2
:1032B000174A284913610422104612F00FF9012021
:1032C00008BD134A2449D3600320042212F006F9F2
:1032D000012008BD0E4A214993600220042212F009
:1032E000FDF8012008BD0A4A1D495360012004224F
:1032F00012F0F4F8012008BD054A1A4913600020B5
:10330000042212F0EBF8012008BD002008BD00BF28
:10331000DC8D0220291100009D100000111000001A
:10332000850F0000F90E00006D0E0000E10D000099
:10333000550D0000C90C00003D0C0000B10B000051
:10334000250B0000990A00000D0A00008109000009
:10335000F508000069080000DD07000051070000C3
:10336000C506000039060000F8B5044615460E46AD
:103370000846022112F00AFB2846022112F006FB41
:10338000164A174B52F83610012001F500772760D6
:10339000207252F83520607202F5007700206760D5
:1033A000E060013BFDD191F8003292F8002203F079
:1033B0000103D20744BF43F00203DBB2A3722146EC
:1033C0003046FFF7D7FC214620742846FFF7D2FC91
:1033D000237C184420742046F8BD00BF084F03002A
:1033E000C0D40100F0B5344834490678344CDFF8D5
:1033F00000E1344D344A354F354B03C920609EE817
:103400000300A06095E80300E06007CA04F114051A
:1034100003C597E8030025F8022B120C8BB02A7025
:103420001021F8220A2E93F9003060624FF0D40583
:1034300062602161274AA5624FF02801684608BFF3
:10344000002617F017FD6946054604F12C0017F019
:10345000EDFD3346204A2821684617F00BFD2C3538
:1034600006466946601917F0E1FD1C4B1B78354490
:10347000CBB11B4B1B4A1B782821684617F0FAFC7E
:1034800069460646601917F0D1FD174B174A1B789D
:103490002821684617F0EEFC354469460646601957
:1034A00017F0C4FD35442023ADF80030BDF80030DE
:1034B000034863530BB0F0BD683E0020ACEB010045
:1034C000F4890220BCEB0100C4EB0100D0EB010049
:1034D000E9890220D8EB0100E4EB010070E0012053
:1034E000893E0020F4EB0100B93E002004EC01000D
:1034F000B4EB01003C4B93E80300F0B53B4D3C4E70
:1035000028600FCE8BB06C460FC4D6F800E0C4F82C
:1035100000E06E460FCE374F05F108060FC60FCFFD
:10352000C6F800E04FF4FC7C3F68C5F804C06E4666
:103530000FC66946277005F11B0017F077FD2E4B6B
:103540002E4A6846282117F095FC6946044605F185
:103550002B0017F06BFD2A4B2A4A93F9003068467E
:10356000282117F087FC2B3406466946281917F0E6
:103570005DFD254B254A1B780A2B08BF00236846B2
:10358000282117F077FC344469460646281917F0BD
:103590004DFD1F4A1F4B11681F4A03EB011368467C
:1035A0009B68282117F066FC3444034669462819B5
:1035B0001C4417F03BFD194B194A6846282117F0A7
:1035C00059FC69460646281917F030FD154B164A76
:1035D0006846282117F04EFC30196946284417F038
:1035E00025FD28460BB0F0BD14EC01001CEE0120B7
:1035F0001CEC010030EC010044EC010058EC01002F
:10360000E989022070EC0100683E002080EC010096
:10361000703E002030F8010094EC010020DC012015
:10362000A8EC010088DB0120C4EC0100164A174910
:10363000174BF0B5D2F800E0164F174E174C184D47
:10364000024603C9186097E80300986096E80300F3
:1036500004EB0E14D86095E80300A4689C612C3A32
:1036600022F001021025012102F5497764000226AB
:1036700058629A625F60DC611E841D615D8499827C
:10368000D9821846F0BD00BF703E0020D8EC010082
:1036900038E70120E0EC0100E8EC010030F801001F
:1036A000F0EC010008B50549012200200BF03AFEBC
:1036B000FE210348BDE8084006F07EB8F8EC0100A2
:1036C000088B022038B507210D480E4D0E4C13F023
:1036D000D3F907210D4813F0CFF90D4811F07EF909
:1036E00004210C4813F0C8F9294601220A480BF0BE
:1036F00019FE207028460CF0EBF9207038BD00BF91
:10370000FCEC0100F8EC010008DC012004ED0100F4
:10371000044100200CED0100CCEB012070B54D4DB3
:103720004D4A4E4996B000240EA801232C6006F0A5
:10373000F9F816AA4A48109B12F8144D9DF83C104F
:1037400083600473017100F10D031A3012F8011F38
:1037500003F8011B83424249F8D1159BCB610EA8A7
:1037600005F0FEFF3F4E05E00EA806F00FF80EA88C
:1037700005F0F6FF01223A490EA806F047F90EA817
:1037800006F012F8044618B92B68B3F5FA7F3EDB51
:103790000EA805F0E9FF0028E6D10EA805F0E2FF2B
:1037A000014602A811F0B2F92F4906A811F0AEF9AE
:1037B00006A902A811F0D8F9002806A815DB11F017
:1037C00065F92B6803EB430403EB84030EA8F4189C
:1037D00005F0C8FF0146204617F028FC2B6801338E
:1037E0002B6002A811F052F9BEE720490AA811F097
:1037F0008DF90AA902A811F0B7F904460AA811F038
:1038000045F906A811F042F9002CEADBD9E70EA829
:1038100005F0A6FF164B1B8833B100930EA8234674
:10382000144A1E2117F026FB0121134813F024F936
:103830001021124813F020F901210F4813F01CF950
:1038400029680F4811F01AF90D4811F0C7F816B0A1
:1038500070BD00BFDCD9012014ED0100088B0220EF
:1038600088D901205470022018ED010020ED0100DC
:1038700044E0012028ED0100D8ED010044ED0100F5
:10388000044100202DE9F843064609F0E5F9012836
:103890002CDDDFF86490DFF858800025D8F80000B0
:1038A000134F05EB4004304609F008FA09EB0424F5
:1038B00001464FF48072204611F068FC0135304615
:1038C00009F01AFA022DE9D13B680133BF2B02D867
:1038D0003B60BDE8F8830022064B3A600649074882
:1038E0004FF4C0320BF0C4FE054B1870BDE8F883EE
:1038F0004CEB0120B8890220104D0020A8E40120E3
:1039000008DC01202DE9F0410721ADF54C7D04468E
:103910003F48404D13F0B0F810213F4813F0ACF889
:103920003E4811F05BF804213D4813F0A5F83D4AEC
:10393000002384F8F63013700CE009F0BFF93A4B1D
:1039400001464FF4807239480BF092FE28702046F1
:1039500009F0D2F9204609F07FF900282046ECDC76
:10396000334B1B78012B07D030480CF09FF82870A0
:103970000DF54C7DBDE8F0812C4C00220023204643
:103980000CF0BAF8D4F810804046FFF74FFE01AFB4
:10399000044600F1200E20686168A268E3683E4694
:1039A0000FC6103474453746F5D120686168A268A7
:1039B000002307C700221D480CF09EF801A91A4BEE
:1039C0001A482C220BF054FE4246002317480CF0F4
:1039D00093F8FFF707FD4FF4807201460CA811F031
:1039E000D5FB0CA9104B11484FF480720BF040FE30
:1039F000FFF780FD4FF4007201464CA811F0C6FBA2
:103A00004CA9094B09484FF400720BF031FEABE7AB
:103A1000FCEC010008DC012058ED0100044100200D
:103A20000CED0100E8890220B8890220A8E40120F9
:103A3000EC3E0020F0B5072191B04348434D13F010
:103A40001BF80821424813F017F8424810F0C6FF4F
:103A50000421414813F010F82B68002B60D13F4C33
:103A60003F4A138801339BB2B3F5FA7F01D94FF473
:103A7000FA7313803B4B1B78002B4AD03A4B3B49DF
:103A80001A683B4817F044FA374B344E196807A8B8
:103A900010F040FC079A0C9B09980A99089F049221
:103AA0000B9A029003F2B273019100921421314AF1
:103AB0000397314817F0DEF900212D480CF06CF91E
:103AC0000A2220702A492D480BF056FC022820704B
:103AD0002ED001212A4812F0CFFF0621294812F0EA
:103AE000CBFF0121264812F0C7FF214817F008FB41
:103AF00001461F4812F0C0FF164810F06FFF0A225F
:103B00001B491E480BF038FC012320702B6011B0BC
:103B1000F0BD154B1C491A68154817F0F9F9B3E7C1
:103B200016480E4C0BF0C2FF002320702B6097E765
:103B300012480BF0BBFF09283070CAD10C480CF0BA
:103B400051F93070C5E700BFFCEC010028F00120FE
:103B50006CED0100044100200CED010008DC0120A7
:103B600044E00120EC3E002000D0034080ED010045
:103B700020DC012088ED010088DB0120A8E4012081
:103B8000D8ED0100A8ED010078ED01002DE9F84322
:103B9000DFF89C82944A98F8003000251570002BBD
:103BA00000F015815E1EF6B2904A914B92F800E04B
:103BB000DFF880C2013606EB460603EB860603F10A
:103BC0000804BEF1000F00F0E880197A05EB450704
:103BD000A4F108020CEB870705F1010921B107CA1E
:103BE00087E807005FFA89F50C33B34204F10C044F
:103BF000E7D12C460D217F4888F8005012F03CFF99
:103C0000214600230A227C4810F0F8FE7A4810F082
:103C1000E5FEDFF824E29EF8006096B1751EEDB275
:103C2000013505EB4505DFF8C8C1744FAD00002331
:103C30000CEB030207CAFC180C33AB4284E8070004
:103C4000F6D10E216E488EF8006012F015FF314655
:103C500000230A2268486B4D10F0D0FE664810F031
:103C6000BDFE0A2408230B2201216748EA706B700D
:103C7000AB702C7012F000FF0921644812F0FCFEBA
:103C80000121614812F0F8FE2246002329785A48A3
:103C900010F0B4FE584810F0A1FE01215A4812F06D
:103CA000EBFE09215A4812F0E7FE0121564812F0B6
:103CB000E3FE2246002369784F4810F09FFE4E48ED
:103CC00010F08CFE0121504812F0D6FE0921514817
:103CD00012F0D2FE01214C4812F0CEFE2246002303
:103CE000A978454810F08AFE434810F077FE01217C
:103CF000454812F0C1FE0921474812F0BDFE0121DE
:103D0000414812F0B9FE22460023E9783A4810F003
:103D100075FE394810F062FE404B1C784CB32846C3
:103D200000210378F3B1013BDBB201333C4A3D4F44
:103D30003D4E3E4D03EB430302EB830E5FFA81FCE5
:103D40000023C1B995F80880B8F1000F01D0013304
:103D5000DBB20C32964507F10C0706F10C0605F1B3
:103D60000C05EED101315FFA81FC644500F8013B9E
:103D7000D7D8BDE8F883BCF1010F05D197F80880CA
:103D8000B8F1000FE5D0E2E7BCF1020F22D196F8BE
:103D90000880B8F1000FDCD0D9E714F8082CA2F1A4
:103DA000640101297FF620AF672A3FF41DAF197A1D
:103DB00005EB4507A4F108020CEB870700293FF447
:103DC00013AF07CA013587E80700EDB20CE71C46C0
:103DD0001D460FE7BCF1030FBBD192F80880B8F184
:103DE000000FB6D0B3E700BF4CDE01200CDD012090
:103DF0005C190300B0ED01000441002084D80120CB
:103E0000C0ED010044DA0120D8ED0100D0ED010041
:103E1000DCED0100E8ED0100F4ED01007C3E002046
:103E20006018030020F90100C0EA0100E418030053
:103E3000ED3E0020F8D80120283E0020F0B5054BCB
:103E40001B688DB004460D4603A8194610F062FAAF
:103E500002E000BF00D00340FF2C00F21481DFE835
:103E600014F0B101AF01AD01A0019601AB017201E7
:103E70008601120112017B01150163015701120134
:103E8000120112011201120112011201120112019A
:103E9000120112011201120112011201120112018A
:103EA000120112011201120112011201120112017A
:103EB000120112011201120112011201120112016A
:103EC000120112011201120112011201120112015A
:103ED000120112011201120112011201120112014A
:103EE000120112011201120112011201120112013A
:103EF000120112011201120112011201120112012A
:103F00001201120112011201120112011201120119
:103F10001201120112011201120112011201120109
:103F2000120112011201120112014F014D0145014E
:103F30003D01120135012B01120112011201120182
:103F400012011201120112011201120112011201D9
:103F500012011201120112011201120112011201C9
:103F600012011201120112011201120112011201B9
:103F700012011201120112011201120112011201A9
:103F80001201120112011201120112011201150196
:103F9000210111020F0213020D021201120112017E
:103FA0001201120112011201120112011201120179
:103FB0001201120112011201120112011201120169
:103FC0001201120112011201120112011201120159
:103FD0001201120112011201120112011201120149
:103FE0001201120112011201120112011201120139
:103FF00012011201FC01DF01D301120112011201B1
:10400000120112011201CB01C301BB01B901B401BC
:104010001201120112011201120112011201120108
:1040200012011201120112011201120112011201F8
:1040300012011201120112011201120112011201E8
:1040400012011201120100011201120112011201EA
:1040500012011201120112011201120112011201C8
:104060008E01A04B1B68002B00F01F81012B00F07C
:10407000AF81022B07D19C4A9C4B92E803000A0CAB
:10408000186099809A7199480DB0F0BD984A1168EE
:10409000984B994A954803EB01130C215B6816F085
:1040A000E9FEF0E7954B1B78954A904803EB8303B4
:1040B0000C2116F0DFFEE6E7924B1B78642B11D043
:1040C0008F4A8A480C2116F0D5FEDCE78E4B8F4ACA
:1040D0001B7886480C2116F0CDFED4E78C4B1B785C
:1040E000642BEDD1814B8B4A1A60CCE78A4B844A12
:1040F0001B787E480C2116F0BDFEC4E7874BE6E72F
:10410000874B884A1B7879480C2116F0B3FEBAE732
:10411000854B1B78002B40F0BF80844A734B92E89C
:10412000030018601971AEE7814B1B68062B00F382
:10413000BA807049704A6D4801EB03130C215B682B
:1041400016F098FE9FE77B4B6D4A93F90030674865
:104150000C2116F08FFE96E7774A784B116863487A
:1041600053F82130644A0C2116F084FE8BE7744B1F
:10417000634A1B885D480C2116F07CFE83E7714B77
:104180005A4853F825200C2116F074FE7BE76E4B3D
:104190001B780A2BA6D9634A54480C2116F06AFEF4
:1041A00071E76A4B1B68002B9CD0694B4F4A1B6818
:1041B00013801B0C937066E7664BC5E7664A66E79B
:1041C000664ACAE7664A674BC8E7674B1B78002B0D
:1041D00088D1EAE7654B8AE7654B494A9B684348C3
:1041E0000C2116F047FE4EE7614B454A5B683F489D
:1041F0000C2116F03FFE46E75D4B414A1B683B48E9
:104200000C2116F037FE3EE75A4B93F90030012B94
:1042100000F0D080584A354B07CA03C31A7032E702
:10422000564B574C196803A810F074F894F90030F5
:10423000069F079E089D002B48D0012B00F0BC80F4
:10424000022B7FF420AF8DE8C00005F2B2734D4A17
:1042500026480C2116F00EFE15E7494C049E94F9F1
:104260000030059D43B3002B7FF70DAF00962B4622
:10427000454A1E480C2116F0FDFD04E7434B12E7AA
:10428000434B3EE7434B0EE7434B444A1B781748EA
:104290000C2116F0EFFDF6E6414A144B92E80300BC
:1042A00018601971EFE63F4AE6E63F4A0F4B92E885
:1042B000030083E80300E6E62B4600963B4A0B48E2
:1042C0000C2116F0D7FD94F90030CCE705F2B2735B
:1042D0008DE8C000364A05480C2116F0CBFD94F954
:1042E0000030AAE7503E002084EE0100A0EB012040
:1042F000703E002030F801001CEE01006C3E0020F2
:104300000CEE0100B83E0020C43E002014EE010077
:10431000F03E00204F4646001C3F00201E3F00207C
:10432000763E002000EE0100EC3E002018ED01007A
:10433000783E0020743E0020E03E0020383E002001
:10434000EE3E0020043F0020683E0020D03E0020CA
:10435000D8F001001D3F0020BC3E00201CDC0120E5
:10436000183F00202C3F002088E00120693E0020FB
:10437000487002206A3E002068EE010000D0034031
:10438000AEEB012048EE01004CEE0100883E00201B
:10439000893E0020753E0020B93E002058EE010005
:1043A00020ED010020EE010074EE01003CEE010062
:1043B00028EE0100074A5FE605F2B2738DE8C000FF
:1043C000054A06480C2116F055FD94F9003037E7F0
:1043D000034A51E660EE010038EE0100A0EB012037
:1043E0007CEE010070B5044682B00D465D480D219B
:1043F00012F042FB214600230A225B4810F0FEFA2D
:10440000594810F0EBFA74B9584B1978294449B25D
:1044100000292DDB5A29A8BF5A2108461970FEF73A
:1044200009FC02B070BD032C11D1514B1B78022B3B
:10443000F7D0504B196829440E29A8BF0E2121EA54
:10444000E17108461960FEF70FFB02B070BD012C48
:1044500012D1494B1978294449B200290ADB3F2976
:10446000A8BF3F2108461970FEF70CFC02B070BDD2
:104470002146D2E70021F5E7022C40D13F4B1B68D3
:10448000002BCED13E4E3F4C33680093009B2268F8
:104490009B1AB3F5FA7F2CD2F92B5FD8642B41F22B
:1044A000883134BF0B464FF4FA63374A37481168F6
:1044B000006803FB051141F6573399421CDD344B6C
:1044C000C543ED0F83FB0030C5EBE0104FF47A736A
:1044D00003FB00F5A942A8BF29462E4B11600846F0
:1044E0001960FEF7EFF833680193019B236002B077
:1044F00070BD4FF4FA73D8E741F65831EDE7052C5B
:104500000ED1254B197801EB4501C9B2092920D9F3
:104510003229A8BF32211970FEF7BAF902B070BD76
:10452000042C7FF47EAF1D4A1D491388A1FB033183
:10453000C1F3C7012944C82909DC00290BDB01EBC1
:10454000810101EB810189B2118002B070BD0021AF
:10455000FAE70A21DFE741F28831F5E74FF47A7391
:10456000A3E700BF8CEE010004410020F1D9012037
:104570009CE40120BC3E0020E989022010DC0120DF
:104580003094022064EB0120243E0020F8DD01205D
:10459000D34D6210E0DD0120683E0020EE3E002099
:1045A0001F85EB5138B505460C46AE48102112F078
:1045B00063FA294600230A22AB4810F01FFAAA48E2
:1045C00010F00CFA692D1AD06A2D0ED0072D40D1AB
:1045D000A64AA7491388A1FB0313C3F3C7032344C7
:1045E000C82B2BDD0023138017E0A24A1378234445
:1045F000642B20DC4F2B63DDDBB213700DE09E4992
:104600000B782344102B14DC032B57DDDBB29B4AC1
:104610000B70002082F828305062982D58D1984BAA
:1046200019780C443C2C11DC002C45DBE4B21C70E6
:1046300038BD0423EBE750231370EEE7002B44DB77
:1046400003EB830303EB83039BB2CCE700241C70D2
:1046500038BD672D70D18B4D29780C44642C20DC3B
:10466000312C30DDE4B2012187482C7012F004FABD
:104670000921864812F000FA0121834812F0FCF962
:1046800000230A222978784810F0B8F9764810F00B
:10469000A5F92B78642B0CBF01200320FDF7DEFF6A
:1046A00038BD3224DFE7972DB7D1794B19780C4408
:1046B0003C2C23DC002CB9DC3C24B8E71023A6E713
:1046C00064231370A9E76424CDE741F288338AE7B5
:1046D0009B2D16D16F4B19780C440C2C0EDC002C42
:1046E000A4DC0C24A3E70B2D0DD00D2DDBD16A4BE0
:1046F00019780C44012CA9DC002C97DA01241C70D9
:1047000038BD962D0CD1654B19680C440E2C04DC79
:10471000042CD8BF0E241C6038BD05241C6038BD95
:104720009A2D62D15E4B19780C44142CE6DC002CD7
:104730003FF77CAF14247AE7662D0BD1594A1178E4
:10474000052313FB0414C82C44DC0E2C3FDCC824C6
:10475000147038BD642D1BD1534B19780C44232C95
:104760003BDC0E2C3DDD07EE904A9FED507AF8EED3
:10477000E77AE4B227EE877A4D494E4AD1ED006AD6
:104780001C70C7EE267AFDEEE77AC2ED007A38BDDE
:10479000652D09D1484B19780C441E2C14DC042CCF
:1047A0003FF744AF1E2442E7022D40F09580434B73
:1047B00019680C440E2CA8BF0E2424EAE474204689
:1047C0001C60FEF751F938BD05241C7038BDE4B2F9
:1047D000147038BD0F24147038BD9FED397A0F2442
:1047E000CAE79FED387A2324C6E7992D0DD1364AC2
:1047F0001178052313FB0414502C03DC092CE6DC90
:104800005024A5E70A24147038BDD52D20D12F4A95
:104810002F491378A1FB03139B0804EB840403EBDB
:10482000830354FA83F4FF2C0CDC002C0DDBE3B281
:104830000820137011F086F821461120BDE8384099
:1048400010F0E0BE00231C46F2E7FF231C46EFE712
:10485000D62D40F0AD801F4A137883F0010313700A
:1048600038BD00BF9CEE010004410020EE3E002058
:104870001F85EB51B83E0020C43E0020B4DB012070
:10488000753E0020F03E0020D8ED0100B0EE0100A2
:104890006C3E0020883E0020EC3E0020703E002050
:1048A000B93E00201C3F0020763E002000007A44E4
:1048B000D83E002020F001201E3F0020BC3E0020FA
:1048C00000606A4600B80847893E0020693E002023
:1048D000CDCCCCCC88E00120052D11D16F4B1978BF
:1048E0000C4464B2002C09DB3F2CA8BF3F246C4A67
:1048F0001C7020461470FEF7C5F938BD0024F6E799
:10490000062D11D1674B19780C4464B2002C09DBD9
:104910005A2CA8BF5A24644A1C7020461470FEF713
:1049200089F938BD0024F6E7042D12D15F4B1978C0
:1049300001EB4404E4B2092C06D9322CA8BF32247E
:104940001C70FDF7A5FF38BD0A241C70FDF7A0FF01
:1049500038BD65B9564B19680C44022C04DC002C98
:10496000B8BF02241C6038BD2C461C6038BD012D28
:1049700013D1504B19680C44042C0BDC002CB8BF2D
:1049800004241C6038BD032D73D14B4B19680C44B3
:10499000012C09DD00241C6038BD0A2DF3D1474BE2
:1049A00019680C44012CF5DC002CB8BF0124B2E6D8
:1049B000CB2D0AD1424A434892F900304249037054
:1049C0005B425BB213700B7038BDF22D1BD13F4DB3
:1049D00029680C44012C17DD002400202C60FDF711
:1049E0000BFE3B4B01221A602B68CBB1012B28D068
:1049F0002B4C94F90000FEF745F92868354B01224D
:104A000002281A6004D038BD002CB8BF0124E4E7A6
:104A1000FDF7F2FD94F90000BDE83840FEF732B929
:104A20002D4C55222046202106F04AFF0028DFD0D9
:104A3000E28842F0040292B22046242106F040FFB0
:104A4000D6E7254C40F2731220462A2106F038FFA3
:104A50000028CDD088222021204606F031FF0028F2
:104A6000C6D0E288204622F00402242106F028FF66
:104A7000BEE70C2D7FF437AE184B19680C44072C99
:104A800007DC002C02DB072C1C6005D10A221A600F
:104A900038BD00221A6038BD38BD00BF1D3F002060
:104AA000E9890220743E0020F1D90120683E0020EF
:104AB000183F00201CDC0120D03E0020E03E0020FA
:104AC0006A3E002070DC0120F0D90120503E002019
:104AD00088E100E008E100E0BC890220783E002087
:104AE000F0B4774A137C012B40F2828072B6D3680F
:104AF00062B67448744C0268744994F9005093FB90
:104B0000F5F393420B601EDD714A724B92F900205F
:104B10001A60714A137C012B1FD972B6D36862B632
:104B20006E4A6F4E15680F6894F9001093FBF1F30D
:104B3000AB420760336053DC4ADB6A4913600020F4
:104B40000860F0BC70473FDA674A624B92F9002078
:104B50001A60614A137C012BDFD872B692E84800D4
:104B60001D783778567A137A374205EA03057FD0E5
:104B7000937A03F003030DB143F0040343F00803F9
:104B80009D10013B95720D2BC8D801A555F823F057
:104B9000B94C0000B14C0000A94C0000B14C000021
:104BA0001D4B0000A14C0000B94C0000B94C0000A6
:104BB000A14C00001D4B0000B14C0000A94C0000AE
:104BC000B14C0000B94C0000424B00221A60A0E733
:104BD0004548444990F9000008601360F0BC7047F4
:104BE0003B48404990F9000008601360F0BC7047F2
:104BF00072B61368506819780478507A137A0442B0
:104C000001EA03012CD0937A03F0030309B143F0C6
:104C1000040343F008039910013B91720D2B3FF6FA
:104C200066AF01A151F823F0994C0000914C0000AF
:104C3000894C0000914C0000EF4A0000814C0000BC
:104C4000994C0000994C0000814C0000EF4A000094
:104C5000914C0000894C0000914C0000994C0000E0
:104C6000937A03F003030029D5D043F00403D2E77D
:104C7000937A03F00303002D82D043F004037FE70F
:104C8000D368023BD36033E7D3680233D3602FE7A6
:104C9000D368013BD3602BE7D3680133D36027E7A8
:104CA000D368023BD3603AE7D3680233D36036E778
:104CB000D368013BD36032E7D3680133D3602EE77A
:104CC000E4DD0120E4890220343E00201CF00120B4
:104CD000F0D9012004DD012048E001200CDC012096
:104CE00030F00120D8DD012070DC012008B5074834
:104CF00008F008F9064808F005F9064808F002F936
:104D00000548BDE8084008F0FDB800BFF48A02205D
:104D10002CDA0120F4D9012004DA012008B502219F
:104D2000242010F033FE02211D2010F02FFE02215E
:104D3000252010F02BFE2620022110F027FE6420F3
:104D4000BDE8084010F028BEF0B583B006460FF06D
:104D500061FA07460FF0B4F9054638460FF0A2F99C
:104D60001A4B93F90030CBB944B22644172E20DDFC
:104D70001C46EDB2694638460FF0B0F868468DF82B
:104D800001508DF802400FF0C7F910F029FC684679
:104D90000FF0C2F90FF08EFA03B0F0BD012B0ED167
:104DA0006AB295193B2D08DC002D0DDBEDB2C4B2C3
:104DB000E0E7002E06DBF4B2DBE70025F7E7EDB213
:104DC000C4B2D7E71724D4E73B25F0E7AEEB0120C8
:104DD00070B582B006460FF01DFA05460FF08CF94B
:104DE000044628460FF07AF9264B93F90030DBB9D8
:104DF00022B2324440F2E9739A4221DD3124C6B234
:104E0000694628460FF06AF868468DF805608DF807
:104E100006400FF081F910F0E3FB68460FF07CF9D3
:104E20000FF048FA02B070BD012B0FD141B23144EE
:104E30000C291DDC002923DDCEB24E34E4B2DFE7BD
:104E400040F2E2739A4215DC3724D8E7022B14D1E2
:104E50000FF0E0F90C4D05FB060528460FF04CF964
:104E6000044628460FF03AF94E34C6B2E4B2C7E71A
:104E70001E46E2E74E32D4B2C1E74E34E4B2BEE79A
:104E80000C26DAE7AEEB012080510100944A954BE5
:104E900012881B7806EE902A2DE9F047F8EE666A34
:104EA0003BB1914B1B7807EE903AF8EEE77A66EE4D
:104EB000A76A8E498E4A0B68DFF850A28D4C1068A5
:104EC0008D4E9FED8E7A0022013394460B60CAF816
:104ED0000020964621460422012736F8023F01337E
:104EE00003EB83035B0007EE903AF8EEE77A824229
:104EF000C1ED047A07F1010301F108010CD9F4EEC8
:104F0000E67AF1EE10FA37EE277ADFB204DDF0EE42
:104F1000676A96464FF0010C0232F02ADDD1BCF1EF
:104F2000000F0BD1764B1B78002B40F0D680754AD2
:104F30001360754B00221A70BDE8F087CAF800E0D4
:104F4000724ABEF1000FEDD007EE907A37EE667A26
:104F5000F8EEE77AB0EE006AC7EE275AC6EEA57AF9
:104F6000F4EEC67AF1EE10FA02D500231360D9E709
:104F7000634B01221A70664B1A78752A11DC654959
:104F800004EBC203F6EE006AD3ED007A93ED027AE9
:104F900077EE877A083367EEA67A43ED017A8B4283
:104FA000F2D1DFF894C19CF80060B2424ADA5A4F5D
:104FB000DFED5A4ADFED5A6A9FED5A5A04EB82023E
:104FC00004EB86060021F0EE085AB2EE046AB2EC59
:104FD000017A554DC7EE257AF4EEE47AF1EE10FA37
:104FE00007DCFCEEE77A17EE903A1B0203F47843F5
:104FF0001DB2C7EE067A4FF4FC63F4EEE67AF1EEEA
:1050000010FA07DCFCEEE77A17EE908A4FEAC80840
:1050100008EA0303C7EE057A4FF01F08F4EEE67ABC
:10502000F1EE10FA05DCFCEEE77A17EE908AC8F391
:10503000C4082B4348EA0303B24227F8113001F1B8
:105040000101C4D1DFF8BC8000268645C8F80060A5
:105050007FF66FAF354B2C4A1B68DFED286ADFF80F
:10506000DCE00121013B8B421170CEED006A01D9D9
:10507000BDE8F0879CF800708742034624DD2C4A87
:105080008100B446B1460A440C4492ED007AF4EC37
:10509000017A77EE877AF4EEE67AF1EE10FAE2EC36
:1050A000017A04DD0126F0EE676AB1469C460133C1
:1050B0009F42EAD1B9F1000F0CD12EB18445C8F856
:1050C00000C088BFCAF800C01A4A13880133138091
:1050D000BDE8F087CEED006AEFE74FF0000E4AE73B
:1050E000EE3E002070E00120B93E0020048B02203B
:1050F00020F001209CE0012066CD0120000000008E
:10510000CC89022020E7012024F0012070E7012053
:105110006B3E00204CE4012064DE012000007A4355
:1051200000007F430000204200F8FFFF2C3E0020DB
:1051300088E701202CF00120D43E0020F0890220D5
:1051400043090DD14000C3B21F200022022902D022
:1051500052105B1040105B0103EBC22318447047F0
:10516000012B05D1C04300F01F003F230022EDE7D3
:10517000022B04D100F01F023F230020E6E7032B9F
:1051800008D100F01F035B00C3F13F03DBB2002036
:105190001F22DBE700200346D7E700BF2DE9F04FD1
:1051A00083B0BDF930400192002C22DD1FFA80FB54
:1051B0000C440BEB03070E4699460FFA84FABFB274
:1051C0004FF00008B9F1000F0EDD019B5C4603EBC8
:1051D000480521B2013435F8023B07483246A4B2F3
:1051E0000CF088FCA742F4D1013636B25645C844CB
:1051F000E8D103B0BDE8F08F7CEB012010B592B090
:10520000014601A80FF082FC0023322201A805A963
:105210000FF090FC05A905480EF0E4FC044601A837
:105220000FF034FCA0B212B010BD00BF7CEB012027
:1052300030B50D4B0D4D1C782B78013C1844844241
:1052400083B00FDB0028B4BFE4B2C4B20021EB236B
:1052500000930191F0232D2205482C700CF008FFDB
:1052600003B030BD0024F1E77C3E002071E0012056
:105270007CEB012070B5204B1B68032B84B013D04E
:105280001E4A1F4B92ED007AD3ED006AB8EEC77A42
:10529000C7EE267AFDEEE77A17EE903AEB2B03DCA9
:1052A000184A1268012A14D9174B18481B6899B27A
:1052B000CE1C3E221BB24FF6FF75372403390193F3
:1052C00009B233B20395029400920DF083FF04B04B
:1052D00070BD0F4A0D481288039299B2CD1C1BB2C3
:1052E00045243E220339019309B22BB20294009265
:1052F0000DF070FFD8E700BF2C3E0020243E0020B8
:10530000D83E002010DC012020F001207CEB0120A1
:10531000DC3E0020E9B12DE9F041DFF83C8082B0AD
:105320000D46174606B200240134A5420ED0E3070D
:10533000FAD5B8F8003000933A1B12B20A2331466E
:10534000044801340CF01AFDA542F0D102B0BDE8CA
:10535000F08170477CEB0120C63E00202DE9F04F24
:10536000FBB00DF10A090DF1FA0A00202F4E304F63
:105370004D465446034636F8021F01EB830287FB75
:1053800002E3D217C2EB6303D129A8BFD1210230B7
:10539000D12B1A46A8BFD122EA2824F8021F25F8EB
:1053A000022F9BB2E7D10DF1F40B042503E0023587
:1053B000CB45ADB237D03AF8024F1E48E4B2A4F163
:1053C0001E062FB24FF6205326EAE67600933946A2
:1053D0003346462239F8028F0CF0C0FC4FF6E073DA
:1053E00006F146023946009312481E230CF0B6FC23
:1053F000002004F146020090C4F1D20339460D4862
:105400000CF0ACFC5FFA88F2042AD0D94FF6FF7397
:10541000009341323946052306480CF09FFC0235C3
:10542000CB45ADB2C7D17BB0BDE8F08F66CD0120D2
:10543000676666667CEB012010B50F4C00212046A4
:105440000CF0E2FF204600210DF006FA20464FF650
:10545000FF710EF049FC204600210CF0C7FF00222E
:10546000204611460EF024FC204628224621BDE8A5
:1054700010400DF003B900BF7CEB01202DE9F04195
:105480008CB00DF1FF3600250746B0462C46284665
:105490000FF02CFE08F8010F4440082314F0010F10
:1054A0004FEA540203F1FF3314BF82F08C04C4F3BB
:1054B000470413F0FF03F1D101352F2DE7D1F4B9E3
:1054C0009DF82D30362B03D020460CB0BDE8F0817E
:1054D0009DF82C30312BF7D19DF82B30302BF3D1A8
:1054E0009DF82A30302BEFD1013F0DF12F0316F834
:1054F000012F07F8012F9E42F9D10120E5E7184658
:105500000CB0BDE8F08100BFF8B50025471E2C4661
:1055100017F8016F0823744014F0010F4FEA54028A
:1055200003F1FF3314BF82F08C04C4F3470413F07B
:10553000FF03F1D128460FF0D9FD864209D031464C
:1055400028460FF0EDFD28460FF0D0FD3B78834252
:1055500004D101352E2DDBD1002600E001262146A5
:1055600028460FF0DDFD28460FF0C0FD84420CBF39
:1055700030460120F8BD00BFF0B58DB06846FFF79A
:105580007DFF0446A0B176499DF82220754BBDF8F9
:1055900002709DF82A609DF82B509DF82C000F801A
:1055A000012A9DF82D101E705D709870D97002D080
:1055B00020460DB0F0BD6C4B9DF808706B4D1F6020
:1055C0006B4E9DF809702F606A489DF80A706A4911
:1055D00037606A4B9DF80670694D07600A6069483C
:1055E0009DF8042068491A602A609DF805309DF8EE
:1055F0002850664E664F9DF82920036008200A70E7
:1056000033603D7010F09EF9294611200FF0FAFF2B
:105610003568002D00F08B80022D00F09B80012D5D
:1056200000F08F8000215B485B4F5C4D0CF0DEFE8C
:10563000316858485A4E0FF021FA9DF81B305948EE
:1056400059495A4A03EB830303EB830333809DF8E4
:1056500007609DF8183006703B709DF819609DF842
:105660001A00059B2E7008701370514E514F524D09
:10567000FDF70EF99DF90B3050485149514A03701E
:10568000337018469DF81C30049E3B709DF90C3019
:105690002E600B701370FDF7F5FA9DF82330DFF8DC
:1056A00050E1494A494F9DF825009DF826609DF834
:1056B0002750DFF840C1106059B25B428EF80030CD
:1056C000DFF834E139705660414F95609DF8242031
:1056D0008CF800108EF800203E499DF81D203A708D
:1056E0003D4A9DF81E700F703C499DF82070177060
:1056F00083193B4A9DF821700F70EB429DF81F10F3
:1057000011703FF455AF0221FFF71AFD354B02210E
:1057100018803046FFF714FD334B012118802846CE
:10572000FFF70EFD314B188020460DB0F0BD294625
:1057300018480DF091F8294616480CF065FE3568BA
:105740006AE7002113480DF087F8002111480CF09A
:105750005BFE67E700210F480CF056FE35685EE7F8
:1057600060DA012080DB0120783E0020703E0020BE
:10577000BC3E0020E03E0020D03E002010DC012096
:105780001CDC0120183F002088E001202C3E002076
:10579000693E00207CEB01201E3F0020763E002069
:1057A000EE3E0020EC3E00201C3F0020683E002022
:1057B0001D3F0020C43E0020243E0020E989022035
:1057C000743E0020F1D9012048700220F0D9012058
:1057D0006C3E0020753E0020893E0020B93E00202E
:1057E000883E0020C63E0020DC3E0020E43E002033
:1057F00070DC01206A3E0020343E0020F0B54C4DA4
:105800004C4C4D4E2D6824684C4836684C4B4D4FDF
:1058100000683F681B884C494C4ADFF888E11288D1
:105820008FB0A1FB03138DF810508DF81240484D36
:10583000484C8DF81160484E2D688DF82A00247868
:10584000464836688DF80C708DF80E508DF80F4074
:10585000434F444D444C00788DF80D60434E3F78E3
:105860002D7824688DF82100DB08414836788DF8C2
:1058700020708DF822508DF823300694013240F2CA
:10588000F2353C4F3C4C3D4B0078ADF80A208DF88A
:1058900024603B49ADF808503A4E3B4D3F782478A0
:1058A0001B783A4A079036782D788DF8147003C922
:1058B0008DF813408DF82B30354F364B364C12781F
:1058C0008DF82C608DF82550344E354D9EF800E053
:1058D0003F7824788DF828201A688DF83200C0F3BC
:1058E000072136782D788DF826E08DF82970D3F8C9
:1058F00004E09F688DF82740030E8DF82D200024CA
:10590000C0F3074202A88DF82EE08DF82F708DF8B5
:1059100030608DF83150ADF836408DF833108DF889
:1059200034208DF83530FFF7EFFD0FB0F0BD00BF2C
:10593000783E0020BC3E0020703E0020D03E00207B
:10594000EE3E00201CDC01201F85EB5160DA0120B7
:10595000E03E0020EC3E0020183F0020763E002074
:105960001E3F00201C3F0020243E0020C43E00209B
:10597000683E0020743E00201D3F00206A3E00204B
:10598000BCEE0100343E00206C3E0020893E002029
:10599000B93E002048700220883E0020693E002069
:1059A00088E00120753E0020F8B5674D2860674803
:1059B00006F0CEFA664B1B78013B012B0BD9654EE6
:1059C000654C6648664A29680123002737602360D2
:1059D0000360136021B30121624811F04DF81021DA
:1059E000614811F049F801215E4811F045F85F4B1C
:1059F0002A6853F82240204615F082FB01462046D3
:105A000011F03AF85A480EF0E9FF2C685CB1012C0D
:105A100028D0022C3FD0032C57D0042C76D0F8BDD0
:105A200002231360D7E7534A534B10681860FCF702
:105A300049FE2046FCF712FE504BD3ED007AF5EEFE
:105A4000C07AF1EE10FA70D4B7EE007AF4EEC77AAD
:105A5000F1EE10FA62DD4FF480332C68484A012CD5
:105A60001362D6D10020FCF7F9FD444BD3ED007A48
:105A7000F5EEC07AF1EE10FA5CD4B7EE007AF4EEEF
:105A8000C77AF1EE10FA57DD4FF480332C683C4AA8
:105A9000022C1362BFD12D484FF4804106F026FA44
:105AA000384B1B78642B0CBF01200320FCF7D6FD7C
:105AB0003549264A2C68324B097882F82910032C84
:105AC0004FF000021A62DA61A7D1204E4FF48041F4
:105AD000304606F021FA0120FCF7C0FD2B4B1B7865
