:1000000000000320D1010000514501000945010015
:1000100009450100094501000945010009450100A4
:10002000094501000945010009450100514501004C
:100030005145010009450100455A0100495B010095
:100040005145010051450100514501005145010054
:100050005145010051450100514501005145010044
:100060005145010051450100514501005145010034
:100070005145010051450100514501005145010024
:100080005145010051450100514501005145010014
:100090005145010051450100514501005145010004
:1000A000C5740100D17401005145010051450100A2
:1000B000514501005145010051450100915B01008E
:1000C00051450100BD5C010051450100E95D0100A1
:1000D00051450100E15E010051450100514501001B
:1000E00051450100514501005145010051450100B4
:1000F00051450100514501005145010051450100A4
:100100005145010051450100514501005145010093
:1001100051450100DD4B01005145010051450100F1
:100120005145010051450100514501005145010073
:100130005145010051450100514501005145010063
:10014000313A010051450100D95F010051450100DC
:100150005145010051450100514501005145010043
:100160005145010051450100DD7401005145010078
:100170005145010051450100514501005145010023
:100180005145010051450100514501005145010013
:100190005145010051450100D16001005145010068
:1001A00051450100514501005145010051450100F3
:1001B00051450100514501005145010051450100E3
:1001C00051450100514501005145010051450100D3
:1001D0005C4B4CF2205210B51A804DF628121A8052
:1001E00000BF00BF14F0B8F9574B4FF030621A60EF
:1001F000564A9A60564ADA60564B4FF470021A60BB
:10020000554B564A1A60564A136813F4807304D14A
:1002100054490B604FF4A8531360534B1A781107DD
:1002200003D51A7842F008021A70504B5049AA229E
:100230001A70504A504B8B4204D252F8040F43F8C4
:10024000040BF8E74D4B4E4900228B4202D243F893
:10025000042BFAE74B494C4A002352F8230041F89B
:1002600023000133742BF8D1484B494A802103F80D
:10027000011B9342FBD1474B424A1A60464B8A22EC
:100280001A70A3F5805324225A70A0221A709A790A
:100290009207FCD59A79D406FCD4404A937903F0AE
:1002A0000C03082BFAD13E4B60221A7002331A78E5
:1002B000802AFCD1394B01221A715D225A719A7938
:1002C0009006FCD59979354A4906FBD5354B364918
:1002D00019600021596020231370937903F00C03F7
:1002E0000C2BFAD1314B324A1A60324B324A1A6027
:1002F00000225A60072243F8042C304AC3F80C2D20
:1003000062B614F00FFB174B1B68DA0705D52C48B3
:1003100014F08AFA2B4B2C4A1A602C4B1B785B0684
:1003200009D5284C284B22689A4204D1244814F05D
:100330007BFA0023236019F037F914F013F914F055
:1003400041F8FEE70E20054030800440823F040063
:100350000100002B88ED00E0002008E0030000858C
:1003600010D0034014D0034002D0074000E0074003
:10037000A04C002050150300303D0020A04C002070
:10038000DCC20220003800200000000000E400E091
:1003900064E400E008ED00E0005006400040064044
:1003A00001E007404480044000000602048004404D
:1003B000C010070014E000E01FBF02000000202072
:1003C0001364525F1CE00340A5C3945A00F0074039
:1003D000FFFFFFFFFFFFFFFFFFFFFFFFFFFFFFFF2D
:1003E000FFFFFFFFFFFFFFFFFFFFFFFFFFFFFFFF1D
:1003F000FFFFFFFFFFFFFFFFFFFFFFFFFFFFFFFF0D
:10040000FFFFFFFFFFFFFFFFFFFFFFFFDEF9FFFF23
:1004100010B5054C237833B9044B13B10448AFF33E
:1004200000800123237010BDA04C002000000000BC
:100430004C150300084B10B51BB108490848AFF331
:1004400000800848036803B910BD074B002BFBD0A0
:10045000BDE81040184700BF00000000A44C002079
:100460004C150300A04C00200000000010B5044B08
:10047000044640F8183B0FF07BFB204610BD00BF40
:100480001013020014F0CAB910B5044613F088FA2C
:10049000204610BD214B10B4D3F8B4201368506827
:1004A00019780478507A137A044201EA03011BD0C8
:1004B000937A03F0030309B143F0040343F0080304
:1004C0009910013B91720D2B0BD8DFE803F0210747
:1004D0001B070A152121150A071B0721D368013BB9
:1004E000D3605DF8044B7047937A03F0030300294F
:1004F000E6D043F00403E3E7D3685DF8044B023B26
:10050000D3607047D3685DF8044B0233D360704703
:10051000D3685DF8044B0133D360704748B50220BF
:10052000214B10B4D3F8B8201368506819780478B8
:10053000507A137A044201EA03011BD0937A03F044
:10054000030309B143F0040343F008039910013B8E
:1005500091720D2B0BD8DFE803F021071B070A155A
:100560002121150A071B0721D368013BD3605DF8E1
:10057000044B7047937A03F003030029E6D043F05D
:100580000403E3E7D3685DF8044B023BD360704794
:10059000D3685DF8044B0233D3607047D3685DF8CD
:1005A000044B0133D360704748B50220214B10B48F
:1005B000D3F8BC201368506819780478507A137AFD
:1005C000044201EA03011BD0937A03F0030309B14B
:1005D00043F0040343F008039910013B91720D2B83
:1005E0000BD8DFE803F021071B070A152121150AA4
:1005F000071B0721D368013BD3605DF8044B7047AC
:10060000937A03F003030029E6D043F00403E3E701
:10061000D3685DF8044B023BD3607047D3685DF844
:10062000044B0233D3607047D3685DF8044B013349
:10063000D360704748B50220214B10B4D3F8C020D6
:100640001368506819780478507A137A044201EAE2
:1006500003011BD0937A03F0030309B143F00403B1
:1006600043F008039910013B91720D2B0BD8DFE882
:1006700003F021071B070A152121150A071B072173
:10068000D368013BD3605DF8044B7047937A03F065
:1006900003030029E6D043F00403E3E7D3685DF8E1
:1006A000044B023BD3607047D3685DF8044B0233C0
:1006B000D3607047D3685DF8044B0133D360704753
:1006C00048B50220214B10B4D3F8C42013685068F9
:1006D00019780478507A137A044201EA03011BD096
:1006E000937A03F0030309B143F0040343F00803D2
:1006F0009910013B91720D2B0BD8DFE803F0210715
:100700001B070A152121150A071B0721D368013B86
:10071000D3605DF8044B7047937A03F0030300291C
:10072000E6D043F00403E3E7D3685DF8044B023BF3
:10073000D3607047D3685DF8044B0233D3607047D1
:10074000D3685DF8044B0133D360704748B502208D
:10075000214B10B4D3F8C820136850681978047876
:10076000507A137A044201EA03011BD0937A03F012
:10077000030309B143F0040343F008039910013B5C
:1007800091720D2B0BD8DFE803F021071B070A1528
:100790002121150A071B0721D368013BD3605DF8AF
:1007A000044B7047937A03F003030029E6D043F02B
:1007B0000403E3E7D3685DF8044B023BD360704762
:1007C000D3685DF8044B0233D3607047D3685DF89B
:1007D000044B0133D360704748B50220214B10B45D
:1007E000D3F8CC201368506819780478507A137ABB
:1007F000044201EA03011BD0937A03F0030309B119
:1008000043F0040343F008039910013B91720D2B50
:100810000BD8DFE803F021071B070A152121150A71
:10082000071B0721D368013BD3605DF8044B704779
:10083000937A03F003030029E6D043F00403E3E7CF
:10084000D3685DF8044B023BD3607047D3685DF812
:10085000044B0233D3607047D3685DF8044B013317
:10086000D360704748B50220214B10B4D3F8D02094
:100870001368506819780478507A137A044201EAB0
:1008800003011BD0937A03F0030309B143F004037F
:1008900043F008039910013B91720D2B0BD8DFE850
:1008A00003F021071B070A152121150A071B072141
:1008B000D368013BD3605DF8044B7047937A03F033
:1008C00003030029E6D043F00403E3E7D3685DF8AF
:1008D000044B023BD3607047D3685DF8044B02338E
:1008E000D3607047D3685DF8044B0133D360704721
:1008F00048B50220214B10B4D3F8EC20136850689F
:1009000019780478507A137A044201EA03011BD063
:10091000937A03F0030309B143F0040343F008039F
:100920009910013B91720D2B0BD8DFE803F02107E2
:100930001B070A152121150A071B0721D368013B54
:10094000D3605DF8044B7047937A03F003030029EA
:10095000E6D043F00403E3E7D3685DF8044B023BC1
:10096000D3607047D3685DF8044B0233D36070479F
:10097000D3685DF8044B0133D360704748B502205B
:10098000214B10B4D3F8E420136850681978047828
:10099000507A137A044201EA03011BD0937A03F0E0
:1009A000030309B143F0040343F008039910013B2A
:1009B00091720D2B0BD8DFE803F021071B070A15F6
:1009C0002121150A071B0721D368013BD3605DF87D
:1009D000044B7047937A03F003030029E6D043F0F9
:1009E0000403E3E7D3685DF8044B023BD360704730
:1009F000D3685DF8044B0233D3607047D3685DF869
:100A0000044B0133D360704748B50220214B10B42A
:100A1000D3F8E8201368506819780478507A137A6C
:100A2000044201EA03011BD0937A03F0030309B1E6
:100A300043F0040343F008039910013B91720D2B1E
:100A40000BD8DFE803F021071B070A152121150A3F
:100A5000071B0721D368013BD3605DF8044B704747
:100A6000937A03F003030029E6D043F00403E3E79D
:100A7000D3685DF8044B023BD3607047D3685DF8E0
:100A8000044B0233D3607047D3685DF8044B0133E5
:100A9000D360704748B50220214B10B4D3F8D4205E
:100AA0001368506819780478507A137A044201EA7E
:100AB00003011BD0937A03F0030309B143F004034D
:100AC00043F008039910013B91720D2B0BD8DFE81E
:100AD00003F021071B070A152121150A071B07210F
:100AE000D368013BD3605DF8044B7047937A03F001
:100AF00003030029E6D043F00403E3E7D3685DF87D
:100B0000044B023BD3607047D3685DF8044B02335B
:100B1000D3607047D3685DF8044B0133D3607047EE
:100B200048B50220214B10B4D3F8D8201368506880
:100B300019780478507A137A044201EA03011BD031
:100B4000937A03F0030309B143F0040343F008036D
:100B50009910013B91720D2B0BD8DFE803F02107B0
:100B60001B070A152121150A071B0721D368013B22
:100B7000D3605DF8044B7047937A03F003030029B8
:100B8000E6D043F00403E3E7D3685DF8044B023B8F
:100B9000D3607047D3685DF8044B0233D36070476D
:100BA000D3685DF8044B0133D360704748B5022029
:100BB000214B10B4D3F8DC201368506819780478FE
:100BC000507A137A044201EA03011BD0937A03F0AE
:100BD000030309B143F0040343F008039910013BF8
:100BE00091720D2B0BD8DFE803F021071B070A15C4
:100BF0002121150A071B0721D368013BD3605DF84B
:100C0000044B7047937A03F003030029E6D043F0C6
:100C10000403E3E7D3685DF8044B023BD3607047FD
:100C2000D3685DF8044B0233D3607047D3685DF836
:100C3000044B0133D360704748B50220214B10B4F8
:100C4000D3F8E0201368506819780478507A137A42
:100C5000044201EA03011BD0937A03F0030309B1B4
:100C600043F0040343F008039910013B91720D2BEC
:100C70000BD8DFE803F021071B070A152121150A0D
:100C8000071B0721D368013BD3605DF8044B704715
:100C9000937A03F003030029E6D043F00403E3E76B
:100CA000D3685DF8044B023BD3607047D3685DF8AE
:100CB000044B0233D3607047D3685DF8044B0133B3
:100CC000D360704748B50220214B10B41A681368EE
:100CD000506819780478507A137A044201EA0301C3
:100CE0001BD0937A03F0030309B143F0040343F0EC
:100CF00008039910013B91720D2B0BD8DFE803F02C
:100D000021071B070A152121150A071B0721D36894
:100D1000013BD3605DF8044B7047937A03F0030303
:100D20000029E6D043F00403E3E7D3685DF8044B01
:100D3000023BD3607047D3685DF8044B0233D36045
:100D40007047D3685DF8044B0133D360704700BF30
:100D500048B50220214B10B45A68136850681978BE
:100D60000478507A137A044201EA03011BD0937A83
:100D700003F0030309B143F0040343F0080399109F
:100D8000013B91720D2B0BD8DFE803F021071B0705
:100D90000A152121150A071B0721D368013BD360DF
:100DA0005DF8044B7047937A03F003030029E6D003
:100DB00043F00403E3E7D3685DF8044B023BD360E0
:100DC0007047D3685DF8044B0233D3607047D36833
:100DD0005DF8044B0133D360704700BF48B5022073
:100DE000214B10B49A681368506819780478507AC7
:100DF000137A044201EA03011BD0937A03F0030340
:100E000009B143F0040343F008039910013B9172C8
:100E10000D2B0BD8DFE803F021071B070A15212152
:100E2000150A071B0721D368013BD3605DF8044B0B
:100E30007047937A03F003030029E6D043F00403DC
:100E4000E3E7D3685DF8044B023BD3607047D36897
:100E50005DF8044B0233D3607047D3685DF8044BF0
:100E60000133D360704700BF48B50220214B10B456
:100E7000DA681368506819780478507A137A044253
:100E800001EA03011BD0937A03F0030309B143F095
:100E9000040343F008039910013B91720D2B0BD80A
:100EA000DFE803F021071B070A152121150A071B9C
:100EB0000721D368013BD3605DF8044B7047937AF8
:100EC00003F003030029E6D043F00403E3E7D3680B
:100ED0005DF8044B023BD3607047D3685DF8044B68
:100EE0000233D3607047D3685DF8044B0133D3609D
:100EF000704700BF48B50220214B10B41A6913682F
:100F0000506819780478507A137A044201EA030190
:100F10001BD0937A03F0030309B143F0040343F0B9
:100F200008039910013B91720D2B0BD8DFE803F0F9
:100F300021071B070A152121150A071B0721D36862
:100F4000013BD3605DF8044B7047937A03F00303D1
:100F50000029E6D043F00403E3E7D3685DF8044BCF
:100F6000023BD3607047D3685DF8044B0233D36013
:100F70007047D3685DF8044B0133D360704700BFFE
:100F800048B50220214B10B45A691368506819788B
:100F90000478507A137A044201EA03011BD0937A51
:100FA00003F0030309B143F0040343F0080399106D
:100FB000013B91720D2B0BD8DFE803F021071B07D3
:100FC0000A152121150A071B0721D368013BD360AD
:100FD0005DF8044B7047937A03F003030029E6D0D1
:100FE00043F00403E3E7D3685DF8044B023BD360AE
:100FF0007047D3685DF8044B0233D3607047D36801
:101000005DF8044B0133D360704700BF48B5022040
:10101000214B10B49A691368506819780478507A93
:10102000137A044201EA03011BD0937A03F003030D
:1010300009B143F0040343F008039910013B917296
:101040000D2B0BD8DFE803F021071B070A15212120
:10105000150A071B0721D368013BD3605DF8044BD9
:101060007047937A03F003030029E6D043F00403AA
:10107000E3E7D3685DF8044B023BD3607047D36865
:101080005DF8044B0233D3607047D3685DF8044BBE
:101090000133D360704700BF48B50220214B10B424
:1010A000DA691368506819780478507A137A044220
:1010B00001EA03011BD0937A03F0030309B143F063
:1010C000040343F008039910013B91720D2B0BD8D8
:1010D000DFE803F021071B070A152121150A071B6A
:1010E0000721D368013BD3605DF8044B7047937AC6
:1010F00003F003030029E6D043F00403E3E7D368D9
:101100005DF8044B023BD3607047D3685DF8044B35
:101110000233D3607047D3685DF8044B0133D3606A
:10112000704700BF48B50220214B10B41A6A1368FB
:10113000506819780478507A137A044201EA03015E
:101140001BD0937A03F0030309B143F0040343F087
:1011500008039910013B91720D2B0BD8DFE803F0C7
:1011600021071B070A152121150A071B0721D36830
:10117000013BD3605DF8044B7047937A03F003039F
:101180000029E6D043F00403E3E7D3685DF8044B9D
:10119000023BD3607047D3685DF8044B0233D360E1
:1011A0007047D3685DF8044B0133D360704700BFCC
:1011B00048B50220214B10B45A6A13685068197858
:1011C0000478507A137A044201EA03011BD0937A1F
:1011D00003F0030309B143F0040343F0080399103B
:1011E000013B91720D2B0BD8DFE803F021071B07A1
:1011F0000A152121150A071B0721D368013BD3607B
:101200005DF8044B7047937A03F003030029E6D09E
:1012100043F00403E3E7D3685DF8044B023BD3607B
:101220007047D3685DF8044B0233D3607047D368CE
:101230005DF8044B0133D360704700BF48B502200E
:10124000214B10B49A6A1368506819780478507A60
:10125000137A044201EA03011BD0937A03F00303DB
:1012600009B143F0040343F008039910013B917264
:101270000D2B0BD8DFE803F021071B070A152121EE
:10128000150A071B0721D368013BD3605DF8044BA7
:101290007047937A03F003030029E6D043F0040378
:1012A000E3E7D3685DF8044B023BD3607047D36833
:1012B0005DF8044B0233D3607047D3685DF8044B8C
:1012C0000133D360704700BF48B50220214B10B4F2
:1012D000DA6A1368506819780478507A137A0442ED
:1012E00001EA03011BD0937A03F0030309B143F031
:1012F000040343F008039910013B91720D2B0BD8A6
:10130000DFE803F021071B070A152121150A071B37
:101310000721D368013BD3605DF8044B7047937A93
:1013200003F003030029E6D043F00403E3E7D368A6
:101330005DF8044B023BD3607047D3685DF8044B03
:101340000233D3607047D3685DF8044B0133D36038
:10135000704700BF48B50220214B10B41A6B1368C8
:10136000506819780478507A137A044201EA03012C
:101370001BD0937A03F0030309B143F0040343F055
:1013800008039910013B91720D2B0BD8DFE803F095
:1013900021071B070A152121150A071B0721D368FE
:1013A000013BD3605DF8044B7047937A03F003036D
:1013B0000029E6D043F00403E3E7D3685DF8044B6B
:1013C000023BD3607047D3685DF8044B0233D360AF
:1013D0007047D3685DF8044B0133D360704700BF9A
:1013E00048B50220214B10B45A6B13685068197825
:1013F0000478507A137A044201EA03011BD0937AED
:1014000003F0030309B143F0040343F00803991008
:10141000013B91720D2B0BD8DFE803F021071B076E
:101420000A152121150A071B0721D368013BD36048
:101430005DF8044B7047937A03F003030029E6D06C
:1014400043F00403E3E7D3685DF8044B023BD36049
:101450007047D3685DF8044B0233D3607047D3689C
:101460005DF8044B0133D360704700BF48B50220DC
:10147000214B10B49A6B1368506819780478507A2D
:10148000137A044201EA03011BD0937A03F00303A9
:1014900009B143F0040343F008039910013B917232
:1014A0000D2B0BD8DFE803F021071B070A152121BC
:1014B000150A071B0721D368013BD3605DF8044B75
:1014C0007047937A03F003030029E6D043F0040346
:1014D000E3E7D3685DF8044B023BD3607047D36801
:1014E0005DF8044B0233D3607047D3685DF8044B5A
:1014F0000133D360704700BF48B50220214B10B4C0
:10150000DA6B1368506819780478507A137A0442B9
:1015100001EA03011BD0937A03F0030309B143F0FE
:10152000040343F008039910013B91720D2B0BD873
:10153000DFE803F021071B070A152121150A071B05
:101540000721D368013BD3605DF8044B7047937A61
:1015500003F003030029E6D043F00403E3E7D36874
:101560005DF8044B023BD3607047D3685DF8044BD1
:101570000233D3607047D3685DF8044B0133D36006
:10158000704700BF48B50220214B10B41A6C136895
:10159000506819780478507A137A044201EA0301FA
:1015A0001BD0937A03F0030309B143F0040343F023
:1015B00008039910013B91720D2B0BD8DFE803F063
:1015C00021071B070A152121150A071B0721D368CC
:1015D000013BD3605DF8044B7047937A03F003033B
:1015E0000029E6D043F00403E3E7D3685DF8044B39
:1015F000023BD3607047D3685DF8044B0233D3607D
:101600007047D3685DF8044B0133D360704700BF67
:1016100048B50220214B10B45A6C136850681978F1
:101620000478507A137A044201EA03011BD0937ABA
:1016300003F0030309B143F0040343F008039910D6
:10164000013B91720D2B0BD8DFE803F021071B073C
:101650000A152121150A071B0721D368013BD36016
:101660005DF8044B7047937A03F003030029E6D03A
:1016700043F00403E3E7D3685DF8044B023BD36017
:101680007047D3685DF8044B0233D3607047D3686A
:101690005DF8044B0133D360704700BF48B50220AA
:1016A000214B10B49A6C1368506819780478507AFA
:1016B000137A044201EA03011BD0937A03F0030377
:1016C00009B143F0040343F008039910013B917200
:1016D0000D2B0BD8DFE803F021071B070A1521218A
:1016E000150A071B0721D368013BD3605DF8044B43
:1016F0007047937A03F003030029E6D043F0040314
:10170000E3E7D3685DF8044B023BD3607047D368CE
:101710005DF8044B0233D3607047D3685DF8044B27
:101720000133D360704700BF48B50220214B10B48D
:10173000DA6C1368506819780478507A137A044286
:1017400001EA03011BD0937A03F0030309B143F0CC
:10175000040343F008039910013B91720D2B0BD841
:10176000DFE803F021071B070A152121150A071BD3
:101770000721D368013BD3605DF8044B7047937A2F
:1017800003F003030029E6D043F00403E3E7D36842
:101790005DF8044B023BD3607047D3685DF8044B9F
:1017A0000233D3607047D3685DF8044B0133D360D4
:1017B000704700BF48B50220214B10B41A6D136862
:1017C000506819780478507A137A044201EA0301C8
:1017D0001BD0937A03F0030309B143F0040343F0F1
:1017E00008039910013B91720D2B0BD8DFE803F031
:1017F00021071B070A152121150A071B0721D3689A
:10180000013BD3605DF8044B7047937A03F0030308
:101810000029E6D043F00403E3E7D3685DF8044B06
:10182000023BD3607047D3685DF8044B0233D3604A
:101830007047D3685DF8044B0133D360704700BF35
:1018400048B50220214B10B45A6D136850681978BE
:101850000478507A137A044201EA03011BD0937A88
:1018600003F0030309B143F0040343F008039910A4
:10187000013B91720D2B0BD8DFE803F021071B070A
:101880000A152121150A071B0721D368013BD360E4
:101890005DF8044B7047937A03F003030029E6D008
:1018A00043F00403E3E7D3685DF8044B023BD360E5
:1018B0007047D3685DF8044B0233D3607047D36838
:1018C0005DF8044B0133D360704700BF48B5022078
:1018D000214B10B49A6D1368506819780478507AC7
:1018E000137A044201EA03011BD0937A03F0030345
:1018F00009B143F0040343F008039910013B9172CE
:101900000D2B0BD8DFE803F021071B070A15212157
:10191000150A071B0721D368013BD3605DF8044B10
:101920007047937A03F003030029E6D043F00403E1
:10193000E3E7D3685DF8044B023BD3607047D3689C
:101940005DF8044B0233D3607047D3685DF8044BF5
:101950000133D360704700BF48B50220214B10B45B
:10196000DA6D1368506819780478507A137A044253
:1019700001EA03011BD0937A03F0030309B143F09A
:10198000040343F008039910013B91720D2B0BD80F
:10199000DFE803F021071B070A152121150A071BA1
:1019A0000721D368013BD3605DF8044B7047937AFD
:1019B00003F003030029E6D043F00403E3E7D36810
:1019C0005DF8044B023BD3607047D3685DF8044B6D
:1019D0000233D3607047D3685DF8044B0133D360A2
:1019E000704700BF48B50220214B10B41A6E13682F
:1019F000506819780478507A137A044201EA030196
:101A00001BD0937A03F0030309B143F0040343F0BE
:101A100008039910013B91720D2B0BD8DFE803F0FE
:101A200021071B070A152121150A071B0721D36867
:101A3000013BD3605DF8044B7047937A03F00303D6
:101A40000029E6D043F00403E3E7D3685DF8044BD4
:101A5000023BD3607047D3685DF8044B0233D36018
:101A60007047D3685DF8044B0133D360704700BF03
:101A700048B50220214B10B45A6E1368506819788B
:101A80000478507A137A044201EA03011BD0937A56
:101A900003F0030309B143F0040343F00803991072
:101AA000013B91720D2B0BD8DFE803F021071B07D8
:101AB0000A152121150A071B0721D368013BD360B2
:101AC0005DF8044B7047937A03F003030029E6D0D6
:101AD00043F00403E3E7D3685DF8044B023BD360B3
:101AE0007047D3685DF8044B0233D3607047D36806
:101AF0005DF8044B0133D360704700BF48B5022046
:101B0000214B10B49A6E1368506819780478507A93
:101B1000137A044201EA03011BD0937A03F0030312
:101B200009B143F0040343F008039910013B91729B
:101B30000D2B0BD8DFE803F021071B070A15212125
:101B4000150A071B0721D368013BD3605DF8044BDE
:101B50007047937A03F003030029E6D043F00403AF
:101B6000E3E7D3685DF8044B023BD3607047D3686A
:101B70005DF8044B0233D3607047D3685DF8044BC3
:101B80000133D360704700BF48B50220214B10B429
:101B9000DA6E1368506819780478507A137A044220
:101BA00001EA03011BD0937A03F0030309B143F068
:101BB000040343F008039910013B91720D2B0BD8DD
:101BC000DFE803F021071B070A152121150A071B6F
:101BD0000721D368013BD3605DF8044B7047937ACB
:101BE00003F003030029E6D043F00403E3E7D368DE
:101BF0005DF8044B023BD3607047D3685DF8044B3B
:101C00000233D3607047D3685DF8044B0133D3606F
:101C1000704700BF48B50220214B10B41A6F1368FB
:101C2000506819780478507A137A044201EA030163
:101C30001BD0937A03F0030309B143F0040343F08C
:101C400008039910013B91720D2B0BD8DFE803F0CC
:101C500021071B070A152121150A071B0721D36835
:101C6000013BD3605DF8044B7047937A03F00303A4
:101C70000029E6D043F00403E3E7D3685DF8044BA2
:101C8000023BD3607047D3685DF8044B0233D360E6
:101C90007047D3685DF8044B0133D360704700BFD1
:101CA00048B50220214B10B45A6F13685068197858
:101CB0000478507A137A044201EA03011BD0937A24
:101CC00003F0030309B143F0040343F00803991040
:101CD000013B91720D2B0BD8DFE803F021071B07A6
:101CE0000A152121150A071B0721D368013BD36080
:101CF0005DF8044B7047937A03F003030029E6D0A4
:101D000043F00403E3E7D3685DF8044B023BD36080
:101D10007047D3685DF8044B0233D3607047D368D3
:101D20005DF8044B0133D360704700BF48B5022013
:101D3000214B10B49A6F1368506819780478507A60
:101D4000137A044201EA03011BD0937A03F00303E0
:101D500009B143F0040343F008039910013B917269
:101D60000D2B0BD8DFE803F021071B070A152121F3
:101D7000150A071B0721D368013BD3605DF8044BAC
:101D80007047937A03F003030029E6D043F004037D
:101D9000E3E7D3685DF8044B023BD3607047D36838
:101DA0005DF8044B0233D3607047D3685DF8044B91
:101DB0000133D360704700BF48B50220214B10B4F7
:101DC000DA6F1368506819780478507A137A0442ED
:101DD00001EA03011BD0937A03F0030309B143F036
:101DE000040343F008039910013B91720D2B0BD8AB
:101DF000DFE803F021071B070A152121150A071B3D
:101E00000721D368013BD3605DF8044B7047937A98
:101E100003F003030029E6D043F00403E3E7D368AB
:101E20005DF8044B023BD3607047D3685DF8044B08
:101E30000233D3607047D3685DF8044B0133D3603D
:101E4000704700BF48B50220214B10B4D3F8802062
:101E50001368506819780478507A137A044201EABA
:101E600003011BD0937A03F0030309B143F0040389
:101E700043F008039910013B91720D2B0BD8DFE85A
:101E800003F021071B070A152121150A071B07214B
:101E9000D368013BD3605DF8044B7047937A03F03D
:101EA00003030029E6D043F00403E3E7D3685DF8B9
:101EB000044B023BD3607047D3685DF8044B023398
:101EC000D3607047D3685DF8044B0133D36070472B
:101ED00048B50220214B10B4D3F884201368506811
:101EE00019780478507A137A044201EA03011BD06E
:101EF000937A03F0030309B143F0040343F00803AA
:101F00009910013B91720D2B0BD8DFE803F02107EC
:101F10001B070A152121150A071B0721D368013B5E
:101F2000D3605DF8044B7047937A03F003030029F4
:101F3000E6D043F00403E3E7D3685DF8044B023BCB
:101F4000D3607047D3685DF8044B0233D3607047A9
:101F5000D3685DF8044B0133D360704748B5022065
:101F6000214B10B4D3F8882013685068197804788E
:101F7000507A137A044201EA03011BD0937A03F0EA
:101F8000030309B143F0040343F008039910013B34
:101F900091720D2B0BD8DFE803F021071B070A1500
:101FA0002121150A071B0721D368013BD3605DF887
:101FB000044B7047937A03F003030029E6D043F003
:101FC0000403E3E7D3685DF8044B023BD36070473A
:101FD000D3685DF8044B0233D3607047D3685DF873
:101FE000044B0133D360704748B50220214B10B435
:101FF000D3F88C201368506819780478507A137AD3
:10200000044201EA03011BD0937A03F0030309B1F0
:1020100043F0040343F008039910013B91720D2B28
:102020000BD8DFE803F021071B070A152121150A49
:10203000071B0721D368013BD3605DF8044B704751
:10204000937A03F003030029E6D043F00403E3E7A7
:10205000D3685DF8044B023BD3607047D3685DF8EA
:10206000044B0233D3607047D3685DF8044B0133EF
:10207000D360704748B50220214B10B4D3F89020AC
:102080001368506819780478507A137A044201EA88
:1020900003011BD0937A03F0030309B143F0040357
:1020A00043F008039910013B91720D2B0BD8DFE828
:1020B00003F021071B070A152121150A071B072119
:1020C000D368013BD3605DF8044B7047937A03F00B
:1020D00003030029E6D043F00403E3E7D3685DF887
:1020E000044B023BD3607047D3685DF8044B023366
:1020F000D3607047D3685DF8044B0133D3607047F9
:1021000048B50220214B10B4D3F8942013685068CE
:1021100019780478507A137A044201EA03011BD03B
:10212000937A03F0030309B143F0040343F0080377
:102130009910013B91720D2B0BD8DFE803F02107BA
:102140001B070A152121150A071B0721D368013B2C
:10215000D3605DF8044B7047937A03F003030029C2
:10216000E6D043F00403E3E7D3685DF8044B023B99
:10217000D3607047D3685DF8044B0233D360704777
:10218000D3685DF8044B0133D360704748B5022033
:10219000214B10B4D3F8982013685068197804784C
:1021A000507A137A044201EA03011BD0937A03F0B8
:1021B000030309B143F0040343F008039910013B02
:1021C00091720D2B0BD8DFE803F021071B070A15CE
:1021D0002121150A071B0721D368013BD3605DF855
:1021E000044B7047937A03F003030029E6D043F0D1
:1021F0000403E3E7D3685DF8044B023BD360704708
:10220000D3685DF8044B0233D3607047D3685DF840
:10221000044B0133D360704748B50220214B10B402
:10222000D3F89C201368506819780478507A137A90
:10223000044201EA03011BD0937A03F0030309B1BE
:1022400043F0040343F008039910013B91720D2BF6
:102250000BD8DFE803F021071B070A152121150A17
:10226000071B0721D368013BD3605DF8044B70471F
:10227000937A03F003030029E6D043F00403E3E775
:10228000D3685DF8044B023BD3607047D3685DF8B8
:10229000044B0233D3607047D3685DF8044B0133BD
:1022A000D360704748B50220214B10B4D3F8A0206A
:1022B0001368506819780478507A137A044201EA56
:1022C00003011BD0937A03F0030309B143F0040325
:1022D00043F008039910013B91720D2B0BD8DFE8F6
:1022E00003F021071B070A152121150A071B0721E7
:1022F000D368013BD3605DF8044B7047937A03F0D9
:1023000003030029E6D043F00403E3E7D3685DF854
:10231000044B023BD3607047D3685DF8044B023333
:10232000D3607047D3685DF8044B0133D3607047C6
:1023300048B50220214B10B4D3F8A420136850688C
:1023400019780478507A137A044201EA03011BD009
:10235000937A03F0030309B143F0040343F0080345
:102360009910013B91720D2B0BD8DFE803F0210788
:102370001B070A152121150A071B0721D368013BFA
:10238000D3605DF8044B7047937A03F00303002990
:10239000E6D043F00403E3E7D3685DF8044B023B67
:1023A000D3607047D3685DF8044B0233D360704745
:1023B000D3685DF8044B0133D360704748B5022001
:1023C000214B10B4D3F8A82013685068197804780A
:1023D000507A137A044201EA03011BD0937A03F086
:1023E000030309B143F0040343F008039910013BD0
:1023F00091720D2B0BD8DFE803F021071B070A159C
:102400002121150A071B0721D368013BD3605DF822
:10241000044B7047937A03F003030029E6D043F09E
:102420000403E3E7D3685DF8044B023BD3607047D5
:10243000D3685DF8044B0233D3607047D3685DF80E
:10244000044B0133D360704748B50220214B10B4D0
:10245000D3F8AC201368506819780478507A137A4E
:10246000044201EA03011BD0937A03F0030309B18C
:1024700043F0040343F008039910013B91720D2BC4
:102480000BD8DFE803F021071B070A152121150AE5
:10249000071B0721D368013BD3605DF8044B7047ED
:1024A000937A03F003030029E6D043F00403E3E743
:1024B000D3685DF8044B023BD3607047D3685DF886
:1024C000044B0233D3607047D3685DF8044B01338B
:1024D000D360704748B50220214B10B4D3F8B02028
:1024E0001368506819780478507A137A044201EA24
:1024F00003011BD0937A03F0030309B143F00403F3
:1025000043F008039910013B91720D2B0BD8DFE8C3
:1025100003F021071B070A152121150A071B0721B4
:10252000D368013BD3605DF8044B7047937A03F0A6
:1025300003030029E6D043F00403E3E7D3685DF822
:10254000044B023BD3607047D3685DF8044B023301
:10255000D3607047D3685DF8044B0133D360704794
:1025600048B50220002310B4114C4172026104608E
:102570000372C36041B1194600E0026942F82310BA
:10258000427A01339A42F8DC0A4B1A680AB90CE025
:102590001A465369002BFBD15061002343618380AD
:1025A000C38083725DF8044B70471860F5E700BF85
:1025B000FCDD0100E0BD0220284B9FED296A93ED70
:1025C000007ADFED286AB8EEC77A07EE900AC6EE09
:1025D000075AF8EEE77A67EEA57AF4EEE67AF1EEBE
:1025E00010FA1BDC204A214BC2ED007AF5EEC07ACE
:1025F0000122F1EE10FA1A602DD49FED1D7AF4EE4F
:10260000C77AF1EE10FA1DDD1A4B1B4A1B49D36144
:102610004FF48030012310620B607047C7EE065AFA
:10262000114B1748114A0121F2EE027AE5EEA67A23
:10263000C3ED006AFDEEE77A17EE903AF0EE667AA7
:10264000036011609FED0F7A67EE877AFCEEE77A00
:1026500017EE903AD9E70023D7E700BF74DB0120DB
:10266000A6552C4700E0AB46343E002088E100E050
:10267000A655AC4680FFFF7F1CD7012008E100E093
:10268000243E00204B24BE47204ADFED216AD2EDD4
:10269000007A38B51F4B204C93ED007A2268F8EE93
:1026A000677A4FF4FA7167EE877A40F6B83087EEB2
:1026B000A67AFDEEC77A17EE903A01FB03F303F515
:1026C0007A73D21A002AB8BF524282420EDD134AF0
:1026D00041F657318B42126809DC41F65833104DF0
:1026E00018462B60FFF768FF2B68236038BD0D4844
:1026F000D143C90F80FB0202C1EBE2124FF47A71A1
:1027000001FB02F29342A8BF1346E8E7B4ED0120B3
:102710000000FA43B03E00205CDB012074DB0120A6
:10272000243E0020D34D62102DE9F04F2DED028B99
:10273000694B1B780A2B89B03DD8684C684B002246
:10274000D4E9000116F0BCFA16F06AFD0022644BD1
:102750000390D4E9020116F0B3FA16F061FD0022ED
:102760005F4B0490D4E9040116F0AAFA16F058FD64
:1027700000225B4B0590D4E9060116F0A1FA16F091
:102780004FFD574B06900022D4E9080116F098FA45
:1027900016F046FD03AA07900021524810F0ACF84D
:1027A000514B00214FF48032D9619A6109B0BDECE0
:1027B000028BBDE8F08F4D4A9FED4D6AD2ED007A55
:1027C000DFED4C6AF8EEE77A4FF47A7286EE277AFC
:1027D00002FB03F307EE903AF8EEE77A67EE277A0A
:1027E00067EEA67A17EE900A16F016FA41EC100B77
:1027F00041EC180B14F0D8FE35A3D3E9002351ECBB
:10280000100B16F087FBB0EE480AF0EE680ACDE92F
:10281000000114F069FEDDE900010022364B5BEC9B
:1028200010AB16F09BF802460B4600202C4916F020
:1028300071FB002204460D462F4B5046594616F0B8
:102840008DF800222D4B8046894616F039FA224633
:102850002B4616F035FA16F0E3FC224606462B46C8
:10286000404609F10041039616F02AFA16F0D8FC0A
:10287000002204904FF0404350465946059616F00A
:102880001FFA22462B4616F01BFA16F0C9FCDDE9AA
:10289000002306901849002016F05EF82B462246C9
:1028A00016F00EFA16F0BCFC03AA079000210D48A2
:1028B00010F022F80C4B00214FF480329961DA615C
:1028C00009B0BDEC028BBDE8F08F00BFAFF3008014
:1028D000000000606666F63F593E0020703E002012
:1028E0000000D0419CDA012024D5012074DB0120B6
:1028F000A6552C47465615390000F03F0000E03F32
:1029000070B53A493A4D3B4A2D789FED3B6A3B4EB4
:102910004400231801EBC30307EE905A9B68136031
:10292000002BB4BF03F2FF121A46521207EE102A10
:10293000F8EEE77AB8EEC77A67EE867A304D314A1C
:102940002D7886ED007AC7EE876AFDEEE66AC2ED65
:10295000006A6DB12C4D2D7807EE905AF8EEE77AAB
:1029600067EE867AC7EE876AFDEEE66AC2ED006A18
:1029700003EBD3735B1007EE903AF8EEE77A231877
:10298000C7EE876A01EBC303204A5B68204E214DE6
:1029900013600123204AFDEEE66AC6ED006A2B6053
:1029A0001368002BFCDB204401EBC0011B48CA6804
:1029B0000B69013A1203013B02F47F22C3F30B03BC
:1029C00013430360C82011F05BFF154B1868FFF735
:1029D000F3FD1449144A01230B60142082F82037B8
:1029E00011F04EFFBDE87040FFF79EBECCE5010040
:1029F000623E002074DB012000007A44B03E0020DB
:102A0000D4DD01203CF401206E3E0020E8F10120DD
:102A100058DB012088E100E000F1024004F10240AF
:102A2000243E002008E100E0C4CC012007EE900A1B
:102A30009FED0C6ADFED0C6A0C4B0D48B8EEE77A9F
:102A4000DFED0C7A27EE067A10B5E7EE267A012440
:102A50001C60FCEEE77A17EE901A0FF06FFB064B46
:102A60001C6010BD0AD7233C0000014388E100E050
:102A700000B50220EE7CFF3E08E100E02B4B70B574
:102A80001D68012D04461AD0294B2A4A2A480121E3
:102A900011601A682A210FF047FA002220212648E7
:102AA0000FF042FA002CB8BF0334C4F3870211467A
:102AB00021480FF009FB214B01221A6070BD204B09
:102AC0001E78002EFAD11B4B1B481D603246314642
:102AD0000FF0FAFA272C1CDD283C64B20325144BB6
:102AE00015481A682A212A430FF01EFA154B12487E
:102AF000620083FB0213A3EBE2720F2A28BF0F22AE
:102B000042EA021220210FF00FFA0C4B01221A6048
:102B100070BD1D2C03DD1E3C64B20225DFE7132CC3
:102B2000C6BF143C64B23546D9E700BF543E00200E
:102B3000F03E002088E100E000B5022008E100E05E
:102B40002CB5022056555555F8B5044615460E4687
:102B50000846022111F08EFE2846022111F08AFE5D
:102B6000984A994B52F83610012001F500772760FA
:102B7000207252F83520607202F5007700206760FD
:102B8000E060013BFDD191F8003292F8002203F0A1
:102B90000103D20744BF43F00203DBB2A3723B2E12
:102BA00000F20386DFE816F0F405EA05E005D60535
:102BB000CC05C205B805AE05A4059A0590058605A5
:102BC0007C05720568055E0554054A054005360515
:102BD0002C05220518050E050405FA04F004E60488
:102BE000DC04D204C804BE04B304A8049D04920407
:102BF00087047C0428041E0414040A040004F60359
:102C0000EC03E203D803CE03C403BA03B003A60364
:102C10009C03920388037E0374036A0360033C00F1
:102C20006A4B6B49C3F8EC4004223B2011F07AFD5B
:102C3000012323743B2D00F2B585DFE815F00B036B
:102C40000103F702ED02E302D902CF02C502BB0283
:102C5000B102A7029D02930289027F02310227027C
:102C60001D0213020902FF01F501EB01E101D70189
:102C7000CD01C301B901AF01A5019B0191018601FD
:102C80007B01700165015A014F01440139012E0198
:102C9000230118010D010201F700EC00E100B8006A
:102CA000AD00A20097008C00810076006B006000F0
:102CB00055004A003C00454B4549C3F8EC4004220E
:102CC0003B2011F02FFD237C012213442374204666
:102CD000F8BD3E4B3F49C3F8E84004223A2011F0CA
:102CE00021FD237C0122F0E7384B3B49C3F8E44047
:102CF0000422392011F016FD237C0122E5E7334B35
:102D00003649C3F8E0400422382011F00BFD237C43
:102D10000122DAE72D4B3249C3F8DC400422372088
:102D200011F000FD237C0122CFE7284B2D49C3F889
:102D3000D8400422362011F0F5FC237C0122C4E7A0
:102D4000224B2949C3F8D4400422352011F0EAFC73
:102D5000237C0122B9E71D4B2449C3F8D04004224B
:102D6000342011F0DFFC237C0122AEE7174B204911
:102D7000C3F8CC400422332011F0D4FC237C012280
:102D8000A3E7124B1B49C3F8C8400422322011F0BC
:102D9000C9FC237C012298E70C4B1749C3F8C440B7
:102DA0000422312011F0BEFC237C01228DE7074B69
:102DB0001249C3F8C0400422302011F0B3FC237C38
:102DC000012282E7CC130200C0D4010048B50220E2
:102DD000F50800000D0A0000810900003D0C00000C
:102DE000B10B0000250B0000990A000069080000E3
:102DF000DD07000051070000C5060000390600008D
:102E0000AC4BAD49C3F8BC4004222F2011F08AFC22
:102E1000237C012259E7A74BA849C3F8B8400422F4
:102E20002E2011F07FFC237C01224EE7A14BA44908
:102E3000C3F8B44004222D2011F074FC237C01223D
:102E400043E79C4B9F49C3F8B04004222C2011F06B
:102E500069FC237C012238E7964B9B49C3F8AC40C0
:102E600004222B2011F05EFC237C01222DE7914BE4
:102E70009649C3F8A84004222A2011F053FC237C71
:102E8000012222E78B4B9249C3F8A4400422292057
:102E900011F048FC237C012217E7864B8D49C3F8CB
:102EA000A0400422282011F03DFC237C01220CE7E5
:102EB000804B8949C3F89C400422272011F032FC42
:102EC000237C012201E77B4B8449C3F8984004220C
:102ED000262011F027FC237C0122F6E6754B804961
:102EE000C3F894400422252011F01CFC237C01220D
:102EF000EBE6704B7B49C3F890400422242011F08C
:102F000011FC237C0122E0E66A4B7749C3F88C4030
:102F10000422232011F006FC237C0122D5E6654B18
:102F20007249C3F888400422222011F0FBFB237C65
:102F30000122CAE65F4B6E49C3F884400422212077
:102F400011F0F0FB237C0122BFE65A4B6949C3F81C
:102F500080400422202011F0E5FB237C0122B4E60E
:102F6000544B6549DC6704221F2011F0DBFB237CF6
:102F70000122AAE64F4B61499C6704221E2011F0F2
:102F8000D1FB237C0122A0E64A4B5D495C67042209
:102F90001D2011F0C7FB237C012296E6454B5949C1
:102FA0001C6704221C2011F0BDFB237C01228CE64F
:102FB000404B5549DC6604221B2011F0B3FB237CF7
:102FC000012282E63B4B51499C6604221A2011F0F3
:102FD000A9FB237C012278E6364B4D495C6604222E
:102FE000192011F09FFB237C01226EE6314B4949E9
:102FF0001C660422182011F095FB237C012264E654
:103000002C4B4549DC650422172011F08BFB237CF7
:1030100001225AE6274B41499C650422162011F0F3
:1030200081FB237C012250E6224B3D495C65042252
:10303000152011F077FB237C012246E61D4B394910
:103040001C650422142011F06DFB237C01223CE658
:10305000184B3549DC640422132011F063FB237CF8
:10306000012232E6134B31499C640422122011F0F4
:1030700059FB237C012228E60E4B2D495C64042277
:10308000112011F04FFB237C01221EE6094B294938
:103090001C640422102011F045FB237C012214E65D
:1030A000044B2549DC6304220F2011F03BFB237CF9
:1030B00001220AE648B50220AD0500002105000006
:1030C00095040000D92400004D240000C123000015
:1030D00035230000A92200001D22000091210000DC
:1030E0000521000079200000ED1F0000611F000095
:1030F000D51E0000491E0000BD1D0000311D00004E
:10310000A51C0000191C00008D1B0000011B000005
:10311000751A0000E91900005D190000D1180000BF
:1031200045180000B91700002D170000A116000077
:103130001516000089150000FD140000B34BB449BA
:103140009C6304220E2011F0EDFA237C0122BCE5E1
:10315000AE4BB0495C6304220D2011F0E3FA237CEE
:103160000122B2E5A94BAC491C6304220C2011F0EA
:10317000D9FA237C0122A8E5A44BA849DC620422E9
:103180000B2011F0CFFA237C01229EE59F4BA4492E
:103190009C6204220A2011F0C5FA237C012294E5E6
:1031A0009A4BA0495C620422092011F0BBFA237CEF
:1031B00001228AE5954B9C491C620422082011F0EB
:1031C000B1FA237C012280E5904B9849DC6104220E
:1031D000072011F0A7FA237C012276E58B4B944956
:1031E0009C610422062011F09DFA237C01226CE5EB
:1031F000864B90495C610422052011F093FA237CF0
:10320000012262E5814B8C491C610422104611F0B9
:1032100089FA237C012258E57C4B8849DC60042232
:10322000032011F07FFA237C01224EE5774B84497D
:103230009C600422022011F075FA237C012244E5EF
:10324000724B80495C600422012011F06BFA237CF0
:1032500001223AE56D4B7C491C600422002011F0EC
:1032600061FA237C012230E5684B7849C3F8E840D5
:1032700004223A2011F056FA0123DAE4634B744930
:10328000C3F8E4400422392011F04CFA0123D0E4C1
:103290005E4B7049C3F8E0400422382011F042FA36
:1032A0000123C6E4594B6C49C3F8DC4004223720A3
:1032B00011F038FA0123BCE4544B6849C3F8D840F4
:1032C0000422362011F02EFA0123B2E44F4B644958
:1032D000C3F8D4400422352011F024FA0123A8E4D5
:1032E0004A4B6049C3F8D0400422342011F01AFA46
:1032F00001239EE4454B5C49C3F8CC4004223320B3
:1033000011F010FA012394E4404B5849C3F8C84027
:103310000422322011F006FA01238AE43B4B54497F
:10332000C3F8C4400422312011F0FCF9012380E4E9
:10333000364B5049C3F8C0400422302011F0F2F956
:10334000012376E4314B4C49C3F8BC4004222F20C2
:1033500011F0E8F901236CE42C4B4849C3F8B8405C
:1033600004222E2011F0DEF9012362E4274B4449A8
:10337000C3F8B44004222D2011F0D4F9012358E4FD
:10338000224B4049C3F8B04004222C2011F0CAF966
:1033900001234EE41D4B3C49C3F8AC4004222B20D2
:1033A00011F0C0F9012344E4184B3849C3F8A84090
:1033B00004222A2011F0B6F901233AE4134B3449D0
:1033C000C3F8A4400422292011F0ACF9012330E411
:1033D0000E4B3049C3F8A0400422282011F0A2F976
:1033E000012326E4094B2C49C3F89C4004222720E2
:1033F00011F098F901231CE4044B2849C3F89840C4
:103400000422262011F08EF9012312E448B502208F
:1034100071140000E513000059130000CD120000E4
:1034200041120000B5110000291100009D1000009C
:1034300011100000850F0000F90E00006D0E000055
:10344000E10D0000550D0000C90C00000D0A000040
:10345000810900003D0C0000B10B0000250B0000AD
:10346000990A000069080000DD070000510700000C
:10347000C506000039060000AD050000210500006A
:1034800095040000D92400004D240000C123000051
:1034900035230000A92200001D2200009121000018
:1034A000C34BC449C3F894400422252011F03AF9D3
:1034B0000123FFF7BEBBBE4BBF49C3F890400422B7
:1034C000242011F02FF90123FFF7B3BBB84BBB4900
:1034D000C3F88C400422232011F024F90123FFF7C4
:1034E000A8BBB34BB649C3F888400422222011F090
:1034F00019F90123FFF79DBBAD4BB249C3F88440D6
:103500000422212011F00EF90123FFF792BBA84BF2
:10351000AD49C3F880400422202011F003F90123B3
:10352000FFF787BBA24BA949DC6704221F2011F0DB
:10353000F9F80123FFF77DBB9D4BA5499C67042249
:103540001E2011F0EFF80123FFF773BB984BA14940
:103550005C6704221D2011F0E5F80123FFF769BB29
:10356000934B9D491C6704221C2011F0DBF80123BA
:10357000FFF75FBB8E4B9949DC6604221B2011F0DC
:10358000D1F80123FFF755BB894B95499C6604226E
:103590001A2011F0C7F80123FFF74BBB844B914968
:1035A0005C660422192011F0BDF80123FFF741BB2E
:1035B0007F4B8D491C660422182011F0B3F80123BB
:1035C000FFF737BB7A4B8949DC650422172011F0DD
:1035D000A9F80123FFF72DBB754B85499C65042293
:1035E000162011F09FF80123FFF723BB704B814990
:1035F0005C650422152011F095F80123FFF719BB33
:103600006B4B7D491C650422142011F08BF80123BB
:10361000FFF70FBB664B7949DC640422132011F0DD
:1036200081F80123FFF705BB614B75499C640422B7
:10363000122011F077F80123FFF7FBBA5C4B7149B8
:103640005C640422112011F06DF80123FFF7F1BA38
:10365000574B6D491C640422102011F063F80123BC
:10366000FFF7E7BA524B6949DC6304220F2011F0DF
:1036700059F80123FFF7DDBA4D4B65499C630422DD
:103680000E2011F04FF80123FFF7D3BA484B6149E0
:103690005C6304220D2011F045F80123FFF7C9BA3D
:1036A000434B5D491C6304220C2011F03BF80123BD
:1036B000FFF7BFBA3E4B5949DC6204220B2011F0E0
:1036C00031F80123FFF7B5BA394B55499C62042202
:1036D0000A2011F027F80123FFF7ABBA344B514908
:1036E0005C620422092011F01DF80123FFF7A1BA42
:1036F0002F4B4D491C620422082011F013F80123BE
:10370000FFF797BA2A4B4949DC610422072011F0E0
:1037100009F80123FFF78DBA254B45499C61042226
:10372000062010F0FFFF0123FFF783BA204B414929
:103730005C610422052010F0F5FF0123FFF779BA40
:103740001B4B3D491C610422104610F0EBFF012386
:10375000FFF76FBA164B3949DC600422032010F0E2
:10376000E1FF0123FFF765BA114B35499C60042244
:10377000022010F0D7FF0123FFF75BBA0C4B314951
:103780005C600422012010F0CDFF0123FFF751BA45
:10379000074B2D491C600422002010F0C3FF0123B9
:1037A000FFF747BA0022FFF790BA0023FFF741BAAC
:1037B00048B502200521000079200000ED1F00001F
:1037C000611F0000D51E0000491E0000BD1D000045
:1037D000311D0000A51C0000191C00008D1B0000FD
:1037E000011B0000751A0000E91900005D190000B6
:1037F000D118000045180000B91700002D1700006F
:10380000A11600001516000089150000FD14000027
:1038100071140000E513000059130000CD120000E0
:1038200041120000B5110000291100009D10000098
:1038300011100000850F0000F90E00006D0E000051
:10384000E10D0000550D0000C90C000070B58AB0F4
:1038500002462821684616F0B9FC1349134C144D52
:10386000144A154B154E03C9206095E80300A0606B
:1038700092E80300E0600FCB04F1140507C596E859
:10388000030025F8023B1B0C2B70102260622823DA
:1038900069464C2504F12C0065602261A36216F094
:1038A00071FD20460AB070BD6CDE01009CD4012081
:1038B00074DE01007CDE010084DE010094DE010084
:1038C000174A1849184BF0B51468DFF86CE0174F29
:1038D000174D184E024603C918609EE80300986011
:1038E00097E8030004EB440405EBC404D86096E8B1
:1038F0000300A4689C612C3A22F0010210250121EA
:1039000002F178076400022658629A625F60DC6107
:103910001E841D615D849982D9821846F0BD00BF66
:103920005C3E00209CDE01007CED0120ACDE01004D
:10393000CCE50100B4DE0100A4DE01002DE9F04178
:10394000514C524A524994B000250CA801232560DD
:103950000CF0E6F914AA4F480E9B12F8145D9DF87E
:10396000341083600573017100F10D031A3012F8F1
:10397000011F03F8011B83424649F8D1139B464FB0
:10398000CB610CA80CF0F4F80023DFF81C813B603D
:1039900005E00CA80CF002F90CA80CF0E9F80CA852
:1039A00001223C490CF030FA0CA80CF005F920B9C2
:1039B000226840F2E6339A425FDD0CA80CF0DCF896
:1039C0000028E6D10CA80CF0D5F80146684610F0A6
:1039D000C5F9324904A810F0C1F904A9684610F0ED
:1039E000F9F9002836DB04A810F078F908AD23684F
:1039F00003EB430603EB86030CA808EB03060CF06D
:103A0000B9F80146304616F0BDFC2549284610F0AD
:103A1000A5F92946684610F0DDF90646284610F05B
:103A20005DF9334601226946284610F0E5F928463B
:103A300010F006FA0646284610F050F93B68164A80
:103A40009E422368C8BF166001332360684610F0A9
:103A500045F99EE708AD1349284610F07FF929463D
:103A6000684610F0B7F90646284610F037F904A862
:103A700010F034F9002EE9DBB9E70CA80CF078F867
:103A800014B0BDE8F08100BF84D40120BCDE010089
:103A90000CBB022050D40120A8DD0120C0DE0100B3
:103AA000D0DE0100C8DE0100FC74022008B5054923
:103AB0000122002009F0F4FFFE210348BDE8084080
:103AC0000CF082B8D4DE01000CBB022038B5064DE4
:103AD0000648074C2946012209F0E2FF20702846DB
:103AE0000AF0B4FB207038BDD4DE0100ECF10120F7
:103AF00084D601202DE9F84306460FF0BFFC0128CB
:103B00002CDDDFF86490DFF858800025D8F800003D
:103B1000134F05EB400430460FF0E2FC09EB0424A0
:103B200001464FF48072204610F054FC01353046B7
:103B30000FF0F4FC022DE9D13B680133BF2B02D812
:103B40003B60BDE8F8830022064B3A60064907480F
:103B50004FF4C0320AF04AF9054B1870BDE8F883FB
:103B600090F10120B8A70220C04C002048D70120C6
:103B700084D601202DE9F041434A444D0023AEB0E4
:103B8000044680F8F63013700CE00FF0A9FC404BAF
:103B900001464FF480723F480AF028F92870204609
:103BA0000FF0BCFC20460FF069FC00282046ECDC3E
:103BB000394B1B78012B08D036480AF035FB2870AA
:103BC000FFF7BCFE2EB0BDE8F081324C002200238E
:103BD00020460AF04FFBD4F810804046FFF770FEF5
:103BE0000EAF044600F1200E20686168A268E36809
:103BF0003E460FC6103474453746F5D120686168DB
:103C0000A268002307C7002222480AF033FB0EA94E
:103C10001F4B20482C220AF0E9F8424600231D4899
:103C20000AF028FB1D4A1E4B12781B780A2A08BF8F
:103C30000022C3B91B4B009204AC93F900301A4A1E
:103C40002046282116F0C2FA2046FFF7FFFD542235
:103C5000014619A810F0BEFB19A90D4B0D485422BE
:103C60000AF0C4F8A8E7114811490E4B007809780A
:103C700093F90030009204AC0290019120460D4A65
:103C8000282116F0A3FADFE78CF1012084D6012069
:103C9000B8A7022048D70120C43E0020593E00208A
:103CA000D4DD01202DB5022008DF0100983E002060
:103CB0006E3E0020D8DE010038B5264C2368002B6C
:103CC00030D1254B1A6840F2E6339A4200DD38BD08
:103CD000224B23491A68097801321A6051B3214BEB
:103CE000214D1B682149224803EB430305EBC30325
:103CF000204D5B6816F0B8FA00211D480AF00AFC56
:103D00000A2228701A491C4809F0F4FE022828707B
:103D100015D00A221649184809F0ECFE0123287034
:103D2000236038BD14480AF07FFA124A002310704D
:103D30002360C6E70B4B0C4D1B681049D3E70E48B8
:103D40000AF072FA09282870E3D109480AF008FC41
:103D50002870DEE744F4012084D40120A8DD01208E
:103D6000C43E00205C3E0020CCE501002CDF0100B9
:103D7000A8D9012084D6012048D7012020DF0100E6
:103D80002DE9F0414B4F4C4A3B78002515701BB391
:103D9000013BDAB249494A4B91F800E0DFF830C103
:103DA000013202EB420203EB820803F10804BEF188
:103DB000000F50D0197A05EB4506A4F108020CEB70
:103DC000860619B107CA86E8070001350C3343455A
:103DD00004F10C04EBD1EBB23A4E3B703378ABB14B
:103DE000013BDBB25D1C05EB4507DFF8D4C0DFF813
:103DF000E4E0BF0000230CEB030207CA0EEB030450
:103E00000C33BB4284E80700F5D1EBB22E4A337085
:103E1000072009230E212D4DDFF8BC80DFF8BCC040
:103E200050709646937011701646002071B30122AF
:103E30000027C4B2531EDBB203EB4303F0B1012CE5
:103E40002DD005EB83031B7A03B1013791422CD9A6
:103E50000132D2B2EEE714F8082C643A032AB5D93D
:103E6000197A05EB4506A4F108020CEB8606002939
:103E7000ACD007CA013586E80700A7E70CEB83033F
:103E80001B7A03B101379142E2D8F9B2013003281D
:103E9000317002D016F8011FC8E7BDE8F08108EBC9
:103EA00083031B7A002BEED0ECE70EF80070BDE820
:103EB000F08100BF393E002040D7012098DA012070
:103EC00030E80100283E0020FCD3012000DE010084
:103ED00048F4012000D4012034E7010088E7010004
:103EE000F0B5054B1B688DB004460D4603A8194676
:103EF0000DF0A0FE02E000BF00D00340FF2C00F256
:103F00001E81DFE814F0D201D001E50192018801A1
:103F100086017D011C011C011C0168011F0161015A
:103F200055011C011C011C011C011C011C011C0170
:103F30001C011C011C011C011C011C011C011C0199
:103F40001C011C011C011C011C011C011C011C0189
:103F50001C011C011C011C011C011C011C011C0179
:103F60001C011C011C011C011C011C011C011C0169
:103F70001C011C011C011C011C011C011C011C0159
:103F80001C011C011C011C011C011C011C011C0149
:103F90001C011C011C011C011C011C011C011C0139
:103FA0001C011C011C011C011C011C011C011C0129
:103FB0001C011C011C011C011C011C011C011C0119
:103FC0001C011C011C011C011C011C011C014D01D8
:103FD0004B0143011C011C013B011C011C011C0184
:103FE0001C011C011C011C011C011C011C011C01E9
:103FF0001C011C011C011C011C011C011C011C01D9
:104000001C011C011C011C011C011C011C011C01C8
:104010001C011C011C011C011C011C011C011C01B8
:104020001C011C011C011C011C011C011C011C01A8
:104030001C011F012F01C601C401C801C2011C01DE
:104040001C011C011C011C011C011C011C011C0188
:104050001C011C011C011C011C011C011C011C0178
:104060001C011C011C011C011C011C011C011C0168
:104070001C011C011C011C011C011C011C011C0158
:104080001C011C011C011C011C011C011C011C0148
:104090001C011C011C011C01B0010001A5011C0137
:1040A0001C011C011C011C011C019D01DD01D5012D
:1040B0001C011C011C011C011C011C011C011C0118
:1040C0001C011C011C011C011C011C011C011C0108
:1040D0001C011C011C011C011C011C011C011C01F8
:1040E0001C011C011C011C011C011C011C011C01E8
:1040F0001C011C011C011C011C011C011C011C01D8
:104100001C011C017501904B904C196803A80DF01F
:1041100091FD94F90030069F079E089D002B00F04A
:10412000F980012B00F00481022B08D18DE8C0003A
:1041300005F2B273864A87480C2116F047F8854885
:104140000DB0F0BD844B85491B68854A814803EB5F
:10415000430301EBC3030C215B6816F037F87D487D
:104160000DB0F0BD7F4B1B787F4A7A4803EB830389
:104170000C2116F02BF877480DB0F0BD7B4B7C4A34
:104180001B7874480C2116F021F8D8E7794B764A51
:104190001B7870480C2116F019F8D0E7764BEEE743
:1041A000764B774A1B786B480C2116F00FF8C6E760
:1041B000744B1B78002B40F09380734A654B92E858
:1041C000030018601971BAE7704B1B68062B00F3E7
:1041D0008E806249B9E76E4A6E4B11685D4853F8AC
:1041E00021305F4A0C2115F0F1FF5A480DB0F0BDA7
:1041F000694B584853F825200C2115F0E7FF9EE73E
:10420000664B594A93F9003052480C2115F0DEFFF5
:1042100095E7634BF5E7634B1B780A2B5CD9584A4B
:104220004C480C2115F0D2FF89E75F4B1B68002B2F
:1042300052D05E4B474A1B6813801B0C93707EE77D
:104240005B4B494A1B6843480C2115F0BFFF76E7DA
:10425000584B93F90030012B68D0574A3D4B07CAA1
:1042600003C31A706BE7394C049E94F90030059D26
:10427000002B45D0002B7FF762AF00962B464F4AAC
:1042800034480C2115F0A2FF59E74D4B6BE74D4B1D
:1042900087E74D4B67E74D4B4D4A1B782D480C2166
:1042A00015F094FF4BE74B4A96E74B4A4B4B94E78C
:1042B0003F4B2D4A9B6827480C2115F087FF3EE7AE
:1042C0003B4B294A5B6823480C2115F07FFF36E7FA
:1042D000434B22491B6838E71E4B424A1A602EE7BF
:1042E000414A1C4B92E803001860197127E73F4AC6
:1042F000184B92E803000A0C186099809A711EE727
:104300002B4600963A4A13480C2115F05FFF94F9AA
:104310000030AFE705F2B2738DE8C000354A0D48B2
:104320000C2115F053FF94F90030FAE6324ADFE72A
:1043300005F2B2738DE8C000304A06480C2115F032
:1043400045FF94F90030EFE600D00340E3F101208F
:1043500080DF0100D0F101205C3E0020CCE50100AF
:1043600054DF01006D3E002044DF0100A03E00202C
:104370004CDF0100EC3E0020EE3E0020623E0020BB
:1043800038DF0100C43E0020C0DE0100643E002092
:10439000B83E00203C3E0020DC3E0020603E002075
:1043A000ED3E0020593E0020A83E002090DF010095
:1043B000DC7402205A3E0020A4DF010084DF0100EB
:1043C0006C3E00206E3E0020613E0020983E0020A2
:1043D00094DF0100F8D90120E83E0020F43E0020DF
:1043E000C83E00204F464600C8DE010058DF0100ED
:1043F00074DF010060DF01009CDF010070DF01005D
:10440000F0B4774A137C012B40F2828072B6D368F5
:1044100062B6744C74492268744891F9005093FB59
:10442000F5F3934203601EDD714A724B92F900204E
:104430001A60714A137C012B1FD972B6D36862B619
:104440006E4A6F4E1568006891F9001093FBF1F306
:10445000AB422060336053DC4ADB6A4913600020C2
:104460000860F0BC70473FDA674A624B92F900205F
:104470001A60614A137C012BDFD872B692E84800BB
:104480001D783778567A137A374205EA03057FD0CC
:10449000937A03F003030DB143F0040343F00803E0
:1044A0009D10013B95720D2BC8D801A555F823F03E
:1044B000D9450000D1450000C9450000D1450000A4
:1044C0003D440000C1450000D9450000D945000029
:1044D000C14500003D440000D1450000C945000031
:1044E000D1450000D9450000424B00221A60A0E7E8
:1044F0004548444990F9000008601360F0BC7047DB
:104500003B48404990F9000008601360F0BC7047D8
:1045100072B61368506819780478507A137A044296
:1045200001EA03012CD0937A03F0030309B143F0AD
:10453000040343F008039910013B91720D2B3FF6E1
:1045400066AF01A151F823F0B9450000B145000064
:10455000A9450000B14500000F440000A14500003E
:10456000B9450000B9450000A14500000F44000016
:10457000B1450000A9450000B1450000B945000063
:10458000937A03F003030029D5D043F00403D2E764
:10459000937A03F00303002D82D043F004037FE7F6
:1045A000D368023BD36033E7D3680233D3602FE78D
:1045B000D368013BD3602BE7D3680133D36027E78F
:1045C000D368023BD3603AE7D3680233D36036E75F
:1045D000D368013BD36032E7D3680133D3602EE761
:1045E00060DB012028B50220383E002038F401208D
:1045F000ECDD012090DA0120ACDD0120A4D90120FE
:10460000C4F4012050DB0120FCD9012008B5074883
:104610000DF0E0FA06480DF0DDFA06480DF0DAFA82
:104620000548BDE808400DF0D5BA00BF34B50220FA
:1046300060D50120F0D4012000D5012008B5022169
:10464000242010F017F902211D2010F013F9022187
:10465000252010F00FF92620022110F00BF964201C
:10466000BDE8084010F00CB9F0B583B0064606F07E
:10467000B7FF074606F00AFF0546384606F0F8FE83
:104680001A4B93F90030CBB944B22644172E20DDE3
:104690001C46EDB26946384606F006FE68468DF8BF
:1046A00001508DF8024006F01DFF10F0BDF868467D
:1046B00006F018FF06F0E4FF03B0F0BD012B0ED1A9
:1046C0006AB295193B2D08DC002D0DDBEDB2C4B2AA
:1046D000E0E7002E06DBF4B2DBE70025F7E7EDB2FA
:1046E000C4B2D7E71724D4E73B25F0E7E3F1012074
:1046F00070B582B0064606F073FF054606F0E2FE8E
:104700000446284606F0D0FE264B93F90030DBB96C
:1047100022B2324440F2E9739A4221DD3124C6B21A
:104720006946284606F0C0FD68468DF805608DF89C
:10473000064006F0D7FE10F077F8684606F0D2FE85
:1047400006F09EFF02B070BD012B0FD141B2314483
:104750000C291DDC002923DDCEB24E34E4B2DFE7A4
:1047600040F2E2739A4215DC3724D8E7022B14D1C9
:1047700006F036FF0C4D05FB0605284606F0A2FEA6
:104780000446284606F090FE4E34C6B2E4B2C7E7AF
:104790001E46E2E74E32D4B2C1E74E34E4B2BEE781
:1047A0000C26DAE7E3F1012080510100964B1B78DB
:1047B0002DE9F043002B4BD0944B1B785B0207EEA6
:1047C000903AF8EEE76A9249924A0B68DFF86492F1
:1047D000914C1068914E9FED927A002201339446DD
:1047E0000B60C9F80020964617462146042236F889
:1047F000023F013303EB83035B0007EE903AF8EED0
:10480000E77A8242C1ED107A07F1010301F120013C
:104810000CD9F4EEE67AF1EE10FA37EE277ADFB231
:1048200004DDF0EE676A96464FF0010C0232F02A82
:10483000DDD1BCF1000F0ED17A4B1B78002B40F07C
:10484000E080794A1360794B00221A70BDE8F0834A
:10485000DFED776AB7E7C9F800E0764ABEF1000FEE
:10486000EAD007EE907A9FED746AF8EEE77A77EE79
:10487000867AB0EE006AC7EE275AC6EEA57AF4EE45
:10488000C67AF1EE10FA02D500231360D4E7654B27
:1048900001221A70694B1A78752A11DC684904EBF9
:1048A0004213F6EE006AD3ED007A93ED087A77EEC4
:1048B000877A203367EEA67A43ED047A9942F2D1E3
:1048C000DFF89CC19CF80060B2424DDA5D4FDFED2D
:1048D0005E4ADFED5E6A04EB021204EB061600216D
:1048E000B6EE005AF1EE045AB2EE086A92ED007A82
:1048F000574D82ED017A67EE057AF4EEE47AF1EE37
:1049000010FA07DCFCEEE77A17EE903A1B0203F48C
:1049100078431DB2C7EE257A4FF4FC63F4EEE67AD5
:10492000F1EE10FA07DCFCEEE77A17EE908A4FEA18
:10493000C80808EA0303C7EE067A4FF01F08F4EE32
:10494000E67AF1EE10FA05DCFCEEE77A17EE908AD3
:10495000C8F3C4082B43103248EA0303B24227F8D5
:10496000113001F10101C1D1DFF8BC800021864581
:10497000C8F800107FF667AF364B2C4A1B68DFED96
:10498000286ADFF8E0E00126013BB3421670CEED65
:10499000006A01D9BDE8F0839CF8006086420346B6
:1049A00026DD2D4A04EB00140F468C4602EB8002F4
:1049B000D2ED007A94ED007A77EE877A1034F4EE37
:1049C000E67AF1EE10FAE2EC017A04DD0121F0EE74
:1049D000676A8C461F4601339E42E9D1BCF1000F45
:1049E0000CD129B18742C8F8007088BFC9F800709F
:1049F0001A4A138801331380BDE8F083CEED006AB4
:104A0000EFE74FF0000E45E7D4DD0120983E00208F
:104A100044B502203CF4012000DE0120DECC012060
:104A20000000000054DB012078ED012040F401205B
:104A300000000044B4ED01206F12833A5B3E002079
:104A4000C0EC0120C8DB01200000484300007F4388
:104A500000C8FFFF303E0020CCED0120C0F4012053
:104A6000AC3E002030B5022043090DD14000C3B256
:104A70001F200022022902D052105B1040105B015F
:104A800003EBC22318447047012B05D1C04300F04B
:104A90001F003F230022EDE7022B04D100F01F028C
:104AA0003F230020E6E7032B08D100F01F035B0043
:104AB000C3F13F03DBB200201F22DBE700200346E7
:104AC000D7E700BF10B592B0014601A80FF046F934
:104AD0000023322201A805A90FF062F905A90548B3
:104AE00006F05CFB044601A80FF0F8F8A0B212B083
:104AF00010BD00BFACF1012030B50C4D2C78204426
:104B000044B2022C83B00EDC002CB8BF022400217A
:104B1000EB2300930191F0232D2205482C7004F023
:104B200063FE03B030BD0024F1E700BFD5DD0120F6
:104B3000ACF1012070B51E4B1B68032B84B00FD065
:104B40001C4A1D4B92ED007AD3ED006AB8EEC77A8D
:104B5000C7EE267AFDEEE77A17EE903AEB2B14DDDE
:104B6000164B17481B6899B2CE1C3E221BB24FF65B
:104B7000FF7537240339019309B233B203950294C8
:104B8000009205F003FE04B070BD0E4A0C48128876
:104B9000039299B2CD1C1BB245243E2203390193E6
:104BA00009B22BB20294009205F0F0FDD8E700BFE5
:104BB000303E0020243E0020B03E00203CF4012086
:104BC000ACF10120B43E0020E9B12DE9F041DFF85D
:104BD0003C8082B00D46174606B200240134A5423F
:104BE0000ED0E307FAD5B8F8003000933A1B12B2A2
:104BF0000A2331460448013404F07CFCA542F0D17C
:104C000002B0BDE8F0817047ACF10120A23E002067
:104C10002DE9F04FFBB00DF10A090DF1FA0A002061
:104C20002F4E304F4D465446034636F8021F01EBD7
:104C3000830287FB02E3D217C2EB6303D129A8BF2B
:104C4000D1210230D12B1A46A8BFD122EA2824F85C
:104C5000021F25F8022F9BB2E7D10DF1F40B0425BA
:104C600003E00235CB45ADB237D03AF8024F1E48CB
:104C7000E4B2A4F11E062FB24FF6205326EAE676E0
:104C8000009339463346462239F8028F04F022FC5D
:104C90004FF6E07306F146023946009312481E2390
:104CA00004F018FC002004F146020090C4F1D20385
:104CB00039460D4804F00EFC5FFA88F2042AD0D978
:104CC0004FF6FF730093413239460523064804F03E
:104CD00001FC0235CB45ADB2C7D17BB0BDE8F08F4A
:104CE000DECC012067666666ACF1012010B50F4C82
:104CF0000021204604F044FF2046002105F068F919
:104D000020464FF6FF7106F0CBFA2046002104F052
:104D100029FF00222046114606F0A6FA2046282246
:104D20004621BDE8104005F065B800BFACF1012098
:104D30002DE9F0418CB00DF1FF3600250746B04655
:104D40002C4628460FF0F6FA08F8010F44400823D5
:104D500014F0010F4FEA540203F1FF3314BF82F045
:104D60008C04C4F3470413F0FF03F1D101352F2D58
:104D7000E7D1F4B99DF82A30332B03D020460CB08C
:104D8000BDE8F0819DF82930312BF7D19DF828300E
:104D9000302BF3D19DF82730302BEFD1013F0DF1AF
:104DA0002F0316F8012F07F8012F9E42F9D1012099
:104DB000E5E718460CB0BDE8F08100BFF8B5002566
:104DC000471E2C4617F8016F0823744014F0010F9A
:104DD0004FEA540203F1FF3314BF82F08C04C4F392
:104DE000470413F0FF03F1D128460FF0A3FA8642DF
:104DF00009D0314628460FF0B7FA28460FF09AFA44
:104E00003B78834204D101352E2DDBD1002600E012
:104E10000126214628460FF0A7FA28460FF08AFA05
:104E200084420CBF30460120F8BD00BFF0B58DB004
:104E30006846FFF77DFF0446A0B16C499DF821202C
:104E40006B4BBDF802709DF827609DF828509DF8C7
:104E500029000F80012A9DF82A101E705D7098703D
:104E6000D97002D020460DB0F0BD624E62489DF868
:104E700008703760614D9DF80960066060499DF8D3
:104E80000A60604B2E609DF806600E609DF805502C
:104E90005D4F5E485E495F4E1A609DF804303B608E
:104EA00003600D603560002D00F08680022D00F05B
:104EB0009680012D00F08A8000215748574D04F05C
:104EC00051FE316854480EF001FF5548554A564985
:104ED000564B9DF807609DF81870067017709DF886
:104EE00019609DF81A00059A2E7008701A70FDF767
:104EF0001BFC9DF90C304E484E4A4F4F4F4D9DF8CC
:104F00001B600499037018463B702E701160FDF70A
:104F10008DFD9DF90B304A494A4A0B7018461370B3
:104F2000FDF7ACFD9DF82230DFF844E1464A474FDB
:104F30009DF824009DF825609DF82650DFF834C1C7
:104F4000106059B25B428EF80030DFF82CE1397006
:104F500056603F4F95609DF823208CF800108EF826
:104F600000203C499DF81C203A703B4A9DF81D707A
:104F70000F703A499DF81F7017708319384A9DF8D1
:104F800020700F70EB429DF81E1011703FF46AAF55
:104F90000221FFF769FD334B022118803046FFF7ED
:104FA00063FD314B012118802846FFF75DFD2F4B33
:104FB000188020460DB0F0BD2946174805F008F8C6
:104FC0002946154804F0DCFD35686FE700211248DA
:104FD00004F0FEFF0021104804F0D2FD6CE7002130
:104FE0000D4804F0CDFD356863E700BF88D501208A
:104FF00004ED0120643E00205C3E0020C83E0020FD
:10500000B83E0020A83E002098D90120F8D9012000
:10501000E83E0020303E0020ACF10120623E00203E
:10502000C43E0020EE3E0020EC3E0020593E002011
:10503000603E0020243E002098D40120A03E0020A5
:105040002DB50220ED3E0020DC740220ECDD0120B5
:105050006D3E0020613E00206E3E0020983E002004
:105060006C3E0020A23E0020B43E0020BC3E00204A
:10507000FCD901205A3E0020383E0020F0B5454BB7
:105080004549464F464E474D474C484809681B889E
:10509000474A3F6836682D68246800681268DFF860
:1050A00054E18FB001338DF8101042498DF8117022
:1050B0008DF812608DF829508DF80C408DF80E0097
:1050C0003D4F3E4E3E4D3F4C3F4809788DF80D20F8
:1050D000ADF80A303D4A3E4B9EF800E03F78367806
:1050E0002D78246800788DF8211040F2E9318DF890
:1050F0000FE012788DF820708DF822608DF8235023
:1051000006940790ADF8081093E80300DFF8E8E094
:10511000304F314E314D8DF81420C0F307238DF8F8
:1051200030302F4C2F49304A9EF800C097F800E0ED
:1051300037782E782D4D8DF82F00C0F307438DF86A
:1051400031302B4B2478097812782D788DF8134064
:10515000000E1C688DF832008DF82A108DF82B2077
:1051600059689A688DF824C0002302A88DF825E0BC
:105170008DF827708DF828608DF826508DF82C401A
:105180008DF82D108DF82E20ADF83430FFF716FE77
:105190000FB0F0BD88D50120643E00205C3E0020A9
:1051A000C83E0020A83E0020F8D90120B83E0020CB
:1051B000E83E0020623E0020EE3E0020EC3E002053
:1051C000A03E0020243E0020593E0020603E0020EA
:1051D000B0DF0100613E00206E3E0020983E0020BE
:1051E000ED3E00205A3E0020383E00206C3E00205C
:1051F000DC740220C43E00206D3E0020F8B5544C03
:10520000206054480DF0B6FA534B1B78013B012B3C
:1052100037D9524E524D5348534923680122002733
:1052200037602A6002600A607BB1012B1FD0022B1D
:105230002BD0032B50D0042B06D14C4B00224FF423
:10524000803119629A61DA61F8BD02230B60484A25
:10525000484B10681860FDF7AFF92368434A0021F6
:105260004FF48030012B9061D1611162DFD13F4B4F
:10527000414800214FF48032D96119629A6102627B
:10528000F8BD2368002BD0D1E1E74FF480413148CD
:105290000DF03EFA394ADFED3A6A1278334B07EEE9
:1052A000902AF8EEE77AB7EE006A86EE277A0022B7
:1052B0004FF48031D9619A611A62B4EEE67AF1EE68
:1052C00010FA2DD4F2EE007AB4EEE77AF1EE10FA8D
:1052D00033DD4FF4002125E01E4D4FF48041284678
:1052E0000DF02CFA274B214A1B7885F82830002135
:1052F0004FF48030D06191611162DBB1322B28BF55
:105300003223012292FBF3F307EE903AF8EEE77AAC
:10531000194A2368C5ED097A00211162D1618AE733
:1053200040F28F210B48144A016200212368116268
:10533000D1617EE7F7EE007AEAE7DFED136ADFED91
:10534000137AE7EE267AFCEEE77A17EE901AE9E791
:1053500098D90120A0D6012048ED0120ACED012014
:1053600094DA0120B0DB0120C03E002078DB012070
:105370005CDB0120243E00201CD70120EE3E0020F3
:105380000AD7233CA03E002000008047EE7CFF3E71
:1053900038B5294B0122044664201A700FF070FAC8
:1053A000264B274A1B6803EB430312F82330652B77
:1053B0002FD0244D0023062C2B7023DC224A4FF4DF
:1053C00080319361D3611162204B214C1A682368AC
:1053D000013A934214DC33EA230328BF134603EB5C
:1053E00043021C49236003EB820319441A480D222F
:1053F00015F0ACF818491948BDE838400DF068BF01
:105400000023ECE7164B1868FFF7F8FE01232B701A
:10541000DAE70A2C04D0134B1C68072C04DD0024A7
:105420002046FDF76DFAC4E7002CB8BF07242046DC
:10543000FDF766FABDE700BFE0F10120ACED012009
:1054400048F4012009ED012078DB012084D40120FB
:10545000A0D90120FC740220A8D9012014DA01206F
:1054600098D90120643E00202DE9F04FB24AB34B99
:105470001468B348B3491C600C3205680C681268A4
:10548000B149B2485D608DB0DA609C600EF066FC98
:10549000AF4AB049AD48B04DDFF8DC92DFF83CA32D
:1054A00011F084FBAD49AE4A09681160AD4AAE4BBC
:1054B000AE482D78AE49126800781D700023087040
:1054C000C9F800A089F80930C9F8103089F8083007
:1054D000C9F80C300AB9EEE31A465369002BFBD128
:1054E000C2F814900025A34BA348C9F81450A9F89A
:1054F0000450A9F8065089F80A50C9F800300DF098
:105500000BFC29462A469D489D4F9E4EFDF72AF8E2
:105510009A4A9D4B136010200DF0AAFA984B012176
:1055200003F118021846FDF71DF8954A974B82F8CB
:10553000F45029462A46964887F8F550C7F8F050A7
:1055400087F8F6503B60FDF70DF8914A914B1360D8
:10555000914A8F4F18324FF48043A2F11800022174
:105560003B62FCF7FFFF8C4A8C4B1360012006F274
:1055700024722B4629463572F560C6F800A0707279
:105580003261354600E02A6942F82310727A7D487C
:1055900001339A42F7DC734B1A680AB98FE31A4653
:1055A0005369002BFBD1566100257D4931602A46A5
:1055B00001237C4F7C487561B580F580B5724FF44E
:1055C000807186F8215786F82257C6F8187111F0B5
:1055D00011FA644BDFF8DC811A68C6F81C51082305
:1055E00086F8203788F80950C8F800A0C8F810508D
:1055F00088F80850C8F80C505A4B0AB961E31A46AB
:105600005369002BFBD1C2F814800025674BC8F802
:105610001450A8F80450A8F8065088F80A506448B6
:10562000C8F800300AF096FA6248634C634F0DF0F8
:1056300021FE474A62495F4811F0B8FA614B0121E7
:1056400003F118021846FCF78DFF5E4A5D4BA2F885
:1056500044505D4A9D642832A2F1280004211C6058
:10566000FCF780FF594B5A4C03F128021846564B61
:105670004FF4803B04211C60C3F818B0C3F81CB081
:10568000C3F820B0C3F824B0FCF76CFF4F493D725B
:10569000022007F118022B460C60C1F818B0C1F8BF
:1056A0001CB0C1F820B0C1F824B0FD602946C7F88D
:1056B00000A078723A613D4600E02A6942F8231062
:1056C0007A7A3E4801339A42F7DC264B1A680AB9C7
:1056D000FAE21A465369002BFBD157614FF0000BD9
:1056E0003C4D3D4B3548C7F814B0A7F804B0A7F8B7
:1056F00006B087F80AB03B600DF046FD012005F5C5
:1057000054625B465946C5F800A085F808B0C5F854
:105710000CB068722A61AE4601E0DEF8102042F853
:1057200023106A7A2B4801339A42F6DC0D4B1A6833
:10573000002A56D1CAE200BF5480044088D4012018
:10574000588004405C800440B8DF0100F0DD012097
:105750000C3E0020DD3C0100ED3E0020243E0020F8
:105760005CDB0120E0BD02202DB50220603E002060
:1057700098D40120EC12020058DA012088D60120CA
:105780008CD50120C4CC0120E01202001C130200C1
:105790001CD701202813020030D40120C8120200B7
:1057A00088100200A8100200ECD3012010130200A0
:1057B0002CDA012014DA0120BC12020070DA012078
:1057C0006D040000A0D6012078DB012010ED01203F
:1057D000F8120200BCA7022004130200FCDD010045
:1057E0001A465369002BFBD155610024DFF898A3BA
:1057F000D34BD4486C6121464FF45062AC80EC80AE
:10580000AC72DFF888B32B602C766C83AC83EC83AE
:1058100014F080FACC4BCAF804305046CAF8009015
:105820008AF808408AF80940CAF80C408AF8104003
:105830000EF082F8C54AC649DFF85493504611F07D
:10584000B5F94FF0010AC04BCBF804305846CBF8FD
:1058500000808BF80840CBF80C408BF810408BF898
:1058600009A00EF069F8BA49B84ADFF8288358460B
:1058700011F09CF90223B74AC9F800204846B24A01
:1058800089F80930B44B0593C9F8042089F8084019
:10589000C9F80C4089F810400EF04EF8AB4AAC49FC
:1058A000484611F083F908F1280204214046FCF72C
:1058B00059FE059B4FF4803E03F19802514618466D
:1058C000A64BC8F80030C8F818E0C8F81CE0C8F8C3
:1058D00020E0C8F824E0FCF745FE059BA0491A46E5
:1058E00003F1940042F8141B214642F8041F904231
:1058F0004FF00004F9D1DFF8A0A2934ADFF89C92A0
:10590000CAF8043050460593CAF800208AF80840C7
:105910008AF80940CAF80C408AF810400EF00CF8DA
:105920008A4A8B49DFF878B2504611F03FF9864B2E
:1059300089F80840484689E8080189F80940C9F80B
:105940000C4089F810400DF0F7FF804A8049DFF8DD
:1059500054A2484611F02AF9059B8BF808404FF0F5
:10596000010958468BE80801CBF80C408BF8104031
:105970008BF809900DF0E0FF744A7549584611F014
:1059800015F9DFF824B2CAF800805046CAF804605E
:105990008AF808408AF80940CAF80C408AF8104092
:1059A0000DF0CAFF694A6A496E4E504611F0FEF882
:1059B000DFF8F8A16C4BCBF804305846CBF80080E8
:1059C0008BF808408BF80940CBF80C408BF810405E
:1059D0000DF0B2FF5D4A5E49584611F0E7F8634B9F
:1059E000CAF804305046CAF800808AF808408AF89D
:1059F0000940CAF80C408AF810400DF09DFF534A48
:105A00005349DFF8ACB1504611F0D0F83046584B4E
:105A1000DFF8A0A1C6F80080736034727472F4607D
:105A200034740DF089FF494A4949524B0593304679
:105A300011F0BCF8504BCAF8003050464B4B4F4E5B
:105A4000CAF804308AF809908AF80840CAF80C406D
:105A50008AF810400DF070FF3C4A3D49DFF858814C
:105A6000504611F0A3F8414B33603046444B73600D
:105A700034727472F46034740DF05EFF3449334A4A
:105A8000DFF838A1304611F091F8059B364A1A60CC
:105A900018463B4A83F809905A601C72DC601C74FB
:105AA0000DF04AFF059B2A49284A364E184611F048
:105AB0007DF8254ACBF8002002235846304A8BF85F
:105AC0000930CBF804208BF80840CBF80C408BF859
:105AD00010400DF031FF1D4A1D49584611F066F87F
