:1000000000000320D1010000414F0100F94E010022
:10001000F94E0100F94E0100F94E0100F94E0100C0
:10002000F94E0100F94E0100F94E0100414F010067
:10003000414F0100F94E01002564010029640100CF
:10004000414F0100414F0100414F0100414F01006C
:10005000414F0100414F0100414F0100414F01005C
:10006000414F0100414F0100414F0100414F01004C
:10007000414F0100414F0100414F0100414F01003C
:10008000414F0100414F0100414F0100414F01002C
:10009000414F0100414F0100414F0100414F01001C
:1000A0004D77010059770100414F0100414F010098
:1000B000414F0100414F0100414F0100414F0100FC
:1000C000414F0100414F0100414F0100414F0100EC
:1000D000414F0100414F0100414F0100414F0100DC
:1000E000414F0100414F0100414F0100414F0100CC
:1000F000414F0100414F0100414F0100414F0100BC
:10010000414F0100414F0100414F0100414F0100AB
:10011000414F0100CD550100414F0100414F010009
:10012000414F0100414F0100414F0100414F01008B
:10013000414F0100414F0100414F0100414F01007B
:100140008D440100414F0100414F0100414F01002A
:10015000414F0100414F0100414F0100414F01005B
:10016000414F0100414F010065770100414F0100FF
:10017000414F0100414F0100414F0100414F01003B
:10018000414F0100414F0100414F0100414F01002B
:10019000414F0100414F0100414F0100414F01001B
:1001A000414F0100414F0100414F0100414F01000B
:1001B000414F0100414F0100414F0100414F0100FB
:1001C000414F0100414F0100414F0100414F0100EB
:1001D0005C4B4CF2205210B51A804DF628121A8052
:1001E00000BF00BF14F0B0FE574B4FF030621A60F2
:1001F000564A9A60564ADA60564B4FF470021A60BB
:10020000554B564A1A60564B1A78110703D51A787F
:1002100042F008021A70534B5349AA221A70534AEB
:10022000534B8B4204D252F8040F43F8040BF8E707
:10023000504B514900228B4202D243F8042BFAE77B
:100240004E494F4A002352F8230041F8230001335E
:10025000742BF8D14B4B4C4A802103F8011B93427D
:10026000FBD14A4B454A1A60494B8A221A70A3F5C2
:10027000805324225A70A0221A709A799207FCD5D2
:100280009A79D406FCD4434A937903F00C03082BE3
:10029000FAD1414B60221A7002331A78802AFCD1BD
:1002A0003C4B01221A715D225A719A799006FCD555
:1002B0009979384A4906FBD5384B394919600021EC
:1002C000596020231370937903F00C030C2BFAD19F
:1002D000344B354A1A60354A354C136813F4807331
:1002E00003D123604FF4A8531360324B324A1A6093
:1002F00000225A60072243F8042C304AC3F80C2D20
:1003000062B615F007F82368DA0705D52C4814F013
:1003100083FF2C4B2C4A1A602C4B1B785B0609D5AB
:10032000284C294B22689A4204D1254814F074FFC6
:100330000023236019F078FA14F00CFE14F03AFD53
:10034000FEE700BF0E20054030800440823F0400DD
:100350000100002B88ED00E0002008E0030000858C
:1003600002D0074000E00740C04C0020D04104000C
:10037000303D0020C04C0020749502200038002041
:100380000000000000E400E064E400E008ED00E0AC
:10039000005006400040064001E007404480044011
:1003A0000000060204800440C010070010D0034083
:1003B00014D0034014E000E01FBF02000000202022
:1003C0004FD571601CE00340A5C3945A00F007406C
:1003D000FFFFFFFFFFFFFFFFFFFFFFFFFFFFFFFF2D
:1003E000FFFFFFFFFFFFFFFFFFFFFFFFFFFFFFFF1D
:1003F000FFFFFFFFFFFFFFFFFFFFFFFFFFFFFFFF0D
:10040000FFFFFFFFFFFFFFFFFFFFFFFFDEF9FFFF23
:1004100010B5054C237833B9044B13B10448AFF33E
:1004200000800123237010BDC04C0020000000009C
:10043000CC410400084B10B51BB108490848AFF384
:1004400000800848036803B910BD074B002BFBD0A0
:10045000BDE81040184700BF00000000C44C002059
:10046000CC410400C04C00200000000010B5044B3B
:10047000044640F8183B08F0CBFF204610BD00BFF3
:10048000040E030014F0C2BE10B5044613F0A8FF1A
:10049000204610BD214B10B41A69136850681978B2
:1004A0000478507A137A044201EA03011BD0937A4C
:1004B00003F0030309B143F0040343F00803991068
:1004C000013B91720D2B0BD8DFE803F021071B07CE
:1004D0000A152121150A071B0721D368013BD360A8
:1004E0005DF8044B7047937A03F003030029E6D0CC
:1004F00043F00403E3E7D3685DF8044B023BD360A9
:100500007047D3685DF8044B0233D3607047D368FB
:100510005DF8044B0133D360704700BFA08D02200B
:10052000214B10B45A691368506819780478507ACE
:10053000137A044201EA03011BD0937A03F0030308
:1005400009B143F0040343F008039910013B917291
:100550000D2B0BD8DFE803F021071B070A1521211B
:10056000150A071B0721D368013BD3605DF8044BD4
:100570007047937A03F003030029E6D043F00403A5
:10058000E3E7D3685DF8044B023BD3607047D36860
:100590005DF8044B0233D3607047D3685DF8044BB9
:1005A0000133D360704700BFA08D0220214B10B4EF
:1005B0009A691368506819780478507A137A04425B
:1005C00001EA03011BD0937A03F0030309B143F05E
:1005D000040343F008039910013B91720D2B0BD8D3
:1005E000DFE803F021071B070A152121150A071B65
:1005F0000721D368013BD3605DF8044B7047937AC1
:1006000003F003030029E6D043F00403E3E7D368D3
:100610005DF8044B023BD3607047D3685DF8044B30
:100620000233D3607047D3685DF8044B0133D36065
:10063000704700BFA08D0220214B10B4DA69136807
:10064000506819780478507A137A044201EA030159
:100650001BD0937A03F0030309B143F0040343F082
:1006600008039910013B91720D2B0BD8DFE803F0C2
:1006700021071B070A152121150A071B0721D3682B
:10068000013BD3605DF8044B7047937A03F003039A
:100690000029E6D043F00403E3E7D3685DF8044B98
:1006A000023BD3607047D3685DF8044B0233D360DC
:1006B0007047D3685DF8044B0133D360704700BFC7
:1006C000A08D0220214B10B41A6A13685068197863
:1006D0000478507A137A044201EA03011BD0937A1A
:1006E00003F0030309B143F0040343F00803991036
:1006F000013B91720D2B0BD8DFE803F021071B079C
:100700000A152121150A071B0721D368013BD36075
:100710005DF8044B7047937A03F003030029E6D099
:1007200043F00403E3E7D3685DF8044B023BD36076
:100730007047D3685DF8044B0233D3607047D368C9
:100740005DF8044B0133D360704700BFA08D0220D9
:10075000214B10B45A6A1368506819780478507A9B
:10076000137A044201EA03011BD0937A03F00303D6
:1007700009B143F0040343F008039910013B91725F
:100780000D2B0BD8DFE803F021071B070A152121E9
:10079000150A071B0721D368013BD3605DF8044BA2
:1007A0007047937A03F003030029E6D043F0040373
:1007B000E3E7D3685DF8044B023BD3607047D3682E
:1007C0005DF8044B0233D3607047D3685DF8044B87
:1007D0000133D360704700BFA08D0220214B10B4BD
:1007E0009A6A1368506819780478507A137A044228
:1007F00001EA03011BD0937A03F0030309B143F02C
:10080000040343F008039910013B91720D2B0BD8A0
:10081000DFE803F021071B070A152121150A071B32
:100820000721D368013BD3605DF8044B7047937A8E
:1008300003F003030029E6D043F00403E3E7D368A1
:100840005DF8044B023BD3607047D3685DF8044BFE
:100850000233D3607047D3685DF8044B0133D36033
:10086000704700BFA08D0220214B10B4DA6A1368D4
:10087000506819780478507A137A044201EA030127
:100880001BD0937A03F0030309B143F0040343F050
:1008900008039910013B91720D2B0BD8DFE803F090
:1008A00021071B070A152121150A071B0721D368F9
:1008B000013BD3605DF8044B7047937A03F0030368
:1008C0000029E6D043F00403E3E7D3685DF8044B66
:1008D000023BD3607047D3685DF8044B0233D360AA
:1008E0007047D3685DF8044B0133D360704700BF95
:1008F000A08D0220214B10B41A6813685068197833
:100900000478507A137A044201EA03011BD0937AE7
:1009100003F0030309B143F0040343F00803991003
:10092000013B91720D2B0BD8DFE803F021071B0769
:100930000A152121150A071B0721D368013BD36043
:100940005DF8044B7047937A03F003030029E6D067
:1009500043F00403E3E7D3685DF8044B023BD36044
:100960007047D3685DF8044B0233D3607047D36897
:100970005DF8044B0133D360704700BFA08D0220A7
:10098000214B10B45A681368506819780478507A6B
:10099000137A044201EA03011BD0937A03F00303A4
:1009A00009B143F0040343F008039910013B91722D
:1009B0000D2B0BD8DFE803F021071B070A152121B7
:1009C000150A071B0721D368013BD3605DF8044B70
:1009D0007047937A03F003030029E6D043F0040341
:1009E000E3E7D3685DF8044B023BD3607047D368FC
:1009F0005DF8044B0233D3607047D3685DF8044B55
:100A00000133D360704700BFA08D0220214B10B48A
:100A10009A681368506819780478507A137A0442F7
:100A200001EA03011BD0937A03F0030309B143F0F9
:100A3000040343F008039910013B91720D2B0BD86E
:100A4000DFE803F021071B070A152121150A071B00
:100A50000721D368013BD3605DF8044B7047937A5C
:100A600003F003030029E6D043F00403E3E7D3686F
:100A70005DF8044B023BD3607047D3685DF8044BCC
:100A80000233D3607047D3685DF8044B0133D36001
:100A9000704700BFA08D0220214B10B4DA681368A4
:100AA000506819780478507A137A044201EA0301F5
:100AB0001BD0937A03F0030309B143F0040343F01E
:100AC00008039910013B91720D2B0BD8DFE803F05E
:100AD00021071B070A152121150A071B0721D368C7
:100AE000013BD3605DF8044B7047937A03F0030336
:100AF0000029E6D043F00403E3E7D3685DF8044B34
:100B0000023BD3607047D3685DF8044B0233D36077
:100B10007047D3685DF8044B0133D360704700BF62
:100B2000A08D0220214B10B4D3F8B0201368506878
:100B300019780478507A137A044201EA03011BD031
:100B4000937A03F0030309B143F0040343F008036D
:100B50009910013B91720D2B0BD8DFE803F02107B0
:100B60001B070A152121150A071B0721D368013B22
:100B7000D3605DF8044B7047937A03F003030029B8
:100B8000E6D043F00403E3E7D3685DF8044B023B8F
:100B9000D3607047D3685DF8044B0233D36070476D
:100BA000D3685DF8044B0133D3607047A08D0220F9
:100BB000214B10B4D3F8B420136850681978047826
:100BC000507A137A044201EA03011BD0937A03F0AE
:100BD000030309B143F0040343F008039910013BF8
:100BE00091720D2B0BD8DFE803F021071B070A15C4
:100BF0002121150A071B0721D368013BD3605DF84B
:100C0000044B7047937A03F003030029E6D043F0C6
:100C10000403E3E7D3685DF8044B023BD3607047FD
:100C2000D3685DF8044B0233D3607047D3685DF836
:100C3000044B0133D3607047A08D0220214B10B4C8
:100C4000D3F8B8201368506819780478507A137A6A
:100C5000044201EA03011BD0937A03F0030309B1B4
:100C600043F0040343F008039910013B91720D2BEC
:100C70000BD8DFE803F021071B070A152121150A0D
:100C8000071B0721D368013BD3605DF8044B704715
:100C9000937A03F003030029E6D043F00403E3E76B
:100CA000D3685DF8044B023BD3607047D3685DF8AE
:100CB000044B0233D3607047D3685DF8044B0133B3
:100CC000D3607047A08D0220214B10B4D3F8BC2014
:100CD0001368506819780478507A137A044201EA4C
:100CE00003011BD0937A03F0030309B143F004031B
:100CF00043F008039910013B91720D2B0BD8DFE8EC
:100D000003F021071B070A152121150A071B0721DC
:100D1000D368013BD3605DF8044B7047937A03F0CE
:100D200003030029E6D043F00403E3E7D3685DF84A
:100D3000044B023BD3607047D3685DF8044B023329
:100D4000D3607047D3685DF8044B0133D3607047BC
:100D5000A08D0220214B10B4D3F8C0201368506836
:100D600019780478507A137A044201EA03011BD0FF
:100D7000937A03F0030309B143F0040343F008033B
:100D80009910013B91720D2B0BD8DFE803F021077E
:100D90001B070A152121150A071B0721D368013BF0
:100DA000D3605DF8044B7047937A03F00303002986
:100DB000E6D043F00403E3E7D3685DF8044B023B5D
:100DC000D3607047D3685DF8044B0233D36070473B
:100DD000D3685DF8044B0133D3607047A08D0220C7
:100DE000214B10B4D3F8C4201368506819780478E4
:100DF000507A137A044201EA03011BD0937A03F07C
:100E0000030309B143F0040343F008039910013BC5
:100E100091720D2B0BD8DFE803F021071B070A1591
:100E20002121150A071B0721D368013BD3605DF818
:100E3000044B7047937A03F003030029E6D043F094
:100E40000403E3E7D3685DF8044B023BD3607047CB
:100E5000D3685DF8044B0233D3607047D3685DF804
:100E6000044B0133D3607047A08D0220214B10B496
:100E7000D3F8C8201368506819780478507A137A28
:100E8000044201EA03011BD0937A03F0030309B182
:100E900043F0040343F008039910013B91720D2BBA
:100EA0000BD8DFE803F021071B070A152121150ADB
:100EB000071B0721D368013BD3605DF8044B7047E3
:100EC000937A03F003030029E6D043F00403E3E739
:100ED000D3685DF8044B023BD3607047D3685DF87C
:100EE000044B0233D3607047D3685DF8044B013381
:100EF000D3607047A08D0220214B10B4D3F8CC20D2
:100F00001368506819780478507A137A044201EA19
:100F100003011BD0937A03F0030309B143F00403E8
:100F200043F008039910013B91720D2B0BD8DFE8B9
:100F300003F021071B070A152121150A071B0721AA
:100F4000D368013BD3605DF8044B7047937A03F09C
:100F500003030029E6D043F00403E3E7D3685DF818
:100F6000044B023BD3607047D3685DF8044B0233F7
:100F7000D3607047D3685DF8044B0133D36070478A
:100F8000A08D0220214B10B4D3F8D02013685068F4
:100F900019780478507A137A044201EA03011BD0CD
:100FA000937A03F0030309B143F0040343F0080309
:100FB0009910013B91720D2B0BD8DFE803F021074C
:100FC0001B070A152121150A071B0721D368013BBE
:100FD000D3605DF8044B7047937A03F00303002954
:100FE000E6D043F00403E3E7D3685DF8044B023B2B
:100FF000D3607047D3685DF8044B0233D360704709
:10100000D3685DF8044B0133D3607047A08D022094
:10101000214B10B4D3F8D4201368506819780478A1
:10102000507A137A044201EA03011BD0937A03F049
:10103000030309B143F0040343F008039910013B93
:1010400091720D2B0BD8DFE803F021071B070A155F
:101050002121150A071B0721D368013BD3605DF8E6
:10106000044B7047937A03F003030029E6D043F062
:101070000403E3E7D3685DF8044B023BD360704799
:10108000D3685DF8044B0233D3607047D3685DF8D2
:10109000044B0133D3607047A08D0220214B10B464
:1010A000D3F8D8201368506819780478507A137AE6
:1010B000044201EA03011BD0937A03F0030309B150
:1010C00043F0040343F008039910013B91720D2B88
:1010D0000BD8DFE803F021071B070A152121150AA9
:1010E000071B0721D368013BD3605DF8044B7047B1
:1010F000937A03F003030029E6D043F00403E3E707
:10110000D3685DF8044B023BD3607047D3685DF849
:10111000044B0233D3607047D3685DF8044B01334E
:10112000D3607047A08D0220214B10B4D3F8DC208F
:101130001368506819780478507A137A044201EAE7
:1011400003011BD0937A03F0030309B143F00403B6
:1011500043F008039910013B91720D2B0BD8DFE887
:1011600003F021071B070A152121150A071B072178
:10117000D368013BD3605DF8044B7047937A03F06A
:1011800003030029E6D043F00403E3E7D3685DF8E6
:10119000044B023BD3607047D3685DF8044B0233C5
:1011A000D3607047D3685DF8044B0133D360704758
:1011B000A08D0220214B10B4D3F8E02013685068B2
:1011C00019780478507A137A044201EA03011BD09B
:1011D000937A03F0030309B143F0040343F00803D7
:1011E0009910013B91720D2B0BD8DFE803F021071A
:1011F0001B070A152121150A071B0721D368013B8C
:10120000D3605DF8044B7047937A03F00303002921
:10121000E6D043F00403E3E7D3685DF8044B023BF8
:10122000D3607047D3685DF8044B0233D3607047D6
:10123000D3685DF8044B0133D3607047A08D022062
:10124000214B10B4D3F8E42013685068197804785F
:10125000507A137A044201EA03011BD0937A03F017
:10126000030309B143F0040343F008039910013B61
:1012700091720D2B0BD8DFE803F021071B070A152D
:101280002121150A071B0721D368013BD3605DF8B4
:10129000044B7047937A03F003030029E6D043F030
:1012A0000403E3E7D3685DF8044B023BD360704767
:1012B000D3685DF8044B0233D3607047D3685DF8A0
:1012C000044B0133D3607047A08D0220214B10B432
:1012D000D3F8E8201368506819780478507A137AA4
:1012E000044201EA03011BD0937A03F0030309B11E
:1012F00043F0040343F008039910013B91720D2B56
:101300000BD8DFE803F021071B070A152121150A76
:10131000071B0721D368013BD3605DF8044B70477E
:10132000937A03F003030029E6D043F00403E3E7D4
:10133000D3685DF8044B023BD3607047D3685DF817
:10134000044B0233D3607047D3685DF8044B01331C
:10135000D3607047A08D0220214B10B4D3F8EC204D
:101360001368506819780478507A137A044201EAB5
:1013700003011BD0937A03F0030309B143F0040384
:1013800043F008039910013B91720D2B0BD8DFE855
:1013900003F021071B070A152121150A071B072146
:1013A000D368013BD3605DF8044B7047937A03F038
:1013B00003030029E6D043F00403E3E7D3685DF8B4
:1013C000044B023BD3607047D3685DF8044B023393
:1013D000D3607047D3685DF8044B0133D360704726
:1013E000A08D0220214B10B41A6B13685068197835
:1013F0000478507A137A044201EA03011BD0937AED
:1014000003F0030309B143F0040343F00803991008
:10141000013B91720D2B0BD8DFE803F021071B076E
:101420000A152121150A071B0721D368013BD36048
:101430005DF8044B7047937A03F003030029E6D06C
:1014400043F00403E3E7D3685DF8044B023BD36049
:101450007047D3685DF8044B0233D3607047D3689C
:101460005DF8044B0133D360704700BFA08D0220AC
:10147000214B10B45A6B1368506819780478507A6D
:10148000137A044201EA03011BD0937A03F00303A9
:1014900009B143F0040343F008039910013B917232
:1014A0000D2B0BD8DFE803F021071B070A152121BC
:1014B000150A071B0721D368013BD3605DF8044B75
:1014C0007047937A03F003030029E6D043F0040346
:1014D000E3E7D3685DF8044B023BD3607047D36801
:1014E0005DF8044B0233D3607047D3685DF8044B5A
:1014F0000133D360704700BFA08D0220214B10B490
:101500009A6B1368506819780478507A137A0442F9
:1015100001EA03011BD0937A03F0030309B143F0FE
:10152000040343F008039910013B91720D2B0BD873
:10153000DFE803F021071B070A152121150A071B05
:101540000721D368013BD3605DF8044B7047937A61
:1015500003F003030029E6D043F00403E3E7D36874
:101560005DF8044B023BD3607047D3685DF8044BD1
:101570000233D3607047D3685DF8044B0133D36006
:10158000704700BFA08D0220214B10B4DA6B1368A6
:10159000506819780478507A137A044201EA0301FA
:1015A0001BD0937A03F0030309B143F0040343F023
:1015B00008039910013B91720D2B0BD8DFE803F063
:1015C00021071B070A152121150A071B0721D368CC
:1015D000013BD3605DF8044B7047937A03F003033B
:1015E0000029E6D043F00403E3E7D3685DF8044B39
:1015F000023BD3607047D3685DF8044B0233D3607D
:101600007047D3685DF8044B0133D360704700BF67
:10161000A08D0220214B10B41A6C13685068197801
:101620000478507A137A044201EA03011BD0937ABA
:1016300003F0030309B143F0040343F008039910D6
:10164000013B91720D2B0BD8DFE803F021071B073C
:101650000A152121150A071B0721D368013BD36016
:101660005DF8044B7047937A03F003030029E6D03A
:1016700043F00403E3E7D3685DF8044B023BD36017
:101680007047D3685DF8044B0233D3607047D3686A
:101690005DF8044B0133D360704700BFA08D02207A
:1016A000214B10B45A6C1368506819780478507A3A
:1016B000137A044201EA03011BD0937A03F0030377
:1016C00009B143F0040343F008039910013B917200
:1016D0000D2B0BD8DFE803F021071B070A1521218A
:1016E000150A071B0721D368013BD3605DF8044B43
:1016F0007047937A03F003030029E6D043F0040314
:10170000E3E7D3685DF8044B023BD3607047D368CE
:101710005DF8044B0233D3607047D3685DF8044B27
:101720000133D360704700BFA08D0220214B10B45D
:101730009A6C1368506819780478507A137A0442C6
:1017400001EA03011BD0937A03F0030309B143F0CC
:10175000040343F008039910013B91720D2B0BD841
:10176000DFE803F021071B070A152121150A071BD3
:101770000721D368013BD3605DF8044B7047937A2F
:1017800003F003030029E6D043F00403E3E7D36842
:101790005DF8044B023BD3607047D3685DF8044B9F
:1017A0000233D3607047D3685DF8044B0133D360D4
:1017B000704700BFA08D0220214B10B4DA6C136873
:1017C000506819780478507A137A044201EA0301C8
:1017D0001BD0937A03F0030309B143F0040343F0F1
:1017E00008039910013B91720D2B0BD8DFE803F031
:1017F00021071B070A152121150A071B0721D3689A
:10180000013BD3605DF8044B7047937A03F0030308
:101810000029E6D043F00403E3E7D3685DF8044B06
:10182000023BD3607047D3685DF8044B0233D3604A
:101830007047D3685DF8044B0133D360704700BF35
:10184000A08D0220214B10B41A6D136850681978CE
:101850000478507A137A044201EA03011BD0937A88
:1018600003F0030309B143F0040343F008039910A4
:10187000013B91720D2B0BD8DFE803F021071B070A
:101880000A152121150A071B0721D368013BD360E4
:101890005DF8044B7047937A03F003030029E6D008
:1018A00043F00403E3E7D3685DF8044B023BD360E5
:1018B0007047D3685DF8044B0233D3607047D36838
:1018C0005DF8044B0133D360704700BFA08D022048
:1018D000214B10B45A6D1368506819780478507A07
:1018E000137A044201EA03011BD0937A03F0030345
:1018F00009B143F0040343F008039910013B9172CE
:101900000D2B0BD8DFE803F021071B070A15212157
:10191000150A071B0721D368013BD3605DF8044B10
:101920007047937A03F003030029E6D043F00403E1
:10193000E3E7D3685DF8044B023BD3607047D3689C
:101940005DF8044B0233D3607047D3685DF8044BF5
:101950000133D360704700BFA08D0220214B10B42B
:101960009A6D1368506819780478507A137A044293
:1019700001EA03011BD0937A03F0030309B143F09A
:10198000040343F008039910013B91720D2B0BD80F
:10199000DFE803F021071B070A152121150A071BA1
:1019A0000721D368013BD3605DF8044B7047937AFD
:1019B00003F003030029E6D043F00403E3E7D36810
:1019C0005DF8044B023BD3607047D3685DF8044B6D
:1019D0000233D3607047D3685DF8044B0133D360A2
:1019E000704700BFA08D0220214B10B4DA6D136840
:1019F000506819780478507A137A044201EA030196
:101A00001BD0937A03F0030309B143F0040343F0BE
:101A100008039910013B91720D2B0BD8DFE803F0FE
:101A200021071B070A152121150A071B0721D36867
:101A3000013BD3605DF8044B7047937A03F00303D6
:101A40000029E6D043F00403E3E7D3685DF8044BD4
:101A5000023BD3607047D3685DF8044B0233D36018
:101A60007047D3685DF8044B0133D360704700BF03
:101A7000A08D0220214B10B41A6E1368506819789B
:101A80000478507A137A044201EA03011BD0937A56
:101A900003F0030309B143F0040343F00803991072
:101AA000013B91720D2B0BD8DFE803F021071B07D8
:101AB0000A152121150A071B0721D368013BD360B2
:101AC0005DF8044B7047937A03F003030029E6D0D6
:101AD00043F00403E3E7D3685DF8044B023BD360B3
:101AE0007047D3685DF8044B0233D3607047D36806
:101AF0005DF8044B0133D360704700BFA08D022016
:101B0000214B10B45A6E1368506819780478507AD3
:101B1000137A044201EA03011BD0937A03F0030312
:101B200009B143F0040343F008039910013B91729B
:101B30000D2B0BD8DFE803F021071B070A15212125
:101B4000150A071B0721D368013BD3605DF8044BDE
:101B50007047937A03F003030029E6D043F00403AF
:101B6000E3E7D3685DF8044B023BD3607047D3686A
:101B70005DF8044B0233D3607047D3685DF8044BC3
:101B80000133D360704700BFA08D0220214B10B4F9
:101B90009A6E1368506819780478507A137A044260
:101BA00001EA03011BD0937A03F0030309B143F068
:101BB000040343F008039910013B91720D2B0BD8DD
:101BC000DFE803F021071B070A152121150A071B6F
:101BD0000721D368013BD3605DF8044B7047937ACB
:101BE00003F003030029E6D043F00403E3E7D368DE
:101BF0005DF8044B023BD3607047D3685DF8044B3B
:101C00000233D3607047D3685DF8044B0133D3606F
:101C1000704700BFA08D0220214B10B4DA6E13680C
:101C2000506819780478507A137A044201EA030163
:101C30001BD0937A03F0030309B143F0040343F08C
:101C400008039910013B91720D2B0BD8DFE803F0CC
:101C500021071B070A152121150A071B0721D36835
:101C6000013BD3605DF8044B7047937A03F00303A4
:101C70000029E6D043F00403E3E7D3685DF8044BA2
:101C8000023BD3607047D3685DF8044B0233D360E6
:101C90007047D3685DF8044B0133D360704700BFD1
:101CA000A08D0220214B10B41A6F13685068197868
:101CB0000478507A137A044201EA03011BD0937A24
:101CC00003F0030309B143F0040343F00803991040
:101CD000013B91720D2B0BD8DFE803F021071B07A6
:101CE0000A152121150A071B0721D368013BD36080
:101CF0005DF8044B7047937A03F003030029E6D0A4
:101D000043F00403E3E7D3685DF8044B023BD36080
:101D10007047D3685DF8044B0233D3607047D368D3
:101D20005DF8044B0133D360704700BFA08D0220E3
:101D3000214B10B45A6F1368506819780478507AA0
:101D4000137A044201EA03011BD0937A03F00303E0
:101D500009B143F0040343F008039910013B917269
:101D60000D2B0BD8DFE803F021071B070A152121F3
:101D7000150A071B0721D368013BD3605DF8044BAC
:101D80007047937A03F003030029E6D043F004037D
:101D9000E3E7D3685DF8044B023BD3607047D36838
:101DA0005DF8044B0233D3607047D3685DF8044B91
:101DB0000133D360704700BFA08D0220214B10B4C7
:101DC0009A6F1368506819780478507A137A04422D
:101DD00001EA03011BD0937A03F0030309B143F036
:101DE000040343F008039910013B91720D2B0BD8AB
:101DF000DFE803F021071B070A152121150A071B3D
:101E00000721D368013BD3605DF8044B7047937A98
:101E100003F003030029E6D043F00403E3E7D368AB
:101E20005DF8044B023BD3607047D3685DF8044B08
:101E30000233D3607047D3685DF8044B0133D3603D
:101E4000704700BFA08D0220214B10B4DA6F1368D9
:101E5000506819780478507A137A044201EA030131
:101E60001BD0937A03F0030309B143F0040343F05A
:101E700008039910013B91720D2B0BD8DFE803F09A
:101E800021071B070A152121150A071B0721D36803
:101E9000013BD3605DF8044B7047937A03F0030372
:101EA0000029E6D043F00403E3E7D3685DF8044B70
:101EB000023BD3607047D3685DF8044B0233D360B4
:101EC0007047D3685DF8044B0133D360704700BF9F
:101ED000A08D0220214B10B4D3F8802013685068E5
:101EE00019780478507A137A044201EA03011BD06E
:101EF000937A03F0030309B143F0040343F00803AA
:101F00009910013B91720D2B0BD8DFE803F02107EC
:101F10001B070A152121150A071B0721D368013B5E
:101F2000D3605DF8044B7047937A03F003030029F4
:101F3000E6D043F00403E3E7D3685DF8044B023BCB
:101F4000D3607047D3685DF8044B0233D3607047A9
:101F5000D3685DF8044B0133D3607047A08D022035
:101F6000214B10B4D3F88420136850681978047892
:101F7000507A137A044201EA03011BD0937A03F0EA
:101F8000030309B143F0040343F008039910013B34
:101F900091720D2B0BD8DFE803F021071B070A1500
:101FA0002121150A071B0721D368013BD3605DF887
:101FB000044B7047937A03F003030029E6D043F003
:101FC0000403E3E7D3685DF8044B023BD36070473A
:101FD000D3685DF8044B0233D3607047D3685DF873
:101FE000044B0133D3607047A08D0220214B10B405
:101FF000D3F888201368506819780478507A137AD7
:10200000044201EA03011BD0937A03F0030309B1F0
:1020100043F0040343F008039910013B91720D2B28
:102020000BD8DFE803F021071B070A152121150A49
:10203000071B0721D368013BD3605DF8044B704751
:10204000937A03F003030029E6D043F00403E3E7A7
:10205000D3685DF8044B023BD3607047D3685DF8EA
:10206000044B0233D3607047D3685DF8044B0133EF
:10207000D3607047A08D0220214B10B4D3F88C2080
:102080001368506819780478507A137A044201EA88
:1020900003011BD0937A03F0030309B143F0040357
:1020A00043F008039910013B91720D2B0BD8DFE828
:1020B00003F021071B070A152121150A071B072119
:1020C000D368013BD3605DF8044B7047937A03F00B
:1020D00003030029E6D043F00403E3E7D3685DF887
:1020E000044B023BD3607047D3685DF8044B023366
:1020F000D3607047D3685DF8044B0133D3607047F9
:10210000A08D0220214B10B4D3F8902013685068A2
:1021100019780478507A137A044201EA03011BD03B
:10212000937A03F0030309B143F0040343F0080377
:102130009910013B91720D2B0BD8DFE803F02107BA
:102140001B070A152121150A071B0721D368013B2C
:10215000D3605DF8044B7047937A03F003030029C2
:10216000E6D043F00403E3E7D3685DF8044B023B99
:10217000D3607047D3685DF8044B0233D360704777
:10218000D3685DF8044B0133D3607047A08D022003
:10219000214B10B4D3F89420136850681978047850
:1021A000507A137A044201EA03011BD0937A03F0B8
:1021B000030309B143F0040343F008039910013B02
:1021C00091720D2B0BD8DFE803F021071B070A15CE
:1021D0002121150A071B0721D368013BD3605DF855
:1021E000044B7047937A03F003030029E6D043F0D1
:1021F0000403E3E7D3685DF8044B023BD360704708
:10220000D3685DF8044B0233D3607047D3685DF840
:10221000044B0133D3607047A08D0220214B10B4D2
:10222000D3F898201368506819780478507A137A94
:10223000044201EA03011BD0937A03F0030309B1BE
:1022400043F0040343F008039910013B91720D2BF6
:102250000BD8DFE803F021071B070A152121150A17
:10226000071B0721D368013BD3605DF8044B70471F
:10227000937A03F003030029E6D043F00403E3E775
:10228000D3685DF8044B023BD3607047D3685DF8B8
:10229000044B0233D3607047D3685DF8044B0133BD
:1022A000D3607047A08D0220214B10B4D3F89C203E
:1022B0001368506819780478507A137A044201EA56
:1022C00003011BD0937A03F0030309B143F0040325
:1022D00043F008039910013B91720D2B0BD8DFE8F6
:1022E00003F021071B070A152121150A071B0721E7
:1022F000D368013BD3605DF8044B7047937A03F0D9
:1023000003030029E6D043F00403E3E7D3685DF854
:10231000044B023BD3607047D3685DF8044B023333
:10232000D3607047D3685DF8044B0133D3607047C6
:10233000A08D0220214B10B4D3F8A0201368506860
:1023400019780478507A137A044201EA03011BD009
:10235000937A03F0030309B143F0040343F0080345
:102360009910013B91720D2B0BD8DFE803F0210788
:102370001B070A152121150A071B0721D368013BFA
:10238000D3605DF8044B7047937A03F00303002990
:10239000E6D043F00403E3E7D3685DF8044B023B67
:1023A000D3607047D3685DF8044B0233D360704745
:1023B000D3685DF8044B0133D3607047A08D0220D1
:1023C000214B10B4D3F8A42013685068197804780E
:1023D000507A137A044201EA03011BD0937A03F086
:1023E000030309B143F0040343F008039910013BD0
:1023F00091720D2B0BD8DFE803F021071B070A159C
:102400002121150A071B0721D368013BD3605DF822
:10241000044B7047937A03F003030029E6D043F09E
:102420000403E3E7D3685DF8044B023BD3607047D5
:10243000D3685DF8044B0233D3607047D3685DF80E
:10244000044B0133D3607047A08D0220214B10B4A0
:10245000D3F8A8201368506819780478507A137A52
:10246000044201EA03011BD0937A03F0030309B18C
:1024700043F0040343F008039910013B91720D2BC4
:102480000BD8DFE803F021071B070A152121150AE5
:10249000071B0721D368013BD3605DF8044B7047ED
:1024A000937A03F003030029E6D043F00403E3E743
:1024B000D3685DF8044B023BD3607047D3685DF886
:1024C000044B0233D3607047D3685DF8044B01338B
:1024D000D3607047A08D0220214B10B4D3F8AC20FC
:1024E0001368506819780478507A137A044201EA24
:1024F00003011BD0937A03F0030309B143F00403F3
:1025000043F008039910013B91720D2B0BD8DFE8C3
:1025100003F021071B070A152121150A071B0721B4
:10252000D368013BD3605DF8044B7047937A03F0A6
:1025300003030029E6D043F00403E3E7D3685DF822
:10254000044B023BD3607047D3685DF8044B023301
:10255000D3607047D3685DF8044B0133D360704794
:10256000A08D022038B5044608460D4618F0A8F89C
:102570002368024629465B68204698470546204660
:1025800012F084F8284438BD002310B4114C417275
:10259000026104600372C36041B1194600E0026940
:1025A00042F82310427A01339A42F8DC0A4B1A6847
:1025B0000AB90CE01A465369002BFBD15061002385
:1025C00043618380C38083725DF8044B7047186059
:1025D000F5E700BF7CE0010064930220344B9FEDDF
:1025E000356A93ED007ADFED346AB8EEC77A07EE0C
:1025F000900AC6EE075AF8EEE77A67EEA57AF4EE8F
:10260000E67AF1EE10FA2ADC2C4A2D4BC2ED007A64
:10261000F5EEC07A0122F1EE10FA1A603CD49FED7B
:10262000297AF4EEC77AF1EE10FA2CDD264B274911
:10263000274AD1ED007AD361F5EEC07AF1EE10FAB7
:102640002CD4B7EE007AF4EEC77AF1EE10FA27DD5B
:102650004FF480331F49136201230B607047C7EEAC
:10266000065A164B1C48164A0121F2EE027AE5EE94
:10267000A67AC3ED006AFDEEE77A17EE903AF0EE27
:10268000667A036011609FED157A67EE877AFCEE3B
:10269000E77A17EE903ACAE70023C8E70023D9E7A4
:1026A000B0EE677ABEEEC87A17EE103AD2E700BFF6
:1026B0000CE00120A6552C4700E0AB46303E002040
:1026C00088E100E0A655AC4680FFFF7F883E0020F1
:1026D0002CDB012008E100E0243E00204B24BE4713
:1026E000284ADFED296AD2ED007A38B5274B284C0D
:1026F00093ED007A2268F8EE677A4FF4FA7167EE8C
:10270000877A40F6B83087EEA67AFDEEC77A17EEE4
:10271000903A01FB03F303F57A73D21A002AB8BF8B
:10272000524282420EDD1B4A41F657318B421268FB
:1027300009DC41F658300346174D2B60FFF74EFF7A
:102740002B68236038BD1549DFED156A81FB020156
:10275000D243D20FC2EBE1124FF47A7101FB02F2C5
:102760009342A8BF1346642202FB03F207EE902AAD
:10277000B8EEE77AC7EE267AFDEEE77A17EE900A12
:10278000DAE700BF34E701200000FA43D03E002022
:10279000F4DF01200CE00120243E0020D34D621024
:1027A0000000C842FFFFFFFF2DE9F04F2DED028B27
:1027B000694B1B780A2B89B03DD8684C684B0022C6
:1027C000D4E9000116F0C0FB16F06EFE0022644B47
:1027D0000390D4E9020116F0B7FB16F065FE002263
:1027E0005F4B0490D4E9040116F0AEFB16F05CFEDA
:1027F00000225B4B0590D4E9060116F0A5FB16F00C
:1028000053FE574B06900022D4E9080116F09CFBBA
:1028100016F04AFE03AA07900021524809F0B2FAC6
:10282000514B00214FF48032D9619A6109B0BDEC5F
:10283000028BBDE8F08F4D4A9FED4D6AD2ED007AD4
:10284000DFED4C6AF8EEE77A4FF47A7286EE277A7B
:1028500002FB03F307EE903AF8EEE77A67EE277A89
:1028600067EEA67A17EE900A16F01AFB41EC100BF1
:1028700041EC180B14F0DCFF35A3D3E9002351EC35
:10288000100B16F08BFCB0EE480AF0EE680ACDE9AA
:10289000000114F06DFFDDE900010022364B5BEC16
:1028A00010AB16F09FF902460B4600202C4916F09B
:1028B00075FC002204460D462F4B5046594616F033
:1028C00091F900222D4B8046894616F03DFB2246A9
:1028D0002B4616F039FB16F0E7FD224606462B463E
:1028E000404609F10041039616F02EFB16F0DCFD80
:1028F000002204904FF0404350465946059616F08A
:1029000023FB22462B4616F01FFB16F0CDFDDDE91A
:10291000002306901849002016F062F92B46224643
:1029200016F012FB16F0C0FD03AA079000210D4817
:1029300009F028FA0C4B00214FF480329961DA61DA
:1029400009B0BDEC028BBDE8F08F00BFAFF3008093
:10295000000000606666F63F553E0020903E002075
:102960000000D04138DF0120E0CC01200CE0012044
:10297000A6552C47465615390000F03F0000E03FB1
:1029800070B53849384C394A24789FED396A394E48
:1029900000010B1807EE904A9B681360002BB4BF30
:1029A00003F2FF121A46521207EE102AF8EEE77AE7
:1029B000B8EEC77A67EE867A2F4C86ED007AC7EEBE
:1029C000876A25782D4CFDEEE67A17EE902A227064
:1029D00075B12B4A127807EE902AF8EEE77A67EE87
:1029E000867AC7EE876AFDEEE67A17EE902A2270A5
:1029F00003EBD3735B1007EE903AF8EEE77A0B180F
:102A0000C7EE876A1F4E5B681F4D204C3360204A1B
:102A10000123FDEEE66AC5ED006A23601368002B12
:102A2000FCDB08441B498289C389013A1203013B3C
:102A300002F47F22C3F30B0313430B60C82012F090
:102A400017FC154B1868FFF7C9FD1449144A0123F8
:102A50000B60142082F8203B12F00AFCBDE87040A5
:102A6000FFF7A2BEA8E90100763E00200CE001209D
:102A700000007A44D03E002080E20120E4EF0120F3
:102A80008D3E002078EB0120F0DF012088E100E09E
:102A900000F1024004F10240243E002008E100E081
:102AA0001CCD012007EE900A9FED0C6ADFED0C6A49
:102AB0000C4B0D48B8EEE77ADFED0C7A27EE067A7C
:102AC00010B5E7EE267A01241C60FCEEE77A17EEDB
:102AD000901A08F057FE064B1C6010BD0AD7233C25
:102AE0000000014388E100E07C890220EE7CFF3E8B
:102AF00008E100E070B5144E3468012C054614D08E
:102B000094B9124B124801221A60214608F0CAFDFE
:102B1000002DB8BF0335C5F3870211460C4808F0F5
:102B2000F7FD0C4B01221A6070BD084B08481C6071
:102B30000022114608F0ECFD2946054808F0B2FDD8
:102B4000044B1C603468DBE7503E002088E100E065
:102B50007C89022008E100E0F8B5044615460E46DF
:102B60000846022112F07EFB2846022112F07AFB71
:102B7000984A994B52F83610012001F500772760EA
:102B8000207252F83520607202F5007700206760ED
:102B9000E060013BFDD191F8003292F8002203F091
:102BA0000103D20744BF43F00203DBB2A3723B2E02
:102BB00000F20386DFE816F0F405EA05E005D60525
:102BC000CC05C205B805AE05A4059A059005860595
:102BD0007C05720568055E0554054A054005360505
:102BE0002C05220518050E050405FA04F004E60478
:102BF000DC04D204C804BE04B304A8049D049204F7
:102C000087047C0428041E0414040A040004F60348
:102C1000EC03E203D803CE03C403BA03B003A60354
:102C20009C03920388037E0374036A0360033C00E1
:102C30006A4B6B49C3F8EC4004223B2012F06AFA5D
:102C4000012323743B2D00F2B585DFE815F00B035B
:102C50000103F702ED02E302D902CF02C502BB0273
:102C6000B102A7029D02930289027F02310227026C
:102C70001D0213020902FF01F501EB01E101D70179
:102C8000CD01C301B901AF01A5019B0191018601ED
:102C90007B01700165015A014F01440139012E0188
:102CA000230118010D010201F700EC00E100B8005A
:102CB000AD00A20097008C00810076006B006000E0
:102CC00055004A003C00454B4549C3F8EC400422FE
:102CD0003B2012F01FFA237C012213442374204668
:102CE000F8BD3E4B3F49C3F8E84004223A2012F0B9
:102CF00011FA237C0122F0E7384B3B49C3F8E4404A
:102D00000422392012F006FA237C0122E5E7334B36
:102D10003649C3F8E0400422382012F0FBF9237C46
:102D20000122DAE72D4B3249C3F8DC400422372078
:102D300012F0F0F9237C0122CFE7284B2D49C3F88C
:102D4000D8400422362012F0E5F9237C0122C4E7A2
:102D5000224B2949C3F8D4400422352012F0DAF975
:102D6000237C0122B9E71D4B2449C3F8D04004223B
:102D7000342012F0CFF9237C0122AEE7174B204913
:102D8000C3F8CC400422332012F0C4F9237C012282
:102D9000A3E7124B1B49C3F8C8400422322012F0AB
:102DA000B9F9237C012298E70C4B1749C3F8C440BA
:102DB0000422312012F0AEF9237C01228DE7074B6B
:102DC0001249C3F8C0400422302012F0A3F9237C3A
:102DD000012282E750400300C0D40100A08D0220F0
:102DE00059130000CD12000041120000B51100007F
:102DF000291100009D10000011100000850F000037
:102E0000F90E00006D0E0000E10D0000550D0000F0
:102E1000AC4BAD49C3F8BC4004222F2012F07AF924
:102E2000237C012259E7A74BA849C3F8B8400422E4
:102E30002E2012F06FF9237C01224EE7A14BA4490A
:102E4000C3F8B44004222D2012F064F9237C01223F
:102E500043E79C4B9F49C3F8B04004222C2012F05A
:102E600059F9237C012238E7964B9B49C3F8AC40C3
:102E700004222B2012F04EF9237C01222DE7914BE6
:102E80009649C3F8A84004222A2012F043F9237C73
:102E9000012222E78B4B9249C3F8A4400422292047
:102EA00012F038F9237C012217E7864B8D49C3F8CD
:102EB000A0400422282012F02DF9237C01220CE7E7
:102EC000804B8949C3F89C400422272012F022F944
:102ED000237C012201E77B4B8449C3F898400422FC
:102EE000262012F017F9237C0122F6E6754B804963
:102EF000C3F894400422252012F00CF9237C01220F
:102F0000EBE6704B7B49C3F890400422242012F07A
:102F100001F9237C0122E0E66A4B7749C3F88C4033
:102F20000422232012F0F6F8237C0122D5E6654B1B
:102F30007249C3F888400422222012F0EBF8237C67
:102F40000122CAE65F4B6E49C3F884400422212067
:102F500012F0E0F8237C0122BFE65A4B6949C3F81E
:102F600080400422202012F0D5F8237C0122B4E610
:102F7000544B6549DC6704221F2012F0CBF8237CF8
:102F80000122AAE64F4B61499C6704221E2012F0E1
:102F9000C1F8237C0122A0E64A4B5D495C6704220C
:102FA0001D2012F0B7F8237C012296E6454B5949C3
:102FB0001C6704221C2012F0ADF8237C01228CE651
:102FC000404B5549DC6604221B2012F0A3F8237CF9
:102FD000012282E63B4B51499C6604221A2012F0E2
:102FE00099F8237C012278E6364B4D495C66042231
:102FF000192012F08FF8237C01226EE6314B4949EB
:103000001C660422182012F085F8237C012264E655
:103010002C4B4549DC650422172012F07BF8237CF9
:1030200001225AE6274B41499C650422162012F0E2
:1030300071F8237C012250E6224B3D495C65042255
:10304000152012F067F8237C012246E61D4B394912
:103050001C650422142012F05DF8237C01223CE65A
:10306000184B3549DC640422132012F053F8237CFA
:10307000012232E6134B31499C640422122012F0E3
:1030800049F8237C012228E60E4B2D495C6404227A
:10309000112012F03FF8237C01221EE6094B29493A
:1030A0001C640422102012F035F8237C012214E65F
:1030B000044B2549DC6304220F2012F02BF8237CFB
:1030C00001220AE6A08D0220C90C00003D0C000080
:1030D000B10B0000250B0000D92400004D24000096
:1030E000C123000035230000A92200001D2200009A
:1030F000912100000521000079200000ED1F000053
:10310000611F0000D51E0000491E0000BD1D00000B
:10311000311D0000A51C0000191C00008D1B0000C3
:10312000011B0000751A0000E91900005D1900007C
:10313000D118000045180000B91700002D17000035
:10314000A11600001516000089150000B34BB44904
:103150009C6304220E2011F0DDFF237C0122BCE5DC
:10316000AE4BB0495C6304220D2011F0D3FF237CE9
:103170000122B2E5A94BAC491C6304220C2011F0DA
:10318000C9FF237C0122A8E5A44BA849DC620422E4
:103190000B2011F0BFFF237C01229EE59F4BA44929
:1031A0009C6204220A2011F0B5FF237C012294E5E1
:1031B0009A4BA0495C620422092011F0ABFF237CEA
:1031C00001228AE5954B9C491C620422082011F0DB
:1031D000A1FF237C012280E5904B9849DC61042209
:1031E000072011F097FF237C012276E58B4B944951
:1031F0009C610422062011F08DFF237C01226CE5E6
:10320000864B90495C610422052011F083FF237CEA
:10321000012262E5814B8C491C610422104611F0A9
:1032200079FF237C012258E57C4B8849DC6004222D
:10323000032011F06FFF237C01224EE5774B844978
:103240009C600422022011F065FF237C012244E5EA
:10325000724B80495C600422012011F05BFF237CEB
:1032600001223AE56D4B7C491C600422002011F0DC
:1032700051FF237C012230E5684B7849C3F8E840D0
:1032800004223A2011F046FF0123DAE4634B74492B
:10329000C3F8E4400422392011F03CFF0123D0E4BC
:1032A0005E4B7049C3F8E0400422382011F032FF31
:1032B0000123C6E4594B6C49C3F8DC400422372093
:1032C00011F028FF0123BCE4544B6849C3F8D840EF
:1032D0000422362011F01EFF0123B2E44F4B644953
:1032E000C3F8D4400422352011F014FF0123A8E4D0
:1032F0004A4B6049C3F8D0400422342011F00AFF41
:1033000001239EE4454B5C49C3F8CC4004223320A2
:1033100011F000FF012394E4404B5849C3F8C84022
:103320000422322011F0F6FE01238AE43B4B54497B
:10333000C3F8C4400422312011F0ECFE012380E4E4
:10334000364B5049C3F8C0400422302011F0E2FE51
:10335000012376E4314B4C49C3F8BC4004222F20B2
:1033600011F0D8FE01236CE42C4B4849C3F8B84057
:1033700004222E2011F0CEFE012362E4274B4449A3
:10338000C3F8B44004222D2011F0C4FE012358E4F8
:10339000224B4049C3F8B04004222C2011F0BAFE61
:1033A00001234EE41D4B3C49C3F8AC4004222B20C2
:1033B00011F0B0FE012344E4184B3849C3F8A8408B
:1033C00004222A2011F0A6FE01233AE4134B3449CB
:1033D000C3F8A4400422292011F09CFE012330E40C
:1033E0000E4B3049C3F8A0400422282011F092FE71
:1033F000012326E4094B2C49C3F89C4004222720D2
:1034000011F088FE01231CE4044B2849C3F89840BE
:103410000422262011F07EFE012312E4A08D02205A
:10342000FD14000071140000E5130000690800009D
:10343000DD07000051070000C50600003906000046
:10344000AD0500002105000095040000990A000068
:103450000D0A000081090000F5080000CD120000EF
:1034600041120000B5110000291100009D1000005C
:1034700011100000850F0000F90E00006D0E000015
:10348000E10D0000550D0000C90C00003D0C0000CE
:10349000B10B0000250B0000D92400004D240000D2
:1034A000C123000035230000A92200001D220000D6
:1034B000C34BC449C3F894400422252011F02AFECE
:1034C0000123FFF7BEBBBE4BBF49C3F890400422A7
:1034D000242011F01FFE0123FFF7B3BBB84BBB49FB
:1034E000C3F88C400422232011F014FE0123FFF7BF
:1034F000A8BBB34BB649C3F888400422222011F080
:1035000009FE0123FFF79DBBAD4BB249C3F88440D0
:103510000422212011F0FEFD0123FFF792BBA84BEE
:10352000AD49C3F880400422202011F0F3FD0123AF
:10353000FFF787BBA24BA949DC6704221F2011F0CB
:10354000E9FD0123FFF77DBB9D4BA5499C67042244
:103550001E2011F0DFFD0123FFF773BB984BA1493B
:103560005C6704221D2011F0D5FD0123FFF769BB24
:10357000934B9D491C6704221C2011F0CBFD0123B5
:10358000FFF75FBB8E4B9949DC6604221B2011F0CC
:10359000C1FD0123FFF755BB894B95499C66042269
:1035A0001A2011F0B7FD0123FFF74BBB844B914963
:1035B0005C660422192011F0ADFD0123FFF741BB29
:1035C0007F4B8D491C660422182011F0A3FD0123B6
:1035D000FFF737BB7A4B8949DC650422172011F0CD
:1035E00099FD0123FFF72DBB754B85499C6504228E
:1035F000162011F08FFD0123FFF723BB704B81498B
:103600005C650422152011F085FD0123FFF719BB2D
:103610006B4B7D491C650422142011F07BFD0123B6
:10362000FFF70FBB664B7949DC640422132011F0CD
:1036300071FD0123FFF705BB614B75499C640422B2
:10364000122011F067FD0123FFF7FBBA5C4B7149B3
:103650005C640422112011F05DFD0123FFF7F1BA33
:10366000574B6D491C640422102011F053FD0123B7
:10367000FFF7E7BA524B6949DC6304220F2011F0CF
:1036800049FD0123FFF7DDBA4D4B65499C630422D8
:103690000E2011F03FFD0123FFF7D3BA484B6149DB
:1036A0005C6304220D2011F035FD0123FFF7C9BA38
:1036B000434B5D491C6304220C2011F02BFD0123B8
:1036C000FFF7BFBA3E4B5949DC6204220B2011F0D0
:1036D00021FD0123FFF7B5BA394B55499C620422FD
:1036E0000A2011F017FD0123FFF7ABBA344B514903
:1036F0005C620422092011F00DFD0123FFF7A1BA3D
:103700002F4B4D491C620422082011F003FD0123B8
:10371000FFF797BA2A4B4949DC610422072011F0D0
:10372000F9FC0123FFF78DBA254B45499C61042222
:10373000062011F0EFFC0123FFF783BA204B41492B
:103740005C610422052011F0E5FC0123FFF779BA42
:103750001B4B3D491C610422104611F0DBFC012388
:10376000FFF76FBA164B3949DC600422032011F0D1
:10377000D1FC0123FFF765BA114B35499C60042247
:10378000022011F0C7FC0123FFF75BBA0C4B314953
:103790005C600422012011F0BDFC0123FFF751BA47
:1037A000074B2D491C600422002011F0B3FC0123BB
:1037B000FFF747BA0022FFF790BA0023FFF741BA9C
:1037C000A08D022091210000052100007920000039
:1037D000ED1F0000611F0000D51E0000491E000003
:1037E000BD1D0000311D0000A51C0000191C0000BB
:1037F0008D1B0000011B0000751A0000E919000074
:103800005D190000D118000045180000B91700002C
:103810002D170000A11600001516000089150000E4
:10382000FD14000071140000E51300006908000099
:10383000DD07000051070000C50600003906000042
:10384000AD0500002105000095040000990A000064
:103850000D0A000081090000F5080000F0B53448A9
:1038600034490678344CDFF800E1344D344A354FA2
:10387000354B03C920609EE80300A06095E8030073
:10388000E06007CA04F1140503C597E8030025F8B2
:10389000022B120C8BB02A701021F8220A2E93F9F9
:1038A000003060624FF0D40562602161274AA56252
:1038B0004FF02801684608BF002616F0C7FD69468C
:1038C000054604F12C0016F09DFE3346204A2821BF
:1038D000684616F0BBFD2C3506466946601916F0A1
:1038E00091FE1C4B1B783544CBB11B4B1B4A1B78FC
:1038F0002821684616F0AAFD69460646601916F0AA
:1039000081FE174B174A1B782821684616F09EFD4A
:10391000354469460646601916F074FE3544202386
:10392000ADF80030BDF80030034863530BB0F0BD74
:10393000553E0020E0E00100B8890220F0E00100DF
:10394000F8E0010004E10100B08902200CE101006F
:1039500018E1010080E201208D3E002028E10100F5
:10396000B83E002038E10100E8E001003C4B93E85C
:103970000300F0B53B4D3C4E28600FCE8BB06C463B
:103980000FC4D6F800E0C4F800E06E460FCE374F03
:1039900005F108060FC60FCFC6F800E04FF4FC7C17
:1039A0003F68C5F804C06E460FC66946277005F12A
:1039B0001B0016F027FE2E4B2E4A6846282116F0D3
:1039C00045FD6946044605F12B0016F01BFE2A4B07
:1039D0002A4A93F900306846282116F037FD2B3427
:1039E00006466946281916F00DFE254B254A1B7818
:1039F0000A2B08BF00236846282116F027FD34440F
:103A000069460646281916F0FDFD1F4A1F4B11682E
:103A10001F4A03EB011368469B68282116F016FD28
:103A200034440346694628191C4416F0EBFD194B33
:103A3000194A6846282116F009FD694606462819E4
:103A400016F0E0FD154B164A6846282116F0FEFCDC
:103A500030196946284416F0D5FD28460BB0F0BD54
:103A600048E10100E0ED012050E1010064E10100C6
:103A700078E101008CE10100B0890220A4E101009D
:103A8000553E0020B4E10100703E0020A8E901008D
:103A9000C8E1010034DE0120DCE1010058DB012037
:103AA000F8E10100164A1749174BF0B5D2F800E0CB
:103AB000164F174E174C184D024603C9186097E869
:103AC0000300986096E8030004EB0E14D86095E8B4
:103AD0000300A4689C612C3A22F001021025012108
:103AE00002F549776400022658629A625F60DC61E1
:103AF0001E841D615D849982D9821846F0BD00BF85
:103B0000703E00200CE20100F8E6012014E2010002
:103B10001CE20100A8E9010024E2010008B5054902
:103B2000012200200BF056FAFE210348BDE80840B0
:103B300005F09ABC2CE20100CC8A022038B5064D73
:103B40000648074C294601220BF044FA207028460B
:103B50000BF016FE207038BD2CE2010090EB012026
:103B6000D9DB012070B5434C434A444996B0002547
:103B70000EA80123256005F02DFD16AA4048109BD4
:103B800012F8145D9DF83C1083600573017100F11B
:103B90000D031A3012F8011F03F8011B8342384944
:103BA000F8D1159BCB610EA805F032FC354E05E02F
:103BB0000EA805F043FC0EA805F02AFC0EA8012271
:103BC0002F4905F07BFD0EA805F046FC002830D0FB
:103BD0002368B3F5FA7F0EA82BDA05F01DFC002848
:103BE000E6D10EA805F016FC014602A810F0E6FD8D
:103BF000254906A810F0E2FD06A902A810F00CFE67
:103C0000002806A824DB10F099FD236803EB430588
:103C100003EB85030EA8F51805F0FCFB01462846CA
:103C200016F0F0FC23680133236002A810F086FD33
:103C3000BEE70EA805F0ECFB144B1B8833B10093D4
:103C40000EA80023124A1E2116F000FC16B070BD0B
:103C500010490AA810F0B2FD0AA902A810F0DCFD74
:103C600005460AA810F06AFD06A810F067FD002DB1
:103C7000DBDBCAE7ACD9012030E20100CC8A0220AC
:103C800058D901201470022034E20100EADF01203B
:103C900044E201003CE201002DE9F843064608F049
:103CA00033FE01282CDDDFF86490DFF85880002512
:103CB000D8F80000134F05EB4004304608F056FEDC
:103CC00009EB042401464FF48072204611F07AF883
:103CD0000135304608F068FE022DE9D13B6801331A
:103CE000BF2B02D83B60BDE8F8830022064B3A6048
:103CF000064907484FF4C0320BF012FB054B187011
:103D0000BDE8F88310EB012078890220E04C002008
:103D1000E0DB0120D9DB01202DE9F0413A4A3B4D9F
:103D20000023ADF54C7D044680F8F63013700CE0AE
:103D300008F01CFE364B01464FF4807235480BF0FC
:103D4000EFFA2870204608F02FFE204608F0DCFD30
:103D500000282046ECDC304B1B78012B07D02D4887
:103D60000BF0FCFC28700DF54C7DBDE8F081294C72
:103D70000022002320460BF017FDD4F810804046A7
:103D8000FFF790FE01AF044600F1200E2068616845
:103D9000A268E3683E460FC6103474453746F5D135
:103DA00020686168A268002307C7002219480BF049
:103DB000FBFC01A9164B17482C220BF0B1FA424626
:103DC000002314480BF0F0FCFFF748FD4FF480721D
:103DD00001460CA810F0F6FF0CA90D4B0D484FF44E
:103DE00080720BF09DFAFFF7C1FD4FF4007201469F
:103DF0004CA810F0E7FF4CA9054B06484FF40072A1
:103E00000BF08EFAABE700BFA8890220D9DB0120B6
:103E100078890220E0DB0120E43E0020F0B5314D3E
:103E20002B6891B0002B4AD12F4C304A13880133B4
:103E30009BB2B3F5FA7F01D94FF4FA7313802C4B80
:103E40001B78002B34D02B4B2B491A682B4816F0CB
:103E50004BFB284B244E196807A810F0B3F8079ABB
:103E60000C9B09980A99089F04920B9A029003F2FE
:103E7000B273019100921421214A0397214816F050
:103E8000E5FA00211D480BF0DFFD0A2220701B49D6
:103E90001D480BF0C9F80228207018D00A221749D3
:103EA00019480BF0C1F8012320702B6011B0F0BD50
:103EB000104B16491A68114816F016FBC9E712484C
:103EC000094C0BF04BFC002320702B60ADE70E4833
:103ED0000BF044FC09283070E0D108480BF0DAFD03
:103EE0003070DBE7E8EF0120D9DB0120EADF0120B9
:103EF000E43E002000D0034068E2010034DE0120EF
:103F000070E2010058DB0120E0DB012060E20100EB
:103F10002DE9F043DFF894C15A4A9CF8003000259F
:103F20001570002B00F0A2805F1EFFB2564A574B5F
:103F300092F800E0DFF87881013707EB470703EBE1
:103F4000870703F10804BEF1000F76D0197A05EB5C
:103F50004506A4F1080208EB860605F1010921B126
:103F600007CA86E807005FFA89F50C33BB4204F103
:103F70000C04E8D1464E8CF800503778A7B17D1E6E
:103F8000EDB2013505EB4505DFF800C1DFF824E1AE
:103F9000AD0000230CEB030207CA0EEB03040C3345
:103FA000AB4284E80700F5D13A4B3B4918783770AB
:103FB000082207240A234C700B708A70CA700028EC
:103FC00052D00024F3B1013BDBB20133334A344F0A
:103FD000344E354D03EB430302EB830E5FFA84FC52
:103FE0000023C4B995F80880B8F1000F01D001335F
:103FF000DBB20C32724507F10C0706F10C0605F135
:104000000C05EED101345FFA84FC60450B702BD9AE
:1040100011F8013FD6E7BCF1010F05D197F80880F0
:10402000B8F1000FE5D0E2E7BCF1020F20D196F81D
:104030000880B8F1000FDCD0D9E714F8082CA2F101
:104040006401012991D9672A8FD0197A05EB4506B9
:10405000A4F1080208EB8606002986D007CA0135BC
:1040600086E80700EDB280E7BDE8F0831D4681E7F2
:10407000BCF1030FBDD192F80880B8F1000FB8D0A1
:10408000B5E700BF60E0012020DF0120A40A0300A3
:10409000283E00207C3E002014DA0120CC090300D9
:1040A00098EA010080E001002C0A0300E53E0020B0
:1040B000C8D8012054D80120F0B5054B1B688DB03D
:1040C00004460D4603A819460FF07CFF02E000BF2E
:1040D00000D00340FF2C00F21E81DFE814F0A9019C
:1040E000A701A5011C019B01990185017D011C010E
:1040F0001C018E011F0166015A011C011C011C01DB
:104100001C011C011C011C011C011C011C011C01C7
:104110001C011C011C011C011C011C011C011C01B7
:104120001C011C011C011C011C011C011C011C01A7
:104130001C011C011C011C011C011C011C011C0197
:104140001C011C011C011C011C011C011C011C0187
:104150001C011C011C011C011C011C011C011C0177
:104160001C011C011C011C011C011C011C011C0167
:104170001C011C011C011C011C011C011C011C0157
:104180001C011C011C011C011C011C011C011C0147
:104190001C011C011C011C011C011C011C011C0137
:1041A0001C011C011C015201500148013D011C0170
:1041B00035011C011C011C011C011C011C011C01FE
:1041C0001C011C011C011C011C011C011C011C0107
:1041D0001C011C011C011C011C011C011C011C01F7
:1041E0001C011C011C011C011C011C011C011C01E7
:1041F0001C011C011C011C011C011C011C011C01D7
:104200001C011C011C011C011C011F012B01F701D9
:10421000F501DC01DA011C011C011C011C011C015F
:104220001C011C011C011C011C011C011C011C01A6
:104230001C011C011C011C011C011C011C011C0196
:104240001C011C011C011C011C011C011C011C0186
:104250001C011C011C011C011C011C011C011C0176
:104260001C011C011C011C011C011C011C011C0166
:10427000E4010001CF011C011C011C011C011C01F7
:104280001C01C701BF01B7011C01AC011C011C01CD
:104290001C011C011C011C011C011C011C011C0136
:1042A0001C011C011C011C011C011C011C011C0126
:1042B0001C011C011C011C011C011C011C011C0116
:1042C0001C011C011C011C011C011C011C011C0106
:1042D0001C011C011C011C011C011C017501984BD7
:1042E000984C196803A80FF06DFE94F90030069FF2
:1042F000079E089D002B00F00981012B00F014811E
:10430000022B08D18DE8C00005F2B2738E4A8F48A7
:104310000C2116F09BF88D480DB0F0BD8C4A116849
:104320008C4B8D4A894803EB01130C215B6816F016
:104330008DF8F0E7894B1B78894A844803EB8303A7
:104340000C2116F083F8E6E7864B874A1B787F48F6
:104350000C2116F07BF8DEE7844B1B78642B00F011
:10436000B7807F4A79480C2116F070F8D3E7804B6C
:104370007B4A1B7875480C2116F068F8CBE77D4B1B
:10438000E3E77D4B7D4A1B7870480C2116F05EF800
:10439000C1E77B4B1B78002B40F09E80794A6B4B2A
:1043A00092E8030018601971B5E7774B1B68062B7C
:1043B00000F399806749684A644801EB03130C21B4
:1043C0005B6816F043F8A6E7704B604853F8252069
:1043D0000C2116F03BF89EE76D4B614A1B885B4849
:1043E0000C2116F033F896E76A4B5D4A93F90030DA
:1043F00056480C2116F02AF88DE7674A674B11687A
:10440000524853F82130544A0C2116F01FF882E725
:10441000634BEAE7634B1B780A2B59D9574A4B4841
:104420000C2116F013F876E75F4A78E75F4AE5E774
:104430005F4A604BE3E7604B1B78002B48D15F4B32
:10444000424A1B6813801B0C937064E75C4B444A20
:104450009B683E480C2115F0F9FF5CE7584B404A39
:104460005B683A480C2115F0F1FF54E7544B3C4A85
:104470001B6836480C2115F0E9FF4CE7514B93F9C6
:104480000030012B4ED0504A304B07CA03C31A707C
:1044900041E74E4B6CE74E4B4E4A1B782B480C21A4
:1044A00015F0D4FF37E7274C049E94F90030059DA2
:1044B00013B3002B7FF72FAF00962B46464A2348B5
:1044C0000C2115F0C3FF26E7444B5BE7444B32E772
:1044D0001E4B444A1A601EE7434A1C4B92E80300F5
:1044E0001860197117E7414A184B92E803000A0C4B
:1044F000186099809A710EE72B4600963C4A134843
:104500000C2115F0A3FF94F90030D2E705F2B27345
:104510008DE8C000374A0D480C2115F097FF94F93B
:104520000030EAE6344ADFE705F2B2738DE8C000F6
:10453000324A06480C2115F089FF94F90030DFE675
:1045400000D0034072EB0120D8E2010064EB0120AF
:10455000703E0020A8E90100ACE201006D3E0020A1
:104560009CE20100C43E0020A4E20100EC3E0020D9
:10457000043F00200C3F0020763E002090E2010026
:10458000E43E002034E20100783E0020583E002046
:10459000E63E0020743E0020D83E0020383E002039
:1045A000053F0020553E0020BC3E0020E83E002094
:1045B000003F0020103F002098E20120F0E20100BF
:1045C00008700220573E0020FCE201008C3E0020D3
:1045D000B83E0020E8E20100DCE201008D3E002050
:1045E000753E00204F4646003CE20100B0E201006B
:1045F000CCE20100B8E20100F4E20100C8E20100EF
:1046000070B582B070B9484A1378194449B200298C
:104610002DDB5A29A8BF5A2108461170FEF742FA2D
:1046200002B070BD032811D1404B1B78022BF7D08C
:104630003F4A136819440E29A8BF0E2121EAE171EF
:1046400008461160FEF79CF902B070BD012812D136
:10465000384A1378194449B200290ADB3F29A8BF18
:104660003F2108461170FEF745FA02B070BD0146C1
:10467000D2E70021F5E702283FD12F4B1B68002B22
:10468000CED12E4D2E4C2B680093009B22689B1A96
:10469000B3F5FA7F2BD2F92B42D8642B41F2883341
:1046A00028BF4FF4FA63274A27481668006803FBBF
:1046B000016141F6573399421CDD244EC343DB0FA1
:1046C00086FB0060C3EBE0104FF47A7303FB00F04D
:1046D0008142A8BF01461E4B116008461960FDF7D4
:1046E0007DFF2B680193019B236002B070BD4FF4E6
:1046F000FA73D8E741F65831EDE7052890D1154A0D
:10470000137803EB4101C9B2092907D93229A8BF9F
:1047100032211170FEF748F802B070BD0A21F8E7A7
:104720004FF47A73BFE700BFC1D90120B0E6012082
:10473000BC3E0020B0890220843E0020F493022079
:1047400028EB0120243E00200CE00120D34D621014
:10475000F4DF0120553E0020692838B529D007280C
:1047600014D0672846D1AC4A1378194464293EDC3A
:10477000312952DD6429117051D0A84B00224FF429
:10478000803159629A611A62DA6138BDA44AA54C37
:104790001388A4FB0343C3F3C7030B44C82B24DCD7
:1047A000002B47DB03EB830303EB83039BB21380F4
:1047B0000DE09D4C23780B44102B14DC032B37DDCC
:1047C000DBB29A4A2370002582F828305562982877
:1047D00035D1974A137819443C2918DC00292CDB81
:1047E000C9B2117038BD0423EBE70023DFE73223A1
:1047F0001370C2E766284CD18E4A1078052313FB4C
:104800000101C82906DC0E29EADCC821E9E70021FC
:10481000117038BD0F21117038BD642313707F4BA8
:1048200000224FF48031D9619A615A621A6238BD10
:104830001023C6E741F28833B9E73C21D1E79B2832
:104840000CD17D4A137819441E2904DC0029C7DCE9
:104850001E21117038BD0121117038BD96280CD170
:104860007648036819440E2904DC0429D8BF0E21B8
:10487000016038BD0521016038BD9A2840F0B38041
:104880006F4A137819441429E5DC0029A8DC1421A7
:10489000A7E764281CD16B4A13781944232944DC08
:1048A0000E294BDD07EE901A9FED677AF8EEE77A56
:1048B000C9B227EE877A654B6548D3ED006A11705F
:1048C000C7EE267AFDEEE77A17EE903A037038BD10
:1048D000652807D15F4A137819441E2929DC042969
:1048E000B6DD7DE702280B4604460CD15A490A681A
:1048F00013440E2BA8BF0E2323EAE37318460B6064
:10490000FEF73EF838BD05281CD154490A781344F7
:104910005BB2002B10DB3F2BA8BF3F23504A0B702C
:1049200018461370FEF7E6F838BD9FED4E7A0F215A
:10493000C1E70521117038BD0023EFE79FED4A7AEA
:104940002321B8E7062811D148490A7813445BB2FD
:10495000002B09DB5A2BA8BF5A23454A0B70184677
:104960001370FEF79FF838BD0023F6E7042812D134
:1049700040490A7802EB4303DBB2092B06D9322BFC
:10498000A8BF32230B70FDF70FFF38BD0A230B7051
:10499000FDF70AFF38BD60B937490A681344022B96
:1049A00004DC002BB8BF02230B6038BD03460B604C
:1049B00038BD01280CD131490A681344042B04DCAA
:1049C000002BB8BF04230B6038BD00230B6038BD3B
:1049D0000A285BD12A490A681344012BF5DC002B15
:1049E000B8BF0123E0E799280ED1264A10780523A5
:1049F00013FB0101502904DC09293FF7F1AE5021D6
:104A0000EFE60A21117038BDD6287DD11E4A1378F1
:104A100083F00103137038BDEC3E002010E001204C
:104A2000E63E00201F85EB51C43E002084DB0120C0
:104A3000753E0020043F00208C3E0020703E002088
:104A4000B83E0020763E002000007A44D03E002090
:104A5000E4EF01200C3F0020BC3E0020053F002079
:104A6000B089022000606A4600B80847743E002002
:104A7000C1D90120553E0020003F0020E83E002023
:104A8000D83E00208D3E002098E201200C280ED157
:104A900024490A680A2A08BF07229B1804D4062B57
:104AA00082DD0A230B6038BD00230B6038BD0B2864
:104AB0000CD11D48026813440E2B04DC042BD8BF14
:104AC0000E23036038BD0523036038BD0D2807D1D0
:104AD00016490A781344012B0FDD00230B7038BDF3
:104AE000972C7FF474AE12490A7813443C2B06DCF1
:104AF000002B07DDDBB20B7038BD002BFADA012387
:104B00000B7038BD3C23E9E7CB280AD1094A0A4893
:104B100092F90030037009495B425BB213700B706D
:104B200038BD38BD783E0020703E0020E43E0020B5
:104B30006D3E0020573E002084DE0120C0D90120B8
:104B4000F0B4774A137C012B40F2828072B6D368AE
:104B500062B6744C74492268744891F9005093FB12
:104B6000F5F3934203601EDD714A724B92F9002007
:104B70001A60714A137C012B1FD972B6D36862B6D2
:104B80006E4A6F4E1568006891F9001093FBF1F3BF
:104B9000AB422060336053DC4ADB6A49136000207B
:104BA0000860F0BC70473FDA674A624B92F9002018
:104BB0001A60614A137C012BDFD872B692E8480074
:104BC0001D783778567A137A374205EA03057FD085
:104BD000937A03F003030DB143F0040343F0080399
:104BE0009D10013B95720D2BC8D801A555F823F0F7
:104BF000194D0000114D0000094D0000114D00003D
:104C00007D4B0000014D0000194D0000194D0000C2
:104C1000014D00007D4B0000114D0000094D0000CA
:104C2000114D0000194D0000424B00221A60A0E710
:104C30004548444990F9000008601360F0BC704793
:104C40003B48404990F9000008601360F0BC704791
:104C500072B61368506819780478507A137A04424F
:104C600001EA03012CD0937A03F0030309B143F066
:104C7000040343F008039910013B91720D2B3FF69A
:104C800066AF01A151F823F0F94C0000F14C00008F
:104C9000E94C0000F14C00004F4B0000E14C0000DB
:104CA000F94C0000F94C0000E14C00004F4B0000B3
:104CB000F14C0000E94C0000F14C0000F94C000000
:104CC000937A03F003030029D5D043F00403D2E71D
:104CD000937A03F00303002D82D043F004037FE7AF
:104CE000D368023BD36033E7D3680233D3602FE746
:104CF000D368013BD3602BE7D3680133D36027E748
:104D0000D368023BD3603AE7D3680233D36036E717
:104D1000D368013BD36032E7D3680133D3602EE719
:104D2000F8DF0120A4890220343E0020E0EF0120BA
:104D3000C0D9012018DF012058E20120DCDB01206E
:104D4000F0EF0120ECDF012084DE012008B50748E8
:104D500007F030FF064807F02DFF064807F02AFF4E
:104D60000548BDE8084007F025BF00BFB88A02200B
:104D7000FCD90120C4D90120D4D9012008B50221D1
:104D8000242010F06FFA02211D2010F06BFA02218E
:104D9000252010F067FA2620022110F063FA642023
:104DA000BDE8084010F064BAF0B583B006460FF0D5
:104DB00089F807460EF0DCFF054638460EF0CAFFBC
:104DC0001A4B93F90030CBB944B22644172E20DD9C
:104DD0001C46EDB2694638460EF0D8FE68468DF89E
:104DE00001508DF802400EF0EFFF10F015FA684602
:104DF0000EF0EAFF0FF0B6F803B0F0BD012B0ED1B4
:104E00006AB295193B2D08DC002D0DDBEDB2C4B262
:104E1000E0E7002E06DBF4B2DBE70025F7E7EDB2B2
:104E2000C4B2D7E71724D4E73B25F0E772EB0120A3
:104E300070B582B006460FF045F805460EF0B4FF97
:104E4000044628460EF0A2FF264B93F90030DBB94A
:104E500022B2324440F2E9739A4221DD3124C6B2D3
:104E6000694628460EF092FE68468DF805608DF87A
:104E700006400EF0A9FF10F0CFF968460EF0A4FF2F
:104E80000FF070F802B070BD012B0FD141B2314468
:104E90000C291DDC002923DDCEB24E34E4B2DFE75D
:104EA00040F2E2739A4215DC3724D8E7022B14D182
:104EB0000FF008F80C4D05FB060528460EF074FFB0
:104EC000044628460EF062FF4E34C6B2E4B2C7E78D
:104ED0001E46E2E74E32D4B2C1E74E34E4B2BEE73A
:104EE0000C26DAE772EB0120805101002DE9F04F2A
:104EF000A74BDFF8048393F800C098F8009083B0C4
:104F0000BCF1000F03D0A34B1B78002B58D04D46AB
:104F1000A14AA24B12881B7806EE902AF8EE666A28
:104F20003BB19F4B1B7807EE903AF8EEE77A66EEBE
:104F3000A76A9C49DFF8BCA20B68DFF8C0E29A4878
:104F40009FED9A7A0022013316460B60CAF80020C2
:104F5000174671460422012430F8023F013303EB67
:104F600083035B0007EE903AF8EEE77AAA42C1EDC0
:104F7000047A04F1010301F108010BDDF4EEE67A95
:104F8000F1EE10FA37EE277ADCB203DDF0EE676A55
:104F9000174601260232F02ADED1002E40F0D880DA
:104FA000834B1B7843BB834A1360834B00221A70E8
:104FB000BCF1000F01D088F8009003B0BDE8F08F7D
:104FC0007E4A7F4B12781B68DFED7E6A07EE102A5F
:104FD000F8EEC77A5B0A27EEA67A07EE903AF8EE6B
:104FE000E77AC7EE276AFDEEE67ACDED017A9DF805
:104FF000045088F800508BE700230193724B187817
:10500000752811DC714A0EEBC003F6EE006A93EDD1
:10501000007AD3ED027A77EE277A083367EEA67A24
:1050200043ED017A9A42F2D1DFF8D4B19BF80060E7
:10503000B04247DA664FDFED674ADFED676A9FED02
:10504000675A0EEB80000EEB86060024F0EE085A3D
:10505000B2EE046AB0EC017A6149C7EE257AF4EE4B
:10506000E47AF1EE10FA07DCFCEEE77A17EE903AFC
:105070001B0203F4784319B2C7EE067A4FF4FC63BF
:10508000F4EEE67AF1EE10FA06DCFCEEE77A17EEC3
:10509000903ADB0003F4FC63C7EE057A1F22F4EEBE
:1050A000E67AF1EE10FA05DCFCEEE77A17EE902ACC
:1050B000C2F3C4020B431343864227F8143004F1B1
:1050C0000104C7D1019B3B4E00219D423160BFF4DA
:1050D0006CAF444B384A1B68DFED346A424F012005
:1050E000013B83421070C7ED006A3FF661AF9BF849
:1050F0000000A84224DD3D4AAB001A449E440C4601
:105100008B462B46D2ED007ABEEC017A77EE277AF9
:10511000F4EEE67AF1EE10FAE2EC017A04DD012118
:10512000F0EE676A8B461C4601339842EAD1BBF128
:10513000000F0AD121B1A542346038BFCAF800403F
:105140002B4A13880133138032E7C7ED006AF1E779
:10515000CAF80070274A0197002F3FF421AF07EEED
:10516000904A37EE667AF8EEE77AB0EE006AC7EE5C
:10517000275AC6EEA57AF4EEC67AF1EE10FA02D5F9
:10518000002313600CE70A4B01221A7036E700BFB8
:1051900070EB012030E70120E63E002080E2012094
:1051A000B83E0020C88A022036CD01200000000051
:1051B0008C890220E0E60120E5EF0120763E002008
:1051C000ACE6012000007A446C3E00205CE6012041
:1051D00078E0012000007A4300007F430000204275
:1051E00000F8FFFF2C3E0020B48902204CE701208C
:1051F000ECEF012034E70120E4EF0120ACE20120D4
:10520000CE3E002043090DD14000C3B21F20002232
:10521000022902D052105B1040105B0103EBC22345
:1052200018447047012B05D1C04300F01F003F23F5
:105230000022EDE7022B04D100F01F023F230020E3
:10524000E6E7032B08D100F01F035B00C3F13F0327
:10525000DBB200201F22DBE700200346D7E700BFB8
:105260002DE9F04F83B0BDF930400192002C22DDD2
:105270001FFA80FB0C440BEB03070E4699460FFA0E
:1052800084FABFB24FF00008B9F1000F0EDD019BA8
:105290005C4603EB480521B2013435F8023B074870
:1052A0003246A4B20CF07EFAA742F4D1013636B2EF
:1052B0005645C844E8D103B0BDE8F08F40EB01206B
:1052C00010B592B0014601A80FF078FA00233222FF
:1052D00001A805A90FF086FA05A905480EF0DAFA2B
:1052E000044601A80FF02AFAA0B212B010BD00BF08
:1052F00040EB012030B50D4B0D4D1C782B78013C57
:105300001844844283B00FDB0028B4BFE4B2C4B2B7
:105310000021EB2300930191F0232D2205482C70EE
:105320000CF0FEFC03B030BD0024F1E77C3E002011
:1053300081E2012040EB012030B5234B1B78022B8A
:1053400085B03BD0214B1B68032B0FD0204A214B4B
:1053500092ED007AD3ED006AB8EEC77AC7EE267AEE
:10536000FDEEE77A17EE903AEB2B11DD1A4B1B4856
:10537000197801913E2289B24FF6FF753724CB1C74
:1053800003950339029400920DF07CFD05B030BD09
:10539000134A1268012AE9D8124A10481288039267
:1053A00099B2CD1C1BB245243E220339019309B2A8
:1053B0002BB2029400920DF065FDD7E70A4B1B78E3
:1053C000002BBFD105B030BDB0E601202C3E00203F
:1053D000243E0020D03E0020E4EF012040EB0120DD
:1053E000843E0020D43E002030E70120E9B12DE9C1
:1053F000F041DFF83C8082B00D46174606B200242B
:105400000134A5420ED0E307FAD5B8F80030009376
:105410003A1B12B20A233146044801340CF006FB51
:10542000A542F0D102B0BDE8F081704740EB012009
:10543000C63E00202DE9F04FFBB00DF10A090DF139
:10544000FA0A00202F4E304F4D465446034636F898
:10545000021F01EB830287FB02E3D217C2EB630357
:10546000D129A8BFD1210230D12B1A46A8BFD12201
:10547000EA2824F8021F25F8022F9BB2E7D10DF18C
:10548000F40B042503E00235CB45ADB237D03AF832
:10549000024F1E48E4B2A4F11E062FB24FF620536D
:1054A00026EAE676009339463346462239F8028FDB
:1054B0000CF0ACFA4FF6E07306F146023946009361
:1054C00012481E230CF0A2FA002004F146020090BC
:1054D000C4F1D20339460D480CF098FA5FFA88F20D
:1054E000042AD0D94FF6FF73009341323946052381
:1054F00006480CF08BFA0235CB45ADB2C7D17BB074
:10550000BDE8F08F36CD01206766666640EB01206E
:1055100010B50F4C002120460CF0CEFD2046002196
:105520000CF0F2FF20464FF6FF710EF035FA2046E0
:1055300000210CF0B3FD0022204611460EF010FAB7
:10554000204628224621BDE810400CF0EFBE00BFE7
:1055500040EB01202DE9F0418EB00DF1030600254E
:105560000746B0462C4628460FF0DCFB08F8010F32
:105570004440082314F0010F4FEA540203F1FF33B3
:1055800014BF82F08C04C4F3470413F0FF03F1D17D
:105590000135332DE7D1F4B99DF83230372B03D0E4
:1055A00020460EB0BDE8F0819DF83130312BF7D1A7
:1055B0009DF83030302BF3D19DF82F30302BEFD1C8
:1055C000013F0DF1370316F8012F07F8012F9E4216
:1055D000F9D10120E5E718460EB0BDE8F08100BF23
:1055E000F8B50025471E2C4617F8016F08237440B4
:1055F00014F0010F4FEA540203F1FF3314BF82F09D
:105600008C04C4F3470413F0FF03F1D128460FF0D4
:1056100089FB864209D0314628460FF09DFB28467B
:105620000FF080FB3B78834204D10135322DDBD172
:10563000002600E00126214628460FF08DFB284673
:105640000FF070FB84420CBF30460120F8BD00BF54
:10565000F0B58FB001A8FFF77DFF0446A0B17649F1
:105660009DF82720754BBDF806709DF82F609DF8BA
:1056700030509DF831000F80012A9DF832101E70C5
:105680005D709870D97002D020460FB0F0BD6C4E9E
:105690006C489DF80C7037606B4D9DF80D6006608E
:1056A0006A496B4B9DF80E606A482E60DFF814E281
:1056B0009DF80A600E609DF809501A70664F9DF8BB
:1056C0000830664E6649674A0360CEF800309DF8A0
:1056D0002D009DF82E303D60356008701370002D50
:1056E00000F09180022D00F0A180012D00F0958046
:1056F00000215D485D4F5E4D0CF0D0FC31685A488A
:105700005C4E0FF013F89DF81F30DFF8BCE15A48EB
:105710005A495B4A03EB830303EB8303AEF8003083
:105720009DF80B3033709DF81C609DF81D3006709D
:105730003B709DF81E609DF82100069B2E7008703E
:105740001370504E504F514DFDF72EF89DF90F300C
:105750004F485049504A0370337018469DF8203026
:10576000059E3B709DF910302E600B701370FDF795
:10577000C1F99DF82830DFF854E1484A484F9DF8B8
:105780002A009DF82B609DF82C50DFF844C1106072
:1057900059B25B428EF80030DFF838E1397056605C
:1057A000404F95609DF829208CF800108EF800205D
:1057B0003D499DF822203A703C4A9DF823700F70B5
:1057C0003B499DF82570177083193A4A9DF8267059
:1057D0000F70EB429DF8241011703FF455AF022179
:1057E000FFF710FD344B022118803046FFF70AFD09
:1057F000324B012118802846FFF704FD304B1880FA
:1058000020460FB0F0BD294617480CF07DFE294612
:1058100015480CF051FC356864E7002112480CF083
:1058200073FE002110480CF047FC61E700210E4890
:105830000CF042FC356858E730DA012050DB0120DB
:10584000783E0020703E0020BC3E0020D83E002064
:10585000CD3E0020E83E0020003F00202C3E0020EE
:10586000563E002098E2012040EB0120763E0020C9
:10587000043F0020E43E00200C3F0020EC3E0020CE
:10588000553E0020053F0020C43E0020243E00205D
:10589000B0890220743E0020C1D901200870022086
:1058A000C0D901206D3E0020753E00208D3E0020B5
:1058B000B83E00208C3E0020C63E0020D43E002092
:1058C000DC3E0020843E0020E63E002084DE0120F5
:1058D000573E0020343E00202DE9F0425048514907
:1058E00000680978504D514C514F2D682468514B38
:1058F0003F681B88504E514ADFF894911288DFF8B8
:1059000094C1DFF894E190B0A6FB03638DF8140016
:105910008DF82F104A484B498DF8155000688DF8C6
:1059200016400978484D494C8DF810708DF81200DA
:105930008DF82510464F474847492D6824783F7811
:1059400000788DF811508DF813400968434D444C90
:105950008DF8247007918DF82600DB08414F4248EE
:1059600042492D7824788DF82730013240F2F23305
:105970008DF829508DF828403D4EADF80E203D4D54
:10598000ADF80C303F7899F80030007809783A4C3F
:105990009CF8002008978DF818308DF81700374BC9
:1059A0008DF83010364F3748374936782D782478BF
:1059B0008DF82A20354A9EF800E03F788DF8316056
:1059C0008DF82B501E685D688DF82D4000789C681E
:1059D00009788DF82EE00023ADF83C308DF82C705E
:1059E0008DF832608DF833508DF834408DF83500E5
:1059F0008DF8361092E80300C0F30721C0F3074288
:105A0000030E8DF8370003A88DF838108DF8392073
:105A10008DF83A30FFF7E4FD10B0BDE8F08200BF2A
:105A2000783E0020CD3E0020703E0020BC3E00208D
:105A3000E83E0020E63E00201F85EB5130DA0120D1
:105A4000D83E0020763E0020003F0020E43E0020AB
:105A50000C3F0020043F0020243E0020EC3E0020AC
:105A6000C43E0020553E0020053F0020573E002048
:105A7000343E0020753E00208D3E0020087002203C
:105A80008C3E0020563E002098E2012008E30100F1
:105A9000743E00206D3E0020B83E0020F8B5654CF5
:105AA0002060654806F0ACF8644B1B78013B012B85
:105AB0005ED9634E634D6448644923680122002720
:105AC00037602A6002600A60A3B1012B36D0022B36
:105AD00000F08680032B5DD0042B0AD15C4A5D491F
