:1000000000000320D1010000394F0100F14E010032
:10001000F14E0100F14E0100F14E0100F14E0100E0
:10002000F14E0100F14E0100F14E0100394F010087
:10003000394F0100F14E01007D6701008167010029
:10004000394F0100394F0100394F0100394F01008C
:10005000394F0100394F0100394F0100394F01007C
:10006000394F0100394F0100394F0100394F01006C
:10007000394F0100394F0100394F0100394F01005C
:10008000394F0100394F0100394F0100394F01004C
:10009000394F0100394F0100394F0100394F01003C
:1000A000A57A0100B17A0100394F0100394F0100F2
:1000B000394F0100394F0100394F0100394F01001C
:1000C000394F0100394F0100394F0100394F01000C
:1000D000394F0100394F0100394F0100394F0100FC
:1000E000394F0100394F0100394F0100394F0100EC
:1000F000394F0100394F0100394F0100394F0100DC
:10010000394F0100394F0100394F0100394F0100CB
:10011000394F010025590100394F0100394F0100C5
:10012000394F0100394F0100394F0100394F0100AB
:10013000394F0100394F0100394F0100394F01009B
:100140000D440100394F0100394F0100394F0100C2
:10015000394F0100394F0100394F0100394F01007B
:10016000394F0100394F0100BD7A0100394F0100BC
:10017000394F0100394F0100394F0100394F01005B
:10018000394F0100394F0100394F0100394F01004B
:10019000394F0100394F0100394F0100394F01003B
:1001A000394F0100394F0100394F0100394F01002B
:1001B000394F0100394F0100394F0100394F01001B
:1001C000394F0100394F0100394F0100394F01000B
:1001D0005C4B4CF2205210B51A804DF628121A8052
:1001E00000BF00BF14F0ACFE574B4FF030621A60F6
:1001F000564A9A60564ADA60564B4FF470021A60BB
:10020000554B564A1A60564B1A78110703D51A787F
:1002100042F008021A70534B5349AA221A70534AEB
:10022000534B8B4204D252F8040F43F8040BF8E707
:10023000504B514900228B4202D243F8042BFAE77B
:100240004E494F4A002352F8230041F8230001335E
:10025000742BF8D14B4B4C4A802103F8011B93427D
:10026000FBD14A4B454A1A60494B8A221A70A3F5C2
:10027000805324225A70A0221A709A799207FCD5D2
:100280009A79D406FCD4434A937903F00C03082BE3
:10029000FAD1414B60221A7002331A78802AFCD1BD
:1002A0003C4B01221A715D225A719A799006FCD555
:1002B0009979384A4906FBD5384B394919600021EC
:1002C000596020231370937903F00C030C2BFAD19F
:1002D000344B354A1A60354A354C136813F4807331
:1002E00003D123604FF4A8531360324B324A1A6093
:1002F00000225A60072243F8042C304AC3F80C2D20
:1003000062B615F0B3F92368DA0705D52C4814F066
:100310007FFF2C4B2C4A1A602C4B1B785B0609D5AF
:10032000284C294B22689A4204D1254814F070FFCA
:100330000023236019F024FC14F008FE14F036FDAD
:10034000FEE700BF0E20054030800440823F0400DD
:100350000100002B88ED00E0002008E0030000858C
:1003600002D0074000E00740B84C00206845040078
:10037000303D0020C04C0020809502200038002035
:100380000000000000E400E064E400E008ED00E0AC
:10039000005006400040064001E007404480044011
:1003A0000000060204800440C010070010D0034083
:1003B00014D0034014E000E01FBF02000000202022
:1003C000769E65601CE00340A5C3945A00F0074088
:1003D000FFFFFFFFFFFFFFFFFFFFFFFFFFFFFFFF2D
:1003E000FFFFFFFFFFFFFFFFFFFFFFFFFFFFFFFF1D
:1003F000FFFFFFFFFFFFFFFFFFFFFFFFFFFFFFFF0D
:10040000FFFFFFFFFFFFFFFFFFFFFFFFDEF9FFFF23
:1004100010B5054C237833B9044B13B10448AFF33E
:1004200000800123237010BDC04C0020000000009C
:1004300064450400084B10B51BB108490848AFF3E8
:1004400000800848036803B910BD074B002BFBD0A0
:10045000BDE81040184700BF00000000C44C002059
:1004600064450400B84C00200000000010B5044BA7
:10047000044640F8183B08F08BFF204610BD00BF33
:100480009C11030014F0BEBE10B5044613F068FFC3
:10049000204610BD214B10B4D3F8EC2013685068EF
:1004A00019780478507A137A044201EA03011BD0C8
:1004B000937A03F0030309B143F0040343F0080304
:1004C0009910013B91720D2B0BD8DFE803F0210747
:1004D0001B070A152121150A071B0721D368013BB9
:1004E000D3605DF8044B7047937A03F0030300294F
:1004F000E6D043F00403E3E7D3685DF8044B023B26
:10050000D3607047D3685DF8044B0233D360704703
:10051000D3685DF8044B0133D3607047AC8D022083
:10052000214B10B41A681368506819780478507A0F
:10053000137A044201EA03011BD0937A03F0030308
:1005400009B143F0040343F008039910013B917291
:100550000D2B0BD8DFE803F021071B070A1521211B
:10056000150A071B0721D368013BD3605DF8044BD4
:100570007047937A03F003030029E6D043F00403A5
:10058000E3E7D3685DF8044B023BD3607047D36860
:100590005DF8044B0233D3607047D3685DF8044BB9
:1005A0000133D360704700BFAC8D0220214B10B4E3
:1005B0005A681368506819780478507A137A04429C
:1005C00001EA03011BD0937A03F0030309B143F05E
:1005D000040343F008039910013B91720D2B0BD8D3
:1005E000DFE803F021071B070A152121150A071B65
:1005F0000721D368013BD3605DF8044B7047937AC1
:1006000003F003030029E6D043F00403E3E7D368D3
:100610005DF8044B023BD3607047D3685DF8044B30
:100620000233D3607047D3685DF8044B0133D36065
:10063000704700BFAC8D0220214B10B49A6813683C
:10064000506819780478507A137A044201EA030159
:100650001BD0937A03F0030309B143F0040343F082
:1006600008039910013B91720D2B0BD8DFE803F0C2
:1006700021071B070A152121150A071B0721D3682B
:10068000013BD3605DF8044B7047937A03F003039A
:100690000029E6D043F00403E3E7D3685DF8044B98
:1006A000023BD3607047D3685DF8044B0233D360DC
:1006B0007047D3685DF8044B0133D360704700BFC7
:1006C000AC8D0220214B10B4DA6813685068197899
:1006D0000478507A137A044201EA03011BD0937A1A
:1006E00003F0030309B143F0040343F00803991036
:1006F000013B91720D2B0BD8DFE803F021071B079C
:100700000A152121150A071B0721D368013BD36075
:100710005DF8044B7047937A03F003030029E6D099
:1007200043F00403E3E7D3685DF8044B023BD36076
:100730007047D3685DF8044B0233D3607047D368C9
:100740005DF8044B0133D360704700BFAC8D0220CD
:10075000214B10B41A691368506819780478507ADC
:10076000137A044201EA03011BD0937A03F00303D6
:1007700009B143F0040343F008039910013B91725F
:100780000D2B0BD8DFE803F021071B070A152121E9
:10079000150A071B0721D368013BD3605DF8044BA2
:1007A0007047937A03F003030029E6D043F0040373
:1007B000E3E7D3685DF8044B023BD3607047D3682E
:1007C0005DF8044B0233D3607047D3685DF8044B87
:1007D0000133D360704700BFAC8D0220214B10B4B1
:1007E0005A691368506819780478507A137A044269
:1007F00001EA03011BD0937A03F0030309B143F02C
:10080000040343F008039910013B91720D2B0BD8A0
:10081000DFE803F021071B070A152121150A071B32
:100820000721D368013BD3605DF8044B7047937A8E
:1008300003F003030029E6D043F00403E3E7D368A1
:100840005DF8044B023BD3607047D3685DF8044BFE
:100850000233D3607047D3685DF8044B0133D36033
:10086000704700BFAC8D0220214B10B49A69136809
:10087000506819780478507A137A044201EA030127
:100880001BD0937A03F0030309B143F0040343F050
:1008900008039910013B91720D2B0BD8DFE803F090
:1008A00021071B070A152121150A071B0721D368F9
:1008B000013BD3605DF8044B7047937A03F0030368
:1008C0000029E6D043F00403E3E7D3685DF8044B66
:1008D000023BD3607047D3685DF8044B0233D360AA
:1008E0007047D3685DF8044B0133D360704700BF95
:1008F000AC8D0220214B10B4DA6913685068197866
:100900000478507A137A044201EA03011BD0937AE7
:1009100003F0030309B143F0040343F00803991003
:10092000013B91720D2B0BD8DFE803F021071B0769
:100930000A152121150A071B0721D368013BD36043
:100940005DF8044B7047937A03F003030029E6D067
:1009500043F00403E3E7D3685DF8044B023BD36044
:100960007047D3685DF8044B0233D3607047D36897
:100970005DF8044B0133D360704700BFAC8D02209B
:10098000214B10B41A6A1368506819780478507AA9
:10099000137A044201EA03011BD0937A03F00303A4
:1009A00009B143F0040343F008039910013B91722D
:1009B0000D2B0BD8DFE803F021071B070A152121B7
:1009C000150A071B0721D368013BD3605DF8044B70
:1009D0007047937A03F003030029E6D043F0040341
:1009E000E3E7D3685DF8044B023BD3607047D368FC
:1009F0005DF8044B0233D3607047D3685DF8044B55
:100A00000133D360704700BFAC8D0220214B10B47E
:100A10005A6A1368506819780478507A137A044235
:100A200001EA03011BD0937A03F0030309B143F0F9
:100A3000040343F008039910013B91720D2B0BD86E
:100A4000DFE803F021071B070A152121150A071B00
:100A50000721D368013BD3605DF8044B7047937A5C
:100A600003F003030029E6D043F00403E3E7D3686F
:100A70005DF8044B023BD3607047D3685DF8044BCC
:100A80000233D3607047D3685DF8044B0133D36001
:100A9000704700BFAC8D0220214B10B49A6A1368D6
:100AA000506819780478507A137A044201EA0301F5
:100AB0001BD0937A03F0030309B143F0040343F01E
:100AC00008039910013B91720D2B0BD8DFE803F05E
:100AD00021071B070A152121150A071B0721D368C7
:100AE000013BD3605DF8044B7047937A03F0030336
:100AF0000029E6D043F00403E3E7D3685DF8044B34
:100B0000023BD3607047D3685DF8044B0233D36077
:100B10007047D3685DF8044B0133D360704700BF62
:100B2000AC8D0220214B10B4DA6A13685068197832
:100B30000478507A137A044201EA03011BD0937AB5
:100B400003F0030309B143F0040343F008039910D1
:100B5000013B91720D2B0BD8DFE803F021071B0737
:100B60000A152121150A071B0721D368013BD36011
:100B70005DF8044B7047937A03F003030029E6D035
:100B800043F00403E3E7D3685DF8044B023BD36012
:100B90007047D3685DF8044B0233D3607047D36865
:100BA0005DF8044B0133D360704700BFAC8D022069
:100BB000214B10B41A6B1368506819780478507A76
:100BC000137A044201EA03011BD0937A03F0030372
:100BD00009B143F0040343F008039910013B9172FB
:100BE0000D2B0BD8DFE803F021071B070A15212185
:100BF000150A071B0721D368013BD3605DF8044B3E
:100C00007047937A03F003030029E6D043F004030E
:100C1000E3E7D3685DF8044B023BD3607047D368C9
:100C20005DF8044B0233D3607047D3685DF8044B22
:100C30000133D360704700BFAC8D0220214B10B44C
:100C4000D3F8B4201368506819780478507A137A6E
:100C5000044201EA03011BD0937A03F0030309B1B4
:100C600043F0040343F008039910013B91720D2BEC
:100C70000BD8DFE803F021071B070A152121150A0D
:100C8000071B0721D368013BD3605DF8044B704715
:100C9000937A03F003030029E6D043F00403E3E76B
:100CA000D3685DF8044B023BD3607047D3685DF8AE
:100CB000044B0233D3607047D3685DF8044B0133B3
:100CC000D3607047AC8D0220214B10B4D3F8B8200C
:100CD0001368506819780478507A137A044201EA4C
:100CE00003011BD0937A03F0030309B143F004031B
:100CF00043F008039910013B91720D2B0BD8DFE8EC
:100D000003F021071B070A152121150A071B0721DC
:100D1000D368013BD3605DF8044B7047937A03F0CE
:100D200003030029E6D043F00403E3E7D3685DF84A
:100D3000044B023BD3607047D3685DF8044B023329
:100D4000D3607047D3685DF8044B0133D3607047BC
:100D5000AC8D0220214B10B4D3F8BC20136850682E
:100D600019780478507A137A044201EA03011BD0FF
:100D7000937A03F0030309B143F0040343F008033B
:100D80009910013B91720D2B0BD8DFE803F021077E
:100D90001B070A152121150A071B0721D368013BF0
:100DA000D3605DF8044B7047937A03F00303002986
:100DB000E6D043F00403E3E7D3685DF8044B023B5D
:100DC000D3607047D3685DF8044B0233D36070473B
:100DD000D3685DF8044B0133D3607047AC8D0220BB
:100DE000214B10B4D3F8C0201368506819780478E8
:100DF000507A137A044201EA03011BD0937A03F07C
:100E0000030309B143F0040343F008039910013BC5
:100E100091720D2B0BD8DFE803F021071B070A1591
:100E20002121150A071B0721D368013BD3605DF818
:100E3000044B7047937A03F003030029E6D043F094
:100E40000403E3E7D3685DF8044B023BD3607047CB
:100E5000D3685DF8044B0233D3607047D3685DF804
:100E6000044B0133D3607047AC8D0220214B10B48A
:100E7000D3F8C4201368506819780478507A137A2C
:100E8000044201EA03011BD0937A03F0030309B182
:100E900043F0040343F008039910013B91720D2BBA
:100EA0000BD8DFE803F021071B070A152121150ADB
:100EB000071B0721D368013BD3605DF8044B7047E3
:100EC000937A03F003030029E6D043F00403E3E739
:100ED000D3685DF8044B023BD3607047D3685DF87C
:100EE000044B0233D3607047D3685DF8044B013381
:100EF000D3607047AC8D0220214B10B4D3F8C820CA
:100F00001368506819780478507A137A044201EA19
:100F100003011BD0937A03F0030309B143F00403E8
:100F200043F008039910013B91720D2B0BD8DFE8B9
:100F300003F021071B070A152121150A071B0721AA
:100F4000D368013BD3605DF8044B7047937A03F09C
:100F500003030029E6D043F00403E3E7D3685DF818
:100F6000044B023BD3607047D3685DF8044B0233F7
:100F7000D3607047D3685DF8044B0133D36070478A
:100F8000AC8D0220214B10B4D3F8CC2013685068EC
:100F900019780478507A137A044201EA03011BD0CD
:100FA000937A03F0030309B143F0040343F0080309
:100FB0009910013B91720D2B0BD8DFE803F021074C
:100FC0001B070A152121150A071B0721D368013BBE
:100FD000D3605DF8044B7047937A03F00303002954
:100FE000E6D043F00403E3E7D3685DF8044B023B2B
:100FF000D3607047D3685DF8044B0233D360704709
:10100000D3685DF8044B0133D3607047AC8D022088
:10101000214B10B4D3F8D0201368506819780478A5
:10102000507A137A044201EA03011BD0937A03F049
:10103000030309B143F0040343F008039910013B93
:1010400091720D2B0BD8DFE803F021071B070A155F
:101050002121150A071B0721D368013BD3605DF8E6
:10106000044B7047937A03F003030029E6D043F062
:101070000403E3E7D3685DF8044B023BD360704799
:10108000D3685DF8044B0233D3607047D3685DF8D2
:10109000044B0133D3607047AC8D0220214B10B458
:1010A000D3F8D4201368506819780478507A137AEA
:1010B000044201EA03011BD0937A03F0030309B150
:1010C00043F0040343F008039910013B91720D2B88
:1010D0000BD8DFE803F021071B070A152121150AA9
:1010E000071B0721D368013BD3605DF8044B7047B1
:1010F000937A03F003030029E6D043F00403E3E707
:10110000D3685DF8044B023BD3607047D3685DF849
:10111000044B0233D3607047D3685DF8044B01334E
:10112000D3607047AC8D0220214B10B4D3F8D82087
:101130001368506819780478507A137A044201EAE7
:1011400003011BD0937A03F0030309B143F00403B6
:1011500043F008039910013B91720D2B0BD8DFE887
:1011600003F021071B070A152121150A071B072178
:10117000D368013BD3605DF8044B7047937A03F06A
:1011800003030029E6D043F00403E3E7D3685DF8E6
:10119000044B023BD3607047D3685DF8044B0233C5
:1011A000D3607047D3685DF8044B0133D360704758
:1011B000AC8D0220214B10B4D3F8DC2013685068AA
:1011C00019780478507A137A044201EA03011BD09B
:1011D000937A03F0030309B143F0040343F00803D7
:1011E0009910013B91720D2B0BD8DFE803F021071A
:1011F0001B070A152121150A071B0721D368013B8C
:10120000D3605DF8044B7047937A03F00303002921
:10121000E6D043F00403E3E7D3685DF8044B023BF8
:10122000D3607047D3685DF8044B0233D3607047D6
:10123000D3685DF8044B0133D3607047AC8D022056
:10124000214B10B4D3F8E020136850681978047863
:10125000507A137A044201EA03011BD0937A03F017
:10126000030309B143F0040343F008039910013B61
:1012700091720D2B0BD8DFE803F021071B070A152D
:101280002121150A071B0721D368013BD3605DF8B4
:10129000044B7047937A03F003030029E6D043F030
:1012A0000403E3E7D3685DF8044B023BD360704767
:1012B000D3685DF8044B0233D3607047D3685DF8A0
:1012C000044B0133D3607047AC8D0220214B10B426
:1012D000D3F8E4201368506819780478507A137AA8
:1012E000044201EA03011BD0937A03F0030309B11E
:1012F00043F0040343F008039910013B91720D2B56
:101300000BD8DFE803F021071B070A152121150A76
:10131000071B0721D368013BD3605DF8044B70477E
:10132000937A03F003030029E6D043F00403E3E7D4
:10133000D3685DF8044B023BD3607047D3685DF817
:10134000044B0233D3607047D3685DF8044B01331C
:10135000D3607047AC8D0220214B10B4D3F8E82045
:101360001368506819780478507A137A044201EAB5
:1013700003011BD0937A03F0030309B143F0040384
:1013800043F008039910013B91720D2B0BD8DFE855
:1013900003F021071B070A152121150A071B072146
:1013A000D368013BD3605DF8044B7047937A03F038
:1013B00003030029E6D043F00403E3E7D3685DF8B4
:1013C000044B023BD3607047D3685DF8044B023393
:1013D000D3607047D3685DF8044B0133D360704726
:1013E000AC8D0220214B10B45A6B136850681978E9
:1013F0000478507A137A044201EA03011BD0937AED
:1014000003F0030309B143F0040343F00803991008
:10141000013B91720D2B0BD8DFE803F021071B076E
:101420000A152121150A071B0721D368013BD36048
:101430005DF8044B7047937A03F003030029E6D06C
:1014400043F00403E3E7D3685DF8044B023BD36049
:101450007047D3685DF8044B0233D3607047D3689C
:101460005DF8044B0133D360704700BFAC8D0220A0
:10147000214B10B49A6B1368506819780478507A2D
:10148000137A044201EA03011BD0937A03F00303A9
:1014900009B143F0040343F008039910013B917232
:1014A0000D2B0BD8DFE803F021071B070A152121BC
:1014B000150A071B0721D368013BD3605DF8044B75
:1014C0007047937A03F003030029E6D043F0040346
:1014D000E3E7D3685DF8044B023BD3607047D36801
:1014E0005DF8044B0233D3607047D3685DF8044B5A
:1014F0000133D360704700BFAC8D0220214B10B484
:10150000DA6B1368506819780478507A137A0442B9
:1015100001EA03011BD0937A03F0030309B143F0FE
:10152000040343F008039910013B91720D2B0BD873
:10153000DFE803F021071B070A152121150A071B05
:101540000721D368013BD3605DF8044B7047937A61
:1015500003F003030029E6D043F00403E3E7D36874
:101560005DF8044B023BD3607047D3685DF8044BD1
:101570000233D3607047D3685DF8044B0133D36006
:10158000704700BFAC8D0220214B10B41A6C136859
:10159000506819780478507A137A044201EA0301FA
:1015A0001BD0937A03F0030309B143F0040343F023
:1015B00008039910013B91720D2B0BD8DFE803F063
:1015C00021071B070A152121150A071B0721D368CC
:1015D000013BD3605DF8044B7047937A03F003033B
:1015E0000029E6D043F00403E3E7D3685DF8044B39
:1015F000023BD3607047D3685DF8044B0233D3607D
:101600007047D3685DF8044B0133D360704700BF67
:10161000AC8D0220214B10B45A6C136850681978B5
:101620000478507A137A044201EA03011BD0937ABA
:1016300003F0030309B143F0040343F008039910D6
:10164000013B91720D2B0BD8DFE803F021071B073C
:101650000A152121150A071B0721D368013BD36016
:101660005DF8044B7047937A03F003030029E6D03A
:1016700043F00403E3E7D3685DF8044B023BD36017
:101680007047D3685DF8044B0233D3607047D3686A
:101690005DF8044B0133D360704700BFAC8D02206E
:1016A000214B10B49A6C1368506819780478507AFA
:1016B000137A044201EA03011BD0937A03F0030377
:1016C00009B143F0040343F008039910013B917200
:1016D0000D2B0BD8DFE803F021071B070A1521218A
:1016E000150A071B0721D368013BD3605DF8044B43
:1016F0007047937A03F003030029E6D043F0040314
:10170000E3E7D3685DF8044B023BD3607047D368CE
:101710005DF8044B0233D3607047D3685DF8044B27
:101720000133D360704700BFAC8D0220214B10B451
:10173000DA6C1368506819780478507A137A044286
:1017400001EA03011BD0937A03F0030309B143F0CC
:10175000040343F008039910013B91720D2B0BD841
:10176000DFE803F021071B070A152121150A071BD3
:101770000721D368013BD3605DF8044B7047937A2F
:1017800003F003030029E6D043F00403E3E7D36842
:101790005DF8044B023BD3607047D3685DF8044B9F
:1017A0000233D3607047D3685DF8044B0133D360D4
:1017B000704700BFAC8D0220214B10B41A6D136826
:1017C000506819780478507A137A044201EA0301C8
:1017D0001BD0937A03F0030309B143F0040343F0F1
:1017E00008039910013B91720D2B0BD8DFE803F031
:1017F00021071B070A152121150A071B0721D3689A
:10180000013BD3605DF8044B7047937A03F0030308
:101810000029E6D043F00403E3E7D3685DF8044B06
:10182000023BD3607047D3685DF8044B0233D3604A
:101830007047D3685DF8044B0133D360704700BF35
:10184000AC8D0220214B10B45A6D13685068197882
:101850000478507A137A044201EA03011BD0937A88
:1018600003F0030309B143F0040343F008039910A4
:10187000013B91720D2B0BD8DFE803F021071B070A
:101880000A152121150A071B0721D368013BD360E4
:101890005DF8044B7047937A03F003030029E6D008
:1018A00043F00403E3E7D3685DF8044B023BD360E5
:1018B0007047D3685DF8044B0233D3607047D36838
:1018C0005DF8044B0133D360704700BFAC8D02203C
:1018D000214B10B49A6D1368506819780478507AC7
:1018E000137A044201EA03011BD0937A03F0030345
:1018F00009B143F0040343F008039910013B9172CE
:101900000D2B0BD8DFE803F021071B070A15212157
:10191000150A071B0721D368013BD3605DF8044B10
:101920007047937A03F003030029E6D043F00403E1
:10193000E3E7D3685DF8044B023BD3607047D3689C
:101940005DF8044B0233D3607047D3685DF8044BF5
:101950000133D360704700BFAC8D0220214B10B41F
:10196000DA6D1368506819780478507A137A044253
:1019700001EA03011BD0937A03F0030309B143F09A
:10198000040343F008039910013B91720D2B0BD80F
:10199000DFE803F021071B070A152121150A071BA1
:1019A0000721D368013BD3605DF8044B7047937AFD
:1019B00003F003030029E6D043F00403E3E7D36810
:1019C0005DF8044B023BD3607047D3685DF8044B6D
:1019D0000233D3607047D3685DF8044B0133D360A2
:1019E000704700BFAC8D0220214B10B41A6E1368F3
:1019F000506819780478507A137A044201EA030196
:101A00001BD0937A03F0030309B143F0040343F0BE
:101A100008039910013B91720D2B0BD8DFE803F0FE
:101A200021071B070A152121150A071B0721D36867
:101A3000013BD3605DF8044B7047937A03F00303D6
:101A40000029E6D043F00403E3E7D3685DF8044BD4
:101A5000023BD3607047D3685DF8044B0233D36018
:101A60007047D3685DF8044B0133D360704700BF03
:101A7000AC8D0220214B10B45A6E1368506819784F
:101A80000478507A137A044201EA03011BD0937A56
:101A900003F0030309B143F0040343F00803991072
:101AA000013B91720D2B0BD8DFE803F021071B07D8
:101AB0000A152121150A071B0721D368013BD360B2
:101AC0005DF8044B7047937A03F003030029E6D0D6
:101AD00043F00403E3E7D3685DF8044B023BD360B3
:101AE0007047D3685DF8044B0233D3607047D36806
:101AF0005DF8044B0133D360704700BFAC8D02200A
:101B0000214B10B49A6E1368506819780478507A93
:101B1000137A044201EA03011BD0937A03F0030312
:101B200009B143F0040343F008039910013B91729B
:101B30000D2B0BD8DFE803F021071B070A15212125
:101B4000150A071B0721D368013BD3605DF8044BDE
:101B50007047937A03F003030029E6D043F00403AF
:101B6000E3E7D3685DF8044B023BD3607047D3686A
:101B70005DF8044B0233D3607047D3685DF8044BC3
:101B80000133D360704700BFAC8D0220214B10B4ED
:101B9000DA6E1368506819780478507A137A044220
:101BA00001EA03011BD0937A03F0030309B143F068
:101BB000040343F008039910013B91720D2B0BD8DD
:101BC000DFE803F021071B070A152121150A071B6F
:101BD0000721D368013BD3605DF8044B7047937ACB
:101BE00003F003030029E6D043F00403E3E7D368DE
:101BF0005DF8044B023BD3607047D3685DF8044B3B
:101C00000233D3607047D3685DF8044B0133D3606F
:101C1000704700BFAC8D0220214B10B41A6F1368BF
:101C2000506819780478507A137A044201EA030163
:101C30001BD0937A03F0030309B143F0040343F08C
:101C400008039910013B91720D2B0BD8DFE803F0CC
:101C500021071B070A152121150A071B0721D36835
:101C6000013BD3605DF8044B7047937A03F00303A4
:101C70000029E6D043F00403E3E7D3685DF8044BA2
:101C8000023BD3607047D3685DF8044B0233D360E6
:101C90007047D3685DF8044B0133D360704700BFD1
:101CA000AC8D0220214B10B45A6F1368506819781C
:101CB0000478507A137A044201EA03011BD0937A24
:101CC00003F0030309B143F0040343F00803991040
:101CD000013B91720D2B0BD8DFE803F021071B07A6
:101CE0000A152121150A071B0721D368013BD36080
:101CF0005DF8044B7047937A03F003030029E6D0A4
:101D000043F00403E3E7D3685DF8044B023BD36080
:101D10007047D3685DF8044B0233D3607047D368D3
:101D20005DF8044B0133D360704700BFAC8D0220D7
:101D3000214B10B49A6F1368506819780478507A60
:101D4000137A044201EA03011BD0937A03F00303E0
:101D500009B143F0040343F008039910013B917269
:101D60000D2B0BD8DFE803F021071B070A152121F3
:101D7000150A071B0721D368013BD3605DF8044BAC
:101D80007047937A03F003030029E6D043F004037D
:101D9000E3E7D3685DF8044B023BD3607047D36838
:101DA0005DF8044B0233D3607047D3685DF8044B91
:101DB0000133D360704700BFAC8D0220214B10B4BB
:101DC000DA6F1368506819780478507A137A0442ED
:101DD00001EA03011BD0937A03F0030309B143F036
:101DE000040343F008039910013B91720D2B0BD8AB
:101DF000DFE803F021071B070A152121150A071B3D
:101E00000721D368013BD3605DF8044B7047937A98
:101E100003F003030029E6D043F00403E3E7D368AB
:101E20005DF8044B023BD3607047D3685DF8044B08
:101E30000233D3607047D3685DF8044B0133D3603D
:101E4000704700BFAC8D0220214B10B4D3F8802026
:101E50001368506819780478507A137A044201EABA
:101E600003011BD0937A03F0030309B143F0040389
:101E700043F008039910013B91720D2B0BD8DFE85A
:101E800003F021071B070A152121150A071B07214B
:101E9000D368013BD3605DF8044B7047937A03F03D
:101EA00003030029E6D043F00403E3E7D3685DF8B9
:101EB000044B023BD3607047D3685DF8044B023398
:101EC000D3607047D3685DF8044B0133D36070472B
:101ED000AC8D0220214B10B4D3F8842013685068D5
:101EE00019780478507A137A044201EA03011BD06E
:101EF000937A03F0030309B143F0040343F00803AA
:101F00009910013B91720D2B0BD8DFE803F02107EC
:101F10001B070A152121150A071B0721D368013B5E
:101F2000D3605DF8044B7047937A03F003030029F4
:101F3000E6D043F00403E3E7D3685DF8044B023BCB
:101F4000D3607047D3685DF8044B0233D3607047A9
:101F5000D3685DF8044B0133D3607047AC8D022029
:101F6000214B10B4D3F8882013685068197804788E
:101F7000507A137A044201EA03011BD0937A03F0EA
:101F8000030309B143F0040343F008039910013B34
:101F900091720D2B0BD8DFE803F021071B070A1500
:101FA0002121150A071B0721D368013BD3605DF887
:101FB000044B7047937A03F003030029E6D043F003
:101FC0000403E3E7D3685DF8044B023BD36070473A
:101FD000D3685DF8044B0233D3607047D3685DF873
:101FE000044B0133D3607047AC8D0220214B10B4F9
:101FF000D3F88C201368506819780478507A137AD3
:10200000044201EA03011BD0937A03F0030309B1F0
:1020100043F0040343F008039910013B91720D2B28
:102020000BD8DFE803F021071B070A152121150A49
:10203000071B0721D368013BD3605DF8044B704751
:10204000937A03F003030029E6D043F00403E3E7A7
:10205000D3685DF8044B023BD3607047D3685DF8EA
:10206000044B0233D3607047D3685DF8044B0133EF
:10207000D3607047AC8D0220214B10B4D3F8902070
:102080001368506819780478507A137A044201EA88
:1020900003011BD0937A03F0030309B143F0040357
:1020A00043F008039910013B91720D2B0BD8DFE828
:1020B00003F021071B070A152121150A071B072119
:1020C000D368013BD3605DF8044B7047937A03F00B
:1020D00003030029E6D043F00403E3E7D3685DF887
:1020E000044B023BD3607047D3685DF8044B023366
:1020F000D3607047D3685DF8044B0133D3607047F9
:10210000AC8D0220214B10B4D3F894201368506892
:1021100019780478507A137A044201EA03011BD03B
:10212000937A03F0030309B143F0040343F0080377
:102130009910013B91720D2B0BD8DFE803F02107BA
:102140001B070A152121150A071B0721D368013B2C
:10215000D3605DF8044B7047937A03F003030029C2
:10216000E6D043F00403E3E7D3685DF8044B023B99
:10217000D3607047D3685DF8044B0233D360704777
:10218000D3685DF8044B0133D3607047AC8D0220F7
:10219000214B10B4D3F8982013685068197804784C
:1021A000507A137A044201EA03011BD0937A03F0B8
:1021B000030309B143F0040343F008039910013B02
:1021C00091720D2B0BD8DFE803F021071B070A15CE
:1021D0002121150A071B0721D368013BD3605DF855
:1021E000044B7047937A03F003030029E6D043F0D1
:1021F0000403E3E7D3685DF8044B023BD360704708
:10220000D3685DF8044B0233D3607047D3685DF840
:10221000044B0133D3607047AC8D0220214B10B4C6
:10222000D3F89C201368506819780478507A137A90
:10223000044201EA03011BD0937A03F0030309B1BE
:1022400043F0040343F008039910013B91720D2BF6
:102250000BD8DFE803F021071B070A152121150A17
:10226000071B0721D368013BD3605DF8044B70471F
:10227000937A03F003030029E6D043F00403E3E775
:10228000D3685DF8044B023BD3607047D3685DF8B8
:10229000044B0233D3607047D3685DF8044B0133BD
:1022A000D3607047AC8D0220214B10B4D3F8A0202E
:1022B0001368506819780478507A137A044201EA56
:1022C00003011BD0937A03F0030309B143F0040325
:1022D00043F008039910013B91720D2B0BD8DFE8F6
:1022E00003F021071B070A152121150A071B0721E7
:1022F000D368013BD3605DF8044B7047937A03F0D9
:1023000003030029E6D043F00403E3E7D3685DF854
:10231000044B023BD3607047D3685DF8044B023333
:10232000D3607047D3685DF8044B0133D3607047C6
:10233000AC8D0220214B10B4D3F8A4201368506850
:1023400019780478507A137A044201EA03011BD009
:10235000937A03F0030309B143F0040343F0080345
:102360009910013B91720D2B0BD8DFE803F0210788
:102370001B070A152121150A071B0721D368013BFA
:10238000D3605DF8044B7047937A03F00303002990
:10239000E6D043F00403E3E7D3685DF8044B023B67
:1023A000D3607047D3685DF8044B0233D360704745
:1023B000D3685DF8044B0133D3607047AC8D0220C5
:1023C000214B10B4D3F8A82013685068197804780A
:1023D000507A137A044201EA03011BD0937A03F086
:1023E000030309B143F0040343F008039910013BD0
:1023F00091720D2B0BD8DFE803F021071B070A159C
:102400002121150A071B0721D368013BD3605DF822
:10241000044B7047937A03F003030029E6D043F09E
:102420000403E3E7D3685DF8044B023BD3607047D5
:10243000D3685DF8044B0233D3607047D3685DF80E
:10244000044B0133D3607047AC8D0220214B10B494
:10245000D3F8AC201368506819780478507A137A4E
:10246000044201EA03011BD0937A03F0030309B18C
:1024700043F0040343F008039910013B91720D2BC4
:102480000BD8DFE803F021071B070A152121150AE5
:10249000071B0721D368013BD3605DF8044B7047ED
:1024A000937A03F003030029E6D043F00403E3E743
:1024B000D3685DF8044B023BD3607047D3685DF886
:1024C000044B0233D3607047D3685DF8044B01338B
:1024D000D3607047AC8D0220214B10B4D3F8B020EC
:1024E0001368506819780478507A137A044201EA24
:1024F00003011BD0937A03F0030309B143F00403F3
:1025000043F008039910013B91720D2B0BD8DFE8C3
:1025100003F021071B070A152121150A071B0721B4
:10252000D368013BD3605DF8044B7047937A03F0A6
:1025300003030029E6D043F00403E3E7D3685DF822
:10254000044B023BD3607047D3685DF8044B023301
:10255000D3607047D3685DF8044B0133D360704794
:10256000AC8D022038B5044608460D4618F068FACE
:102570002368024629465B68204698470546204660
:1025800012F044F8284438BD002310B4114C4172B5
:10259000026104600372C36041B1194600E0026940
:1025A00042F82310427A01339A42F8DC0A4B1A6847
:1025B0000AB90CE01A465369002BFBD15061002385
:1025C00043618380C38083725DF8044B7047186059
:1025D000F5E700BFFCE3010070930220344B9FED50
:1025E000356A93ED007ADFED346AB8EEC77A07EE0C
:1025F000900AC6EE075AF8EEE77A67EEA57AF4EE8F
:10260000E67AF1EE10FA2ADC2C4A2D4BC2ED007A64
:10261000F5EEC07A0122F1EE10FA1A603CD49FED7B
:10262000297AF4EEC77AF1EE10FA2CDD264B274911
:10263000274AD1ED007AD361F5EEC07AF1EE10FAB7
:102640002CD4B7EE007AF4EEC77AF1EE10FA27DD5B
:102650004FF480331F49136201230B607047C7EEAC
:10266000065A164B1C48164A0121F2EE027AE5EE94
:10267000A67AC3ED006AFDEEE77A17EE903AF0EE27
:10268000667A036011609FED157A67EE877AFCEE3B
:10269000E77A17EE903ACAE70023C8E70023D9E7A4
:1026A000B0EE677ABEEEC87A17EE103AD2E700BFF6
:1026B00018E00120A6552C4700E0AB46303E002034
:1026C00088E100E0A655AC4680FFFF7F703E002009
:1026D0002CDB012008E100E0243E00204B24BE4713
:1026E000284ADFED296AD2ED007A38B5274B284C0D
:1026F00093ED007A2268F8EE677A4FF4FA7167EE8C
:10270000877A40F6B83087EEA67AFDEEC77A17EEE4
:10271000903A01FB03F303F57A73D21A002AB8BF8B
:10272000524282421DDD1B4A41F657318B421268EC
:1027300018DC41F65833184ADFED186A1278184D44
:1027400003FB02F207EE902AF8EEE77A2B6087EEA1
:10275000A67AFDEEC77A17EE900AFFF73FFF2B68C7
:10276000236038BD0F48D143C90F80FB0202C1EB83
:10277000E2124FF47A7101FB02F29342A8BF1346B2
:10278000D9E700BF3CE701200000FA43C03E00202B
:1027900000E0012018E00120A03E00200000C84217
:1027A000243E0020D34D62102DE9F04F2DED028B19
:1027B000694B1B780A2B89B03DD8684C684B0022C6
:1027C000D4E9000116F06CFD17F01AF80022644BF2
:1027D0000390D4E9020116F063FD17F011F800220E
:1027E0005F4B0490D4E9040116F05AFD17F008F885
:1027F00000225B4B0590D4E9060116F051FD16F05E
:10280000FFFF574B06900022D4E9080116F048FD5F
:1028100016F0F6FF03AA07900021524809F072FA59
:10282000514B00214FF48032D9619A6109B0BDEC5F
:10283000028BBDE8F08F4D4A9FED4D6AD2ED007AD4
:10284000DFED4C6AF8EEE77A4FF47A7286EE277A7B
:1028500002FB03F307EE903AF8EEE77A67EE277A89
:1028600067EEA67A17EE900A16F0C6FC41EC100B44
:1028700041EC180B15F088F935A3D3E9002351EC8E
:10288000100B16F037FEB0EE480AF0EE680ACDE9FC
:10289000000115F019F9DDE900010022364B5BEC6F
:1028A00010AB16F04BFB02460B4600202C4916F0ED
:1028B00021FE002204460D462F4B5046594616F085
:1028C0003DFB00222D4B8046894616F0E9FC22464E
:1028D0002B4616F0E5FC16F093FF224606462B46E3
:1028E000404609F10041039616F0DAFC16F088FF25
:1028F000002204904FF0404350465946059616F08A
:10290000CFFC22462B4616F0CBFC16F079FFDDE912
:10291000002306901849002016F00EFB2B46224695
:1029200016F0BEFC16F06CFF03AA079000210D48BC
:1029300009F0E8F90C4B00214FF480329961DA611B
:1029400009B0BDEC028BBDE8F08F00BFAFF3008093
:10295000000000606666F63F553E0020783E00208D
:102960000000D04144DF0120E0CC012018E001202C
:10297000A6552C47465615390000F03F0000E03FB1
:1029800070B53749374C384A24789FED386A384E4D
:1029900000010B1807EE904A9B681360002BB4BF30
:1029A00003F2FF121A465212F8EEE77A07EE102AE7
:1029B00067EE867AB8EEC77A2E4C86ED007AC7EEBF
:1029C000876A25782C4CFDEEE66AC4ED006A6DB18D
:1029D0002A4A127807EE902AF8EEE77A67EE867AAE
:1029E000C7EE876AFDEEE66AC4ED006A03EBD373B7
:1029F0005B1007EE903AF8EEE77A0B18C7EE876A9D
:102A00001F4E5B681F4D204C3360204A0123FDEEB2
:102A1000E66AC5ED006A23601368002BFCDB0844FE
:102A20001B498289C389013A1203013B02F47F22C8
:102A3000C3F30B0313430B60C82012F0C5FD154B05
:102A40001868FFF7CBFD1449144A01230B601420CA
:102A500082F8203B12F0B8FDBDE87040FFF7A4BE3D
:102A600010ED0100623E002018E0012000007A44D1
:102A7000C03E002090E20120ECEF0120753E0020D6
:102A800080EB0120FCDF012088E100E000F1024042
:102A900004F10240243E002008E100E01CCD0120AA
:102AA00007EE900A9FED0C6ADFED0C6A0C4B0D48A7
:102AB000B8EEE77ADFED0C7A27EE067A10B5E7EE8E
:102AC000267A01241C60FCEEE77A17EE901A08F0D3
:102AD00019FE064B1C6010BD0AD7233C00000143C1
:102AE00088E100E088890220EE7CFF3E08E100E0FA
:102AF00070B5144E3468012C054614D094B9124BAD
:102B0000124801221A60214608F08CFD002DB8BF42
:102B10000335C5F3870211460C4808F0B9FD0C4B8C
:102B200001221A6070BD084B08481C600022114643
:102B300008F0AEFD2946054808F074FD044B1C6002
:102B40003468DBE7503E002088E100E088890220FD
:102B500008E100E0F8B5044615460E460846022195
:102B600012F02CFD2846022112F028FD984A994BBC
:102B700052F83610012001F500772760207252F8D4
:102B80003520607202F5007700206760E060013B4D
:102B9000FDD191F8003292F8002203F00103D20730
:102BA00044BF43F00203DBB2A3723B2E00F2038664
:102BB000DFE816F0F405EA05E005D605CC05C20508
:102BC000B805AE05A4059A05900586057C05720535
:102BD00068055E0554054A05400536052C052205A5
:102BE00018050E050405FA04F004E604DC04D2041A
:102BF000C804BE04B304A8049D04920487047C04A2
:102C000028041E0414040A040004F603EC03E2037F
:102C1000D803CE03C403BA03B003A6039C039203F4
:102C200088037E0374036A0360033C006A4B6B49AC
:102C3000C3F8EC4004223B2012F068FA012323740D
:102C40003B2D00F2B585DFE815F00B030103F70219
:102C5000ED02E302D902CF02C502BB02B102A70214
:102C60009D02930289027F02310227021D02130294
:102C70000902FF01F501EB01E101D701CD01C3011B
:102C8000B901AF01A5019B01910186017B01700192
:102C900065015A014F01440139012E012301180138
:102CA0000D010201F700EC00E100B800AD00A20048
:102CB00097008C00810076006B00600055004A0090
:102CC0003C00454B4549C3F8EC4004223B2012F040
:102CD0001DFA237C0122134423742046F8BD3E4B89
:102CE0003F49C3F8E84004223A2012F00FFA237C4F
:102CF0000122F0E7384B3B49C3F8E4400422392075
:102D000012F004FA237C0122E5E7334B3649C3F87D
:102D1000E0400422382012F0F9F9237C0122DAE79E
:102D20002D4B3249C3F8DC400422372012F0EEF973
:102D3000237C0122CFE7284B2D49C3F8D840042239
:102D4000362012F0E3F9237C0122C4E7224B294903
:102D5000C3F8D4400422352012F0D8F9237C012294
:102D6000B9E71D4B2449C3F8D0400422342012F0A7
:102D7000CDF9237C0122AEE7174B2049C3F8CC40A4
:102D80000422332012F0C2F9237C0122A3E7124B64
:102D90001B49C3F8C8400422322012F0B7F9237C43
:102DA000012298E70C4B1749C3F8C4400422312094
:102DB00012F0ACF9237C01228DE7074B1249C3F8CE
:102DC000C0400422302012F0A1F9237C012282E7C6
:102DD000E8430300C0D40100AC8D0220950400003C
:102DE00059130000CD12000041120000B51100007F
:102DF000291100009D10000011100000850F000037
:102E0000F90E00006D0E0000E10D0000AC4BAD4965
:102E1000C3F8BC4004222F2012F078F9237C012251
:102E200059E7A74BA849C3F8B84004222E2012F056
:102E30006DF9237C01224EE7A14BA449C3F8B440AD
:102E400004222D2012F062F9237C012243E79C4BDF
:102E50009F49C3F8B04004222C2012F057F9237C7C
:102E6000012238E7964B9B49C3F8AC4004222B2043
:102E700012F04CF9237C01222DE7914B9649C3F8BF
:102E8000A84004222A2012F041F9237C012222E7E3
:102E90008B4B9249C3F8A4400422292012F036F942
:102EA000237C012217E7864B8D49C3F8A0400422FA
:102EB000282012F02BF9237C01220CE7804B894952
:102EC000C3F89C400422272012F020F9237C012221
:102ED00001E77B4B8449C3F898400422262012F076
:102EE00015F9237C0122F6E6754B8049C3F894401E
:102EF0000422252012F00AF9237C0122EBE6704B14
:102F00007B49C3F890400422242012F0FFF8237C70
:102F10000122E0E66A4B7749C3F88C400422232063
:102F200012F0F4F8237C0122D5E6654B7249C3F810
:102F300088400422222012F0E9F8237C0122CAE60C
:102F40005F4B6E49C3F884400422212012F0DEF862
:102F5000237C0122BFE65A4B6949C3F88040042212
:102F6000202012F0D3F8237C0122B4E6544B6549AB
:102F7000DC6704221F2012F0C9F8237C0122AAE694
:102F80004F4B61499C6704221E2012F0BFF8237C3E
:102F90000122A0E64A4B5D495C6704221D2012F025
:102FA000B5F8237C012296E6454B59491C6704225B
:102FB0001C2012F0ABF8237C01228CE6404B5549D3
:102FC000DC6604221B2012F0A1F8237C012282E699
:102FD0003B4B51499C6604221A2012F097F8237C3F
:102FE000012278E6364B4D495C660422192012F026
:102FF0008DF8237C01226EE6314B49491C66042280
:10300000182012F083F8237C012264E62C4B4549FA
:10301000DC650422172012F079F8237C01225AE69D
:10302000274B41499C650422162012F06FF8237C3F
:10303000012250E6224B3D495C650422152012F026
:1030400065F8237C012246E61D4B39491C650422A4
:10305000142012F05BF8237C01223CE6184B354922
:10306000DC640422132012F051F8237C012232E6A2
:10307000134B31499C640422122012F047F8237C40
:10308000012228E60E4B2D495C640422112012F027
:103090003DF8237C01221EE6094B29491C640422C9
:1030A000102012F033F8237C012214E6044B25494A
:1030B000DC6304220F2012F029F8237C01220AE6A7
:1030C000AC8D0220550D0000C90C00003D0C000025
:1030D000D92400004D240000C12300003523000046
:1030E000A92200001D2200009121000005210000FE
:1030F00079200000ED1F0000611F0000D51E0000B8
:10310000491E0000BD1D0000311D0000A51C00006F
:10311000191C00008D1B0000011B0000751A000027
:10312000E91900005D190000D118000045180000E1
:10313000B91700002D170000A11600001516000099
:1031400089150000FD140000B34BB4499C630422B0
:103150000E2011F0DBFF237C0122BCE5AE4BB04911
:103160005C6304220D2011F0D1FF237C0122B2E523
:10317000A94BAC491C6304220C2011F0C7FF237C2F
:103180000122A8E5A44BA849DC6204220B2011F01F
:10319000BDFF237C01229EE59F4BA4499C62042233
:1031A0000A2011F0B3FF237C012294E59A4BA04939
:1031B0005C620422092011F0A9FF237C01228AE528
:1031C000954B9C491C620422082011F09FFF237C30
:1031D000012280E5904B9849DC610422072011F020
:1031E00095FF237C012276E58B4B94499C61042258
:1031F000062011F08BFF237C01226CE5864B904961
:103200005C610422052011F081FF237C012262E52C
:10321000814B8C491C610422104611F077FF237CFE
:10322000012258E57C4B8849DC600422032011F020
:103230006DFF237C01224EE5774B84499C6004227C
:10324000022011F063FF237C012244E5724B804988
:103250005C600422012011F059FF237C01223AE531
:103260006D4B7C491C600422002011F04FFF237C31
:10327000012230E5684B7849C3F8E84004223A203F
:1032800011F044FF0123DAE4634B7449C3F8E440CE
:103290000422392011F03AFF0123D0E45E4B70493B
:1032A000C3F8E0400422382011F030FF0123C6E4C7
:1032B000594B6C49C3F8DC400422372011F026FF3B
:1032C0000123BCE4544B6849C3F8D840042236209B
:1032D00011F01CFF0123B2E44F4B6449C3F8D44002
:1032E0000422352011F012FF0123A8E44A4B604963
:1032F000C3F8D0400422342011F008FF01239EE4DB
:10330000454B5C49C3F8CC400422332011F0FEFE4B
:10331000012394E4404B5849C3F8C84004223220AA
:1033200011F0F4FE01238AE43B4B5449C3F8C44036
:103330000422312011F0EAFE012380E4364B50498B
:10334000C3F8C0400422302011F0E0FE012376E4EF
:10335000314B4C49C3F8BC4004222F2011F0D6FE5B
:1033600001236CE42C4B4849C3F8B84004222E20BA
:1033700011F0CCFE012362E4274B4449C3F8B4406A
:1033800004222D2011F0C2FE012358E4224B4049B3
:10339000C3F8B04004222C2011F0B8FE01234EE403
:1033A0001D4B3C49C3F8AC4004222B2011F0AEFE6B
:1033B000012344E4184B3849C3F8A84004222A20CA
:1033C00011F0A4FE01233AE4134B3449C3F8A4409E
:1033D0000422292011F09AFE012330E40E4B3049DB
:1033E000C3F8A0400422282011F090FE012326E417
:1033F000094B2C49C3F89C400422272011F086FE7B
:1034000001231CE4044B2849C3F8984004222620D9
:1034100011F07CFE012312E4AC8D02207114000037
:10342000E5130000B10B0000250B0000990A000015
:103430000D0A000081090000F5080000690800007D
:10344000DD07000051070000C50600003906000036
:10345000AD0500002105000059130000CD12000049
:1034600041120000B5110000291100009D1000005C
:1034700011100000850F0000F90E00006D0E000015
:10348000E10D0000550D0000C90C00003D0C0000CE
:10349000D92400004D240000C12300003523000082
:1034A000A92200001D22000091210000C34BC44945
:1034B000C3F894400422252011F028FE0123FFF7D1
:1034C000BEBBBE4BBF49C3F890400422242011F07C
:1034D0001DFE0123FFF7B3BBB84BBB49C3F88C40BB
:1034E0000422232011F012FE0123FFF7A8BBB34BE7
:1034F000B649C3F888400422222011F007FE0123B8
:10350000FFF79DBBAD4BB249C3F884400422212094
:1035100011F0FCFD0123FFF792BBA84BAD49C3F8A6
:1035200080400422202011F0F1FD0123FFF787BB2A
:10353000A24BA949DC6704221F2011F0E7FD0123FB
:10354000FFF77DBB9D4BA5499C6704221E2011F00F
:10355000DDFD0123FFF773BB984BA1495C67042293
:103560001D2011F0D3FD0123FFF769BB934B9D494B
:103570001C6704221C2011F0C9FD0123FFF75FBB6B
:103580008E4B9949DC6604221B2011F0BFFD0123FC
:10359000FFF755BB894B95499C6604221A2011F010
:1035A000B5FD0123FFF74BBB844B91495C660422B8
:1035B000192011F0ABFD0123FFF741BB7F4B8D4973
:1035C0001C660422182011F0A1FD0123FFF737BB70
:1035D0007A4B8949DC650422172011F097FD0123FD
:1035E000FFF72DBB754B85499C650422162011F011
:1035F0008DFD0123FFF723BB704B81495C650422DD
:10360000152011F083FD0123FFF719BB6B4B7D499A
:103610001C650422142011F079FD0123FFF70FBB74
:10362000664B7949DC640422132011F06FFD0123FD
:10363000FFF705BB614B75499C640422122011F011
:1036400065FD0123FFF7FBBA5C4B71495C64042202
:10365000112011F05BFD0123FFF7F1BA574B6D49C3
:103660001C640422102011F051FD0123FFF7E7BA7A
:10367000524B6949DC6304220F2011F047FD0123FE
:10368000FFF7DDBA4D4B65499C6304220E2011F013
:103690003DFD0123FFF7D3BA484B61495C63042227
:1036A0000D2011F033FD0123FFF7C9BA434B5D49EB
:1036B0001C6304220C2011F029FD0123FFF7BFBA7F
:1036C0003E4B5949DC6204220B2011F01FFD0123FF
:1036D000FFF7B5BA394B55499C6204220A2011F014
:1036E00015FD0123FFF7ABBA344B51495C6204224C
:1036F000092011F00BFD0123FFF7A1BA2F4B4D4913
:103700001C620422082011F001FD0123FFF797BA83
:103710002A4B4949DC610422072011F0F7FC012300
:10372000FFF78DBA254B45499C610422062011F014
:10373000EDFC0123FFF783BA204B41495C61042271
:10374000052011F0E3FC0123FFF779BA1B4B3D493B
:103750001C610422104611F0D9FC0123FFF76FBA57
:10376000164B3949DC600422032011F0CFFC012301
:10377000FFF765BA114B35499C600422022011F015
:10378000C5FC0123FFF75BBA0C4B31495C60042296
:10379000012011F0BBFC0123FFF751BA074B2D4963
:1037A0001C600422002011F0B1FC0123FFF747BA8E
:1037B0000022FFF790BA0023FFF741BAAC8D022038
:1037C0000521000079200000ED1F0000611F0000AE
:1037D000D51E0000491E0000BD1D0000311D000067
:1037E000A51C0000191C00008D1B0000011B00001F
:1037F000751A0000E91900005D190000D1180000D9
:1038000045180000B91700002D170000A116000090
:103810001516000089150000FD1400007114000049
:10382000E5130000B10B0000250B0000990A000011
:103830000D0A000081090000F50800006908000079
:10384000DD07000051070000C50600003906000032
:10385000AD05000021050000F0B534483449067874
:10386000344CDFF800E1344D344A354F354B03C951
:1038700020609EE80300A06095E80300E06007CAAE
:1038800004F1140503C597E8030025F8022B120C78
:103890008BB02A701021F8220A2E93F90030606252
:1038A0004FF0D40562602161274AA5624FF02801DC
:1038B000684608BF002616F075FF6946054604F104
:1038C0002C0017F04BF83346204A2821684616F0A2
:1038D00069FF2C3506466946601917F03FF81C4B06
:1038E0001B783544CBB11B4B1B4A1B7828216846FB
:1038F00016F058FF69460646601917F02FF8174B67
:10390000174A1B782821684616F04CFF3544694653
:103910000646601917F022F835442023ADF8003030
:10392000BDF80030034863530BB0F0BD553E002096
:1039300060E40100C489022070E4010078E4010021
:1039400084E40100BC8902208CE4010098E40100B9
:1039500090E20120753E0020A8E40100A13E002075
:10396000B8E4010068E401003C4B93E80300F0B5C3
:103970003B4D3C4E28600FCE8BB06C460FC4D6F842
:1039800000E0C4F800E06E460FCE374F05F10806A0
:103990000FC60FCFC6F800E04FF4FC7C3F68C5F8B7
:1039A00004C06E460FC66946277005F11B0016F06D
:1039B000D5FF2E4B2E4A6846282116F0F3FE6946A5
:1039C000044605F12B0016F0C9FF2A4B2A4A93F949
:1039D00000306846282116F0E5FE2B34064669467D
:1039E000281916F0BBFF254B254A1B780A2B08BF68
:1039F00000236846282116F0D5FE34446946064661
:103A0000281916F0ABFF1F4A1F4B11681F4A03EB22
:103A1000011368469B68282116F0C4FE344403460F
:103A2000694628191C4416F099FF194B194A684633
:103A3000282116F0B7FE69460646281916F08EFFB3
:103A4000154B164A6846282116F0ACFE3019694617
:103A5000284416F083FF28460BB0F0BDC8E40100EF
:103A6000E8ED0120D0E40100E4E40100F8E4010005
:103A70000CE50100BC89022024E50100553E002030
:103A800034E501005C3E002010ED010048E5010036
:103A900040DE01205CE5010058DB012078E50100F3
:103AA000164A1749174BF0B5D2F800E0164F174EDB
:103AB000174C184D024603C9186097E80300986038
:103AC00096E8030004EB0E14D86095E80300A468A0
:103AD0009C612C3A22F001021025012102F5497760
:103AE0006400022658629A625F60DC611E841D6178
:103AF0005D849982D9821846F0BD00BF5C3E0020EB
:103B00008CE5010004E7012094E501009CE501003B
:103B100010ED0100A4E5010008B5054901220020CF
:103B20000BF018FAFE210348BDE8084005F05CBC24
:103B3000ACE50100D88A022038B5064D0648074C8E
:103B4000294601220BF006FA207028460BF0D8FD1A
:103B5000207038BDACE5010098EB0120D8DB0120D6
:103B600070B5434D434A444996B000240EA8012342
:103B70002C6005F0EFFC16AA4048109B12F8144D7B
:103B80009DF83C1083600473017100F10D031A303D
:103B900012F8011F03F8011B83423849F8D1159B25
:103BA000CB610EA805F0F4FB354E05E00EA805F03C
:103BB00005FC0EA805F0ECFB012230490EA805F02B
:103BC0003DFD0EA805F008FC044618B92B68B3F5B6
:103BD000FA7F3EDB0EA805F0DFFB0028E6D10EA839
:103BE00005F0D8FB014602A810F0A8FD254906A85B
:103BF00010F0A4FD06A902A810F0CEFD002806A82A
:103C000015DB10F05BFD2B6803EB430403EB84032F
:103C10000EA8F41805F0BEFB0146204616F09EFEE5
:103C20002B6801332B6002A810F048FDBEE716494F
:103C30000AA810F083FD0AA902A810F0ADFD044601
:103C40000AA810F03BFD06A810F038FD002CEADBB6
:103C5000D9E70EA805F09CFB0C4B1B8833B10093F1
:103C60000EA823460A4A1E2116F09CFD16B070BD10
:103C7000ACD90120B0E50100D88A022058D9012032
:103C800020700220B4E50100BCE5010064E20120DF
:103C9000C4E501002DE9F843064608F0F5FD0128CA
:103CA0002CDDDFF86490DFF858800025D8F800009C
:103CB000134F05EB4004304608F018FE09EB0424CE
:103CC00001464FF48072204611F078F801353046F5
:103CD00008F02AFE022DE9D13B680133BF2B02D840
:103CE0003B60BDE8F8830022064B3A60064907486E
:103CF0004FF4C0320BF0D4FA054B1870BDE8F883CE
:103D000018EB012084890220E04C0020E0DB012038
:103D1000D8DB01202DE9F0413A4A3B4D0023ADF5B7
:103D20004C7D044680F8F63013700CE008F0DEFDA0
:103D3000364B01464FF4807235480BF0B1FA2870CB
:103D4000204608F0F1FD204608F09EFD00282046A0
:103D5000ECDC304B1B78012B07D02D480BF0BEFC60
:103D600028700DF54C7DBDE8F081294C0022002320
:103D700020460BF0D9FCD4F810804046FFF790FEA7
:103D800001AF044600F1200E20686168A268E36874
:103D90003E460FC6103474453746F5D12068616839
:103DA000A268002307C7002219480BF0BDFC01A937
:103DB000164B17482C220BF073FA42460023144886
:103DC0000BF0B2FCFFF748FD4FF4807201460CA8DF
:103DD00010F0F4FF0CA90D4B0D484FF480720BF05E
:103DE0005FFAFFF7C1FD4FF4007201464CA810F0D6
:103DF000E5FF4CA9054B06484FF400720BF050FA52
:103E0000ABE700BFB4890220D8DB012084890220FF
:103E1000E0DB0120D43E0020F0B5314D2B6891B09D
:103E2000002B4AD12F4C304A138801339BB2B3F593
:103E3000FA7F01D94FF4FA7313802C4B1B78002BB7
:103E400034D02B4B2B491A682B4816F0F9FC284B21
:103E5000244E196807A810F075F8079A0C9B09986A
:103E60000A99089F04920B9A029003F2B27301918F
:103E700000921421214A0397214816F093FC002157
:103E80001D480BF0A1FD0A2220701B491D480BF0B4
:103E90008BF80228207018D00A22174919480BF015
:103EA00083F8012320702B6011B0F0BD104B164930
:103EB0001A68114816F0C4FCC9E71248094C0BF007
:103EC0000DFC002320702B60ADE70E480BF006FCC4
:103ED00009283070E0D108480BF09CFD3070DBE71A
:103EE000F4EF0120D8DB012064E20120D43E002061
:103EF00000D00340E8E5010040DE0120F0E50100CC
:103F000058DB0120E0DB0120E0E501002DE9F04372
:103F1000DFF894C15A4A9CF8003000251570002B38
:103F200000F0A2805F1EFFB2564A574B92F800E0A5
:103F3000DFF87881013707EB470703EB870703F1C9
:103F40000804BEF1000F76D0197A05EB4506A4F1FE
:103F5000080208EB860605F1010921B107CA86E8C7
:103F600007005FFA89F50C33BB4204F10C04E8D179
:103F7000464E8CF800503778A7B17D1EEDB2013562
:103F800005EB4505DFF800C1DFF824E1AD000023B3
:103F90000CEB030207CA0EEB03040C33AB4284E8BC
:103FA0000700F5D13A4B3B491878377008220B24AB
:103FB0000A23CC700B704A708A70002852D00024FB
:103FC000F3B1013BDBB20133334A344F344E354D4C
:103FD00003EB430302EB830E5FFA84FC0023C4B9B6
:103FE00095F80880B8F1000F01D00133DBB20C3234
:103FF000724507F10C0706F10C0605F10C05EED130
:1040000001345FFA84FC60450B702BD911F8013F35
:10401000D6E7BCF1010F05D197F80880B8F1000F81
:10402000E5D0E2E7BCF1020F20D196F80880B8F1A4
:10403000000FDCD0D9E714F8082CA2F164010129A3
:1040400091D9672A8FD0197A05EB4506A4F10802A9
:1040500008EB8606002986D007CA013586E80700E6
:10406000EDB280E7BDE8F0831D4681E7BCF1030FA8
:10407000BDD192F80880B8F1000FB8D0B5E700BF05
:104080006CE001202CDF01203C0E0300283E0020C4
:10409000683E002014DA0120400D030000EE01000C
:1040A00000E40100C40D0300D53E0020C8D8012063
:1040B00054D80120F0B5054B1B688DB004460D4661
:1040C00003A819460FF03EFF02E000BF00D00340F6
:1040D000FF2C00F21481DFE814F0B101AF01AD0153
:1040E000A0019601AB0172018601120112017B0150
:1040F000150163015701120112011201120112018F
:104100001201120112011201120112011201120117
:104110001201120112011201120112011201120107
:1041200012011201120112011201120112011201F7
:1041300012011201120112011201120112011201E7
:1041400012011201120112011201120112011201D7
:1041500012011201120112011201120112011201C7
:1041600012011201120112011201120112011201B7
:1041700012011201120112011201120112011201A7
:104180001201120112011201120112011201120197
:104190001201120112011201120112011201120187
:1041A00012014F014D0145013D01120135012B0165
:1041B0001201120112011201120112011201120167
:1041C0001201120112011201120112011201120157
:1041D0001201120112011201120112011201120147
:1041E0001201120112011201120112011201120137
:1041F0001201120112011201120112011201120127
:104200001201120112011501210111020F02130204
:104210000D0212011201120112011201120112010A
:1042200012011201120112011201120112011201F6
:1042300012011201120112011201120112011201E6
:1042400012011201120112011201120112011201D6
:1042500012011201120112011201120112011201C6
:10426000120112011201120112011201FC01DF01FF
:10427000D301120112011201120112011201CB012C
:10428000C301BB01B901B4011201120112011201F3
:104290001201120112011201120112011201120186
:1042A0001201120112011201120112011201120176
:1042B0001201120112011201120112011201000178
:1042C0001201120112011201120112011201120156
:1042D00012011201120112018E01A04B1B68002B6A
:1042E00000F01F81012B00F0AF81022B07D19C4A07
:1042F0009C4B92E803000A0C186099809A719948C7
:104300000DB0F0BD984A1168984B994A954803EB57
:1043100001130C215B6816F045FAF0E7954B1B780A
:10432000954A904803EB83030C2116F03BFAE6E72D
:10433000924B1B78642B11D08F4A8A480C2116F0BF
:1043400031FADCE78E4B8F4A1B7886480C2116F039
:1043500029FAD4E78C4B1B78642BEDD1814B8B4A27
:104360001A60CCE78A4B844A1B787E480C2116F0F1
:1043700019FAC4E7874BE6E7874B884A1B787948E8
:104380000C2116F00FFABAE7854B1B78002B40F092
:10439000BF80844A734B92E8030018601971AEE73E
:1043A000814B1B68062B00F3BA807049704A6D4838
:1043B00001EB03130C215B6816F0F4F99FE77B4BCC
:1043C0006D4A93F9003067480C2116F0EBF996E737
:1043D000774A784B1168634853F82130644A0C21BE
:1043E00016F0E0F98BE7744B634A1B885D480C219B
:1043F00016F0D8F983E7714B5A4853F825200C2161
:1044000016F0D0F97BE76E4B1B780A2BA6D9634ACE
:1044100054480C2116F0C6F971E76A4B1B68002B53
:104420009CD0694B4F4A1B6813801B0C937066E746
:10443000664BC5E7664A66E7664ACAE7664A674B5F
:10444000C8E7674B1B78002B88D1EAE7654B8AE702
:10445000654B494A9B6843480C2116F0A3F94EE787
:10446000614B454A5B683F480C2116F09BF946E7D3
:104470005D4B414A1B683B480C2116F093F93EE71F
:104480005A4B93F90030012B00F0D080584A354B3D
:1044900007CA03C31A7032E7564B574C196803A872
:1044A0000FF050FD94F90030069F079E089D002BE9
:1044B00048D0012B00F0BC80022B7FF420AF8DE8A8
:1044C000C00005F2B2734D4A26480C2116F06AF975
:1044D00015E7494C049E94F90030059D43B3002B29
:1044E0007FF70DAF00962B46454A1E480C2116F06B
:1044F00059F904E7434B12E7434B3EE7434B0EE7C2
:10450000434B444A1B7817480C2116F04BF9F6E64A
:10451000414A144B92E8030018601971EFE63F4AD4
:10452000E6E63F4A0F4B92E8030083E80300E6E625
:104530002B4600963B4A0B480C2116F033F994F9B0
:104540000030CCE705F2B2738DE8C000364A05486A
:104550000C2116F027F994F90030AAE7503E00200C
:1045600098E601006CEB01205C3E002010ED01009C
:104570002CE60100593E00201CE60100A03E002070
:10458000AC3E002024E60100D83E00204F46460005
:10459000043F0020063F0020623E002010E601009C
:1045A000D43E0020B4E50100643E0020603E0020BF
:1045B000C83E0020383E0020D63E0020EC3E0020C1
:1045C000553E0020B83E002068E60100053F00206F
:1045D000A43E00203CDE0120003F0020083F0020D8
:1045E000A8E20120563E002014700220573E002011
:1045F0007CE6010000D003407AEB012058E6010080
:104600005CE60100743E0020753E0020613E002003
:10461000A13E00206CE60100BCE5010030E601008F
:1046200088E601004CE6010038E60100074A5FE633
:1046300005F2B2738DE8C000054A06480C2116F059
:10464000B1F894F9003037E7034A51E674E6010007
:1046500048E601006CEB012090E6010070B582B0E5
:1046600070B9564A1378194449B200292DDB5A29EA
:10467000A8BF5A2108461170FEF712FA02B070BDA9
:10468000032811D14E4B1B78022BF7D04D4A1368EB
:1046900019440E29A8BF0E2121EAE17108461160D4
:1046A000FEF76EF902B070BD012812D1464A1378A8
:1046B000194449B200290ADB3F29A8BF3F21084617
:1046C0001170FEF715FA02B070BD0146D2E7002165
:1046D000F5E702283FD13D4B1B68002BCED13C4C67
:1046E0003C4D23680093009B2A689B1AB3F5FA7F20
:1046F0002BD2F92B5ED8642B41F2883328BF4FF4BC
:10470000FA63354A35481668006803FB016141F6D3
:10471000573399421CDD324EC343DB0F86FB0060EA
:10472000C3EBE0104FF47A7303FB00F08142A8BFA3
:1047300001462C4B116008461960FDF74FFF2368B6
:104740000193019B2B6002B070BD4FF4FA73D8E760
:1047500041F65831EDE705280ED1234A137803EBD3
:104760004101C9B2092920D93229A8BF32211170CB
:10477000FEF71AF802B070BD04287FF47FAF1B4A21
:104780001B481388A0FB0303C3F3C7031944C829BC
:1047900009DC00290BDB01EB810101EB810189B20E
:1047A000118002B070BD0021FAE70A21DFE741F273
:1047B0008831F5E74FF47A73A3E700BFC1D9012030
:1047C000BCE60120A43E0020BC89022030DE01208E
:1047D0000094022030EB0120243E002018E001204C
:1047E000D34D621000E00120553E0020D63E00204F
:1047F0001F85EB51692870B51AD06A280ED007289A
:1048000040D1AB4AAB4C1388A4FB0343C3F3C703AB
:104810000B44C82B2BDD0023138017E0A64A137826
:104820000B44642B20DC4F2B5CDDDBB213700DE0FE
:10483000A24C23780B44102B14DC032B50DDDBB28D
:104840009F4A2370002582F82830556298284FD15E
:104850009C4A137819443C2911DC00293EDBC9B27B
:10486000117070BD0423EBE750231370EEE7002BAB
:104870003BDB03EB830303EB83039BB2CCE7002119
:10488000117070BD672867D18F4A13781944642965
:104890000DDC31290EDD642911700DD08B4B002207
:1048A0004FF4803159629A611A62DA6170BD322325
:1048B0001370F3E764231370844B00224FF48031AC
:1048C000D9619A615A621A6270BD9728BED1804A36
:1048D000137819443C2921DC0029C0DC3C21BFE7C6
:1048E0001023ADE764231370B0E741F2883393E7F8
:1048F0009B2816D1774A137819440C290EDC00291D
:10490000ADDC0C21ACE70B280DD00D28DDD1724AAF
:10491000137819440129B2DC0029A0DA01211170B1
:1049200070BD96280CD16D4A136819440E2904DC19
:104930000429D8BF0E21116070BD0521116070BD22
:104940009A2840F00481664A137819441429E5DC5A
:10495000002984DC142183E766280BD1614A107892
:10496000052313FB0101C82940DC0E293FF777AF6F
:10497000C82175E764281BD15B4A137819442329A1
:1049800037DC0E2939DD07EE901A9FED587AF8EEE4
:10499000E77AC9B227EE877A5548564BD0ED006AC0
:1049A0001170C7EE267AFDEEE77AC3ED007A70BD8E
:1049B000652809D1504A137819441E2913DC0429AB
:1049C0003FF74DAF1E214BE702281AD14B4A13681F
:1049D00019440E29A8BF0E2121EAE1710846116091
:1049E000FDF7CEFF70BD0521117070BD0F21117054
:1049F00070BD9FED437A0F21CEE79FED427A2321D0
:104A0000CAE7052811D1404A1378194449B2002950
:104A100009DB3F29A8BF3F213C4B117008461970A4
:104A2000FEF766F870BD0021F6E7062811D1384A76
:104A30001378194449B2002909DB5A29A8BF5A2121
:104A4000344B117008461970FEF72AF870BD00212A
:104A5000F6E7042812D1304A137803EB4101C9B2BA
:104A6000092906D93229A8BF32211170FDF79CFE11
:104A700070BD0A211170FDF797FE70BD60B9274A1D
:104A800013681944022904DC0029B8BF022111600F
:104A900070BD0146116070BD01284DD1204A1368D8
:104AA0001944042945DC0029B8BF0421116070BDF8
:104AB000D63E00201F85EB51A03E0020AC3E0020DA
:104AC00084DB0120613E0020D83E00201CE0012054
:104AD000593E0020743E0020D43E00205C3E002061
:104AE000A13E0020043F0020623E002000007A44E6
:104AF000C03E0020ECEF0120063F0020A43E002035
:104B000000606A4600B80847053F0020BC890220C3
:104B1000603E0020C1D90120553E0020003F00200A
:104B20003CDE012003285AD16E4A1368194401293A
:104B300009DD0021116070BD0A28F3D16A4A1368AB
:104B400019440129F5DC0029B8BF0121F3E69928B1
:104B50000DD1664A1078052313FB0101502904DCAE
:104B600009293FF77CAE50217AE60A2178E6D5285C
:104B700020D15F4A5F4C1378A4FB03039B0801EB31
:104B8000810103EB830351FA83F4FF2C0CDC002C2E
:104B90000DDBE3B20820137010F0ECFC214611206D
:104BA000BDE8704010F046BB00231C46F2E7FF232F
:104BB0001C46EFE7D62805D14F4A137883F001034E
:104BC000137070BDCB281DD14C4A4D4892F900306E
:104BD0004C4903705B425BB213700B7070BD0C28C4
:104BE0007FF491AE484A13681944072907DC00296D
:104BF00002DB0729116073D10A23136070BD002303
:104C0000136070BDF22829D1404D414C2B681944E6
:104C1000012924DD3F4900234FF480360120A6619D
:104C2000E3612B60236208603B4E55223046202111
:104C300006F05EFC38B1F28842F0040292B23046CF
:104C4000242106F055FC354E96F90000FDF750FF83
:104C5000334B01221A602B68022B2AD070BD002929
:104C600033DB00F1E02000F1960029604FF00003F3
:104C70004FF480314FF00102A161E36123620260D1
:104C8000D2D0254E40F2731230462A2106F030FC75
:104C90000028D8D088222021304606F029FC0028A0
:104CA000D1D0F288304622F00402242106F020FC04
:104CB000C9E700234FF4803296F90000A361E36155
:104CC0002262BDE87040FDF713BF124800210123A6
:104CD0004FF48036A661E16121622B600360D0E76A
:104CE00070BD00BFB83E0020C83E0020753E0020C9
:104CF000563E0020CDCCCCCCA8E20120573E00206F
:104D000090DE0120C0D90120643E0020503E0020EA
:104D100084E6012088E100E088890220BC89022025
:104D200008E100E0F0B4774A137C012B40F2828066
:104D300072B6D36862B6744C74492268744891F9AB
:104D4000005093FBF5F3934203601EDD714A724BF2
:104D500092F900201A60714A137C012B1FD972B698
:104D6000D36862B66E4A6F4E1568006891F90010FC
:104D700093FBF1F3AB422060336053DC4ADB6A49BA
:104D8000136000200860F0BC70473FDA674A624B4E
:104D900092F900201A60614A137C012BDFD872B6A9
:104DA00092E848001D783778567A137A374205EA38
:104DB00003057FD0937A03F003030DB143F004039E
:104DC00043F008039D10013B95720D2BC8D801A537
:104DD00055F823F0FD4E0000F54E0000ED4E0000AA
:104DE000F54E0000614D0000E54E0000FD4E000054
:104DF000FD4E0000E54E0000614D0000F54E000044
:104E0000ED4E0000F54E0000FD4E0000424B00222A
:104E10001A60A0E74548444990F900000860136013
:104E2000F0BC70473B48404990F9000008601360AF
:104E3000F0BC704772B61368506819780478507ADD
:104E4000137A044201EA03012CD0937A03F003039E
:104E500009B143F0040343F008039910013B917238
:104E60000D2B3FF666AF01A151F823F0DD4E000097
:104E7000D54E0000CD4E0000D54E0000334D000051
:104E8000C54E0000DD4E0000DD4E0000C54E0000A6
:104E9000334D0000D54E0000CD4E0000D54E000031
:104EA000DD4E0000937A03F003030029D5D043F0D0
:104EB0000403D2E7937A03F00303002D82D043F07A
:104EC00004037FE7D368023BD36033E7D368023340
:104ED000D3602FE7D368013BD3602BE7D36801335E
:104EE000D36027E7D368023BD3603AE7D368023345
:104EF000D36036E7D368013BD36032E7D368013330
:104F0000D3602EE704E00120B0890220343E002067
:104F1000E8EF0120C0D9012024DF012068E2012050
:104F2000DCDB0120FCEF0120F8DF012090DE012016
:104F300008B5074807F0FEFD064807F0FBFD0648E8
:104F400007F0F8FD0548BDE8084007F0F3BD00BFD5
:104F5000C48A0220FCD90120C4D90120D4D901205F
:104F600008B50221242010F029FB02211D2010F099
:104F700025FB0221252010F021FB2620022110F024
:104F80001DFB6420BDE8084010F01EBBF0B583B0E7
:104F900006460EF057FF07460EF0AAFE05463846B5
:104FA0000EF098FE1A4B93F90030CBB944B2264468
:104FB000172E20DD1C46EDB2694638460EF0A6FDE0
:104FC00068468DF801508DF802400EF0BDFE10F0DD
:104FD0001FF968460EF0B8FE0EF084FF03B0F0BD76
:104FE000012B0ED16AB295193B2D08DC002D0DDB8B
:104FF000EDB2C4B2E0E7002E06DBF4B2DBE7002539
:10500000F7E7EDB2C4B2D7E71724D4E73B25F0E7C2
:105010007AEB012070B582B006460EF013FF05460C
:105020000EF082FE044628460EF070FE264B93F9E1
:105030000030DBB922B2324440F2E9739A4221DDFA
:105040003124C6B2694628460EF060FD68468DF8E8
:1050500005608DF806400EF077FE10F0D9F868462E
:105060000EF072FE0EF03EFF02B070BD012B0FD1AC
:1050700041B231440C291DDC002923DDCEB24E346F
:10508000E4B2DFE740F2E2739A4215DC3724D8E756
:10509000022B14D10EF0D6FE0C4D05FB060528465A
:1050A0000EF042FE044628460EF030FE4E34C6B2E4
:1050B000E4B2C7E71E46E2E74E32D4B2C1E74E344F
:1050C000E4B2BEE70C26DAE77AEB0120805101005A
:1050D000944A954B12881B7806EE902A2DE9F047EA
:1050E000F8EE666A3BB1914B1B7807EE903AF8EE0A
:1050F000E77A66EEA76A8E498E4A0B68DFF850A2FF
:105100008D4C10688D4E9FED8E7A002201339446AF
:105110000B60CAF80020964621460422012736F883
:10512000023F013303EB83035B0007EE903AF8EE96
:10513000E77A8242C1ED047A07F1010301F1080127
:105140000CD9F4EEE67AF1EE10FA37EE277ADFB2F8
:1051500004DDF0EE676A96464FF0010C0232F02A49
:10516000DDD1BCF1000F0BD1764B1B78002B40F04A
:10517000D680754A1360754B00221A70BDE8F0871F
:10518000CAF800E0724ABEF1000FEDD007EE907A47
:1051900037EE667AF8EEE77AB0EE006AC7EE275A85
:1051A000C6EEA57AF4EEC67AF1EE10FA02D5002327
:1051B0001360D9E7634B01221A70664B1A78752A7F
:1051C00011DC654904EBC203F6EE006AD3ED007A08
:1051D00093ED027A77EE877A083367EEA67A43ED8D
:1051E000017A8B42F2D1DFF894C19CF80060B242A0
:1051F0004ADA5A4FDFED5A4ADFED5A6A9FED5A5AA2
:1052000004EB820204EB86060021F0EE085AB2EEAF
:10521000046AB2EC017A554DC7EE257AF4EEE47AD1
:10522000F1EE10FA07DCFCEEE77A17EE903A1B027B
:1052300003F478431DB2C7EE067A4FF4FC63F4EE34
:10524000E67AF1EE10FA07DCFCEEE77A17EE908AC8
:105250004FEAC80808EA0303C7EE057A4FF01F08B3
:10526000F4EEE67AF1EE10FA05DCFCEEE77A17EEE2
:10527000908AC8F3C4082B4348EA0303B24227F8D4
:10528000113001F10101C4D1DFF8BC800026864550
:10529000C8F800607FF66FAF354B2C4A1B68DFED16
:1052A000286ADFF8DCE00121013B8B421170CEED72
:1052B000006A01D9BDE8F0879CF800708742034678
:1052C00024DD2C4A8100B446B1460A440C4492EDD8
:1052D000007AF4EC017A77EE877AF4EEE67AF1EE72
:1052E00010FAE2EC017A04DD0126F0EE676AB146BD
:1052F0009C4601339F42EAD1B9F1000F0CD12EB187
:105300008445C8F800C088BFCAF800C01A4A13888C
:1053100001331380BDE8F087CEED006AEFE74FF070
:10532000000E4AE7D63E002090E20120A13E002078
:10533000D48A0220ECEF0120BCE2012036CD01200E
:105340000000000098890220ECE60120F0EF012027
:105350003CE70120583E00206CE6012084E001205B
:1053600000007A4300007F430000204200F8FFFF66
:105370002C3E002054E70120F8EF0120BC3E002025
:10538000C089022043090DD14000C3B21F20002272
:10539000022902D052105B1040105B0103EBC223C4
:1053A00018447047012B05D1C04300F01F003F2374
:1053B0000022EDE7022B04D100F01F023F23002062
:1053C000E6E7032B08D100F01F035B00C3F13F03A6
:1053D000DBB200201F22DBE700200346D7E700BF37
:1053E0002DE9F04F83B0BDF930400192002C22DD51
:1053F0001FFA80FB0C440BEB03070E4699460FFA8D
:1054000084FABFB24FF00008B9F1000F0EDD019B26
:105410005C4603EB480521B2013435F8023B0748EE
:105420003246A4B20CF07EF9A742F4D1013636B26E
:105430005645C844E8D103B0BDE8F08F48EB0120E1
:1054400010B592B0014601A80FF078F9002332227E
:1054500001A805A90FF086F905A905480EF0DAF9AB
:10546000044601A80FF02AF9A0B212B010BD00BF87
:1054700048EB012030B50D4B0D4D1C782B78013CCD
:105480001844844283B00FDB0028B4BFE4B2C4B236
:105490000021EB2300930191F0232D2205482C706D
:1054A0000CF0FEFB03B030BD0024F1E7683E0020A5
:1054B00091E2012048EB012070B5204B1B68032BC3
:1054C00084B013D01E4A1F4B92ED007AD3ED006AD0
:1054D000B8EEC77AC7EE267AFDEEE77A17EE903A75
:1054E000EB2B03DC184A1268012A14D9174B184811
:1054F0001B6899B2CE1C3E221BB24FF6FF753724B3
:105500000339019309B233B20395029400920DF06E
:1055100079FC04B070BD0F4A0D481288039299B20D
:10552000CD1C1BB245243E220339019309B22BB294
:10553000029400920DF066FCD8E700BF2C3E0020DC
:10554000243E0020C03E002030DE0120ECEF012090
:1055500048EB0120C43E0020E9B12DE9F041DFF81D
:105560003C8082B00D46174606B200240134A542A5
:105570000ED0E307FAD5B8F8003000933A1B12B208
:105580000A233146044801340CF010FAA542F0D148
:1055900002B0BDE8F081704748EB0120AE3E00202C
:1055A0002DE9F04FFBB00DF10A090DF1FA0A0020C8
:1055B0002F4E304F4D465446034636F8021F01EB3E
:1055C000830287FB02E3D217C2EB6303D129A8BF92
:1055D000D1210230D12B1A46A8BFD122EA2824F8C3
:1055E000021F25F8022F9BB2E7D10DF1F40B042521
:1055F00003E00235CB45ADB237D03AF8024F1E4832
:10560000E4B2A4F11E062FB24FF6205326EAE67646
:10561000009339463346462239F8028F0CF0B6F92A
:105620004FF6E07306F146023946009312481E23F6
:105630000CF0ACF9002004F146020090C4F1D20352
:1056400039460D480CF0A2F95FFA88F2042AD0D945
:105650004FF6FF73009341323946052306480CF09C
:1056600095F90235CB45ADB2C7D17BB0BDE8F08F1F
:1056700036CD01206766666648EB012010B50F4CF9
:10568000002120460CF0D8FC204600210CF0FCFE46
:1056900020464FF6FF710EF03FF9204600210CF036
:1056A000BDFC0022204611460EF01AF920462822A1
:1056B0004621BDE810400CF0F9BD00BF48EB0120C9
:1056C0002DE9F0418CB00DF1FF3600250746B046BC
:1056D0002C4628460FF022FB08F8010F444008230F
:1056E00014F0010F4FEA540203F1FF3314BF82F0AC
:1056F0008C04C4F3470413F0FF03F1D101352F2DBF
:10570000E7D1F4B99DF82D30362B03D020460CB0EC
:10571000BDE8F0819DF82C30312BF7D19DF82B306E
:10572000302BF3D19DF82A30302BEFD1013F0DF112
:105730002F0316F8012F07F8012F9E42F9D10120FF
:10574000E5E718460CB0BDE8F08100BFF8B50025CC
:10575000471E2C4617F8016F0823744014F0010F00
:105760004FEA540203F1FF3314BF82F08C04C4F3F8
:10577000470413F0FF03F1D128460FF0CFFA864219
:1057800009D0314628460FF0E3FA28460FF0C6FA52
:105790003B78834204D101352E2DDBD1002600E079
:1057A0000126214628460FF0D3FA28460FF0B6FA14
:1057B00084420CBF30460120F8BD00BFF0B58DB06B
:1057C0006846FFF77DFF0446A0B176499DF8222088
:1057D000754BBDF802709DF82A609DF82B509DF81E
:1057E0002C000F80012A9DF82D101E705D7098709E
:1057F000D97002D020460DB0F0BD6C4B9DF80870FA
:105800006B4D1F606B4E9DF809702F606A489DF8C4
:105810000A706A4937606A4B9DF80670694D0760E7
:105820000A6069489DF8042068491A602A609DF85A
:1058300005309DF82850664E664F9DF8292003607C
:1058400008200A7033603D700FF094FE2946112045
:105850000FF0F0FC3568002D00F08B80022D00F079
:105860009B80012D00F08F8000215B485B4F5C4DD9
:105870000CF0D4FB316858485A4E0EF017FF9DF8D3
:105880001B30594859495A4A03EB830303EB8303FE
:1058900033809DF807609DF8183006703B709DF8C6
:1058A00019609DF81A00059B2E7008701370514EF8
:1058B000514F524DFCF778FF9DF90B30504851493C
:1058C000514A0370337018469DF81C30049E3B709B
:1058D0009DF90C302E600B701370FDF709F99DF8DF
:1058E0002330DFF850E1494A494F9DF825009DF8E3
:1058F00026609DF82750DFF840C1106059B25B4226
:105900008EF80030DFF834E139705660414F956011
:105910009DF824208CF800108EF800203E499DF858
:105920001D203A703D4A9DF81E700F703C499DF84D
:105930002070177083193B4A9DF821700F70EB425D
:105940009DF81F1011703FF455AF0221FFF71AFDAB
:10595000354B022118803046FFF714FD334B0121EF
:1059600018802846FFF70EFD314B188020460DB0F9
:10597000F0BD294618480CF087FD294616480CF062
:105980005BFB35686AE7002113480CF07DFD0021C0
:1059900011480CF051FB67E700210F480CF04CFB5D
:1059A00035685EE730DA012050DB0120643E0020DC
:1059B0005C3E0020A43E0020C83E0020B83E0020EF
:1059C00030DE01203CDE0120003F0020A8E2012063
:1059D0002C3E0020563E002048EB0120063F0020D0
:1059E000623E0020D63E0020D43E0020043F00202E
:1059F000553E0020053F0020AC3E0020243E002004
:105A0000BC890220603E0020C1D901201470022010
:105A1000C0D90120593E0020613E0020753E002083
:105A2000A13E0020743E0020AE3E0020C43E002077
:105A3000CC3E002090DE0120573E0020343E002066
:105A4000F0B54C4D4C4C4D4E2D6824684C48366892
:105A50004C4B4D4F00683F681B884C494C4ADFF85F
:105A600088E112888FB0A1FB03138DF810508DF8D8
:105A70001240484D484C8DF81160484E2D688DF805
:105A80002A002478464836688DF80C708DF80E5040
:105A90008DF80F40434F444D444C00788DF80D6015
:105AA000434E3F782D7824688DF82100DB0841486B
:105AB00036788DF820708DF822508DF823300694BA
:105AC000013240F2F2353C4F3C4C3D4B0078ADF892
:105AD0000A208DF824603B49ADF808503A4E3B4D02
