:1000000000000320D1010000294F0100E14E010052
:10001000E14E0100E14E0100E14E0100E14E010020
:10002000E14E0100E14E0100E14E0100294F0100C7
:10003000294F0100E14E01001D6701002168010008
:10004000294F0100294F0100294F0100294F0100CC
:10005000294F0100294F0100294F0100294F0100BC
:10006000294F0100294F0100294F0100294F0100AC
:10007000294F0100294F0100294F0100294F01009C
:10008000294F0100294F0100294F0100294F01008C
:10009000294F0100294F0100294F0100294F01007C
:1000A0009D810100A9810100294F0100294F010014
:1000B000294F0100294F0100294F01006968010003
:1000C000294F010095690100294F0100C16A010013
:1000D000294F0100B96B0100294F0100294F010090
:1000E000294F0100294F0100294F0100294F01002C
:1000F000294F0100294F0100294F0100294F01001C
:10010000294F0100294F0100294F0100294F01000B
:10011000294F01001D560100294F0100294F010000
:10012000294F0100294F0100294F0100294F0100EB
:10013000294F0100294F0100294F0100294F0100DB
:1001400009440100294F0100B16C0100294F010051
:10015000294F0100294F0100294F0100294F0100BB
:10016000294F0100294F0100B5810100294F0100ED
:10017000294F0100294F0100294F0100294F01009B
:10018000294F0100294F0100294F0100294F01008B
:10019000294F0100294F0100A96D0100294F0100DD
:1001A000294F0100294F0100294F0100294F01006B
:1001B000294F0100294F0100294F0100294F01005B
:1001C000294F0100294F0100294F0100294F01004B
:1001D0005C4B4CF2205210B51A804DF628121A8052
:1001E00000BF00BF14F0A4FE574B4FF030621A60FE
:1001F000564A9A60564ADA60564B4FF470021A60BB
:10020000554B564A1A60564A136813F4807304D14A
:1002100054490B604FF4A8531360534B1A781107DD
:1002200003D51A7842F008021A70504B5049AA229E
:100230001A70504A504B8B4204D252F8040F43F8C4
:10024000040BF8E74D4B4E4900228B4202D243F893
:10025000042BFAE74B494C4A002352F8230041F89B
:1002600023000133742BF8D1484B494A802103F80D
:10027000011B9342FBD1474B424A1A60464B8A22EC
:100280001A70A3F5805324225A70A0221A709A790A
:100290009207FCD59A79D406FCD4404A937903F0AE
:1002A0000C03082BFAD13E4B60221A7002331A78E5
:1002B000802AFCD1394B01221A715D225A719A7938
:1002C0009006FCD59979354A4906FBD5354B364918
:1002D00019600021596020231370937903F00C03F7
:1002E0000C2BFAD1314B324A1A60324B324A1A6027
:1002F00000225A60072243F8042C304AC3F80C2D20
:1003000062B614F0FBFF174B1B68DA0705D52C48C3
:1003100014F076FF2B4B2C4A1A602C4B1B785B0693
:1003200009D5284C284B22689A4204D1244814F05D
:1003300067FF0023236019F0A3FF14F0FFFD14F002
:100340002DFDFEE70E20054030800440823F040072
:100350000100002B88ED00E0002008E0030000858C
:1003600010D0034014D0034002D0074000E0074003
:10037000C84C002090260300303D0020D04C0020C7
:1003800010C30220003800200000000000E400E05C
:1003900064E400E008ED00E0005006400040064044
:1003A00001E007404480044000000602048004404D
:1003B000C010070014E000E01FBF02000000202072
:1003C000A2876D5F1CE00340A5C3945A00F007406C
:1003D000FFFFFFFFFFFFFFFFFFFFFFFFFFFFFFFF2D
:1003E000FFFFFFFFFFFFFFFFFFFFFFFFFFFFFFFF1D
:1003F000FFFFFFFFFFFFFFFFFFFFFFFFFFFFFFFF0D
:10040000FFFFFFFFFFFFFFFFFFFFFFFFDEF9FFFF23
:1004100010B5054C237833B9044B13B10448AFF33E
:1004200000800123237010BDD04C0020000000008C
:100430008C260300084B10B51BB108490848AFF3E0
:1004400000800848036803B910BD074B002BFBD0A0
:10045000BDE81040184700BF00000000D44C002049
:100460008C260300C84C00200000000010B5044B8F
:10047000044640F8183B09F065F8204610BD00BF5F
:100480009CFC010014F0B6BE10B5044613F074FFD6
:10049000204610BD214B10B49A6A13685068197831
:1004A0000478507A137A044201EA03011BD0937A4C
:1004B00003F0030309B143F0040343F00803991068
:1004C000013B91720D2B0BD8DFE803F021071B07CE
:1004D0000A152121150A071B0721D368013BD360A8
:1004E0005DF8044B7047937A03F003030029E6D0CC
:1004F00043F00403E3E7D3685DF8044B023BD360A9
:100500007047D3685DF8044B0233D3607047D368FB
:100510005DF8044B0133D360704700BF4CB8022034
:10052000214B10B49A6E1368506819780478507A89
:10053000137A044201EA03011BD0937A03F0030308
:1005400009B143F0040343F008039910013B917291
:100550000D2B0BD8DFE803F021071B070A1521211B
:10056000150A071B0721D368013BD3605DF8044BD4
:100570007047937A03F003030029E6D043F00403A5
:10058000E3E7D3685DF8044B023BD3607047D36860
:100590005DF8044B0233D3607047D3685DF8044BB9
:1005A0000133D360704700BF4CB80220214B10B418
:1005B000DA6E1368506819780478507A137A044216
:1005C00001EA03011BD0937A03F0030309B143F05E
:1005D000040343F008039910013B91720D2B0BD8D3
:1005E000DFE803F021071B070A152121150A071B65
:1005F0000721D368013BD3605DF8044B7047937AC1
:1006000003F003030029E6D043F00403E3E7D368D3
:100610005DF8044B023BD3607047D3685DF8044B30
:100620000233D3607047D3685DF8044B0133D36065
:10063000704700BF4CB80220214B10B41A6F1368EA
:10064000506819780478507A137A044201EA030159
:100650001BD0937A03F0030309B143F0040343F082
:1006600008039910013B91720D2B0BD8DFE803F0C2
:1006700021071B070A152121150A071B0721D3682B
:10068000013BD3605DF8044B7047937A03F003039A
:100690000029E6D043F00403E3E7D3685DF8044B98
:1006A000023BD3607047D3685DF8044B0233D360DC
:1006B0007047D3685DF8044B0133D360704700BFC7
:1006C0004CB80220214B10B45A6F13685068197847
:1006D0000478507A137A044201EA03011BD0937A1A
:1006E00003F0030309B143F0040343F00803991036
:1006F000013B91720D2B0BD8DFE803F021071B079C
:100700000A152121150A071B0721D368013BD36075
:100710005DF8044B7047937A03F003030029E6D099
:1007200043F00403E3E7D3685DF8044B023BD36076
:100730007047D3685DF8044B0233D3607047D368C9
:100740005DF8044B0133D360704700BF4CB8022002
:10075000214B10B49A6F1368506819780478507A56
:10076000137A044201EA03011BD0937A03F00303D6
:1007700009B143F0040343F008039910013B91725F
:100780000D2B0BD8DFE803F021071B070A152121E9
:10079000150A071B0721D368013BD3605DF8044BA2
:1007A0007047937A03F003030029E6D043F0040373
:1007B000E3E7D3685DF8044B023BD3607047D3682E
:1007C0005DF8044B0233D3607047D3685DF8044B87
:1007D0000133D360704700BF4CB80220214B10B4E6
:1007E000DA6F1368506819780478507A137A0442E3
:1007F00001EA03011BD0937A03F0030309B143F02C
:10080000040343F008039910013B91720D2B0BD8A0
:10081000DFE803F021071B070A152121150A071B32
:100820000721D368013BD3605DF8044B7047937A8E
:1008300003F003030029E6D043F00403E3E7D368A1
:100840005DF8044B023BD3607047D3685DF8044BFE
:100850000233D3607047D3685DF8044B0133D36033
:10086000704700BF4CB80220214B10B4D3F8802051
:100870001368506819780478507A137A044201EAB0
:1008800003011BD0937A03F0030309B143F004037F
:1008900043F008039910013B91720D2B0BD8DFE850
:1008A00003F021071B070A152121150A071B072141
:1008B000D368013BD3605DF8044B7047937A03F033
:1008C00003030029E6D043F00403E3E7D3685DF8AF
:1008D000044B023BD3607047D3685DF8044B02338E
:1008E000D3607047D3685DF8044B0133D360704721
:1008F0004CB80220214B10B4D3F884201368506800
:1009000019780478507A137A044201EA03011BD063
:10091000937A03F0030309B143F0040343F008039F
:100920009910013B91720D2B0BD8DFE803F02107E2
:100930001B070A152121150A071B0721D368013B54
:10094000D3605DF8044B7047937A03F003030029EA
:10095000E6D043F00403E3E7D3685DF8044B023BC1
:10096000D3607047D3685DF8044B0233D36070479F
:10097000D3685DF8044B0133D36070474CB8022054
:10098000214B10B4D3F88820136850681978047884
:10099000507A137A044201EA03011BD0937A03F0E0
:1009A000030309B143F0040343F008039910013B2A
:1009B00091720D2B0BD8DFE803F021071B070A15F6
:1009C0002121150A071B0721D368013BD3605DF87D
:1009D000044B7047937A03F003030029E6D043F0F9
:1009E0000403E3E7D3685DF8044B023BD360704730
:1009F000D3685DF8044B0233D3607047D3685DF869
:100A0000044B0133D36070474CB80220214B10B423
:100A1000D3F88C201368506819780478507A137AC8
:100A2000044201EA03011BD0937A03F0030309B1E6
:100A300043F0040343F008039910013B91720D2B1E
:100A40000BD8DFE803F021071B070A152121150A3F
:100A5000071B0721D368013BD3605DF8044B704747
:100A6000937A03F003030029E6D043F00403E3E79D
:100A7000D3685DF8044B023BD3607047D3685DF8E0
:100A8000044B0233D3607047D3685DF8044B0133E5
:100A9000D36070474CB80220214B10B4D3F890209B
:100AA0001368506819780478507A137A044201EA7E
:100AB00003011BD0937A03F0030309B143F004034D
:100AC00043F008039910013B91720D2B0BD8DFE81E
:100AD00003F021071B070A152121150A071B07210F
:100AE000D368013BD3605DF8044B7047937A03F001
:100AF00003030029E6D043F00403E3E7D3685DF87D
:100B0000044B023BD3607047D3685DF8044B02335B
:100B1000D3607047D3685DF8044B0133D3607047EE
:100B20004CB80220214B10B4D3F8942013685068BD
:100B300019780478507A137A044201EA03011BD031
:100B4000937A03F0030309B143F0040343F008036D
:100B50009910013B91720D2B0BD8DFE803F02107B0
:100B60001B070A152121150A071B0721D368013B22
:100B7000D3605DF8044B7047937A03F003030029B8
:100B8000E6D043F00403E3E7D3685DF8044B023B8F
:100B9000D3607047D3685DF8044B0233D36070476D
:100BA000D3685DF8044B0133D36070474CB8022022
:100BB000214B10B4D3F89820136850681978047842
:100BC000507A137A044201EA03011BD0937A03F0AE
:100BD000030309B143F0040343F008039910013BF8
:100BE00091720D2B0BD8DFE803F021071B070A15C4
:100BF0002121150A071B0721D368013BD3605DF84B
:100C0000044B7047937A03F003030029E6D043F0C6
:100C10000403E3E7D3685DF8044B023BD3607047FD
:100C2000D3685DF8044B0233D3607047D3685DF836
:100C3000044B0133D36070474CB80220214B10B4F1
:100C4000D3F89C201368506819780478507A137A86
:100C5000044201EA03011BD0937A03F0030309B1B4
:100C600043F0040343F008039910013B91720D2BEC
:100C70000BD8DFE803F021071B070A152121150A0D
:100C8000071B0721D368013BD3605DF8044B704715
:100C9000937A03F003030029E6D043F00403E3E76B
:100CA000D3685DF8044B023BD3607047D3685DF8AE
:100CB000044B0233D3607047D3685DF8044B0133B3
:100CC000D36070474CB80220214B10B4D3F8A02059
:100CD0001368506819780478507A137A044201EA4C
:100CE00003011BD0937A03F0030309B143F004031B
:100CF00043F008039910013B91720D2B0BD8DFE8EC
:100D000003F021071B070A152121150A071B0721DC
:100D1000D368013BD3605DF8044B7047937A03F0CE
:100D200003030029E6D043F00403E3E7D3685DF84A
:100D3000044B023BD3607047D3685DF8044B023329
:100D4000D3607047D3685DF8044B0133D3607047BC
:100D50004CB80220214B10B4D3F8A420136850687B
:100D600019780478507A137A044201EA03011BD0FF
:100D7000937A03F0030309B143F0040343F008033B
:100D80009910013B91720D2B0BD8DFE803F021077E
:100D90001B070A152121150A071B0721D368013BF0
:100DA000D3605DF8044B7047937A03F00303002986
:100DB000E6D043F00403E3E7D3685DF8044B023B5D
:100DC000D3607047D3685DF8044B0233D36070473B
:100DD000D3685DF8044B0133D36070474CB80220F0
:100DE000214B10B49A6C1368506819780478507AC3
:100DF000137A044201EA03011BD0937A03F0030340
:100E000009B143F0040343F008039910013B9172C8
:100E10000D2B0BD8DFE803F021071B070A15212152
:100E2000150A071B0721D368013BD3605DF8044B0B
:100E30007047937A03F003030029E6D043F00403DC
:100E4000E3E7D3685DF8044B023BD3607047D36897
:100E50005DF8044B0233D3607047D3685DF8044BF0
:100E60000133D360704700BF4CB80220214B10B44F
:100E7000DA6C1368506819780478507A137A04424F
:100E800001EA03011BD0937A03F0030309B143F095
:100E9000040343F008039910013B91720D2B0BD80A
:100EA000DFE803F021071B070A152121150A071B9C
:100EB0000721D368013BD3605DF8044B7047937AF8
:100EC00003F003030029E6D043F00403E3E7D3680B
:100ED0005DF8044B023BD3607047D3685DF8044B68
:100EE0000233D3607047D3685DF8044B0133D3609D
:100EF000704700BF4CB80220214B10B41A6D136824
:100F0000506819780478507A137A044201EA030190
:100F10001BD0937A03F0030309B143F0040343F0B9
:100F200008039910013B91720D2B0BD8DFE803F0F9
:100F300021071B070A152121150A071B0721D36862
:100F4000013BD3605DF8044B7047937A03F00303D1
:100F50000029E6D043F00403E3E7D3685DF8044BCF
:100F6000023BD3607047D3685DF8044B0233D36013
:100F70007047D3685DF8044B0133D360704700BFFE
:100F80004CB80220214B10B45A6D13685068197880
:100F90000478507A137A044201EA03011BD0937A51
:100FA00003F0030309B143F0040343F0080399106D
:100FB000013B91720D2B0BD8DFE803F021071B07D3
:100FC0000A152121150A071B0721D368013BD360AD
:100FD0005DF8044B7047937A03F003030029E6D0D1
:100FE00043F00403E3E7D3685DF8044B023BD360AE
:100FF0007047D3685DF8044B0233D3607047D36801
:101000005DF8044B0133D360704700BF4CB8022039
:10101000214B10B49A6D1368506819780478507A8F
:10102000137A044201EA03011BD0937A03F003030D
:1010300009B143F0040343F008039910013B917296
:101040000D2B0BD8DFE803F021071B070A15212120
:10105000150A071B0721D368013BD3605DF8044BD9
:101060007047937A03F003030029E6D043F00403AA
:10107000E3E7D3685DF8044B023BD3607047D36865
:101080005DF8044B0233D3607047D3685DF8044BBE
:101090000133D360704700BF4CB80220214B10B41D
:1010A000DA6D1368506819780478507A137A04421C
:1010B00001EA03011BD0937A03F0030309B143F063
:1010C000040343F008039910013B91720D2B0BD8D8
:1010D000DFE803F021071B070A152121150A071B6A
:1010E0000721D368013BD3605DF8044B7047937AC6
:1010F00003F003030029E6D043F00403E3E7D368D9
:101100005DF8044B023BD3607047D3685DF8044B35
:101110000233D3607047D3685DF8044B0133D3606A
:10112000704700BF4CB80220214B10B41A6E1368F0
:10113000506819780478507A137A044201EA03015E
:101140001BD0937A03F0030309B143F0040343F087
:1011500008039910013B91720D2B0BD8DFE803F0C7
:1011600021071B070A152121150A071B0721D36830
:10117000013BD3605DF8044B7047937A03F003039F
:101180000029E6D043F00403E3E7D3685DF8044B9D
:10119000023BD3607047D3685DF8044B0233D360E1
:1011A0007047D3685DF8044B0133D360704700BFCC
:1011B0004CB80220214B10B45A6E1368506819784D
:1011C0000478507A137A044201EA03011BD0937A1F
:1011D00003F0030309B143F0040343F0080399103B
:1011E000013B91720D2B0BD8DFE803F021071B07A1
:1011F0000A152121150A071B0721D368013BD3607B
:101200005DF8044B7047937A03F003030029E6D09E
:1012100043F00403E3E7D3685DF8044B023BD3607B
:101220007047D3685DF8044B0233D3607047D368CE
:101230005DF8044B0133D360704700BF4CB8022007
:10124000214B10B49A6B1368506819780478507A5F
:10125000137A044201EA03011BD0937A03F00303DB
:1012600009B143F0040343F008039910013B917264
:101270000D2B0BD8DFE803F021071B070A152121EE
:10128000150A071B0721D368013BD3605DF8044BA7
:101290007047937A03F003030029E6D043F0040378
:1012A000E3E7D3685DF8044B023BD3607047D36833
:1012B0005DF8044B0233D3607047D3685DF8044B8C
:1012C0000133D360704700BF4CB80220214B10B4EB
:1012D000DA6B1368506819780478507A137A0442EC
:1012E00001EA03011BD0937A03F0030309B143F031
:1012F000040343F008039910013B91720D2B0BD8A6
:10130000DFE803F021071B070A152121150A071B37
:101310000721D368013BD3605DF8044B7047937A93
:1013200003F003030029E6D043F00403E3E7D368A6
:101330005DF8044B023BD3607047D3685DF8044B03
:101340000233D3607047D3685DF8044B0133D36038
:10135000704700BF4CB80220214B10B41A6C1368C0
:10136000506819780478507A137A044201EA03012C
:101370001BD0937A03F0030309B143F0040343F055
:1013800008039910013B91720D2B0BD8DFE803F095
:1013900021071B070A152121150A071B0721D368FE
:1013A000013BD3605DF8044B7047937A03F003036D
:1013B0000029E6D043F00403E3E7D3685DF8044B6B
:1013C000023BD3607047D3685DF8044B0233D360AF
:1013D0007047D3685DF8044B0133D360704700BF9A
:1013E0004CB80220214B10B45A6C1368506819781D
:1013F0000478507A137A044201EA03011BD0937AED
:1014000003F0030309B143F0040343F00803991008
:10141000013B91720D2B0BD8DFE803F021071B076E
:101420000A152121150A071B0721D368013BD36048
:101430005DF8044B7047937A03F003030029E6D06C
:1014400043F00403E3E7D3685DF8044B023BD36049
:101450007047D3685DF8044B0233D3607047D3689C
:101460005DF8044B0133D360704700BF4CB80220D5
:10147000214B10B41A6B1368506819780478507AAD
:10148000137A044201EA03011BD0937A03F00303A9
:1014900009B143F0040343F008039910013B917232
:1014A0000D2B0BD8DFE803F021071B070A152121BC
:1014B000150A071B0721D368013BD3605DF8044B75
:1014C0007047937A03F003030029E6D043F0040346
:1014D000E3E7D3685DF8044B023BD3607047D36801
:1014E0005DF8044B0233D3607047D3685DF8044B5A
:1014F0000133D360704700BF4CB80220214B10B4B9
:101500005A6B1368506819780478507A137A044239
:1015100001EA03011BD0937A03F0030309B143F0FE
:10152000040343F008039910013B91720D2B0BD873
:10153000DFE803F021071B070A152121150A071B05
:101540000721D368013BD3605DF8044B7047937A61
:1015500003F003030029E6D043F00403E3E7D36874
:101560005DF8044B023BD3607047D3685DF8044BD1
:101570000233D3607047D3685DF8044B0133D36006
:10158000704700BF4CB80220214B10B4DA6A1368D0
:10159000506819780478507A137A044201EA0301FA
:1015A0001BD0937A03F0030309B143F0040343F023
:1015B00008039910013B91720D2B0BD8DFE803F063
:1015C00021071B070A152121150A071B0721D368CC
:1015D000013BD3605DF8044B7047937A03F003033B
:1015E0000029E6D043F00403E3E7D3685DF8044B39
:1015F000023BD3607047D3685DF8044B0233D3607D
:101600007047D3685DF8044B0133D360704700BF67
:101610004CB80220214B10B4D3F8A82013685068AE
:1016200019780478507A137A044201EA03011BD036
:10163000937A03F0030309B143F0040343F0080372
:101640009910013B91720D2B0BD8DFE803F02107B5
:101650001B070A152121150A071B0721D368013B27
:10166000D3605DF8044B7047937A03F003030029BD
:10167000E6D043F00403E3E7D3685DF8044B023B94
:10168000D3607047D3685DF8044B0233D360704772
:10169000D3685DF8044B0133D36070474CB8022027
:1016A000214B10B4D3F8AC20136850681978047833
:1016B000507A137A044201EA03011BD0937A03F0B3
:1016C000030309B143F0040343F008039910013BFD
:1016D00091720D2B0BD8DFE803F021071B070A15C9
:1016E0002121150A071B0721D368013BD3605DF850
:1016F000044B7047937A03F003030029E6D043F0CC
:101700000403E3E7D3685DF8044B023BD360704702
:10171000D3685DF8044B0233D3607047D3685DF83B
:10172000044B0133D36070474CB80220214B10B4F6
:10173000D3F8B0201368506819780478507A137A77
:10174000044201EA03011BD0937A03F0030309B1B9
:1017500043F0040343F008039910013B91720D2BF1
:101760000BD8DFE803F021071B070A152121150A12
:10177000071B0721D368013BD3605DF8044B70471A
:10178000937A03F003030029E6D043F00403E3E770
:10179000D3685DF8044B023BD3607047D3685DF8B3
:1017A000044B0233D3607047D3685DF8044B0133B8
:1017B000D36070474CB80220214B10B4D3F8B4204A
:1017C0001368506819780478507A137A044201EA51
:1017D00003011BD0937A03F0030309B143F0040320
:1017E00043F008039910013B91720D2B0BD8DFE8F1
:1017F00003F021071B070A152121150A071B0721E2
:10180000D368013BD3605DF8044B7047937A03F0D3
:1018100003030029E6D043F00403E3E7D3685DF84F
:10182000044B023BD3607047D3685DF8044B02332E
:10183000D3607047D3685DF8044B0133D3607047C1
:101840004CB80220214B10B4D3F8B820136850686C
:1018500019780478507A137A044201EA03011BD004
:10186000937A03F0030309B143F0040343F0080340
:101870009910013B91720D2B0BD8DFE803F0210783
:101880001B070A152121150A071B0721D368013BF5
:10189000D3605DF8044B7047937A03F0030300298B
:1018A000E6D043F00403E3E7D3685DF8044B023B62
:1018B000D3607047D3685DF8044B0233D360704740
:1018C000D3685DF8044B0133D36070474CB80220F5
:1018D000214B10B4D3F8BC201368506819780478F1
:1018E000507A137A044201EA03011BD0937A03F081
:1018F000030309B143F0040343F008039910013BCB
:1019000091720D2B0BD8DFE803F021071B070A1596
:101910002121150A071B0721D368013BD3605DF81D
:10192000044B7047937A03F003030029E6D043F099
:101930000403E3E7D3685DF8044B023BD3607047D0
:10194000D3685DF8044B0233D3607047D3685DF809
:10195000044B0133D36070474CB80220214B10B4C4
:10196000D3F8C0201368506819780478507A137A35
:10197000044201EA03011BD0937A03F0030309B187
:1019800043F0040343F008039910013B91720D2BBF
:101990000BD8DFE803F021071B070A152121150AE0
:1019A000071B0721D368013BD3605DF8044B7047E8
:1019B000937A03F003030029E6D043F00403E3E73E
:1019C000D3685DF8044B023BD3607047D3685DF881
:1019D000044B0233D3607047D3685DF8044B013386
:1019E000D36070474CB80220214B10B4D3F8C42008
:1019F0001368506819780478507A137A044201EA1F
:101A000003011BD0937A03F0030309B143F00403ED
:101A100043F008039910013B91720D2B0BD8DFE8BE
:101A200003F021071B070A152121150A071B0721AF
:101A3000D368013BD3605DF8044B7047937A03F0A1
:101A400003030029E6D043F00403E3E7D3685DF81D
:101A5000044B023BD3607047D3685DF8044B0233FC
:101A6000D3607047D3685DF8044B0133D36070478F
:101A70004CB80220214B10B4D3F8C820136850682A
:101A800019780478507A137A044201EA03011BD0D2
:101A9000937A03F0030309B143F0040343F008030E
:101AA0009910013B91720D2B0BD8DFE803F0210751
:101AB0001B070A152121150A071B0721D368013BC3
:101AC000D3605DF8044B7047937A03F00303002959
:101AD000E6D043F00403E3E7D3685DF8044B023B30
:101AE000D3607047D3685DF8044B0233D36070470E
:101AF000D3685DF8044B0133D36070474CB80220C3
:101B0000214B10B4D3F8CC201368506819780478AE
:101B1000507A137A044201EA03011BD0937A03F04E
:101B2000030309B143F0040343F008039910013B98
:101B300091720D2B0BD8DFE803F021071B070A1564
:101B40002121150A071B0721D368013BD3605DF8EB
:101B5000044B7047937A03F003030029E6D043F067
:101B60000403E3E7D3685DF8044B023BD36070479E
:101B7000D3685DF8044B0233D3607047D3685DF8D7
:101B8000044B0133D36070474CB80220214B10B492
:101B9000D3F8D0201368506819780478507A137AF3
:101BA000044201EA03011BD0937A03F0030309B155
:101BB00043F0040343F008039910013B91720D2B8D
:101BC0000BD8DFE803F021071B070A152121150AAE
:101BD000071B0721D368013BD3605DF8044B7047B6
:101BE000937A03F003030029E6D043F00403E3E70C
:101BF000D3685DF8044B023BD3607047D3685DF84F
:101C0000044B0233D3607047D3685DF8044B013353
:101C1000D36070474CB80220214B10B4D3F8D420C5
:101C20001368506819780478507A137A044201EAEC
:101C300003011BD0937A03F0030309B143F00403BB
:101C400043F008039910013B91720D2B0BD8DFE88C
:101C500003F021071B070A152121150A071B07217D
:101C6000D368013BD3605DF8044B7047937A03F06F
:101C700003030029E6D043F00403E3E7D3685DF8EB
:101C8000044B023BD3607047D3685DF8044B0233CA
:101C9000D3607047D3685DF8044B0133D36070475D
:101CA0004CB80220214B10B4D3F8D82013685068E8
:101CB00019780478507A137A044201EA03011BD0A0
:101CC000937A03F0030309B143F0040343F00803DC
:101CD0009910013B91720D2B0BD8DFE803F021071F
:101CE0001B070A152121150A071B0721D368013B91
:101CF000D3605DF8044B7047937A03F00303002927
:101D0000E6D043F00403E3E7D3685DF8044B023BFD
:101D1000D3607047D3685DF8044B0233D3607047DB
:101D2000D3685DF8044B0133D36070474CB8022090
:101D3000214B10B4D3F8DC2013685068197804786C
:101D4000507A137A044201EA03011BD0937A03F01C
:101D5000030309B143F0040343F008039910013B66
:101D600091720D2B0BD8DFE803F021071B070A1532
:101D70002121150A071B0721D368013BD3605DF8B9
:101D8000044B7047937A03F003030029E6D043F035
:101D90000403E3E7D3685DF8044B023BD36070476C
:101DA000D3685DF8044B0233D3607047D3685DF8A5
:101DB000044B0133D36070474CB80220214B10B460
:101DC000D3F8E0201368506819780478507A137AB1
:101DD000044201EA03011BD0937A03F0030309B123
:101DE00043F0040343F008039910013B91720D2B5B
:101DF0000BD8DFE803F021071B070A152121150A7C
:101E0000071B0721D368013BD3605DF8044B704783
:101E1000937A03F003030029E6D043F00403E3E7D9
:101E2000D3685DF8044B023BD3607047D3685DF81C
:101E3000044B0233D3607047D3685DF8044B013321
:101E4000D36070474CB80220214B10B4D3F8E42083
:101E50001368506819780478507A137A044201EABA
:101E600003011BD0937A03F0030309B143F0040389
:101E700043F008039910013B91720D2B0BD8DFE85A
:101E800003F021071B070A152121150A071B07214B
:101E9000D368013BD3605DF8044B7047937A03F03D
:101EA00003030029E6D043F00403E3E7D3685DF8B9
:101EB000044B023BD3607047D3685DF8044B023398
:101EC000D3607047D3685DF8044B0133D36070472B
:101ED0004CB80220214B10B4D3F8E82013685068A6
:101EE00019780478507A137A044201EA03011BD06E
:101EF000937A03F0030309B143F0040343F00803AA
:101F00009910013B91720D2B0BD8DFE803F02107EC
:101F10001B070A152121150A071B0721D368013B5E
:101F2000D3605DF8044B7047937A03F003030029F4
:101F3000E6D043F00403E3E7D3685DF8044B023BCB
:101F4000D3607047D3685DF8044B0233D3607047A9
:101F5000D3685DF8044B0133D36070474CB802205E
:101F6000214B10B4D3F8EC2013685068197804782A
:101F7000507A137A044201EA03011BD0937A03F0EA
:101F8000030309B143F0040343F008039910013B34
:101F900091720D2B0BD8DFE803F021071B070A1500
:101FA0002121150A071B0721D368013BD3605DF887
:101FB000044B7047937A03F003030029E6D043F003
:101FC0000403E3E7D3685DF8044B023BD36070473A
:101FD000D3685DF8044B0233D3607047D3685DF873
:101FE000044B0133D36070474CB80220214B10B42E
:101FF0001A681368506819780478507A137A044282
:1020000001EA03011BD0937A03F0030309B143F003
:10201000040343F008039910013B91720D2B0BD878
:10202000DFE803F021071B070A152121150A071B0A
:102030000721D368013BD3605DF8044B7047937A66
:1020400003F003030029E6D043F00403E3E7D36879
:102050005DF8044B023BD3607047D3685DF8044BD6
:102060000233D3607047D3685DF8044B0133D3600B
:10207000704700BF4CB80220214B10B45A68136857
:10208000506819780478507A137A044201EA0301FF
:102090001BD0937A03F0030309B143F0040343F028
:1020A00008039910013B91720D2B0BD8DFE803F068
:1020B00021071B070A152121150A071B0721D368D1
:1020C000013BD3605DF8044B7047937A03F0030340
:1020D0000029E6D043F00403E3E7D3685DF8044B3E
:1020E000023BD3607047D3685DF8044B0233D36082
:1020F0007047D3685DF8044B0133D360704700BF6D
:102100004CB80220214B10B49A68136850681978B3
:102110000478507A137A044201EA03011BD0937ABF
:1021200003F0030309B143F0040343F008039910DB
:10213000013B91720D2B0BD8DFE803F021071B0741
:102140000A152121150A071B0721D368013BD3601B
:102150005DF8044B7047937A03F003030029E6D03F
:1021600043F00403E3E7D3685DF8044B023BD3601C
:102170007047D3685DF8044B0233D3607047D3686F
:102180005DF8044B0133D360704700BF4CB80220A8
:10219000214B10B4DA681368506819780478507AC3
:1021A000137A044201EA03011BD0937A03F003037C
:1021B00009B143F0040343F008039910013B917205
:1021C0000D2B0BD8DFE803F021071B070A1521218F
:1021D000150A071B0721D368013BD3605DF8044B48
:1021E0007047937A03F003030029E6D043F0040319
:1021F000E3E7D3685DF8044B023BD3607047D368D4
:102200005DF8044B0233D3607047D3685DF8044B2C
:102210000133D360704700BF4CB80220214B10B48B
:102220001A691368506819780478507A137A04424E
:1022300001EA03011BD0937A03F0030309B143F0D1
:10224000040343F008039910013B91720D2B0BD846
:10225000DFE803F021071B070A152121150A071BD8
:102260000721D368013BD3605DF8044B7047937A34
:1022700003F003030029E6D043F00403E3E7D36847
:102280005DF8044B023BD3607047D3685DF8044BA4
:102290000233D3607047D3685DF8044B0133D360D9
:1022A000704700BF4CB80220214B10B45A69136824
:1022B000506819780478507A137A044201EA0301CD
:1022C0001BD0937A03F0030309B143F0040343F0F6
:1022D00008039910013B91720D2B0BD8DFE803F036
:1022E00021071B070A152121150A071B0721D3689F
:1022F000013BD3605DF8044B7047937A03F003030E
:102300000029E6D043F00403E3E7D3685DF8044B0B
:10231000023BD3607047D3685DF8044B0233D3604F
:102320007047D3685DF8044B0133D360704700BF3A
:102330004CB80220214B10B49A6913685068197880
:102340000478507A137A044201EA03011BD0937A8D
:1023500003F0030309B143F0040343F008039910A9
:10236000013B91720D2B0BD8DFE803F021071B070F
:102370000A152121150A071B0721D368013BD360E9
:102380005DF8044B7047937A03F003030029E6D00D
:1023900043F00403E3E7D3685DF8044B023BD360EA
:1023A0007047D3685DF8044B0233D3607047D3683D
:1023B0005DF8044B0133D360704700BF4CB8022076
:1023C000214B10B4DA691368506819780478507A90
:1023D000137A044201EA03011BD0937A03F003034A
:1023E00009B143F0040343F008039910013B9172D3
:1023F0000D2B0BD8DFE803F021071B070A1521215D
:10240000150A071B0721D368013BD3605DF8044B15
:102410007047937A03F003030029E6D043F00403E6
:10242000E3E7D3685DF8044B023BD3607047D368A1
:102430005DF8044B0233D3607047D3685DF8044BFA
:102440000133D360704700BF4CB80220214B10B459
:102450001A6A1368506819780478507A137A04421B
:1024600001EA03011BD0937A03F0030309B143F09F
:10247000040343F008039910013B91720D2B0BD814
:10248000DFE803F021071B070A152121150A071BA6
:102490000721D368013BD3605DF8044B7047937A02
:1024A00003F003030029E6D043F00403E3E7D36815
:1024B0005DF8044B023BD3607047D3685DF8044B72
:1024C0000233D3607047D3685DF8044B0133D360A7
:1024D000704700BF4CB80220214B10B45A6A1368F1
:1024E000506819780478507A137A044201EA03019B
:1024F0001BD0937A03F0030309B143F0040343F0C4
:1025000008039910013B91720D2B0BD8DFE803F003
:1025100021071B070A152121150A071B0721D3686C
:10252000013BD3605DF8044B7047937A03F00303DB
:102530000029E6D043F00403E3E7D3685DF8044BD9
:10254000023BD3607047D3685DF8044B0233D3601D
:102550007047D3685DF8044B0133D360704700BF08
:102560004CB8022070B5044608460D4618F0E8FD48
:1025700023680246294620465B68BDE8704018473C
:1025800038B5044608460D4618F0DAFD23680246C1
:1025900029465B68204698470546204612F032F8E7
:1025A000284438BD002310B4114C4172026104600C
:1025B0000372C36041B1194600E0026942F823107A
:1025C000427A01339A42F8DC0A4B1A680AB90CE0E5
:1025D0001A465369002BFBD150610023436183806D
:1025E000C38083725DF8044B70471860F5E700BF45
:1025F000FCEA010010BE022038B501210446124851
:1026000013F0B6FE1521114813F0B2FE01210E4859
:1026100013F0AEFE0E4B53F82450284618F090FDF0
:102620000146284613F0A4FE0A4811F0EBFF0A4BBE
:102630000022032C9A61DA611A6204D806344FF43E
:10264000803243F8242038BD88ED01006CEB010096
:10265000CC3E0020E440002040ED012038B50121AF
:102660000446124813F084FE0E21114813F080FE38
:1026700001210E4813F07CFE0E4B53F824502846DF
:1026800018F05EFD0146284613F072FE0A4811F06C
:10269000B9FF0A4B0022032C9A61DA611A6204D84E
:1026A00006344FF4803243F8242038BD88ED010011
:1026B00084EB0100A03E0020E4400020A8DB0120C4
:1026C000284B9FED296A93ED007ADFED286AB8EE7A
:1026D000C77A07EE900AC6EE075AF8EEE77A67EE79
:1026E000A57AF4EEE67AF1EE10FA1BDC204A214BD3
:1026F000C2ED007AF5EEC07A0122F1EE10FA1A600E
:102700002DD49FED1D7AF4EEC77AF1EE10FA1DDD9F
:102710001A4B1B4A1B49D3614FF4803001231062CE
:102720000B607047C7EE065A114B1748114A01213A
:10273000F2EE027AE5EEA67AC3ED006AFDEEE77AE4
:1027400017EE903AF0EE667A036011609FED0F7A13
:1027500067EE877AFCEEE77A17EE903AD9E7002326
:10276000D7E700BFA4DB0120A6552C4700E0AB460D
:10277000343E002088E100E0A655AC4680FFFF7F94
:102780004CD7012008E100E0243E00204B24BE4746
:10279000204ADFED216AD2ED007A38B51F4B204C7C
:1027A00093ED007A2268F8EE677A4FF4FA7167EEDB
:1027B000877A40F6B83087EEA67AFDEEC77A17EE34
:1027C000903A01FB03F303F57A73D21A002AB8BFDB
:1027D000524282420EDD134A41F657318B42126853
:1027E00009DC41F65833104D18462B60FFF768FF9F
:1027F0002B68236038BD0D48D143C90F80FB02020E
:10280000C1EBE2124FF47A7101FB02F29342A8BFCE
:102810001346E8E7E4ED01200000FA43BC3E002047
:102820008CDB0120A4DB0120243E0020D34D62106C
:102830002DE9F04F2DED028B694B1B780A2B89B0E7
:102840003DD8684C684B0022D4E9000117F0A4F889
:1028500017F052FB0022644B0390D4E9020117F0F9
:102860009BF817F049FB00225F4B0490D4E9040168
:1028700017F092F817F040FB00225B4B0590D4E96B
:10288000060117F089F817F037FB574B0690002226
:10289000D4E9080117F080F817F02EFB03AA07907F
:1028A0000021524809F0CCFB514B00214FF48032FB
:1028B000D9619A6109B0BDEC028BBDE8F08F4D4A39
:1028C0009FED4D6AD2ED007ADFED4C6AF8EEE77AC3
:1028D0004FF47A7286EE277A02FB03F307EE903A02
:1028E000F8EEE77A67EE277A67EEA67A17EE900A97
:1028F00016F0FEFF41EC100B41EC180B15F0C0FC7C
:1029000035A3D3E9002351EC100B17F06FF9B0EEAB
:10291000480AF0EE680ACDE9000115F051FCDDE946
:1029200000010022364B5BEC10AB16F083FE024632
:102930000B4600202C4917F059F9002204460D4699
:102940002F4B5046594616F075FE00222D4B8046FF
:10295000894617F021F822462B4617F01DF817F08C
:10296000CBFA224606462B46404609F10041039623
:1029700017F012F817F0C0FA002204904FF040430D
:1029800050465946059617F007F822462B4617F091
:1029900003F817F0B1FADDE900230690184900208A
:1029A00016F046FE2B46224616F0F6FF17F0A4FA64
:1029B00003AA079000210D4809F042FB0C4B0021AF
:1029C0004FF480329961DA6109B0BDEC028BBDE849
:1029D000F08F00BFAFF30080000000606666F63F36
:1029E000593E0020703E00200000D041CCDA01208A
:1029F00054D50120A4DB0120A6552C474656153995
:102A00000000F03F0000E03FF8B55E495E4E9FEDEC
:102A10005F6A36785E4C5F4F45002B1801EBC303AD
:102A200007EE906A9B685C4E2360002BB4BF03F2F4
:102A3000FF121A46521207EE102AF8EEE77AB8EEA5
:102A4000C77A67EE867A554A367887ED007AC7EE00
:102A5000876AFDEEE66AC2ED006A6EB1504E3678C6
:102A600007EE906AF8EEE77A67EE867AC7EE876A35
:102A7000FDEEE66AC2ED006A03EBD3735B1007EE6E
:102A8000903AF8EEE77A2B18C7EE876A01EBC3039A
:102A9000444A5E68444F454B16600126444AFDEEA9
:102AA000E66AC7ED006A1E601368002BFCDB284451
:102AB00001EBC0013F48CA680B693F4D3F4F013AE7
:102AC0001203013B02F47F22C3F30B0313430360A1
:102AD000C82012F0C1FB3A4B1868FFF7F1FD394AE4
:102AE000394B01261660142083F8206712F0B4FBDE
:102AF000FFF79EFE2B78ABB10121344813F038FC70
:102B00001221334813F034FC0121304813F030FC1B
:102B10002168304811F0C6FD2E4811F073FD3B7856
:102B200013B9F8BD3B78A3B10121284813F020FC6C
:102B30001421294813F01CFC0121244813F018FC2F
:102B40002168244811F0AEFD2248BDE8F84011F09C
:102B500059BD31461D4813F00BFC14211F4813F0DA
:102B600007FC3146194813F003FC2168194811F09D
:102B700099FD184811F046FD2B78002BBCD13B780D
:102B8000CEE700BFE4F60100623E002000007A4478
:102B9000A4DB0120BC3E002004DE01206CF40120F7
:102BA0006E3E002018F2012088DB012088E100E061
:102BB00000F1024004F1024010F20120BCF10120BA
:102BC000243E002008E100E0F4CC012088ED010063
:102BD00094EB0100E4400020C0EB0100A8EB0100F1
:102BE00007EE900A9FED0C6ADFED0C6A0C4B0D4866
:102BF000B8EEE77ADFED0C7A27EE067A10B5E7EE4D
:102C0000267A01241C60FCEEE77A17EE901A08F091
:102C100039FE064B1C6010BD0AD7233C000001435F
:102C200088E100E030B50220EE7CFF3E08E100E0E4
:102C3000F8B509210446624813F09AFB614B1D6800
:102C4000012D35D00421604813F092FB5F4811F04C
:102C5000D9FC5F4B5F4A6048012111601A682A2144
:102C600008F006FD002220215B4808F001FD002C41
:102C7000B8BF0334A410E2B21146574808F0C8FDAB
:102C8000564B574801251D60294613F071FB07215B
:102C9000544813F06DFB2946514813F069FB214657
:102CA0004A4811F0FFFC4948BDE8F84011F0AABCC1
:102CB0004D4B1E7806B1F8BD03214C48444F13F02C
:102CC00057FB424811F09EFC424B43481D60324680
:102CD000314608F09DFD2946414813F049FB072184
:102CE000404813F045FB29463D4813F041FB21467F
:102CF000364811F0D7FC354811F084FC0B213C48D4
:102D000013F036FB396831483346102211F08AFC43
:102D10002E4811F077FC272C45DD283CE4B2032532
:102D20003A682D482A432A2108F0A2FC314B2A4850
:102D3000640083FB0423A3EBE4740F2C28BF0F244F
:102D400044EA0412202108F093FC0121244813F0E6
:102D50000FFB0B21284813F00BFB0121204813F037
:102D600007FB00230A222946184811F05BFC17488C
:102D700011F048FC01211A4813F0FAFA0B211F4800
:102D800013F0F6FA0121164813F0F2FA00230A2292
:102D900021460E4811F046FC0C4811F033FC0F4B55
:102DA00001221A60F8BD1D2C03DD1E3CE4B2022591
:102DB000B6E7132CC6BF143CE4B23546B0E700BFFB
:102DC000D8EB0100543E002014EC0100E440002048
:102DD000083F002088E100E030B5022008E100E073
:102DE00088ED0100E8EB01005CB50220E4EB010096
:102DF000F0EB010056555555FCEB010008EC0100C5
:102E000008B50B463B2800F2C682DFE810F0BB0293
:102E1000B202A902A00297028E0285027C0273020E
:102E20006A02610258024F0246023D0234022B023E
:102E30002202190210020702AE01A5019C019301B2
:102E40008A01810178016F0166015D0154014A0127
:102E5000400136012C01220118010E010401FA0083
:102E6000F000E600DC00D200C800BE00B400AA00FA
:102E7000A00096008C00820078006E0064005A006A
:102E8000500046003C00BD4ABD49C2F8EC303B2032
:102E9000042212F033F9012008BDB84AB949C2F83A
:102EA000E8303A20042212F029F9012008BDB34A83
:102EB000B549C2F8E4303920042212F01FF901208C
:102EC00008BDAE4AB149C2F8E0303820042212F001
:102ED00015F9012008BDA94AAD49C2F8DC303720F8
:102EE000042212F00BF9012008BDA44AA949C2F836
:102EF000D8303620042212F001F9012008BD9F4A83
:102F0000A549C2F8D4303520042212F0F7F8012088
:102F100008BD9A4AA149C2F8D0303420042212F0E8
:102F2000EDF8012008BD954A9D49C2F8CC30332008
:102F3000042212F0E3F8012008BD904A9949C2F832
:102F4000C8303220042212F0D9F8012008BD8B4A83
:102F50009549C2F8C4303120042212F0CFF8012084
:102F600008BD864A9149C2F8C0303020042212F0D0
:102F7000C5F8012008BD814A8D49C2F8BC302F2018
:102F8000042212F0BBF8012008BD7C4A8949C2F82E
:102F9000B8302E20042212F0B1F8012008BD774A83
:102FA0008549C2F8B4302D20042212F0A7F8012080
:102FB00008BD724A8149C2F8B0302C20042212F0B8
:102FC0009DF8012008BD6D4A7D49C2F8AC302B2028
:102FD000042212F093F8012008BD684A7949C2F82A
:102FE000A8302A20042212F089F8012008BD634A83
:102FF0007549C2F8A4302920042212F07FF801207C
:1030000008BD5E4A7149C2F8A0302820042212F09F
:1030100075F8012008BD594A6D49C2F89C30272037
:10302000042212F06BF8012008BD544A6949C2F825
:1030300098302620042212F061F8012008BD4F4A82
:103040006549C2F894302520042212F057F8012077
:1030500008BD4A4A6149C2F890302420042212F087
:103060004DF8012008BD454A5D49C2F88C30232047
:10307000042212F043F8012008BD404A5949C2F821
:1030800088302220042212F039F8012008BD3B4A82
:103090005549C2F884302120042212F02FF8012073
:1030A00008BD364A5149C2F880302020042212F06F
:1030B00025F8012008BD314A4D49D3671F2004225D
:1030C00012F01CF8012008BD2C4A4A4993671E20C3
:1030D000042212F013F8012008BD284A464953671C
:1030E0001D20042212F00AF8012008BD234A43499A
:1030F00013671C20042212F001F8012008BD1F4AAA
:103100003F49D3661B20042211F0F8FF012008BDBF
:103110001A4A3C4993661A20042211F0EFFF01205D
:1031200008BD164A384953661920042211F0E6FFFB
:10313000012008BD114A354913661820042211F0F8
:10314000DDFF012008BD0D4A3149D3651720042257
:1031500011F0D4FF012008BD084A2E4993651620BE
:10316000042211F0CBFF012008BD044A2A4953650F
:103170001520042211F0C2FF012008BD4CB8022026
:10318000611F0000D51E0000491E0000BD1D00008B
:10319000311D0000A51C0000191C00008D1B000043
:1031A000011B0000751A0000E91900005D190000FC
:1031B000D118000045180000B91700002D170000B5
:1031C000A116000015160000550D0000C90C0000E6
:1031D0003D0C0000B10B0000250B0000990A000017
:1031E0000D0A000081090000F508000069080000D0
:1031F000DD07000051070000C50600003906000089
:10320000AD05000021050000B511000029110000E6
:103210009D10000011100000850F00005F4A6049FA
:1032200013651420042211F069FF012008BD5B4AD8
:103230005C49D3641320042211F060FF012008BD13
:10324000564A594993641220042211F057FF012075
:1032500008BD524A554953641120042211F04EFF13
:10326000012008BD4D4A524913641020042211F078
:1032700045FF012008BD494A4E49D3630F2004226F
:1032800011F03CFF012008BD444A4B4993630E20D6
:10329000042211F033FF012008BD404A474953631F
:1032A0000D20042211F02AFF012008BD3B4A4449A9
:1032B00013630C20042211F021FF012008BD374ABE
:1032C0004049D3620B20042211F018FF012008BDF1
:1032D000324A3D4993620A20042211F00FFF012077
:1032E00008BD2E4A394953620920042211F006FF15
:1032F000012008BD294A364913620820042211F032
:10330000FDFE012008BD254A3249D3610720042271
:1033100011F0F4FE012008BD204A2F4993610620D8
:10332000042211F0EBFE012008BD1C4A2B49536119
:103330000520042211F0E2FE012008BD174A2849A9
:1033400013610422104611F0D9FE012008BD134A72
:103350002449D3600320042211F0D0FE012008BDCF
:103360000E4A214993600220042211F0C7FE012079
:1033700008BD0A4A1D4953600120042211F0BEFE17
:10338000012008BD054A1A4913600020042211F0EB
:10339000B5FE012008BD002008BD00BF4CB80220CA
:1033A000F90E00006D0E0000E10D0000E5130000B5
:1033B00059130000CD12000041120000FD1400005E
:1033C000711400008915000095040000D924000044
:1033D0004D240000C123000035230000A922000075
:1033E0001D2200009121000005210000792000002D
:1033F000ED1F0000F8B5044616460D4608460221AA
:1034000011F024FF3046022111F020FFAC4AAD4BF1
:1034100052F83510012001F500772760207252F82C
:103420003620607202F5007700206760E060013BA3
:10343000FDD191F8003292F8002203F00103D20787
:1034400044BF43F00203DBB2A3723B2D00F2B6820D
:10345000DFE815F0AB02A2029902900287027E0219
:1034600075026C0263025A02510248023F023602A0
:103470002D0224021B02120209020002F701EE01D2
:10348000E501DC01D301CA01C101B801AF01A60108
:103490009D0194018A01800176016C012B012101BB
:1034A00017010D010301F900EF00E500DB00D10079
:1034B000C700BD00B300A9009F0095008B008100EC
:1034C00077006D00630059004F003C007E4B7F4940
:1034D000C3F8EC4004223B2011F010FE01232374BA
:1034E00030462146FFF78CFC237C1844207420468C
:1034F000F8BD754B7649C3F8E84004223A2011F034
:10350000FDFD0123EBE7704B7249C3F8E440042250
:10351000392011F0F3FD0123E1E76B4B6E49C3F84D
:10352000E0400422382011F0E9FD0123D7E7664B83
:103530006A49C3F8DC400422372011F0DFFD012383
:10354000CDE7614B6649C3F8D8400422362011F01C
:10355000D5FD0123C3E75C4B6249C3F8D440042284
:10356000352011F0CBFD0123B9E7574B5E49C3F875
:10357000D0400422342011F0C1FD0123AFE7524BAB
:103580005A49C3F8CC400422332011F0B7FD01237F
:10359000A5E74D4B5649C3F8C8400422322011F02C
:1035A000ADFD01239BE7484B5249C3F8C4400422B8
:1035B000312011F0A3FD012391E7434B4E49C3F89D
:1035C000C0400422302011F099FD012387E73E4BD3
:1035D0004A49C3F8BC4004222F2011F08FFD01237B
:1035E0007DE7394B4649C3F8B84004222E2011F03C
:1035F00085FD012373E7344B4249C3F8B4400422EC
:103600002D2011F07BFD012369E72F4B3E49C3F8C4
:10361000B04004222C2011F071FD01235FE72A4BFA
:103620003A49C3F8AC4004222B2011F067FD012376
:1036300055E7254B3649C3F8A84004222A2011F04B
:103640005DFD01234BE7204B3249C3F8A44004221F
:10365000292011F053FD012341E71B4B2E49C3F8EC
:10366000A0400422282011F049FD012337E7164B22
:103670002A49C3F89C400422272011F03FFD012372
:103680002DE7114B2649C3F898400422262011F05B
:1036900035FD012323E70C4B2249C3F89440042253
:1036A000252011F02BFD012319E7074B1E49C3F814
:1036B00090400422242011F021FD01230FE700BFD8
:1036C000E4240200C0D401004CB80220611F0000B5
:1036D000D51E0000491E0000BD1D0000311D000068
:1036E000A51C0000191C00008D1B0000011B000020
:1036F000751A0000E91900005D190000D1180000DA
:1037000045180000B91700002D170000A116000091
:1037100015160000550D0000C90C00003D0C0000FE
:10372000B10B0000250B0000990A0000A44BA5492D
:10373000C3F88C400422232011F0E0FC0123CEE6E4
:103740009F4BA149C3F888400422222011F0D6FCE7
:103750000123C4E69A4B9D49C3F8844004222120EA
:1037600011F0CCFC0123BAE6954B9949C3F880408F
:103770000422202011F0C2FC0123B0E6904B9549B1
:10378000DC6704221F2011F0B9FC0123A7E68C4B53
:1037900091499C6704221E2011F0B0FC01239EE693
:1037A000874B8E495C6704221D2011F0A7FC012382
:1037B00095E6834B8A491C6704221C2011F09EFC6D
:1037C00001238CE67E4B8749DC6604221B2011F026
:1037D00095FC012383E67A4B83499C6604221A20D8
:1037E00011F08CFC01237AE6754B80495C6604225B
:1037F000192011F083FC012371E6714B7C491C6692
:103800000422182011F07AFC012368E66C4B7949F8
:10381000DC650422172011F071FC01235FE6684B80
:1038200075499C650422162011F068FC012356E6B8
:10383000634B72495C650422152011F05FFC012383
:103840004DE65F4B6E491C650422142011F056FCB6
:10385000012344E65A4B6B49DC640422132011F027
:103860004DFC01233BE6564B67499C640422122021
:1038700011F044FC012332E6514B64495C6404229C
:10388000112011F03BFC012329E64D4B60491C64DB
:103890000422102011F032FC012320E6484B5D4940
:1038A000DC6304220F2011F029FC012317E6444BAE
:1038B00059499C6304220E2011F020FC01230EE6DE
:1038C0003F4B56495C6304220D2011F017FC012385
:1038D00005E63B4B52491C6304220C2011F00EFC00
:1038E0000123FCE5364B4F49DC6204220B2011F02A
:1038F00005FC0123F3E5324B4B499C6204220A206C
:1039000011F0FCFB0123EAE52D4B48495C620422DF
:10391000092011F0F3FB0123E1E5294B44491C6226
:103920000422082011F0EAFB0123D8E5244B414989
:10393000DC610422072011F0E1FB0123CFE5204BDD
:103940003D499C610422062011F0D8FB0123C6E505
:103950001B4B3A495C610422052011F0CFFB012387
:10396000BDE5174B36491C610422104611F0C6FB19
:103970000123B4E5124B3349DC600422032011F02B
:10398000BDFB0123ABE50E4B2F499C6004220220B6
:1039900011F0B4FB0123A2E5094B2C495C60042221
:1039A000012011F0ABFB012399E5054B28491C6070
:1039B0000422002011F0A2FB012390E500238EE5F4
:1039C0004CB802200D0A000081090000F508000033
:1039D00069080000DD07000051070000C50600006F
:1039E00039060000AD05000021050000B5110000FA
:1039F000291100009D10000011100000850F00002B
:103A0000F90E00006D0E0000E10D0000E51300004E
:103A100059130000CD12000041120000FD140000F7
:103A2000711400008915000095040000D9240000DD
:103A30004D240000C123000035230000A92200000E
:103A40001D220000912100000521000079200000C6
:103A5000ED1F000070B58AB002462821684617F0B5
:103A600021FA1349134C144D144A154B154E03C932
:103A7000206095E80300A06092E80300E0600FCBAF
:103A800004F1140507C596E8030025F8023B1B0C5A
:103A90002B7010226062282369464C2504F12C000B
:103AA00065602261A36217F0D9FA20460AB070BDA2
:103AB0001CEC0100CCD4012024EC01002CEC010012
:103AC00034EC010044EC0100174A1849184BF0B5DA
:103AD0001468DFF86CE0174F174D184E024603C903
:103AE00018609EE80300986097E8030004EB440424
:103AF00005EBC404D86096E80300A4689C612C3AE6
:103B000022F001021025012102F17807640002264B
:103B100058629A625F60DC611E841D615D849982D7
:103B2000D9821846F0BD00BF5C3E00204CEC01007D
:103B3000ACED01205CEC0100E4F6010064EC010056
:103B400054EC010008B50549012200200BF0E4FB0C
:103B5000FE210348BDE8084005F020BD6CEC0100E3
:103B600078B5022038B507210D480E4D0E4C12F0E5
:103B7000FFFB07210D4812F0FBFB0D4810F042FD42
:103B800004210C4812F0F4FB294601220A480BF0EC
:103B9000C3FB207028460BF095FF207038BD00BF96
:103BA00070EC01006CEC0100B4D6012078EC01004F
:103BB000E440002080EC01001CF20120F0B54FF43D
:103BC0007A7093B0584C11F047FB00250AA80123E6
:103BD000564A5749256005F08DFD12AA55480C9BA1
:103BE00012F8145D9DF82C1083600573017100F1CB
:103BF0000D03193012F8011F03F8011B83424D49D0
:103C0000F8D1119BCB610AA805F09CFC4A4F002615
:103C100005E00AA805F0ACFC0AA805F093FC012217
:103C200044490AA805F0DAFD0AA805F0AFFC40F205
:103C3000E63310B922689A424ADD0AA805F086FCEC
:103C40000028E6D10AA805F07FFC014602A810F082
:103C500071FD3A4906A810F06DFD06A902A810F002
:103C6000A5FD054606A810F025FD002D0AA82BDBB2
:103C7000236803EB430503EB8503FD1805F064FCA3
:103C80000146284617F0EAF92D4906A810F052FD22
:103C900006A902A810F08AFD054606A810F00AFD44
:103CA0002B46012202A906A810F092FD06A810F0EA
:103CB000B3FD054606A810F0FDFC2368AE4203F1F3
:103CC0000103B8BF2E46236002A810F0F3FCA0E762
:103CD0000AA805F037FC1B4B1A6896421BDBB6F5A9
:103CE0007A7FAABF40F2E7321E601A6001211648AF
:103CF00012F03EFB1021154812F03AFB0121124848
:103D000012F036FB2168124810F0CCFC104810F07D
:103D100079FC13B0F0BD009233460AA80D4A1E216B
:103D200017F0C0F8E2E700BFB4D4012088EC01002E
:103D300078B5022080D401202C7502208CEC010083
:103D400094EC0100D8DD012088ED0100B4EC010005
:103D5000E440002098EC01002DE9F843064608F005
:103D600031FF01282CDDDFF86490DFF85880002552
:103D7000D8F80000134F05EB4004304608F054FF1C
:103D800009EB042401464FF48072204611F00EF82E
:103D90000135304608F066FF022DE9D13B6801335A
:103DA000BF2B02D83B60BDE8F8830022064B3A6087
:103DB000064907484FF4C0320BF054FC054B18700D
:103DC000BDE8F883C0F10120E8A70220F04C0020F4
:103DD00078D70120B4D601202DE9F0410721AEB0FB
:103DE00004464A484A4D12F0C3FA1021494812F0DD
:103DF000BFFA494810F006FC0421484812F0B8FA0E
:103E0000474A002384F8F63013700CE008F00CFFEA
:103E1000444B01464FF4807243480BF023FC28705A
:103E2000204608F01FFF204608F0CCFE0028204660
:103E3000ECDC3E4B1B78012B08D03B480BF030FEEE
:103E40002870FFF7BBFE2EB0BDE8F081364C002293
:103E5000002320460BF04AFED4F810804046FFF7BE
:103E600033FE0EAF044600F1200E20686168A268A0
:103E7000E3683E460FC6103474453746F5D12068D6
:103E80006168A268002307C7002227480BF02EFEB6
:103E90000EA9244B24482C220BF0E4FB42460023BD
:103EA00021480BF023FE224A224B12781B780A2A63
:103EB00008BF0022C3B9204B009204AC93F9003034
:103EC0001E4A2046282116F0EDFF2046FFF7C2FDCE
:103ED0005422014619A810F069FF19A9114B124884
:103EE00054220BF0BFFBA8E715481649124B007887
:103EF000097893F90030009204AC029001912046B9
:103F0000114A282116F0CEFFDFE700BF70EC010058
:103F1000B4D60120C8EC0100E440002080EC010090
:103F2000BCF10120E8A7022078D70120DC3E002068
:103F3000593E002004DE01205DB502200CED010099
:103F4000983E00206E3E0020DCEC010038B50721D1
:103F50004248434C12F00CFA0821424812F008FA89
:103F6000414810F04FFB0421404812F001FA236849
:103F7000002B52D13E4B1A6840F2E6339A4200DDE4
:103F800038BD3C4B1A680132B2F57A7F01DB40F252
:103F9000E7321A60384B1B78002B46D0374B384D30
:103FA0001B683849384803EB430305EBC3035B68E0
:103FB00016F0C6FF354B36491A68334816F0C0FF75
:103FC00000213148334D0BF0E1FE0A2228702E49C2
:103FD00031480BF0CBF90228287033D001212F484B
:103FE00012F0C6F906212E4812F0C2F901212B4821
:103FF00012F0BEF9244817F0A3F80146224812F047
:10400000B7F9194810F0FEFA0A221F4922480BF0AE
:10401000ADF901232870236038BD1F480BF040FD27
:104020001C4A002310702360A4E7144B144D1B6836
:104030001C49154803EB430305EBC3035B6816F00B
:104040007FFFBDE714480BF02BFD09282870C5D170
:104050000D480BF0C1FE2870C0E700BF70EC0100F6
:1040600074F4012024ED0100E440002080EC010004
:10407000B4D40120D8DD0120DC3E00205C3E0020CD
:10408000E4F6010040ED0100D8D9012000D0034042
:1040900050ED0100B4D6012078D7012088ED010051
:1040A00058ED010030ED01002DE9F041DFF83482D8
:1040B0007F4A98F8003000251570002B00F0EB8047
:1040C0005E1EF6B27B4A7C4B92F800E0DFF818C225
:1040D000013606EB460603EB860603F10804BEF143
:1040E000000F00F0B080197A05EB4507A4F1080233
:1040F0000CEB870719B107CA87E8070001350C33B5
:10410000B34204F10C04EAD1EBB20D216B4888F8FC
:10411000003012F02DF9002329460A22684810F0D9
:1041200081FA674810F06EFADFF8C0E19EF80030BF
:10413000002B00F0AE80013BDBB25F1C07EB4705B4
:10414000DFF874C15F4EAD0000230CEB030207CA19
:10415000F4180C339D4284E80700F6D1FBB20E211F
:1041600059488EF8003012F003F9394600230A222C
:104170005348564E564DDFF8788110F053FA5048A8
:1041800010F040FA09240E22072301215148327011
:104190007370B47012F0ECF821464F4812F0E8F852
:1041A00001214C4812F0E4F800230A2231784448F7
:1041B00010F038FA424810F025FA0121454812F073
:1041C000D7F82146454812F0D3F80121414812F0B2
:1041D000CFF800230A227178394810F023FA3848C2
:1041E00010F010FA01213B4812F0C2F821463C4879
:1041F00012F0BEF80121374812F0BAF8B178304811
:1042000000230A2210F00EFA2D4810F0FBF9DFF817
:10421000E4C0374600213878A0B301224FF0000EE9
:10422000CCB2531EDBB203EB430309B3012C34D0F1
:1042300005EB83031B7A0BB10EF1010E824232D2E1
:104240000132D2B2EDE714F8082C643A032A7FF663
:1042500056AF197A05EB4507A4F108020CEB870766
:1042600000293FF44CAF07CA013587E8070046E74D
:104270000CEB83031B7A0BB10EF1010E8242DFD3EC
:104280005FFA8EF00131032907F8010BC3D1BDE8B5
:10429000F0811F4663E71D4637E708EB83031B7A6F
:1042A000002BEBD0E8E706F801E0BDE8F08100BFA5
:1042B00070D70120C8DA012048F9010060ED010043
:1042C000E440002030D4012070ED01002CD4012006
:1042D00000EB010088ED010080ED01008CED010094
:1042E00098ED0100393E002078F40120283E00209E
:1042F0004CF80100A0F80100F0B5054B1B688DB02B
:1043000004460D4603A819460FF028FE02E000BF40
:1043100000D00340FF2C00F21E81DFE814F0D20130
:10432000D001E5019201880186017D011C011C017B
:104330001C0168011F01610155011C011C011C01C8
:104340001C011C011C011C011C011C011C011C0185
:104350001C011C011C011C011C011C011C011C0175
:104360001C011C011C011C011C011C011C011C0165
:104370001C011C011C011C011C011C011C011C0155
:104380001C011C011C011C011C011C011C011C0145
:104390001C011C011C011C011C011C011C011C0135
:1043A0001C011C011C011C011C011C011C011C0125
:1043B0001C011C011C011C011C011C011C011C0115
:1043C0001C011C011C011C011C011C011C011C0105
:1043D0001C011C011C011C011C011C011C011C01F5
:1043E0001C011C011C014D014B0143011C011C015E
:1043F0003B011C011C011C011C011C011C011C01B6
:104400001C011C011C011C011C011C011C011C01C4
:104410001C011C011C011C011C011C011C011C01B4
:104420001C011C011C011C011C011C011C011C01A4
:104430001C011C011C011C011C011C011C011C0194
:104440001C011C011C011C011C011F012F01C601C4
:10445000C401C801C2011C011C011C011C011C017A
:104460001C011C011C011C011C011C011C011C0164
:104470001C011C011C011C011C011C011C011C0154
:104480001C011C011C011C011C011C011C011C0144
:104490001C011C011C011C011C011C011C011C0134
:1044A0001C011C011C011C011C011C011C011C0124
:1044B000B0010001A5011C011C011C011C011C0113
:1044C0001C019D01DD01D5011C011C011C011C0109
:1044D0001C011C011C011C011C011C011C011C01F4
:1044E0001C011C011C011C011C011C011C011C01E4
:1044F0001C011C011C011C011C011C011C011C01D4
:104500001C011C011C011C011C011C011C011C01C3
:104510001C011C011C011C011C011C017501904B9C
:10452000904C196803A80FF019FD94F90030069F0C
:10453000079E089D002B00F0F980012B00F00481FC
:10454000022B08D18DE8C00005F2B273864A874875
:104550000C2116F0A7FC85480DB0F0BD844B8549B1
:104560001B68854A814803EB430301EBC3030C211D
:104570005B6816F097FC7D480DB0F0BD7F4B1B7853
:104580007F4A7A4803EB83030C2116F08BFC7748B3
:104590000DB0F0BD7B4B7C4A1B7874480C2116F0A3
:1045A00081FCD8E7794B764A1B7870480C2116F0CD
:1045B00079FCD0E7764BEEE7764B774A1B786B4871
:1045C0000C2116F06FFCC6E7744B1B78002B40F0F3
:1045D0009380734A654B92E8030018601971BAE73B
:1045E000704B1B68062B00F38E806249B9E76E4A58
:1045F0006E4B11685D4853F821305F4A0C2116F06C
:1046000051FC5A480DB0F0BD694B584853F825206D
:104610000C2116F047FC9EE7664B594A93F900308F
:1046200052480C2116F03EFC95E7634BF5E7634BCF
:104630001B780A2B5CD9584A4C480C2116F032FCE6
:1046400089E75F4B1B68002B52D05E4B474A1B68C3
:1046500013801B0C93707EE75B4B494A1B684348F1
:104660000C2116F01FFC76E7584B93F90030012B14
:1046700068D0574A3D4B07CA03C31A706BE7394CE1
:10468000049E94F90030059D002B45D0002B7FF748
:1046900062AF00962B464F4A34480C2116F002FCBC
:1046A00059E74D4B6BE74D4B87E74D4B67E74D4B5C
:1046B0004D4A1B782D480C2116F0F4FB4BE74B4A72
:1046C00096E74B4A4B4B94E73F4B2D4A9B68274854
:1046D0000C2116F0E7FB3EE73B4B294A5B68234879
:1046E0000C2116F0DFFB36E7434B22491B6838E705
:1046F0001E4B424A1A602EE7414A1C4B92E80300C7
:104700001860197127E73F4A184B92E803000A0C1A
:10471000186099809A711EE72B4600963A4A134812
:104720000C2116F0BFFB94F90030AFE705F2B2732D
:104730008DE8C000354A0D480C2116F0B3FB94F902
:104740000030FAE6324ADFE705F2B2738DE8C000C6
:10475000304A06480C2116F0A5FB94F90030EFE62C
:1047600000D0034013F20120F4ED010000F201201B
:104770005C3E0020E4F60100C0ED01006D3E00202B
:10478000B0ED0100AC3E0020B8ED0100043F002078
:10479000063F0020623E0020A4ED0100DC3E002028
:1047A0008CEC0100643E0020C43E00203C3E002012
:1047B000F43E0020603E0020053F0020593E0020CE
:1047C000B43E002070F001000C7502205A3E00201B
:1047D00014EE0100F8ED01006C3E00206E3E00205A
:1047E000613E0020983E002004EE010028DA0120FE
:1047F000003F00200C3F0020E03E00204F464600D6
:10480000CCED0100C4ED0100E8ED0100D4ED0100A4
:104810000CEE0100E4ED0100F0B4774A137C012BAB
:1048200040F2828072B6D36862B6744C74492268D2
:10483000744891F9005093FBF5F3934203601EDD39
:10484000714A724B92F900201A60714A137C012B55
:104850001FD972B6D36862B66E4A6F4E156800688B
:1048600091F9001093FBF1F3AB422060336053DC0D
:104870004ADB6A49136000200860F0BC70473FDAE9
:10488000674A624B92F900201A60614A137C012B3F
:10489000DFD872B692E848001D783778567A137AD6
:1048A000374205EA03057FD0937A03F003030DB185
:1048B00043F0040343F008039D10013B95720D2B58
:1048C000C8D801A555F823F0F1490000E9490000D6
:1048D000E1490000E949000055480000D9490000BD
:1048E000F1490000F1490000D94900005548000095
:1048F000E9490000E1490000E9490000F1490000F0
:10490000424B00221A60A0E74548444990F9000054
:1049100008601360F0BC70473B48404990F90000C4
:1049200008601360F0BC704772B61368506819785D
:104930000478507A137A044201EA03012CD0937A66
:1049400003F0030309B143F0040343F00803991093
:10495000013B91720D2B3FF666AF01A151F823F098
:10496000D1490000C9490000C1490000C9490000FF
:1049700027480000B9490000D1490000D149000092
:10498000B949000027480000C9490000C14900009A
:10499000C9490000D1490000937A03F003030029BC
:1049A000D5D043F00403D2E7937A03F00303002D3C
:1049B00082D043F004037FE7D368023BD36033E740
:1049C000D3680233D3602FE7D368013BD3602BE772
:1049D000D3680133D36027E7D368023BD3603AE75B
:1049E000D3680233D36036E7D368013BD36032E744
:1049F000D3680133D3602EE790DB012058B5022045
:104A0000383E002068F401201CDE0120C0DA0120BD
:104A1000DCDD0120D4D90120F4F4012080DB012069
:104A20002CDA012008B5074808F066FA064808F0B5
:104A300063FA064808F060FA0548BDE8084008F047
:104A40005BBA00BF64B5022090D5012020D50120BB
:104A500030D5012008B50221242010F0F7FB0221F7
:104A60001D2010F0F3FB0221252010F0EFFB262083
:104A7000022110F0EBFB6420BDE8084010F0ECBB15
:104A8000F0B583B006460FF0E9F907460FF03CF9A0
:104A9000054638460FF02AF91A4B93F90030CBB986
:104AA00044B22644172E20DD1C46EDB26946384636
:104AB0000FF038F868468DF801508DF802400FF07D
:104AC0004FF910F09DFB68460FF04AF90FF016FA07
:104AD00003B0F0BD012B0ED16AB295193B2D08DC55
:104AE000002D0DDBEDB2C4B2E0E7002E06DBF4B220
:104AF000DBE70025F7E7EDB2C4B2D7E71724D4E728
:104B00003B25F0E713F2012070B582B006460FF0A6
:104B1000A5F905460FF014F9044628460FF002F9EE
:104B2000264B93F90030DBB922B2324440F2E973EC
:104B30009A4221DD3124C6B2694628460EF0F2FFC2
:104B400068468DF805608DF806400FF009F910F001
:104B500057FB68460FF004F90FF0D0F902B070BDB2
:104B6000012B0FD141B231440C291DDC002923DD7A
:104B7000CEB24E34E4B2DFE740F2E2739A4215DC83
:104B80003724D8E7022B14D10FF068F90C4D05FB40
:104B9000060528460FF0D4F8044628460FF0C2F860
:104BA0004E34C6B2E4B2C7E71E46E2E74E32D4B294
:104BB000C1E74E34E4B2BEE70C26DAE713F2012077
:104BC00080510100964B1B782DE9F043002B4BD010
:104BD000944B1B785B0207EE903AF8EEE76A924935
:104BE000924A0B68DFF86492914C1068914E9FEDE9
:104BF000927A0022013394460B60C9F80020964651
:104C000017462146042236F8023F013303EB8303A3
:104C10005B0007EE903AF8EEE77A8242C1ED107A37
:104C200007F1010301F120010CD9F4EEE67AF1EE6F
:104C300010FA37EE277ADFB204DDF0EE676A9646A7
:104C40004FF0010C0232F02ADDD1BCF1000F0ED181
:104C50007A4B1B78002B40F0E080794A1360794B47
:104C600000221A70BDE8F083DFED776AB7E7C9F874
:104C700000E0764ABEF1000FEAD007EE907A9FED91
:104C8000746AF8EEE77A77EE867AB0EE006AC7EEDD
:104C9000275AC6EEA57AF4EEC67AF1EE10FA02D5DE
:104CA00000231360D4E7654B01221A70694B1A7810
:104CB000752A11DC684904EB4213F6EE006AD3ED65
:104CC000007A93ED087A77EE877A203367EEA67A3A
:104CD00043ED047A9942F2D1DFF89CC19CF8006060
:104CE000B2424DDA5D4FDFED5E4ADFED5E6A04EB06
:104CF000021204EB06160021B6EE005AF1EE045A39
:104D0000B2EE086A92ED007A574D82ED017A67EEB5
:104D1000057AF4EEE47AF1EE10FA07DCFCEEE77ABD
:104D200017EE903A1B0203F478431DB2C7EE257AC2
:104D30004FF4FC63F4EEE67AF1EE10FA07DCFCEED9
:104D4000E77A17EE908A4FEAC80808EA0303C7EE2D
:104D5000067A4FF01F08F4EEE67AF1EE10FA05DC61
:104D6000FCEEE77A17EE908AC8F3C4082B431032A2
:104D700048EA0303B24227F8113001F10101C1D121
:104D8000DFF8BC8000218645C8F800107FF667AFC9
:104D9000364B2C4A1B68DFED286ADFF8E0E001267D
:104DA000013BB3421670CEED006A01D9BDE8F08335
:104DB0009CF800608642034626DD2D4A04EB001471
:104DC0000F468C4602EB8002D2ED007A94ED007A19
:104DD00077EE877A1034F4EEE67AF1EE10FAE2EC30
:104DE000017A04DD0121F0EE676A8C461F4601332B
:104DF0009E42E9D1BCF1000F0CD129B18742C8F81D
:104E0000007088BFC9F800701A4A138801331380F4
:104E1000BDE8F083CEED006AEFE74FF0000E45E706
:104E200004DE0120983E002074B502206CF40120BD
:104E300030DE01200ECD01200000000084DB0120C7
:104E4000A8ED012070F4012000000044E4ED0120F1
:104E50006F12833A5B3E0020F0EC0120F8DB01206A
:104E60000000484300007F4300C8FFFF303E0020A1
:104E7000FCED0120F0F40120B83E002060B50220D6
:104E800043090DD14000C3B21F200022022902D0E5
:104E900052105B1040105B0103EBC22318447047B3
:104EA000012B05D1C04300F01F003F230022EDE796
:104EB000022B04D100F01F023F230020E6E7032B62
:104EC00008D100F01F035B00C3F13F03DBB20020F9
:104ED0001F22DBE700200346D7E700BF10B592B0E2
:104EE000014601A80FF026FC0023322201A805A9E3
:104EF0000FF042FC05A905480EF08EFD044601A8FE
:104F00000FF0D8FBA0B212B010BD00BFDCF1012041
:104F100030B50C4D2C78204444B2022C83B00EDC0A
:104F2000002CB8BF02240021EB2300930191F02351
:104F30002D2205482C700DF095F803B030BD0024EB
:104F4000F1E700BF05DE0120DCF1012070B51E4B4A
:104F50001B68032B84B00FD01C4A1D4B92ED007AC6
:104F6000D3ED006AB8EEC77AC7EE267AFDEEE77A8F
:104F700017EE903AEB2B14DD164B17481B6899B2CD
:104F8000CE1C3E221BB24FF6FF7537240339019326
:104F900009B233B20395029400920EF035F804B0D2
:104FA00070BD0E4A0C481288039299B2CD1C1BB2F8
:104FB00045243E220339019309B22BB20294009298
:104FC0000EF022F8D8E700BF303E0020243E00203B
:104FD000BC3E00206CF40120DCF10120C03E00202A
:104FE000E9B12DE9F041DFF83C8082B00D4617466B
:104FF00006B200240134A5420ED0E307FAD5B8F872
:10500000003000933A1B12B20A233146044801349F
:105010000CF0AEFEA542F0D102B0BDE8F0817047C1
:10502000DCF10120AE3E00202DE9F04FFBB00DF188
:105030000A090DF1FA0A00202F4E304F4D46544612
:10504000034636F8021F01EB830287FB02E3D21707
:10505000C2EB6303D129A8BFD1210230D12B1A465C
:10506000A8BFD122EA2824F8021F25F8022F9BB2FC
:10507000E7D10DF1F40B042503E00235CB45ADB2C9
:1050800037D03AF8024F1E48E4B2A4F11E062FB200
:105090004FF6205326EAE6760093394633464622F9
:1050A00039F8028F0CF054FE4FF6E07306F1460219
:1050B0003946009312481E230CF04AFE002004F1EA
:1050C00046020090C4F1D20339460D480CF040FE70
:1050D0005FFA88F2042AD0D94FF6FF730093413269
:1050E0003946052306480CF033FE0235CB45ADB2F8
:1050F000C7D17BB0BDE8F08F0ECD01206766666634
:10510000DCF1012010B50F4C002120460DF076F99E
:10511000204600210DF09AFB20464FF6FF710EF05D
:10512000FDFC204600210DF05BF9002220461146CF
:105130000EF0D8FC204628224621BDE810400DF094
:1051400097BA00BFDCF101202DE9F0418CB00DF1E0
:10515000FF3600250746B0462C4628460FF0D6FD00
:1051600008F8010F4440082314F0010F4FEA5402DD
:1051700003F1FF3314BF82F08C04C4F3470413F02F
:10518000FF03F1D101352F2DE7D1F4B99DF82A3075
:10519000332B03D020460CB0BDE8F0819DF82930B8
:1051A000312BF7D19DF82830302BF3D19DF82730E3
:1051B000302BEFD1013F0DF12F0316F8012F07F827
:1051C000012F9E42F9D10120E5E718460CB0BDE859
:1051D000F08100BFF8B50025471E2C4617F8016F77
:1051E0000823744014F0010F4FEA540203F1FF3317
:1051F00014BF82F08C04C4F3470413F0FF03F1D111
:1052000028460FF083FD864209D0314628460FF02C
:1052100097FD28460FF07AFD3B78834204D1013593
:105220002E2DDBD1002600E00126214628460FF076
:1052300087FD28460FF06AFD84420CBF30460120EE
:10524000F8BD00BFF0B58DB06846FFF77DFF04469E
:10525000A0B16C499DF821206B4BBDF802709DF800
:1052600027609DF828509DF829000F80012A9DF89D
:105270002A101E705D709870D97002D020460DB053
:10528000F0BD624E62489DF808703760614D9DF830
:105290000960066060499DF80A60604B2E609DF8C9
:1052A00006600E609DF805505D4F5E485E495F4E9A
:1052B0001A609DF804303B6003600D603560002D7E
:1052C00000F08680022D00F09680012D00F08A808B
:1052D00000215748574D0DF083F8316854480FF0BE
:1052E000E1F95548554A5649564B9DF807609DF8D7
:1052F0001870067017709DF819609DF81A00059ACD
:105300002E7008701A70FDF793FA9DF90C304E4814
:105310004E4A4F4F4F4D9DF81B600499037018463D
:105320003B702E701160FDF75BFC9DF90B304A4914
:105330004A4A0B7018461370FDF77AFC9DF822302C
:10534000DFF844E1464A474F9DF824009DF8256068
:105350009DF82650DFF834C1106059B25B428EF8D8
:105360000030DFF82CE1397056603F4F95609DF8B2
:1053700023208CF800108EF800203C499DF81C205A
:105380003A703B4A9DF81D700F703A499DF81F70A6
:1053900017708319384A9DF820700F70EB429DF802
:1053A0001E1011703FF46AAF0221FFF769FD334B05
:1053B000022118803046FFF763FD314B0121188030
:1053C0002846FFF75DFD2F4B188020460DB0F0BD3D
:1053D000294617480DF03AFA294615480DF00EF8FF
:1053E00035686FE7002112480DF030FA00211048AF
:1053F0000DF004F86CE700210D480CF0FFFF356854
:1054000063E700BFB8D5012034ED0120643E0020E1
:105410005C3E0020E03E0020C43E0020B43E002060
:10542000C8D9012028DA0120003F0020303E0020AA
:10543000DCF10120623E0020DC3E0020063F00201F
:10544000043F0020593E0020603E0020243E002002
:10545000C8D40120AC3E00205DB50220053F0020ED
:105460000C7502201CDE01206D3E0020613E0020F4
:105470006E3E0020983E00206C3E0020AE3E002094
:10548000C03E0020C83E00202CDA01205A3E0020F9
:10549000383E0020F0B5454B4549464F464E474DF6
:1054A000474C484809681B88474A3F6836682D685A
:1054B000246800681268DFF854E18FB001338DF87A
:1054C000101042498DF811708DF812608DF8295036
:1054D0008DF80C408DF80E003D4F3E4E3E4D3F4C3A
:1054E0003F4809788DF80D20ADF80A303D4A3E4B13
:1054F0009EF800E03F7836782D78246800788DF8A3
:10550000211040F2E9318DF80FE012788DF820700B
:105510008DF822608DF8235006940790ADF808109E
:1055200093E80300DFF8E8E0304F314E314D8DF85D
:105530001420C0F307238DF830302F4C2F49304A08
:105540009EF800C097F800E037782E782D4D8DF842
:105550002F00C0F307438DF831302B4B24780978A6
:1055600012782D788DF81340000E1C688DF83200EB
:105570008DF82A108DF82B2059689A688DF824C070
:10558000002302A88DF825E08DF827708DF828609B
:105590008DF826508DF82C408DF82D108DF82E208A
:1055A000ADF83430FFF716FE0FB0F0BDB8D50120CE
:1055B000643E00205C3E0020E03E0020B43E00201F
:1055C00028DA0120C43E0020003F0020623E002077
:1055D000063F0020043F0020AC3E0020243E002077
:1055E000593E0020603E002020EE0100613E002078
:1055F0006E3E0020983E0020053F00205A3E0020CD
:10560000383E00206C3E00200C750220DC3E00205D
:105610006D3E0020F8B55A4D28605A4806F04EFC01
:10562000594B1B78013B012B0BD9584E584C59480C
:10563000594A2968012300273760236003601360FB
:1056400029B3012155484E4E10F092FE10215448C6
:1056500010F08EFE0121514810F08AFE514B2A684D
:1056600053F82240204615F06BFD0146204610F00D
:105670007FFE4D480EF0C6FF2C685CB1012C15D0A2
:10568000022C1DD0032C43D0042C3CD0F8BD0223A7
:105690001360D6E7454A464B10681860FDF710F8CE
:1056A0002046FCF7DBFF3468012CE9D10020FCF731
:1056B000D5FF2C683F4B4FF48032022C1A62E1D1A7
:1056C0004FF480412F4806F0C7FB0120FCF7C6FFCE
:1056D000394BDFED3A6A1B7807EE903AF8EEE77A3D
:1056E000B7EE006A86EE277AB4EEE67AF1EE10FAAB
:1056F0002ED4F2EE007AB4EEE77AF1EE10FA34DD51
:105700004FF4002226E00220BDE8F840FCF7A6BFD7
:105710001C4E4FF48041304606F0B4FB0120FCF7EC
:105720009DFF274B1B7886F82830DBB1322B28BF32
:105730003223012292FBF3F307EE903AF8EEE77A78
:105740001C4B2C68C6ED097A00221A62DA619BE7CD
:1057500040F28F220B49174B0A6200222C681A6212
:10576000DA618FE7F7EE007AEAE7DFED166ADFED40
:10577000167AE7EE267AFCEEE77A17EE902AE9E74A
:10578000C8D90120D0D6012078ED0120DCED012020
:10579000C4DA0120E0DB0120D83E002088ED0100C2
:1057A00028EE01003C3E0020E44000208CDB01207C
:1057B000243E00204CD70120063F00200AD7233C7E
:1057C000AC3E002000008047EE7CFF3E38B50D2146
:1057D0000446434810F0CCFD42480EF013FF424B04
:1057E000012564201D700FF037FD404B404A1B68B7
:1057F00003EB430312F82330652B42D03D4D0023C9
:10580000062C2B7034DC0220FCF728FF3A4B3B4C73
:105810001B682268013B9A4231DC13EA220338BF3D
:10582000134603EB43023649236003EB820319441A
:105830000D22344815F00AFD0121334810F098FD7F
:105840000121314810F094FD01212F4810F090FD06
:105850002C4815F075FC01462A4810F089FD2148B6
:105860000EF0D0FE27492948BDE8384007F0D4B8EB
:10587000274B1868FFF7CEFE01232B70C6E70023E5
:10588000CFE70321234810F073FD214615480EF0A1
:1058900009FF14480EF0B6FE0A2C1AD01E4B1C68E5
:1058A000072C12DC002C17DB1C4B04EB440203EB2F
:1058B000C2035D68284615F043FC0146284610F0F7
:1058C00057FD2046FDF7A0F898E729460024144D1F
:1058D000F4E70321134DF1E7134D02210724EDE70F
:1058E00048EE0100E440002010F20120DCED012030
:1058F00078F4012039ED0120B4D40120D0D9012061
:105900002C750220D8D9012088ED010044DA01204D
:10591000C8D9012058EE0100643E0020E4F60100E1
:1059200040EE01003CEE010044EE01002DE9F04F95
:10593000B24AB34B1468B348B3491C600C320568D3
:105940000C681268B149B2485D608DB0DA609C6045
:105950000EF0F0FEAF4AB049AD48B04DDFF8DC9232
:10596000DFF83CA311F08EFFAD49AE4A0968116023
:10597000AD4AAE4BAE482D78AE49126800781D7026
:1059800000230870C9F800A089F80930C9F8103060
:1059900089F80830C9F80C300AB9EEE31A465369A1
:1059A000002BFBD1C2F814900025A34BA348C9F8E3
:1059B0001450A9F80450A9F8065089F80A50C9F8FB
:1059C000003006F04DFD29462A469D489D4F9E4ECB
:1059D000FCF7E8FD9A4A9D4B1360102006F0ECFBA3
:1059E000984B012103F118021846FCF7DBFD954A9C
:1059F000974B82F8F45029462A46964887F8F55086
:105A0000C7F8F05087F8F6503B60FCF7CBFD914AA1
:105A1000914B1360914A8F4F18324FF48043A2F19B
:105A2000180002213B62FCF7BDFD8C4A8C4B1360D1
:105A3000012006F224722B4629463572F560C6F81D
:105A400000A070723261354600E02A6942F82310E6
:105A5000727A7D4801339A42F7DC734B1A680AB9AF
:105A60008FE31A465369002BFBD1566100257D490F
:105A700031602A4601237C4F7C487561B580F580F2
:105A8000B5724FF4807186F8215786F82257C6F810
:105A9000187111F01BFE644BDFF8DC811A68C6F840
:105AA0001C51082386F8203788F80950C8F800A050
:105AB000C8F8105088F80850C8F80C505A4B0AB96A
:105AC00061E31A465369002BFBD1C2F8148000250C
:105AD000674BC8F81450A8F80450A8F8065088F886
