:1000000000000320D10100007D53010035530100A1
:1000100035530100355301003553010035530100BC
:100020003553010035530100355301007D53010064
:100030007D53010035530100C16E0100C56E010002
:100040007D5301007D5301007D5301007D5301006C
:100050007D5301007D5301007D5301007D5301005C
:100060007D5301007D5301007D5301007D5301004C
:100070007D5301007D5301007D5301007D5301003C
:100080007D5301007D5301007D5301007D5301002C
:100090007D5301007D5301007D5301007D5301001C
:1000A000E9810100F58101007D5301007D530100CC
:1000B0007D5301007D5301007D5301007D530100FC
:1000C0007D5301007D5301007D5301007D530100EC
:1000D0007D5301007D5301007D5301007D530100DC
:1000E0007D5301007D5301007D5301007D530100CC
:1000F0007D5301007D5301007D5301007D530100BC
:100100007D5301007D5301007D5301007D530100AB
:100110007D530100D15D01007D5301007D5301003D
:100120007D5301007D5301007D5301007D5301008B
:100130007D5301007D5301007D5301007D5301007B
:10014000954601007D5301007D5301007D53010060
:100150007D5301007D5301007D5301007D5301005B
:100160007D5301007D530100018201007D53010098
:100170007D5301007D5301007D5301007D5301003B
:100180007D5301007D5301007D5301007D5301002B
:100190007D5301007D5301007D5301007D5301001B
:1001A0007D5301007D5301007D5301007D5301000B
:1001B0007D5301007D5301007D5301007D530100FB
:1001C0007D5301007D5301007D5301007D530100EB
:1001D0005C4B4CF2205210B51A804DF628121A8052
:1001E00000BF00BF15F0CEF8574B4FF030621A60D9
:1001F000564A9A60564ADA60564B4FF470021A60BB
:10020000554B564A1A60564B1A78110703D51A787F
:1002100042F008021A70534B5349AA221A70534AEB
:10022000534B8B4204D252F8040F43F8040BF8E707
:10023000504B514900228B4202D243F8042BFAE77B
:100240004E494F4A002352F8230041F8230001335E
:10025000742BF8D14B4B4C4A802103F8011B93427D
:10026000FBD14A4B454A1A60494B8A221A70A3F5C2
:10027000805324225A70A0221A709A799207FCD5D2
:100280009A79D406FCD4434A937903F00C03082BE3
:10029000FAD1414B60221A7002331A78802AFCD1BD
:1002A0003C4B01221A715D225A719A799006FCD555
:1002B0009979384A4906FBD5384B394919600021EC
:1002C000596020231370937903F00C030C2BFAD19F
:1002D000344B354A1A60354A354C136813F4807331
:1002E00003D123604FF4A8531360324B324A1A6093
:1002F00000225A60072243F8042C304AC3F80C2D20
:1003000062B615F0D5FB2368DA0705D52C4815F041
:10031000A1F92C4B2C4A1A602C4B1B785B0609D593
:10032000284C294B22689A4204D1254815F092F9AD
:100330000023236019F0E8FF15F02AF814F058FFA5
:10034000FEE700BF0E20054030800440823F0400DD
:100350000100002B88ED00E0002008E0030000858C
:1003600002D0074000E00740F84C002098520400FB
:10037000303D0020004D0020E49502200038002090
:100380000000000000E400E064E400E008ED00E0AC
:10039000005006400040064001E007404480044011
:1003A0000000060204800440C010070010D0034083
:1003B00014D0034014E000E01FBF02000000202022
:1003C000A58268601CE00340A5C3945A00F0074072
:1003D000FFFFFFFFFFFFFFFFFFFFFFFFFFFFFFFF2D
:1003E000FFFFFFFFFFFFFFFFFFFFFFFFFFFFFFFF1D
:1003F000FFFFFFFFFFFFFFFFFFFFFFFFFFFFFFFF0D
:10040000FFFFFFFFFFFFFFFFFFFFFFFFDEF9FFFF23
:1004100010B5054C237833B9044B13B10448AFF33E
:1004200000800123237010BD004D0020000000005B
:1004300094520400084B10B51BB108490848AFF3AB
:1004400000800848036803B910BD074B002BFBD0A0
:10045000BDE81040184700BF00000000044D002018
:1004600094520400F84C00200000000010B5044B2A
:10047000044640F8183B09F0CFF8204610BD00BFF5
:10048000A01E030015F0E0B810B5044614F0ACF857
:10049000204610BD214B10B41A68136850681978B3
:1004A0000478507A137A044201EA03011BD0937A4C
:1004B00003F0030309B143F0040343F00803991068
:1004C000013B91720D2B0BD8DFE803F021071B07CE
:1004D0000A152121150A071B0721D368013BD360A8
:1004E0005DF8044B7047937A03F003030029E6D0CC
:1004F00043F00403E3E7D3685DF8044B023BD360A9
:100500007047D3685DF8044B0233D3607047D368FB
:100510005DF8044B0133D360704700BF0C8E02209E
:10052000214B10B45A681368506819780478507ACF
:10053000137A044201EA03011BD0937A03F0030308
:1005400009B143F0040343F008039910013B917291
:100550000D2B0BD8DFE803F021071B070A1521211B
:10056000150A071B0721D368013BD3605DF8044BD4
:100570007047937A03F003030029E6D043F00403A5
:10058000E3E7D3685DF8044B023BD3607047D36860
:100590005DF8044B0233D3607047D3685DF8044BB9
:1005A0000133D360704700BF0C8E0220214B10B482
:1005B0009A681368506819780478507A137A04425C
:1005C00001EA03011BD0937A03F0030309B143F05E
:1005D000040343F008039910013B91720D2B0BD8D3
:1005E000DFE803F021071B070A152121150A071B65
:1005F0000721D368013BD3605DF8044B7047937AC1
:1006000003F003030029E6D043F00403E3E7D368D3
:100610005DF8044B023BD3607047D3685DF8044B30
:100620000233D3607047D3685DF8044B0133D36065
:10063000704700BF0C8E0220214B10B4DA6813689B
:10064000506819780478507A137A044201EA030159
:100650001BD0937A03F0030309B143F0040343F082
:1006600008039910013B91720D2B0BD8DFE803F0C2
:1006700021071B070A152121150A071B0721D3682B
:10068000013BD3605DF8044B7047937A03F003039A
:100690000029E6D043F00403E3E7D3685DF8044B98
:1006A000023BD3607047D3685DF8044B0233D360DC
:1006B0007047D3685DF8044B0133D360704700BFC7
:1006C0000C8E0220214B10B41A69136850681978F7
:1006D0000478507A137A044201EA03011BD0937A1A
:1006E00003F0030309B143F0040343F00803991036
:1006F000013B91720D2B0BD8DFE803F021071B079C
:100700000A152121150A071B0721D368013BD36075
:100710005DF8044B7047937A03F003030029E6D099
:1007200043F00403E3E7D3685DF8044B023BD36076
:100730007047D3685DF8044B0233D3607047D368C9
:100740005DF8044B0133D360704700BF0C8E02206C
:10075000214B10B45A691368506819780478507A9C
:10076000137A044201EA03011BD0937A03F00303D6
:1007700009B143F0040343F008039910013B91725F
:100780000D2B0BD8DFE803F021071B070A152121E9
:10079000150A071B0721D368013BD3605DF8044BA2
:1007A0007047937A03F003030029E6D043F0040373
:1007B000E3E7D3685DF8044B023BD3607047D3682E
:1007C0005DF8044B0233D3607047D3685DF8044B87
:1007D0000133D360704700BF0C8E0220214B10B450
:1007E0009A691368506819780478507A137A044229
:1007F00001EA03011BD0937A03F0030309B143F02C
:10080000040343F008039910013B91720D2B0BD8A0
:10081000DFE803F021071B070A152121150A071B32
:100820000721D368013BD3605DF8044B7047937A8E
:1008300003F003030029E6D043F00403E3E7D368A1
:100840005DF8044B023BD3607047D3685DF8044BFE
:100850000233D3607047D3685DF8044B0133D36033
:10086000704700BF0C8E0220214B10B4DA69136868
:10087000506819780478507A137A044201EA030127
:100880001BD0937A03F0030309B143F0040343F050
:1008900008039910013B91720D2B0BD8DFE803F090
:1008A00021071B070A152121150A071B0721D368F9
:1008B000013BD3605DF8044B7047937A03F0030368
:1008C0000029E6D043F00403E3E7D3685DF8044B66
:1008D000023BD3607047D3685DF8044B0233D360AA
:1008E0007047D3685DF8044B0133D360704700BF95
:1008F0000C8E0220214B10B41A6A136850681978C4
:100900000478507A137A044201EA03011BD0937AE7
:1009100003F0030309B143F0040343F00803991003
:10092000013B91720D2B0BD8DFE803F021071B0769
:100930000A152121150A071B0721D368013BD36043
:100940005DF8044B7047937A03F003030029E6D067
:1009500043F00403E3E7D3685DF8044B023BD36044
:100960007047D3685DF8044B0233D3607047D36897
:100970005DF8044B0133D360704700BF0C8E02203A
:10098000214B10B45A6A1368506819780478507A69
:10099000137A044201EA03011BD0937A03F00303A4
:1009A00009B143F0040343F008039910013B91722D
:1009B0000D2B0BD8DFE803F021071B070A152121B7
:1009C000150A071B0721D368013BD3605DF8044B70
:1009D0007047937A03F003030029E6D043F0040341
:1009E000E3E7D3685DF8044B023BD3607047D368FC
:1009F0005DF8044B0233D3607047D3685DF8044B55
:100A00000133D360704700BF0C8E0220214B10B41D
:100A10009A6A1368506819780478507A137A0442F5
:100A200001EA03011BD0937A03F0030309B143F0F9
:100A3000040343F008039910013B91720D2B0BD86E
:100A4000DFE803F021071B070A152121150A071B00
:100A50000721D368013BD3605DF8044B7047937A5C
:100A600003F003030029E6D043F00403E3E7D3686F
:100A70005DF8044B023BD3607047D3685DF8044BCC
:100A80000233D3607047D3685DF8044B0133D36001
:100A9000704700BF0C8E0220214B10B4DA6A136835
:100AA000506819780478507A137A044201EA0301F5
:100AB0001BD0937A03F0030309B143F0040343F01E
:100AC00008039910013B91720D2B0BD8DFE803F05E
:100AD00021071B070A152121150A071B0721D368C7
:100AE000013BD3605DF8044B7047937A03F0030336
:100AF0000029E6D043F00403E3E7D3685DF8044B34
:100B0000023BD3607047D3685DF8044B0233D36077
:100B10007047D3685DF8044B0133D360704700BF62
:100B20000C8E0220214B10B41A6B13685068197890
:100B30000478507A137A044201EA03011BD0937AB5
:100B400003F0030309B143F0040343F008039910D1
:100B5000013B91720D2B0BD8DFE803F021071B0737
:100B60000A152121150A071B0721D368013BD36011
:100B70005DF8044B7047937A03F003030029E6D035
:100B800043F00403E3E7D3685DF8044B023BD36012
:100B90007047D3685DF8044B0233D3607047D36865
:100BA0005DF8044B0133D360704700BF0C8E022008
:100BB000214B10B45A6B1368506819780478507A36
:100BC000137A044201EA03011BD0937A03F0030372
:100BD00009B143F0040343F008039910013B9172FB
:100BE0000D2B0BD8DFE803F021071B070A15212185
:100BF000150A071B0721D368013BD3605DF8044B3E
:100C00007047937A03F003030029E6D043F004030E
:100C1000E3E7D3685DF8044B023BD3607047D368C9
:100C20005DF8044B0233D3607047D3685DF8044B22
:100C30000133D360704700BF0C8E0220214B10B4EB
:100C40009A6B1368506819780478507A137A0442C2
:100C500001EA03011BD0937A03F0030309B143F0C7
:100C6000040343F008039910013B91720D2B0BD83C
:100C7000DFE803F021071B070A152121150A071BCE
:100C80000721D368013BD3605DF8044B7047937A2A
:100C900003F003030029E6D043F00403E3E7D3683D
:100CA0005DF8044B023BD3607047D3685DF8044B9A
:100CB0000233D3607047D3685DF8044B0133D360CF
:100CC000704700BF0C8E0220214B10B4DA6B136802
:100CD000506819780478507A137A044201EA0301C3
:100CE0001BD0937A03F0030309B143F0040343F0EC
:100CF00008039910013B91720D2B0BD8DFE803F02C
:100D000021071B070A152121150A071B0721D36894
:100D1000013BD3605DF8044B7047937A03F0030303
:100D20000029E6D043F00403E3E7D3685DF8044B01
:100D3000023BD3607047D3685DF8044B0233D36045
:100D40007047D3685DF8044B0133D360704700BF30
:100D50000C8E0220214B10B41A6C1368506819785D
:100D60000478507A137A044201EA03011BD0937A83
:100D700003F0030309B143F0040343F0080399109F
:100D8000013B91720D2B0BD8DFE803F021071B0705
:100D90000A152121150A071B0721D368013BD360DF
:100DA0005DF8044B7047937A03F003030029E6D003
:100DB00043F00403E3E7D3685DF8044B023BD360E0
:100DC0007047D3685DF8044B0233D3607047D36833
:100DD0005DF8044B0133D360704700BF0C8E0220D6
:100DE000214B10B45A6C1368506819780478507A03
:100DF000137A044201EA03011BD0937A03F0030340
:100E000009B143F0040343F008039910013B9172C8
:100E10000D2B0BD8DFE803F021071B070A15212152
:100E2000150A071B0721D368013BD3605DF8044B0B
:100E30007047937A03F003030029E6D043F00403DC
:100E4000E3E7D3685DF8044B023BD3607047D36897
:100E50005DF8044B0233D3607047D3685DF8044BF0
:100E60000133D360704700BF0C8E0220214B10B4B9
:100E7000D3F8E8201368506819780478507A137A08
:100E8000044201EA03011BD0937A03F0030309B182
:100E900043F0040343F008039910013B91720D2BBA
:100EA0000BD8DFE803F021071B070A152121150ADB
:100EB000071B0721D368013BD3605DF8044B7047E3
:100EC000937A03F003030029E6D043F00403E3E739
:100ED000D3685DF8044B023BD3607047D3685DF87C
:100EE000044B0233D3607047D3685DF8044B013381
:100EF000D36070470C8E0220214B10B4D3F8EC2045
:100F00001368506819780478507A137A044201EA19
:100F100003011BD0937A03F0030309B143F00403E8
:100F200043F008039910013B91720D2B0BD8DFE8B9
:100F300003F021071B070A152121150A071B0721AA
:100F4000D368013BD3605DF8044B7047937A03F09C
:100F500003030029E6D043F00403E3E7D3685DF818
:100F6000044B023BD3607047D3685DF8044B0233F7
:100F7000D3607047D3685DF8044B0133D36070478A
:100F80000C8E0220214B10B4D3F8C820136850688F
:100F900019780478507A137A044201EA03011BD0CD
:100FA000937A03F0030309B143F0040343F0080309
:100FB0009910013B91720D2B0BD8DFE803F021074C
:100FC0001B070A152121150A071B0721D368013BBE
:100FD000D3605DF8044B7047937A03F00303002954
:100FE000E6D043F00403E3E7D3685DF8044B023B2B
:100FF000D3607047D3685DF8044B0233D360704709
:10100000D3685DF8044B0133D36070470C8E022027
:10101000214B10B4D3F8CC201368506819780478A9
:10102000507A137A044201EA03011BD0937A03F049
:10103000030309B143F0040343F008039910013B93
:1010400091720D2B0BD8DFE803F021071B070A155F
:101050002121150A071B0721D368013BD3605DF8E6
:10106000044B7047937A03F003030029E6D043F062
:101070000403E3E7D3685DF8044B023BD360704799
:10108000D3685DF8044B0233D3607047D3685DF8D2
:10109000044B0133D36070470C8E0220214B10B4F7
:1010A000D3F8D0201368506819780478507A137AEE
:1010B000044201EA03011BD0937A03F0030309B150
:1010C00043F0040343F008039910013B91720D2B88
:1010D0000BD8DFE803F021071B070A152121150AA9
:1010E000071B0721D368013BD3605DF8044B7047B1
:1010F000937A03F003030029E6D043F00403E3E707
:10110000D3685DF8044B023BD3607047D3685DF849
:10111000044B0233D3607047D3685DF8044B01334E
:10112000D36070470C8E0220214B10B4D3F8D4202A
:101130001368506819780478507A137A044201EAE7
:1011400003011BD0937A03F0030309B143F00403B6
:1011500043F008039910013B91720D2B0BD8DFE887
:1011600003F021071B070A152121150A071B072178
:10117000D368013BD3605DF8044B7047937A03F06A
:1011800003030029E6D043F00403E3E7D3685DF8E6
:10119000044B023BD3607047D3685DF8044B0233C5
:1011A000D3607047D3685DF8044B0133D360704758
:1011B0000C8E0220214B10B4D3F8D820136850684D
:1011C00019780478507A137A044201EA03011BD09B
:1011D000937A03F0030309B143F0040343F00803D7
:1011E0009910013B91720D2B0BD8DFE803F021071A
:1011F0001B070A152121150A071B0721D368013B8C
:10120000D3605DF8044B7047937A03F00303002921
:10121000E6D043F00403E3E7D3685DF8044B023BF8
:10122000D3607047D3685DF8044B0233D3607047D6
:10123000D3685DF8044B0133D36070470C8E0220F5
:10124000214B10B4D3F8DC20136850681978047867
:10125000507A137A044201EA03011BD0937A03F017
:10126000030309B143F0040343F008039910013B61
:1012700091720D2B0BD8DFE803F021071B070A152D
:101280002121150A071B0721D368013BD3605DF8B4
:10129000044B7047937A03F003030029E6D043F030
:1012A0000403E3E7D3685DF8044B023BD360704767
:1012B000D3685DF8044B0233D3607047D3685DF8A0
:1012C000044B0133D36070470C8E0220214B10B4C5
:1012D000D3F8E0201368506819780478507A137AAC
:1012E000044201EA03011BD0937A03F0030309B11E
:1012F00043F0040343F008039910013B91720D2B56
:101300000BD8DFE803F021071B070A152121150A76
:10131000071B0721D368013BD3605DF8044B70477E
:10132000937A03F003030029E6D043F00403E3E7D4
:10133000D3685DF8044B023BD3607047D3685DF817
:10134000044B0233D3607047D3685DF8044B01331C
:10135000D36070470C8E0220214B10B4D3F8E420E8
:101360001368506819780478507A137A044201EAB5
:1013700003011BD0937A03F0030309B143F0040384
:1013800043F008039910013B91720D2B0BD8DFE855
:1013900003F021071B070A152121150A071B072146
:1013A000D368013BD3605DF8044B7047937A03F038
:1013B00003030029E6D043F00403E3E7D3685DF8B4
:1013C000044B023BD3607047D3685DF8044B023393
:1013D000D3607047D3685DF8044B0133D360704726
:1013E0000C8E0220214B10B49A6C13685068197847
:1013F0000478507A137A044201EA03011BD0937AED
:1014000003F0030309B143F0040343F00803991008
:10141000013B91720D2B0BD8DFE803F021071B076E
:101420000A152121150A071B0721D368013BD36048
:101430005DF8044B7047937A03F003030029E6D06C
:1014400043F00403E3E7D3685DF8044B023BD36049
:101450007047D3685DF8044B0233D3607047D3689C
:101460005DF8044B0133D360704700BF0C8E02203F
:10147000214B10B4DA6C1368506819780478507AEC
:10148000137A044201EA03011BD0937A03F00303A9
:1014900009B143F0040343F008039910013B917232
:1014A0000D2B0BD8DFE803F021071B070A152121BC
:1014B000150A071B0721D368013BD3605DF8044B75
:1014C0007047937A03F003030029E6D043F0040346
:1014D000E3E7D3685DF8044B023BD3607047D36801
:1014E0005DF8044B0233D3607047D3685DF8044B5A
:1014F0000133D360704700BF0C8E0220214B10B423
:101500001A6D1368506819780478507A137A044277
:1015100001EA03011BD0937A03F0030309B143F0FE
:10152000040343F008039910013B91720D2B0BD873
:10153000DFE803F021071B070A152121150A071B05
:101540000721D368013BD3605DF8044B7047937A61
:1015500003F003030029E6D043F00403E3E7D36874
:101560005DF8044B023BD3607047D3685DF8044BD1
:101570000233D3607047D3685DF8044B0133D36006
:10158000704700BF0C8E0220214B10B45A6D1368B7
:10159000506819780478507A137A044201EA0301FA
:1015A0001BD0937A03F0030309B143F0040343F023
:1015B00008039910013B91720D2B0BD8DFE803F063
:1015C00021071B070A152121150A071B0721D368CC
:1015D000013BD3605DF8044B7047937A03F003033B
:1015E0000029E6D043F00403E3E7D3685DF8044B39
:1015F000023BD3607047D3685DF8044B0233D3607D
:101600007047D3685DF8044B0133D360704700BF67
:101610000C8E0220214B10B49A6D13685068197813
:101620000478507A137A044201EA03011BD0937ABA
:1016300003F0030309B143F0040343F008039910D6
:10164000013B91720D2B0BD8DFE803F021071B073C
:101650000A152121150A071B0721D368013BD36016
:101660005DF8044B7047937A03F003030029E6D03A
:1016700043F00403E3E7D3685DF8044B023BD36017
:101680007047D3685DF8044B0233D3607047D3686A
:101690005DF8044B0133D360704700BF0C8E02200D
:1016A000214B10B4DA6D1368506819780478507AB9
:1016B000137A044201EA03011BD0937A03F0030377
:1016C00009B143F0040343F008039910013B917200
:1016D0000D2B0BD8DFE803F021071B070A1521218A
:1016E000150A071B0721D368013BD3605DF8044B43
:1016F0007047937A03F003030029E6D043F0040314
:10170000E3E7D3685DF8044B023BD3607047D368CE
:101710005DF8044B0233D3607047D3685DF8044B27
:101720000133D360704700BF0C8E0220214B10B4F0
:101730001A6E1368506819780478507A137A044244
:1017400001EA03011BD0937A03F0030309B143F0CC
:10175000040343F008039910013B91720D2B0BD841
:10176000DFE803F021071B070A152121150A071BD3
:101770000721D368013BD3605DF8044B7047937A2F
:1017800003F003030029E6D043F00403E3E7D36842
:101790005DF8044B023BD3607047D3685DF8044B9F
:1017A0000233D3607047D3685DF8044B0133D360D4
:1017B000704700BF0C8E0220214B10B45A6E136884
:1017C000506819780478507A137A044201EA0301C8
:1017D0001BD0937A03F0030309B143F0040343F0F1
:1017E00008039910013B91720D2B0BD8DFE803F031
:1017F00021071B070A152121150A071B0721D3689A
:10180000013BD3605DF8044B7047937A03F0030308
:101810000029E6D043F00403E3E7D3685DF8044B06
:10182000023BD3607047D3685DF8044B0233D3604A
:101830007047D3685DF8044B0133D360704700BF35
:101840000C8E0220214B10B49A6E136850681978E0
:101850000478507A137A044201EA03011BD0937A88
:1018600003F0030309B143F0040343F008039910A4
:10187000013B91720D2B0BD8DFE803F021071B070A
:101880000A152121150A071B0721D368013BD360E4
:101890005DF8044B7047937A03F003030029E6D008
:1018A00043F00403E3E7D3685DF8044B023BD360E5
:1018B0007047D3685DF8044B0233D3607047D36838
:1018C0005DF8044B0133D360704700BF0C8E0220DB
:1018D000214B10B4DA6E1368506819780478507A86
:1018E000137A044201EA03011BD0937A03F0030345
:1018F00009B143F0040343F008039910013B9172CE
:101900000D2B0BD8DFE803F021071B070A15212157
:10191000150A071B0721D368013BD3605DF8044B10
:101920007047937A03F003030029E6D043F00403E1
:10193000E3E7D3685DF8044B023BD3607047D3689C
:101940005DF8044B0233D3607047D3685DF8044BF5
:101950000133D360704700BF0C8E0220214B10B4BE
:101960001A6F1368506819780478507A137A044211
:1019700001EA03011BD0937A03F0030309B143F09A
:10198000040343F008039910013B91720D2B0BD80F
:10199000DFE803F021071B070A152121150A071BA1
:1019A0000721D368013BD3605DF8044B7047937AFD
:1019B00003F003030029E6D043F00403E3E7D36810
:1019C0005DF8044B023BD3607047D3685DF8044B6D
:1019D0000233D3607047D3685DF8044B0133D360A2
:1019E000704700BF0C8E0220214B10B45A6F136851
:1019F000506819780478507A137A044201EA030196
:101A00001BD0937A03F0030309B143F0040343F0BE
:101A100008039910013B91720D2B0BD8DFE803F0FE
:101A200021071B070A152121150A071B0721D36867
:101A3000013BD3605DF8044B7047937A03F00303D6
:101A40000029E6D043F00403E3E7D3685DF8044BD4
:101A5000023BD3607047D3685DF8044B0233D36018
:101A60007047D3685DF8044B0133D360704700BF03
:101A70000C8E0220214B10B49A6F136850681978AD
:101A80000478507A137A044201EA03011BD0937A56
:101A900003F0030309B143F0040343F00803991072
:101AA000013B91720D2B0BD8DFE803F021071B07D8
:101AB0000A152121150A071B0721D368013BD360B2
:101AC0005DF8044B7047937A03F003030029E6D0D6
:101AD00043F00403E3E7D3685DF8044B023BD360B3
:101AE0007047D3685DF8044B0233D3607047D36806
:101AF0005DF8044B0133D360704700BF0C8E0220A9
:101B0000214B10B4DA6F1368506819780478507A52
:101B1000137A044201EA03011BD0937A03F0030312
:101B200009B143F0040343F008039910013B91729B
:101B30000D2B0BD8DFE803F021071B070A15212125
:101B4000150A071B0721D368013BD3605DF8044BDE
:101B50007047937A03F003030029E6D043F00403AF
:101B6000E3E7D3685DF8044B023BD3607047D3686A
:101B70005DF8044B0233D3607047D3685DF8044BC3
:101B80000133D360704700BF0C8E0220214B10B48C
:101B9000D3F880201368506819780478507A137A43
:101BA000044201EA03011BD0937A03F0030309B155
:101BB00043F0040343F008039910013B91720D2B8D
:101BC0000BD8DFE803F021071B070A152121150AAE
:101BD000071B0721D368013BD3605DF8044B7047B6
:101BE000937A03F003030029E6D043F00403E3E70C
:101BF000D3685DF8044B023BD3607047D3685DF84F
:101C0000044B0233D3607047D3685DF8044B013353
:101C1000D36070470C8E0220214B10B4D3F884207F
:101C20001368506819780478507A137A044201EAEC
:101C300003011BD0937A03F0030309B143F00403BB
:101C400043F008039910013B91720D2B0BD8DFE88C
:101C500003F021071B070A152121150A071B07217D
:101C6000D368013BD3605DF8044B7047937A03F06F
:101C700003030029E6D043F00403E3E7D3685DF8EB
:101C8000044B023BD3607047D3685DF8044B0233CA
:101C9000D3607047D3685DF8044B0133D36070475D
:101CA0000C8E0220214B10B4D3F8882013685068A2
:101CB00019780478507A137A044201EA03011BD0A0
:101CC000937A03F0030309B143F0040343F00803DC
:101CD0009910013B91720D2B0BD8DFE803F021071F
:101CE0001B070A152121150A071B0721D368013B91
:101CF000D3605DF8044B7047937A03F00303002927
:101D0000E6D043F00403E3E7D3685DF8044B023BFD
:101D1000D3607047D3685DF8044B0233D3607047DB
:101D2000D3685DF8044B0133D36070470C8E0220FA
:101D3000214B10B4D3F88C201368506819780478BC
:101D4000507A137A044201EA03011BD0937A03F01C
:101D5000030309B143F0040343F008039910013B66
:101D600091720D2B0BD8DFE803F021071B070A1532
:101D70002121150A071B0721D368013BD3605DF8B9
:101D8000044B7047937A03F003030029E6D043F035
:101D90000403E3E7D3685DF8044B023BD36070476C
:101DA000D3685DF8044B0233D3607047D3685DF8A5
:101DB000044B0133D36070470C8E0220214B10B4CA
:101DC000D3F890201368506819780478507A137A01
:101DD000044201EA03011BD0937A03F0030309B123
:101DE00043F0040343F008039910013B91720D2B5B
:101DF0000BD8DFE803F021071B070A152121150A7C
:101E0000071B0721D368013BD3605DF8044B704783
:101E1000937A03F003030029E6D043F00403E3E7D9
:101E2000D3685DF8044B023BD3607047D3685DF81C
:101E3000044B0233D3607047D3685DF8044B013321
:101E4000D36070470C8E0220214B10B4D3F894203D
:101E50001368506819780478507A137A044201EABA
:101E600003011BD0937A03F0030309B143F0040389
:101E700043F008039910013B91720D2B0BD8DFE85A
:101E800003F021071B070A152121150A071B07214B
:101E9000D368013BD3605DF8044B7047937A03F03D
:101EA00003030029E6D043F00403E3E7D3685DF8B9
:101EB000044B023BD3607047D3685DF8044B023398
:101EC000D3607047D3685DF8044B0133D36070472B
:101ED0000C8E0220214B10B4D3F898201368506860
:101EE00019780478507A137A044201EA03011BD06E
:101EF000937A03F0030309B143F0040343F00803AA
:101F00009910013B91720D2B0BD8DFE803F02107EC
:101F10001B070A152121150A071B0721D368013B5E
:101F2000D3605DF8044B7047937A03F003030029F4
:101F3000E6D043F00403E3E7D3685DF8044B023BCB
:101F4000D3607047D3685DF8044B0233D3607047A9
:101F5000D3685DF8044B0133D36070470C8E0220C8
:101F6000214B10B4D3F89C2013685068197804787A
:101F7000507A137A044201EA03011BD0937A03F0EA
:101F8000030309B143F0040343F008039910013B34
:101F900091720D2B0BD8DFE803F021071B070A1500
:101FA0002121150A071B0721D368013BD3605DF887
:101FB000044B7047937A03F003030029E6D043F003
:101FC0000403E3E7D3685DF8044B023BD36070473A
:101FD000D3685DF8044B0233D3607047D3685DF873
:101FE000044B0133D36070470C8E0220214B10B498
:101FF000D3F8A0201368506819780478507A137ABF
:10200000044201EA03011BD0937A03F0030309B1F0
:1020100043F0040343F008039910013B91720D2B28
:102020000BD8DFE803F021071B070A152121150A49
:10203000071B0721D368013BD3605DF8044B704751
:10204000937A03F003030029E6D043F00403E3E7A7
:10205000D3685DF8044B023BD3607047D3685DF8EA
:10206000044B0233D3607047D3685DF8044B0133EF
:10207000D36070470C8E0220214B10B4D3F8A420FB
:102080001368506819780478507A137A044201EA88
:1020900003011BD0937A03F0030309B143F0040357
:1020A00043F008039910013B91720D2B0BD8DFE828
:1020B00003F021071B070A152121150A071B072119
:1020C000D368013BD3605DF8044B7047937A03F00B
:1020D00003030029E6D043F00403E3E7D3685DF887
:1020E000044B023BD3607047D3685DF8044B023366
:1020F000D3607047D3685DF8044B0133D3607047F9
:102100000C8E0220214B10B4D3F8A820136850681D
:1021100019780478507A137A044201EA03011BD03B
:10212000937A03F0030309B143F0040343F0080377
:102130009910013B91720D2B0BD8DFE803F02107BA
:102140001B070A152121150A071B0721D368013B2C
:10215000D3605DF8044B7047937A03F003030029C2
:10216000E6D043F00403E3E7D3685DF8044B023B99
:10217000D3607047D3685DF8044B0233D360704777
:10218000D3685DF8044B0133D36070470C8E022096
:10219000214B10B4D3F8AC20136850681978047838
:1021A000507A137A044201EA03011BD0937A03F0B8
:1021B000030309B143F0040343F008039910013B02
:1021C00091720D2B0BD8DFE803F021071B070A15CE
:1021D0002121150A071B0721D368013BD3605DF855
:1021E000044B7047937A03F003030029E6D043F0D1
:1021F0000403E3E7D3685DF8044B023BD360704708
:10220000D3685DF8044B0233D3607047D3685DF840
:10221000044B0133D36070470C8E0220214B10B465
:10222000D3F8B0201368506819780478507A137A7C
:10223000044201EA03011BD0937A03F0030309B1BE
:1022400043F0040343F008039910013B91720D2BF6
:102250000BD8DFE803F021071B070A152121150A17
:10226000071B0721D368013BD3605DF8044B70471F
:10227000937A03F003030029E6D043F00403E3E775
:10228000D3685DF8044B023BD3607047D3685DF8B8
:10229000044B0233D3607047D3685DF8044B0133BD
:1022A000D36070470C8E0220214B10B4D3F8B420B9
:1022B0001368506819780478507A137A044201EA56
:1022C00003011BD0937A03F0030309B143F0040325
:1022D00043F008039910013B91720D2B0BD8DFE8F6
:1022E00003F021071B070A152121150A071B0721E7
:1022F000D368013BD3605DF8044B7047937A03F0D9
:1023000003030029E6D043F00403E3E7D3685DF854
:10231000044B023BD3607047D3685DF8044B023333
:10232000D3607047D3685DF8044B0133D3607047C6
:102330000C8E0220214B10B4D3F8B82013685068DB
:1023400019780478507A137A044201EA03011BD009
:10235000937A03F0030309B143F0040343F0080345
:102360009910013B91720D2B0BD8DFE803F0210788
:102370001B070A152121150A071B0721D368013BFA
:10238000D3605DF8044B7047937A03F00303002990
:10239000E6D043F00403E3E7D3685DF8044B023B67
:1023A000D3607047D3685DF8044B0233D360704745
:1023B000D3685DF8044B0133D36070470C8E022064
:1023C000214B10B4D3F8BC201368506819780478F6
:1023D000507A137A044201EA03011BD0937A03F086
:1023E000030309B143F0040343F008039910013BD0
:1023F00091720D2B0BD8DFE803F021071B070A159C
:102400002121150A071B0721D368013BD3605DF822
:10241000044B7047937A03F003030029E6D043F09E
:102420000403E3E7D3685DF8044B023BD3607047D5
:10243000D3685DF8044B0233D3607047D3685DF80E
:10244000044B0133D36070470C8E0220214B10B433
:10245000D3F8C0201368506819780478507A137A3A
:10246000044201EA03011BD0937A03F0030309B18C
:1024700043F0040343F008039910013B91720D2BC4
:102480000BD8DFE803F021071B070A152121150AE5
:10249000071B0721D368013BD3605DF8044B7047ED
:1024A000937A03F003030029E6D043F00403E3E743
:1024B000D3685DF8044B023BD3607047D3685DF886
:1024C000044B0233D3607047D3685DF8044B01338B
:1024D000D36070470C8E0220214B10B4D3F8C42077
:1024E0001368506819780478507A137A044201EA24
:1024F00003011BD0937A03F0030309B143F00403F3
:1025000043F008039910013B91720D2B0BD8DFE8C3
:1025100003F021071B070A152121150A071B0721B4
:10252000D368013BD3605DF8044B7047937A03F0A6
:1025300003030029E6D043F00403E3E7D3685DF822
:10254000044B023BD3607047D3685DF8044B023301
:10255000D3607047D3685DF8044B0133D360704794
:102560000C8E022070B5044608460D4618F028FE71
:1025700023680246294620465B68BDE8704018473C
:1025800038B5044608460D4618F01AFE2368024680
:1025900029465B68204698470546204612F07AF99E
:1025A000284438BD002310B4114C4172026104600C
:1025B0000372C36041B1194600E0026942F823107A
:1025C000427A01339A42F8DC0A4B1A680AB90CE0E5
:1025D0001A465369002BFBD150610023436183806D
:1025E000C38083725DF8044B70471860F5E700BF45
:1025F0007CEB0100D093022038B50121044612483B
:1026000014F074FA1521114814F070FA01210E48E3
:1026100014F06CFA0E4B53F82450284618F0D0FDF5
:102620000146284614F062FA0A4812F033F90A4BC0
:102630000022032C9A61DA611A6204D806344FF43E
:10264000803243F8242038BDECEF0100E0EB0100BC
:10265000283F00200C41002094E4012038B50121DE
:102660000446134814F042FA0E21124814F03EFAC0
:1026700001210F4814F03AFA0F4B53F82450284622
:1026800018F09EFD0146284614F030FA0B4812F06F
:1026900001F90B4B0022032C9A615A621A62DA612B
:1026A00004D806344FF4803243F8242038BD00BFEC
:1026B000ECEF0100F8EB0100583E00200C41002037
:1026C0002CDE0120344B9FED356A93ED007ADFED6F
:1026D000346AB8EEC77A07EE900AC6EE075AF8EEEB
:1026E000E77A67EEA57AF4EEE67AF1EE10FA2ADCE4
:1026F0002C4A2D4BC2ED007AF5EEC07A0122F1EEA4
:1027000010FA1A603CD49FED297AF4EEC77AF1EE04
:1027100010FA2CDD264B2749274AD1ED007AD361E8
:10272000F5EEC07AF1EE10FA2CD4B7EE007AF4EEA2
:10273000C77AF1EE10FA27DD4FF480331F49136298
:1027400001230B607047C7EE065A164B1C48164A09
:102750000121F2EE027AE5EEA67AC3ED006AFDEE03
:10276000E77A17EE903AF0EE667A036011609FED1B
:10277000157A67EE877AFCEEE77A17EE903ACAE7A9
:102780000023C8E70023D9E7B0EE677ABEEEC87A27
:1027900017EE103AD2E700BF28DE0120A6552C47DD
:1027A00000E0AB46303E002088E100E0A655AC4694
:1027B00080FFFF7F9C3E002098DB012008E100E0C5
:1027C000243E00204B24BE47284ADFED296AD2ED83
:1027D000007A38B5274B284C93ED007A2268F8EE42
:1027E000677A4FF4FA7167EE877A40F6B83087EE71
:1027F000A67AFDEEC77A17EE903A01FB03F303F5D4
:102800007A73D21A002AB8BF524282420EDD1B4AA6
:1028100041F657318B42126809DC41F658300346C5
:10282000174D2B60FFF74EFF2B68236038BD15490D
:10283000DFED156A81FB0201D243D20FC2EBE11238
:102840004FF47A7101FB02F29342A8BF134664224F
:1028500002FB03F207EE902AB8EEE77AC7EE267A7B
:10286000FDEEE77A17EE900ADAE700BFA0E7012055
:102870000000FA43E83E002010DE012028DE01209F
:10288000243E0020D34D62100000C842FFFFFFFF2E
:102890002DE9F04F2DED028B694B1B780A2B89B087
:1028A0003DD8684C684B0022D4E9000117F09CF831
:1028B00017F04AFB0022644B0390D4E9020117F0A1
:1028C00093F817F041FB00225F4B0490D4E9040118
:1028D00017F08AF817F038FB00225B4B0590D4E91B
:1028E000060117F081F817F02FFB574B06900022D6
:1028F000D4E9080117F078F817F026FB03AA07902F
:102900000021524809F042FB514B00214FF4803224
:10291000D9619A6109B0BDEC028BBDE8F08F4D4AD8
:102920009FED4D6AD2ED007ADFED4C6AF8EEE77A62
:102930004FF47A7286EE277A02FB03F307EE903AA1
:10294000F8EEE77A67EE277A67EEA67A17EE900A36
:1029500016F0F6FF41EC100B41EC180B15F0B8FC2B
:1029600035A3D3E9002351EC100B17F067F9B0EE53
:10297000480AF0EE680ACDE9000115F049FCDDE9EE
:1029800000010022364B5BEC10AB16F07BFE0246DA
:102990000B4600202C4917F051F9002204460D4641
:1029A0002F4B5046594616F06DFE00222D4B8046A7
:1029B000894617F019F822462B4617F015F817F03C
:1029C000C3FA224606462B46404609F100410396CB
:1029D00017F00AF817F0B8FA002204904FF04043BD
:1029E00050465946059616F0FFFF22462B4616F034
:1029F000FBFF17F0A9FADDE9002306901849002033
:102A000016F03EFE2B46224616F0EEFF17F09CFA1B
:102A100003AA079000210D4809F0B8FA0C4B0021D9
:102A20004FF480329961DA6109B0BDEC028BBDE8E8
:102A3000F08F00BFAFF30080000000606666F63FD5
:102A4000683E0020A83E00200000D04154DD012057
:102A500020CD012028DE0120A6552C4746561539E9
:102A60000000F03F0000E03FF8B55B495B4D9FED93
:102A70005C6A2D785B4C5C4E00010B1807EE905A97
:102A80009B685A4D2360002BB4BF03F2FF121A4615
:102A9000521207EE102AF8EEE77AB8EEC77A67EE20
:102AA000867A534A2D7886ED007AC7EE876AFDEE66
:102AB000E66AC2ED006A6DB14E4D2D7807EE905A70
:102AC000F8EEE77A67EE867AC7EE876AFDEEE66A89
:102AD000C2ED006A03EBD3735B1007EE903AF8EE99
:102AE000E77A0B18C7EE876A434A5B68434E444D4A
:102AF00013600123434AFDEEE66AC6ED006A2B60CF
:102B00001368002BFCDB08443F498289C3893F4D91
:102B10003F4F013A1203013B02F47F22C3F30B0340
:102B200013430B60C82012F071FF3A4B1868FFF78F
:102B3000C9FD394A394B01261660142083F8206BF1
:102B400012F064FFFFF7A4FE2B78ABB101213448EB
:102B500013F0CCFF1221334813F0C8FF0121304895
:102B600013F0C4FF2168304811F0E4FE2E4811F044
:102B700091FE3B7813B9F8BD3B78A3B101212848F9
:102B800013F0B4FF1421294813F0B0FF01212448A9
:102B900013F0ACFF2168244811F0CCFE2248BDE8B8
:102BA000F84011F077BE31461D4813F09FFF142105
:102BB0001F4813F09BFF3146194813F097FF216817
:102BC000194811F0B7FE184811F064FE2B78002B5D
:102BD000BCD13B78CEE700BF38FA01008A3E002026
:102BE00000007A4428DE0120E83E0020A0E0012019
:102BF00050F00120A13E0020E4EB01200CDE01207A
:102C000088E100E000F1024004F10240DCEB012029
:102C1000188A0220243E002008E100E05CCD01205B
:102C2000ECEF010008EC01000C41002034EC010045
:102C30001CEC010007EE900A9FED0C6ADFED0C6AB8
:102C40000C4B0D48B8EEE77ADFED0C7A27EE067AEA
:102C500010B5E7EE267A01241C60FCEEE77A17EE49
:102C6000901A08F093FE064B1C6010BD0AD7233C57
:102C70000000014388E100E0EC890220EE7CFF3E89
:102C800008E100E070B5314E04460921304813F0E8
:102C90002DFF3568012D30D005B170BD04212D48C0
:102CA00013F024FF2C4811F0F5FD2C4B2C48012289
:102CB0001A60294608F0FAFD002CB8BF0334A410AE
:102CC000E2B21146264808F027FE264B2648012589
:102CD0001D60294613F00AFF0721244813F006FF60
:102CE0002946214813F002FF21461B4811F022FE1D
:102CF0001948BDE8704011F0CDBD03211C4813F008
:102D0000F5FE154811F0C6FD144B15481D60002254
:102D1000114608F001FE2946134813F0E7FE07218B
:102D2000124813F0E3FE29460F4813F0DFFE214658
:102D3000094811F0FFFD084811F0ACFD2146084894
:102D400008F0B4FD074B1D603568A5E7503E002034
:102D50004CEC010064EC01000C41002088E100E033
:102D6000EC89022008E100E0ECEF01005CEC0100DE
:102D700058EC010010B4036841681A780C78417A65
:102D8000037A0C4202EA03021BD0837A03F00303A6
:102D90000AB143F0040343F008039A10013B827226
:102DA0000D2B0BD8DFE803F021071B070A152121A3
:102DB000150A071B0721C368013BC3605DF8044B7C
:102DC0007047837A03F00303002AE6D043F004033C
:102DD000E3E7C3685DF8044B023BC3607047C36818
:102DE0005DF8044B0233C3607047C3685DF8044B61
:102DF0000133C360704700BF08B50B463B2800F2A3
:102E0000C682DFE810F0BB02B202A902A00297025C
:102E10008E0285027C0273026A02610258024F022E
:102E200046023D0234022B0222021902100207025E
:102E3000AE01A5019C0193018A01810178016F0116
:102E400066015D0154014A01400136012C01220155
:102E500018010E010401FA00F000E600DC00D200C7
:102E6000C800BE00B400AA00A00096008C0082003A
:102E700078006E0064005A00500046003C00BD4AD5
:102E8000BD49C2F8EC303B20042212F061FB012066
:102E900008BDB84AB949C2F8E8303A20042212F015
:102EA00057FB012008BDB34AB549C2F8E4303920C8
:102EB000042212F04DFB012008BDAE4AB149C2F810
:102EC000E0303820042212F043FB012008BDA94A5B
:102ED000AD49C2F8DC303720042212F039FB012062
:102EE00008BDA44AA949C2F8D8303620042212F0FD
:102EF0002FFB012008BD9F4AA549C2F8D4303520D8
:102F0000042212F025FB012008BD9A4AA149C2F80B
:102F1000D0303420042212F01BFB012008BD954A5A
:102F20009D49C2F8CC303320042212F011FB01205D
:102F300008BD904A9949C2F8C8303220042212F0E4
:102F400007FB012008BD8B4A9549C2F8C4303120E7
:102F5000042212F0FDFA012008BD864A9149C2F808
:102F6000C0303020042212F0F3FA012008BD814A5B
:102F70008D49C2F8BC302F20042212F0E9FA01205A
:102F800008BD7C4A8949C2F8B8302E20042212F0CC
:102F9000DFFA012008BD774A8549C2F8B4302D20F8
:102FA000042212F0D5FA012008BD724A8149C2F804
:102FB000B0302C20042212F0CBFA012008BD6D4A5B
:102FC0007D49C2F8AC302B20042212F0C1FA012056
:102FD00008BD684A7949C2F8A8302A20042212F0B4
:102FE000B7FA012008BD634A7549C2F8A430292008
:102FF000042212F0ADFA012008BD5E4A7149C2F800
:10300000A0302820042212F0A3FA012008BD594A5A
:103010006D49C2F89C302720042212F099FA012051
:1030200008BD544A6949C2F898302620042212F09B
:103030008FFA012008BD4F4A6549C2F89430252017
:10304000042212F085FA012008BD4A4A6149C2F8FB
:1030500090302420042212F07BFA012008BD454A5A
:103060005D49C2F88C302320042212F071FA01204D
:1030700008BD404A5949C2F888302220042212F083
:1030800067FA012008BD3B4A5549C2F88430212027
:10309000042212F05DFA012008BD364A5149C2F8F7
:1030A00080302020042212F053FA012008BD314A5A
:1030B0004D49D3671F20042212F04AFA012008BDAF
:1030C0002C4A4A4993671E20042212F041FA01203B
:1030D00008BD284A464953671D20042212F038FAD9
:1030E000012008BD234A434913671C20042212F023
:1030F0002FFA012008BD1F4A3F49D3661B20042236
:1031000012F026FA012008BD1A4A3C4993661A209B
:10311000042212F01DFA012008BD164A38495366F0
:103120001920042212F014FA012008BD114A354971
:1031300013661820042212F00BFA012008BD0D4A74
:103140003149D3651720042212F002FA012008BD8C
:10315000084A2E4993651620042212F0F9F901203D
:1031600008BD044A2A4953651520042212F0F0F9DB
:10317000012008BD0C8E0220F90E00006D0E00002B
:1031800059130000CD12000041120000B5110000DB
:10319000291100009D10000011100000850F000093
:1031A000D92400004D240000C12300003523000075
:1031B000A92200001D22000091210000052100002D
:1031C00079200000ED1F0000611F0000D51E0000E7
:1031D000491E0000BD1D0000311D0000A51C00009F
:1031E000191C00008D1B0000011B0000751A000057
:1031F000E91900005D190000D11800004518000011
:10320000B91700002D170000A116000015160000C8
:10321000891500005F4A604913651420042212F0EA
:1032200097F9012008BD5B4A5C49D364132004224E
:1032300012F08EF9012008BD564A594993641220B4
:10324000042212F085F9012008BD524A5549536401
:103250001120042212F07CF9012008BD4D4A524988
:1032600013641020042212F073F9012008BD494AAA
:103270004E49D3630F20042212F06AF9012008BDE1
:10328000444A4B4993630E20042212F061F9012055
:1032900008BD404A474953630D20042212F058F9F3
:1032A000012008BD3B4A444913630C20042212F05C
:1032B0004FF9012008BD374A4049D3620B20042250
:1032C00012F046F9012008BD324A3D4993620A20B6
:1032D000042212F03DF9012008BD2E4A39495362FB
:1032E0000920042212F034F9012008BD294A364988
:1032F00013620820042212F02BF9012008BD254A90
:103300003249D3610720042212F022F9012008BDBE
:10331000204A2F4993610620042212F019F9012056
:1033200008BD1C4A2B4953610520042212F010F9F4
:10333000012008BD174A284913610422104612F0E3
:1033400007F9012008BD134A2449D3600320042251
:1033500012F0FEF8012008BD0E4A214993600220B8
:10336000042212F0F5F8012008BD0A4A1D495360F5
:103370000120042212F0ECF8012008BD054A1A4988
:1033800013600020042212F0E3F8012008BD0020A1
:1033900008BD00BF0C8E0220FD1400007114000057
:1033A000E5130000E10D0000550D0000C90C000000
:1033B0003D0C0000B10B0000250B0000990A000035
:1033C0000D0A000081090000F508000069080000EE
:1033D000DD07000051070000C506000039060000A7
:1033E000AD0500002105000095040000F8B5044675
:1033F00015460E460846022112F002FB284602211D
:1034000012F0FEFA164A174B52F83610012001F559
:1034100000772760207252F83520607202F500773D
:1034200000206760E060013BFDD191F8003292F826
:10343000002203F00103D20744BF43F00203DBB2D2
:10344000A37221463046FFF7D7FC21462074284658
:10345000FFF7D2FC237C184420742046F8BD00BF3F
:10346000F8500300C0D40100F0B534483449067860
:10347000344CDFF800E1344D344A354F354B03C945
:1034800020609EE80300A06095E80300E06007CAA2
:1034900004F1140503C597E8030025F8022B120C6C
:1034A0008BB02A701021F8220A2E93F90030606246
:1034B0004FF0D40562602161274AA5624FF02801D0
:1034C000684608BF002617F031FD6946054604F13D
:1034D0002C0017F007FE3346204A2821684617F0D3
:1034E00025FD2C3506466946601917F0FBFD1C4B7F
:1034F0001B783544CBB11B4B1B4A1B7828216846EF
:1035000017F014FD69460646601917F0EBFD174BDE
:10351000174A1B782821684617F008FD354469468C
:103520000646601917F0DEFD35442023ADF8003063
:10353000BDF80030034863530BB0F0BD683E002077
:103540006CEC0100248A02207CEC010084EC010078
:1035500090EC0100198A022098EC0100A4EC010013
:10356000A0E00120A13E0020B4EC0100D03E0020EC
:10357000C4EC010074EC01003C4B93E80300F0B58F
:103580003B4D3C4E28600FCE8BB06C460FC4D6F836
:1035900000E0C4F800E06E460FCE374F05F1080694
:1035A0000FC60FCFC6F800E04FF4FC7C3F68C5F8AB
:1035B00004C06E460FC66946277005F11B0017F060
:1035C00091FD2E4B2E4A6846282117F0AFFC694624
:1035D000044605F12B0017F085FD2A4B2A4A93F982
:1035E00000306846282117F0A1FC2B3406466946B6
:1035F000281917F077FD254B254A1B780A2B08BFA1
:1036000000236846282117F091FC34446946064699
:10361000281917F067FD1F4A1F4B11681F4A03EB5B
:10362000011368469B68282117F080FC3444034648
:10363000694628191C4417F055FD194B194A68466C
:10364000282117F073FC69460646281917F04AFD31
:10365000154B164A6846282117F068FC3019694650
:10366000284417F03FFD28460BB0F0BDD4EC010014
:103670004CEE0120DCEC0100F0EC010004ED010057
:1036800018ED0100198A022030ED0100683E00208B
:1036900040ED0100843E002038FA010054ED0100A5
:1036A00050DC012068ED0100C4DB012084ED010045
:1036B000164A1749174BF0B5D2F800E0164F174ECF
:1036C000174C184D024603C9186097E8030098602C
:1036D00096E8030004EB0E14D86095E80300A46894
:1036E0009C612C3A22F001021025012102F5497754
:1036F0006400022658629A625F60DC611E841D616C
:103700005D849982D9821846F0BD00BF843E0020B6
:1037100098ED010068E70120A0ED0100A8ED01008F
:1037200038FA0100B0ED010038B5394C2DED028BAF
:10373000FE23237006F024FA054606F00FFAA07067
:10374000002D5AD11821334813F0D0F9324811F026
:10375000A1F8A3785A1E012A52D9032B07BF1121C1
:103760002E482F48252113F0C1F92B4811F092F86B
:103770002C4C27492046012207F0CCFE58B313F009
:1037800069FA2279E368284803FB02F307EE903ACE
:103790001521B8EE678A13F0A9F9DFED247A68EEF7
:1037A000277A17EE900A16F0CBF841EC100B0221A5
:1037B000194811F0C9F808211D4813F097F9164867
:1037C00011F068F813F046FAFE211A4805F050FF90
:1037D000BDEC028B38BD02460D49204607F09AFE2B
:1037E0000028CCD11448312113F080F9BDEC028BB4
:1037F0000948BDE8384011F04DB828210F48F3E7DB
:103800000F210F4813F072F9034811F043F8AFE7A6
:10381000F0D90120B8ED01000C41002010EE0100AC
:1038200024EE010008DA012080EE0100BD37063ADF
:1038300098EE0100388B02204CEE0100D4ED01001F
:1038400000EE010008B50549012200200BF0C6FC7E
:10385000FE210348BDE8084005F00ABFA4EE0100C0
:10386000388B022038B507210D480E4D0E4C13F051
:103870003DF907210D4813F039F90D4811F00AF808
:1038800004210C4813F032F9294601220A480BF0B2
:10389000A5FC207028460CF077F8207038BD00BFDA
:1038A000A8EE0100A4EE010044DC0120B0EE01000E
:1038B0000C410020B8EE0100FCEB0120F0B5804C7B
:1038C000804A814997B000250EA80123256005F0A4
:1038D00085FF16AA7D48109B12F8145D9DF83C10D8
:1038E00083600573017100F10D031A3012F8011F96
:1038F00003F8011B83427549F8D1159BCB610EA8D3
:1039000005F08AFE0D2172486D4E724D13F0EEF8EF
:10391000714810F0BFFF0AE00EA805F081FE0028F4
:1039200037D00EA805F08EFE0EA805F075FE0EA885
:103930000122664905F0C6FF0EA805F091FE002899
:1039400062D021685E4FB1F5FA7F80F2A58085FBD9
:103950000123CA17C2EB2312322303FB1213002BDD
:10396000DAD101215D4813F0C1F80C215C4813F055
:10397000BDF80121594813F0B9F83168564810F0E4
:10398000D9FF554810F086FF0EA805F049FE002823
:10399000C7D10EA805F042FE014602A811F0F0F8CA
:1039A000504906A811F0ECF806A902A811F016F982
:1039B000002817DB06A811F0A3F823684A4A03EB96
:1039C000430703EB87030EA8D71805F027FE01462F
:1039D000384617F087FB23680133236002A811F0F3
:1039E0008FF89EE741490AA811F0CAF80AA902A86F
:1039F00011F0F4F807460AA811F082F806A811F0B1
:103A00007FF8002FEADBD8E70121344813F06EF885
:103A10001E21374813F06AF80121304813F066F888
:103A200021682D4810F086FF2B4810F033FF0EA8B8
:103A300005F0F2FD0121294813F058F80D212D4819
:103A400013F054F80121254813F050F8216822485A
:103A500010F070FF204810F01DFF274B1B8833B17A
:103A600000930EA80023254A1E2117F05FFA0121BA
:103A70001A4813F03BF81021214813F037F80121C0
:103A8000164813F033F82168134810F053FF12481A
:103A900010F000FF17B0F0BD0121104813F026F818
:103AA0001721184813F022F801210C4813F01EF8D2
:103AB0003968094810F03EFF074810F0EBFEB6E702
:103AC000ECD90120C0EE0100388B022098D90120EA
:103AD000C4EE01001F85EB510C410020ECEF01000A
:103AE0000CEF01001CEF01008470022024EF0100A4
:103AF000D4EE01002CEF010074E001203CEF010046
:103B000058EF0100F4EE01002DE9F843064608F0F5
:103B1000FFFF01282CDDDFF86490DFF858800025D6
:103B2000D8F80000134F05EB4004304609F022F8A6
:103B300009EB042401464FF48072204611F060FB2B
:103B40000135304609F034F8022DE9D13B680133E4
:103B5000BF2B02D83B60BDE8F8830022064B3A60D9
:103B6000064907484FF4C0320BF0DEFC054B1870D5
:103B7000BDE8F8837CEB0120E8890220204D00207D
:103B8000D8E4012044DC01202DE9F0410721ADF506
:103B90004C7D04463F48404D12F0A8FF10213F489D
:103BA00012F0A4FF3E4810F075FE04213D4812F0CB
:103BB0009DFF3D4A002384F8F63013700CE008F0B6
:103BC000D9FF3A4B01464FF4807239480BF0ACFCF8
:103BD0002870204608F0ECFF204608F099FF0028E6
:103BE0002046ECDC334B1B78012B07D030480BF020
:103BF000B9FE28700DF54C7DBDE8F0812C4C0022FB
:103C0000002320460BF0D4FED4F810804046FFF786
:103C10004FFD01AF044600F1200E20686168A268E4
:103C2000E3683E460FC6103474453746F5D1206828
:103C30006168A268002307C700221D480BF0B8FE88
:103C400001A91A4B1A482C220BF06EFC42460023A5
:103C500017480BF0ADFEFFF707FC4FF480720146EA
:103C60000CA811F0CDFA0CA9104B11484FF480723A
:103C70000BF05AFCFFF780FC4FF4007201464CA891
:103C800011F0BEFA4CA9094B09484FF400720BF031
:103C90004BFCABE7A8EE010044DC01206CEF010017
:103CA0000C410020B8EE0100188A0220E8890220A9
:103CB000D8E40120FC3E0020F0B5072191B0434834
:103CC000434D12F013FF0821424812F00FFF424803
:103CD00010F0E0FD0421414812F008FF2B68002B92
:103CE00060D13F4C3F4A138801339BB2B3F5FA7F52
:103CF00001D94FF4FA7313803B4B1B78002B4AD049
:103D00003A4B3B491A683B4817F05EF9374B344E43
:103D1000196807A810F05AFA079A0C9B09980A9993
:103D2000089F04920B9A029003F2B27301910092E1
:103D30001421314A0397314817F0F8F800212D4833
:103D40000BF086FF0A2220702A492D480BF070FAEA
:103D5000022820702ED001212A4812F0C7FE062129
:103D6000294812F0C3FE0121264812F0BFFE214867
:103D700017F026FA01461F4812F0B8FE164810F058
:103D800089FD0A221B491E480BF052FA01232070BC
:103D90002B6011B0F0BD154B1C491A68154817F07F
:103DA00013F9B3E716480E4C0BF0DCFD002320702E
:103DB0002B6097E712480BF0D5FD09283070CAD167
:103DC0000C480BF06BFF3070C5E700BFA8EE010098
:103DD00058F0012080EF01000C410020B8EE0100F6
:103DE00044DC012074E00120FC3E002000D00340B0
:103DF00094EF010050DC01209CEF0100C4DB0120A6
:103E0000D8E40120ECEF0100BCEF01008CEF0100D1
:103E10002DE9F843DFF89C82944A98F80030002599
:103E20001570002B00F016815E1EF6B2904A914B81
:103E300092F800E0DFF880C2013606EB460603EB9D
:103E4000860603F10804BEF1000F00F0E980197A3C
:103E500005EB4507A4F108020CEB870705F1010902
:103E600021B107CA87E807005FFA89F50C33B3422E
:103E700004F10C04E7D12C460D217F4888F800504E
:103E800012F034FE214600230A227C4810F012FD75
:103E90007A4810F0FFFCDFF824E29EF8006096B14B
:103EA000751EEDB2013505EB4505DFF8C8C1744F4D
:103EB000AD0000230CEB030207CAFC180C33AB4225
:103EC00084E80700F6D10E216E488EF8006012F0EB
:103ED0000DFE314600230A2268486B4D10F0EAFCC3
:103EE000664810F0D7FC0A2407220823092601217E
:103EF00066486A70AB702C70EE7012F0F7FD3146B8
:103F0000634812F0F3FD0121604812F0EFFD2246F4
:103F100000232978594810F0CDFC584810F0BAFC1D
:103F200001215A4812F0E2FD31465A4812F0DEFDF6
:103F30000121564812F0DAFD2246002369784F48E5
:103F400010F0B8FC4D4810F0A5FC01214F4812F0CC
:103F5000CDFD3146504812F0C9FD01214B4812F009
:103F6000C5FD22460023A978444810F0A3FC43482D
:103F700010F090FC0121454812F0B8FD3146474849
:103F800012F0B4FD0121414812F0B0FD2246002399
:103F9000E9783A4810F08EFC384810F07BFC404B32
:103FA0001C784CB3284600210378F3B1013BDBB207
:103FB00001333C4A3C4F3D4E3D4D03EB430302EB86
:103FC000830E5FFA81FC0023C1B995F80880B8F12F
:103FD000000F01D00133DBB20C32964507F10C071C
:103FE00006F10C0605F10C05EED101315FFA81FCFA
:103FF000644500F8013BD7D8BDE8F883BCF1010F58
:1040000005D197F80880B8F1000FE5D0E2E7BCF1E0
:10401000020F22D196F80880B8F1000FDCD0D9E762
:1040200014F8082CA2F1640101297FF61FAF672A5A
:104030003FF41CAF197A05EB4507A4F108020CEB1D
:10404000870700293FF412AF07CA013587E8070048
:10405000EDB20BE71C461D460EE7BCF1030FBBD1CA
:1040600092F80880B8F1000FB6D0B3E77CDE0120EB
:104070003CDD0120401B0300C4EF01000C41002087
:1040800094D80120D4EF010080DA0120ECEF010088
:10409000E4EF0100F0EF0100FCEF010008F0010087
:1040A000903E00205C1A030028FB010080EB010019
:1040B000C81A0300FD3E002008D90120283E002038
:1040C000F0B5054B1B688DB004460D4603A8194694
:1040D00010F07CF802E000BF00D00340FF2C00F29B
:1040E0001E81DFE814F0A901A701A5011C019B01B5
:1040F0009901900188011C011C017D011F016601CD
:104100005A011C011C011C011C011C011C011C0189
:104110001C011C011C011C011C011C011C011C01B7
:104120001C011C011C011C011C011C011C011C01A7
:104130001C011C011C011C011C011C011C011C0197
:104140001C011C011C011C011C011C011C011C0187
:104150001C011C011C011C011C011C011C011C0177
:104160001C011C011C011C011C011C011C011C0167
:104170001C011C011C011C011C011C011C011C0157
:104180001C011C011C011C011C011C011C011C0147
:104190001C011C011C011C011C011C011C011C0137
:1041A0001C011C011C011C011C011C011C015201F1
:1041B000500148013D011C0135011C011C011C017D
:1041C0001C011C011C011C011C011C011C011C0107
:1041D0001C011C011C011C011C011C011C011C01F7
:1041E0001C011C011C011C011C011C011C011C01E7
:1041F0001C011C011C011C011C011C011C011C01D7
:104200001C011C011C011C011C011C011C011C01C6
:104210001C011F012B01F901F701DE01DC011C016A
:104220001C011C011C011C011C011C011C011C01A6
:104230001C011C011C011C011C011C011C011C0196
:104240001C011C011C011C011C011C011C011C0186
:104250001C011C011C011C011C011C011C011C0176
:104260001C011C011C011C011C011C011C011C0166
:104270001C011C011C011C01E6010001D1011C01F3
:104280001C011C011C011C011C01C901C101B90157
:10429000B701AC011C011C011C011C011C011C010B
:1042A0001C011C011C011C011C011C011C011C0126
:1042B0001C011C011C011C011C011C011C011C0116
:1042C0001C011C011C011C011C011C011C011C0106
:1042D0001C011C011C011C011C011C011C011C01F6
:1042E0001C011C017501994B994C196803A80FF02A
:1042F0006DFF94F90030069F079E089D002B00F08B
:104300000181012B00F01681022B08D18DE8C0003D
:1043100005F2B2738F4A90480C2116F007FE8E48C2
:104320000DB0F0BD8D4A11688D4B8E4A8A4803EB63
:1043300001130C215B6816F0F9FDF0E78A4B1B783E
:104340008A4A854803EB83030C2116F0EFFDE6E76C
:10435000874B884A1B7880480C2116F0E7FDDEE782
:10436000854B1B78642B00F0B980804A7A480C2179
:1043700016F0DCFDD3E7814B7C4A1B7876480C2194
:1043800016F0D4FDCBE77E4BE3E77E4B7E4A1B78ED
:1043900071480C2116F0CAFDC1E77C4B1B78002B3D
:1043A00040F0A0807A4A6C4B92E8030018601971C3
:1043B000B5E7784B1B68062B00F39B806849694A78
:1043C000654801EB03130C215B6816F0AFFDA6E70F
:1043D000714B614853F825200C2116F0A7FD9EE78C
:1043E0006E4A6F4B11685C4853F821305D4A0C21CE
:1043F00016F09CFD93E76B4B5C4A1B8856480C21DA
:1044000016F094FD8BE7684B584A93F900305248F8
:104410000C2116F08BFD82E7644BF5E7644B1B78AB
:104420000A2B5BD9584A4C480C2116F07FFD76E7E1
:10443000604A78E7604AD4E7604A614BD2E7614B53
:104440001B78002B4AD1604B434A1B6813801B0C1E
:10445000937064E75D4B8FE75D4B444A9B683E4831
:104460000C2116F063FD5AE7594B404A5B683A4805
:104470000C2116F05BFD52E7554B3C4A1B68364851
:104480000C2116F053FD4AE7524B93F90030012BF3
:104490004ED0514A304B07CA03C31A703FE74F4B07
:1044A0004DE74F4B4F4A1B782B480C2116F03EFD31
:1044B00035E7274C049E94F90030059D73B3002B1B
:1044C0007FF72DAF00962B46474A23480C2116F064
:1044D0002DFD24E7454B59E7454B30E71E4B454A38
:1044E0001A601CE7444A1C4B92E8030018601971DB
:1044F00015E7424A184B92E803000A0C18609980AD
:104500009A710CE705F2B2738DE8C0003C4A12487C
:104510000C2116F00BFD94F90030F2E62B460096C4
:10452000384A0D480C2116F001FD94F90030C6E719
:10453000354ADFE705F2B2738DE8C000334A06481A
:104540000C2116F0F3FC94F90030DDE600D00340B6
:10455000DEEB01205CF00100D0EB0120843E002066
:1045600038FA010030F00100813E002020F0010007
:10457000DC3E002028F00100043F00201C3F00200A
:10458000243F00208A3E002014F00100FC3E002061
:104590001CEF01008C3E00206C3E0020F03E00200D
:1045A000383E0020FE3E0020883E00201D3F0020B7
:1045B000683E0020D43E0020003F0020183F00202D
:1045C000343F0020B8E00120FCF20100693E0020E9
:1045D000787002206A3E00207CF00100A03E00209E
:1045E000D03E00206CF0010060F00100A13E0020F0
:1045F000893E00204F46460024EF010034F00100C0
:104600003CF0010050F0010074F001004CF001009A
:1046100070B5044682B00D464F480D2112F066FA7F
:10462000214600230A224D4810F044F94B4810F06F
:1046300031F974B94A4B1978294449B200292DDB64
:104640005A29A8BF5A2108461970FEF7F3FA02B09A
:1046500070BD032C11D1434B1B78022BF7D0424B7A
:10466000196829440E29A8BF0E2121EAE1710846E4
:104670001960FEF7F9F902B070BD012C12D13B4B65
:104680001978294449B200290ADB3F29A8BF3F21F4
:1046900008461970FEF7F6FA02B070BD2146D2E75F
:1046A0000021F5E7022C40D1314B1B68002BCED105
:1046B000304E314C33680093009B22689B1AB3F54F
:1046C000FA7F2CD2F92B43D8642B41F2883134BFC6
:1046D0000B464FF4FA63294A29481168006803FB26
:1046E000051141F6573399421CDD264BC543ED0FAA
:1046F00083FB0030C5EBE0104FF47A7303FB00F549
:10470000A942A8BF2946204B116008461960FDF751
:10471000D9FF33680193019B236002B070BD4FF451
:10472000FA73D8E741F65831EDE7052C8FD1174BD6
:10473000197801EB4501C9B2092907D93229A8BF67
:1047400032211970FEF7A4F802B070BD0A21F8E713
:104750004FF47A73BFE700BF88F001000C410020DE
:1047600005DA0120CCE40120D43E0020198A022081
:10477000983E00206094022094EB0120243E00200B
:1047800028DE0120D34D621010DE0120683E00209B
:1047900038B505460C46AC48102112F0A7F9294659
:1047A00000230A22A94810F085F8A84810F072F8F2
:1047B000692D3CD0072D27D0672D5BD1A44D2978DA
:1047C0000C44642C51DC312C73DDE4B20121A1488E
:1047D0002C7012F08BF909219F4812F087F9012102
:1047E0009C4812F083F900230A222978974810F098
:1047F00061F8964810F04EF82B78642B0CBF01201E
:104800000320FDF72BFF38BD944A95491388A1FB7F
:104810000313C3F3C7032344C82B24DC002B4CDB56
:1048200003EB830303EB83039BB213800DE08D49FD
:104830000B782344102B14DC032B3CDDDBB28A4ABB
:104840000B70002082F828305062982D38D1874BA9
:1048500019780C443C2C0ADC002C28DBE4B21C70D8
:1048600038BD0423EBE70023DFE73224AEE7002462
:104870001C7038BD662D57D17D4A1178052313FB76
:104880000414C82C04DC0E2C05DCC824147038BDBC
:104890000F24147038BDE4B2147038BD972DD4D1F4
:1048A000744B19780C443C2C20DC002CD6DC3C24C6
:1048B000D5E764248AE71023C1E741F28833B4E7DF
:1048C0009B2D16D16C4B19780C440C2C0EDC002C53
:1048D000C4DC0C24C3E70B2D0DD00D2DDED1674BAE
:1048E00019780C44012CC2DC002CB7DA01241C70AE
:1048F00038BD962D0CD1624B19680C440E2C04DC8B
:10490000042CD8BF0E241C6038BD05241C6038BDA3
:104910009A2D40F0EF805B4B19780C44142CE5DCA9
:10492000002C9BDC14249AE7642D1BD1564B19787C
:104930000C44232C43DC0E2C4ADD07EE904A9FEDFD
:10494000537AF8EEE77AE4B227EE877A5049514A73
:10495000D1ED006A1C70C7EE267AFDEEE77AC2ED53
:10496000007A38BD652D09D14B4B19780C441E2CAB
:1049700029DC042C3FF772AF1E2470E7022D0CD106
:10498000464B19680C440E2CA8BF0E2424EAE4748C
:1049900020461C60FEF768F838BD052D1CD1404B41
:1049A00019780C4464B2002C10DB3F2CA8BF3F24C4
:1049B0003C4A1C7020461470FEF764F938BD9FED28
:1049C0003A7A0F24C2E705241C7038BD0024EFE7B3
:1049D0009FED367A2324B9E7062D11D1344B19788F
:1049E0000C4464B2002C09DB5A2CA8BF5A24314A6B
:1049F0001C7020461470FEF71DF938BD0024F6E740
:104A0000042D12D12C4B197801EB4404E4B2092C8B
:104A100006D9322CA8BF32241C70FDF739FF38BDEF
:104A20000A241C70FDF734FF38BD002D48D1234BFC
:104A300019680C44022C04DC002CB8BF02241C6052
:104A400038BD2C461C6038BD98F001000C41002098
:104A5000043F0020ECEF0100ACF00100FE3E00201E
:104A60001F85EB51DC3E0020F0DB0120893E002059
:104A70001C3F0020813E0020A03E0020FC3E002084
:104A8000843E0020D03E00208A3E002000007A4470
:104A9000E83E002050F00120243F0020D43E0020BA
:104AA0001D3F0020198A022000606A4600B80847AE
:104AB000883E002005DA0120683E0020183F0020D3
:104AC000012D0CD13A4B19680C44042C04DC002C49
:104AD000B8BF04241C6038BD00241C6038BD0A2DFA
:104AE00044D1344B19680C44012CF5DC002CB8BFC0
:104AF000012408E7992D0ED12F4A1178052313FBC5
:104B00000414502C04DC092C3FF7C5AE5024BDE63C
:104B10000A24147038BDD52D20D1284A284913788D
:104B2000A1FB03139B0804EB840403EB830354FAF7
:104B300083F4FF2C0CDC002C0DDBE3B20820137097
:104B400010F03AFF21461120BDE8384010F094BD26
:104B500000231C46F2E7FF231C46EFE7D62D18D1B1
:104B6000184A137883F00103137038BD0C2D7FF4BD
:104B7000B2AE154B19680C44072C07DC002C02DB85
:104B8000072C1C6013D10A221A6038BD00221A605B
:104B900038BDCB2D0AD10D4A0D4892F900300D4990
:104BA00003705B425BB213700B7038BD38BD38BD0B
:104BB000003F0020F03E0020A13E0020693E002082
:104BC000CDCCCCCCB8E001208C3E00206A3E002049
:104BD000A0DC012004DA0120F8B52B4C237C012B4A
:104BE0004CD972B6E36862B6284D294E2A68294F1F
:104BF00096F9001093FBF1F393423B601DDD264ACA
:104C0000264B92F900201A60254C237C012B1ED9DB
:104C100072B6E36862B6234A234811683F6896F982
:104C2000004093FBF4F38B422F6003601FDC17DB23
:104C30001E49136000200860F8BD0DDA1C4A174BAE
:104C4000174C92F900201A60237C012BE0D872B631
:104C50002046FEF78FF8DCE7104B00221A60D3E7FE
:104C60001348124990F9000008601360F8BD0A4823
:104C70000E4990F9000008601360F8BD72B6204636
:104C8000FEF778F8AEE700BF14DE0120148A022098
:104C9000343E00204CF0012004DA012034DD0120F4
:104CA00078E0012048DC012060F0012008DE0120CE
:104CB000A0DC012008B5074808F080F8064808F095
:104CC0007DF8064808F07AF80548BDE8084008F085
:104CD00075B800BF248B022068DA012030DA012089
:104CE00040DA012008B50221242010F089FE0221BB
:104CF0001D2010F085FE0221252010F081FE2620C7
:104D0000022110F07DFE6420BDE8084010F07EBE58
:104D1000F0B583B006460FF0D9F907460FF02CF92D
:104D2000054638460FF01AF91A4B93F90030CBB903
:104D300044B22644172E20DD1C46EDB269463846A3
:104D40000FF028F868468DF801508DF802400FF0FA
:104D50003FF910F07FFC68460FF03AF90FF006FAC1
:104D600003B0F0BD012B0ED16AB295193B2D08DCC2
:104D7000002D0DDBEDB2C4B2E0E7002E06DBF4B28D
:104D8000DBE70025F7E7EDB2C4B2D7E71724D4E795
:104D90003B25F0E7DEEB012070B582B006460FF050
:104DA00095F905460FF004F9044628460FF0F2F88D
:104DB000264B93F90030DBB922B2324440F2E9735A
:104DC0009A4221DD3124C6B2694628460EF0E2FF40
:104DD00068468DF805608DF806400FF0F9F810F080
:104DE00039FC68460FF0F4F80FF0C0F902B070BD5E
:104DF000012B0FD141B231440C291DDC002923DDE8
:104E0000CEB24E34E4B2DFE740F2E2739A4215DCF0
:104E10003724D8E7022B14D10FF058F90C4D05FBBD
:104E2000060528460FF0C4F8044628460FF0B2F8ED
:104E30004E34C6B2E4B2C7E71E46E2E74E32D4B201
:104E4000C1E74E34E4B2BEE70C26DAE7DEEB012020
:104E500080510100944A954B12881B7806EE902AE7
:104E60002DE9F047F8EE666A3BB1914B1B7807EEEF
:104E7000903AF8EEE77A66EEA76A8E498E4A0B689A
:104E8000DFF850A28D4C10688D4E9FED8E7A002277
:104E9000013394460B60CAF800209646214604224E
:104EA000012736F8023F013303EB83035B0007EE73
:104EB000903AF8EEE77A8242C1ED047A07F10103F5
:104EC00001F108010CD9F4EEE67AF1EE10FA37EEB2
:104ED000277ADFB204DDF0EE676A96464FF0010CE8
:104EE0000232F02ADDD1BCF1000F0BD1764B1B78DA
:104EF000002B40F0D680754A1360754B00221A7063
:104F0000BDE8F087CAF800E0724ABEF1000FEDD0AC
:104F100007EE907A37EE667AF8EEE77AB0EE006A3E
:104F2000C7EE275AC6EEA57AF4EEC67AF1EE10FA6D
:104F300002D500231360D9E7634B01221A70664B38
:104F40001A78752A11DC654904EBC203F6EE006A93
:104F5000D3ED007A93ED027A77EE877A083367EE25
:104F6000A67A43ED017A8B42F2D1DFF894C19CF826
:104F70000060B2424ADA5A4FDFED5A4ADFED5A6A10
:104F80009FED5A5A04EB820204EB86060021F0EEF4
:104F9000085AB2EE046AB2EC017A554DC7EE257A92
:104FA000F4EEE47AF1EE10FA07DCFCEEE77A17EEA5
:104FB000903A1B0203F478431DB2C7EE067A4FF411
:104FC000FC63F4EEE67AF1EE10FA07DCFCEEE77A29
:104FD00017EE908A4FEAC80808EA0303C7EE057A7D
:104FE0004FF01F08F4EEE67AF1EE10FA05DCFCEE65
:104FF000E77A17EE908AC8F3C4082B4348EA030304
:10500000B24227F8113001F10101C4D1DFF8BC80B0
:1050100000268645C8F800607FF66FAF354B2C4AF6
:105020001B68DFED286ADFF8DCE00121013B8B42E1
:105030001170CEED006A01D9BDE8F0879CF80070D0
:105040008742034624DD2C4A8100B446B1460A4417
:105050000C4492ED007AF4EC017A77EE877AF4EE64
:10506000E67AF1EE10FAE2EC017A04DD0126F0EEC8
:10507000676AB1469C4601339F42EAD1B9F1000FFD
:105080000CD12EB18445C8F800C088BFCAF800C052
:105090001A4A138801331380BDE8F087CEED006A09
:1050A000EFE74FF0000E4AE7FE3E0020A0E00120AF
:1050B000D03E0020348B022050F00120CCE00120B3
:1050C00076CD012000000000FC89022050E701207D
:1050D00054F00120A0E70120803E00207CE4012064
:1050E00094DE012000007A4300007F43000020424C
:1050F00000F8FFFF2C3E0020B8E701205CF0012003
:10510000E63E0020208A022043090DD14000C3B2B0
:105110001F200022022902D052105B1040105B01B8
:1051200003EBC22318447047012B05D1C04300F0A4
:105130001F003F230022EDE7022B04D100F01F02E5
:105140003F230020E6E7032B08D100F01F035B009C
:10515000C3F13F03DBB200201F22DBE70020034640
:10516000D7E700BF2DE9F04F83B0BDF93040019281
:10517000002C22DD1FFA80FB0C440BEB03070E46CC
:1051800099460FFA84FABFB24FF00008B9F1000F48
:105190000EDD019B5C4603EB480521B2013435F876
:1051A000023B07483246A4B20CF000FCA742F4D1FF
:1051B000013636B25645C844E8D103B0BDE8F08F99
:1051C000ACEB012010B592B0014601A80FF0D8FC5D
:1051D0000023322201A805A90FF0E6FC05A9054825
:1051E0000EF05CFC044601A80FF08AFCA0B212B0DD
:1051F00010BD00BFACEB012030B50D4B0D4D1C7840
:105200002B78013C1844844283B00FDB0028B4BFE4
:10521000E4B2C4B20021EB2300930191F0232D22CC
:1052200005482C700CF080FE03B030BD0024F1E77F
:10523000903E0020A1E00120ACEB012070B5204B96
:105240001B68032B84B013D01E4A1F4B92ED007ACB
:10525000D3ED006AB8EEC77AC7EE267AFDEEE77A9C
:1052600017EE903AEB2B03DC184A1268012A14D986
:10527000174B18481B6899B2CE1C3E221BB24FF642
:10528000FF7537240339019309B233B203950294B1
:1052900000920DF0FBFE04B070BD0F4A0D4812885D
:1052A000039299B2CD1C1BB245243E2203390193CF
:1052B00009B22BB2029400920DF0E8FED8E700BFCD
:1052C0002C3E0020243E0020E83E0020983E002096
:1052D00050F00120ACEB0120EC3E0020E9B12DE9BB
:1052E000F041DFF83C8082B00D46174606B200243C
:1052F0000134A5420ED0E307FAD5B8F80030009388
:105300003A1B12B20A233146044801340CF092FCD5
:10531000A542F0D102B0BDE8F0817047ACEB0120AE
:10532000DE3E00202DE9F04FFBB00DF10A090DF132
:10533000FA0A00202F4E304F4D465446034636F8A9
:10534000021F01EB830287FB02E3D217C2EB630368
:10535000D129A8BFD1210230D12B1A46A8BFD12212
:10536000EA2824F8021F25F8022F9BB2E7D10DF19D
:10537000F40B042503E00235CB45ADB237D03AF843
:10538000024F1E48E4B2A4F11E062FB24FF620537E
:1053900026EAE676009339463346462239F8028FEC
:1053A0000CF038FC4FF6E07306F1460239460093E4
:1053B00012481E230CF02EFC002004F1460200903F
:1053C000C4F1D20339460D480CF024FC5FFA88F290
:1053D000042AD0D94FF6FF73009341323946052392
:1053E00006480CF017FC0235CB45ADB2C7D17BB0F7
:1053F000BDE8F08F76CD012067666666ACEB0120D4
:1054000010B50F4C002120460CF05AFF2046002119
:105410000DF07EF920464FF6FF710EF0C1FB2046DD
:1054200000210CF03FFF0022204611460EF09CFBAD
:10543000204628224621BDE810400DF07BB800BF71
:10544000ACEB01202DE9F0418CB00DF1FF360025C9
:105450000746B0462C4628460FF082FE08F8010F9A
:105460004440082314F0010F4FEA540203F1FF33C4
:1054700014BF82F08C04C4F3470413F0FF03F1D18E
:1054800001352F2DE7D1F4B99DF82D30362B03D0FF
:1054900020460CB0BDE8F0819DF82C30312BF7D1BF
:1054A0009DF82B30302BF3D19DF82A30302BEFD1E3
:1054B000013F0DF12F0316F8012F07F8012F9E422F
:1054C000F9D10120E5E718460CB0BDE8F08100BF36
:1054D000F8B50025471E2C4617F8016F08237440C5
:1054E00014F0010F4FEA540203F1FF3314BF82F0AE
:1054F0008C04C4F3470413F0FF03F1D128460FF0E6
:105500002FFE864209D0314628460FF043FE28463A
:105510000FF026FE3B78834204D101352E2DDBD1DE
:10552000002600E00126214628460FF033FE2846DB
:105530000FF016FE84420CBF30460120F8BD00BFBC
:10554000F0B58DB06846FFF77DFF0446A0B17649FF
:105550009DF82220754BBDF802709DF82A609DF8D9
:105560002B509DF82C000F80012A9DF82D101E70E5
:105570005D709870D97002D020460DB0F0BD6C4BB4
:105580009DF808706B4D1F606B4E9DF809702F6081
:105590006A489DF80A706A4937606A4B9DF8067040
:1055A000694D07600A7069489DF8042068491A60CF
:1055B0002A609DF805309DF82850664E664F9DF88C
:1055C0002920036008200A7033603D7010F0F4F960
:1055D0002946112010F050F83568002D00F08B801E
:1055E000022D00F09B80012D00F08F8000215B4890
:1055F0005B4F5C4D0CF056FE316858485A4E0FF028
:1056000099F99DF81B30594859495A4A03EB8303CD
:1056100003EB830333809DF807609DF81830067014
:105620003B709DF819609DF81A00059B2E7008705C
:105630001370514E514F524DFDF72AF99DF90B3021
:1056400050485149514A0370337018469DF81C3038
:10565000049E3B709DF90C302E600B701370FDF7AB
:1056600011FB9DF82330DFF850E1494A494F9DF87E
:1056700025009DF826609DF82750DFF840C1106096
:1056800059B25B428EF80030DFF834E13970566071
:10569000414F95609DF824208CF800108EF8002072
:1056A0003E499DF81D203A703D4A9DF81E700F70CE
:1056B0003C499DF82070177083193B4A9DF8217072
:1056C0000F70EB429DF81F1011703FF455AF02218F
:1056D000FFF71AFD354B022118803046FFF714FD05
:1056E000334B012118802846FFF70EFD314B1880FF
:1056F00020460DB0F0BD294618480DF009F829469E
:1057000016480CF0DDFD35686AE7002113480CF0FF
:10571000FFFF002111480CF0D3FD67E700210F487F
:105720000CF0CEFD35685EE79CDA0120BCDB012081
:105730008C3E0020843E0020D43E0020F03E00201D
:10574000E53E0020983E0020003F0020183F00204A
:10575000B8E001202C3E0020693E0020ACEB012087
:10576000243F00208A3E0020FE3E0020FC3E002018
:105770001C3F0020683E00201D3F0020DC3E002032
:10578000243E0020198A0220883E002005DA0120EC
:105790007870022004DA0120813E0020893E00203A
:1057A000A13E0020D03E0020A03E0020DE3E002092
:1057B000EC3E0020F43E0020A0DC01206A3E0020E8
:1057C000343E0020F0B54C4D4C4C4D4E2D682468B5
:1057D0004C4836684C4B4D4F00783F681B884C490D
:1057E0004C4ADFF888E112888FB0A1FB03138DF8D3
:1057F00010508DF81240484D484C8DF81160484EBD
:105800002D688DF82A002478464836688DF80C708B
:105810008DF80E508DF80F40434F444D444C0078A6
:105820008DF80D60434E3F782D7824688DF8210067
:10583000DB08414836788DF820708DF822508DF8BD
:1058400023300694013240F2F2353C4F3C4C3D4B44
:105850000078ADF80A208DF824603B49ADF8085077
:105860003A4E3B4D3F7824781B783A4A0790367879
:105870002D788DF8147003C98DF813408DF82B30F6
:10588000354F364B364C12788DF82C608DF82550FC
:10589000344E354D9EF800E03F7824788DF828206E
:1058A0001A688DF83200C0F3072136782D788DF80C
:1058B00026E08DF82970D3F804E09F688DF8274022
:1058C000030E8DF82D200024C0F3074202A88DF8A6
:1058D0002EE08DF82F708DF830608DF83150ADF8D6
:1058E00036408DF833108DF834208DF83530FFF7C1
:1058F000EFFD0FB0F0BD00BF8C3E0020D43E002075
:10590000843E0020E53E0020FE3E0020003F0020B7
:105910001F85EB519CDA0120F03E0020FC3E002068
:10592000183F00208A3E0020243F00201C3F00201A
:10593000243E0020DC3E0020683E0020883E0020FF
:105940001D3F00206A3E0020B8F00100343E0020D8
:10595000813E0020A13E0020D03E00207870022031
:10596000A03E0020693E0020B8E00120893E0020D2
:10597000F8B5674D2860674806F046FA664B1B7815
:10598000013B012B0BD9654E654C6648664A296878
:1059900001230027376023600360136021B30121D6
:1059A000624811F0A3F81021614811F09FF801211D
:1059B0005E4811F09BF85F4B2A6853F8224020465E
:1059C00015F0FEFB0146204611F090F85A480EF003
:1059D00061FF2C685CB1012C28D0022C3FD0032C35
:1059E00057D0042C76D0F8BD02231360D7E7534A72
:1059F000534B10681860FCF765FE2046FCF72EFE3E
:105A0000504BD3ED007AF5EEC07AF1EE10FA70D477
:105A1000B7EE007AF4EEC77AF1EE10FA62DD4FF4D9
:105A200080332C68484A012C1362D6D10020FCF741
:105A300015FE444BD3ED007AF5EEC07AF1EE10FA84
:105A40005CD4B7EE007AF4EEC77AF1EE10FA57DDC7
:105A50004FF480332C683C4A022C1362BFD12D488E
:105A60004FF4804106F09EF9384B1B78642B0CBF35
:105A700001200320FCF7F2FD3549264A2C68324B01
:105A8000097882F82910032C4FF000021A62DA61BB
:105A9000A7D1204E4FF48041304606F099F90120FD
:105AA000FCF7DCFD2B4B1B7886F828301BB3322B20
:105AB00028BF3223012292FBF3F307EE903AF8EE6F
:105AC000E77A2C68204BC6ED097A0022042C1A6272
:105AD000DA6188D10220FCF7C1FD1B4B00221A625B
