:1000000000000320D1010000D55201008D520100F3
:100010008D5201008D5201008D5201008D52010060
:100020008D5201008D5201008D520100D552010008
:10003000D55201008D520100B96A0100BD6A01006C
:10004000D5520100D5520100D5520100D552010010
:10005000D5520100D5520100D5520100D552010000
:10006000D5520100D5520100D5520100D5520100F0
:10007000D5520100D5520100D5520100D5520100E0
:10008000D5520100D5520100D5520100D5520100D0
:10009000D5520100D5520100D5520100D5520100C0
:1000A000E17D0100ED7D0100D5520100D552010036
:1000B000D5520100D5520100D5520100D5520100A0
:1000C000D5520100D5520100D5520100D552010090
:1000D000D5520100D5520100D5520100D552010080
:1000E000D5520100D5520100D5520100D552010070
:1000F000D5520100D5520100D5520100D552010060
:10010000D5520100D5520100D5520100D55201004F
:10011000D5520100C9590100D5520100D552010044
:10012000D5520100D5520100D5520100D55201002F
:10013000D5520100D5520100D5520100D55201001F
:1001400021480100D5520100D5520100D5520100CD
:10015000D5520100D5520100D5520100D5520100FF
:10016000D5520100D5520100F97D0100D5520100A0
:10017000D5520100D5520100D5520100D5520100DF
:10018000D5520100D5520100D5520100D5520100CF
:10019000D5520100D5520100D5520100D5520100BF
:1001A000D5520100D5520100D5520100D5520100AF
:1001B000D5520100D5520100D5520100D55201009F
:1001C000D5520100D5520100D5520100D55201008F
:1001D0005C4B4CF2205210B51A804DF628121A8052
:1001E00000BF00BF15F07AF8574B4FF030621A602D
:1001F000564A9A60564ADA60564B4FF470021A60BB
:10020000554B564A1A60564B1A78110703D51A787F
:1002100042F008021A70534B5349AA221A70534AEB
:10022000534B8B4204D252F8040F43F8040BF8E707
:10023000504B514900228B4202D243F8042BFAE77B
:100240004E494F4A002352F8230041F8230001335E
:10025000742BF8D14B4B4C4A802103F8011B93427D
:10026000FBD14A4B454A1A60494B8A221A70A3F5C2
:10027000805324225A70A0221A709A799207FCD5D2
:100280009A79D406FCD4434A937903F00C03082BE3
:10029000FAD1414B60221A7002331A78802AFCD1BD
:1002A0003C4B01221A715D225A719A799006FCD555
:1002B0009979384A4906FBD5384B394919600021EC
:1002C000596020231370937903F00C030C2BFAD19F
:1002D000344B354A1A60354A354C136813F4807331
:1002E00003D123604FF4A8531360324B324A1A6093
:1002F00000225A60072243F8042C304AC3F80C2D20
:1003000062B615F0D1F92368DA0705D52C4815F047
:100310004DF92C4B2C4A1A602C4B1B785B0609D5E7
:10032000284C294B22689A4204D1254815F03EF901
:100330000023236019F0C4FD14F0D6FF14F004FF6D
:10034000FEE700BF0E20054030800440823F0400DD
:100350000100002B88ED00E0002008E0030000858C
:1003600002D0074000E00740E84C0020384E04006F
:10037000303D0020F04C0020A895022000380020DD
:100380000000000000E400E064E400E008ED00E0AC
:10039000005006400040064001E007404480044011
:1003A0000000060204800440C010070010D0034083
:1003B00014D0034014E000E01FBF02000000202022
:1003C000A49670601CE00340A5C3945A00F0074057
:1003D000FFFFFFFFFFFFFFFFFFFFFFFFFFFFFFFF2D
:1003E000FFFFFFFFFFFFFFFFFFFFFFFFFFFFFFFF1D
:1003F000FFFFFFFFFFFFFFFFFFFFFFFFFFFFFFFF0D
:10040000FFFFFFFFFFFFFFFFFFFFFFFFDEF9FFFF23
:1004100010B5054C237833B9044B13B10448AFF33E
:1004200000800123237010BDF04C0020000000006C
:10043000344E0400084B10B51BB108490848AFF30F
:1004400000800848036803B910BD074B002BFBD0A0
:10045000BDE81040184700BF00000000F44C002029
:10046000344E0400E84C00200000000010B5044B9E
:10047000044640F8183B09F095F9204610BD00BF2E
:10048000401A030015F08CB810B5044614F072F948
:10049000204610BD214B10B41A68136850681978B3
:1004A0000478507A137A044201EA03011BD0937A4C
:1004B00003F0030309B143F0040343F00803991068
:1004C000013B91720D2B0BD8DFE803F021071B07CE
:1004D0000A152121150A071B0721D368013BD360A8
:1004E0005DF8044B7047937A03F003030029E6D0CC
:1004F00043F00403E3E7D3685DF8044B023BD360A9
:100500007047D3685DF8044B0233D3607047D368FB
:100510005DF8044B0133D360704700BFD08D0220DB
:10052000214B10B4D3F8EC20136850681978047884
:10053000507A137A044201EA03011BD0937A03F044
:10054000030309B143F0040343F008039910013B8E
:1005500091720D2B0BD8DFE803F021071B070A155A
:100560002121150A071B0721D368013BD3605DF8E1
:10057000044B7047937A03F003030029E6D043F05D
:100580000403E3E7D3685DF8044B023BD360704794
:10059000D3685DF8044B0233D3607047D3685DF8CD
:1005A000044B0133D3607047D08D0220214B10B42F
:1005B0005A681368506819780478507A137A04429C
:1005C00001EA03011BD0937A03F0030309B143F05E
:1005D000040343F008039910013B91720D2B0BD8D3
:1005E000DFE803F021071B070A152121150A071B65
:1005F0000721D368013BD3605DF8044B7047937AC1
:1006000003F003030029E6D043F00403E3E7D368D3
:100610005DF8044B023BD3607047D3685DF8044B30
:100620000233D3607047D3685DF8044B0133D36065
:10063000704700BFD08D0220214B10B49A68136818
:10064000506819780478507A137A044201EA030159
:100650001BD0937A03F0030309B143F0040343F082
:1006600008039910013B91720D2B0BD8DFE803F0C2
:1006700021071B070A152121150A071B0721D3682B
:10068000013BD3605DF8044B7047937A03F003039A
:100690000029E6D043F00403E3E7D3685DF8044B98
:1006A000023BD3607047D3685DF8044B0233D360DC
:1006B0007047D3685DF8044B0133D360704700BFC7
:1006C000D08D0220214B10B4DA6813685068197875
:1006D0000478507A137A044201EA03011BD0937A1A
:1006E00003F0030309B143F0040343F00803991036
:1006F000013B91720D2B0BD8DFE803F021071B079C
:100700000A152121150A071B0721D368013BD36075
:100710005DF8044B7047937A03F003030029E6D099
:1007200043F00403E3E7D3685DF8044B023BD36076
:100730007047D3685DF8044B0233D3607047D368C9
:100740005DF8044B0133D360704700BFD08D0220A9
:10075000214B10B41A691368506819780478507ADC
:10076000137A044201EA03011BD0937A03F00303D6
:1007700009B143F0040343F008039910013B91725F
:100780000D2B0BD8DFE803F021071B070A152121E9
:10079000150A071B0721D368013BD3605DF8044BA2
:1007A0007047937A03F003030029E6D043F0040373
:1007B000E3E7D3685DF8044B023BD3607047D3682E
:1007C0005DF8044B0233D3607047D3685DF8044B87
:1007D0000133D360704700BFD08D0220214B10B48D
:1007E0005A691368506819780478507A137A044269
:1007F00001EA03011BD0937A03F0030309B143F02C
:10080000040343F008039910013B91720D2B0BD8A0
:10081000DFE803F021071B070A152121150A071B32
:100820000721D368013BD3605DF8044B7047937A8E
:1008300003F003030029E6D043F00403E3E7D368A1
:100840005DF8044B023BD3607047D3685DF8044BFE
:100850000233D3607047D3685DF8044B0133D36033
:10086000704700BFD08D0220214B10B49A691368E5
:10087000506819780478507A137A044201EA030127
:100880001BD0937A03F0030309B143F0040343F050
:1008900008039910013B91720D2B0BD8DFE803F090
:1008A00021071B070A152121150A071B0721D368F9
:1008B000013BD3605DF8044B7047937A03F0030368
:1008C0000029E6D043F00403E3E7D3685DF8044B66
:1008D000023BD3607047D3685DF8044B0233D360AA
:1008E0007047D3685DF8044B0133D360704700BF95
:1008F000D08D0220214B10B4DA6913685068197842
:100900000478507A137A044201EA03011BD0937AE7
:1009100003F0030309B143F0040343F00803991003
:10092000013B91720D2B0BD8DFE803F021071B0769
:100930000A152121150A071B0721D368013BD36043
:100940005DF8044B7047937A03F003030029E6D067
:1009500043F00403E3E7D3685DF8044B023BD36044
:100960007047D3685DF8044B0233D3607047D36897
:100970005DF8044B0133D360704700BFD08D022077
:10098000214B10B41A6A1368506819780478507AA9
:10099000137A044201EA03011BD0937A03F00303A4
:1009A00009B143F0040343F008039910013B91722D
:1009B0000D2B0BD8DFE803F021071B070A152121B7
:1009C000150A071B0721D368013BD3605DF8044B70
:1009D0007047937A03F003030029E6D043F0040341
:1009E000E3E7D3685DF8044B023BD3607047D368FC
:1009F0005DF8044B0233D3607047D3685DF8044B55
:100A00000133D360704700BFD08D0220214B10B45A
:100A1000D3F8E4201368506819780478507A137A70
:100A2000044201EA03011BD0937A03F0030309B1E6
:100A300043F0040343F008039910013B91720D2B1E
:100A40000BD8DFE803F021071B070A152121150A3F
:100A5000071B0721D368013BD3605DF8044B704747
:100A6000937A03F003030029E6D043F00403E3E79D
:100A7000D3685DF8044B023BD3607047D3685DF8E0
:100A8000044B0233D3607047D3685DF8044B0133E5
:100A9000D3607047D08D0220214B10B4D3F8E820EA
:100AA0001368506819780478507A137A044201EA7E
:100AB00003011BD0937A03F0030309B143F004034D
:100AC00043F008039910013B91720D2B0BD8DFE81E
:100AD00003F021071B070A152121150A071B07210F
:100AE000D368013BD3605DF8044B7047937A03F001
:100AF00003030029E6D043F00403E3E7D3685DF87D
:100B0000044B023BD3607047D3685DF8044B02335B
:100B1000D3607047D3685DF8044B0133D3607047EE
:100B2000D08D0220214B10B4D3F8A4201368506854
:100B300019780478507A137A044201EA03011BD031
:100B4000937A03F0030309B143F0040343F008036D
:100B50009910013B91720D2B0BD8DFE803F02107B0
:100B60001B070A152121150A071B0721D368013B22
:100B7000D3605DF8044B7047937A03F003030029B8
:100B8000E6D043F00403E3E7D3685DF8044B023B8F
:100B9000D3607047D3685DF8044B0233D36070476D
:100BA000D3685DF8044B0133D3607047D08D0220C9
:100BB000214B10B4D3F8A820136850681978047832
:100BC000507A137A044201EA03011BD0937A03F0AE
:100BD000030309B143F0040343F008039910013BF8
:100BE00091720D2B0BD8DFE803F021071B070A15C4
:100BF0002121150A071B0721D368013BD3605DF84B
:100C0000044B7047937A03F003030029E6D043F0C6
:100C10000403E3E7D3685DF8044B023BD3607047FD
:100C2000D3685DF8044B0233D3607047D3685DF836
:100C3000044B0133D3607047D08D0220214B10B498
:100C4000D3F8AC201368506819780478507A137A76
:100C5000044201EA03011BD0937A03F0030309B1B4
:100C600043F0040343F008039910013B91720D2BEC
:100C70000BD8DFE803F021071B070A152121150A0D
:100C8000071B0721D368013BD3605DF8044B704715
:100C9000937A03F003030029E6D043F00403E3E76B
:100CA000D3685DF8044B023BD3607047D3685DF8AE
:100CB000044B0233D3607047D3685DF8044B0133B3
:100CC000D3607047D08D0220214B10B4D3F8B020F0
:100CD0001368506819780478507A137A044201EA4C
:100CE00003011BD0937A03F0030309B143F004031B
:100CF00043F008039910013B91720D2B0BD8DFE8EC
:100D000003F021071B070A152121150A071B0721DC
:100D1000D368013BD3605DF8044B7047937A03F0CE
:100D200003030029E6D043F00403E3E7D3685DF84A
:100D3000044B023BD3607047D3685DF8044B023329
:100D4000D3607047D3685DF8044B0133D3607047BC
:100D5000D08D0220214B10B4D3F8B4201368506812
:100D600019780478507A137A044201EA03011BD0FF
:100D7000937A03F0030309B143F0040343F008033B
:100D80009910013B91720D2B0BD8DFE803F021077E
:100D90001B070A152121150A071B0721D368013BF0
:100DA000D3605DF8044B7047937A03F00303002986
:100DB000E6D043F00403E3E7D3685DF8044B023B5D
:100DC000D3607047D3685DF8044B0233D36070473B
:100DD000D3685DF8044B0133D3607047D08D022097
:100DE000214B10B4D3F8B8201368506819780478F0
:100DF000507A137A044201EA03011BD0937A03F07C
:100E0000030309B143F0040343F008039910013BC5
:100E100091720D2B0BD8DFE803F021071B070A1591
:100E20002121150A071B0721D368013BD3605DF818
:100E3000044B7047937A03F003030029E6D043F094
:100E40000403E3E7D3685DF8044B023BD3607047CB
:100E5000D3685DF8044B0233D3607047D3685DF804
:100E6000044B0133D3607047D08D0220214B10B466
:100E7000D3F8BC201368506819780478507A137A34
:100E8000044201EA03011BD0937A03F0030309B182
:100E900043F0040343F008039910013B91720D2BBA
:100EA0000BD8DFE803F021071B070A152121150ADB
:100EB000071B0721D368013BD3605DF8044B7047E3
:100EC000937A03F003030029E6D043F00403E3E739
:100ED000D3685DF8044B023BD3607047D3685DF87C
:100EE000044B0233D3607047D3685DF8044B013381
:100EF000D3607047D08D0220214B10B4D3F8C020AE
:100F00001368506819780478507A137A044201EA19
:100F100003011BD0937A03F0030309B143F00403E8
:100F200043F008039910013B91720D2B0BD8DFE8B9
:100F300003F021071B070A152121150A071B0721AA
:100F4000D368013BD3605DF8044B7047937A03F09C
:100F500003030029E6D043F00403E3E7D3685DF818
:100F6000044B023BD3607047D3685DF8044B0233F7
:100F7000D3607047D3685DF8044B0133D36070478A
:100F8000D08D0220214B10B4D3F8C42013685068D0
:100F900019780478507A137A044201EA03011BD0CD
:100FA000937A03F0030309B143F0040343F0080309
:100FB0009910013B91720D2B0BD8DFE803F021074C
:100FC0001B070A152121150A071B0721D368013BBE
:100FD000D3605DF8044B7047937A03F00303002954
:100FE000E6D043F00403E3E7D3685DF8044B023B2B
:100FF000D3607047D3685DF8044B0233D360704709
:10100000D3685DF8044B0133D3607047D08D022064
:10101000214B10B4D3F8C8201368506819780478AD
:10102000507A137A044201EA03011BD0937A03F049
:10103000030309B143F0040343F008039910013B93
:1010400091720D2B0BD8DFE803F021071B070A155F
:101050002121150A071B0721D368013BD3605DF8E6
:10106000044B7047937A03F003030029E6D043F062
:101070000403E3E7D3685DF8044B023BD360704799
:10108000D3685DF8044B0233D3607047D3685DF8D2
:10109000044B0133D3607047D08D0220214B10B434
:1010A000D3F8CC201368506819780478507A137AF2
:1010B000044201EA03011BD0937A03F0030309B150
:1010C00043F0040343F008039910013B91720D2B88
:1010D0000BD8DFE803F021071B070A152121150AA9
:1010E000071B0721D368013BD3605DF8044B7047B1
:1010F000937A03F003030029E6D043F00403E3E707
:10110000D3685DF8044B023BD3607047D3685DF849
:10111000044B0233D3607047D3685DF8044B01334E
:10112000D3607047D08D0220214B10B4D3F8D0206B
:101130001368506819780478507A137A044201EAE7
:1011400003011BD0937A03F0030309B143F00403B6
:1011500043F008039910013B91720D2B0BD8DFE887
:1011600003F021071B070A152121150A071B072178
:10117000D368013BD3605DF8044B7047937A03F06A
:1011800003030029E6D043F00403E3E7D3685DF8E6
:10119000044B023BD3607047D3685DF8044B0233C5
:1011A000D3607047D3685DF8044B0133D360704758
:1011B000D08D0220214B10B4D3F8D420136850688E
:1011C00019780478507A137A044201EA03011BD09B
:1011D000937A03F0030309B143F0040343F00803D7
:1011E0009910013B91720D2B0BD8DFE803F021071A
:1011F0001B070A152121150A071B0721D368013B8C
:10120000D3605DF8044B7047937A03F00303002921
:10121000E6D043F00403E3E7D3685DF8044B023BF8
:10122000D3607047D3685DF8044B0233D3607047D6
:10123000D3685DF8044B0133D3607047D08D022032
:10124000214B10B4D3F8D82013685068197804786B
:10125000507A137A044201EA03011BD0937A03F017
:10126000030309B143F0040343F008039910013B61
:1012700091720D2B0BD8DFE803F021071B070A152D
:101280002121150A071B0721D368013BD3605DF8B4
:10129000044B7047937A03F003030029E6D043F030
:1012A0000403E3E7D3685DF8044B023BD360704767
:1012B000D3685DF8044B0233D3607047D3685DF8A0
:1012C000044B0133D3607047D08D0220214B10B402
:1012D000D3F8DC201368506819780478507A137AB0
:1012E000044201EA03011BD0937A03F0030309B11E
:1012F00043F0040343F008039910013B91720D2B56
:101300000BD8DFE803F021071B070A152121150A76
:10131000071B0721D368013BD3605DF8044B70477E
:10132000937A03F003030029E6D043F00403E3E7D4
:10133000D3685DF8044B023BD3607047D3685DF817
:10134000044B0233D3607047D3685DF8044B01331C
:10135000D3607047D08D0220214B10B4D3F8E02029
:101360001368506819780478507A137A044201EAB5
:1013700003011BD0937A03F0030309B143F0040384
:1013800043F008039910013B91720D2B0BD8DFE855
:1013900003F021071B070A152121150A071B072146
:1013A000D368013BD3605DF8044B7047937A03F038
:1013B00003030029E6D043F00403E3E7D3685DF8B4
:1013C000044B023BD3607047D3685DF8044B023393
:1013D000D3607047D3685DF8044B0133D360704726
:1013E000D08D0220214B10B45A6A136850681978C6
:1013F0000478507A137A044201EA03011BD0937AED
:1014000003F0030309B143F0040343F00803991008
:10141000013B91720D2B0BD8DFE803F021071B076E
:101420000A152121150A071B0721D368013BD36048
:101430005DF8044B7047937A03F003030029E6D06C
:1014400043F00403E3E7D3685DF8044B023BD36049
:101450007047D3685DF8044B0233D3607047D3689C
:101460005DF8044B0133D360704700BFD08D02207C
:10147000214B10B49A6A1368506819780478507A2E
:10148000137A044201EA03011BD0937A03F00303A9
:1014900009B143F0040343F008039910013B917232
:1014A0000D2B0BD8DFE803F021071B070A152121BC
:1014B000150A071B0721D368013BD3605DF8044B75
:1014C0007047937A03F003030029E6D043F0040346
:1014D000E3E7D3685DF8044B023BD3607047D36801
:1014E0005DF8044B0233D3607047D3685DF8044B5A
:1014F0000133D360704700BFD08D0220214B10B460
:10150000DA6A1368506819780478507A137A0442BA
:1015100001EA03011BD0937A03F0030309B143F0FE
:10152000040343F008039910013B91720D2B0BD873
:10153000DFE803F021071B070A152121150A071B05
:101540000721D368013BD3605DF8044B7047937A61
:1015500003F003030029E6D043F00403E3E7D36874
:101560005DF8044B023BD3607047D3685DF8044BD1
:101570000233D3607047D3685DF8044B0133D36006
:10158000704700BFD08D0220214B10B41A6B136836
:10159000506819780478507A137A044201EA0301FA
:1015A0001BD0937A03F0030309B143F0040343F023
:1015B00008039910013B91720D2B0BD8DFE803F063
:1015C00021071B070A152121150A071B0721D368CC
:1015D000013BD3605DF8044B7047937A03F003033B
:1015E0000029E6D043F00403E3E7D3685DF8044B39
:1015F000023BD3607047D3685DF8044B0233D3607D
:101600007047D3685DF8044B0133D360704700BF67
:10161000D08D0220214B10B45A6B13685068197892
:101620000478507A137A044201EA03011BD0937ABA
:1016300003F0030309B143F0040343F008039910D6
:10164000013B91720D2B0BD8DFE803F021071B073C
:101650000A152121150A071B0721D368013BD36016
:101660005DF8044B7047937A03F003030029E6D03A
:1016700043F00403E3E7D3685DF8044B023BD36017
:101680007047D3685DF8044B0233D3607047D3686A
:101690005DF8044B0133D360704700BFD08D02204A
:1016A000214B10B49A6B1368506819780478507AFB
:1016B000137A044201EA03011BD0937A03F0030377
:1016C00009B143F0040343F008039910013B917200
:1016D0000D2B0BD8DFE803F021071B070A1521218A
:1016E000150A071B0721D368013BD3605DF8044B43
:1016F0007047937A03F003030029E6D043F0040314
:10170000E3E7D3685DF8044B023BD3607047D368CE
:101710005DF8044B0233D3607047D3685DF8044B27
:101720000133D360704700BFD08D0220214B10B42D
:10173000DA6B1368506819780478507A137A044287
:1017400001EA03011BD0937A03F0030309B143F0CC
:10175000040343F008039910013B91720D2B0BD841
:10176000DFE803F021071B070A152121150A071BD3
:101770000721D368013BD3605DF8044B7047937A2F
:1017800003F003030029E6D043F00403E3E7D36842
:101790005DF8044B023BD3607047D3685DF8044B9F
:1017A0000233D3607047D3685DF8044B0133D360D4
:1017B000704700BFD08D0220214B10B41A6C136803
:1017C000506819780478507A137A044201EA0301C8
:1017D0001BD0937A03F0030309B143F0040343F0F1
:1017E00008039910013B91720D2B0BD8DFE803F031
:1017F00021071B070A152121150A071B0721D3689A
:10180000013BD3605DF8044B7047937A03F0030308
:101810000029E6D043F00403E3E7D3685DF8044B06
:10182000023BD3607047D3685DF8044B0233D3604A
:101830007047D3685DF8044B0133D360704700BF35
:10184000D08D0220214B10B45A6C1368506819785F
:101850000478507A137A044201EA03011BD0937A88
:1018600003F0030309B143F0040343F008039910A4
:10187000013B91720D2B0BD8DFE803F021071B070A
:101880000A152121150A071B0721D368013BD360E4
:101890005DF8044B7047937A03F003030029E6D008
:1018A00043F00403E3E7D3685DF8044B023BD360E5
:1018B0007047D3685DF8044B0233D3607047D36838
:1018C0005DF8044B0133D360704700BFD08D022018
:1018D000214B10B49A6C1368506819780478507AC8
:1018E000137A044201EA03011BD0937A03F0030345
:1018F00009B143F0040343F008039910013B9172CE
:101900000D2B0BD8DFE803F021071B070A15212157
:10191000150A071B0721D368013BD3605DF8044B10
:101920007047937A03F003030029E6D043F00403E1
:10193000E3E7D3685DF8044B023BD3607047D3689C
:101940005DF8044B0233D3607047D3685DF8044BF5
:101950000133D360704700BFD08D0220214B10B4FB
:10196000DA6C1368506819780478507A137A044254
:1019700001EA03011BD0937A03F0030309B143F09A
:10198000040343F008039910013B91720D2B0BD80F
:10199000DFE803F021071B070A152121150A071BA1
:1019A0000721D368013BD3605DF8044B7047937AFD
:1019B00003F003030029E6D043F00403E3E7D36810
:1019C0005DF8044B023BD3607047D3685DF8044B6D
:1019D0000233D3607047D3685DF8044B0133D360A2
:1019E000704700BFD08D0220214B10B41A6D1368D0
:1019F000506819780478507A137A044201EA030196
:101A00001BD0937A03F0030309B143F0040343F0BE
:101A100008039910013B91720D2B0BD8DFE803F0FE
:101A200021071B070A152121150A071B0721D36867
:101A3000013BD3605DF8044B7047937A03F00303D6
:101A40000029E6D043F00403E3E7D3685DF8044BD4
:101A5000023BD3607047D3685DF8044B0233D36018
:101A60007047D3685DF8044B0133D360704700BF03
:101A7000D08D0220214B10B45A6D1368506819782C
:101A80000478507A137A044201EA03011BD0937A56
:101A900003F0030309B143F0040343F00803991072
:101AA000013B91720D2B0BD8DFE803F021071B07D8
:101AB0000A152121150A071B0721D368013BD360B2
:101AC0005DF8044B7047937A03F003030029E6D0D6
:101AD00043F00403E3E7D3685DF8044B023BD360B3
:101AE0007047D3685DF8044B0233D3607047D36806
:101AF0005DF8044B0133D360704700BFD08D0220E6
:101B0000214B10B49A6D1368506819780478507A94
:101B1000137A044201EA03011BD0937A03F0030312
:101B200009B143F0040343F008039910013B91729B
:101B30000D2B0BD8DFE803F021071B070A15212125
:101B4000150A071B0721D368013BD3605DF8044BDE
:101B50007047937A03F003030029E6D043F00403AF
:101B6000E3E7D3685DF8044B023BD3607047D3686A
:101B70005DF8044B0233D3607047D3685DF8044BC3
:101B80000133D360704700BFD08D0220214B10B4C9
:101B9000DA6D1368506819780478507A137A044221
:101BA00001EA03011BD0937A03F0030309B143F068
:101BB000040343F008039910013B91720D2B0BD8DD
:101BC000DFE803F021071B070A152121150A071B6F
:101BD0000721D368013BD3605DF8044B7047937ACB
:101BE00003F003030029E6D043F00403E3E7D368DE
:101BF0005DF8044B023BD3607047D3685DF8044B3B
:101C00000233D3607047D3685DF8044B0133D3606F
:101C1000704700BFD08D0220214B10B41A6E13689C
:101C2000506819780478507A137A044201EA030163
:101C30001BD0937A03F0030309B143F0040343F08C
:101C400008039910013B91720D2B0BD8DFE803F0CC
:101C500021071B070A152121150A071B0721D36835
:101C6000013BD3605DF8044B7047937A03F00303A4
:101C70000029E6D043F00403E3E7D3685DF8044BA2
:101C8000023BD3607047D3685DF8044B0233D360E6
:101C90007047D3685DF8044B0133D360704700BFD1
:101CA000D08D0220214B10B45A6E136850681978F9
:101CB0000478507A137A044201EA03011BD0937A24
:101CC00003F0030309B143F0040343F00803991040
:101CD000013B91720D2B0BD8DFE803F021071B07A6
:101CE0000A152121150A071B0721D368013BD36080
:101CF0005DF8044B7047937A03F003030029E6D0A4
:101D000043F00403E3E7D3685DF8044B023BD36080
:101D10007047D3685DF8044B0233D3607047D368D3
:101D20005DF8044B0133D360704700BFD08D0220B3
:101D3000214B10B49A6E1368506819780478507A61
:101D4000137A044201EA03011BD0937A03F00303E0
:101D500009B143F0040343F008039910013B917269
:101D60000D2B0BD8DFE803F021071B070A152121F3
:101D7000150A071B0721D368013BD3605DF8044BAC
:101D80007047937A03F003030029E6D043F004037D
:101D9000E3E7D3685DF8044B023BD3607047D36838
:101DA0005DF8044B0233D3607047D3685DF8044B91
:101DB0000133D360704700BFD08D0220214B10B497
:101DC000DA6E1368506819780478507A137A0442EE
:101DD00001EA03011BD0937A03F0030309B143F036
:101DE000040343F008039910013B91720D2B0BD8AB
:101DF000DFE803F021071B070A152121150A071B3D
:101E00000721D368013BD3605DF8044B7047937A98
:101E100003F003030029E6D043F00403E3E7D368AB
:101E20005DF8044B023BD3607047D3685DF8044B08
:101E30000233D3607047D3685DF8044B0133D3603D
:101E4000704700BFD08D0220214B10B41A6F136869
:101E5000506819780478507A137A044201EA030131
:101E60001BD0937A03F0030309B143F0040343F05A
:101E700008039910013B91720D2B0BD8DFE803F09A
:101E800021071B070A152121150A071B0721D36803
:101E9000013BD3605DF8044B7047937A03F0030372
:101EA0000029E6D043F00403E3E7D3685DF8044B70
:101EB000023BD3607047D3685DF8044B0233D360B4
:101EC0007047D3685DF8044B0133D360704700BF9F
:101ED000D08D0220214B10B45A6F136850681978C6
:101EE0000478507A137A044201EA03011BD0937AF2
:101EF00003F0030309B143F0040343F0080399100E
:101F0000013B91720D2B0BD8DFE803F021071B0773
:101F10000A152121150A071B0721D368013BD3604D
:101F20005DF8044B7047937A03F003030029E6D071
:101F300043F00403E3E7D3685DF8044B023BD3604E
:101F40007047D3685DF8044B0233D3607047D368A1
:101F50005DF8044B0133D360704700BFD08D022081
:101F6000214B10B49A6F1368506819780478507A2E
:101F7000137A044201EA03011BD0937A03F00303AE
:101F800009B143F0040343F008039910013B917237
:101F90000D2B0BD8DFE803F021071B070A152121C1
:101FA000150A071B0721D368013BD3605DF8044B7A
:101FB0007047937A03F003030029E6D043F004034B
:101FC000E3E7D3685DF8044B023BD3607047D36806
:101FD0005DF8044B0233D3607047D3685DF8044B5F
:101FE0000133D360704700BFD08D0220214B10B465
:101FF000DA6F1368506819780478507A137A0442BB
:1020000001EA03011BD0937A03F0030309B143F003
:10201000040343F008039910013B91720D2B0BD878
:10202000DFE803F021071B070A152121150A071B0A
:102030000721D368013BD3605DF8044B7047937A66
:1020400003F003030029E6D043F00403E3E7D36879
:102050005DF8044B023BD3607047D3685DF8044BD6
:102060000233D3607047D3685DF8044B0133D3600B
:10207000704700BFD08D0220214B10B4D3F88020D0
:102080001368506819780478507A137A044201EA88
:1020900003011BD0937A03F0030309B143F0040357
:1020A00043F008039910013B91720D2B0BD8DFE828
:1020B00003F021071B070A152121150A071B072119
:1020C000D368013BD3605DF8044B7047937A03F00B
:1020D00003030029E6D043F00403E3E7D3685DF887
:1020E000044B023BD3607047D3685DF8044B023366
:1020F000D3607047D3685DF8044B0133D3607047F9
:10210000D08D0220214B10B4D3F88420136850687E
:1021100019780478507A137A044201EA03011BD03B
:10212000937A03F0030309B143F0040343F0080377
:102130009910013B91720D2B0BD8DFE803F02107BA
:102140001B070A152121150A071B0721D368013B2C
:10215000D3605DF8044B7047937A03F003030029C2
:10216000E6D043F00403E3E7D3685DF8044B023B99
:10217000D3607047D3685DF8044B0233D360704777
:10218000D3685DF8044B0133D3607047D08D0220D3
:10219000214B10B4D3F8882013685068197804785C
:1021A000507A137A044201EA03011BD0937A03F0B8
:1021B000030309B143F0040343F008039910013B02
:1021C00091720D2B0BD8DFE803F021071B070A15CE
:1021D0002121150A071B0721D368013BD3605DF855
:1021E000044B7047937A03F003030029E6D043F0D1
:1021F0000403E3E7D3685DF8044B023BD360704708
:10220000D3685DF8044B0233D3607047D3685DF840
:10221000044B0133D3607047D08D0220214B10B4A2
:10222000D3F88C201368506819780478507A137AA0
:10223000044201EA03011BD0937A03F0030309B1BE
:1022400043F0040343F008039910013B91720D2BF6
:102250000BD8DFE803F021071B070A152121150A17
:10226000071B0721D368013BD3605DF8044B70471F
:10227000937A03F003030029E6D043F00403E3E775
:10228000D3685DF8044B023BD3607047D3685DF8B8
:10229000044B0233D3607047D3685DF8044B0133BD
:1022A000D3607047D08D0220214B10B4D3F890201A
:1022B0001368506819780478507A137A044201EA56
:1022C00003011BD0937A03F0030309B143F0040325
:1022D00043F008039910013B91720D2B0BD8DFE8F6
:1022E00003F021071B070A152121150A071B0721E7
:1022F000D368013BD3605DF8044B7047937A03F0D9
:1023000003030029E6D043F00403E3E7D3685DF854
:10231000044B023BD3607047D3685DF8044B023333
:10232000D3607047D3685DF8044B0133D3607047C6
:10233000D08D0220214B10B4D3F89420136850683C
:1023400019780478507A137A044201EA03011BD009
:10235000937A03F0030309B143F0040343F0080345
:102360009910013B91720D2B0BD8DFE803F0210788
:102370001B070A152121150A071B0721D368013BFA
:10238000D3605DF8044B7047937A03F00303002990
:10239000E6D043F00403E3E7D3685DF8044B023B67
:1023A000D3607047D3685DF8044B0233D360704745
:1023B000D3685DF8044B0133D3607047D08D0220A1
:1023C000214B10B4D3F8982013685068197804781A
:1023D000507A137A044201EA03011BD0937A03F086
:1023E000030309B143F0040343F008039910013BD0
:1023F00091720D2B0BD8DFE803F021071B070A159C
:102400002121150A071B0721D368013BD3605DF822
:10241000044B7047937A03F003030029E6D043F09E
:102420000403E3E7D3685DF8044B023BD3607047D5
:10243000D3685DF8044B0233D3607047D3685DF80E
:10244000044B0133D3607047D08D0220214B10B470
:10245000D3F89C201368506819780478507A137A5E
:10246000044201EA03011BD0937A03F0030309B18C
:1024700043F0040343F008039910013B91720D2BC4
:102480000BD8DFE803F021071B070A152121150AE5
:10249000071B0721D368013BD3605DF8044B7047ED
:1024A000937A03F003030029E6D043F00403E3E743
:1024B000D3685DF8044B023BD3607047D3685DF886
:1024C000044B0233D3607047D3685DF8044B01338B
:1024D000D3607047D08D0220214B10B4D3F8A020D8
:1024E0001368506819780478507A137A044201EA24
:1024F00003011BD0937A03F0030309B143F00403F3
:1025000043F008039910013B91720D2B0BD8DFE8C3
:1025100003F021071B070A152121150A071B0721B4
:10252000D368013BD3605DF8044B7047937A03F0A6
:1025300003030029E6D043F00403E3E7D3685DF822
:10254000044B023BD3607047D3685DF8044B023301
:10255000D3607047D3685DF8044B0133D360704794
:10256000D08D022070B5044608460D4618F008FCD0
:1025700023680246294620465B68BDE8704018473C
:1025800038B5044608460D4618F0FAFB23680246A3
:1025900029465B68204698470546204612F040FAD7
:1025A000284438BD38B50A220023054612F048FAFF
:1025B0000446284612F034FA204438BD002310B4F3
:1025C000114C4172026104600372C36041B119464B
:1025D00000E0026942F82310427A01339A42F8DCA3
:1025E0000A4B1A680AB90CE01A465369002BFBD152
:1025F0005061002343618380C38083725DF8044B84
:1026000070471860F5E700BF3CE701009493022093
:1026100038B501210446124814F064F81521114818
:1026200014F060F801210E4814F05CF80E4B53F8DA
:102630002450284618F0A4FB0146284614F052F80E
:102640000A4812F0EDF90A4B0022032C9A61DA6174
:102650001A6204D806344FF4803243F8242038BD7F
:10266000C0EA0100A0E70100203F00200041002057
:1026700058E4012038B501210446134814F032F81B
:102680000E21124814F02EF801210F4814F02AF8F8
:102690000F4B53F82450284618F072FB0146284689
:1026A00014F020F80B4812F0BBF90B4B0022032C5E
:1026B0009A615A621A62DA6104D806344FF48032A1
:1026C00043F8242038BD00BFC0EA0100B8E701008C
:1026D000C43E002000410020F4DD0120344B9FED7A
:1026E000356A93ED007ADFED346AB8EEC77A07EE0B
:1026F000900AC6EE075AF8EEE77A67EEA57AF4EE8E
:10270000E67AF1EE10FA2ADC2C4A2D4BC2ED007A63
:10271000F5EEC07A0122F1EE10FA1A603CD49FED7A
:10272000297AF4EEC77AF1EE10FA2CDD264B274910
:10273000274AD1ED007AD361F5EEC07AF1EE10FAB6
:102740002CD4B7EE007AF4EEC77AF1EE10FA27DD5A
:102750004FF480331F49136201230B607047C7EEAB
:10276000065A164B1C48164A0121F2EE027AE5EE93
:10277000A67AC3ED006AFDEEE77A17EE903AF0EE26
:10278000667A036011609FED157A67EE877AFCEE3A
:10279000E77A17EE903ACAE70023C8E70023D9E7A3
:1027A000B0EE677ABEEEC87A17EE103AD2E700BFF5
:1027B000F0DD0120A6552C4700E0AB46303E00205E
:1027C00088E100E0A655AC4680FFFF7F883E0020F0
:1027D0005CDB012008E100E0243E00204B24BE47E2
:1027E000284ADFED296AD2ED007A38B5274B284C0C
:1027F00093ED007A2268F8EE677A4FF4FA7167EE8B
:10280000877A40F6B83087EEA67AFDEEC77A17EEE3
:10281000903A01FB03F303F57A73D21A002AB8BF8A
:10282000524282420EDD1B4A41F657318B421268FA
:1028300009DC41F658300346174D2B60FFF74EFF79
:102840002B68236038BD1549DFED156A81FB020155
:10285000D243D20FC2EBE1124FF47A7101FB02F2C4
:102860009342A8BF1346642202FB03F207EE902AAC
:10287000B8EEE77AC7EE267AFDEEE77A17EE900A11
:10288000DAE700BF64E701200000FA43E03E0020E1
:10289000D8DD0120F0DD0120243E0020D34D621060
:1028A0000000C842FFFFFFFF2DE9F04F2DED028B26
:1028B000694B1B780A2B89B03DD8684C684B0022C5
:1028C000D4E9000116F08CFE17F03AF90022644BAF
:1028D0000390D4E9020116F083FE17F031F90022CB
:1028E0005F4B0490D4E9040116F07AFE17F028F942
:1028F00000225B4B0590D4E9060116F071FE17F03B
:102900001FF9574B06900022D4E9080116F068FE23
:1029100017F016F903AA07900021524809F0FCFBB2
:10292000514B00214FF48032D9619A6109B0BDEC5E
:10293000028BBDE8F08F4D4A9FED4D6AD2ED007AD3
:10294000DFED4C6AF8EEE77A4FF47A7286EE277A7A
:1029500002FB03F307EE903AF8EEE77A67EE277A88
:1029600067EEA67A17EE900A16F0E6FD41EC100B22
:1029700041EC180B15F0A8FA35A3D3E9002351EC6C
:10298000100B16F057FFB0EE480AF0EE680ACDE9DA
:10299000000115F039FADDE900010022364B5BEC4D
:1029A00010AB16F06BFC02460B4600202C4916F0CB
:1029B00041FF002204460D462F4B5046594616F063
:1029C0005DFC00222D4B8046894616F009FE22460A
:1029D0002B4616F005FE17F0B3F8224606462B46A6
:1029E000404609F10041039616F0FAFD17F0A8F8E9
:1029F000002204904FF0404350465946059616F089
:102A0000EFFD22462B4616F0EBFD17F099F8DDE9B5
:102A1000002306901849002016F02EFC2B46224673
:102A200016F0DEFD17F08CF803AA079000210D4880
:102A300009F072FB0C4B00214FF480329961DA618E
:102A400009B0BDEC028BBDE8F08F00BFAFF3008092
:102A5000000000606666F63F553E0020903E002074
:102A60000000D04118DD012010CD0120F0DD012053
:102A7000A6552C47465615390000F03F0000E03FB0
:102A8000F8B55C495C4D9FED5D6A2D785C4C5D4FFF
:102A900000010B1807EE905A9B685B4D2360002BDA
:102AA000B4BF03F2FF121A46521207EE102AF8EED4
:102AB000E77AB8EEC77A67EE867A2E78534D87EDBF
:102AC000007AC7EE876AFDEEE67A17EE902A2A7042
:102AD00076B14F4A127807EE902AF8EEE77A67EE61
:102AE000867AC7EE876AFDEEE67A17EE902A2A709C
:102AF00003EBD3735B1007EE903AF8EEE77A0B180E
:102B0000C7EE876A434A5B68434E444D1360012316
:102B1000434AFDEEE66AC6ED006A2B601368002B9F
:102B2000FCDB08443F498289C3893F4D3F4F013A4E
:102B30001203013B02F47F22C3F30B0313430B6028
:102B4000C82012F05FFD3A4B1868FFF7C7FD394AFD
:102B5000394B01261660142083F8206B12F052FDC9
:102B6000FFF7A2FE2B78ABB10121344813F0BAFD78
:102B70001221334813F0B6FD0121304813F0B2FDA5
:102B80002168304811F09CFF2E4811F049FF3B7836
:102B900013B9F8BD3B78A3B10121284813F0A2FD79
:102BA0001421294813F09EFD0121244813F09AFDB9
:102BB0002168244811F084FF2248BDE8F84011F054
:102BC0002FBF31461D4813F08DFD14211F4813F00F
:102BD00089FD3146194813F085FD2168194811F027
:102BE0006FFF184811F01CFF2B78002BBCD13B78ED
:102BF000CEE700BFE4F50100763E002000007A44F5
:102C0000F0DD0120E03E002064E0012018F001200A
:102C10008D3E0020ACEB0120D4DD012088E100E0F6
:102C200000F1024004F10240A0EB0120DC89022007
:102C3000243E002008E100E04CCD0120C0EA010064
:102C4000C8E7010000410020F4E70100DCE70100D3
:102C500007EE900A9FED0C6ADFED0C6A0C4B0D48F5
:102C6000B8EEE77ADFED0C7A27EE067A10B5E7EEDC
:102C7000267A01241C60FCEEE77A17EE901A08F021
:102C80004BFF064B1C6010BD0AD7233C00000143DC
:102C900088E100E0B0890220EE7CFF3E08E100E020
:102CA00070B5314E04460921304813F01BFD3568DC
:102CB000012D30D005B170BD04212D4813F012FD57
:102CC0002C4811F0ADFE2C4B2C4801221A602946ED
:102CD00008F0B2FE002CB8BF0334A410E2B21146D3
:102CE000264808F0DFFE264B264801251D602946B0
:102CF00013F0F8FC0721244813F0F4FC294621487E
:102D000013F0F0FC21461B4811F0DAFE1948BDE82B
:102D1000704011F085BE03211C4813F0E3FC1548F8
:102D200011F07EFE144B15481D600022114608F07C
:102D3000B9FE2946134813F0D5FC0721124813F0B9
:102D4000D1FC29460F4813F0CDFC2146094811F06B
:102D5000B7FE084811F064FE2146084808F06CFEF2
:102D6000074B1D603568A5E7503E00200CE80100C8
:102D700024E801000041002088E100E0B089022041
:102D800008E100E0C0EA01001CE8010018E80100C9
:102D900010B4036841681A780C78417A037A0C42BF
:102DA00002EA03021BD0837A03F003030AB143F063
:102DB000040343F008039A10013B82720D2B0BD8D9
:102DC000DFE803F021071B070A152121150A071B5D
:102DD0000721C368013BC3605DF8044B7047837AE9
:102DE00003F00303002AE6D043F00403E3E7C368DB
:102DF0005DF8044B023BC3607047C3685DF8044B49
:102E00000233C3607047C3685DF8044B0133C3608D
:102E1000704700BF08B50B463B2800F2C682DFE8CA
:102E200010F0BB02B202A902A00297028E02850234
:102E30007C0273026A02610258024F0246023D029E
:102E400034022B022202190210020702AE01A50170
:102E50009C0193018A01810178016F0166015D0186
:102E600054014A01400136012C01220118010E01D2
:102E70000401FA00F000E600DC00D200C800BE0049
:102E8000B400AA00A00096008C00820078006E00BA
:102E900064005A00500046003C00BD4ABD49C2F8DB
:102EA000EC303B20042212F0FFFA012008BDB84AA2
:102EB000B949C2F8E8303A20042212F0F5FA0120AC
:102EC00008BDB34AB549C2F8E4303920042212F0F3
:102ED000EBFA012008BDAE4AB149C2F8E030382013
:102EE000042212F0E1FA012008BDA94AAD49C2F856
:102EF000DC303720042212F0D7FA012008BDA44AA2
:102F0000A949C2F8D8303620042212F0CDFA0120A7
:102F100008BD9F4AA549C2F8D4303520042212F0DA
:102F2000C3FA012008BD9A4AA149C2F8D030342022
:102F3000042212F0B9FA012008BD954A9D49C2F851
:102F4000CC303320042212F0AFFA012008BD904AA1
:102F50009949C2F8C8303220042212F0A5FA0120A3
:102F600008BD8B4A9549C2F8C4303120042212F0C2
:102F70009BFA012008BD864A9149C2F8C030302032
:102F8000042212F091FA012008BD814A8D49C2F84D
:102F9000BC302F20042212F087FA012008BD7C4AA1
:102FA0008949C2F8B8302E20042212F07DFA01209F
:102FB00008BD774A8549C2F8B4302D20042212F0AA
:102FC00073FA012008BD724A8149C2F8B0302C2042
:102FD000042212F069FA012008BD6D4A7D49C2F849
:102FE000AC302B20042212F05FFA012008BD684AA1
:102FF0007949C2F8A8302A20042212F055FA01209B
:1030000008BD634A7549C2F8A4302920042212F091
:103010004BFA012008BD5E4A7149C2F8A030282051
:10302000042212F041FA012008BD594A6D49C2F844
:103030009C302720042212F037FA012008BD544AA0
:103040006949C2F898302620042212F02DFA012096
:1030500008BD4F4A6549C2F894302520042212F079
:1030600023FA012008BD4A4A6149C2F89030242061
:10307000042212F019FA012008BD454A5D49C2F840
:103080008C302320042212F00FFA012008BD404AA0
:103090005949C2F888302220042212F005FA012092
:1030A00008BD3B4A5549C2F884302120042212F061
:1030B000FBF9012008BD364A5149C2F88030202072
:1030C000042212F0F1F9012008BD314A4D49D367BD
:1030D0001F20042212F0E8F9012008BD2C4A4A49B9
:1030E00093671E20042212F0DFF9012008BD284A50
:1030F000464953671D20042212F0D6F9012008BD6D
:10310000234A434913671C20042212F0CDF9012001
:1031100008BD1F4A3F49D3661B20042212F0C4F9A0
:10312000012008BD1A4A3C4993661A20042212F075
:10313000BBF9012008BD164A3849536619200422FC
:1031400012F0B2F9012008BD114A35491366182062
:10315000042212F0A9F9012008BD0D4A3149D365B6
:103160001720042212F0A0F9012008BD084A2E49B8
:1031700093651620042212F097F9012008BD044A35
:103180002A4953651520042212F08EF9012008BD4A
:10319000D08D022021050000990A00000D0A0000D0
:1031A00059130000CD12000041120000B5110000BB
:1031B000291100009D10000011100000850F000073
:1031C000F90E00006D0E0000E10D0000550D00002D
:1031D000C90C00003D0C0000B10B0000250B0000E5
:1031E000D92400004D240000C12300003523000035
:1031F000A92200001D2200009121000005210000ED
:1032000079200000ED1F0000611F0000D51E0000A6
:10321000491E0000BD1D0000311D0000A51C00005E
:10322000191C00008D1B0000011B0000751A000016
:103230005F4A604913651420042212F035F9012019
:1032400008BD5B4A5C49D3641320042212F02CF9B8
:10325000012008BD564A594993641220042212F0F5
:1032600023F9012008BD524A554953641120042214
:1032700012F01AF9012008BD4D4A5249136410207A
:10328000042212F011F9012008BD494A4E49D363C6
:103290000F20042212F008F9012008BD444A4B49CE
:1032A00093630E20042212F0FFF8012008BD404A6B
:1032B000474953630D20042212F0F6F8012008BD9F
:1032C0003B4A444913630C20042212F0EDF801201C
:1032D00008BD374A4049D3620B20042212F0E4F8BB
:1032E000012008BD324A3D4993620A20042212F0AF
:1032F000DBF8012008BD2E4A394953620920042217
:1033000012F0D2F8012008BD294A3649136208207C
:10331000042212F0C9F8012008BD254A3249D361C0
:103320000720042212F0C0F8012008BD204A2F49CE
:1033300093610620042212F0B7F8012008BD1C4A50
:103340002B4953610520042212F0AEF8012008BD7C
:10335000174A284913610422104612F0A5F80120EB
:1033600008BD134A2449D3600320042212F09CF8BC
:10337000012008BD0E4A214993600220042212F068
:1033800093F8012008BD0A4A1D4953600120042218
:1033900012F08AF8012008BD054A1A49136000207E
:1033A000042212F081F8012008BD002008BD00BFF2
:1033B000D08D0220E91900005D190000D11800002D
:1033C00045180000B91700002D170000A1160000D5
:1033D0001516000089150000FD140000711400008E
:1033E000E513000081090000F508000069080000ED
:1033F000DD07000051070000C50600003906000087
:10340000AD05000095040000F8B5044615460E46CB
:103410000846022112F0F0F82846022112F0ECF8DA
:10342000164A174B52F83610012001F50077276035
:10343000207252F83520607202F500770020676034
:10344000E060013BFDD191F8003292F8002203F0D8
:103450000103D20744BF43F00203DBB2A37221464B
:103460003046FFF7D7FC214620742846FFF7D2FCF0
:10347000237C184420742046F8BD00BF8C4C030008
:10348000C0D40100F0B5344834490678344CDFF834
:1034900000E1344D344A354F354B03C920609EE876
:1034A0000300A06095E80300E06007CA04F114057A
:1034B00003C597E8030025F8022B120C8BB02A7085
:1034C0001021F8220A2E93F9003060624FF0D405E3
:1034D00062602161274AA5624FF02801684608BF53
:1034E000002617F0FFFA6946054604F12C0017F094
:1034F000D5FB3346204A2821684617F0F3FA2C35CD
:1035000006466946601917F0C9FB1C4B1B78354409
:10351000CBB11B4B1B4A1B782821684617F0E2FAF7
:1035200069460646601917F0B9FB174B174A1B7816
:103530002821684617F0D6FA3544694606466019D0
:1035400017F0ACFB35442023ADF80030BDF8003057
:10355000034863530BB0F0BD553E00202CE801003A
:10356000E88902203CE8010044E8010050E801003D
:10357000DD89022058E8010064E8010064E00120D0
:103580008D3E002074E80100B83E002084E8010070
:1035900034E801003C4B93E80300F0B53B4D3C4E52
:1035A00028600FCE8BB06C460FC4D6F800E0C4F88C
:1035B00000E06E460FCE374F05F108060FC60FCF5D
:1035C000C6F800E04FF4FC7C3F68C5F804C06E46C6
:1035D0000FC66946277005F11B0017F05FFB2E4BE5
:1035E0002E4A6846282117F07DFA6946044605F1FF
:1035F0002B0017F053FB2A4B2A4A93F900306846F8
:10360000282117F06FFA2B3406466946281917F05F
:1036100045FB254B254A1B780A2B08BF002368462B
:10362000282117F05FFA344469460646281917F036
:1036300035FB1F4A1F4B11681F4A03EB01136846F5
:103640009B68282117F04EFA34440346694628192E
:103650001C4417F023FB194B194A6846282117F020
:1036600041FA69460646281917F018FB154B164A09
:103670006846282117F036FA30196946284417F0B1
:103680000DFB28460BB0F0BD94E8010014EE0120BC
:103690009CE80100B0E80100C4E80100D8E801009E
:1036A000DD890220F0E80100553E002000E901001C
:1036B000703E0020E4F5010014E9010014DC012053
:1036C00028E9010088DB012044E90100164A174976
:1036D000174BF0B5D2F800E0164F174E174C184DA7
:1036E000024603C9186097E80300986096E8030053
:1036F00004EB0E14D86095E80300A4689C612C3A92
:1037000022F001021025012102F54977640002260A
:1037100058629A625F60DC611E841D615D849982DB
:10372000D9821846F0BD00BF703E002058E9010064
:1037300028E7012060E9010068E90100E4F50100E3
:1037400070E9010008B50549012200200BF00CFECC
:10375000FE210348BDE8084006F050B878E90100B2
:10376000FC8A022038B507210D480E4D0E4C12F090
:10377000B9FF07210D4812F0B5FF0D4811F050F9BF
:1037800004210C4812F0AEFF294601220A480BF032
:10379000EBFD207028460CF0BDF9207038BD00BF4D
:1037A0007CE9010078E9010009DC012084E90100DD
:1037B000004100208CE90100C4EB0120F0B5804CF1
:1037C000804A814997B000250EA80123256006F0A4
:1037D000CBF816AA7D48109B12F8145D9DF83C109A
:1037E00083600573017100F10D031A3012F8011F97
:1037F00003F8011B83427549F8D1159BCB610EA8D4
:1038000005F0D0FF0D2172486D4E724D12F06AFF27
:10381000714811F005F90AE00EA805F0C7FF00286D
:1038200037D00EA805F0D4FF0EA805F0BBFF0EA8F8
:103830000122664906F00CF90EA805F0D7FF002812
:1038400062D021685E4FB1F5FA7F80F2A58085FBDA
:103850000123CA17C2EB2312322303FB1213002BDE
:10386000DAD101215D4812F03DFF0C215C4812F0D5
:1038700039FF0121594812F035FF3168564811F0DF
:103880001FF9554811F0CCF80EA805F08FFF00285D
:10389000C7D10EA805F088FF014602A811F058F91B
:1038A000504906A811F054F906A902A811F07EF9B2
:1038B000002817DB06A811F00BF923684A4A03EB2E
:1038C000430703EB87030EA8D71805F06DFF0146E9
:1038D000384617F0E3F923680133236002A811F09A
:1038E000F7F89EE741490AA811F032F90AA902A89F
:1038F00011F05CF907460AA811F0EAF806A811F0E1
:10390000E7F8002FEADBD8E70121344812F0EAFE9D
:103910001E21374812F0E6FE0121304812F0E2FE87
:1039200021682D4811F0CCF82B4811F079F80EA839
:1039300005F038FF0121294812F0D4FE0D212D4851
:1039400012F0D0FE0121254812F0CCFE2168224859
:1039500011F0B6F8204811F063F8274B1B8833B1FB
:1039600000930EA80023254A1E2117F0BBF8012161
:103970001A4812F0B7FE1021214812F0B3FE0121BF
:10398000164812F0AFFE2168134811F099F812485A
:1039900011F046F817B0F0BD0121104812F0A2FE58
:1039A0001721184812F09EFE01210C4812F09AFED1
:1039B0003968094811F084F8074811F031F8B6E782
:1039C000DCD9012094E90100FC8A022088D9012079
:1039D00098E901001F85EB5100410020C0EA010079
:1039E000E0E90100F0E9010048700220F8E9010077
:1039F000A8E9010000EA0100CADD012010EA010087
:103A00002CEA0100C8E901002DE9F843064609F057
:103A100045F901282CDDDFF86490DFF85880002597
:103A2000D8F80000134F05EB4004304609F068F960
:103A300009EB042401464FF48072204611F08CFB00
:103A40000135304609F07AF9022DE9D13B6801339E
:103A5000BF2B02D83B60BDE8F8830022064B3A60DA
:103A6000064907484FF4C0320BF024FE054B18708E
:103A7000BDE8F88340EB0120AC890220104D002006
:103A800098E4012009DC01202DE9F0410721ADF582
:103A90004C7D04463F48404D12F024FE10213F4823
:103AA00012F020FE3E4810F0BBFF04213D4812F00A
:103AB00019FE3D4A002384F8F63013700CE009F03B
:103AC0001FF93A4B01464FF4807239480BF0F2FD72
:103AD0002870204609F032F9204609F0DFF8002866
:103AE0002046ECDC334B1B78012B07D030480BF021
:103AF000FFFF28700DF54C7DBDE8F0812C4C0022B5
:103B0000002320460CF01AF8D4F810804046FFF746
:103B1000DDFD01AF044600F1200E20686168A26857
:103B2000E3683E460FC6103474453746F5D1206829
:103B30006168A268002307C700221D480BF0FEFF42
:103B400001A91A4B1A482C220BF0B4FD424600235F
:103B500017480BF0F3FFFFF795FC4FF48072014616
:103B60000CA811F0F9FA0CA9104B11484FF480720F
:103B70000BF0A0FDFFF70EFD4FF4007201464CA8BC
:103B800011F0EAFA4CA9094B09484FF400720BF006
:103B900091FDABE77CE9010009DC012040EA01006E
:103BA000004100208CE90100DC890220AC89022060
:103BB00098E40120F43E0020F0B5072191B043487D
:103BC000434D12F08FFD0821424812F08BFD424810
:103BD00010F026FF0421414812F084FD2B68002BD1
:103BE00060D13F4C3F4A138801339BB2B3F5FA7F53
:103BF00001D94FF4FA7313803B4B1B78002B4AD04A
:103C00003A4B3B491A683B4816F0BAFF374B344EE3
:103C1000196807A810F0A0FB079A0C9B09980A994D
:103C2000089F04920B9A029003F2B27301910092E2
:103C30001421314A0397314816F054FF00212D48D2
:103C40000CF0CCF80A2220702A492D480BF0B6FB64
:103C5000022820702ED001212A4812F043FD0621AF
:103C6000294812F03FFD0121264812F03BFD214872
:103C700017F086F801461F4812F034FD164810F080
:103C8000CFFE0A221B491E480BF098FB012320702F
:103C90002B6011B0F0BD154B1C491A68154816F081
:103CA0006FFFB3E716480E4C0BF022FF0023207085
:103CB0002B6097E712480BF01BFF09283070CAD120
:103CC0000C480CF0B1F83070C5E700BF7CE901008A
:103CD0001CF0012054EA0100004100208CE90100A1
:103CE00009DC0120CADD0120F43E002000D00340A1
:103CF00068EA010014DC012070EA010088DB012081
:103D000098E40120C0EA010090EA010060EA0100A5
:103D10002DE9F843DFF89C82944A98F8003000259A
:103D20001570002B00F015815E1EF6B2904A914B83
:103D300092F800E0DFF880C2013606EB460603EB9E
:103D4000860603F10804BEF1000F00F0E880197A3E
:103D500005EB4507A4F108020CEB870705F1010903
:103D600021B107CA87E807005FFA89F50C33B3422F
:103D700004F10C04E7D12C460D217F4888F800504F
:103D800012F0B0FC214600230A227C4810F058FEB5
:103D90007A4810F045FEDFF824E29EF8006096B104
:103DA000751EEDB2013505EB4505DFF8C8C1744F4E
:103DB000AD0000230CEB030207CAFC180C33AB4226
:103DC00084E80700F6D10E216E488EF8006012F0EC
:103DD00089FC314600230A2268486B4D10F030FE02
:103DE000664810F01DFE0A240823072201216748B7
:103DF0006A70AB70EB702C7012F074FC092164488F
:103E000012F070FC0121614812F06CFC2246002384
:103E100029785A4810F014FE584810F001FE01218C
:103E20005A4812F05FFC09215A4812F05BFC01214C
:103E3000564812F057FC2246002369784F4810F08C
:103E4000FFFD4E4810F0ECFD0121504812F04AFCF5
:103E50000921514812F046FC01214C4812F042FC65
:103E600022460023A978454810F0EAFD434810F0A7
:103E7000D7FD0121454812F035FC0921474812F0D1
:103E800031FC0121414812F02DFC22460023E97843
:103E90003A4810F0D5FD394810F0C2FD404B1C786F
:103EA0004CB3284600210378F3B1013BDBB2013368
:103EB0003C4A3D4F3D4E3E4D03EB430302EB830E28
:103EC0005FFA81FC0023C1B995F80880B8F1000FB2
:103ED00001D00133DBB20C32964507F10C0706F135
:103EE0000C0605F10C05EED101315FFA81FC644549
:103EF00000F8013BD7D8BDE8F883BCF1010F05D12C
:103F000097F80880B8F1000FE5D0E2E7BCF1020FA6
:103F100022D196F80880B8F1000FDCD0D9E714F868
:103F2000082CA2F1640101297FF620AF672A3FF433
:103F30001DAF197A05EB4507A4F108020CEB8707C2
:103F400000293FF413AF07CA013587E80700EDB237
:103F50000CE71C461D460FE7BCF1030FBBD192F8DE
:103F60000880B8F1000FB6D0B3E700BF44DE0120EF
:103F700000DD0120E016030098EA01000041002066
:103F800084D80120A8EA010044DA0120C0EA010037
:103F9000B8EA0100C4EA0100D0EA0100DCEA01004D
:103FA0007C3E002008160300D4F6010040E7010023
:103FB00068160300F53E0020F8D80120283E0020B6
:103FC000F0B5054B1B688DB004460D4603A8194695
:103FD00010F0C2F902E000BF00D00340FF2C00F255
:103FE0001E81DFE814F0A901A701A5011C019B01B6
:103FF000990185017D011C011C018E011F016601D3
:104000005A011C011C011C011C011C011C011C018A
:104010001C011C011C011C011C011C011C011C01B8
:104020001C011C011C011C011C011C011C011C01A8
:104030001C011C011C011C011C011C011C011C0198
:104040001C011C011C011C011C011C011C011C0188
:104050001C011C011C011C011C011C011C011C0178
:104060001C011C011C011C011C011C011C011C0168
:104070001C011C011C011C011C011C011C011C0158
:104080001C011C011C011C011C011C011C011C0148
:104090001C011C011C011C011C011C011C011C0138
:1040A0001C011C011C011C011C011C011C015201F2
:1040B000500148013D011C0135011C011C011C017E
:1040C0001C011C011C011C011C011C011C011C0108
:1040D0001C011C011C011C011C011C011C011C01F8
:1040E0001C011C011C011C011C011C011C011C01E8
:1040F0001C011C011C011C011C011C011C011C01D8
:104100001C011C011C011C011C011C011C011C01C7
:104110001C011F012B01F701F501DC01DA011C0173
:104120001C011C011C011C011C011C011C011C01A7
:104130001C011C011C011C011C011C011C011C0197
:104140001C011C011C011C011C011C011C011C0187
:104150001C011C011C011C011C011C011C011C0177
:104160001C011C011C011C011C011C011C011C0167
:104170001C011C011C011C01E4010001CF011C01F8
:104180001C011C011C011C011C01C701BF01B7015E
:104190001C01AC011C011C011C011C011C011C01A7
:1041A0001C011C011C011C011C011C011C011C0127
:1041B0001C011C011C011C011C011C011C011C0117
:1041C0001C011C011C011C011C011C011C011C0107
:1041D0001C011C011C011C011C011C011C011C01F7
:1041E0001C011C017501984B984C196803A810F02C
:1041F000B3F894F90030069F079E089D002B00F04D
:104200000981012B00F01481022B08D18DE8C00038
:1042100005F2B2738E4A8F480C2116F063FC8D486C
:104220000DB0F0BD8C4A11688C4B8D4A894803EB68
:1042300001130C215B6816F055FCF0E7894B1B78E5
:10424000894A844803EB83030C2116F04BFCE6E714
:10425000864B874A1B787F480C2116F043FCDEE72B
:10426000844B1B78642B00F0B7807F4A79480C217F
:1042700016F038FCD3E7804B7B4A1B7875480C213D
:1042800016F030FCCBE77D4BE3E77D4B7D4A1B7896
:1042900070480C2116F026FCC1E77B4B1B78002BE5
:1042A00040F09E80794A6B4B92E8030018601971C8
:1042B000B5E7774B1B68062B00F399806749684A7E
:1042C000644801EB03130C215B6816F00BFCA6E7B6
:1042D000704B604853F825200C2116F003FC9EE734
:1042E0006D4B614A1B885B480C2116F0FBFB96E77F
:1042F0006A4B5D4A93F9003056480C2116F0F2FBE8
:104300008DE7674A674B1168524853F82130544A89
:104310000C2116F0E7FB82E7634BEAE7634B1B785F
:104320000A2B59D9574A4B480C2116F0DBFB76E78C
:104330005F4A78E75F4AE5E75F4A604BE3E7604B37
:104340001B78002B48D15F4B424A1B6813801B0C23
:10435000937064E75C4B444A9B683E480C2116F01E
:10436000C1FB5CE7584B404A5B683A480C2116F0A9
:10437000B9FB54E7544B3C4A1B6836480C2116F0F5
:10438000B1FB4CE7514B93F90030012B4ED0504A12
:10439000304B07CA03C31A7041E74E4B6CE74E4BD4
:1043A0004E4A1B782B480C2116F09CFB37E7274C14
:1043B000049E94F90030059D13B3002B7FF72FAFB7
:1043C00000962B46464A23480C2116F08BFB26E725
:1043D000444B5BE7444B32E71E4B444A1A601EE7EE
:1043E000434A1C4B92E803001860197117E7414AD1
:1043F000184B92E803000A0C186099809A710EE736
:104400002B4600963C4A13480C2116F06BFB94F99E
:104410000030D2E705F2B2738DE8C000374A0D488C
:104420000C2116F05FFB94F90030EAE6344ADFE72E
:1044300005F2B2738DE8C000324A06480C2116F02E
:1044400051FB94F90030DFE600D00340D0DD0120BD
:1044500030EB010094EB0120703E0020E4F50100F8
:1044600004EB01006D3E0020F4EA0100D43E002080
:10447000FCEA0100FC3E0020143F00201C3F00200D
:10448000763E0020E8EA0100F43E0020F0E9010059
:10449000783E0020583E0020F63E0020743E00206A
:1044A000E83E0020383E0020153F0020553E002009
:1044B000BC3E0020F83E0020103F00202C3F002092
:1044C0007CE001201CEE01003C700220573E0020E1
:1044D00050EB01008C3E0020B83E002040EB010074
:1044E00034EB01008D3E0020753E00204F46460013
:1044F000F8E9010008EB010024EB010010EB0100DA
:1045000048EB010020EB010070B5044682B00D4677
:104510004F480D2112F0E6F8214600230A224D48AB
:1045200010F08EFA4B4810F07BFA74B94A4B1978A8
:10453000294449B200292DDB5A29A8BF5A2108462F
:104540001970FEF785FB02B070BD032C11D1434BEF
:104550001B78022BF7D0424B196829440E29A8BFBB
:104560000E2121EAE17108461960FEF789FA02B0CE
:1045700070BD012C12D13B4B1978294449B2002956
:104580000ADB3F29A8BF3F2108461970FEF788FBC8
:1045900002B070BD2146D2E70021F5E7022C40D1E0
:1045A000314B1B68002BCED1304E314C3368009319
:1045B000009B22689B1AB3F5FA7F2CD2F92B43D8C3
:1045C000642B41F2883134BF0B464FF4FA63294A19
:1045D00029481168006803FB051141F657339942D9
:1045E0001CDD264BC543ED0F83FB0030C5EBE0100F
:1045F0004FF47A7303FB00F5A942A8BF2946204B6C
:10460000116008461960FEF769F833680193019B51
:10461000236002B070BD4FF4FA73D8E741F6583109
:10462000EDE7052C8FD1174B197801EB4501C9B285
:10463000092907D93229A8BF32211970FEF734F9A8
:1046400002B070BD0A21F8E74FF47A73BFE700BFEC
:104650005CEB010000410020F1D9012090E4012031
:10466000BC3E0020DD890220843E002024940220EC
:1046700058EB0120243E0020F0DD0120D34D6210D4
:10468000D8DD0120553E002038B505460C46AA4825
:10469000102112F027F8294600230A22A74810F01B
:1046A000CFF9A64810F0BCF9692D3CD0072D27D0D2
:1046B000672D5BD1A24D2B781C44642C51DC312C2E
:1046C0006FDDE4B201219F482C7012F00BF8092134
:1046D0009D4812F007F801219A4812F003F80023D0
:1046E0000A222978954810F0ABF9944810F098F90F
:1046F0002B78642B0CBF01200320FDF7BBFF38BDD6
:10470000924A93491388A1FB0313C3F3C7032344BD
:10471000C82B24DC002B48DB03EB830303EB830370
:104720009BB213800DE08B490B782344102B14DCD3
:10473000032B38DDDBB2884A0B70002082F828306A
:104740005062982D34D1854A13781C443C2C0ADCE5
:10475000002C24DBE4B2147038BD0423EBE7002303
:10476000DFE73224AEE70024147038BD662D54D143
:104770007B4A1178052313FB0414C82C03DC0E2C90
:10478000E8DCC824E7E70F24147038BD972DD8D192
:10479000744A13781C443C2C21DC002CDADC3C24C9
:1047A000D9E764248EE71023C5E741F28833B8E7E0
:1047B0009B2D17D16C4A13781C441E2C0FDC002C47
:1047C000C8DC1E24147038BD0B2D0DD00D2DDDD18D
:1047D000664A13781C44012CC5DC002CBADA01248B
:1047E000147038BD962D0CD1614A13681C440E2CF0
:1047F00004DC042CD8BF0E24146038BD05241460DA
:1048000038BD9A2D40F0EE805A4A13781C44142C7F
:10481000E5DC002C9EDC14249DE7642D1CD1564A57
:1048200013781C44232C42DC0E2C48DD07EE904A02
:104830009FED527AF8EEE77AE4B227EE877A504B92
:104840005049D3ED006A1470C7EE267AFDEEE77A80
:1048500017EE903A0B7038BD652D07D14A4A137890
:104860001C441E2C27DC042CABDD73E7022D0CD17D
:10487000464A13681C440E2CA8BF0E2424EAE47494
:1048800020461460FEF7FCF838BD052D1BD1404AC8
:1048900013781C4464B2002C0FDB3F2CA8BF3F24CC
:1048A0003C4B147020461C70FEF7FAF938BD9FEDA2
:1048B0003A7A0F24C3E705244DE70024F0E79FED83
:1048C000377A2324BBE7062D11D1354A13781C44CF
:1048D00064B2002C09DB5A2CA8BF5A24314B147047
:1048E00020461C70FEF7B4F938BD0024F6E7042D0D
:1048F00012D12D4A137803EB4404E4B2092C06D9F3
:10490000322CA8BF32241470FDF7CEFF38BD0A2424
:104910001470FDF7C9FF38BD002D49D1234A136833
:104920001C44022C04DC002CB8BF0224146038BDE7
:104930002C46146038BD00BF6CEB01000041002024
:10494000FC3E0020C0EA010080EB0100F63E0020A2
:104950001F85EB51D43E0020B4DB0120753E0020C2
:10496000143F00206D3E00208C3E0020F43E0020CD
:10497000703E0020B83E0020763E002000007A44C1
:10498000E03E002018F001201C3F0020BC3E00202B
:10499000153F0020DD89022000606A4600B8084704
:1049A000743E0020F1D90120553E0020103F002028
:1049B000012D0CD1264A13681C44042C04DC002C65
:1049C000B8BF0424146038BD0024146038BD0A2D1B
:1049D00020D1204A13681C44012CF5DC002CB8BF00
:1049E000012409E7992D0DD11B4A1178052313FBEA
:1049F0000414502C04DC092C3FF7ACAE5024AAE67A
:104A00000A24A8E6D62D15D1144A137883F00103A1
:104A1000137038BD0C2D7FF4D7AE114A1368E4181B
:104A200005D4062C7FF7E8AE0A23136038BD0023B7
:104A3000136038BDCB2D0AD10A4A0B4892F90030D9
:104A400003700A495B425BB213700B7038BD38BD0E
:104A5000F83E0020E83E00208D3E00207CE0012052
:104A6000783E0020573E002064DC0120F0D9012070
:104A7000F8B52B4C237C012B4CD972B6E36862B697
:104A8000284D294E2A68294F96F9001093FBF1F31F
:104A900093423B601DDD264A264B92F900201A60A6
:104AA000254C237C012B1ED972B6E36862B6234ADB
:104AB000234811683F6896F9004093FBF4F38B425A
:104AC0002F6003601FDC17DB1E49136000200860A5
:104AD000F8BD0DDA1C4A174B174C92F900201A60EA
:104AE000237C012BE0D872B62046FEF751F9DCE7B3
:104AF000104B00221A60D3E71348124990F90000C6
:104B000008601360F8BD0A480E4990F9000008607B
:104B10001360F8BD72B62046FEF73AF9AEE700BF63
:104B2000DCDD0120D8890220343E002014F0012071
:104B3000F0D90120F8DC01203CE001200CDC012050
:104B400024F00120CCDD012064DC012008B50748F9
:104B500008F0FAF9064808F0F7F9064808F0F4F901
:104B60000548BDE8084008F0EFB900BFE88A022018
:104B70002CDA0120F4D9012004DA012008B5022141
:104B8000242010F039FD02211D2010F035FD0221F6
:104B9000252010F031FD2620022110F02DFD64208B
:104BA000BDE8084010F02EBDF0B583B006460FF00A
:104BB00053FB07460FF0A6FA054638460FF094FA65
:104BC0001A4B93F90030CBB944B22644172E20DD9E
:104BD0001C46EDB2694638460FF0A2F968468DF8DA
:104BE00001508DF802400FF0B9FA10F0DFFC684672
:104BF0000FF0B4FA0FF080FB03B0F0BD012B0ED123
:104C00006AB295193B2D08DC002D0DDBEDB2C4B264
:104C1000E0E7002E06DBF4B2DBE70025F7E7EDB2B4
:104C2000C4B2D7E71724D4E73B25F0E7D0DD012055
:104C300070B582B006460FF00FFB05460FF07EFA06
:104C4000044628460FF06CFA264B93F90030DBB986
:104C500022B2324440F2E9739A4221DD3124C6B2D5
:104C6000694628460FF05CF968468DF805608DF8B6
:104C700006400FF073FA10F099FC68460FF06EFAD8
:104C80000FF03AFB02B070BD012B0FD141B231449D
:104C90000C291DDC002923DDCEB24E34E4B2DFE75F
:104CA00040F2E2739A4215DC3724D8E7022B14D184
:104CB0000FF0D2FA0C4D05FB060528460FF03EFA20
:104CC000044628460FF02CFA4E34C6B2E4B2C7E7C9
:104CD0001E46E2E74E32D4B2C1E74E34E4B2BEE73C
:104CE0000C26DAE7D0DD0120805101002DE9F04FDC
:104CF000A74BDFF8048393F800C098F8009083B0C6
:104D0000BCF1000F03D0A34B1B78002B58D04D46AD
:104D1000A14AA24B12881B7806EE902AF8EE666A2A
:104D20003BB19F4B1B7807EE903AF8EEE77A66EEC0
:104D3000A76A9C49DFF8BCA20B68DFF8C0E29A487A
:104D40009FED9A7A0022013316460B60CAF80020C4
:104D5000174671460422012430F8023F013303EB69
:104D600083035B0007EE903AF8EEE77AAA42C1EDC2
:104D7000047A04F1010301F108010BDDF4EEE67A97
:104D8000F1EE10FA37EE277ADCB203DDF0EE676A57
:104D9000174601260232F02ADED1002E40F0D880DC
:104DA000834B1B7843BB834A1360834B00221A70EA
:104DB000BCF1000F01D088F8009003B0BDE8F08F7F
:104DC0007E4A7F4B12781B68DFED7E6A07EE102A61
:104DD000F8EEC77A5B0A27EEA67A07EE903AF8EE6D
:104DE000E77AC7EE276AFDEEE67ACDED017A9DF807
:104DF000045088F800508BE700230193724B187819
:104E0000752811DC714A0EEBC003F6EE006A93EDD3
:104E1000007AD3ED027A77EE277A083367EEA67A26
:104E200043ED017A9A42F2D1DFF8D4B19BF80060E9
:104E3000B04247DA664FDFED674ADFED676A9FED04
:104E4000675A0EEB80000EEB86060024F0EE085A3F
:104E5000B2EE046AB0EC017A6149C7EE257AF4EE4D
:104E6000E47AF1EE10FA07DCFCEEE77A17EE903AFE
:104E70001B0203F4784319B2C7EE067A4FF4FC63C1
:104E8000F4EEE67AF1EE10FA06DCFCEEE77A17EEC5
:104E9000903ADB0003F4FC63C7EE057A1F22F4EEC0
:104EA000E67AF1EE10FA05DCFCEEE77A17EE902ACE
:104EB000C2F3C4020B431343864227F8143004F1B3
:104EC0000104C7D1019B3B4E00219D423160BFF4DC
:104ED0006CAF444B384A1B68DFED346A424F012007
:104EE000013B83421070C7ED006A3FF661AF9BF84B
:104EF0000000A84224DD3D4AAB001A449E440C4603
:104F00008B462B46D2ED007ABEEC017A77EE277AFB
:104F1000F4EEE67AF1EE10FAE2EC017A04DD01211A
:104F2000F0EE676A8B461C4601339842EAD1BBF12A
:104F3000000F0AD121B1A542346038BFCAF8004041
:104F40002B4A13880133138032E7C7ED006AF1E77B
:104F5000CAF80070274A0197002F3FF421AF07EEEF
:104F6000904A37EE667AF8EEE77AB0EE006AC7EE5E
:104F7000275AC6EEA57AF4EEC67AF1EE10FA02D5FB
:104F8000002313600CE70A4B01221A7036E700BFBA
:104F9000A0EB012060E70120F63E002064E0012044
:104FA000B83E0020F88A022066CD012000000000F3
:104FB000C089022010E7012019F00120763E002070
:104FC000A4EB012000007A446C3E002040E4012064
:104FD0005CDE012000007A4300007F430000204295
:104FE00000F8FFFF2C3E0020E48902207CE701202E
:104FF00020F0012064E7012018F0012090E001205A
:10500000DE3E002043090DD14000C3B21F20002224
:10501000022902D052105B1040105B0103EBC22347
:1050200018447047012B05D1C04300F01F003F23F7
:105030000022EDE7022B04D100F01F023F230020E5
:10504000E6E7032B08D100F01F035B00C3F13F0329
:10505000DBB200201F22DBE700200346D7E700BFBA
:105060002DE9F04F83B0BDF930400192002C22DDD4
:105070001FFA80FB0C440BEB03070E4699460FFA10
:1050800084FABFB24FF00008B9F1000F0EDD019BAA
:105090005C4603EB480521B2013435F8023B074872
:1050A0003246A4B20CF048FDA742F4D1013636B224
:1050B0005645C844E8D103B0BDE8F08F70EB01203D
:1050C00010B592B0014601A80FF042FD0023322234
:1050D00001A805A90FF050FD05A905480EF0A4FD93
:1050E000044601A80FF0F4FCA0B212B010BD00BF3E
:1050F00070EB012030B50D4B0D4D1C782B78013C29
:105100001844844283B00FDB0028B4BFE4B2C4B2B9
:105110000021EB2300930191F0232D2205482C70F0
:105120000CF0C8FF03B030BD0024F1E77C3E002046
:1051300065E0012070EB012030B5234B1B78022B7A
:1051400085B03BD0214B1B68032B0FD0204A214B4D
:1051500092ED007AD3ED006AB8EEC77AC7EE267AF0
:10516000FDEEE77A17EE903AEB2B11DD1A4B1B4858
:10517000197801913E2289B24FF6FF753724CB1C76
:1051800003950339029400920EF046F805B030BD45
:10519000134A1268012AE9D8124A10481288039269
:1051A00099B2CD1C1BB245243E220339019309B2AA
:1051B0002BB2029400920EF02FF8D7E70A4B1B781F
:1051C000002BBFD105B030BD90E401202C3E002063
:1051D000243E0020E03E002018F0012070EB01206A
:1051E000843E0020E43E002060E70120E9B12DE983
:1051F000F041DFF83C8082B00D46174606B200242D
:105200000134A5420ED0E307FAD5B8F80030009378
:105210003A1B12B20A233146044801340CF0D0FD87
:10522000A542F0D102B0BDE8F081704770EB0120DB
:10523000D63E00202DE9F04FFBB00DF10A090DF12B
:10524000FA0A00202F4E304F4D465446034636F89A
:10525000021F01EB830287FB02E3D217C2EB630359
:10526000D129A8BFD1210230D12B1A46A8BFD12203
:10527000EA2824F8021F25F8022F9BB2E7D10DF18E
:10528000F40B042503E00235CB45ADB237D03AF834
:10529000024F1E48E4B2A4F11E062FB24FF620536F
:1052A00026EAE676009339463346462239F8028FDD
:1052B0000CF076FD4FF6E07306F146023946009396
:1052C00012481E230CF06CFD002004F146020090F1
:1052D000C4F1D20339460D480CF062FD5FFA88F242
:1052E000042AD0D94FF6FF73009341323946052383
:1052F00006480CF055FD0235CB45ADB2C7D17BB0A9
:10530000BDE8F08F66CD01206766666670EB012010
:1053100010B50F4C002120460DF098F820460021D2
:105320000DF0BCFA20464FF6FF710EF0FFFC204650
:1053300000210DF07DF80022204611460EF0DAFC27
:10534000204628224621BDE810400DF0B9B900BF23
:1053500070EB01202DE9F0418EB00DF10306002520
:105360000746B0462C4628460FF0A6FE08F8010F67
:105370004440082314F0010F4FEA540203F1FF33B5
:1053800014BF82F08C04C4F3470413F0FF03F1D17F
:105390000135332DE7D1F4B99DF83230372B03D0E6
:1053A00020460EB0BDE8F0819DF83130312BF7D1A9
:1053B0009DF83030302BF3D19DF82F30302BEFD1CA
:1053C000013F0DF1370316F8012F07F8012F9E4218
:1053D000F9D10120E5E718460EB0BDE8F08100BF25
:1053E000F8B50025471E2C4617F8016F08237440B6
:1053F00014F0010F4FEA540203F1FF3314BF82F09F
:105400008C04C4F3470413F0FF03F1D128460FF0D6
:1054100053FE864209D0314628460FF067FE2846E3
:105420000FF04AFE3B78834204D10135322DDBD1A7
:10543000002600E00126214628460FF057FE2846A8
:105440000FF03AFE84420CBF30460120F8BD00BF89
:10545000F0B58FB001A8FFF77DFF0446A0B17649F3
:105460009DF82720754BBDF806709DF82F609DF8BC
:1054700030509DF831000F80012A9DF832101E70C7
:105480005D709870D97002D020460FB0F0BD6C4EA0
:105490006C489DF80C7037606B4D9DF80D60066090
:1054A0006A496B4B9DF80E606A482E60DFF814E283
:1054B0009DF80A600E609DF809501A70664F9DF8BD
:1054C0000830664E6649674A0360CEF800309DF8A2
:1054D0002D009DF82E303D60356008701370002D52
:1054E00000F09180022D00F0A180012D00F0958048
:1054F00000215D485D4F5E4D0CF09AFF31685A48BF
:105500005C4E0FF0DDFA9DF81F30DFF8BCE15A4821
:105510005A495B4A03EB830303EB8303AEF8003085
:105520009DF80B3033709DF81C609DF81D3006709F
:105530003B709DF81E609DF82100069B2E70087040
:105540001370504E504F514DFDF7AEF99DF90F308D
:105550004F485049504A0370337018469DF8203028
:10556000059E3B709DF910302E600B701370FDF797
:1055700097FB9DF82830DFF854E1484A484F9DF8E2
:105580002A009DF82B609DF82C50DFF844C1106074
:1055900059B25B428EF80030DFF838E1397056605E
:1055A000404F95609DF829208CF800108EF800205F
:1055B0003D499DF822203A703C4A9DF823700F70B7
:1055C0003B499DF82570177083193A4A9DF826705B
:1055D0000F70EB429DF8241011703FF455AF02217B
:1055E000FFF710FD344B022118803046FFF70AFD0B
:1055F000324B012118802846FFF704FD304B1880FC
:1056000020460FB0F0BD294617480DF047F929464E
:1056100015480CF01BFF356864E7002112480DF0B7
:105620003DF9002110480CF011FF61E700210E4800
:105630000CF00CFF356858E760DA012080DB0120B0
:10564000783E0020703E0020BC3E0020E83E002056
:10565000DD3E0020F83E0020103F00202C3E0020C0
:10566000563E00207CE0012070EB0120763E0020B9
:10567000143F0020F43E00201C3F0020FC3E002090
:10568000553E0020153F0020D43E0020243E00203F
:10569000DD890220743E0020F1D901203C700220F7
:1056A000F0D901206D3E0020753E00208D3E002087
:1056B000B83E00208C3E0020D63E0020E43E002074
:1056C000EC3E0020843E0020F63E002064DC0120F9
:1056D000573E0020343E00202DE9F0425048514909
:1056E00000680978504D514C514F2D682468514B3A
:1056F0003F681B88504E514ADFF894911288DFF8BA
:1057000094C1DFF894E190B0A6FB03638DF8140018
:105710008DF82F104A484B498DF8155000688DF8C8
:1057200016400978484D494C8DF810708DF81200DC
:105730008DF82510464F474847492D6824783F7813
:1057400000788DF811508DF813400968434D444C92
:105750008DF8247007918DF82600DB08414F4248F0
:1057600042492D7824788DF82730013240F2F23307
:105770008DF829508DF828403D4EADF80E203D4D56
:10578000ADF80C303F7899F80030007809783A4C41
:105790009CF8002008978DF818308DF81700374BCB
:1057A0008DF83010364F3748374936782D782478C1
:1057B0008DF82A20354A9EF800E03F788DF8316058
:1057C0008DF82B501E685D688DF82D4000789C6820
:1057D00009788DF82EE00023ADF83C308DF82C7060
:1057E0008DF832608DF833508DF834408DF83500E7
:1057F0008DF8361092E80300C0F30721C0F307428A
:10580000030E8DF8370003A88DF838108DF8392075
:105810008DF83A30FFF7E4FD10B0BDE8F08200BF2C
:10582000783E0020DD3E0020703E0020BC3E00207F
:10583000F83E0020F63E00201F85EB5160DA012083
:10584000E83E0020763E0020103F0020F43E00207D
:105850001C3F0020143F0020243E0020FC3E00207E
:10586000D43E0020553E0020153F0020573E00202A
:10587000343E0020753E00208D3E00203C7002200A
:105880008C3E0020563E00207CE001208CEB010085
:10589000743E00206D3E0020B83E0020F8B5674DF4
:1058A0002860674806F076FB664B1B78013B012BAE
:1058B0000BD9654E654C6648664A29680123002766
:1058C000376023600360136021B30121624810F048
:1058D00009FF1021614810F005FF01215E4810F01A
:1058E00001FF5F4B2A6853F82240204615F048FA22
:1058F0000146204610F0F6FE5A480FF091F82C6849
:105900005CB1012C28D0022C3FD0032C57D0042CA2
:1059100076D0F8BD02231360D7E7534A534B106883
:105920001860FCF7DBFE2046FCF7A4FE504BD3EDDD
:10593000007AF5EEC07AF1EE10FA70D4B7EE007A84
:10594000F4EEC77AF1EE10FA62DD4FF480332C6882
:10595000484A012C1362D6D10020FCF78BFE444B41
:10596000D3ED007AF5EEC07AF1EE10FA5CD4B7EE22
:10597000007AF4EEC77AF1EE10FA57DD4FF4803377
:105980002C683C4A022C1362BFD12D484FF4804151
:1059900006F0CEFA384B1B78642B0CBF0120032095
:1059A000FCF768FE3549264A2C68324B097882F8A4
:1059B0002910032C4FF000021A62DA61A7D1204EA1
:1059C0004FF48041304606F0C9FA0120FCF752FE40
:1059D0002B4B1B7886F828301BB3322B28BF322381
:1059E000012292FBF3F307EE903AF8EEE77A2C6887
:1059F000204BC6ED097A0022042C1A62DA6188D1A4
:105A00000220FCF737FE1B4B00221A62DA61F8BD58
:105A1000B0EE677ABEEEC87A17EE103A97E72346E3
:105A200095E7F7EE007AE2E70023A9E7B0EE677AA0
:105A3000BEEEC87A17EE103AA2E700BF843E0020FF
:105A4000B4DB012090E4012058E70120FCDC0120B8
:105A500040DE0120F03E0020C0EA010094EB01008E
:105A6000383E002000410020D8DD0120243E0020E7
:105A7000883E00205CDB0120FC3E00201C3F002013
:105A8000D43E00202DE9F0470D2198B006469D48F0
:105A90009D4C10F027FE9D480EF0C2FF9C4B9D4A86
:105AA000197811700A221A70FCF7FEFE9A4B1A68D8
:105AB0002368013A934200F3A78033EA230328BF07
:105AC000134603EB43029549236003EB8203194419
:105AD0000D229348934FDFF8A48215F0D7F90023E5
