:1000000000000320D10100007D44010035440100BF
:1000100035440100354401003544010035440100F8
:100020003544010035440100354401007D440100A0
:100030007D4401003544010071590100755A0100E9
:100040007D4401007D4401007D4401007D440100A8
:100050007D4401007D4401007D4401007D44010098
:100060007D4401007D4401007D4401007D44010088
:100070007D4401007D4401007D4401007D44010078
:100080007D4401007D4401007D4401007D44010068
:100090007D4401007D4401007D4401007D44010058
:1000A000F1730100FD7301007D4401007D440100F6
:1000B0007D4401007D4401007D440100BD5A0100E2
:1000C0007D440100E95B01007D440100155D0100F4
:1000D0007D4401000D5E01007D4401007D4401006E
:1000E0007D4401007D4401007D4401007D44010008
:1000F0007D4401007D4401007D4401007D440100F8
:100100007D4401007D4401007D4401007D440100E7
:100110007D440100094B01007D4401007D44010044
:100120007D4401007D4401007D4401007D440100C7
:100130007D4401007D4401007D4401007D440100B7
:100140005D3901007D440100055F01007D4401002F
:100150007D4401007D4401007D4401007D44010097
:100160007D4401007D440100097401007D440100CB
:100170007D4401007D4401007D4401007D44010077
:100180007D4401007D4401007D4401007D44010067
:100190007D4401007D440100FD5F01007D440100BC
:1001A0007D4401007D4401007D4401007D44010047
:1001B0007D4401007D4401007D4401007D44010037
:1001C0007D4401007D4401007D4401007D44010027
:1001D0005C4B4CF2205210B51A804DF628121A8052
:1001E00000BF00BF14F04EF9574B4FF030621A6059
:1001F000564A9A60564ADA60564B4FF470021A60BB
:10020000554B564A1A60564A136813F4807304D14A
:1002100054490B604FF4A8531360534B1A781107DD
:1002200003D51A7842F008021A70504B5049AA229E
:100230001A70504A504B8B4204D252F8040F43F8C4
:10024000040BF8E74D4B4E4900228B4202D243F893
:10025000042BFAE74B494C4A002352F8230041F89B
:1002600023000133742BF8D1484B494A802103F80D
:10027000011B9342FBD1474B424A1A60464B8A22EC
:100280001A70A3F5805324225A70A0221A709A790A
:100290009207FCD59A79D406FCD4404A937903F0AE
:1002A0000C03082BFAD13E4B60221A7002331A78E5
:1002B000802AFCD1394B01221A715D225A719A7938
:1002C0009006FCD59979354A4906FBD5354B364918
:1002D00019600021596020231370937903F00C03F7
:1002E0000C2BFAD1314B324A1A60324B324A1A6027
:1002F00000225A60072243F8042C304AC3F80C2D20
:1003000062B614F0A5FA174B1B68DA0705D52C481E
:1003100014F020FA2B4B2C4A1A602C4B1B785B06EE
:1003200009D5284C284B22689A4204D1244814F05D
:1003300011FA0023236019F0CFF814F0A9F813F094
:10034000D7FFFEE70E20054030800440823F0400C6
:100350000100002B88ED00E0002008E0030000858C
:1003600010D0034014D0034002D0074000E0074003
:10037000A84C002088140300303D0020B04C002021
:1003800030B20220003800200000000000E400E04D
:1003900064E400E008ED00E0005006400040064044
:1003A00001E007404480044000000602048004404D
:1003B000C010070014E000E01FBF02000000202072
:1003C00010DD375F1CE00340A5C3945A00F00740DE
:1003D000FFFFFFFFFFFFFFFFFFFFFFFFFFFFFFFF2D
:1003E000FFFFFFFFFFFFFFFFFFFFFFFFFFFFFFFF1D
:1003F000FFFFFFFFFFFFFFFFFFFFFFFFFFFFFFFF0D
:10040000FFFFFFFFFFFFFFFFFFFFFFFFDEF9FFFF23
:1004100010B5054C237833B9044B13B10448AFF33E
:1004200000800123237010BDB04C002000000000AC
:1004300084140300084B10B51BB108490848AFF3FA
:1004400000800848036803B910BD074B002BFBD0A0
:10045000BDE81040184700BF00000000B44C002069
:1004600084140300A84C00200000000010B5044BC9
:10047000044640F8183B0DF019F8204610BD00BFA7
:100480005CF1010014F060B910B5044613F01EFAD7
:10049000204610BD214B10B4D3F8B4201368506827
:1004A00019780478507A137A044201EA03011BD0C8
:1004B000937A03F0030309B143F0040343F0080304
:1004C0009910013B91720D2B0BD8DFE803F0210747
:1004D0001B070A152121150A071B0721D368013BB9
:1004E000D3605DF8044B7047937A03F0030300294F
:1004F000E6D043F00403E3E7D3685DF8044B023B26
:10050000D3607047D3685DF8044B0233D360704703
:10051000D3685DF8044B0133D360704760A90220B3
:10052000214B10B4D3F8B8201368506819780478B8
:10053000507A137A044201EA03011BD0937A03F044
:10054000030309B143F0040343F008039910013B8E
:1005500091720D2B0BD8DFE803F021071B070A155A
:100560002121150A071B0721D368013BD3605DF8E1
:10057000044B7047937A03F003030029E6D043F05D
:100580000403E3E7D3685DF8044B023BD360704794
:10059000D3685DF8044B0233D3607047D3685DF8CD
:1005A000044B0133D360704760A90220214B10B483
:1005B000D3F8BC201368506819780478507A137AFD
:1005C000044201EA03011BD0937A03F0030309B14B
:1005D00043F0040343F008039910013B91720D2B83
:1005E0000BD8DFE803F021071B070A152121150AA4
:1005F000071B0721D368013BD3605DF8044B7047AC
:10060000937A03F003030029E6D043F00403E3E701
:10061000D3685DF8044B023BD3607047D3685DF844
:10062000044B0233D3607047D3685DF8044B013349
:10063000D360704760A90220214B10B4D3F8C020CA
:100640001368506819780478507A137A044201EAE2
:1006500003011BD0937A03F0030309B143F00403B1
:1006600043F008039910013B91720D2B0BD8DFE882
:1006700003F021071B070A152121150A071B072173
:10068000D368013BD3605DF8044B7047937A03F065
:1006900003030029E6D043F00403E3E7D3685DF8E1
:1006A000044B023BD3607047D3685DF8044B0233C0
:1006B000D3607047D3685DF8044B0133D360704753
:1006C00060A90220214B10B4D3F8C42013685068ED
:1006D00019780478507A137A044201EA03011BD096
:1006E000937A03F0030309B143F0040343F00803D2
:1006F0009910013B91720D2B0BD8DFE803F0210715
:100700001B070A152121150A071B0721D368013B86
:10071000D3605DF8044B7047937A03F0030300291C
:10072000E6D043F00403E3E7D3685DF8044B023BF3
:10073000D3607047D3685DF8044B0233D3607047D1
:10074000D3685DF8044B0133D360704760A9022081
:10075000214B10B4D3F8C820136850681978047876
:10076000507A137A044201EA03011BD0937A03F012
:10077000030309B143F0040343F008039910013B5C
:1007800091720D2B0BD8DFE803F021071B070A1528
:100790002121150A071B0721D368013BD3605DF8AF
:1007A000044B7047937A03F003030029E6D043F02B
:1007B0000403E3E7D3685DF8044B023BD360704762
:1007C000D3685DF8044B0233D3607047D3685DF89B
:1007D000044B0133D360704760A90220214B10B451
:1007E000D3F8CC201368506819780478507A137ABB
:1007F000044201EA03011BD0937A03F0030309B119
:1008000043F0040343F008039910013B91720D2B50
:100810000BD8DFE803F021071B070A152121150A71
:10082000071B0721D368013BD3605DF8044B704779
:10083000937A03F003030029E6D043F00403E3E7CF
:10084000D3685DF8044B023BD3607047D3685DF812
:10085000044B0233D3607047D3685DF8044B013317
:10086000D360704760A90220214B10B4D3F8D02088
:100870001368506819780478507A137A044201EAB0
:1008800003011BD0937A03F0030309B143F004037F
:1008900043F008039910013B91720D2B0BD8DFE850
:1008A00003F021071B070A152121150A071B072141
:1008B000D368013BD3605DF8044B7047937A03F033
:1008C00003030029E6D043F00403E3E7D3685DF8AF
:1008D000044B023BD3607047D3685DF8044B02338E
:1008E000D3607047D3685DF8044B0133D360704721
:1008F00060A90220214B10B4D3F8EC201368506893
:1009000019780478507A137A044201EA03011BD063
:10091000937A03F0030309B143F0040343F008039F
:100920009910013B91720D2B0BD8DFE803F02107E2
:100930001B070A152121150A071B0721D368013B54
:10094000D3605DF8044B7047937A03F003030029EA
:10095000E6D043F00403E3E7D3685DF8044B023BC1
:10096000D3607047D3685DF8044B0233D36070479F
:10097000D3685DF8044B0133D360704760A902204F
:10098000214B10B4D3F8E420136850681978047828
:10099000507A137A044201EA03011BD0937A03F0E0
:1009A000030309B143F0040343F008039910013B2A
:1009B00091720D2B0BD8DFE803F021071B070A15F6
:1009C0002121150A071B0721D368013BD3605DF87D
:1009D000044B7047937A03F003030029E6D043F0F9
:1009E0000403E3E7D3685DF8044B023BD360704730
:1009F000D3685DF8044B0233D3607047D3685DF869
:100A0000044B0133D360704760A90220214B10B41E
:100A1000D3F8E8201368506819780478507A137A6C
:100A2000044201EA03011BD0937A03F0030309B1E6
:100A300043F0040343F008039910013B91720D2B1E
:100A40000BD8DFE803F021071B070A152121150A3F
:100A5000071B0721D368013BD3605DF8044B704747
:100A6000937A03F003030029E6D043F00403E3E79D
:100A7000D3685DF8044B023BD3607047D3685DF8E0
:100A8000044B0233D3607047D3685DF8044B0133E5
:100A9000D360704760A90220214B10B4D3F8D42052
:100AA0001368506819780478507A137A044201EA7E
:100AB00003011BD0937A03F0030309B143F004034D
:100AC00043F008039910013B91720D2B0BD8DFE81E
:100AD00003F021071B070A152121150A071B07210F
:100AE000D368013BD3605DF8044B7047937A03F001
:100AF00003030029E6D043F00403E3E7D3685DF87D
:100B0000044B023BD3607047D3685DF8044B02335B
:100B1000D3607047D3685DF8044B0133D3607047EE
:100B200060A90220214B10B4D3F8D8201368506874
:100B300019780478507A137A044201EA03011BD031
:100B4000937A03F0030309B143F0040343F008036D
:100B50009910013B91720D2B0BD8DFE803F02107B0
:100B60001B070A152121150A071B0721D368013B22
:100B7000D3605DF8044B7047937A03F003030029B8
:100B8000E6D043F00403E3E7D3685DF8044B023B8F
:100B9000D3607047D3685DF8044B0233D36070476D
:100BA000D3685DF8044B0133D360704760A902201D
:100BB000214B10B4D3F8DC201368506819780478FE
:100BC000507A137A044201EA03011BD0937A03F0AE
:100BD000030309B143F0040343F008039910013BF8
:100BE00091720D2B0BD8DFE803F021071B070A15C4
:100BF0002121150A071B0721D368013BD3605DF84B
:100C0000044B7047937A03F003030029E6D043F0C6
:100C10000403E3E7D3685DF8044B023BD3607047FD
:100C2000D3685DF8044B0233D3607047D3685DF836
:100C3000044B0133D360704760A90220214B10B4EC
:100C4000D3F8E0201368506819780478507A137A42
:100C5000044201EA03011BD0937A03F0030309B1B4
:100C600043F0040343F008039910013B91720D2BEC
:100C70000BD8DFE803F021071B070A152121150A0D
:100C8000071B0721D368013BD3605DF8044B704715
:100C9000937A03F003030029E6D043F00403E3E76B
:100CA000D3685DF8044B023BD3607047D3685DF8AE
:100CB000044B0233D3607047D3685DF8044B0133B3
:100CC000D360704760A90220214B10B41A681368E2
:100CD000506819780478507A137A044201EA0301C3
:100CE0001BD0937A03F0030309B143F0040343F0EC
:100CF00008039910013B91720D2B0BD8DFE803F02C
:100D000021071B070A152121150A071B0721D36894
:100D1000013BD3605DF8044B7047937A03F0030303
:100D20000029E6D043F00403E3E7D3685DF8044B01
:100D3000023BD3607047D3685DF8044B0233D36045
:100D40007047D3685DF8044B0133D360704700BF30
:100D500060A90220214B10B45A68136850681978B2
:100D60000478507A137A044201EA03011BD0937A83
:100D700003F0030309B143F0040343F0080399109F
:100D8000013B91720D2B0BD8DFE803F021071B0705
:100D90000A152121150A071B0721D368013BD360DF
:100DA0005DF8044B7047937A03F003030029E6D003
:100DB00043F00403E3E7D3685DF8044B023BD360E0
:100DC0007047D3685DF8044B0233D3607047D36833
:100DD0005DF8044B0133D360704700BF60A9022067
:100DE000214B10B49A681368506819780478507AC7
:100DF000137A044201EA03011BD0937A03F0030340
:100E000009B143F0040343F008039910013B9172C8
:100E10000D2B0BD8DFE803F021071B070A15212152
:100E2000150A071B0721D368013BD3605DF8044B0B
:100E30007047937A03F003030029E6D043F00403DC
:100E4000E3E7D3685DF8044B023BD3607047D36897
:100E50005DF8044B0233D3607047D3685DF8044BF0
:100E60000133D360704700BF60A90220214B10B44A
:100E7000DA681368506819780478507A137A044253
:100E800001EA03011BD0937A03F0030309B143F095
:100E9000040343F008039910013B91720D2B0BD80A
:100EA000DFE803F021071B070A152121150A071B9C
:100EB0000721D368013BD3605DF8044B7047937AF8
:100EC00003F003030029E6D043F00403E3E7D3680B
:100ED0005DF8044B023BD3607047D3685DF8044B68
:100EE0000233D3607047D3685DF8044B0133D3609D
:100EF000704700BF60A90220214B10B41A69136823
:100F0000506819780478507A137A044201EA030190
:100F10001BD0937A03F0030309B143F0040343F0B9
:100F200008039910013B91720D2B0BD8DFE803F0F9
:100F300021071B070A152121150A071B0721D36862
:100F4000013BD3605DF8044B7047937A03F00303D1
:100F50000029E6D043F00403E3E7D3685DF8044BCF
:100F6000023BD3607047D3685DF8044B0233D36013
:100F70007047D3685DF8044B0133D360704700BFFE
:100F800060A90220214B10B45A691368506819787F
:100F90000478507A137A044201EA03011BD0937A51
:100FA00003F0030309B143F0040343F0080399106D
:100FB000013B91720D2B0BD8DFE803F021071B07D3
:100FC0000A152121150A071B0721D368013BD360AD
:100FD0005DF8044B7047937A03F003030029E6D0D1
:100FE00043F00403E3E7D3685DF8044B023BD360AE
:100FF0007047D3685DF8044B0233D3607047D36801
:101000005DF8044B0133D360704700BF60A9022034
:10101000214B10B49A691368506819780478507A93
:10102000137A044201EA03011BD0937A03F003030D
:1010300009B143F0040343F008039910013B917296
:101040000D2B0BD8DFE803F021071B070A15212120
:10105000150A071B0721D368013BD3605DF8044BD9
:101060007047937A03F003030029E6D043F00403AA
:10107000E3E7D3685DF8044B023BD3607047D36865
:101080005DF8044B0233D3607047D3685DF8044BBE
:101090000133D360704700BF60A90220214B10B418
:1010A000DA691368506819780478507A137A044220
:1010B00001EA03011BD0937A03F0030309B143F063
:1010C000040343F008039910013B91720D2B0BD8D8
:1010D000DFE803F021071B070A152121150A071B6A
:1010E0000721D368013BD3605DF8044B7047937AC6
:1010F00003F003030029E6D043F00403E3E7D368D9
:101100005DF8044B023BD3607047D3685DF8044B35
:101110000233D3607047D3685DF8044B0133D3606A
:10112000704700BF60A90220214B10B41A6A1368EF
:10113000506819780478507A137A044201EA03015E
:101140001BD0937A03F0030309B143F0040343F087
:1011500008039910013B91720D2B0BD8DFE803F0C7
:1011600021071B070A152121150A071B0721D36830
:10117000013BD3605DF8044B7047937A03F003039F
:101180000029E6D043F00403E3E7D3685DF8044B9D
:10119000023BD3607047D3685DF8044B0233D360E1
:1011A0007047D3685DF8044B0133D360704700BFCC
:1011B00060A90220214B10B45A6A1368506819784C
:1011C0000478507A137A044201EA03011BD0937A1F
:1011D00003F0030309B143F0040343F0080399103B
:1011E000013B91720D2B0BD8DFE803F021071B07A1
:1011F0000A152121150A071B0721D368013BD3607B
:101200005DF8044B7047937A03F003030029E6D09E
:1012100043F00403E3E7D3685DF8044B023BD3607B
:101220007047D3685DF8044B0233D3607047D368CE
:101230005DF8044B0133D360704700BF60A9022002
:10124000214B10B49A6A1368506819780478507A60
:10125000137A044201EA03011BD0937A03F00303DB
:1012600009B143F0040343F008039910013B917264
:101270000D2B0BD8DFE803F021071B070A152121EE
:10128000150A071B0721D368013BD3605DF8044BA7
:101290007047937A03F003030029E6D043F0040378
:1012A000E3E7D3685DF8044B023BD3607047D36833
:1012B0005DF8044B0233D3607047D3685DF8044B8C
:1012C0000133D360704700BF60A90220214B10B4E6
:1012D000DA6A1368506819780478507A137A0442ED
:1012E00001EA03011BD0937A03F0030309B143F031
:1012F000040343F008039910013B91720D2B0BD8A6
:10130000DFE803F021071B070A152121150A071B37
:101310000721D368013BD3605DF8044B7047937A93
:1013200003F003030029E6D043F00403E3E7D368A6
:101330005DF8044B023BD3607047D3685DF8044B03
:101340000233D3607047D3685DF8044B0133D36038
:10135000704700BF60A90220214B10B41A6B1368BC
:10136000506819780478507A137A044201EA03012C
:101370001BD0937A03F0030309B143F0040343F055
:1013800008039910013B91720D2B0BD8DFE803F095
:1013900021071B070A152121150A071B0721D368FE
:1013A000013BD3605DF8044B7047937A03F003036D
:1013B0000029E6D043F00403E3E7D3685DF8044B6B
:1013C000023BD3607047D3685DF8044B0233D360AF
:1013D0007047D3685DF8044B0133D360704700BF9A
:1013E00060A90220214B10B45A6B13685068197819
:1013F0000478507A137A044201EA03011BD0937AED
:1014000003F0030309B143F0040343F00803991008
:10141000013B91720D2B0BD8DFE803F021071B076E
:101420000A152121150A071B0721D368013BD36048
:101430005DF8044B7047937A03F003030029E6D06C
:1014400043F00403E3E7D3685DF8044B023BD36049
:101450007047D3685DF8044B0233D3607047D3689C
:101460005DF8044B0133D360704700BF60A90220D0
:10147000214B10B49A6B1368506819780478507A2D
:10148000137A044201EA03011BD0937A03F00303A9
:1014900009B143F0040343F008039910013B917232
:1014A0000D2B0BD8DFE803F021071B070A152121BC
:1014B000150A071B0721D368013BD3605DF8044B75
:1014C0007047937A03F003030029E6D043F0040346
:1014D000E3E7D3685DF8044B023BD3607047D36801
:1014E0005DF8044B0233D3607047D3685DF8044B5A
:1014F0000133D360704700BF60A90220214B10B4B4
:10150000DA6B1368506819780478507A137A0442B9
:1015100001EA03011BD0937A03F0030309B143F0FE
:10152000040343F008039910013B91720D2B0BD873
:10153000DFE803F021071B070A152121150A071B05
:101540000721D368013BD3605DF8044B7047937A61
:1015500003F003030029E6D043F00403E3E7D36874
:101560005DF8044B023BD3607047D3685DF8044BD1
:101570000233D3607047D3685DF8044B0133D36006
:10158000704700BF60A90220214B10B41A6C136889
:10159000506819780478507A137A044201EA0301FA
:1015A0001BD0937A03F0030309B143F0040343F023
:1015B00008039910013B91720D2B0BD8DFE803F063
:1015C00021071B070A152121150A071B0721D368CC
:1015D000013BD3605DF8044B7047937A03F003033B
:1015E0000029E6D043F00403E3E7D3685DF8044B39
:1015F000023BD3607047D3685DF8044B0233D3607D
:101600007047D3685DF8044B0133D360704700BF67
:1016100060A90220214B10B45A6C136850681978E5
:101620000478507A137A044201EA03011BD0937ABA
:1016300003F0030309B143F0040343F008039910D6
:10164000013B91720D2B0BD8DFE803F021071B073C
:101650000A152121150A071B0721D368013BD36016
:101660005DF8044B7047937A03F003030029E6D03A
:1016700043F00403E3E7D3685DF8044B023BD36017
:101680007047D3685DF8044B0233D3607047D3686A
:101690005DF8044B0133D360704700BF60A902209E
:1016A000214B10B49A6C1368506819780478507AFA
:1016B000137A044201EA03011BD0937A03F0030377
:1016C00009B143F0040343F008039910013B917200
:1016D0000D2B0BD8DFE803F021071B070A1521218A
:1016E000150A071B0721D368013BD3605DF8044B43
:1016F0007047937A03F003030029E6D043F0040314
:10170000E3E7D3685DF8044B023BD3607047D368CE
:101710005DF8044B0233D3607047D3685DF8044B27
:101720000133D360704700BF60A90220214B10B481
:10173000DA6C1368506819780478507A137A044286
:1017400001EA03011BD0937A03F0030309B143F0CC
:10175000040343F008039910013B91720D2B0BD841
:10176000DFE803F021071B070A152121150A071BD3
:101770000721D368013BD3605DF8044B7047937A2F
:1017800003F003030029E6D043F00403E3E7D36842
:101790005DF8044B023BD3607047D3685DF8044B9F
:1017A0000233D3607047D3685DF8044B0133D360D4
:1017B000704700BF60A90220214B10B41A6D136856
:1017C000506819780478507A137A044201EA0301C8
:1017D0001BD0937A03F0030309B143F0040343F0F1
:1017E00008039910013B91720D2B0BD8DFE803F031
:1017F00021071B070A152121150A071B0721D3689A
:10180000013BD3605DF8044B7047937A03F0030308
:101810000029E6D043F00403E3E7D3685DF8044B06
:10182000023BD3607047D3685DF8044B0233D3604A
:101830007047D3685DF8044B0133D360704700BF35
:1018400060A90220214B10B45A6D136850681978B2
:101850000478507A137A044201EA03011BD0937A88
:1018600003F0030309B143F0040343F008039910A4
:10187000013B91720D2B0BD8DFE803F021071B070A
:101880000A152121150A071B0721D368013BD360E4
:101890005DF8044B7047937A03F003030029E6D008
:1018A00043F00403E3E7D3685DF8044B023BD360E5
:1018B0007047D3685DF8044B0233D3607047D36838
:1018C0005DF8044B0133D360704700BF60A902206C
:1018D000214B10B49A6D1368506819780478507AC7
:1018E000137A044201EA03011BD0937A03F0030345
:1018F00009B143F0040343F008039910013B9172CE
:101900000D2B0BD8DFE803F021071B070A15212157
:10191000150A071B0721D368013BD3605DF8044B10
:101920007047937A03F003030029E6D043F00403E1
:10193000E3E7D3685DF8044B023BD3607047D3689C
:101940005DF8044B0233D3607047D3685DF8044BF5
:101950000133D360704700BF60A90220214B10B44F
:10196000DA6D1368506819780478507A137A044253
:1019700001EA03011BD0937A03F0030309B143F09A
:10198000040343F008039910013B91720D2B0BD80F
:10199000DFE803F021071B070A152121150A071BA1
:1019A0000721D368013BD3605DF8044B7047937AFD
:1019B00003F003030029E6D043F00403E3E7D36810
:1019C0005DF8044B023BD3607047D3685DF8044B6D
:1019D0000233D3607047D3685DF8044B0133D360A2
:1019E000704700BF60A90220214B10B41A6E136823
:1019F000506819780478507A137A044201EA030196
:101A00001BD0937A03F0030309B143F0040343F0BE
:101A100008039910013B91720D2B0BD8DFE803F0FE
:101A200021071B070A152121150A071B0721D36867
:101A3000013BD3605DF8044B7047937A03F00303D6
:101A40000029E6D043F00403E3E7D3685DF8044BD4
:101A5000023BD3607047D3685DF8044B0233D36018
:101A60007047D3685DF8044B0133D360704700BF03
:101A700060A90220214B10B45A6E1368506819787F
:101A80000478507A137A044201EA03011BD0937A56
:101A900003F0030309B143F0040343F00803991072
:101AA000013B91720D2B0BD8DFE803F021071B07D8
:101AB0000A152121150A071B0721D368013BD360B2
:101AC0005DF8044B7047937A03F003030029E6D0D6
:101AD00043F00403E3E7D3685DF8044B023BD360B3
:101AE0007047D3685DF8044B0233D3607047D36806
:101AF0005DF8044B0133D360704700BF60A902203A
:101B0000214B10B49A6E1368506819780478507A93
:101B1000137A044201EA03011BD0937A03F0030312
:101B200009B143F0040343F008039910013B91729B
:101B30000D2B0BD8DFE803F021071B070A15212125
:101B4000150A071B0721D368013BD3605DF8044BDE
:101B50007047937A03F003030029E6D043F00403AF
:101B6000E3E7D3685DF8044B023BD3607047D3686A
:101B70005DF8044B0233D3607047D3685DF8044BC3
:101B80000133D360704700BF60A90220214B10B41D
:101B9000DA6E1368506819780478507A137A044220
:101BA00001EA03011BD0937A03F0030309B143F068
:101BB000040343F008039910013B91720D2B0BD8DD
:101BC000DFE803F021071B070A152121150A071B6F
:101BD0000721D368013BD3605DF8044B7047937ACB
:101BE00003F003030029E6D043F00403E3E7D368DE
:101BF0005DF8044B023BD3607047D3685DF8044B3B
:101C00000233D3607047D3685DF8044B0133D3606F
:101C1000704700BF60A90220214B10B41A6F1368EF
:101C2000506819780478507A137A044201EA030163
:101C30001BD0937A03F0030309B143F0040343F08C
:101C400008039910013B91720D2B0BD8DFE803F0CC
:101C500021071B070A152121150A071B0721D36835
:101C6000013BD3605DF8044B7047937A03F00303A4
:101C70000029E6D043F00403E3E7D3685DF8044BA2
:101C8000023BD3607047D3685DF8044B0233D360E6
:101C90007047D3685DF8044B0133D360704700BFD1
:101CA00060A90220214B10B45A6F1368506819784C
:101CB0000478507A137A044201EA03011BD0937A24
:101CC00003F0030309B143F0040343F00803991040
:101CD000013B91720D2B0BD8DFE803F021071B07A6
:101CE0000A152121150A071B0721D368013BD36080
:101CF0005DF8044B7047937A03F003030029E6D0A4
:101D000043F00403E3E7D3685DF8044B023BD36080
:101D10007047D3685DF8044B0233D3607047D368D3
:101D20005DF8044B0133D360704700BF60A9022007
:101D3000214B10B49A6F1368506819780478507A60
:101D4000137A044201EA03011BD0937A03F00303E0
:101D500009B143F0040343F008039910013B917269
:101D60000D2B0BD8DFE803F021071B070A152121F3
:101D7000150A071B0721D368013BD3605DF8044BAC
:101D80007047937A03F003030029E6D043F004037D
:101D9000E3E7D3685DF8044B023BD3607047D36838
:101DA0005DF8044B0233D3607047D3685DF8044B91
:101DB0000133D360704700BF60A90220214B10B4EB
:101DC000DA6F1368506819780478507A137A0442ED
:101DD00001EA03011BD0937A03F0030309B143F036
:101DE000040343F008039910013B91720D2B0BD8AB
:101DF000DFE803F021071B070A152121150A071B3D
:101E00000721D368013BD3605DF8044B7047937A98
:101E100003F003030029E6D043F00403E3E7D368AB
:101E20005DF8044B023BD3607047D3685DF8044B08
:101E30000233D3607047D3685DF8044B0133D3603D
:101E4000704700BF60A90220214B10B4D3F8802056
:101E50001368506819780478507A137A044201EABA
:101E600003011BD0937A03F0030309B143F0040389
:101E700043F008039910013B91720D2B0BD8DFE85A
:101E800003F021071B070A152121150A071B07214B
:101E9000D368013BD3605DF8044B7047937A03F03D
:101EA00003030029E6D043F00403E3E7D3685DF8B9
:101EB000044B023BD3607047D3685DF8044B023398
:101EC000D3607047D3685DF8044B0133D36070472B
:101ED00060A90220214B10B4D3F884201368506805
:101EE00019780478507A137A044201EA03011BD06E
:101EF000937A03F0030309B143F0040343F00803AA
:101F00009910013B91720D2B0BD8DFE803F02107EC
:101F10001B070A152121150A071B0721D368013B5E
:101F2000D3605DF8044B7047937A03F003030029F4
:101F3000E6D043F00403E3E7D3685DF8044B023BCB
:101F4000D3607047D3685DF8044B0233D3607047A9
:101F5000D3685DF8044B0133D360704760A9022059
:101F6000214B10B4D3F8882013685068197804788E
:101F7000507A137A044201EA03011BD0937A03F0EA
:101F8000030309B143F0040343F008039910013B34
:101F900091720D2B0BD8DFE803F021071B070A1500
:101FA0002121150A071B0721D368013BD3605DF887
:101FB000044B7047937A03F003030029E6D043F003
:101FC0000403E3E7D3685DF8044B023BD36070473A
:101FD000D3685DF8044B0233D3607047D3685DF873
:101FE000044B0133D360704760A90220214B10B429
:101FF000D3F88C201368506819780478507A137AD3
:10200000044201EA03011BD0937A03F0030309B1F0
:1020100043F0040343F008039910013B91720D2B28
:102020000BD8DFE803F021071B070A152121150A49
:10203000071B0721D368013BD3605DF8044B704751
:10204000937A03F003030029E6D043F00403E3E7A7
:10205000D3685DF8044B023BD3607047D3685DF8EA
:10206000044B0233D3607047D3685DF8044B0133EF
:10207000D360704760A90220214B10B4D3F89020A0
:102080001368506819780478507A137A044201EA88
:1020900003011BD0937A03F0030309B143F0040357
:1020A00043F008039910013B91720D2B0BD8DFE828
:1020B00003F021071B070A152121150A071B072119
:1020C000D368013BD3605DF8044B7047937A03F00B
:1020D00003030029E6D043F00403E3E7D3685DF887
:1020E000044B023BD3607047D3685DF8044B023366
:1020F000D3607047D3685DF8044B0133D3607047F9
:1021000060A90220214B10B4D3F8942013685068C2
:1021100019780478507A137A044201EA03011BD03B
:10212000937A03F0030309B143F0040343F0080377
:102130009910013B91720D2B0BD8DFE803F02107BA
:102140001B070A152121150A071B0721D368013B2C
:10215000D3605DF8044B7047937A03F003030029C2
:10216000E6D043F00403E3E7D3685DF8044B023B99
:10217000D3607047D3685DF8044B0233D360704777
:10218000D3685DF8044B0133D360704760A9022027
:10219000214B10B4D3F8982013685068197804784C
:1021A000507A137A044201EA03011BD0937A03F0B8
:1021B000030309B143F0040343F008039910013B02
:1021C00091720D2B0BD8DFE803F021071B070A15CE
:1021D0002121150A071B0721D368013BD3605DF855
:1021E000044B7047937A03F003030029E6D043F0D1
:1021F0000403E3E7D3685DF8044B023BD360704708
:10220000D3685DF8044B0233D3607047D3685DF840
:10221000044B0133D360704760A90220214B10B4F6
:10222000D3F89C201368506819780478507A137A90
:10223000044201EA03011BD0937A03F0030309B1BE
:1022400043F0040343F008039910013B91720D2BF6
:102250000BD8DFE803F021071B070A152121150A17
:10226000071B0721D368013BD3605DF8044B70471F
:10227000937A03F003030029E6D043F00403E3E775
:10228000D3685DF8044B023BD3607047D3685DF8B8
:10229000044B0233D3607047D3685DF8044B0133BD
:1022A000D360704760A90220214B10B4D3F8A0205E
:1022B0001368506819780478507A137A044201EA56
:1022C00003011BD0937A03F0030309B143F0040325
:1022D00043F008039910013B91720D2B0BD8DFE8F6
:1022E00003F021071B070A152121150A071B0721E7
:1022F000D368013BD3605DF8044B7047937A03F0D9
:1023000003030029E6D043F00403E3E7D3685DF854
:10231000044B023BD3607047D3685DF8044B023333
:10232000D3607047D3685DF8044B0133D3607047C6
:1023300060A90220214B10B4D3F8A4201368506880
:1023400019780478507A137A044201EA03011BD009
:10235000937A03F0030309B143F0040343F0080345
:102360009910013B91720D2B0BD8DFE803F0210788
:102370001B070A152121150A071B0721D368013BFA
:10238000D3605DF8044B7047937A03F00303002990
:10239000E6D043F00403E3E7D3685DF8044B023B67
:1023A000D3607047D3685DF8044B0233D360704745
:1023B000D3685DF8044B0133D360704760A90220F5
:1023C000214B10B4D3F8A82013685068197804780A
:1023D000507A137A044201EA03011BD0937A03F086
:1023E000030309B143F0040343F008039910013BD0
:1023F00091720D2B0BD8DFE803F021071B070A159C
:102400002121150A071B0721D368013BD3605DF822
:10241000044B7047937A03F003030029E6D043F09E
:102420000403E3E7D3685DF8044B023BD3607047D5
:10243000D3685DF8044B0233D3607047D3685DF80E
:10244000044B0133D360704760A90220214B10B4C4
:10245000D3F8AC201368506819780478507A137A4E
:10246000044201EA03011BD0937A03F0030309B18C
:1024700043F0040343F008039910013B91720D2BC4
:102480000BD8DFE803F021071B070A152121150AE5
:10249000071B0721D368013BD3605DF8044B7047ED
:1024A000937A03F003030029E6D043F00403E3E743
:1024B000D3685DF8044B023BD3607047D3685DF886
:1024C000044B0233D3607047D3685DF8044B01338B
:1024D000D360704760A90220214B10B4D3F8B0201C
:1024E0001368506819780478507A137A044201EA24
:1024F00003011BD0937A03F0030309B143F00403F3
:1025000043F008039910013B91720D2B0BD8DFE8C3
:1025100003F021071B070A152121150A071B0721B4
:10252000D368013BD3605DF8044B7047937A03F0A6
:1025300003030029E6D043F00403E3E7D3685DF822
:10254000044B023BD3607047D3685DF8044B023301
:10255000D3607047D3685DF8044B0133D360704794
:1025600060A90220002310B4114C41720261046082
:102570000372C36041B1194600E0026942F82310BA
:10258000427A01339A42F8DC0A4B1A680AB90CE025
:102590001A465369002BFBD15061002343618380AD
:1025A000C38083725DF8044B70471860F5E700BF85
:1025B0003CDD010034AD0220284B9FED296A93EDEC
:1025C000007ADFED286AB8EEC77A07EE900AC6EE09
:1025D000075AF8EEE77A67EEA57AF4EEE67AF1EEBE
:1025E00010FA1BDC204A214BC2ED007AF5EEC07ACE
:1025F0000122F1EE10FA1A602DD49FED1D7AF4EE4F
:10260000C77AF1EE10FA1DDD1A4B1B4A1B49D36144
:102610004FF48030012310620B607047C7EE065AFA
:10262000114B1748114A0121F2EE027AE5EEA67A23
:10263000C3ED006AFDEEE77A17EE903AF0EE667AA7
:10264000036011609FED0F7A67EE877AFCEEE77A00
:1026500017EE903AD9E70023D7E700BF50D4012006
:10266000A6552C4700E0AB46343E002088E100E050
:10267000A655AC4680FFFF7FF4CF012008E100E0C3
:10268000243E00204B24BE47204ADFED216AD2EDD4
:10269000007A38B51F4B204C93ED007A2268F8EE93
:1026A000E77A4FF4FA7167EE877A40F6B83087EE32
:1026B000A67AFDEEC77A17EE903A01FB03F303F515
:1026C0007A73D21A002AB8BF524282420EDD134AF0
:1026D00041F657318B42126809DC41F65833104DF0
:1026E00018462B60FFF768FF2B68236038BD0D4844
:1026F000D143C90F80FB0202C1EBE2124FF47A71A1
:1027000001FB02F29342A8BF1346E8E7C8DE0120AE
:102710000000FA43B83E002030D4012050D40120FC
:10272000243E0020D34D62102DE9F04F2DED028B99
:10273000694B1B780A2B89B03DD8684C684B002246
:10274000D4E9000116F054FA16F002FD0022644BA1
:102750000390D4E9020116F04BFA16F0F9FC0022BE
:102760005F4B0490D4E9040116F042FA16F0F0FC35
:1027700000225B4B0590D4E9060116F039FA16F0F9
:10278000E7FC574B06900022D4E9080116F030FA16
:1027900016F0DEFC03AA0790002152480DF004FC5D
:1027A000514B00214FF48032D9619A6109B0BDECE0
:1027B000028BBDE8F08F4D4A9FED4D6AD2ED007A55
:1027C000DFED4C6AF8EEE77A4FF47A7286EE277AFC
:1027D00002FB03F307EE903AF8EEE77A67EE277A0A
:1027E00067EEA67A17EE900A16F0AEF941EC100BE0
:1027F00041EC180B14F070FE35A3D3E9002351EC23
:10280000100B16F01FFBB0EE480AF0EE680ACDE997
:10281000000114F001FEDDE900010022364B5BEC03
:1028200010AB16F033F802460B4600202C4916F088
:1028300009FB002204460D462F4B5046594616F020
:1028400025F800222D4B8046894616F0D1F9224604
:102850002B4616F0CDF916F07BFC224606462B4699
:10286000404609F10041039616F0C2F916F070FCDB
:10287000002204904FF0404350465946059616F00A
:10288000B7F922462B4616F0B3F916F061FCDDE9E4
:10289000002306901849002015F0F6FF2B4622462B
:1028A00016F0A6F916F054FC03AA079000210D4873
:1028B0000DF07AFB0C4B00214FF480329961DA6104
:1028C00009B0BDEC028BBDE8F08F00BFAFF3008014
:1028D000000000606666F63F5D3E0020783E002006
:1028E0000000D04174D30120FCCD012050D4012040
:1028F000A6552C47465615390000F03F0000E03F32
:10290000F8B53949394A9FED3A6A3A4E44002318DE
:1029100001EBC3039B681360374A1278002B07EE64
:10292000102AB8BFFF331B12B8EEC77A07EE903AF1
:1029300027EE067AF8EEE77A304AC6ED007AC7EE5F
:10294000276A15782E4AFDEEE66AC2ED006A6DB17F
:102950002C4B1B7807EE103AB8EEC77A27EE067AB2
:10296000C7EE276AFDEEE66AC2ED006ADFED266A71
:10297000264F274E274D284A86EEA77A231801EBCB
:10298000C3035B683B600123BDEEC77A86ED007A26
:102990002B601368002BFCDB204401EBC0041F49B3
:1029A000E2682369013A1203013B02F47F22C3F378
:1029B0000B0313430B60C82011F0F8FE184B186886
:1029C000FFF7FAFD237D1749174A002B4FF001004E
:1029D00008BF03460860142082F8203711F0E6FE95
:1029E000BDE8F840FFF7A0BE08E5010050D4012083
:1029F00000007A44B83E0020663E0020B0D6012098
:102A000090E30120723E002000409C473CE1012001
:102A10002CD4012088E100E000F1024004F10240E2
:102A2000243E002008E100E0E8D6012007EE900AED
:102A30009FED0C6ADFED0C6A0C4B0D48B8EEE77A9F
:102A4000DFED0C7A27EE067A10B5E7EE267A012440
:102A50001C60FCEEE77A17EE901A0CF0C7FE064BEE
:102A60001C6010BD0AD7233C0000014388E100E050
:102A700054A40220EE7CFF3E08E100E02B4B70B531
:102A80001D68012D04461AD0294B2A4A2A480121E3
:102A900011601A682A210CF09FFD0022202126488F
:102AA0000CF09AFD002CB8BF0334C4F38702114622
:102AB00021480CF061FE214B01221A6070BD204BB1
:102AC0001E78002EFAD11B4B1B481D603246314642
:102AD0000CF052FE272C1CDD283C64B20325144B5D
:102AE00015481A682A212A430CF076FD154B124826
:102AF000620083FB0213A3EBE2720F2A28BF0F22AE
:102B000042EA021220210CF067FD0C4B01221A60F0
:102B100070BD1D2C03DD1E3C64B20225DFE7132CC3
:102B2000C6BF143C64B23546D9E700BF583E00200A
:102B3000F83E002088E100E054A4022008E100E013
:102B400080A4022056555555F8B5044615460E4644
:102B50000846022111F024FE2846022111F020FE31
:102B6000984A994B52F83610012001F500772760FA
:102B7000207252F83520607202F5007700206760FD
:102B8000E060013BFDD191F8003292F8002203F0A1
:102B90000103D20744BF43F00203DBB2A3723B2E12
:102BA00000F20386DFE816F0F405EA05E005D60535
:102BB000CC05C205B805AE05A4059A0590058605A5
:102BC0007C05720568055E0554054A054005360515
:102BD0002C05220518050E050405FA04F004E60488
:102BE000DC04D204C804BE04B304A8049D04920407
:102BF00087047C0428041E0414040A040004F60359
:102C0000EC03E203D803CE03C403BA03B003A60364
:102C10009C03920388037E0374036A0360033C00F1
:102C20006A4B6B49C3F8EC4004223B2011F010FDC5
:102C3000012323743B2D00F2B585DFE815F00B036B
:102C40000103F702ED02E302D902CF02C502BB0283
:102C5000B102A7029D02930289027F02310227027C
:102C60001D0213020902FF01F501EB01E101D70189
:102C7000CD01C301B901AF01A5019B0191018601FD
:102C80007B01700165015A014F01440139012E0198
:102C9000230118010D010201F700EC00E100B8006A
:102CA000AD00A20097008C00810076006B006000F0
:102CB00055004A003C00454B4549C3F8EC4004220E
:102CC0003B2011F0C5FC237C0122134423742046D1
:102CD000F8BD3E4B3F49C3F8E84004223A2011F0CA
:102CE000B7FC237C0122F0E7384B3B49C3F8E440B2
:102CF0000422392011F0ACFC237C0122E5E7334BA0
:102D00003649C3F8E0400422382011F0A1FC237CAE
:102D10000122DAE72D4B3249C3F8DC400422372088
:102D200011F096FC237C0122CFE7284B2D49C3F8F4
:102D3000D8400422362011F08BFC237C0122C4E70A
:102D4000224B2949C3F8D4400422352011F080FCDD
:102D5000237C0122B9E71D4B2449C3F8D04004224B
:102D6000342011F075FC237C0122AEE7174B20497B
:102D7000C3F8CC400422332011F06AFC237C0122EA
:102D8000A3E7124B1B49C3F8C8400422322011F0BC
:102D90005FFC237C012298E70C4B1749C3F8C44021
:102DA0000422312011F054FC237C01228DE7074BD3
:102DB0001249C3F8C0400422302011F049FC237CA2
:102DC000012282E708130200C0D4010060A902209A
:102DD000F50800000D0A0000810900003D0C00000C
:102DE000B10B0000250B0000990A000069080000E3
:102DF000DD07000051070000C5060000390600008D
:102E0000AC4BAD49C3F8BC4004222F2011F020FC8C
:102E1000237C012259E7A74BA849C3F8B8400422F4
:102E20002E2011F015FC237C01224EE7A14BA44972
:102E3000C3F8B44004222D2011F00AFC237C0122A7
:102E400043E79C4B9F49C3F8B04004222C2011F06B
:102E5000FFFB237C012238E7964B9B49C3F8AC402B
:102E600004222B2011F0F4FB237C01222DE7914B4F
:102E70009649C3F8A84004222A2011F0E9FB237CDC
:102E8000012222E78B4B9249C3F8A4400422292057
:102E900011F0DEFB237C012217E7864B8D49C3F836
:102EA000A0400422282011F0D3FB237C01220CE750
:102EB000804B8949C3F89C400422272011F0C8FBAD
:102EC000237C012201E77B4B8449C3F8984004220C
:102ED000262011F0BDFB237C0122F6E6754B8049CC
:102EE000C3F894400422252011F0B2FB237C012278
:102EF000EBE6704B7B49C3F890400422242011F08C
:102F0000A7FB237C0122E0E66A4B7749C3F88C409B
:102F10000422232011F09CFB237C0122D5E6654B83
:102F20007249C3F888400422222011F091FB237CCF
:102F30000122CAE65F4B6E49C3F884400422212077
:102F400011F086FB237C0122BFE65A4B6949C3F886
:102F500080400422202011F07BFB237C0122B4E678
:102F6000544B6549DC6704221F2011F071FB237C60
:102F70000122AAE64F4B61499C6704221E2011F0F2
:102F800067FB237C0122A0E64A4B5D495C67042273
:102F90001D2011F05DFB237C012296E6454B59492B
:102FA0001C6704221C2011F053FB237C01228CE6B9
:102FB000404B5549DC6604221B2011F049FB237C61
:102FC000012282E63B4B51499C6604221A2011F0F3
:102FD0003FFB237C012278E6364B4D495C66042298
:102FE000192011F035FB237C01226EE6314B494953
:102FF0001C660422182011F02BFB237C012264E6BE
:103000002C4B4549DC650422172011F021FB237C61
:1030100001225AE6274B41499C650422162011F0F3
:1030200017FB237C012250E6224B3D495C650422BC
:10303000152011F00DFB237C012246E61D4B39497A
:103040001C650422142011F003FB237C01223CE6C2
:10305000184B3549DC640422132011F0F9FA237C63
:10306000012232E6134B31499C640422122011F0F4
:10307000EFFA237C012228E60E4B2D495C640422E2
:10308000112011F0E5FA237C01221EE6094B2949A3
:103090001C640422102011F0DBFA237C012214E6C8
:1030A000044B2549DC6304220F2011F0D1FA237C64
:1030B00001220AE660A90220AD05000021050000FA
:1030C00095040000D92400004D240000C123000015
:1030D00035230000A92200001D22000091210000DC
:1030E0000521000079200000ED1F0000611F000095
:1030F000D51E0000491E0000BD1D0000311D00004E
:10310000A51C0000191C00008D1B0000011B000005
:10311000751A0000E91900005D190000D1180000BF
:1031200045180000B91700002D170000A116000077
:103130001516000089150000FD140000B34BB449BA
:103140009C6304220E2011F083FA237C0122BCE54B
:10315000AE4BB0495C6304220D2011F079FA237C58
:103160000122B2E5A94BAC491C6304220C2011F0EA
:103170006FFA237C0122A8E5A44BA849DC62042253
:103180000B2011F065FA237C01229EE59F4BA44998
:103190009C6204220A2011F05BFA237C012294E550
:1031A0009A4BA0495C620422092011F051FA237C59
:1031B00001228AE5954B9C491C620422082011F0EB
:1031C00047FA237C012280E5904B9849DC61042278
:1031D000072011F03DFA237C012276E58B4B9449C0
:1031E0009C610422062011F033FA237C01226CE555
:1031F000864B90495C610422052011F029FA237C5A
:10320000012262E5814B8C491C610422104611F0B9
:103210001FFA237C012258E57C4B8849DC6004229C
:10322000032011F015FA237C01224EE5774B8449E7
:103230009C600422022011F00BFA237C012244E559
:10324000724B80495C600422012011F001FA237C5A
:1032500001223AE56D4B7C491C600422002011F0EC
:10326000F7F9237C012230E5684B7849C3F8E84040
:1032700004223A2011F0ECF90123DAE4634B74499B
:10328000C3F8E4400422392011F0E2F90123D0E42C
:103290005E4B7049C3F8E0400422382011F0D8F9A1
:1032A0000123C6E4594B6C49C3F8DC4004223720A3
:1032B00011F0CEF90123BCE4544B6849C3F8D8405F
:1032C0000422362011F0C4F90123B2E44F4B6449C3
:1032D000C3F8D4400422352011F0BAF90123A8E440
:1032E0004A4B6049C3F8D0400422342011F0B0F9B1
:1032F00001239EE4454B5C49C3F8CC4004223320B3
:1033000011F0A6F9012394E4404B5849C3F8C84092
:103310000422322011F09CF901238AE43B4B5449EA
:10332000C3F8C4400422312011F092F9012380E453
:10333000364B5049C3F8C0400422302011F088F9C0
:10334000012376E4314B4C49C3F8BC4004222F20C2
:1033500011F07EF901236CE42C4B4849C3F8B840C6
:1033600004222E2011F074F9012362E4274B444912
:10337000C3F8B44004222D2011F06AF9012358E467
:10338000224B4049C3F8B04004222C2011F060F9D0
:1033900001234EE41D4B3C49C3F8AC4004222B20D2
:1033A00011F056F9012344E4184B3849C3F8A840FA
:1033B00004222A2011F04CF901233AE4134B34493A
:1033C000C3F8A4400422292011F042F9012330E47B
:1033D0000E4B3049C3F8A0400422282011F038F9E0
:1033E000012326E4094B2C49C3F89C4004222720E2
:1033F00011F02EF901231CE4044B2849C3F898402E
:103400000422262011F024F9012312E460A90220ED
:1034100071140000E513000059130000CD120000E4
:1034200041120000B5110000291100009D1000009C
:1034300011100000850F0000F90E00006D0E000055
:10344000E10D0000550D0000C90C00000D0A000040
:10345000810900003D0C0000B10B0000250B0000AD
:10346000990A000069080000DD070000510700000C
:10347000C506000039060000AD050000210500006A
:1034800095040000D92400004D240000C123000051
:1034900035230000A92200001D2200009121000018
:1034A000C34BC449C3F894400422252011F0D0F83E
:1034B0000123FFF7BEBBBE4BBF49C3F890400422B7
:1034C000242011F0C5F80123FFF7B3BBB84BBB496B
:1034D000C3F88C400422232011F0BAF80123FFF72F
:1034E000A8BBB34BB649C3F888400422222011F090
:1034F000AFF80123FFF79DBBAD4BB249C3F8844041
:103500000422212011F0A4F80123FFF792BBA84B5D
:10351000AD49C3F880400422202011F099F801231E
:10352000FFF787BBA24BA949DC6704221F2011F0DB
:103530008FF80123FFF77DBB9D4BA5499C670422B3
:103540001E2011F085F80123FFF773BB984BA149AA
:103550005C6704221D2011F07BF80123FFF769BB93
:10356000934B9D491C6704221C2011F071F8012324
:10357000FFF75FBB8E4B9949DC6604221B2011F0DC
:1035800067F80123FFF755BB894B95499C660422D8
:103590001A2011F05DF80123FFF74BBB844B9149D2
:1035A0005C660422192011F053F80123FFF741BB98
:1035B0007F4B8D491C660422182011F049F8012325
:1035C000FFF737BB7A4B8949DC650422172011F0DD
:1035D0003FF80123FFF72DBB754B85499C650422FD
:1035E000162011F035F80123FFF723BB704B8149FA
:1035F0005C650422152011F02BF80123FFF719BB9D
:103600006B4B7D491C650422142011F021F8012325
:10361000FFF70FBB664B7949DC640422132011F0DD
:1036200017F80123FFF705BB614B75499C64042221
:10363000122011F00DF80123FFF7FBBA5C4B714922
:103640005C640422112011F003F80123FFF7F1BAA2
:10365000574B6D491C640422102010F0F9FF012320
:10366000FFF7E7BA524B6949DC6304220F2010F0E0
:10367000EFFF0123FFF7DDBA4D4B65499C63042240
:103680000E2010F0E5FF0123FFF7D3BA484B614944
:103690005C6304220D2010F0DBFF0123FFF7C9BAA1
:1036A000434B5D491C6304220C2010F0D1FF012321
:1036B000FFF7BFBA3E4B5949DC6204220B2010F0E1
:1036C000C7FF0123FFF7B5BA394B55499C62042265
:1036D0000A2010F0BDFF0123FFF7ABBA344B51496C
:1036E0005C620422092010F0B3FF0123FFF7A1BAA6
:1036F0002F4B4D491C620422082010F0A9FF012322
:10370000FFF797BA2A4B4949DC610422072010F0E1
:103710009FFF0123FFF78DBA254B45499C61042289
:10372000062010F095FF0123FFF783BA204B414993
:103730005C610422052010F08BFF0123FFF779BAAA
:103740001B4B3D491C610422104610F081FF0123F0
:10375000FFF76FBA164B3949DC600422032010F0E2
:1037600077FF0123FFF765BA114B35499C600422AE
:10377000022010F06DFF0123FFF75BBA0C4B3149BB
:103780005C600422012010F063FF0123FFF751BAAF
:10379000074B2D491C600422002010F059FF012323
:1037A000FFF747BA0022FFF790BA0023FFF741BAAC
:1037B00060A902200521000079200000ED1F000013
:1037C000611F0000D51E0000491E0000BD1D000045
:1037D000311D0000A51C0000191C00008D1B0000FD
:1037E000011B0000751A0000E91900005D190000B6
:1037F000D118000045180000B91700002D1700006F
:10380000A11600001516000089150000FD14000027
:1038100071140000E513000059130000CD120000E0
:1038200041120000B5110000291100009D10000098
:1038300011100000850F0000F90E00006D0E000051
:10384000E10D0000550D0000C90C000070B58AB0F4
:1038500002462821684616F051FC1349134C144DBA
:10386000144A154B154E03C9206095E80300A0606B
:1038700092E80300E0600FCB04F1140507C596E859
:10388000030025F8023B1B0C2B70102260622823DA
:1038900069464C2504F12C0065602261A36216F094
:1038A00009FD20460AB070BDACDD010074CD0120D9
:1038B000B4DD0100BCDD0100C4DD0100D4DD010088
:1038C000174A1849184BF0B51468DFF86CE0174F29
:1038D000174D184E024603C918609EE80300986011
:1038E00097E8030004EB440405EBC404D86096E8B1
:1038F0000300A4689C612C3A22F0010210250121EA
:1039000002F178076400022658629A625F60DC6107
:103910001E841D615D849982D9821846F0BD00BF66
:10392000603E0020DCDD010090DE0120ECDD0100C6
:1039300008E50100F4DD0100E4DD01002DE9F041BE
:10394000514C524A524994B000250CA801232560DD
:1039500009F084FE14AA4F480E9B12F8145D9DF8DE
:10396000341083600573017100F10D031A3012F8F1
:10397000011F03F8011B83424649F8D1139B464FB0
:10398000CB610CA809F092FD0023DFF81C813B609D
:1039900005E00CA809F0A0FD0CA809F087FD0CA813
:1039A00001223C4909F0CEFE0CA809F0A3FD20B984
:1039B000226840F2E6339A425FDD0CA809F07AFDF6
:1039C0000028E6D10CA809F073FD0146684610F006
:1039D0005BF9324904A810F057F904A9684610F0C1
:1039E0008FF9002836DB04A810F00EF908AD236823
:1039F00003EB430603EB86030CA808EB030609F070
:103A000057FD0146304616F055FC2549284610F072
:103A10003BF92946684610F073F90646284610F02F
:103A2000F3F8334601226946284610F07BF9284610
:103A300010F09CF90646284610F0E6F83B68164A56
:103A40009E422368C8BF166001332360684610F0A9
:103A5000DBF89EE708AD1349284610F015F9294612
:103A6000684610F04DF90646284610F0CDF804A837
:103A700010F0CAF8002EE9DBB9E70CA809F016FD32
:103A800014B0BDE8F08100BF5CCD0120FCDD010079
:103A900060AA022028CD012084D6012000DE01008A
:103AA00010DE010008DE01005064022008B505495F
:103AB0000122002007F02CF9FE210348BDE8084050
:103AC00009F020BD14DE010060AA022038B5064DC1
:103AD0000648074C2946012207F01AF920702846AB
:103AE00007F0ECFC207038BD14DE010040E101203D
:103AF0005CCF01202DE9F84306460DF017F80128A8
:103B00002CDDDFF86490DFF858800025D8F800003D
:103B1000134F05EB400430460DF03AF809EB04244E
:103B200001464FF48072204610F0EAFB0135304622
:103B30000DF04CF8022DE9D13B680133BF2B02D8C0
:103B40003B60BDE8F8830022064B3A60064907480F
:103B50004FF4C03207F082FA054B1870BDE8F883C5
:103B6000E4E001200C970220D04C002020D001205E
:103B70005CCF01202DE9F041434A444D0023AEB013
:103B8000044680F8F63013700CE00DF001F8404B5D
:103B900001464FF480723F4807F060FA28702046D3
:103BA0000DF014F820460CF0C1FF00282046ECDC94
:103BB000394B1B78012B08D0364807F06DFC287074
:103BC000FFF7BCFE2EB0BDE8F081324C002200238E
:103BD000204607F087FCD4F810804046FFF770FEBF
:103BE0000EAF044600F1200E20686168A268E36809
:103BF0003E460FC6103474453746F5D120686168DB
:103C0000A268002307C70022224807F06BFC0EA918
:103C10001F4B20482C2207F021FA424600231D4862
:103C200007F060FC1D4A1E4B12781B780A2A08BF59
:103C30000022C3B91B4B009204AC93F900301A4A1E
:103C40002046282116F05AFA2046FFF7FFFD54229D
:103C5000014619A810F054FB19A90D4B0D48542228
:103C600007F0FCF9A8E7114811490E4B00780978D4
:103C700093F90030009204AC0290019120460D4A65
:103C8000282116F03BFADFE7E0E001205CCF0120BD
:103C90000C97022020D00120CC3E00205D3E002069
:103CA000B0D6012081A4022048DE0100A03E002001
:103CB000723E002018DE010038B5264C2368002B28
:103CC00030D1254B1A6840F2E6339A4200DD38BD08
:103CD000224B23491A68097801321A6051B3214BEB
:103CE000214D1B682149224803EB430305EBC30325
:103CF000204D5B6816F050FA00211D4807F042FD88
:103D00000A2228701A491C4807F02CF8022828704B
:103D100015D00A221649184807F024F80123287004
:103D2000236038BD144807F0B7FB124A0023107017
:103D30002360C6E70B4B0C4D1B681049D3E70E48B8
:103D400007F0AAFB09282870E3D1094807F040FDD5
:103D50002870DEE798E301205CCD012084D60120A5
:103D6000CC3E0020603E002008E501006CDE010032
:103D700080D201205CCF012020D0012060DE010034
:103D80002DE9F0414B4F4C4A3B78002515701BB391
:103D9000013BDAB249494A4B91F800E0DFF830C103
:103DA000013202EB420203EB820803F10804BEF188
:103DB000000F50D0197A05EB4506A4F108020CEB70
:103DC000860619B107CA86E8070001350C3343455A
:103DD00004F10C04EBD1EBB23A4E3B703378ABB14B
:103DE000013BDBB25D1C05EB4507DFF8D4C0DFF813
:103DF000E4E0BF0000230CEB030207CA0EEB030450
:103E00000C33BB4284E80700F5D1EBB22E4A337085
:103E1000072009230E212D4DDFF8BC80DFF8BCC040
:103E200050709646937011701646002071B30122AF
:103E30000027C4B2531EDBB203EB4303F0B1012CE5
:103E40002DD005EB83031B7A03B1013791422CD9A6
:103E50000132D2B2EEE714F8082C643A032AB5D93D
:103E6000197A05EB4506A4F108020CEB8606002939
:103E7000ACD007CA013586E80700A7E70CEB83033F
:103E80001B7A03B101379142E2D8F9B2013003281D
:103E9000317002D016F8011FC8E7BDE8F08108EBC9
:103EA00083031B7A002BEED0ECE70EF80070BDE820
:103EB000F08100BF393E002018D0012070D30120CE
:103EC0006CE70100283E0020D4CC012040DD010039
:103ED0009CE30120D8CC012070E60100C4E601007B
:103EE000F0B5054B1B688DB004460D4603A8194676
:103EF00009F05AF902E000BF00D00340FF2C00F2A5
:103F00001E81DFE814F0640162016001540149017F
:103F100047013E011C011C011C0131011F012F0141
:103F2000D7011C011C011C011C011C011C011C01EE
:103F30001C011C011C011C011C011C011C011C0199
:103F40001C011C011C011C011C011C011C011C0189
:103F50001C011C011C011C011C011C011C011C0179
:103F60001C011C011C011C011C011C011C011C0169
:103F70001C011C011C011C011C011C011C011C0159
:103F80001C011C011C011C011C011C011C011C0149
:103F90001C011C011C011C011C011C011C011C0139
:103FA0001C011C011C011C011C011C011C011C0129
:103FB0001C011C011C011C011C011C011C011C0119
:103FC0001C011C011C011C011C011C011C01D50150
:103FD000D301CB011C011C01C3011C011C011C01EC
:103FE0001C011C011C011C011C011C011C011C01E9
:103FF0001C011C011C011C011C011C011C011C01D9
:104000001C011C011C011C011C011C011C011C01C8
:104010001C011C011C011C011C011C011C011C01B8
:104020001C011C011C011C011C011C011C011C01A8
:104030001C011F01B901B701AF01A7019B011C01C0
:104040001C011C011C011C011C011C011C011C0188
:104050001C011C011C011C011C011C011C011C0178
:104060001C011C011C011C011C011C011C011C0168
:104070001C011C011C011C011C011C011C011C0158
:104080001C011C011C011C011C011C011C011C0148
:104090001C011C011C011C018A0100017F011C0183
:1040A0001C011C011C011C011C0177016F0167012F
:1040B0001C011C011C011C011C011C011C011C0118
:1040C0001C011C011C011C011C011C011C011C0108
:1040D0001C011C011C011C011C011C011C011C01F8
:1040E0001C011C011C011C011C011C011C011C01E8
:1040F0001C011C011C011C011C011C011C011C01D8
:104100001C011C01BB018B4B8B4C196803A809F0E7
:104110004BF894F90030069F079E089D002B00F095
:10412000E880012B00F0FA80022B08D18DE8C00056
:1041300005F2B273814A82480C2115F0DFFF8048F6
:104140000DB0F0BD7F4B1B687F49804A7C4803EB74
:10415000430301EBC3030C215B6815F0CFFF7848E4
:104160000DB0F0BD7A4BEEE77A4A7B4B116874488C
:1041700053F82130754A0C2115F0C0FF70480DB07E
:10418000F0BD764B764A93F900306D480C2115F05E
:10419000B5FFD4E7734BF5E7734B1B780A2B40F25E
:1041A0009380724A66480C2115F0A8FFC7E7704B50
:1041B0001B68002B00F088806E4B614A1B681380DF
:1041C0001B0C9370BBE76C4BBDE76C4ACDE76C4AA8
:1041D0006C4BCBE76C4B624A9B6859480C2115F03D
:1041E0008DFFACE7684B5E4A5B6855480C2115F0C3
:1041F00085FFA4E7644B5A4A1B6851480C2115F00F
:104200007DFF9CE7614B93F90030012B7DD0604A24
:104210004B4B07CA03C31A7091E7474C049E94F9AD
:104220000030059D002B5AD0002B88DD00962B46D0
:10423000584A43480C2115F061FF80E7564B1B7824
:10424000474A3F4803EB83030C2115F057FF3C48D6
:104250000DB0F0BD514B524A1B7839480C2115F076
:104260004DFF6CE74F4B414A1B7835480C2115F048
:1042700045FF64E74C4BE2E74C4BE0E74C4B3048E2
:1042800053F825200C2115F039FF58E7494B4A4ACD
:104290001B782B480C2115F031FF50E7474B304A73
:1042A0001B7827480C2115F029FF48E7444BEEE71F
:1042B000444BD8E7444B1B7853B9444A204B92E80F
:1042C0000300186019713AE71D4B414A1A6036E73E
:1042D000404A1B4B92E80300186019712FE72B46E8
:1042E00000963D4A16480C2115F008FF94F900305D
:1042F0009AE705F2B2738DE8C000384A10480C21E5
:1043000015F0FCFE94F900300BE7354A0C4B92E8AF
:1043100003000A0C186099809A7110E705F2B273D5
:104320008DE8C0002F4A06480C2115F0E7FE94F9ED
:104330000030F9E600D0034037E10120B8DE01008B
:1043400024E10120603E002008E5010094DE010028
:10435000683E0020C03E00203C3E0020643E00201D
:1043600084DE0100F53E00205D3E002078DE010085
:10437000B03E0020C8DE0100D03E0020D0D2012097
:10438000F03E0020FC3E0020306402205E3E002013
:10439000DCDE0100BCDE0100703E0020A03E0020FB
:1043A000CCDE0100723E0020653E0020713E002000
:1043B000E43E0020A83E00208CDE0100F43E0020F8
:1043C000F63E0020663E0020CC3E002000DE0100CC
:1043D0004F46460008DE0100ACDE010098DE010019
:1043E000D4DE0100A8DE0100F0B4774A137C012B73
:1043F00040F2828072B6D36862B6744C7449226807
:10440000744891F9005093FBF5F3934203601EDD6D
:10441000714A724B92F900201A60714A137C012B89
:104420001FD972B6D36862B66E4A6F4E15680068BF
:1044300091F9001093FBF1F3AB422060336053DC41
:104440004ADB6A49136000200860F0BC70473FDA1D
:10445000674A624B92F900201A60614A137C012B73
:10446000DFD872B692E848001D783778567A137A0A
:10447000374205EA03057FD0937A03F003030DB1B9
:1044800043F0040343F008039D10013B95720D2B8C
:10449000C8D801A555F823F0C1450000B945000072
:1044A000B1450000B945000025440000A9450000C1
:1044B000C1450000C1450000A94500002544000099
:1044C000B9450000B1450000B9450000C1450000F4
:1044D000424B00221A60A0E74548444990F9000089
:1044E00008601360F0BC70473B48404990F90000F9
:1044F00008601360F0BC704772B613685068197892
:104500000478507A137A044201EA03012CD0937A9A
:1045100003F0030309B143F0040343F008039910C7
:10452000013B91720D2B3FF666AF01A151F823F0CC
:10453000A145000099450000914500009945000003
:10454000F743000089450000A1450000A145000097
:1045500089450000F743000099450000914500009F
:1045600099450000A1450000937A03F00303002958
:10457000D5D043F00403D2E7937A03F00303002D70
:1045800082D043F004037FE7D368023BD36033E774
:10459000D3680233D3602FE7D368013BD3602BE7A6
:1045A000D3680133D36027E7D368023BD3603AE78F
:1045B000D3680233D36036E7D368013BD36032E778
:1045C000D3680133D3602EE738D401207CA40220C5
:1045D000383E00208CE30120C8D6012068D301209A
:1045E00088D601207CD2012018E4012028D40120A3
:1045F000D4D2012008B5074808F0A6FD064808F007
:10460000A3FD064808F0A0FD0548BDE8084008F0F5
:104610009BBD00BF88A4022038CE0120C8CD012058
:10462000D8CD012008B50221242010F0B9F80221CC
:104630001D2010F0B5F80221252010F0B1F8262039
:10464000022110F0ADF86420BDE8084010F0AEB8CB
:10465000F0B583B0064608F0BFFC074608F012FC30
:104660000546384608F000FC1A4B93F90030CBB9E8
:1046700044B22644172E20DD1C46EDB2694638466A
:1046800008F00EFB68468DF801508DF8024008F0E6
:1046900025FC10F05FF8684608F020FC08F0ECFC00
:1046A00003B0F0BD012B0ED16AB295193B2D08DC89
:1046B000002D0DDBEDB2C4B2E0E7002E06DBF4B254
:1046C000DBE70025F7E7EDB2C4B2D7E71724D4E75C
:1046D0003B25F0E737E1012070B582B0064608F0CF
:1046E0007BFC054608F0EAFB0446284608F0D8FBA8
:1046F000264B93F90030DBB922B2324440F2E97321
:104700009A4221DD3124C6B26946284608F0C8FA2B
:1047100068468DF805608DF8064008F0DFFB10F064
:1047200019F8684608F0DAFB08F0A6FC02B070BD84
:10473000012B0FD141B231440C291DDC002923DDAE
:10474000CEB24E34E4B2DFE740F2E2739A4215DCB7
:104750003724D8E7022B14D108F03EFC0C4D05FBA2
:104760000605284608F0AAFB0446284608F098FBF0
:104770004E34C6B2E4B2C7E71E46E2E74E32D4B2C8
:10478000C1E74E34E4B2BEE70C26DAE737E1012098
:10479000805101002DE9F04F794B7A491B780022B6
:1047A00087B00A60002B00F09D80774B93F800A043
:1047B0004FEA4A2A754A76487649007813680F7896
:1047C00004900133B8421360059080F2C480724EA9
:1047D000049D7249724A734BD1F800C0D2F8009020
:1047E00093F80080DFF8E0B1002406EB45061636AA
:1047F00002940394A64604E001354444BD42E4B269
:104800003AD036F8023F013303EB830365454FEAA4
:10481000430306DD53459E4403DD012203959A467A
:104820000292B9F1020FE7D15900C829A8BFC821E7
:10483000B3F5407F4BDA5C4A82FB0320DA17801A1B
:10484000C000019200F4FC60584A82FB0323019AE5
:10485000C2EB630343F3CF03090201F4784103433E
:104860001943621C89B201352BF81410BD4244442F
:104870002BF81210E4B2C4D1029B002B76D1CCEB02
:1048800007039EFBF3FE9AFBFEFE07EE90EA9FED08
:10489000487AF8EEE77AF4EEC77AF1EE10FA1DD412
:1048A000384B1B68434C444A00219C4521601170E1
:1048B0000ADA42480068984206DD394B1B6801203D
:1048C000013B8342107010D907B0BDE8F08FB3F5FB
:1048D000106F4FDB1F234FF4FC60BDE7294A002314
:1048E0001360DFE74FF4007A64E7049BBB422BDAE6
:1048F000DFF8D8E0049B284A314D02EB4302D5EDA6
:10490000006A0EEB8303DDF814E0163208460E460B
:1049100032F802CF93ED007A07EE90CAF8EEE77A0C
:1049200077EE877AF4EEE67AF1EE10FAE3EC017AAC
:1049300004DD0121F0EE676A0E4670460EF1010EAD
:10494000BE45E5D17EB961B91E4A13880133138093
:1049500007B0BDE8F08F114B4FF0000ED3F800C048
:104960008DE72060F0E7C5ED006AECE7054B039AA0
:104970001A6084E7DA174FF4FC60019264E700BF25
:10498000B0D60120C8DE0120A03E002098A402205D
:104990005F3E0020B43E0020E8D6012090E30120D5
:1049A000303E0020503E002056555555398EE33894
:1049B000CDCC8C3F8CDE012094E301202CD401204F
:1049C00084A4022014E40120A4D40120E0DE01200C
:1049D00043090DD14000C3B21F200022022902D09A
:1049E00052105B1040105B0103EBC2231844704768
:1049F000012B05D1C04300F01F003F230022EDE74B
:104A0000022B04D100F01F023F230020E6E7032B16
:104A100008D100F01F035B00C3F13F03DBB20020AD
:104A20001F22DBE700200346D7E700BF10B592B096
:104A3000014601A80FF028F90023322201A805A998
:104A40000FF044F905A905480EF08AFD044601A8B7
:104A50000FF0DAF8A0B212B010BD00BF00E10120E3
:104A600030B50C4D2C78204444B2022C83B00EDCBF
:104A7000002CB8BF02240021EB2300930191F02306
:104A80002D2205482C700DF091F803B030BD0024A4
:104A9000F1E700BFB1D6012000E10120154B1B68F2
:104AA000032B10D0144A154B92ED007AD3ED006A17
:104AB000B8EEC77AC7EE267AFDEEE77A17EE903A9F
:104AC0005B00C72B00DD704730B50D4A0D481288DA
:104AD00085B099B20392CD1C3E221BB24524033906
:104AE000019309B22BB2029400920EF031F805B096
:104AF00030BD00BF303E0020243E0020B83E0020E4
:104B0000BC3E002000E10120E9B12DE9F041DFF8D1
:104B10003C8082B00D46174606B200240134A542FF
:104B20000ED0E307FAD5B8F8003000933A1B12B262
:104B30000A233146044801340CF0BEFEA542F0D1F0
:104B400002B0BDE8F081704700E10120AA3E0020DC
:104B50002DE9F04FFBB00DF10A090DF1FA0A002022
:104B60002F4E304F4D465446034636F8021F01EB98
:104B7000830287FB02E3D217C2EB6303D129A8BFEC
:104B8000D1210230D12B1A46A8BFD122EA2824F81D
:104B9000021F25F8022F9BB2E7D10DF1F40B04257B
:104BA00003E00235CB45ADB237D03AF8024F1E488C
:104BB000E4B2A4F11E062FB24FF6205326EAE676A1
:104BC000009339463346462239F8028F0CF064FED2
:104BD0004FF6E07306F146023946009312481E2351
:104BE0000CF05AFE002004F146020090C4F1D203FA
:104BF00039460D480CF050FE5FFA88F2042AD0D9ED
:104C00004FF6FF73009341323946052306480CF0F6
:104C100043FE0235CB45ADB2C7D17BB0BDE8F08FC6
:104C200002D701206766666600E1012010B50F4CCF
:104C3000002120460DF086F9204600210DF0AAFB48
:104C400020464FF6FF710EF00DFD204600210DF0BD
:104C50006BF90022204611460EF0E8FC204628227F
:104C60004621BDE810400DF0A7BA00BF00E10120C9
:104C70002DE9F0418CB00DF1FF3600250746B04616
:104C80002C4628460FF0ECFA08F8010F44400823A0
:104C900014F0010F4FEA540203F1FF3314BF82F006
:104CA0008C04C4F3470413F0FF03F1D101352F2D19
:104CB000E7D1F4B99DF82A30332B03D020460CB04D
:104CC000BDE8F0819DF82930312BF7D19DF82830CF
:104CD000302BF3D19DF82730302BEFD1013F0DF170
:104CE0002F0316F8012F07F8012F9E42F9D101205A
:104CF000E5E718460CB0BDE8F08100BFF8B5002527
:104D0000471E2C4617F8016F0823744014F0010F5A
:104D10004FEA540203F1FF3314BF82F08C04C4F352
:104D2000470413F0FF03F1D128460FF099FA8642A9
:104D300009D0314628460FF0ADFA28460FF090FA18
:104D40003B78834204D101352E2DDBD1002600E0D3
:104D50000126214628460FF09DFA28460FF080FADA
:104D600084420CBF30460120F8BD00BFF0B58DB0C5
:104D70006846FFF77DFF0446A0B16C499DF82120ED
:104D80006B4BBDF802709DF827609DF828509DF888
:104D900029000F80012A9DF82A101E705D709870FE
:104DA000D97002D020460DB0F0BD624E62489DF829
:104DB00008703760614D9DF80960066060499DF894
:104DC0000A60604B2E609DF806600E609DF80550ED
:104DD0005D4F5E485E495F4E1A609DF804303B604F
:104DE00003600D603560002D00F08680022D00F01C
:104DF0009680012D00F08A8000215748574D0DF014
:104E000093F8316854480EF0F7FE5548554A564914
:104E1000564B9DF807609DF81870067017709DF846
:104E200019609DF81A00059A2E7008701A70FDF727
:104E30007BFC9DF90C304E484E4A4F4F4F4D9DF82C
:104E40001B600499037018463B702E701160FDF7CB
:104E5000EDFD9DF90B304A494A4A0B701846137014
:104E6000FDF70CFE9DF82230DFF844E1464A474F3B
:104E70009DF824009DF825609DF82650DFF834C188
:104E8000106059B25B428EF80030DFF82CE13970C7
:104E900056603F4F95609DF823208CF800108EF8E7
:104EA00000203C499DF81C203A703B4A9DF81D703B
:104EB0000F703A499DF81F7017708319384A9DF892
:104EC00020700F70EB429DF81E1011703FF46AAF16
:104ED0000221FFF77DFD334B022118803046FFF79A
:104EE00077FD314B012118802846FFF771FD2F4BCC
:104EF000188020460DB0F0BD294617480DF04AFA3B
:104F0000294615480DF01EF835686FE70021124854
:104F10000DF040FA002110480DF014F86CE7002164
:104F20000D480DF00FF8356863E700BF60CE012033
:104F3000E0D60120683E0020603E0020D03E0020E8
:104F4000C03E0020B03E002070D20120D0D201200F
:104F5000F03E0020303E002000E10120663E0020AF
:104F6000CC3E0020F63E0020F43E00205D3E0020B6
:104F7000643E0020243E002070CD0120A83E002089
:104F800081A40220F53E002030640220C8D6012012
:104F9000713E0020653E0020723E0020A03E0020B1
:104FA000703E0020AA3E0020BC3E0020C43E0020EF
:104FB000D4D201205E3E0020383E0020F0B5454BA3
:104FC0004549464F464E474D474C484809681B885F
:104FD000474A3F6836682D68246800681268DFF821
:104FE00054E18FB001338DF8101042498DF81170E3
:104FF0008DF812608DF829508DF80C408DF80E0058
:105000003D4F3E4E3E4D3F4C3F4809788DF80D20B8
:10501000ADF80A303D4A3E4B9EF800E03F783678C6
:105020002D78246800788DF821104FF47A718DF86E
:105030000FE012788DF820708DF822608DF82350E3
:1050400006940790ADF8081093E80300DFF8E8E055
:10505000304F314E314D8DF81420C0F307238DF8B9
:1050600030302F4C2F49304A9EF800C097F800E0AE
:1050700037782E782D4D8DF82F00C0F307438DF82B
:1050800031302B4B2478097812782D788DF8134025
:10509000000E1C688DF832008DF82A108DF82B2038
:1050A00059689A688DF824C0002302A88DF825E07D
:1050B0008DF827708DF828608DF826508DF82C40DB
:1050C0008DF82D108DF82E20ADF83430FFF716FE38
:1050D0000FB0F0BD60CE0120683E0020603E002091
:1050E000D03E0020B03E0020D0D20120C03E0020A3
:1050F000F03E0020663E0020F63E0020F43E0020F8
:10510000A83E0020243E00205D3E0020643E00209A
:10511000E8DE0100653E0020723E0020A03E002037
:10512000F53E00205E3E0020383E0020703E00200C
:1051300030640220CC3E0020713E0020F8B5544C73
:10514000206054480AF06EFE534B1B78013B012B44
:1051500037D9524E524D53485349236801220027F4
:1051600037602A6002600A607BB1012B1FD0022BDE
:105170002BD0032B50D0042B06D14C4B00224FF4E4
:10518000803119629A61DA61F8BD02230B60484AE6
:10519000484B10681860FDF70FFA2368434A002156
:1051A0004FF48030012B9061D1611162DFD13F4B10
:1051B000414800214FF48032D96119629A6102623C
:1051C000F8BD2368002BD0D1E1E74FF4804131488E
:1051D0000AF0F6FD394ADFED3A6A1278334B07EEF2
:1051E000902AF8EEE77AB7EE006A86EE277A002278
:1051F0004FF48031D9619A611A62B4EEE67AF1EE29
:1052000010FA2DD4F2EE007AB4EEE77AF1EE10FA4D
:1052100033DD4FF4002125E01E4D4FF48041284638
:105220000AF0E4FD274B214A1B7885F8283000213D
:105230004FF48030D06191611162DBB1322B28BF15
:105240003223012292FBF3F307EE903AF8EEE77A6D
:10525000194A2368C5ED097A00211162D1618AE7F4
:1052600040F28F210B48144A016200212368116229
:10527000D1617EE7F7EE007AEAE7DFED136ADFED52
:10528000137AE7EE267AFCEEE77A17EE901AE9E752
:1052900070D2012078CF01205CDE0120C0DE012029
:1052A0006CD301208CD40120C83E002054D40120AE
:1052B00030D40120243E0020F4CF0120F63E00200F
:1052C0000AD7233CA83E002000008047EE7CFF3E2A
:1052D00038B5274D274C2B68274A03EB43030121A0
:1052E00014F823301170662B31D064200FF05EFA71
:1052F0002B6803EB430314F82330652B1DD01F4BA1
:105300001F4C1A682368013A934214DC33EA2303E2
:1053100028BF134603EB43021A49236003EB8203C1
:10532000194419480D2215F0B1F817491748BDE87E
:1053300038400BF025BB0023ECE7154B1868062816
:1053400013DC0028B8BF0620FDF7DAFAD7E7114AC8
:10535000114B10684FF4803100220228DA61996104
:105360001A6204BF9A61D961BFE70020ECE700BF71
:10537000C0DE01209CE3012034E101205CCD01204E
:1053800078D201205064022080D20120ECD201208A
:10539000683E002070D2012054D401202DE9F0474E
:1053A00082B020BB8B4F8C4A3B688C4E8C498D4C15
:1053B000156809688C4A03EB430E16F82EE084F852
:1053C00000E0127800292ED12B44013A934240F399
:1053D00081800B46002840F0848003EB4301814A22
:1053E00016F821103B60117002B0BDE8F08701286B
:1053F000FAD1784F794E3A687C497D4C7D4B0968EB
:1054000025681B6802EB420216F82220C92A06D042
:10541000794C744A03EB430E14F82E401470774A0B
:1054200012780029D0D00129DED1002DDCD0DFF8A0
:10543000B48198F8003004467BB971490A782A444F
:1054400052B2002A03DB5A2A1346A8BF5A23184631
:105450000B70FDF7EBFA98F80030032B63D0012BAB
:105460004DD0022B72D0042B00F06B81C92B00F0C1
:10547000E1803B6803EB430316F82330A3F1650298
:10548000012AB1D8564A1268012A00F08581652B9D
:10549000AAD1584B584A1B6803EB430312F8233038
:1054A000032BA1D1514B1B68012B9DD1554B1B7870
:1054B000022B99D1544A4E4B11681B680B44062BA2
:1054C00000F3D082002BB8BF062318461360FDF707
:1054D00017FA89E733EA230328BF134600283FF46D
:1054E0007CAF012880D14449424C3E4A236003EB03
:1054F000430011F82030137002B0BDE8F087434A32
:1055000013782B445BB2002BC0F256813F2BA8BF0F
:105510003F2318461370FDF7B1FA3D4A98F8003062
:10552000002111609DE7374B1B78022BA1D0394A2F
:1055300013682B440E2BA8BF0E2323EAE3731846EF
:105540001360FDF7DDF998F8003088E7324B1B68EF
:10555000002B8ED1DFF8D4A0DFF8D490DAF8003039
:105560000093009AD9F80030D31AB3F5FA7F80F08F
:105570002581F92B00F2ED82642B41F2883328BF9C
:105580004FF4FA63254826490268096803FB05229F
:1055900041F657339A4240F31481224B83FB01E3D7
:1055A000C943C90FC1EBE3114FF47A7303FB01F355
:1055B0009342A8BF13461C4A036018461360FCF7C9
:1055C000FBFFDAF800300193019A98F80030C9F82F
:1055D000002048E7C0DE012068D301209CE30120C1
:1055E0006CD3012018D00120393E00208CD401203A
:1055F00028D40120C83E0020D8CC0120283E00201D
:1056000070CD01205CDE0120683E002081A40220D4
:1056100084A40220D03E002070D20120243E00202D
:1056200050D40120D34D621030D40120C4AD0220EB
:10563000FCE00120002C00F09280012C7FF419AFD7
:10564000BD4CDFF808832378FF2B98F9003000F079
:105650006A816278FF2A00F0AF81A278FF2A00F009
:10566000C081E35CDFF8D092692B00F04B81662BA0
:1056700000F0D480642B40F0D281B04A13782B44E0
:10568000232B00F3E1810E2B40F3F78107EE903AD4
:105690009FEDAB7AF8EEE77ADBB227EE877AA9497D
:1056A0001370D1ED006AA84BC7EE267AFDEEE77ABB
:1056B000C3ED007A98F90030DFF87C82E25CA34CFD
:1056C000CA2A00F0C781972A00F08C80982A00F03F
:1056D0009B809B2A40F097819D490B782B440C2B93
:1056E00000F38580002B40F3EC81DBB20B7002F1FC
:1056F0002E03DBB2022B00F2FA81A2F1D20095490F
:10570000954C51F82030246803EB8505A54241F8FB
:10571000205000F3578135EA250528BF2546D22AB7
:1057200041F8205000F0C181D32A00F0AF8101215F
:10573000E8B2FFF74DF9002D00F04E81874B18803D
:1057400097E6874A137803EB4503DBB2092B1FD892
:105750000A231370FCF7E8FF98F8003086E67B4BCD
:10576000804893F900208049835C895C2B445BB2BC
:1057700001398B4232DC002BC0F2378183541ABBD3
:1057800003EB430379496C4A11F82330137070E638
:10579000322BA8BF3223DCE775497648764A096880
:1057A0000468126801392244914219DB32EA22026C
:1057B00028BF0A4602606AE60023AAE64FF4FA739D
:1057C000E0E641F65833F6E6012A12D103EB430333
:1057D0006A49594A11F8233053704AE62346CDE707
:1057E0000022E7E766490B782B443C2B11DD0123AF
:1057F0007CE7022A7FF43DAE03EB430361494E4A46
:1058000011F82330937034E65F490B782B443C2B1E
:10581000EDDC002B3FF769AF3C2367E75B4A11786B
:1058200005EB85030B44C82B00F308810E2B40F3D6
:105830002281DBB2137098F90030E35C052B15D19F
:10584000534A13782B445BB2002BC0F210813F2BDC
:10585000A8BF3F234F49137018460B70FDF70EF990
:1058600098F900304C4AE35C00211160062B12D1FC
:105870004A4A13782B445BB2002BC0F2FA805A2BB1
:10588000A8BF5A234649137018460B70FDF7CEF88F
:1058900098F90030E35C042B0BD0E3B941490A6866
:1058A0002A44032A00F38C80002AB8BF03220A602E
:1058B00000E72B4A137803EB4503DBB2092B40F2D8
:1058C000BF80322BA8BF32231370FCF72DFF98F94D
:1058D0000030E35CE1E7012B40F08980324A136835
:1058E0002B44042B0CDC002BB8BF04231360E1E62F
:1058F000032B40F031812D4A13682B44012B7EDDB0
:105900000023F3E72A490B782B44102B00F39A80ED
:10591000032B40F3C880DBB2264A0B70002182F8CB
:105920002830516287E7002B7FF493AE2846FFF7BB
:1059300097F898F9003094E6AC3E0020663E0020CF
:1059400000007A44B83E002090E30120B1D6012047
:10595000703E0020306402206C3E0020C43E0020D7
:105960005D3E002048CE0120D4CC0120C4E60100D9
:105970005CCD012078D2012068D3012070E60100BF
:10598000713E002040DD0100653E0020F43E002015
:10599000F53E002081A4022084A40220643E002061
:1059A00070CD0120F03E0020D0D20120B03E00207A
:1059B000A83E002078CF0120012B7FF44EAEB5E742
:1059C0001A4674E70023D22A41F8203059D0D32A4E
:1059D00075D0D42A7FF44DAD774B4FF400421A8036
:1059E00047E5022B7FF43DAEA0E74BB2C6E60A2B9B
:1059F0007FF47EAF714A13682B44012B80DC002BAF
:105A0000B8BF012372E7962A7FD16D4A13682B44F1
:105A10000E2B1DDC042BD8BF0E23136029E5652B4C
:105A200051D1684A13782B441E2B04DC042B1BDC59
:105A30001E2313703EE6052313703BE60F23F9E6A1
:105A40000A2341E7042367E79FED5F7A0F2326E6E9
:105A50000523E2E72846FEF73FFE94F9003018F8E8
:105A6000032030E6002330E5DBB2137022E600238A
:105A7000F0E6002306E7C823DCE69FED547A2323F3
:105A80000DE6534B4FF6E0721A80F2E40221E8B2C1
:105A9000FEF79EFF4F4B1880002D7FF4EAAC4FF6C7
:105AA000FF721A80E5E4102336E70221E8B2FEF720
:105AB0008FFF474B1880002D7FF4DBACE2E7454BAE
:105AC000EDE70C2312E6022B7FF4B5AE424A1368D1
:105AD0002B440E2BA8BF0E2323EAE3731846136052
