:1000000000000320D1010000A51002005D100200D5
:100010005D1002005D1002005D1002005D10020024
:100020005D1002005D1002005D100200A5100200CC
:10003000A51002005D1002000D350200113502000E
:10004000A5100200A5100200A5100200A5100200D4
:10005000A5100200A5100200A5100200A5100200C4
:10006000A5100200A5100200A5100200A5100200B4
:10007000A5100200A5100200A5100200A5100200A4
:10008000A5100200A5100200A5100200A510020094
:10009000A5100200A5100200A5100200A510020084
:1000A000C5500200D1500200A5100200A5100200A8
:1000B000A5100200A5100200A51002003D230200B9
:1000C000A5100200A5100200A5100200A510020054
:1000D000A5100200A5100200A5100200A510020044
:1000E000A5100200A5100200A5100200A510020034
:1000F000A5100200A5100200A5100200A510020024
:10010000A5100200A5100200A5100200A510020013
:10011000A510020081260200A5100200A510020011
:10012000A5100200A5100200A5100200A5100200F3
:10013000A5100200A5100200A5100200A5100200E3
:10014000BDF40000A5100200A5100200A5100200D9
:10015000A5100200A5100200A5100200A5100200C3
:10016000A5100200A5100200DD500200A51002003B
:10017000A5100200A5100200A5100200A5100200A3
:10018000A5100200A5100200A5100200A510020093
:10019000A5100200A5100200A5100200A510020083
:1001A000A5100200A5100200A5100200A510020073
:1001B000A5100200A5100200A5100200A510020063
:1001C000A5100200A5100200A5100200A510020053
:1001D0005C4B4CF2205210B51A804DF628121A8052
:1001E00000BF00BF20F062FF574B4FF030621A6033
:1001F000564A9A60564ADA60564B4FF470021A60BB
:10020000554B564A1A60564B1A78110703D51A787F
:1002100042F008021A70534B5349AA221A70534AEB
:10022000534B8B4204D252F8040F43F8040BF8E707
:10023000504B514900228B4202D243F8042BFAE77B
:100240004E494F4A002352F8230041F8230001335E
:10025000742BF8D14B4B4C4A802103F8011B93427D
:10026000FBD14A4B454A1A60494B8A221A70A3F5C2
:10027000805324225A70A0221A709A799207FCD5D2
:100280009A79D406FCD4434A937903F00C03082BE3
:10029000FAD1414B60221A7002331A78802AFCD1BD
:1002A0003C4B01221A715D225A719A799006FCD555
:1002B0009979384A4906FBD5384B394919600021EC
:1002C000596020231370937903F00C030C2BFAD19F
:1002D000344B354A1A60354A354C136813F4807331
:1002E00003D123604FF4A8531360324B324A1A6093
:1002F00000225A60072243F8042C304AC3F80C2D20
:1003000062B621F059FB2368DA0705D52C4821F0A5
:100310005BF82C4B2C4A1A602C4B1B785B0609D5DA
:10032000284C294B22689A4204D1254821F04CF8E8
:100330000023236028F05CFA20F0BEFE20F0B2FD1E
:10034000FEE700BF0E20054030800440823F0400DD
:100350000100002B88ED00E0002008E0030000858C
:1003600002D0074000E00740C052022014AF050051
:10037000303F0220C05202208C870220003A022027
:100380000000000000E400E064E400E008ED00E0AC
:10039000005006400040064001E007404480044011
:1003A0000000060204800440C010070010D0034083
:1003B00014D0034014E000E01FBF02000000202022
:1003C00044F24E611CE00340A5C3945A00F007407C
:1003D000FFFFFFFFFFFFFFFFFFFFFFFFFFFFFFFF2D
:1003E000FFFFFFFFFFFFFFFFFFFFFFFFFFFFFFFF1D
:1003F000FFFFFFFFFFFFFFFFFFFFFFFFFFFFFFFF0D
:10040000FFFFFFFFFFFFFFFFFFFFFFFFDEF9FFFF23
:1004100010B5054C237833B9044B13B10448AFF33E
:1004200000800123237010BDC05202200000000094
:1004300010AF0500084B10B51BB108490848AFF3D1
:1004400000800848036803B910BD074B002BFBD0A0
:10045000BDE81040184700BF00000000C452022051
:1004600010AF0500C05202200000000000207047BD
:10047000704700BF00207047002070474FF0FF30EA
:10048000704700BF006910B103689B6A1847704746
:10049000006910B10368DB6A18477047006910B142
:1004A00003681B6918477047006910B103689B69AE
:1004B00018474FF0FF307047006910B10368DB68E0
:1004C00018477047006910B10168096B0847704709
:1004D00010B4006920B10468616B5DF8044B0847F3
:1004E0005DF8044B704700BF006910B103689B6B57
:1004F0001847002000217047006910B10368DB6BCA
:100500001847002000217047006910B103681B6C78
:1005100018477047006910B103685B6C1847704753
:10052000006910B103689B6C18470148704700BF11
:1005300028D80200006910B10368DB6C18477047C7
:1005400038B50B6904462BB11D6819462B6D9847C9
:10055000204638BD4FF47A70064A23712373A06099
:1005600022600B692361002BF2D01A6901321A61F3
:10057000204638BD54CF0200006910B103685B6D9E
:1005800018477047006980B100B5036883B09B6A63
:1005900001220DF10701984720B19DF8070003B033
:1005A0005DF804FB4FF0FF30F9E74FF0FF30704784
:1005B00010B582B002AB026803F8011DD46A194677
:1005C0000122A04702B010BDC36D0BB101207047DE
:1005D000006E003018BF0120704700BF704700BF99
:1005E0009FED057ADFED057AE0EE077AFCEEE77A1B
:1005F00017EE901A14F0C6BC00000143EE7CFF3EDB
:1006000010B50446406E18B128F03CF9002363662B
:1006100004F12400BDE8104012F094BB10B5044B67
:10062000044640F8103B12F08DFB204610BD00BF81
:100630000CCF020010B5044602460369054906487E
:1006400020F0E6F9206920B10368BDE810405B6A3C
:10065000184710BDECD00200544602200246036940
:100660000149024820F0D4B908D1020054460220C2
:100670002DE9F041002394B01A460546243104A820
:100680004FF47A74254F8DF804308DF80C301293A6
:1006900013930294009712F015FC129B002B32D09A
:1006A000682020F075FD04469DF80460029A9DF8CC
:1006B0000C301B481B4926764FF47A7800262060C0
:1006C0006161E26184F8203004F1240004A92671FC
:1006D00026732661C4F8088012F006FB2369124ACB
:1006E0006761013366662E71C5F808802E732C6130
:1006F00023612A600D4B009304A812F023FB2846C7
:1007000014B0BDE8F081139B002BC9D1064A2B71B0
:10071000AC602B732B612A60ECE700BF30CF020086
:10072000B4CF0200DCCE020054CF02000CCF020096
:1007300020F044BEF8B50D46064615F0B5FE15F09E
:1007400025FE044615F0B0FE15F012FE074615F022
:10075000ABFE15F0FFFDA4F2BC739BB27F2B02D859
:10076000FAB20C2A28D90023338015F09DFE15F02B
:10077000C7FD064615F098FE15F0D0FD044615F0AD
:1007800093FE15F0D9FDF3B2172B12D8E3B23B2B31
:100790000FD8C3B23B2B0CD8F302640103F4FF2340
:1007A00004F4FF542343C0F3460003439BB22B8061
:1007B000F8BD00232B80F8BDC0B21F28D3D87F011D
:1007C00007F4FF57384340EA43239BB2CCE700BF0E
:1007D00010B504460EF0E2FF204610BD826C62B1F7
:1007E000137803F0080303F0FF0003B3D3695069E3
:1007F000181A48BF6FF000407047C16CC1B191F842
:10080000313003F0080303F0FF0083B1D1E9042382
:10081000D1E90001101A30B463EB010100256FF03B
:1008200000448D4208BF844200D2204630BC70474D
:1008300008467047C36D13B1184610F0BDBF006E77
:1008400008B10FF0B1B94FF0FF30704700B5836CBD
:1008500083B063B1184601220DF1070110F0DCFEF0
:1008600001280CD19DF8070003B05DF804FBC06CB3
:1008700028B101220DF107010FF0C2F8F0E74FF0A7
:10088000FF30F1E7C36D13B1184611F00FBA006ED7
:1008900008B10FF055BE7047026842B11369013BC1
:1008A00013612BB9006810B103681B6A18477047C1
:1008B000704700BFD0B5C46D8CB1012B08BF002AB2
:1008C00001D30020D0BD1146204611F097F8002832
:1008D000F7D0204611F0F0F90028F2D0D0BD046E18
:1008E000002CEED020460FF077F90028E9D0204602
:1008F000BDE8D0400FF0E0BF10B5044619B10129A2
:1009000011D0002010BD5522202114F00FFB00282B
:10091000F7D0E28842F00402204692B22421BDE8DA
:10092000104014F003BB40F273122A2114F0FEFAB7
:100930000028E6D088222021204614F0F7FA00286B
:10094000DFD0E288204622F004022421BDE81040D6
:1009500014F0ECBAC36D13B1D86900217047036E6F
:1009600013B118695969704718461946704700BF96
:10097000C36D13B1586900217047036E13B193E83A
:100980000300704718461946704700BFC36D13B186
:10099000184610F041BE006E08B10FF031B84FF0AC
:1009A000FF307047836C13B1184610F005BFC06C60
:1009B00008B10FF0F9B84FF0FF307047C36D33B195
:1009C0001B7813F0700F14BF012000207047006ED9
:1009D00030B190F8313013F0500F14BF01200020D7
:1009E000704700BF836C13B1184611F05FB9C06C3B
:1009F00008B10FF0A5BD7047C26D62B1137803F066
:100A0000080303F0FF0003B3D3695069181A48BF05
:100A10006FF000407047016EC1B191F8313003F0C2
:100A2000080303F0FF0083B1D1E90423D1E90001F9
:100A3000101A30B463EB010100256FF000448D42C1
:100A400008BF844200D2204630BC70470846704739
:100A5000C36D9BB11A7812F0700F00D1704710B5BA
:100A600004460021184610F0C9FF206E28B100226C
:100A70000023BDE810400FF0AFB810BD006E002895
:100A8000ECD090F8313013F0500FE7D00022002363
:100A90000FF0A2B8836C13B1184611F049B9C06CBD
:100AA00008B10FF07BBF7047C36D13B1184611F04A
:100AB0003FB9006E08B10FF071BF704700B5836C8D
:100AC00083B08DF8071043B1184601220DF10701DC
:100AD00011F02EF903B05DF804FBC06C0028F9D0CA
:100AE00001220DF107010FF059FF03B05DF804FB7F
:100AF0000269084B10B50446036042B11369013B1B
:100B0000136123B9006910B103681B6A9847204636
:100B100010BD00BF54CF0200C26A0949094B10B58D
:100B200004460160C36142B11369013B136123B9FB
:100B3000C06A10B103681B6A9847204610BD00BF09
:100B4000945E040054CF020038B5C36D144A0260AD
:100B5000044600F12405F3B1284612F0F3F8606E64
:100B600008B127F08FFE0F4B6361284612F0EAF8B8
:100B700022690D4B236042B11369013B136123B914
:100B8000206910B103681B6A98472046682120F04D
:100B900005FB204638BD036E002BDDD1DFE700BF2B
:100BA000B4CF02000CCF020054CF020002690A4BFE
:100BB00010B50446036042B11369013B136123B9C8
:100BC000006910B103681B6A98472046142120F081
:100BD000E5FA204610BD00BF54CF0200D0B4039CFC
:100BE00016461F4634B1012C1ED0022C0DD0002019
:100BF000D0BC7047C46DDCB1012B08BF002AF6D20F
:100C000020461146D0BC10F0F9BEC36DB3B1DA690D
:100C1000B61847F10007012F08BF002EE7D2314672
:100C20001846D0BC10F0EABEC36D8BB15A69EFE72D
:100C3000006E0028DBD0D0BC0EF0CEBF006E0028C6
:100C4000D5D0D0E9042392197B41D0BC0EF0C4BFAB
:100C5000006E0028CBD0D0E9002392197B41EAE74F
:100C600038B5C36D124A0260044600F12405D3B1C1
:100C7000284612F067F8606E08B127F003FE0D4BAE
:100C80006361284612F05EF822690B4B236042B183
:100C90001369013B136123B9206910B103681B6A12
:100CA0009847204638BD036E002BE1D1E3E700BF33
:100CB000B4CF02000CCF020054CF020038B5446E0E
:100CC0000CB1204638BD05464FF4807027F0D2FDA8
:100CD0000146686680B1E86D0C7028B14FF48072EF
:100CE00011F070F96C6EECE7286E40B14FF4807231
:100CF0000EF0B8FD6C6EE4E7024C6C66E1E70C4662
:100D0000DFE700BFDC5202202DE9F0419AB040F24B
:100D10000223A24AA24906A812F06AF9189B002BE6
:100D200000F00A82682020F033FA044600259DF87E
:100D30001C60089A9DF824309A489B4920604FF423
:100D40007A780AAF26766161E26184F8203004F196
:100D500024003946257125732561C4F8088011F0F7
:100D6000C3FF2369914A924E656601338DF808509E
:100D7000CDF80C808DF810500594626123610196C6
:100D80008C4B0693384611F0DDFF8B4B8B491A686C
:100D90008B4C01A81FF03CFE8A4B8B491A6801A8B6
:100DA0001FF036FE894B8A491A6801A81FF030FEF1
:100DB000884B89491A6801A81FF02AFE874B884989
:100DC0001A6801A81FF024FE864B874993F900207A
:100DD00001A81FF01DFE854B854993F9002001A84D
:100DE0001FF016FE834B84491A6801A81FF010FEFD
:100DF000824B83491A7801A81FF00AFE814B824971
:100E00001A7801A81FF004FE804B81491A7801A8C6
:100E10001FF0FEFD7F4B80491A7801A81FF0F8FDF6
:100E20007E4B7F491A7801A81FF0F2FD7D4B7E4969
:100E30001A7801A81FF0ECFD7C4B7D491A7801A8B7
:100E40001FF0E6FD7B4B7C491A7801A81FF0E0FDFE
:100E50007A4B7B491A7801A81FF0DAFD794B7A4961
:100E60001A7801A81FF0D4FD784B79491A7801A8A7
:100E70001FF0CEFD774B78491A7801A81FF0C8FD06
:100E8000764B77491A7801A81FF0C2FD754B764959
:100E90001A7801A81FF0BCFD744B75491A7801A897
:100EA0001FF0B6FD734B74491A7801A81FF0B0FD0E
:100EB000724B73491A7801A81FF0AAFD714B724951
:100EC0001A8801A81FF0A4FD704B71491A8801A867
:100ED0001FF09EFD6F4B70491A8801A81FF098FD06
:100EE0006E4B6F491A8801A81FF092FD6D4B6E4939
:100EF0001A7801A81FF08CFD6C4B6D491A7801A877
:100F00001FF086FD6B4B6C491A7801A81FF080FD1D
:100F10006A4B6B4993F9002001A81FF079FD694BDA
:100F2000694993F9002001A81FF072FD674B6849D9
:100F30001A7801A81FF06CFD2268664901A81FF00D
:100F400067FD6268644901A81FF062FDA2686349F9
:100F500001A81FF05DFD624B62491A7801A81FF0DD
:100F600057FD614B61491A7801A81FF051FD604B94
:100F7000604993F9002001A81FF04AFD5E4B9FEDE8
:100F80005F7AD3ED007A5E4967EE877A01A8FDEEBD
:100F9000E77A17EE902A1FF03BFDB3E008440220E9
:100FA000447E0220B4CF0200DCCE020030CF02002B
:100FB00054CF02000CCF0200B043022028D102001F
:100FC000DC7B0220244402203CD102002C4302207E
:100FD00054D10200F843022064D102008043022071
:100FE00074D10200807C022084D10200CC580220FF
:100FF00094D1020024430220A0D102001844022010
:10100000B4D1020029430220C4D102005844022076
:10101000D8D102007D430220E8D1020048440220DA
:10102000F4D10200E343022000D20200F543022083
:1010300010D202003444022020D20200B643022023
:1010400034D202007C43022040D202003C43022002
:101050004CD20200B743022058D202007E43022045
:1010600064D202006078022070D20200CE780220A2
:101070007CD202008459022090D20200016C02202E
:10108000A4D2020064440220B4D202003043022001
:10109000C8D2020038440220DCD202007A43022087
:1010A000ECD2020074550220FCD20200046302203C
:1010B00010D302000644022024D302005D43022024
:1010C00038D302003D4302204CD302008473022037
:1010D00064D3020078D3020088D30200A0D30200B8
:1010E0005C430220B4D302008D430220C8D3020027
:1010F000E1430220D8D30200344302200000C8425A
:10110000E8D30200059898B10368DB689847059812
:1011100070B103681B6C9847059A019642B1136938
:10112000013B136123B9059810B103681B6A984706
:1011300001201AB0BDE8F081199B002B7FF4F2ADBD
:101140004FF47A72044E8DF808308DF81030059304
:10115000039201960AAF13E654CF020070B504461D
:1011600008460D4628F08CFB236802462946204697
:101170005B68BDE87040184738B5044608460D4620
:1011800028F07EFB2368024629465B682046984784
:10119000054620461FF020FC284438BD38B50A22F9
:1011A000002305461FF042FC044628461FF014FCAD
:1011B000204438BD38B505461FF078FC0446284663
:1011C0001FF00AFC204438BD38B50A22002305462A
:1011D0001FF02CFC044628461FF0FEFB204438BDBF
:1011E000624B634A6349DFF8B8C12DE9F043A3FBC2
:1011F0000053614C614E1D0C2F1DA4FB0043A2FB4C
:1012000000E4A7FB06896409A2FB04E2C9EB070618
:10121000DB0A09EB56065209A1FB03E1B608C2EB53
:101220000212A4EB8202C6EBC606C4EB0414090941
:10123000BE1BDFF870E1524FA0EB840001EB4101CF
:10124000504C3A600136A3EBC1010023CEF8006098
:10125000CCF800002160DFF834E14B4F1C4640F22F
:101260006D1864264FF4C87C0DE0C9090CFB1121F0
:1012700000285BD1002914BF42464FF4B7721344D3
:101280009D4211D3013404F2B272A7FB0201480956
:10129000744506FB102002D012F0030FE5D040F297
:1012A0006D1213449D42EDD2384A394994420C6084
:1012B0004CD004F2B27291073BD040F26D11324F24
:1012C000344EDFF8C8E0A7FB02075B1A4FEA571C51
:1012D00064204FF4C871FF0900FB1C2C01FB172789
:1012E000EB1A02F003021F2000210CE0451CBCF1A8
:1012F000000F00D15FB9012909D19D4224D85B1BA1
:10130000022116F8010F744501D0002AEED0984250
:101310001AD801310C29A3EB0003F2D10D211E488C
:101320001E4A013303601160BDE8F0834FF4B772C9
:10133000A5E71549A1FB02014809642606FB102018
:1013400040B14FF4B771BAE70131E8E740F26D11EF
:101350000022B4E7C9094FF4C87000FB112100292D
:1013600040F26D1108BF4FF4B771A8E707452EC2D0
:1013700089888888ABAAAAAAC5B3A29125499224D4
:1013800068740220407802201F85EB514EF8FFFF61
:101390009C7D02200CFD020008630220B860022040
:1013A000785502207460022038B50D2104460F4D97
:1013B0000F4821F0C1FE01210E4821F0BDFE21465B
:1013C00000230A2228461FF031FB28461FF004FBA9
:1013D0009FED090A112020F0B9F9082020F0A6F9A4
:1013E00021461120BDE8384020F000B854460220C4
:1013F00008D4020018DB0200001BB748DFED277A93
:101400009FED277A80EE270AB4EEC70AF1EE10FAB4
:1014100032D4F6EE007AB4EEE70AF1EE10FA12D406
:1014200030EE670ADFED1F7A30EE000A6FF01F0022
:1014300020EE270ABCEEC00A10EE103AC3F3C40334
:10144000184380B2704730EE470ADFED176A9FED10
:10145000157AC0EE267A002367EE877AFCEEE77AEB
:1014600017EE900AC00000F4FC606FEA40506FEA8B
:101470005050184380B27047C0EE077A00239FEDAA
:10148000097A67EE877AFCEEE77A17EE900A000297
:1014900000F4784000B2184380B2704700401C4608
:1014A000CDCCCC3D00007F43CDCCCC3E9FED7E7AB1
:1014B000DFED7E7AE0EE077A84B0F5EEC07AF1EEE9
:1014C00010FA00F1DF809FED7A7AF4EEC77AF1EE40
:1014D00010FA00F38980FCEEE77ACDED017A9DF8F1
:1014E0000420B5EEC00AF1EE10FA40F38580DFED7E
:1014F000717AB4EEE70AF1EE10FA7DD5DFED6E7A7F
:1015000060EE277AF5EEC07AF1EE10FA00F1B880BD
:101510009FED677AF4EEC77AF1EE10FA7ADCFCEE12
:10152000E77ACDED017A9DF80430DFED647AB4EE10
:10153000E70AF1EE10FA76D89FED617ADFED617A75
:10154000E0EE077AF5EEC07AF1EE10FA73D49FED73
:10155000587AF4EEC77AF1EE10FA00F39580FCEEBB
:10156000E77ACDED017A9DF804109FED526AB4EE52
:10157000C60AF1EE10FA29D507EE902A06EE901A67
:10158000B8EEE77A07EE903AF8EEE66AF8EEE77A18
:1015900027EE007A67EE807A26EE800AC7EE066AAA
:1015A00087EE867AC0EE067AFCEEE66ABCEEC77A73
:1015B000FCEEE77ACDED016A8DED027ACDED037A8E
:1015C0009DF804209DF808309DF80C10120222F4BA
:1015D000FF60DB0020F0070003F4FC63034343EAF1
:1015E000D10080B204B07047B5EEC00AF1EE10FA37
:1015F0004FF0FF023FF77BAFDFED2E7AB4EEE70A44
:10160000F1EE10FA35DBDFED307AB4EEE70AF1EEF9
:1016100010FA2ED8DFED297AB4EEE70AF1EE10FACF
:101620004FF0FF0388D908DDDFED287AB4EEE70A32
:10163000F1EE10FA01D8002197E7DFED247AB4EE3D
:10164000E70AF1EE10FAF6DD9FED217ADFED217A5F
:10165000E0EE077AF5EEC07AF1EE10FAEBD49FEDEA
:101660001E7AF4EEC77AF1EE10FA7FF778AFF02128
:101670007BE7DFED157AB4EEE70AF1EE10FA05DC50
:10168000002352E700222CE7FF216EE79FED137A3B
:10169000DFED137AE0EE077AF5EEC07AF1EE10FA9C
:1016A0007FF536AFECE700BF3F5B2C3D38A2B7C2F9
:1016B00000007F4300208C4454EF683E00600845E2
:1016C000821B76BEE71A034400C8004600780F4626
:1016D0005538963EC45F28C500007043C4E48ABEF6
:1016E000CAAD1B452DE9F0472DED028B8A4682B02D
:1016F000042180464048414D414FDFED428AB0EE23
:10170000408A21F019FD01213F4821F015FD514685
:101710003E481FF0CBF93D481FF05EF94FF47A794F
:1017200099FBFAF909F101095FFA89F9002440F2FD
:10173000E7362DE094FBF9F080B200EB400008EBB7
:101740008000D0ED006AD0ED017A90ED027A68EE6B
:10175000266A68EE277AFCEEE66AFCEEE77A16EE79
:10176000903A17EE902A68EE077A1B02D200FCEE40
:10177000E77A02F4FC6203F47843134317EE902AED
:101780000134C2F3C4021343B44225F8023F2DD002
:101790003B88642BCED007EE903AF8EEE77A87EEDE
:1017A000A87A17EE100A26F0EBFA07EE904AF8EE48
:1017B000E77ACDE9000187EEA87A17EE100A26F045
:1017C000DFFA9DED001B41EC100B23F0D1FD53EC33
:1017D000102B5046CDE9002326F0C0FADDE90023A6
:1017E00026F022FB26F0F8FD80B2A6E702B0BDECA1
:1017F000028BBDE8F08700BF18D40200FE01FF1F76
:10180000B443022000007A4418DB02005446022050
:101810002DE9F0432DED048BD34B83B0092206460E
:101820000621D2481A7021F087FC0121D04821F00E
:1018300083FC314600230A22CE481FF0F7F8CD483A
:101840001FF0CAF8002E40F0B380DFF86493CA4B53
:10185000CA4FCB4DDFF84083DFEDCA8A9FEDCA8ABD
:101860009FEDCA9AC9F8003034463CE007EE906A12
:10187000B8EEE77AF0EE086AC7EE267AF4EEC87A98
:10188000F1EE10FA60DCFCEEE77A17EE902A120215
:1018900002F4784211B2F2EE046AC7EE267AF4EE50
:1018A000C87AF1EE10FA4CDCFCEEE77A17EE902ADB
:1018B000D20002F4FC62C7EE097A0A4301340A3608
:1018C000F4EEC87AF1EE10FAD7BFFCEEE77A1F23E8
:1018D00017EE903AC3F3C403134340F2E732944245
:1018E00027F8023F4BD02B88B3F57A7FBED007EEA6
:1018F000903AF8EEE77AA8F8003087EEA87A17EE6B
:10190000100A26F03DFA07EE904AF8EEE77ACDE9A4
:10191000000187EEA87A17EE100A26F031FA9DED45
:10192000001B41EC100B23F023FD8DA3D3E9002312
:1019300051EC100B26F078FA26F06EFD07EE100A37
:1019400098E74FF4FC62B6E79149A4E7072E40F010
:10195000BB818B4BDFF858921A888E498E4BC9F8A1
:10196000001040F24C411980B2F57A7F9FED860A53
:101970008A4818BF1A804FF48071FFF7B3FE0B211D
:10198000874821F0D9FB0121794821F0D5FBD9F80E
:101990000040204627F074FF0146204621F0CCFB92
:1019A000744803B0BDEC048BBDE8F0431FF014B8DD
:1019B000012E69D1DFF8F8917A4B704F704D9FED91
:1019C000718ADFED718AC9F80030002634462DE0B7
:1019D00007EE906AF8EEE77AB5EE007A67EE877A5E
:1019E000F4EEE87AF1EE10FA00F39C80FCEEE77A70
:1019F000CDED007A9DF800104FEA012300F39680A8
:101A00004FEAC10203F4784302F4FC6243EA0203A2
:101A10001BB200F39280CA081343013440F2E7324C
:101A2000944227F8023F06F10A06A8D02B88B3F5A6
:101A30007A7FCDD007EE903AF8EEE77A564A87EEF5
:101A4000887A138017EE100A26F09AF907EE904A6A
:101A5000F8EEE77ACDE9000187EE887A17EE100AF2
:101A600026F08EF99DED001B41EC100B23F080FC5D
:101A70003BA3D3E9002351EC100B26F0D5F926F057
:101A8000CBFC07EE900AA7E7022E58D1DFF8209191
:101A9000454B3A4F3A4DDFF800819FED3A8AC9F83D
:101AA0000030002634460FE007EE906AB8EEE70AF1
:101AB000FFF7FCFC013440F2E7339C4206F10A06D2
:101AC00027F8020F3FF45BAF2B88B3F57A7FEBD09A
:101AD00007EE903AF8EEE77AA8F8003087EE887AB9
:101AE00017EE100A26F04CF907EE904AF8EEE77A66
:101AF000CDE9000187EE887A17EE100A26F040F94A
:101B00009DED001B41EC100B23F032FC14A3D3E934
:101B1000002351EC100B26F087F926F07DFC00EE37
:101B2000100AC5E76FF01F031F2275E703F478431F
:101B300043F4FC631BB21F226EE71F226CE7032EE7
:101B400076D1DFF86C90194B0C4F0D4DDFF84880C3
:101B50009FED0C8AC9F80030002634463AE000BFF9
:101B6000000000000088C340D05F022020D40200A3
:101B700018DB02005446022028D40200FE01FF1F99
:101B80001A44022000007A4400007F4300002042F3
:101B900000F8FFFF68D40200B443022004FE0200F4
:101BA00088D4020030D402003CD4020044D40200A5
:101BB0003059022007EE906AB8EEE70AFFF71EFCE4
:101BC000013440F2E7339C4206F10A0627F8020F7F
:101BD0003FF4D5AE2B88B3F57A7FEBD007EE903A81
:101BE000F8EEE77AA8F8003087EE887A17EE100A48
:101BF00026F0C6F807EE904AF8EEE77ACDE9000144
:101C000087EE887A17EE100A26F0BAF89DED001BD1
:101C100041EC100B23F0ACFB52A3D3E9002351ECB1
:101C2000100B26F001F926F0F7FB00EE100AC5E7CD
:101C3000042E16D13E4BDFF834911A883D493E4BB5
:101C4000C9F800104FF448711980B2F57A7F9FED02
:101C50003B0A3B4818BF1A804FF48071FFF742FDE2
:101C60008DE6052E16D1324BDFF800911A883549E2
:101C7000314BC9F8001040F24C411980B2F57A7F1F
:101C80009FED2E0A304818BF1A804FF48071FFF77D
:101C900029FD74E6062E7FF459AE254BDFF8CC9073
:101CA0001A882A49244BC9F800104FF46171198031
:101CB000B2F57A7F9FED210A254818BF1A804FF4AC
:101CC0008071FFF70FFD5AE6082E14D1184BDFF88C
:101CD0009C901B881F4AC9F80020B3F57A7F18BF73
:101CE000154A1D4818BF1380B7EE000A4FF48071E3
:101CF000FFF7F8FC43E6092E14D10D4BDFF86C908A
:101D00001B88164AC9F80020B3F57A7F18BF0A4A23
:101D1000134818BF1380B7EE000A4FF48071FFF725
:101D2000E1FC2CE6DFF8449029E600BFAFF3008029
:101D30001A4402204CD40200B443022000007F4326
:101D40001CF0020054D402001C36040060D40200CF
:101D5000344F040070D40200204204007CD40200FE
:101D6000040A0300000000000088C340305902202C
:101D7000404B41491A68DFF838C122F400422DE98E
:101D8000F0411A601A683D4E3D4F3E4D3E4CDFF823
:101D90002481DFF824E142F000521A600B683B4ACC
:101DA00043F480730B6000233B7033702B702370FF
:101DB000A4F55334A4F2FF34202188F800308CF8C5
:101DC00000308EF80030B371117022683049DFF8AE
:101DD000ECC042F0806222600A68AEF54C3E04F529
:101DE0004054A7F54B37A6F54B366FF47D78A5F533
:101DF000473542F08042AEF1020EA7F57E774644A9
:101E0000A5F2FA3508340A60224ACCF80030CEF840
:101E100000303B6033602B6023601368A1F51F41E5
:101E2000F8391C3218440860136843F00403136047
:101E300013685B07FCD521F083FA174A174E5379D4
:101E400003F0DF0353711FF06FF9154B1548164966
:101E5000164A04250227002437701D7004701B7871
:101E60000B6823F002030B6013682B43136030BF31
:101E7000BDE8F0813C80044010D0034001C0074021
:101E800000C0074002C0074003C0074008C0074029
:101E90000070044000D003400040064000E00740CE
:101EA00001E0074002E0074010E000E010ED00E034
:101EB00005C0074004C0074006C00740009004402A
:101EC000002310B4114C4173426104600373036139
:101ED00041B1194600E0426942F82310427B0133C8
:101EE0009A42F8DC0A4B1A680AB90CE01A46936960
:101EF000002BFBD190610023836143608360837377
:101F00005DF8044B70471860F5E700BF00CF020092
:101F1000A87D022070B5144686B005460E46002204
:101F2000194BD4E9000125F07FFF26F02DFA00229D
:101F3000154B0190D4E9020125F076FF26F024FA32
:101F40000022114B0290D4E9040125F06DFF26F028
:101F50001BFA00220C4B0390D4E9060125F064FF24
:101F600026F012FA084B04900022D4E9080125F06B
:101F70005BFF26F009FA3146059001AA284613F0C6
:101F800041FA06B070BD00BF0000D0412DE9F0411C
:101F9000012B94B0054641D0022B01F1040140F21F
:101FA0000223684618BF002311F022F8129B002B71
:101FB0003DD068201FF0ECF804469DF804602248EC
:101FC0002249029A9DF80C30206004AF26766161A8
:101FD00000264FF47A78394604F12400E26184F84F
:101FE0002030267126732661C4F8088010F07CFE2C
:101FF00023691749174A666601332E71C5F80880B0
:102000002E732C61616123612A60134B0093384663
:1020100010F098FE284614B0BDE8F08144F2022387
:102020000431684610F0E4FF129B002BC1D1139BD2
:10203000002BBED14FF47A71064A2B712B732B61A2
:10204000A9602A6004AFE0E7B4CF0200DCCE020052
:1020500030CF020054CF02000CCF020070B51E4DED
:102060004B08A5FB0335AD0805EB8504A400C5EBC3
:10207000C505E4B2A1EB4501272C0646CDB227D811
:10208000132C94BF0022012242F4B8722A217181DC
:10209000304612F04BFF202145F4807271813046AA
:1020A00042EA051212F042FF07EE905AB8EEE77AC4
:1020B00007EE904AF8EEE77AF7EE086AE7EE267A3E
:1020C000064BB1EE087A77EEC77AC3ED007A70BDA1
:1020D00040F27312DAE700BF9324499214610220A0
:1020E00038B515210446104821F026F801210F4883
:1020F00021F022F80E4B53F82450284627F0C0FB5D
:102100000146284621F018F80A481EF065FC0A48E6
:102110000023032CC361036204D800EB84004FF456
:102120008033C36138BD00BF94D4020018DB0200C5
:102130005C44022054460220D067022038B50E21AC
:102140000446114820F0F8FF0121104820F0F4FF68
:102150000F4B53F82450284627F092FB014628469F
:1021600020F0EAFF0B481EF037FC0B480023032C3D
:10217000C36183624362036204D800EB84004FF4BE
:102180008033C36138BD00BFACD4020018DB02004D
:10219000E443022054460220BC60022010B582B005
:1021A00007210190364820F0C7FF0121354820F073
:1021B000C3FF019934481EF079FC33481EF00CFC33
:1021C000324BDFED336A93ED006ADDED017A9FED6E
:1021D000317AC6EE865AF8EEE77A67EEA57AF4EE23
:1021E000C77AF1EE10FA2ADC2B4CC4ED007A1021EC
:1021F0002A4820F0A1FF0121224820F09DFF2068FD
:1022000025F0BEFD41EC100B02211F481EF058FCCA
:102210001D481EF0E1FBD4ED007AF5EEC07AF1EE38
:1022200010FA27D49FED1E7AF4EEC77AF1EE10FA79
:1022300014DD1C4A4FF00043136202B010BDC6EE1D
:10224000265A194B144CF2EE027AE5EE877A84EDA9
:10225000007AFDEEE77AC3ED007AC8E79FED137AC6
:10226000104A67EE877AFCEEE77A17EE903A13622F
:1022700002B010BD0B4A0023136202B010BD00BFB4
:10228000BCD4020018DB020054460220B4600220D5
:1022900000442C4700E0AB4638430220C4D402007F
:1022A0000044AC46F056022024430220C637BE4705
:1022B0002DE9F04FDFF828B22DED048B9BF80030AC
:1022C000022B8DB040F2AC8107217B487B4CDFEDC7
:1022D0007C9A9FED7C9A7C4E20F02EFF01217B485A
:1022E00020F02AFF00230A229BF8001078481EF0F5
:1022F0009DFB77481EF070FB0022764BD4E900016D
:1023000025F092FD26F040F80022724B0790D4E9A8
:10231000020125F089FD26F037F800226D4B089068
:10232000D4E9040125F080FD26F02EF80022694B47
:102330000990D4E9060125F077FD26F025F8654BD4
:102340000A900022D4E9080125F06EFD26F01CF861
:1023500007AA0B900021604813F054F800225D4B4F
:10236000D4E9000125F060FD26F00EF80022594B5B
:102370000790D4E9020125F057FD26F005F8002268
:10238000544B0890D4E9040125F04EFD25F0FCFFE4
:102390000022504B0990D4E9060125F045FD25F0B7
:1023A000F3FF4C4B0A900022D4E9080125F03CFDD4
:1023B00025F0EAFF07AA0B900121474813F022F805
:1023C0000022444BD4E9000125F02EFD25F0DCFF6E
:1023D0000022404B0790D4E9020125F025FD25F0AD
:1023E000D3FF00223B4B0890D4E9040125F01CFDEB
:1023F00025F0CAFF0022374B0990D4E9060125F0E9
:1024000013FD25F0C1FF334B0A900022D4E90801E7
:1024100025F00AFD25F0B8FF07AA0B9002212E48EF
:1024200012F0F0FF00222B4BD4E9000125F0FCFC58
:1024300025F0AAFF0022274B0790D4E9020125F0DE
:10244000F3FC25F0A1FF0022224B0890D4E90401FF
:1024500025F0EAFC25F098FF00221E4B0990D4E9F4
:10246000060125F0E1FC25F08FFF0022194B0A90B0
:10247000D4E9080125F0D8FC25F086FF07AA0B90C7
:102480000321154812F0BEFF4FF0000A32785FFAC0
:102490008AF39A4226D80AF1010ABAF1040FF5D15B
:1024A0000E4B00214FF48032D9611A620DB0BDECA1
:1024B000048BBDE8F08F00BFD8D40200B8430220DF
:1024C00000442C47936515392943022018DB02008C
:1024D000544602200000D041C0570220345302204D
:1024E000184402200D21BC4820F026FE0121BB48E3
:1024F00020F022FE514600230A22B9481EF096FA27
:10250000B7481EF069FAB74B9BF80020D3ED007A6C
:1025100089EEA77A4FF47A7303FB02F307EE903A41
:10252000F8EEE77A67EE877A67EE897A17EE900A17
:1025300025F026FC41EC100B41EC180B22F034FE88
:10254000A94B18688DED020B25F01AFC02460B46CC
:1025500025F0B8FA9DED020B02460B4651EC100B2C
:1025600025F08CFDB0EE480AF0EE680A04460D46F0
:1025700022F0BAFD2046294600229C4B58EC107BE5
:10258000CDE9044525F09EFA02460B460020984905
:1025900025F074FD002204460D46944B3846414612
:1025A000CDE9027825F08EFA00228946914B009001
:1025B00009F1004725F038FC22462B46019725F00B
:1025C00033FC25F0E1FE224607462B46DDE90001FB
:1025D000079725F029FC25F0D7FE002208904FF040
:1025E0004043DDE90201099725F01EFC22462B46F7
:1025F00025F01AFC25F0C8FEDDE904230A907B498A
:10260000002025F05DFA22462B4625F00DFC25F032
:10261000BBFE07AA0B905146774812F0F3FE3AE74B
:10262000764C77480B2120F087FD6D481EF0D4F9D9
:10263000D4E9000100226E4B25F0F6FB25F0A4FE44
:1026400000226B4B0790D4E9020125F0EDFB25F049
:102650009BFE0022664B0890D4E9040125F0E4FBC0
:1026600025F092FE0022624B0990D4E9060125F084
:10267000DBFB25F089FE5E4B0A900022D4E90801BD
:1026800025F0D2FB25F080FE07AA0B9000215A48C6
:1026900012F0B8FED4E900010022554B25F0C4FB2E
:1026A00025F072FE0022524B0790D4E9020125F07A
:1026B000BBFB25F069FE00224D4B0890D4E90401D4
:1026C00025F0B2FB25F060FE0022494B0990D4E9C9
:1026D000060125F0A9FB25F057FE454B0A90002284
:1026E000D4E9080125F0A0FB25F04EFE07AA0B90C7
:1026F0000121414812F086FED4E9000100223C4B42
:1027000025F092FB25F040FE0022394B0790D4E9DA
:10271000020125F089FB25F037FE0022344B08909A
:10272000D4E9040125F080FB25F02EFE0022304B79
:102730000990D4E9060125F077FB25F025FE2C4B06
:102740000A900022D4E9080125F06EFB25F01CFE5A
:1027500007AA0B900221284812F054FED4E9000188
:102760000022234B25F060FB25F00EFE0022204BBB
:102770000790D4E9020125F057FB25F005FE002261
:102780001B4B0890D4E9040125F04EFB25F0FCFD1D
:102790000022174B0990D4E9060125F045FB25F0EE
:1027A000F3FD134B0A900022D4E9080125F03CFB0D
:1027B00025F0EAFD07AA0B9003210F4812F022FE34
:1027C000104B00214FF480321962DA610DB0BDEC7C
:1027D000048BBDE8F08F00BFE0D4020018DB0200DC
:1027E00054460220B46002204C4402200000F03F16
:1027F0000000D0410000E03FC0570220B843022053
:10280000F0D402003453022070B54000334BDFEDAA
:10281000346A01FB0001B3FBF1F607EE906A314B1D
:10282000F8EEE77A01242DED068B1B68DFED2EAA6A
:10283000B0EE409AC7EE809A354622462346B6EE61
:1028400000AA03E00134B4F5807F38D007EE904A47
:10285000F8EEE77A67EEA97AF5EEC07AF1EE10FAB3
:10286000ACBF77EE8A7A77EECA7ABDEEE78A07EEDA
:10287000905AB8EE677AF8EE487A3544C7EE278A60
:1028800079EE688AF0EEE88AF4EEE68AF1EE10FA64
:10289000D8D518EE101AB1F5805FD3D213481EF0C8
:1028A0009BF8F4EEEA8AF1EE10FA13D923460134CC
:1028B000B4F5807FF0EE686A18EE102AC6D1BDEC40
:1028C000068B013B1B03013A03F47F23C2F30B0089
:1028D000184370BD234618EE102AF0E70095BA0A97
:1028E0008096184B00F1024000007A4454460220C2
:1028F000164B186810B510F400441DD0144B154A3F
:102900001B68154912680968C3F30444C2F3034005
:10291000C3F30463013304FB0000C9B21844FFF79A
:1029200073FF014638B10D4A1368002BFCDB0C4BDA
:102930000120196010BD10BD0D210A4820F0FCFBDC
:1029400009481EF049F8204610BD00BF3C800440F5
:1029500014F0024010F0024008F0024000F1024082
:1029600004F10240FCD4020054460220F8B50821CC
:1029700005466348634E644C20F0DEFB012163484A
:1029800020F0DAFB294662481EF090F860481EF0FD
:1029900023F8604B9FED607A1B78DFED605A2D01C4
:1029A0007219D2ED027A5E4A06EE903AF8EE677A34
:1029B000F8EEE66A27EE877A66EEA56A594B11783B
:1029C00083ED007A86EE876A574AC4ED007AFDEE01
:1029D000C66A16EE903A137071B1544B1B7806EE2E
:1029E000903AF8EEE66A66EEA56A86EE876AFDEE34
:1029F000C66A16EE903A1370F6EE006A67EEA67A93
:102A00007319C7EE876A5A68494F4A480421FDEE98
:102A1000E67A17EE903A3B7026F0FCFC464B474AAC
:102A2000012119601368002BFCDB35444449AA8955
:102A3000EB89444D444F013A1203013B02F47F22DB
:102A4000C3F30B0313430B60C8201EF063FF3F4B1F
:102A50001868FFF7A3FB3E4B01261E6014201EF0F2
:102A600059FF3C4B83F82467FFF722FC2B78B3B166
:102A70001821394820F060FB0121244820F05CFB3C
:102A8000206825F07DF941EC100B022120481EF052
:102A900017F81F481DF0A0FF3B7813B9F8BD3B782D
:102AA000ABB11A212D4820F047FB0121174820F037
:102AB00043FB206825F064F941EC100B0221144817
:102AC0001DF0FEFF1248BDE8F8401DF085BF1A2139
:102AD000234820F031FB31460C4820F02DFB2068C4
:102AE00025F04EF941EC100B022109481DF0E8FFDA
:102AF00007481DF071FF2B78002BB9D13B78CCE74C
:102B000010D602001CFC0200B460022018DB020098
:102B1000544602207D4302200000003B00007A441E
:102B2000A95E02201C440220187B0220B743022029
:102B3000786002201444022088E100E000F10240A5
:102B400004F10240DC780220447802202443022071
:102B500008E100E0186C02201CD6020054D60200E6
:102B600038D6020007EE900A9FED0C6ADFED0C6A82
:102B70000C4B0D48B8EEE77ADFED0C7A27EE067ABB
:102B800010B5E7EE267A01241C60FCEEE77A17EE1A
:102B9000901A12F0F7F9064B1C6010BD0AD7233CBF
:102BA0000000014388E100E0F47B0220EE7CFF3E60
:102BB00008E100E010B4036841681A780C78417AA3
:102BC000037A0C4202EA03021BD0837A03F0030368
:102BD0000AB143F0040343F008039A10013B8272E8
:102BE0000D2B0BD8DFE803F021071B070A15212165
:102BF000150A071B0721C368013BC3605DF8044B3E
:102C00007047837A03F00303002AE6D043F00403FD
:102C1000E3E7C3685DF8044B023BC3607047C368D9
:102C20005DF8044B0233C3607047C3685DF8044B22
:102C30000133C360704700BF08B5034BD3F8EC0005
:102C4000FFF7B8FF08BD00BF5483022008B5034B4F
:102C5000D3F8E800FFF7AEFF08BD00BF54830220A1
:102C600008B5034BD3F8E400FFF7A4FF08BD00BF8D
:102C70005483022008B5034BD3F8E000FFF79AFF16
:102C800008BD00BF5483022008B5034BD3F8DC0015
:102C9000FFF790FF08BD00BF5483022008B5034B27
:102CA000D3F8D800FFF786FF08BD00BF5483022089
:102CB00008B5034BD3F8D400FFF77CFF08BD00BF75
:102CC0005483022008B5034BD3F8D000FFF772FFFE
:102CD00008BD00BF5483022008B5034BD3F8CC00D5
:102CE000FFF768FF08BD00BF5483022008B5034BFF
:102CF000D3F8C800FFF75EFF08BD00BF5483022071
:102D000008B5034BD3F8C400FFF754FF08BD00BF5C
:102D10005483022008B5034BD3F8C000FFF74AFFE5
:102D200008BD00BF5483022008B5034BD3F8BC0094
:102D3000FFF740FF08BD00BF5483022008B5034BD6
:102D4000D3F8B800FFF736FF08BD00BF5483022058
:102D500008B5034BD3F8B400FFF72CFF08BD00BF44
:102D60005483022008B5034BD3F8B000FFF722FFCD
:102D700008BD00BF5483022008B5034BD3F8AC0054
:102D8000FFF718FF08BD00BF5483022008B5034BAE
:102D9000D3F8A800FFF70EFF08BD00BF5483022040
:102DA00008B5034BD3F8A400FFF704FF08BD00BF2C
:102DB0005483022008B5034BD3F8A000FFF7FAFEB6
:102DC00008BD00BF5483022008B5034BD3F89C0014
:102DD000FFF7F0FE08BD00BF5483022008B5034B87
:102DE000D3F89800FFF7E6FE08BD00BF5483022029
:102DF00008B5034BD3F89400FFF7DCFE08BD00BF15
:102E00005483022008B5034BD3F89000FFF7D2FE9D
:102E100008BD00BF5483022008B5034BD3F88C00D3
:102E2000FFF7C8FE08BD00BF5483022008B5034B5E
:102E3000D3F88800FFF7BEFE08BD00BF5483022010
:102E400008B5034BD3F88400FFF7B4FE08BD00BFFC
:102E50005483022008B5034BD3F88000FFF7AAFE85
:102E600008BD00BF5483022008B5024BD86FFFF79E
:102E7000A1FE08BD5483022008B5024B986FFFF7EE
:102E800099FE08BD5483022008B5024B586FFFF726
:102E900091FE08BD5483022008B5024B186FFFF75E
:102EA00089FE08BD5483022008B5024BD86EFFF797
:102EB00081FE08BD5483022008B5024B986EFFF7CF
:102EC00079FE08BD5483022008B5024B586EFFF707
:102ED00071FE08BD5483022008B5024B186EFFF73F
:102EE00069FE08BD5483022008B5024BD86DFFF778
:102EF00061FE08BD5483022008B5024B986DFFF7B0
:102F000059FE08BD5483022008B5024B586DFFF7E7
:102F100051FE08BD5483022008B5024B186DFFF71F
:102F200049FE08BD5483022008B5024BD86CFFF758
:102F300041FE08BD5483022008B5024B986CFFF790
:102F400039FE08BD5483022008B5024B586CFFF7C8
:102F500031FE08BD5483022008B5024B186CFFF700
:102F600029FE08BD5483022008B5024BD86BFFF739
:102F700021FE08BD5483022008B5024B986BFFF771
:102F800019FE08BD5483022008B5024B586BFFF7A9
:102F900011FE08BD5483022008B5024B186BFFF7E1
:102FA00009FE08BD5483022008B5024BD86AFFF71A
:102FB00001FE08BD5483022008B5024B986AFFF752
:102FC000F9FD08BD5483022008B5024B586AFFF78B
:102FD000F1FD08BD5483022008B5024B186AFFF7C3
:102FE000E9FD08BD5483022008B5024BD869FFF7FC
:102FF000E1FD08BD5483022008B5024B9869FFF734
:10300000D9FD08BD5483022008B5024B5869FFF76B
:10301000D1FD08BD5483022008B5024B1869FFF7A3
:10302000C9FD08BD5483022008B5024BD868FFF7DC
:10303000C1FD08BD5483022008B5024B9868FFF714
:10304000B9FD08BD5483022008B5024B5868FFF74C
:10305000B1FD08BD5483022008B5024B1868FFF784
:10306000A9FD08BD5483022008B50B463B2800F299
:10307000C682DFE810F0BB02B202A902A0029702EA
:103080008E0285027C0273026A02610258024F02BC
:1030900046023D0234022B022202190210020702EC
:1030A000AE01A5019C0193018A01810178016F01A4
:1030B00066015D0154014A01400136012C012201E3
:1030C00018010E010401FA00F000E600DC00D20055
:1030D000C800BE00B400AA00A00096008C008200C8
:1030E00078006E0064005A00500046003C00BD4A63
:1030F000BD49C2F8EC303B2004221EF0E3F8012069
:1031000008BDB84AB949C2F8E8303A2004221EF096
:10311000D9F8012008BDB34AB549C2F8E4303920D6
:1031200004221EF0CFF8012008BDAE4AB149C2F812
:10313000E030382004221EF0C5F8012008BDA94A5D
:10314000AD49C2F8DC30372004221EF0BBF8012064
:1031500008BDA44AA949C2F8D830362004221EF07E
:10316000B1F8012008BD9F4AA549C2F8D4303520E6
:1031700004221EF0A7F8012008BD9A4AA149C2F80E
:10318000D030342004221EF09DF8012008BD954A5D
:103190009D49C2F8CC30332004221EF093F8012060
:1031A00008BD904A9949C2F8C830322004221EF066
:1031B00089F8012008BD8B4A9549C2F8C4303120F6
:1031C00004221EF07FF8012008BD864A9149C2F80A
:1031D000C030302004221EF075F8012008BD814A5D
:1031E0008D49C2F8BC302F2004221EF06BF801205C
:1031F00008BD7C4A8949C2F8B8302E2004221EF04E
:1032000061F8012008BD774A8549C2F8B4302D2005
:1032100004221EF057F8012008BD724A8149C2F805
:10322000B0302C2004221EF04DF8012008BD6D4A5C
:103230007D49C2F8AC302B2004221EF043F8012057
:1032400008BD684A7949C2F8A8302A2004221EF035
:1032500039F8012008BD634A7549C2F8A430292015
:1032600004221EF02FF8012008BD5E4A7149C2F801
:10327000A030282004221EF025F8012008BD594A5C
:103280006D49C2F89C30272004221EF01BF8012053
:1032900008BD544A6949C2F89830262004221EF01D
:1032A00011F8012008BD4F4A6549C2F89430252025
:1032B00004221EF007F8012008BD4A4A6149C2F8FD
:1032C0009030242004221DF0FDFF012008BD454A56
:1032D0005D49C2F88C30232004221DF0F3FF012049
:1032E00008BD404A5949C2F88830222004221DF006
:1032F000E9FF012008BD3B4A5549C2F8843021202E
:1033000004221DF0DFFF012008BD364A5149C2F8F2
:103310008030202004221DF0D5FF012008BD314A55
:103320004D49D3671F2004221DF0CCFF012008BDAA
:103330002C4A4A4993671E2004221DF0C3FF012036
:1033400008BD284A464953671D2004221DF0BAFFD4
:10335000012008BD234A434913671C2004221DF0A5
:10336000B1FF012008BD1F4A3F49D3661B2004223C
:103370001DF0A8FF012008BD1A4A3C4993661A2097
:1033800004221DF09FFF012008BD164A38495366EC
:10339000192004221DF096FF012008BD114A35496D
:1033A0001366182004221DF08DFF012008BD0D4A70
:1033B0003149D365172004221DF084FF012008BD88
:1033C000084A2E499365162004221DF07BFF012038
:1033D00008BD044A2A495365152004221DF072FFD6
:1033E000012008BD54830220392C00004D2C000020
:1033F000612C0000752C0000892C00009D2C000021
:10340000B12C0000C52C0000D92C0000ED2C0000D0
:10341000012D0000152D0000292D00003D2D00007C
:10342000512D0000652D0000792D00008D2D00002C
:10343000A12D0000B52D0000C92D0000DD2D0000DC
:10344000F12D0000052E0000192E00002D2E000089
:10345000412E0000552E0000692E0000792E00003C
:10346000892E0000992E0000A92E0000B92E000020
:10347000C92E0000D92E0000E92E0000F92E000010
:10348000092F00005F4A60491365142004221DF0D3
:1034900019FF012008BD5B4A5C49D3641320042254
:1034A0001DF010FF012008BD564A594993641220AF
:1034B00004221DF007FF012008BD524A55495364FC
:1034C000112004221DF0FEFE012008BD4D4A524984
:1034D0001364102004221DF0F5FE012008BD494AA6
:1034E0004E49D3630F2004221DF0ECFE012008BDDD
:1034F000444A4B4993630E2004221DF0E3FE012051
:1035000008BD404A474953630D2004221DF0DAFEEE
:10351000012008BD3B4A444913630C2004221DF0DE
:10352000D1FE012008BD374A4049D3620B20042256
:103530001DF0C8FE012008BD324A3D4993620A20B1
:1035400004221DF0BFFE012008BD2E4A39495362F6
:10355000092004221DF0B6FE012008BD294A364983
:103560001362082004221DF0ADFE012008BD254A8B
:103570003249D361072004221DF0A4FE012008BDBA
:10358000204A2F499361062004221DF09BFE012052
:1035900008BD1C4A2B495361052004221DF092FEF0
:1035A000012008BD174A28491361042210461DF066
:1035B00089FE012008BD134A2449D3600320042258
:1035C0001DF080FE012008BD0E4A214993600220B3
:1035D00004221DF077FE012008BD0A4A1D495360F0
:1035E000012004221DF06EFE012008BD054A1A4983
:1035F0001360002004221DF065FE012008BD00209C
:1036000008BD00BF54830220192F0000292F00009D
:10361000392F0000492F0000592F0000692F0000AA
:10362000792F0000892F0000992F0000A92F00009A
:10363000B92F0000C92F0000D92F0000E92F00008A
:10364000F92F000009300000193000002930000077
:10365000393000004930000059300000F8B5044608
:1036600015460E46084602211EF02AF92846022178
:103670001EF026F9164A174B52F83610012001F5B4
:1036800000772760207252F83520607202F50077CB
:1036900000206760E060013BFDD191F8003292F8B4
:1036A000002203F00103D20744BF43F00203DBB260
:1036B000A37221463046FFF7D7FC214620742846E6
:1036C000FFF7D2FC237C184420742046F8BD00BFCD
:1036D00070AB0400C0D401002DE9F0418D488E4943
:1036E000D0ED007A8D4C8E4E8E4A8F4B8F4D03C994
:1036F0002DED048BF8EEE77A9FED8D8A206087EE42
:10370000887A96E80300A06092E80300E06093E8FE
:10371000070004F1140303C395E8030023F8022B08
:10372000120C8EB01A70F8221023606217EE100A85
:103730006260236184F8281024F022FB7D4BD3EDD6
:10374000007AF8EEE77ACDE9020187EE887A28263A
:1037500017EE100A24F014FB774ACDE90001282166
:1037600004A825F057FE04A904F12C00A66226F057
:1037700015F87249724B734A0F78127893E8030078
:10378000022F4FF0A40308BF0027012A6065A3653C
:103790006CD06D4B186824F0F3FA6C4ACDE9000147
:1037A000314604A825F036FE04A9054604F15C0064
:1037B00025F0F4FF5C35664BDFF860810FCB04AE7B
:1037C00007C60D22337004A960191DF073FB3B4638
:1037D000604A282104A825F01DFE0C35064604A9E0
:1037E000601925F0DBFF5C4B1B783544FBB15B4B6C
:1037F0005B4A1B78282104A825F00CFE04A9064684
:1038000008EB050025F0CAFF564B574A1B7803EB1F
:10381000830303EB8303282104A825F0FBFD354433
:1038200004A9064608EB050025F0B8FF35444F4BC8
:10383000186824F0A5FA4E4ACDE90001282104A811
:1038400025F0E8FD04A90646601925F0A7FF7019C8
:103850002023204404A90222ADF810301DF02AFBD9
:103860002E480EB0BDEC048BBDE8F081414BDFF873
:1038700010811B7840495A08A8FB02029208C2EB4B
:10388000C200A3EB4003DBB207EE103A07EE902A2A
:10389000B8EEC77AB7EE089AF8EEE76A27EE097A2B
:1038A000F3EE048AA6EEA87A0D78B1EE088A77EED8
:1038B000487A17EE900A24F063FA6B08A8FB0323FA
:1038C0009B08C3EBC302A5EB4205EAB207EE902AC0
:1038D00007EE103AF8EEE77AB8EEC77A67EE897A23
:1038E000CDE90201E7EE287A77EEC87A17EE900A62
:1038F00024F046FA214ACDE90001314604A825F01A
:1039000089FD04A9054604F15C005C3525F046FFFD
:1039100051E700BF1861022070D60200987C022097
:1039200078D6020080D6020088D6020094D6020023
:103930008096184BB47B02209CD6020018440220CB
:10394000B4D60200016C022014610220D4D6020019
:10395000E4D60200F4D60200A95E0220B74302209A
:1039600008D702007E43022018D7020068440220D4
:1039700028D702005F73022035440220BCD6020023
:1039800093244992F0B5844B844D854E854F93E83E
:1039900003002DED028B28600FCE8FB004AC0FC456
:1039A000D6F800E0C4F800E004AE0FCE05F108063A
:1039B0000FC60FCFC6F800E04FF4FC7C3F68C5F897
:1039C00004C004AE0FC6277004A905F11B0025F042
:1039D000E5FE754A754B9FED768A764E282104A840
:1039E00025F018FD04A9044605F12B0025F0D6FEAC
:1039F000714B186824F0C4F9704ACDE90001282100
:103A000004A825F007FD2B34074604A9281925F042
:103A1000C5FE6B4B6B4A1B78022B08BF0023282185
:103A200004A825F0F7FC3C4404A90746281925F012
:103A3000B5FE654A654B1168654A03EB011304A89E
:103A40009B68282125F0E6FC3C44034604A928197C
:103A50001C4425F0A3FE5F4A5F4B282104A825F0F3
:103A6000D9FC04A9034628191C4425F097FE5B4A9B
:103A70005B4B282104A825F0CDFC04A90746281992
:103A800025F08CFE574BD3ED007AF8EEE77A3C44F4
:103A900087EE887A17EE100A24F072F9524BD3EDB4
:103AA000007AF8EEE77ACDE9020187EE887A17EE20
:103AB000100A24F065F94D4ACDE90001282104A837
:103AC00025F0A8FC04A90746281925F067FE484BF5
:103AD0001868A6FB0030800907EE900AF8EEE77A36
:103AE0003C4417EE900A24F04BF9424ACDE900011C
:103AF000282104A825F08EFC04A90746281925F0E2
:103B00004DFE3D4B1B6886FB0326DB17C3EBA6105F
:103B100007EE900AF8EEE77A3C4417EE900A24F09C
:103B20002FF9364ACDE90001282104A825F072FCBE
:103B300004A90646281925F031FE314B9FED317A54
:103B4000D3ED007AF4EE477AF1EE10FA344411D155
:103B50002D4F0FCF04AE0FC697E8030046F8040BB5
:103B6000318004A9281925F019FE0C480FB0BDECCE
:103B7000028BF0BD254B93ED007A77EE877A17EE36
:103B8000900A24F0FDF8224ACDE90001282104A87A
:103B900025F040FCE5E700BF38D70200FC780220A2
:103BA00040D7020054D7020074D7020068D7020041
:103BB0008096184BD34D6210146102208CD70200FE
:103BC00018440220A0D70200804302201CFC0200FF
:103BD000B4D70200C8D70200085E0220E4D7020072
:103BE000C45D022018610220B47B0220F8D70200D5
:103BF0003C44022014D80200EC7802202CD80200A9
:103C0000684402200000FEC25CD802003443022057
:103C100044D80200224AF8B51268224B224E234FA4
:103C200003EB021304469D68214805211FF084FA26
:103C3000012120481FF080FA294630461CF036FF4B
:103C400030461CF0C9FE1C491C4B1D4E1D4A9D618F
:103C500003C9186097E80300986096E80300D860ED
:103C600092E803001849586203C9A4F1AC0222F09B
:103C70000102102401216D0002F5697E02277826D9
:103C8000C3F8A400DD61C3F8A820C3F804E01F84D2
:103C90009E621C615C849982D9821846F8BD00BF7F
:103CA000804302201CFC02005446022084D80200FB
:103CB00074D8020018DB02007CD80200B87302201E
:103CC0008CD8020094D802009CD8020070B509215B
:103CD000A2B082481FF030FA81481CF07DFE814B73
:103CE000814A00935021814B814825F093FB0921A3
:103CF00080481FF021FA01217F481FF01DFA7C48FF
:103D000025F0BEFD01467A481FF016FA74481CF0F3
:103D100063FE002302A8764A78490FF069F9149BE4
:103D2000002B00F0D18068201DF032FA04464FF4D9
:103D30007A759DF80C00049A9DF814307049A560BE
:103D4000704E207600256161E26106A984F820307A
:103D5000266025712573256104F124000EF0C4FF4F
:103D60002369694A6261013323616566674B029387
:103D700006A80EF0E7FF23680095596B0022002388
:103D800020468847236820469B6A242202A9984738
:103D90009DF821509DF820309DF8222003EB05234B
:103DA00013EB024559D09DF80D609DF80C209DF84D
:103DB0000E309DF80F009FED567A564902EB062211
:103DC00002EB034303EB0063A3F5697307EE903A3C
:103DD000F8EE677A67EE877A07EE105AF8EEC76A50
:103DE00087EEA67ABCEEC77A81ED007A0B214A48AD
:103DF0001FF0A2F9012140481FF09EF900230A227A
:103E0000294637481CF012FE35481CF0E5FD002C11
:103E100048D02368042202A99B6A204698470422BE
:103E20003E4902A825F004F8D0B13D4B002103F132
:103E3000780203F8011F9A42FBD15CB12368204647
:103E40001B6C98472369013B23611BB923682046FB
:103E50001B6A9847284622B070BD2E4B1D60C5E7EF
:103E60000E2130481FF068F91D481CF0B5FD2E4AA0
:103E70002368012111709B6A042202A920469847F9
:103E8000236802A99B6A782220469847244B0DF1AB
:103E9000070203F1780012F8011F03F8011F98428E
:103EA000F9D1CAE702A804221C4924F0C1FF002866
:103EB000BBD10E211B481FF03FF909481CF08CFDB7
:103EC000194B01221A70E1E7159C002C7FF42BAFEF
:103ED0000E4B029306A80EF035FF59E7A4D8020056
:103EE00054460220AC5E0220B0D80200745F02206B
:103EF000E0520220B8D8020018DB0200447E022003
:103F0000DCCE0200B4CF020030CF02000CCF0200A2
:103F10000000FA431C7B0220C4D8020094D802009F
:103F2000D35F0220D0D8020074740220F0B54D4D4A
:103F3000296891B0064621B100234B4A4B480EF048
:103F40004BFF4B4C49490023324604F110000EF060
:103F500083FF4849A06C00230B7000287BD05022BF
:103F60000EF030F844480EF0EDFE40480EF0EAFE48
:103F7000052142481FF0E0F8012141481FF0DCF81C
:103F80003C4825F07DFC01463A481FF0D5F83D48F5
:103F90001CF022FD296821B10023364A33480EF077
:103FA0001BFF334F002519E00EF00CF83649684628
:103FB0001CF0A2FE354904A81CF09EFE04A9684628
:103FC0001CF0AEFE10B304A81CF056FE68461CF0B0
:103FD00053FE0135ADB228480EF0B4FE002223494D
:103FE00025480EF06FFF284B00265022194648B393
:103FF000BC6C1E702046002CD6D1FC6C5022194699
:104000002046002CD2D00BF02DFCCFE71E4908A88B
:104010001CF072FE1E490CA81CF06EFE0CA908A82C
:104020001CF07EFE04460CA81CF026FE08A81CF01E
:1040300023FE04A81CF020FE68461CF01DFE002C88
:10404000C9D0C6E70C480EF07DFE08480EF07AFE97
:10405000284611B0F0BDE06C002883D050220BF050
:1040600001FC7FE7E87D0220E0D80200387C0220D6
:10407000A05602207C580220B0560220E4D802004C
:1040800018DB020054460220AC5E0220ECD802008D
:10409000F4D802002DE9F041172190B006467A4885
:1040A0007A4D1FF049F87A481CF096FC03217948B4
:1040B0001FF042F8012178481FF03EF8314674485D
:1040C0001CF0F4FC72481CF087FC296821B1002325
:1040D000724A73480EF080FE724C714900233246DA
:1040E00004F110000EF0B8FE6F49A06C00230B70B5
:1040F000002800F0AB8050220DF064FF6B480EF0FA
:1041000021FE67480EF01EFE052169481FF014F8D5
:10411000012161481FF010F8634825F0B1FB01460A
:1041200061481FF009F85A481CF056FC296821B173
:1041300000235D4A5A480EF04FFE5E4EB06C10B13F
:1041400000210DF05BFCF06C18B1002200230BF095
:1041500043FD594D534C00272F802FE050220DF086
:1041600031FF564968461CF0C7FD554904A81CF0AC
:10417000C3FD04A968461CF0D3FD002831D004A873
:104180001CF07AFD68461CF077FDB36C2A8849491B
:10419000002B54D05B695B09013B9BB2494940F25B
:1041A000E63001EB4201824298BF0132A1F8DC37D0
:1041B00098BF2A8001273D480EF0C4FD00223849EF
:1041C0003A480EF07FFE48B33C49A06C00230B70C8
:1041D0000028C3D1E06C0028C3D050220BF042FB72
:1041E000BFE7364908A81CF087FD37490CA81CF02A
:1041F00083FD0CA908A81CF093FD80460CA81CF0B8
:104200003BFD08A81CF038FD04A81CF035FD6846ED
:104210001CF032FDB8F1000FCDD0B6E723480EF008
:1042200091FD1F480EF08EFDC7B9082127481EF0EA
:1042300083FF17481CF0D0FB10B0BDE8F081CB6CB9
:10424000F3B11B685B09013B9BB2A7E7E06C002858
:104250003FF454AF50220BF005FB4FE70D211C48F3
:104260001EF06AFF01210C481EF066FF29880848ED
:104270001CF01CFC06481CF0AFFB10B0BDE8F08140
:104280004FF6FF738AE700BFFCD80200E87D0220EA
:104290005446022014D9020018DB0200E0D80200C4
:1042A000387C0220A05602207C580220B056022002
:1042B000E4D80200287C022074580220AC5E022060
:1042C000ECD802000002FF1FF4D8020028D9020037
:1042D00018D9020038B51121054631481EF02CFFCF
:1042E000092130481EF028FF01212F481EF024FF2D
:1042F00029462E481CF0DAFB2C481CF06DFB2C489C
:104300000EF020FD2B4B196821B100232A4A2848C2
:104310000EF062FD0A212948294C1EF00DFF0121F3
:1043200021481EF009FF244825F0AAFA0146224838
:104330001EF002FF1D481CF04FFB00231C492A46BB
:1043400004F110000EF088FD1E49A06C00230B70D4
:10435000F8B150220DF036FE04211B481EF0ECFE91
:10436000012111481EF0E8FE164825F089FA0146A1
:1043700014481EF0E1FE0D481CF02EFB0C480EF018
:10438000E1FC124B1B781BB9FFF7A0FC104B186027
:1043900038BDE06C0028DFD050220BF063FADBE779
:1043A00034D9020048D9020018DB0200544602202A
:1043B000387C0220E87D0220745F022054D902007C
:1043C000A0560220AC5E022060D90200097C0220C7
:1043D000E07802202DE9F04F8E488F4E97B00EF016
:1043E000B1FC8E480EF0AEFC316821B100238C4A3E
:1043F0008A480EF0F1FC10218A488B4D1EF09CFE7D
:104400008A481CF0E9FAA86C10B100210DF0F6FA08
:10441000E86C18B1002200230BF0DEFBDFF82CA2C1
:10442000DFF818820023AAF800304446994600229B
:104430007A4978480EF046FD002844D07C49A06CAB
:1044400000230B7050B350220DF0BCFDD8F848305B
:1044500073B31B7813F0700F14BF01230023CBB18B
:10446000AB6CBAF800207049002B00F0B8805B6993
:104470005B09013B9BB26F4940F2E63001EB420120
:10448000824298BF0132A1F8AC3F98BFAAF8002041
:104490004FF001095F480EF055FCC8E7E06C0028BA
:1044A000F8D050220BF0DEF9D8F84830002BD0D1EC
:1044B000E36C002BEED093F8313013F0500F14BFA3
:1044C00001230023CBE707465248CDF804900EF0B5
:1044D00039FC52480EF036FC316821B13B46504A57
:1044E0004E480EF079FCBAF80030012B65DD4FF034
:1044F00001094F46002F58D000273D46CDF80090C7
:104500004D4C2FE050220DF05DFD42480EF01AFC9C
:10451000002334F8022F41493E480EF09DFCD8F8A4
:104520004800002301358DF80830002833D002AE52
:10453000314650220DF046FD36480EF003FC3C4853
:1045400024F046F98346304624F042F9834507DDDE
:1045500034F8023C228824F8022C0137BFB22380B1
:10456000BAF80030C9EB0302954220DA00232B4948
:10457000228828480EF070FC2D49D8F84800002306
:104580000B700028BED12D4BD86C0028BDD0502216
:104590000BF068F9B9E7294BD86C02AE0028CBD0F4
:1045A000314650220BF05EF9C6E7CDF80090009935
:1045B0005A1E8A4209F101099CDC019BB3B907210B
:1045C0001F481EF0B9FD19481CF006FA11480EF0FC
:1045D000B9FB12480EF0B6FB17B0BDE8F08FCB6CFC
:1045E000ABB11B685B09013B9BB244E70C2115484A
:1045F0001EF0A2FD012114481EF09EFDBAF8001025
:104600000A481CF053FA09481CF0E6F9DEE74FF6B9
:10461000FF7330E7B0560220E87D0220387C02208C
:10462000E0D8020068D90200287C0220544602200B
:104630007C5802200002FF1FAC11FF1FA056022071
:104640008CD902007CD9020018DB020070530220D2
:104650002DE9F04F072195B0B448B54E1EF06CFD22
:104660000821B4481EF068FDB3481CF0B5F90421D8
:10467000B2481EF061FDB36C002B00F05281B048CF
:104680000EF060FBAF4BB04F1868B04DB04CDFF888
:1046900024B3DFF824A3DFF82493DFF82483FCF7A6
:1046A0009FFD3B6822682968019103F2B273009272
:1046B0005021A84AA84824F0ADFE3B68226829682A
:1046C000DBF8000001910092DAF80010D9F8002020
:1046D000049003F2B2730391029250219F4AA048C2
:1046E00024F098FE9E4A9F48502124F093FE3B6898
:1046F0002A682468DAF80000D9F80010DBF80070A6
:10470000039003F2B273029101921421964A049726
:104710000094964824F07EFE082195481EF00CFD7A
:10472000012194481EF008FD8B4825F0A9F80146A8
:1047300089481EF001FD80481CF04EF9D8F80010A1
:10474000002900F0E18000238B4A8C480EF044FBE6
:10475000044609218A488B4D1EF0EEFC0121854854
:104760001EF0EAFC214674481CF0A0F972481CF0C7
:1047700033F90123784A844805F110010EF0F6FA66
:104780000621044681481EF0D7FC012179481EF01D
:10479000D3FC214668481CF089F967481CF01CF9D5
:1047A00007217B481EF0C8FC012172481EF0C4FCA2
:1047B000AF6C002F00F097804FF0000E3946734623
:1047C000654A8DF818E006A88DF819E08DF81AE012
:1047D0000CF08CFE014658481CF068F956481CF055
:1047E000FBF8002C4FD010216A481EF0A5FC52485F
:1047F0001CF0F2F868495B4B009301240C70564B97
:10480000664A5748502124F005FE554825F038F8EF
:10481000014653481EF090FC47481CF0DDF8D8F8DC
:104820000010002972D040F201234D4A44480EF096
:10483000D3FA04460C215A481EF07EFC01214D4853
:104840001EF07AFC21463C481CF030F93A481CF036
:10485000C3F8B06C364B00285AD052490CF0B4FE65
:104860000446112150481EF067FC012141481EF00A
:1048700063FC214630481CF019F92F481CF0ACF8B5
:1048800015B0BDE8F08FA96C3E4BC1B12346324A4A
:104890008DF8184006A88DF819408DF81A400CF0D4
:1048A00025FED8B141492448FCF766FC2D4B009306
:1048B0003A4A294B2A48502124F0ACFDA5E7D96C8F
:1048C00061B12346244A8DF8494006A88DF84A4034
:1048D0008DF84B400BF0EEFB0028E3D1344916482D
:1048E000FCF74AFC91E7E96C00293FF474AF3B46C2
:1048F000194A8DF8497006A88DF84A708DF84B70EA
:104900000BF0D8FB014666E70C4622E70C4691E720
:10491000D86C002856D0234A00230BF03DFF0446F4
:104920009FE7F36C002B7FF4AAAEABE694D90200AC
:10493000A05602209CD902005446022058D50200FD
:10494000B056022000D003409C7D02200863022064
:10495000B8600220A8D9020064780220B8D9020009
:10496000AC5E0220085E0220D8D90200C45D02209D
:10497000F8D9020018DB0200E0D8020080570220BC
:1049800004DA020070570220387C022010DA02009C
:1049900018DA020020DA0200E878022034DA020095
:1049A00064DA0200C0E1E40074DA02003CDA0200DA
:1049B00050DA020078550220687402204078022004
:1049C000E87D022004464CE72DE9F0410721ADF5D2
:1049D000856D3648364F1EF0AFFB102135481EF06E
:1049E000ABFB35481BF0F8FF042134481EF0A4FB54
:1049F0003D68C5F35115002D00F02382304C314E37
:104A000004EB8535B04605E00DF092F904F58044DD
:104A1000A54214D0B36C4FF4804221461846002BB7
:104A2000F2D1D8F84C3021464FF480421846002B82
:104A3000ECD004F580440BF0B1FFA542EAD1082187
:104A40002148204D1EF078FB012120481EF074FB08
:104A50001F4B19481A680092002300990A221BF084
:104A6000E5FF15481BF0B8FF00233B6004E00DF0A4
:104A70005FF918481BF07EFD16481BF031FD002839
:104A8000144829DD1BF05AFDB36C044601464FF46F
:104A900080721846002BEAD1EB6C4FF480722146ED
:104AA0001846002BE5D00BF079FFE2E794D902001D
:104AB0005C78022088DA02005446022058D50200B1
:104AC0008019FF1FA05602209CDA020018DB0200AA
:104AD0006C850220705A0220B06CB94B002800F09F
:104AE00022810DF0E9F80C21B6481EF025FB0121CA
:104AF000B5481EF021FBB54AB54B1268B54803EB2B
:104B00000212002391680A221BF090FFB1481BF0AB
:104B100063FFB06CAA4B002800F0788100210CF0F4
:104B20006DFFB36CA64A002B00F07B81DF69002586
:104B30003C463846FFF76EF8AC2201461FA81CF031
:104B4000B9F9B06C9E4B002800F0728100210CF086
:104B500055FFB06C9A4B002800F010811FA9AC22C1
:104B60000DF0E6F8B06C964B002800F06C812C211B
:104B70000CF044FF984A9FED997A02F5F0701346C5
:104B800053F8041F07EE901AF8EE677AF4EE477AAE
:104B9000F1EE10FAC8BFB0EE677A9842F0D1B5EEE8
:104BA000407AF1EE10FA1CBFF7EE007A87EE877AB2
:104BB0000DF10301DFED8A6A52F8043F07EE903AE7
:104BC000F8EE677A904267EE877A67EEA67AFCEE97
:104BD000E77A17EE903A01F8013FEDD1B06C784BCF
:104BE000002800F0BA80782201A90DF0A1F8B06C7D
:104BF000734B002840F0BE80D86C18B122462B467B
:104C00000AF0EAFFFEF768FD4FF4807201464AA8F9
:104C10001CF050F9B06C6A4B002800F094804AA94F
:104C20004FF480720DF084F8FEF7ACFE4FF4007282
:104C300001468AA81CF03EF9B06C614B002879D07F
:104C40008AA94FF400720DF073F86648664E0EF0B4
:104C500079F8122165481EF06FFA01215A481EF0BA
:104C60006BFA634B5B4819881BF020FF59481BF017
:104C7000B3FE08215F481EF05FFA012152481EF082
:104C80005BFA5D4B534819881BF010FF51481BF02D
:104C9000A3FED6F88404002800F082808279C569DA
:104CA000564C4FF4007303FA02F292B2013DA2FB9C
:104CB000052322600DF032FFD6F884344A492A1ABF
:104CC000002B64D099794FF400738B409BB2A3FB07
:104CD00002234B4D4B482A6009211EF02DFA012179
:104CE00039481EF029FA29683A4800230A22090D9A
:104CF0001BF09CFE37481BF06FFE0A2142481EF055
:104D00001BFA012130481EF017FA21683148090DBD
:104D100000230A221BF08AFE2E481BF05DFE0DF5D3
:104D2000856DBDE8F081D86C00283FF4DCAE0BF057
:104D3000C3FDD8E6D86C002887D08AA94FF400724A
:104D40000BF02CFE81E7D86C00283FF46DAF4AA928
:104D50004FF480720BF022FE66E7D86C00283FF417
:104D600051AF782201A90BF019FEB06C144B00284A
:104D70003FF442AF39460CF041FE43E7D86C0028BF
:104D80003FF4F8AE1FA9AC220BF008FEEAE6D1F81A
:104D90008834002B68D0D3F83C3402FB03F298E748
:104DA000D6F8880400285BD0D0F83054D0F83C24E2
:104DB000124CA2FB052322600CF0C0F87CE700BF78
:104DC000A0560220A8DA020018DB0200804302206D
:104DD0001CFC020054460220705302200000000018
:104DE00000004843B0560220407E0220B8DA02009C
:104DF000A07D0220CCDA0200D87D0220707402204F
:104E000078580220D8DA0200E4DA0200D86C18B32D
:104E1000002200230AF0E0FEB36C144A002B7FF45A
:104E200085AED76CCFB1D7E904450025274680E68B
:104E3000D86C00283FF49EAE002200230AF0CCFE7E
:104E400087E60A4EFBE5D86C00283FF493AE2C228F
:104E500000230AF0C1FE8DE607460024002568E61F
:104E6000034C0246206034E71A4632E7A05602207F
:104E7000707402202DE9F0433B4EC1B0374619E073
:104E8000DFF8F08000253368384805EB430308EB72
:104E900003241BF053FB4FF48072014620461CF0A4
:104EA00009F8013531481BF065FB022DEBD13B6859
:104EB00001333B602D481BF013FB0128E0DC336815
:104EC000BF2B4ED9DFF8AC80294D444608F5C037DA
:104ED000A94605E00CF02CFF04F58044BC4214D038
:104EE000AB6C4FF4804221461846002BF2D1D9F822
:104EF0004C3021464FF480421846002BECD004F58C
:104F000080440BF04BFDBC42EAD10025294668469F
:104F10004FF48072356024F021F8144808EB052422
:104F20001BF0DEFAD8B111481BF008FB4FF4807279
:104F3000014620461BF0BEFF0C481BF01BFB214620
:104F40004FF48072684623F073FF0028E5D00135E6
:104F5000064808EB05241BF0C3FA0028E3D16D08CE
:104F6000356041B0BDE8F0835C780220705A0220C1
:104F7000A05602208019FF1F2DE9F047DFF8D082EC
:104F8000A34A98F8003000251570002B00F00D8121
:104F90005E1EF6B29F4AA04B92F800E0DFF8B4C262
:104FA000013606EB460603EB860603F10804BEF164
:104FB000000F00F0D980197A05EB4507A4F108022B
:104FC0000CEB870705F1010921B107CA87E8070043
:104FD0005FFA89F50C33B34204F10C04E7D12C4697
:104FE0000D218E4888F800501EF0A6F821460023B7
:104FF0000A228B481BF01AFD89481BF0EDFCDFF8F4
:1050000058E29EF8006096B1751EEDB2013505EBD1
:105010004505DFF804C2834FAD0000230CEB03020B
:1050200007CAFC180C33AB4284E80700F6D10E2106
:105030007D488EF800601EF07FF8314600230A227A
:1050400077487A4E7A4CDFF814A2DFF81492DFF832
:1050500014821BF0EBFC092571481BF0BDFC0D23ED
:10506000062229467348B2703370F37075701EF0D3
:1050700063F8012170481EF05FF800230A2231789E
:1050800067481BF0D3FC66481BF0A6FC29466B481A
:105090001EF052F8012168481EF04EF800230A2243
:1050A00071785F481BF0C2FC5D481BF095FC2946F7
:1050B00063481EF041F801215F481EF03DF80023CF
:1050C0000A22B17856481BF0B1FC55481BF084FC0D
:1050D00029465C481EF030F8012157481EF02CF894
:1050E00000230A22F1784E481BF0A0FC4C481BF02C
:1050F00073FC04250A270C215348257037711EF0D4
:105100001BF801214C481EF017F800233A4631796C
:1051100043481BF08BFC42481BF05EFC4B4BDFF816
:1051200048C11D70DFF844E1052323703546002097
:105130002C789CB301230027C2B201E00133DBB21B
:10514000591EC9B2A0B3012A3CD0022A57D0032A63
:1051500040D0042846D0A342F0D30130052805F8FA
:10516000017BE5D1BDE8F08714F8082CA2F16401B9
:1051700001297FF62FAF672A3FF42CAF197A05EB90
:105180004507A4F108020CEB870700293FF422AF82
:1051900007CA013587E80700EDB21BE70130274653
:1051A000052805F8017BC3D1DCE71C461D4617E73F
:1051B00001EB41010EEB8101097A0029CBD00137C7
:1051C000FFB2C8E701EB41010CEB8101097A00292C
:1051D000C1D0F4E701EB410109EB8101097A002913
:1051E000B9D0ECE701EB41010AEB8101097A09B181
:1051F0000137FFB2A342A1D33771BDE8F08701EBBD
:10520000410108EB8101097A0029A4D0D7E700BF4A
:105210001061022082590220204E0400F0DA0200C0
:10522000544602201C57022000DB0200885902204D
:105230008443022010DB020018DB02001CDB0200AA
:1052400028DB020034DB020040DB02004044022085
:105250002C440220207B022028430220B04E040070
:10526000E4340400A4D0020018FD020080350400DC
:1052700070B5044B1B68044684B018460D46FBF716
:10528000AFFF01E000D00340FF2C00F22081DFE8F7
:1052900014F098038D038B0380039E039B031E0170
:1052A000A6033A0358031E011E014D031E011E01F1
:1052B0001E011E011E011E011E011E011E011E01F6
:1052C0001E011E011E011E011E011E011E011E01E6
:1052D0001E011E011E011E011E011E011E011E01D6
:1052E0001E011E011E011E011E011E011E011E01C6
:1052F0001E011E011E011E011E011E011E011E01B6
:105300001E011E011E011E011E011E011E011E01A5
:105310001E011E011E011E011E011E011E011E0195
:105320001E011E011E011E011E011E011E011E0185
:105330001E011E011E011E011E011E011E011E0175
:105340001E011E011E011E011E011E011E011E0165
:105350001E011E011E011E011E014B034303A80373
:105360001E011E017E031E011E011E011E011E01E3
:105370001E011E011E011E011E011E011E011E0135
:105380001E0130021A02F5021E011E011E011E013D
:105390001E011E011E011E011E011E011E011E0115
:1053A0001E011E011E011E011E011E011E011E0105
:1053B0001E011E011E011E011E011E011E01E90229
:1053C000E702DD02D502C9023B0239020D030403E4
:1053D0000003F702240312031E011E011E011E0119
:1053E0001E011E011E011E011E011E011E011E01C5
:1053F0001E011E011E011E011E011E011E011E01B5
:105400001E011E011E011E011E011E011E011E01A4
:105410001E011E011E011E011E011E011E011E0194
:105420001E011E012603FA01EE011E011E011E01CE
:105430001E011E01E701DF01D701CF01C701BB013A
:105440001E011E011E011E011E01B901B101A901AB
:105450001E011E011E011E011E011E011E011E0154
:105460001E011E011E011E011E011E011E011E0144
:105470001E01A7019201860171016B0160011E01ED
:105480003C011E01330121011E011E011E011E01EE
:105490000001032D00F2B182AC4BAD4853F825203A
:1054A000142123F0B7FFAB4B1B78AB4200F0D18245
:1054B000A94B1B78AB420AD1A84B1B78002B40F0BC
:1054C0007483A74DA24C0FCD0FC42B682360A04856
:1054D00004B070BDA34B93F90030002B00F0A38201
:1054E000012B00F05583022BF1D19F4A984B92E893
:1054F000030018601971EAE79C4B9D4A93F900304C
:105500009348142123F086FFE1E79A4B9FED9A7AA6
:10551000D3ED007AF8EEE77AC7EE876A16EE900AC6
:1055200022F02EFC954B9FED967AD3ED007AF8EEA3
:10553000E77ACDE90201C7EE876A16EE900A22F0FB
:105540001FFC904ACDE900011421814823F062FF3D
:10555000BDE78D4A8D4B12781B787D48009214214F
:105560008B4A23F057FFB2E78A4A7948142123F087
:1055700051FFACE7884B9FED897AD3ED007AF8EEC6
:10558000677A67EE877A17EE900A22F0F9FB844A71
:10559000CDE9000114216E4823F03CFF97E7814BD1
:1055A0009FED757AD3ED007AF8EEE77AC7EE876A59
:1055B00016EE900AE9E77C4BD3ED007A9FED7B7AFB
:1055C000F8EEE77AC7EE876A16EE900A22F0D8FB6B
:1055D000774ACDE9000114215D4823F01BFF76E7EF
:1055E000744BE9E7744B754A1B885948142123F022
:1055F00011FF6CE7724B734A1B685548142123F066
:1056000009FF64E7704BF6E7704B1B78002B40F006
:105610003C816F4B4E4A1B6813801B0C937056E7FE
:105620006C4B6D4A1B784A48142123F0F3FE4EE779
:105630006A4B694A9B684648142123F0EBFE46E713
:10564000664B654A5B684248142123F0E3FE3EE75F
:10565000624B614A1B683E48142123F0DBFE36E7AB
:105660005F4B3B4819680C2224F0C8F92FE75D4BCB
:1056700093F90030012B00F0FA815B4A344B07CAE2
:1056800003C31A7023E7594B594C1868FBF7A8FD60
:1056900094F90030002B00F0B481012B00F0EB8175
:1056A000022B7FF414AF534B5349544A1B680968CB
:1056B00012680092019103F2B273514A24481421F6
:1056C00023F0A8FE03E74F4B1B889FED4F7A07EEB0
:1056D000903AF8EEE77A67EE877A17EE900A22F0B2
:1056E0004FFB4A4ACDE900011421194823F092FEEC
:1056F000EDE6474B1B78002B00F0C780144B454A62
:105700001A60E4E6444B8CE7444B1B7844495A0842
:10571000A1FB02129208C2EBC201A3EB4103DBB270
:1057200007EE903AF8EEE77AB7EE087A67EE877AF6
:1057300007EE102AB8EEC77AF3EE046AE7EE267A8F
:10574000B1EE087A77EEC77AC7E700BF644302205C
:10575000E05D022040440220E04302208259022002
:1057600050DC0200C467022048DC0200E143022052
:10577000086D0400EC7B022000007A440C7C0220BF
:105780000050C34728DC0200835902208C430220CA
:1057900020DC0200007B02203C4402206F12833A8E
:1057A000F0DB0200EC780220186102208096184B92
:1057B00018DC0200B47B02207458022014DC0200C2
:1057C000785802200CDC0200707402208D43022005
:1057D00010E302005C430220206D0400DC7B022009
:1057E000305902205D43022000DC020000D003405B
:1057F0005C6002209C7D022008630220B8600220C9
:10580000D8DB020038440220CDCCCC3DE8DB0200DE
:10581000016C02204F4E20003C43022060780220A1
:1058200093244992A04BA14A1B78A14803EB830320
:1058300003EB8303142123F0EDFD48E69D4B9E4AC4
:105840001B789B48142123F0E5FD40E69B4B1B7819
:105850009B4A974803EB8303142123F0DBFD36E6D4
:10586000984BF4E7984A1168984B994A904803EB93
:10587000011314215B6823F0CDFD28E6954B23E747
:10588000954B1B78012B3FF4C4AE894B934A1A60A9
:105890001DE6874B20221A8019E6914B18780028C4
:1058A000F3D007EE900AFAEEEF7A16E78D4B1B78ED
:1058B000002BEAD0ADE68C4A11888C4B8C4A7C4890
:1058C000A3FB01435B09C3EB0314A1EB840189B281
:1058D0000091142123F09EFDF9E5864AECE7864C01
:1058E00094F90030002B00F0A780002B7FF7EFAD7C
:1058F000824A834B12681B686D4800921421814ACA
:1059000023F088FDE3E5804B6D4A93F90030684849
:10591000142123F07FFDDAE57C4B7D4A1B78644837
:10592000142123F077FDD2E57A4B88E77A4B1B6888
:10593000012B40F39E80794A5D48142123F06AFDD3
:10594000C5E5774B1B78002B4DD1764B9FED767AD2
:1059500093F9003007EE903AF8EEE77A67EE877A2F
:1059600017EE900A22F00CFA41EC100B1FF07CFCB1
:105970004BA3D3E9002351EC100B22F055FA6B4AEC
:10598000CDE9000114214A4823F044FD9FE5684B0E
:10599000C3E7684B1B78022B7FF677AF464A444833
:1059A000142123F037FD92E5634A5CE7634A644BB8
:1059B00011683F4853F82130454A142123F02AFD4D
:1059C00085E5604A604BF3E7604B1868DDE5604BA6
:1059D000604A1B783648142123F01CFD77E55E4BA6
:1059E00093E65E4B1DE603EB830303EB83032F4A31
:1059F0002F48142123F00EFD69E52D4B584A1A60FB
:105A000051E5584B5849594A1B6809681268009279
:105A1000019103F2B273564A2548142123F0FAFC8F
:105A200094F9003039E6534A214B92E803000A0CFE
:105A3000186099809A714AE5304A314B12681B68A8
:105A40001B48009214214C4A23F0E4FC94F90030E6
:105A50004BE74A4B1B78002B00F0A080484A144BC0
:105A600007CA03C323F8022B120C1A7020E5454A1B
:105A7000DAE7454AD8E73B4B3B493C4A1B68096893
:105A800012680092019103F2B273404A084814214F
:105A900023F0C0FC94F9003002E600BFAFF30080B1
:105AA00000000020AEC727407E430220A0DB02009A
:105AB000E05D0220B743022080DB02007C4302202D
:105AC000206D0400B6430220F84302201CFC0200B3
:105AD00038DA02007A430220A45902204F464600D9
