:1000000000000320D101000045A20100FDA1010074
:10001000FDA10100FDA10100FDA10100FDA1010064
:10002000FDA10100FDA10100FDA1010045A201000B
:1000300045A20100FDA1010055B9010059B9010017
:1000400045A2010045A2010045A2010045A2010010
:1000500045A2010045A2010045A2010045A2010000
:1000600045A2010045A2010045A2010045A20100F0
:1000700045A2010045A2010045A2010045A20100E0
:1000800045A2010045A2010045A2010045A20100D0
:1000900045A2010045A2010045A2010045A20100C0
:1000A00045D4010051D4010045A2010045A2010040
:1000B00045A2010045A2010045A20100D5A701000B
:1000C00045A2010045A2010045A2010045A2010090
:1000D00045A2010045A2010045A2010045A2010080
:1000E00045A2010045A2010045A2010045A2010070
:1000F00045A2010045A2010045A2010045A2010060
:1001000045A2010045A2010045A2010045A201004F
:1001100045A20100C9AA010045A2010045A20100B3
:1001200045A2010045A2010045A2010045A201002F
:1001300045A2010045A2010045A2010045A201001F
:10014000E5D0000045A2010045A2010045A2010042
:1001500045A2010045A2010045A2010045A20100FF
:1001600045A2010045A201005DD4010045A20100A5
:1001700045A2010045A2010045A2010045A20100DF
:1001800045A2010045A2010045A2010045A20100CF
:1001900045A2010045A2010045A2010045A20100BF
:1001A00045A2010045A2010045A2010045A20100AF
:1001B00045A2010045A2010045A2010045A201009F
:1001C00045A2010045A2010045A2010045A201008F
:1001D0005C4B4CF2205210B51A804DF628121A8052
:1001E00000BF00BF1AF032F8574B4FF030621A6070
:1001F000564A9A60564ADA60564B4FF470021A60BB
:10020000554B564A1A60564B1A78110703D51A787F
:1002100042F008021A70534B5349AA221A70534AEB
:10022000534B8B4204D252F8040F43F8040BF8E707
:10023000504B514900228B4202D243F8042BFAE77B
:100240004E494F4A002352F8230041F8230001335E
:10025000742BF8D14B4B4C4A802103F8011B93427D
:10026000FBD14A4B454A1A60494B8A221A70A3F5C2
:10027000805324225A70A0221A709A799207FCD5D2
:100280009A79D406FCD4434A937903F00C03082BE3
:10029000FAD1414B60221A7002331A78802AFCD1BD
:1002A0003C4B01221A715D225A719A799006FCD555
:1002B0009979384A4906FBD5384B394919600021EC
:1002C000596020231370937903F00C030C2BFAD19F
:1002D000344B354A1A60354A354C136813F4807331
:1002E00003D123604FF4A8531360324B324A1A6093
:1002F00000225A60072243F8042C304AC3F80C2D20
:1003000062B61AF0B1F92368DA0705D52C481AF05D
:1003100009F92C4B2C4A1A602C4B1B785B0609D52B
:10032000284C294B22689A4204D125481AF0FAF841
:100330000023236020F01CFC19F08EFF19F082FED0
:10034000FEE700BF0E20054030800440823F0400DD
:100350000100002B88ED00E0002008E0030000858C
:1003600002D0074000E00740985202209C1205008E
:10037000303F0220A0520220E8860220003A0220EC
:100380000000000000E400E064E400E008ED00E0AC
:10039000005006400040064001E007404480044011
:1003A0000000060204800440C010070010D0034083
:1003B00014D0034014E000E01FBF02000000202022
:1003C000B0C739611CE00340A5C3945A00F0074050
:1003D000FFFFFFFFFFFFFFFFFFFFFFFFFFFFFFFF2D
:1003E000FFFFFFFFFFFFFFFFFFFFFFFFFFFFFFFF1D
:1003F000FFFFFFFFFFFFFFFFFFFFFFFFFFFFFFFF0D
:10040000FFFFFFFFFFFFFFFFFFFFFFFFDEF9FFFF23
:1004100010B5054C237833B9044B13B10448AFF33E
:1004200000800123237010BDA052022000000000B4
:1004300098120500084B10B51BB108490848AFF3E6
:1004400000800848036803B910BD074B002BFBD0A0
:10045000BDE81040184700BF00000000A452022071
:1004600098120500985202200000000000207047FA
:10047000704700BF00207047002070474FF0FF30EA
:10048000704700BF006910B103689B6A1847704746
:10049000006910B10368DB6A18477047006910B142
:1004A00003681B6918477047006910B103689B69AE
:1004B00018474FF0FF307047006910B10368DB68E0
:1004C00018477047006910B10168096B0847704709
:1004D00010B4006920B10468616B5DF8044B0847F3
:1004E0005DF8044B704700BF006910B103689B6B57
:1004F0001847002000217047006910B10368DB6BCA
:100500001847002000217047006910B103681B6C78
:1005100018477047006910B103685B6C1847704753
:10052000006910B103689B6C18470148704700BF11
:10053000A0560200006910B10368DB6C18477047D1
:1005400038B50B6904462BB11D6819462B6D9847C9
:10055000204638BD4FF47A70064A23712373A06099
:1005600022600B692361002BF2D01A6901321A61F3
:10057000204638BDD4520200006910B103685B6D9B
:1005800018477047006980B100B5036883B09B6A63
:1005900001220DF10701984720B19DF8070003B033
:1005A0005DF804FB4FF0FF30F9E74FF0FF30704784
:1005B00010B582B002AB026803F8011DD46A194677
:1005C0000122A04702B010BDC36D0BB101207047DE
:1005D000006E003018BF0120704700BF704700BF99
:1005E0009FED057ADFED057AE0EE077AFCEEE77A1B
:1005F00017EE901A12F0DABA00000143EE7CFF3ECB
:1006000010B50446406E18B120F0FCFA0023636672
:1006100004F12400BDE8104010F0A8B910B5044B57
:10062000044640F8103B10F0A1F9204610BD00BF71
:100630008C52020010B5044602460369054906487B
:1006400019F0B8FA206920B10368BDE810405B6A70
:10065000184710BD6C5402002C4602200246036964
:100660000149024819F0A6BA885402002C4602201B
:100670002DE9F041002394B01A460546243104A820
:100680004FF47A74254F8DF804308DF80C301293A6
:1006900013930294009710F029FA129B002B32D08A
:1006A000682019F027FE04469DF80460029A9DF820
:1006B0000C301B481B4926764FF47A7800262060C0
:1006C0006161E26184F8203004F1240004A92671FC
:1006D00026732661C4F8088010F01AF92369124ABB
:1006E0006761013366662E71C5F808802E732C6130
:1006F00023612A600D4B009304A810F037F92846B7
:1007000014B0BDE8F081139B002BC9D1064A2B71B0
:10071000AC602B732B612A60ECE700BFB052020083
:10072000345302005C520200D45202008C52020088
:1007300019F0F2BEF8B50D46064613F0C9FC13F0E9
:1007400039FC044613F0C4FC13F026FC074613F0F2
:10075000BFFC13F013FCA4F2BC739BB27F2B02D836
:10076000FAB20C2A28D90023338013F0B1FC13F01D
:10077000DBFB064613F0ACFC13F0E4FB044613F07D
:10078000A7FC13F0EDFBF3B2172B12D8E3B23B2B0F
:100790000FD8C3B23B2B0CD8F302640103F4FF2340
:1007A00004F4FF542343C0F3460003439BB22B8061
:1007B000F8BD00232B80F8BDC0B21F28D3D87F011D
:1007C00007F4FF57384340EA43239BB2CCE700BF0E
:1007D00010B504460CF0F6FD204610BDC26D62B1A6
:1007E000137803F0080303F0FF0003B3D3695069E3
:1007F000181A48BF6FF000407047016EC1B191F800
:10080000313003F0080303F0FF0083B1D1E9042382
:10081000D1E90001101A30B463EB010100256FF03B
:1008200000448D4208BF844200D2204630BC70474D
:1008300008467047836C13B118460EF0D1BDC06CEA
:1008400008B10CF0C5BF4FF0FF30704700B5836CA6
:1008500083B063B1184601220DF107010EF0F0FCE0
:1008600001280CD19DF8070003B05DF804FBC06CB3
:1008700028B101220DF107010CF0D6FEF0E74FF090
:10088000FF30F1E7C36D13B118460FF023B8006EC7
:1008900008B10DF069BC7047026842B11369013BB1
:1008A00013612BB9006810B103681B6A18477047C1
:1008B000704700BFD0B5C46D8CB1012B08BF002AB2
:1008C00001D30020D0BD114620460EF0ABFE00281B
:1008D000F7D020460FF004F80028F2D0D0BD046E07
:1008E000002CEED020460CF08BFF0028E9D02046EB
:1008F000BDE8D0400DF0F4BD10B5044619B1012992
:1009000011D0002010BD5522202112F023F900281B
:10091000F7D0E28842F00402204692B22421BDE8DA
:10092000104012F017B940F273122A2112F012F996
:100930000028E6D088222021204612F00BF900285A
:10094000DFD0E288204622F004022421BDE81040D6
:1009500012F000B9C36D13B1D86900217047036E5E
:1009600013B118695969704718461946704700BF96
:10097000C36D13B1586900217047036E13B193E83A
:100980000300704718461946704700BFC36D13B186
:1009900018460EF055BC006E08B10CF045BE4FF085
:1009A000FF307047C36D13B118460EF019BD006ECD
:1009B00008B10CF00DBF4FF0FF307047C36D33B17D
:1009C0001B7813F0700F14BF012000207047006ED9
:1009D00030B190F8313013F0500F14BF01200020D7
:1009E000704700BF836C13B118460EF073BFC06C24
:1009F00008B10DF0B9BB7047826C62B1137803F097
:100A0000080303F0FF0003B3D3695069181A48BF05
:100A10006FF000407047C16CC1B191F8313003F004
:100A2000080303F0FF0083B1D1E90423D1E90001F9
:100A3000101A30B463EB010100256FF000448D42C1
:100A400008BF844200D2204630BC70470846704739
:100A5000C36D9BB11A7812F0700F00D1704710B5BA
:100A60000446002118460EF0DDFD206E28B100225C
:100A70000023BDE810400CF0C3BE10BD006E00287E
:100A8000ECD090F8313013F0500FE7D00022002363
:100A90000CF0B6BE836C13B118460EF05DBFC06C8F
:100AA00008B10DF08FBD7047C36D13B118460EF03D
:100AB00053BF006E08B10DF085BD704700B5836C63
:100AC00083B08DF8071043B1184601220DF10701DC
:100AD0000EF042FF03B05DF804FBC06C0028F9D0B3
:100AE00001220DF107010DF06DFD03B05DF804FB6F
:100AF0000269084B10B50446036042B11369013B1B
:100B0000136123B9006910B103681B6A9847204636
:100B100010BD00BFD4520200C26A0949094B10B58A
:100B200004460160C36142B11369013B136123B9FB
:100B3000C06A10B103681B6A9847204610BD00BF09
:100B400038DD0300D452020038B5C36D144A026088
:100B5000044600F12405F3B128460FF007FF606E4C
:100B600008B120F04FF80F4B636128460FF0FEFEEE
:100B700022690D4B236042B11369013B136123B914
:100B8000206910B103681B6A98472046682119F054
:100B9000B3FB204638BD036E002BDDD1DFE700BF7D
:100BA000345302008C520200D452020002690A4BF4
:100BB00010B50446036042B11369013B136123B9C8
:100BC000006910B103681B6A98472046142119F088
:100BD00093FB204610BD00BFD4520200D0B4039C4A
:100BE00016461F4634B1012C1ED0022C0DD0002019
:100BF000D0BC7047C46DDCB1012B08BF002AF6D20F
:100C000020461146D0BC0EF00DBDC36DB3B1DA69FC
:100C1000B61847F10007012F08BF002EE7D2314672
:100C20001846D0BC0EF0FEBCC36D8BB15A69EFE71D
:100C3000006E0028DBD0D0BC0CF0E2BD006E0028B6
:100C4000D5D0D0E9042392197B41D0BC0CF0D8BD9B
:100C5000006E0028CBD0D0E9002392197B41EAE74F
:100C600038B5C36D124A0260044600F12405D3B1C1
:100C700028460FF07BFE606E08B11FF0C3FF0D4BDE
:100C8000636128460FF072FE22690B4B236042B16C
:100C90001369013B136123B9206910B103681B6A12
:100CA0009847204638BD036E002BE1D1E3E700BF33
:100CB000345302008C520200D452020038B5446E04
:100CC0000CB1204638BD05464FF480701FF092FFEE
:100CD0000146686680B1E86D0C7028B14FF48072EF
:100CE0000EF084FF6C6EECE7286E40B14FF480721A
:100CF0000CF0CCFB6C6EE4E7024C6C66E1E70C4652
:100D0000DFE700BFBC5202202DE9F0419AB040F26B
:100D10000223A04AA04906A80FF07EFF189B002BD3
:100D200000F0F981682019F0E5FA044600259DF8E5
:100D30001C60089A9DF824309848994920604FF427
:100D40007A780AAF26766161E26184F8203004F196
:100D500024003946257125732561C4F808800FF0F9
:100D6000D7FD23698F4A904E656601338DF8085090
:100D7000CDF80C808DF810500594626123610196C6
:100D80008A4B069338460FF0F1FD894B89491A6862
:100D9000894C01A818F00EFF884B89491A6801A8F0
:100DA00018F008FF874B88491A6801A818F002FF5D
:100DB000864B87491A6801A818F0FCFE854B8649C6
:100DC0001A6801A818F0F6FE844B854993F90020B3
:100DD00001A818F0EFFE834B834993F9002001A886
:100DE00018F0E8FE814B82491A6801A818F0E2FE6B
:100DF000804B81491A7801A818F0DCFE7F4B8049AE
:100E00001A7801A818F0D6FE7E4B7F491A7801A8FF
:100E100018F0D0FE7D4B7E491A7801A818F0CAFE62
:100E20007C4B7D491A7801A818F0C4FE7B4B7C49A5
:100E30001A7801A818F0BEFE7A4B7B491A7801A8EF
:100E400018F0B8FE794B7A491A7801A818F0B2FE6A
:100E5000784B79491A7801A818F0ACFE774B78499D
:100E60001A7801A818F0A6FE764B77491A7801A8DF
:100E700018F0A0FE754B76491A7801A818F09AFE72
:100E8000744B75491A7801A818F094FE734B744995
:100E90001A7801A818F08EFE724B73491A7801A8CF
:100EA00018F088FE714B72491A7801A818F082FE7A
:100EB000704B71491A7801A818F07CFE6F4B70498D
:100EC0001A8801A818F076FE6E4B6F491A8801A89F
:100ED00018F070FE6D4B6E491A8801A818F06AFE72
:100EE0006C4B6D491A8801A818F064FE6B4B6C4975
:100EF0001A7801A818F05EFE6A4B6B491A7801A8AF
:100F000018F058FE694B6A491A7801A818F052FE89
:100F1000684B694993F9002001A818F04BFE674B14
:100F2000674993F9002001A818F044FE654B664913
:100F30001A7801A818F03EFE2268644901A818F04A
:100F400039FE6268624901A818F034FEA26861495E
:100F500001A818F02FFE604B60491A7801A818F01C
:100F600029FE5F4B5F491A7801A818F023FE5E4BFB
:100F70005E4993F9002001A818F01CFE059800288E
:100F800000F0C5800368DB6898470598002800F0EA
:100F9000BE80ADE0F8430220987D02203453020069
:100FA0005C520200B0520200D45202008C52020085
:100FB000AC430220A8540200387B022014440220D3
:100FC000BC54020030430220D4540200E843022003
:100FD000E454020090430220F4540200D07B02202B
:100FE00004550200A858022014550200284302208C
:100FF0002055020008440220345502002D430220EF
:101000004455020040440220585502008D430220FE
:10101000685502003044022074550200E343022068
:1010200080550200E543022090550200244402202E
:10103000A0550200B2430220B45502008C430220A6
:10104000C055020040430220CC550200B3430220A9
:10105000D85502008E430220E4550200CC770220CE
:10106000F055020052580220FC5502005F59022040
:1010700010560200786B0220245602004C440220D5
:10108000345602003443022048560200284402200D
:101090005C5602008A4302206C560200545502201E
:1010A0007C5602007C62022090560200F643022029
:1010B000A456020071430220B856020041430220A8
:1010C000CC560200F0720220E4560200F8560200EC
:1010D00008570200205702007043022034570200D4
:1010E0009C43022048570200E14302205857020067
:1010F00003681B6C9847059A019642B11369013B3E
:10110000136123B9059810B103681B6A9847012041
:101110001AB0BDE8F081199B002B7FF403AE4FF4A9
:101120007A72054E8DF808308DF8103005930392D1
:1011300001960AAF24E600BFD452020070B50446FF
:1011400008460D4620F05CFD2368024629462046ED
:101150005B68BDE87040184738B5044608460D4640
:1011600020F04EFD2368024629465B6820469847DA
:101170000546204618F002FD284438BD38B50A223D
:101180000023054618F024FD0446284618F0F6FC16
:10119000204438BD38B5054618F05AFD04462846A7
:1011A00018F0ECFC204438BD38B50A22002305466F
:1011B00018F00EFD0446284618F0E0FC204438BD27
:1011C000624B634A6349DFF8B8C12DE9F043A3FBE2
:1011D0000053614C614E1D0C2F1DA4FB0043A2FB6C
:1011E00000E4A7FB06896409A2FB04E2C9EB070639
:1011F000DB0A09EB56065209A1FB03E1B608C2EB74
:101200000212A4EB8202C6EBC606C4EB0414090961
:10121000BE1BDFF870E1524FA0EB840001EB4101EF
:10122000504C3A600136A3EBC1010023CEF80060B8
:10123000CCF800002160DFF834E14B4F1C4640F24F
:101240006D1864264FF4C87C0DE0C9090CFB112110
:1012500000285BD1002914BF42464FF4B7721344F3
:101260009D4211D3013404F2B272A7FB0201480976
:10127000744506FB102002D012F0030FE5D040F2B7
:101280006D1213449D42EDD2384A394994420C60A4
:101290004CD004F2B27291073BD040F26D11324F44
:1012A000344EDFF8C8E0A7FB02075B1A4FEA571C71
:1012B00064204FF4C871FF0900FB1C2C01FB1727A9
:1012C000EB1A02F003021F2000210CE0451CBCF1C8
:1012D000000F00D15FB9012909D19D4224D85B1BC1
:1012E000022116F8010F744501D0002AEED0984271
:1012F0001AD801310C29A3EB0003F2D10D211E48AD
:101300001E4A013303601160BDE8F0834FF4B772E9
:10131000A5E71549A1FB02014809642606FB102038
:1013200040B14FF4B771BAE70131E8E740F26D110F
:101330000022B4E7C9094FF4C87000FB112100294D
:1013400040F26D1108BF4FF4B771A8E707452EC2F0
:1013500089888888ABAAAAAAC5B3A29125499224F4
:10136000D4730220AC7702201F85EB514EF8FFFFAB
:10137000F07C022004890200806202203860022092
:101380005855022010600220DFED277A9FED277A62
:1013900080EE270AB4EEC70AF1EE10FA32D4F6EE68
:1013A000007AB4EEE70AF1EE10FA12D430EE670AD2
:1013B000DFED1F7A30EE000A6FF01F0020EE270AE3
:1013C000BCEEC00A10EE103AC3F3C403184380B257
:1013D000704730EE470ADFED176A9FED157AC0EED1
:1013E000267A002367EE877AFCEEE77A17EE900AFA
:1013F000C00000F4FC606FEA40506FEA50501843A0
:1014000080B27047C0EE077A00239FED097A67EE3D
:10141000877AFCEEE77A17EE900A000200F4784033
:1014200000B2184380B2704700401C46CDCCCC3D82
:1014300000007F43CDCCCC3E9FED7E7ADFED7E7AFF
:10144000E0EE077A84B0F5EEC07AF1EE10FA00F122
:10145000DF809FED7A7AF4EEC77AF1EE10FA00F3AE
:101460008980FCEEE77ACDED017A9DF80420B5EE97
:10147000C00AF1EE10FA40F38580DFED717AB4EE28
:10148000E70AF1EE10FA7DD5DFED6E7A60EE277A8D
:10149000F5EEC07AF1EE10FA00F1B8809FED677AB0
:1014A000F4EEC77AF1EE10FA7ADCFCEEE77ACDEDD5
:1014B000017A9DF80430DFED647AB4EEE70AF1EECC
:1014C00010FA76D89FED617ADFED617AE0EE077A67
:1014D000F5EEC07AF1EE10FA73D49FED587AF4EE7F
:1014E000C77AF1EE10FA00F39580FCEEE77ACDEDC5
:1014F000017A9DF804109FED526AB4EEC60AF1EE2F
:1015000010FA29D507EE902A06EE901AB8EEE77A7F
:1015100007EE903AF8EEE66AF8EEE77A27EE007A00
:1015200067EE807A26EE800AC7EE066A87EE867A34
:10153000C0EE067AFCEEE66ABCEEC77AFCEEE77A0D
:10154000CDED016A8DED027ACDED037A9DF8042090
:101550009DF808309DF80C10120222F4FF60DB00A9
:1015600020F0070003F4FC63034343EAD10080B298
:1015700004B07047B5EEC00AF1EE10FA4FF0FF026A
:101580003FF77BAFDFED2E7AB4EEE70AF1EE10FA0B
:1015900035DBDFED307AB4EEE70AF1EE10FA2ED843
:1015A000DFED297AB4EEE70AF1EE10FA4FF0FF030F
:1015B00088D908DDDFED287AB4EEE70AF1EE10FAFB
:1015C00001D8002197E7DFED247AB4EEE70AF1EEC7
:1015D00010FAF6DD9FED217ADFED217AE0EE077A51
:1015E000F5EEC07AF1EE10FAEBD49FED1E7AF4EE30
:1015F000C77AF1EE10FA7FF778AFF0217BE7DFEDE5
:10160000157AB4EEE70AF1EE10FA05DC002352E792
:1016100000222CE7FF216EE79FED137ADFED137AAE
:10162000E0EE077AF5EEC07AF1EE10FA7FF536AF0C
:10163000ECE700BF3F5B2C3D38A2B7C200007F4300
:1016400000208C4454EF683E00600845821B76BE43
:10165000E71A034400C8004600780F465538963E06
:10166000C45F28C500007043C4E48ABECAAD1B45F0
:101670002DE9F0472DED028B8A4682B00421804689
:101680004048414D414FDFED428AB0EE408A19F0AB
:1016900077FF01213F4819F073FF51463E4818F08B
:1016A000D7FA3D4818F06AFA4FF47A7999FBFAF9BB
:1016B00009F101095FFA89F9002440F2E7362DE0CB
:1016C00094FBF9F080B200EB400008EB8000D0ED15
:1016D000006AD0ED017A90ED027A68EE266A68EE33
:1016E000277AFCEEE66AFCEEE77A16EE903A17EE01
:1016F000902A68EE077A1B02D200FCEEE77A02F429
:10170000FC6203F47843134317EE902A0134C2F3CA
:10171000C4021343B44225F8023F2DD03B88642B0A
:10172000CED007EE903AF8EEE77A87EEA87A17EE79
:10173000100A1EF0E5FC07EE904AF8EEE77ACDE9D4
:10174000000187EEA87A17EE100A1EF0D9FC9DED75
:10175000001B41EC100B1BF0CBFF53EC102B504641
:10176000CDE900231EF0BAFCDDE900231EF01CFDCC
:101770001EF0F2FF80B2A6E702B0BDEC028BBDE81E
:10178000F08700BF78570200FE01FF1FB043022020
:1017900000007A44CC5D02002C460220FFFFFFFFD0
:1017A0002DE9F0432DED048BD34B83B0092206467F
:1017B0000621D2481A7019F0E3FE0121D04819F031
:1017C000DFFE314600230A22CE4818F001FACD4848
:1017D00018F0D4F9002E40F0B380DFF86493CA4BC0
:1017E000CA4FCB4DDFF84083DFEDCA8A9FEDCA8A2E
:1017F0009FEDCA9AC9F8003034463CE007EE906A83
:10180000B8EEE77AF0EE086AC7EE267AF4EEC87A08
:10181000F1EE10FA60DCFCEEE77A17EE902A120285
:1018200002F4784211B2F2EE046AC7EE267AF4EEC0
:10183000C87AF1EE10FA4CDCFCEEE77A17EE902A4B
:10184000D20002F4FC62C7EE097A0A4301340A3678
:10185000F4EEC87AF1EE10FAD7BFFCEEE77A1F2358
:1018600017EE903AC3F3C403134340F2E7329442B5
:1018700027F8023F4BD02B88B3F57A7FBED007EE16
:10188000903AF8EEE77AA8F8003087EEA87A17EEDB
:10189000100A1EF035FC07EE904AF8EEE77ACDE923
:1018A000000187EEA87A17EE100A1EF029FC9DEDC4
:1018B000001B41EC100B1BF01BFF8DA3D3E9002391
:1018C00051EC100B1EF070FC1EF066FF07EE100AC4
:1018D00098E74FF4FC62B6E79149A4E7072E40F081
:1018E000BB818B4BDFF858921A888E498E4BC9F812
:1018F000001040F24C411980B2F57A7F9FED860AC4
:101900008A4818BF1A804FF48071FFF7B1FE0B218F
:10191000874819F035FE0121794819F031FED9F8D0
:101920000040204620F06CF90146204619F028FEC0
:10193000744803B0BDEC048BBDE8F04318F01EB949
:10194000012E69D1DFF8F8917A4B704F704D9FED01
:10195000718ADFED718AC9F80030002634462DE027
:1019600007EE906AF8EEE77AB5EE007A67EE877ACE
:10197000F4EEE87AF1EE10FA00F39C80FCEEE77AE0
:10198000CDED007A9DF800104FEA012300F3968018
:101990004FEAC10203F4784302F4FC6243EA020313
:1019A0001BB200F39280CA081343013440F2E732BD
:1019B000944227F8023F06F10A06A8D02B88B3F517
:1019C0007A7FCDD007EE903AF8EEE77A564A87EE66
:1019D000887A138017EE100A1EF092FB07EE904AE9
:1019E000F8EEE77ACDE9000187EE887A17EE100A63
:1019F0001EF086FB9DED001B41EC100B1BF078FEEA
:101A00003BA3D3E9002351EC100B1EF0CDFB1EF0DD
:101A1000C3FE07EE900AA7E7022E58D1DFF8209107
:101A2000454B3A4F3A4DDFF800819FED3A8AC9F8AD
:101A30000030002634460FE007EE906AB8EEE70A61
:101A4000FFF7FAFC013440F2E7339C4206F10A0644
:101A500027F8020F3FF45BAF2B88B3F57A7FEBD00A
:101A600007EE903AF8EEE77AA8F8003087EE887A29
:101A700017EE100A1EF044FB07EE904AF8EEE77AE4
:101A8000CDE9000187EE887A17EE100A1EF038FBC8
:101A90009DED001B41EC100B1BF02AFE14A3D3E9B3
:101AA000002351EC100B1EF07FFB1EF075FE00EEC4
:101AB000100AC5E76FF01F031F2275E703F4784390
:101AC00043F4FC631BB21F226EE71F226CE7032E58
:101AD00076D1DFF86C90194B0C4F0D4DDFF8488034
:101AE0009FED0C8AC9F80030002634463AE000BF6A
:101AF000000000000088C340845F0220805702007D
:101B0000CC5D02002C46022088570200FE01FF1F18
:101B10000A44022000007A4400007F430000204273
:101B200000F8FFFFC8570200B0430220708902008E
:101B3000E8570200905702009C570200A457020089
:101B40000C59022007EE906AB8EEE70AFFF71CFC7A
:101B5000013440F2E7339C4206F10A0627F8020FEF
:101B60003FF4D5AE2B88B3F57A7FEBD007EE903AF1
:101B7000F8EEE77AA8F8003087EE887A17EE100AB8
:101B80001EF0BEFA07EE904AF8EEE77ACDE90001C2
:101B900087EE887A17EE100A1EF0B2FA9DED001B50
:101BA00041EC100B1BF0A4FD52A3D3E9002351EC30
:101BB000100B1EF0F9FA1EF0EFFD00EE100AC5E75B
:101BC000042E16D13E4BDFF834911A883D493E4B26
:101BD000C9F800104FF448711980B2F57A7F9FED73
:101BE0003B0A3B4818BF1A804FF48071FFF740FD55
:101BF0008DE6052E16D1324BDFF800911A88354953
:101C0000314BC9F8001040F24C411980B2F57A7F8F
:101C10009FED2E0A304818BF1A804FF48071FFF7ED
:101C200027FD74E6062E7FF459AE254BDFF8CC90E5
:101C30001A882A49244BC9F800104FF461711980A1
:101C4000B2F57A7F9FED210A254818BF1A804FF41C
:101C50008071FFF70DFD5AE6082E14D1184BDFF8FE
:101C60009C901B881F4AC9F80020B3F57A7F18BFE3
:101C7000154A1D4818BF1380B7EE000A4FF4807153
:101C8000FFF7F6FC43E6092E14D10D4BDFF86C90FC
:101C90001B88164AC9F80020B3F57A7F18BF0A4A94
:101CA000134818BF1380B7EE000A4FF48071FFF796
:101CB000DFFC2CE6DFF8449029E600BFAFF300809C
:101CC0000A440220AC570200B043022000007F43C8
:101CD000147C0200B457020014700200C0570200C6
:101CE00004CE0300D057020068C10300DC57020095
:101CF00070950200000000000088C3400C590220CB
:101D0000002310B4114C41734261046003730361FA
:101D100041B1194600E0426942F82310427B013389
:101D20009A42F8DC0A4B1A680AB90CE01A46936921
:101D3000002BFBD190610023836143608360837338
:101D40005DF8044B70471860F5E700BF8052020051
:101D5000FC7C022070B5144686B005460E46002273
:101D6000194BD4E900011EF01FFA1EF0CDFC002231
:101D7000154B0190D4E902011EF016FA1EF0C4FCC6
:101D80000022114B0290D4E904011EF00DFA1EF05E
:101D9000BBFC00220C4B0390D4E906011EF004FAB0
:101DA0001EF0B2FC084B04900022D4E908011EF09A
:101DB000FBF91EF0A9FC3146059001AA284611F056
:101DC00035F906B070BD00BF0000D0412DE9F041EB
:101DD000012B94B0054641D0022B01F1040140F2E1
:101DE0000223684618BF00230EF016FF129B002B3B
:101DF0003DD0682018F07EFA04469DF80460224821
:101E00002249029A9DF80C30206004AF2676616169
:101E100000264FF47A78394604F12400E26184F810
:101E20002030267126732661C4F808800EF070FDFC
:101E300023691749174A666601332E71C5F8088071
:101E40002E732C61616123612A60134B0093384625
:101E50000EF08CFD284614B0BDE8F08144F2022358
:101E6000043168460EF0D8FE129B002BC1D1139BA3
:101E7000002BBED14FF47A71064A2B712B732B6164
:101E8000A9602A6004AFE0E7345302005C5202000C
:101E9000B0520200D45202008C52020070B51E4DA6
:101EA0004B08A5FB0335AD0805EB8504A400C5EB85
:101EB000C505E4B2A1EB4501272C0646CDB227D8D3
:101EC000132C94BF0022012242F4B8722A2171819E
:101ED000304610F03FFE202145F48072718130467B
:101EE00042EA051210F036FE07EE905AB8EEE77A95
:101EF00007EE904AF8EEE77AF7EE086AE7EE267A00
:101F0000064BB1EE087A77EEC77AC3ED007A70BD62
:101F100040F27312DAE700BF9324499294600220E2
:101F200038B515210446104819F02AFB01210F4845
:101F300019F026FB0E4B53F8245028461FF060FE84
:101F40000146284619F01CFB0A4817F017FE0A48FC
:101F50000023032CC361036204D800EB84004FF418
:101F60008033C36138BD00BFF4570200CC5D02006E
:101F7000444402202C4602204867022038B50E2136
:101F80000446114819F0FCFA0121104819F0F8FA3A
:101F90000F4B53F8245028461FF032FE01462846C6
:101FA00019F0EEFA0B4817F0E9FD0B480023032C5B
:101FB000C36183624362036204D800EB84004FF480
:101FC0008033C36138BD00BF0C580200CC5D0200F5
:101FD000604302202C4602203C60022010B582B0F3
:101FE00007210190364819F0CBFA0121354819F044
:101FF000C7FA0199344817F02BFE334817F0BEFD9D
:10200000324BDFED336A93ED006ADDED017A9FED2F
:10201000317AC6EE865AF8EEE77A67EEA57AF4EEE4
:10202000C77AF1EE10FA2ADC2B4CC4ED007A1021AD
:102030002A4819F0A5FA0121224819F0A1FA2068CE
:102040001EF05EF841EC100B02211F4817F008FE4D
:102050001D4817F093FDD4ED007AF5EEC07AF1EE4D
:1020600010FA27D49FED1E7AF4EEC77AF1EE10FA3B
:1020700014DD1C4A4FF00043136202B010BDC6EEDF
:10208000265A194B144CF2EE027AE5EE877A84ED6B
:10209000007AFDEEE77AC3ED007AC8E79FED137A88
:1020A000104A67EE877AFCEEE77A17EE903A1362F1
:1020B00002B010BD0B4A0023136202B010BD00BF76
:1020C0001C580200CC5D02002C4602203460022025
:1020D00000442C4700E0AB463C4302202458020059
:1020E0000044AC46D056022028430220C637BE47E3
:1020F0002DE9F04FDFF828B22DED048B9BF800306E
:10210000022B8DB040F2AC8107217B487B4CDFED88
:102110007C9A9FED7C9A7C4E19F032FA01217B4823
:1021200019F02EFA00230A229BF80010784817F0C5
:102130004FFD774817F022FD0022764BD4E90001CD
:102140001EF032F81EF0E0FA0022724B0790D4E93C
:1021500002011EF029F81EF0D7FA00226D4B0890FC
:10216000D4E904011EF020F81EF0CEFA0022694BDB
:102170000990D4E906011EF017F81EF0C5FA654B68
:102180000A900022D4E908011EF00EF81EF0BCFAF5
:1021900007AA0B900021604810F048FF00225D4B19
:1021A000D4E900011EF000F81EF0AEFA0022594BEF
:1021B0000790D4E902011DF0F7FF1EF0A5FA0022F6
:1021C000544B0890D4E904011DF0EEFF1EF09CFA78
:1021D0000022504B0990D4E906011DF0E5FF1EF0E6
:1021E00093FA4C4B0A900022D4E908011DF0DCFF61
:1021F0001EF08AFA07AA0B900121474810F016FF3B
:102200000022444BD4E900011DF0CEFF1EF07CFA01
:102210000022404B0790D4E902011DF0C5FF1EF0DB
:1022200073FA00223B4B0890D4E904011DF0BCFF77
:102230001EF06AFA0022374B0990D4E906011DF01E
:10224000B3FF1EF061FA334B0A900022D4E9080173
:102250001DF0AAFF1EF058FA07AA0B9002212E4883
:1022600010F0E4FE00222B4BD4E900011DF09CFF8E
:102270001EF04AFA0022274B0790D4E902011DF014
:1022800093FF1EF041FA0022224B0890D4E904018A
:102290001DF08AFF1EF038FA00221E4B0990D4E987
:1022A00006011DF081FF1EF02FFA0022194B0A9043
:1022B000D4E908011DF078FF1EF026FA07AA0B905A
:1022C0000321154810F0B2FE4FF0000A32785FFA91
:1022D0008AF39A4226D80AF1010ABAF1040FF5D11D
:1022E0000E4B00214FF48032D9611A620DB0BDEC63
:1022F000048BBDE8F08F00BF38580200B8430220BD
:1023000000442C47936515392D430220CC5D020013
:102310002C4602200000D0419C570220145302207A
:10232000084402200D21BC4819F02AF90121BB48BC
:1023300019F026F9514600230A22B94817F048FC43
:10234000B74817F01BFCB74B9BF80020D3ED007A81
:1023500089EEA77A4FF47A7303FB02F307EE903A03
:10236000F8EEE77A67EE877A67EE897A17EE900AD9
:102370001DF0C6FE41EC100B41EC180B1BF0D4F81D
:10238000A94B18688DED020B1DF0BAFE02460B46F4
:102390001DF058FD9DED020B02460B4651EC100B53
:1023A0001EF02CF8B0EE480AF0EE680A04460D461E
:1023B0001BF05AF82046294600229C4B58EC107B13
:1023C000CDE904451DF03EFD02460B46002098492C
:1023D0001EF014F8002204460D46944B3846414640
:1023E000CDE902781DF02EFD00228946914B009028
:1023F00009F100471DF0D8FE22462B4601971DF03B
:10240000D3FE1EF081F9224607462B46DDE9000186
:1024100007971DF0C9FE1EF077F9002208904FF0D3
:102420004043DDE9020109971DF0BEFE22462B461E
:102430001DF0BAFE1EF068F9DDE904230A907B491D
:1024400000201DF0FDFC22462B461DF0ADFE1EF0C7
:102450005BF907AA0B905146774810F0E7FD3AE781
:10246000764C77480B2119F08BF86D4817F086FBF6
:10247000D4E9000100226E4B1DF096FE1EF044F9D7
:1024800000226B4B0790D4E902011DF08DFE1EF077
:102490003BF90022664B0890D4E904011DF084FE4C
:1024A0001EF032F90022624B0990D4E906011DF0BA
:1024B0007BFE1EF029F95E4B0A900022D4E9080148
:1024C0001DF072FE1EF020F907AA0B9000215A4859
:1024D00010F0ACFDD4E900010022554B1DF064FE64
:1024E0001EF012F90022524B0790D4E902011DF0B0
:1024F0005BFE1EF009F900224D4B0890D4E904015F
:102500001DF052FE1EF000F90022494B0990D4E95B
:1025100006011DF049FE1EF0F7F8454B0A90002217
:10252000D4E908011DF040FE1EF0EEF807AA0B905A
:102530000121414810F07AFDD4E9000100223C4B12
:102540001DF032FE1EF0E0F80022394B0790D4E96E
:1025500002011DF029FE1EF0D7F80022344B08902E
:10256000D4E904011DF020FE1EF0CEF80022304B0D
:102570000990D4E906011DF017FE1EF0C5F82C4B9A
:102580000A900022D4E908011DF00EFE1EF0BCF8EE
:1025900007AA0B900221284810F048FDD4E9000159
:1025A0000022234B1DF000FE1EF0AEF80022204B4F
:1025B0000790D4E902011DF0F7FD1EF0A5F80022F6
:1025C0001B4B0890D4E904011DF0EEFD1EF09CF8B1
:1025D0000022174B0990D4E906011DF0E5FD1EF01D
:1025E00093F8134B0A900022D4E908011DF0DCFD9A
:1025F0001EF08AF807AA0B9003210F4810F016FD71
:10260000104B00214FF480321962DA610DB0BDEC3D
:10261000048BBDE8F08F00BF40580200CC5D020083
:102620002C46022034600220344402200000F03F97
:102630000000D0410000E03F9C570220B843022038
:10264000505802001453022070B54000334BDFEDA8
:10265000346A01FB0001B3FBF1F607EE906A314BDF
:10266000F8EEE77A01242DED068B1B68DFED2EAA2C
:10267000B0EE409AC7EE809A354622462346B6EE23
:1026800000AA03E00134B4F5807F38D007EE904A09
:10269000F8EEE77A67EEA97AF5EEC07AF1EE10FA75
:1026A000ACBF77EE8A7A77EECA7ABDEEE78A07EE9C
:1026B000905AB8EE677AF8EE487A3544C7EE278A22
:1026C00079EE688AF0EEE88AF4EEE68AF1EE10FA26
:1026D000D8D518EE101AB1F5805FD3D2134817F091
:1026E0004DFAF4EEEA8AF1EE10FA13D923460134DA
:1026F000B4F5807FF0EE686A18EE102AC6D1BDEC02
:10270000068B013B1B03013A03F47F23C2F30B004A
:10271000184370BD234618EE102AF0E70095BA0A58
:102720008096184B00F1024000007A442C460220AB
:10273000164B186810B510F400441DD0144B154A00
:102740001B68154912680968C3F30444C2F30340C7
:10275000C3F30463013304FB0000C9B21844FFF75C
:1027600073FF014638B10D4A1368002BFCDB0C4B9C
:102770000120196010BD10BD0D210A4818F000FF9E
:10278000094817F0FBF9204610BD00BF3C8004400B
:1027900014F0024010F0024008F0024000F1024044
:1027A00004F102405C5802002C460220F8B50821D2
:1027B00005466348634E644C18F0E2FE012163480D
:1027C00018F0DEFE2946624817F042FA604817F01A
:1027D000D5F9604B9FED607A1B78DFED605A2D01D3
:1027E0007219D2ED027A5E4A06EE903AF8EE677AF6
:1027F000F8EEE66A27EE877A66EEA56A594B1178FD
:1028000083ED007A86EE876A574AC4ED007AFDEEC2
:10281000C66A16EE903A137071B1544B1B7806EEEF
:10282000903AF8EEE66A66EEA56A86EE876AFDEEF5
:10283000C66A16EE903A1370F6EE006A67EEA67A54
:102840007319C7EE876A5A68494F4A480421FDEE5A
:10285000E67A17EE903A3B701EF09CFF464B474AD3
:10286000012119601368002BFCDB35444449AA8917
:10287000EB89444D444F013A1203013B02F47F229D
:10288000C3F30B0313430B60C82017F09BFE3F4BB1
:102890001868FFF7A3FB3E4B01261E60142017F0BB
:1028A00091FE3C4B83F82467FFF722FC2B78B3B1F1
:1028B0001821394818F064FE0121244818F060FE00
:1028C00020681DF01DFC41EC100B0221204817F080
:1028D000C7F91F4817F052F93B7813B9F8BD3B7898
:1028E000ABB11A212D4818F04BFE0121174818F002
:1028F00047FE20681DF004FC41EC100B0221144837
:1029000017F0AEF91248BDE8F84017F037B91A21B0
:10291000234818F035FE31460C4818F031FE206887
:102920001DF0EEFB41EC100B0221094817F098F95D
:10293000074817F023F92B78002BB9D13B78CCE767
:10294000705902001488020034600220CC5D02003D
:102950002C4602208D4302200000003B00007A44F8
:10296000615E02200C440220707A0220B3430220F0
:10297000146002200444022088E100E000F10240DB
:1029800004F1024054780220B0770220284302204C
:1029900008E100E0906B02207C590200B45902006B
:1029A0009859020007EE900A9FED0C6ADFED0C6A61
:1029B0000C4B0D48B8EEE77ADFED0C7A27EE067A7D
:1029C00010B5E7EE267A01241C60FCEEE77A17EEDC
:1029D000901A10F0EBF8064B1C6010BD0AD7233C90
:1029E0000000014388E100E0487B0220EE7CFF3ECE
:1029F00008E100E010B4036841681A780C78417A65
:102A0000037A0C4202EA03021BD0837A03F0030329
:102A10000AB143F0040343F008039A10013B8272A9
:102A20000D2B0BD8DFE803F021071B070A15212126
:102A3000150A071B0721C368013BC3605DF8044BFF
:102A40007047837A03F00303002AE6D043F00403BF
:102A5000E3E7C3685DF8044B023BC3607047C3689B
:102A60005DF8044B0233C3607047C3685DF8044BE4
:102A70000133C360704700BF08B5034BD3F8EC00C7
:102A8000FFF7B8FF08BD00BFA882022008B5034BBE
:102A9000D3F8E800FFF7AEFF08BD00BFA882022010
:102AA00008B5034BD3F8E400FFF7A4FF08BD00BF4F
:102AB000A882022008B5034BD3F8E000FFF79AFF85
:102AC00008BD00BFA882022008B5034BD3F8DC0084
:102AD000FFF790FF08BD00BFA882022008B5034B96
:102AE000D3F8D800FFF786FF08BD00BFA8820220F8
:102AF00008B5034BD3F8D400FFF77CFF08BD00BF37
:102B0000A882022008B5034BD3F8D000FFF772FF6C
:102B100008BD00BFA882022008B5034BD3F8CC0043
:102B2000FFF768FF08BD00BFA882022008B5034B6D
:102B3000D3F8C800FFF75EFF08BD00BFA8820220DF
:102B400008B5034BD3F8C400FFF754FF08BD00BF1E
:102B5000A882022008B5034BD3F8C000FFF74AFF54
:102B600008BD00BFA882022008B5034BD3F8BC0003
:102B7000FFF740FF08BD00BFA882022008B5034B45
:102B8000D3F8B800FFF736FF08BD00BFA8820220C7
:102B900008B5034BD3F8B400FFF72CFF08BD00BF06
:102BA000A882022008B5034BD3F8B000FFF722FF3C
:102BB00008BD00BFA882022008B5034BD3F8AC00C3
:102BC000FFF718FF08BD00BFA882022008B5034B1D
:102BD000D3F8A800FFF70EFF08BD00BFA8820220AF
:102BE00008B5034BD3F8A400FFF704FF08BD00BFEE
:102BF000A882022008B5034BD3F8A000FFF7FAFE25
:102C000008BD00BFA882022008B5034BD3F89C0082
:102C1000FFF7F0FE08BD00BFA882022008B5034BF5
:102C2000D3F89800FFF7E6FE08BD00BFA882022097
:102C300008B5034BD3F89400FFF7DCFE08BD00BFD6
:102C4000A882022008B5034BD3F89000FFF7D2FE0C
:102C500008BD00BFA882022008B5034BD3F88C0042
:102C6000FFF7C8FE08BD00BFA882022008B5034BCD
:102C7000D3F88800FFF7BEFE08BD00BFA88202207F
:102C800008B5034BD3F88400FFF7B4FE08BD00BFBE
:102C9000A882022008B5034BD3F88000FFF7AAFEF4
:102CA00008BD00BFA882022008B5024BD86FFFF70D
:102CB000A1FE08BDA882022008B5024B986FFFF75D
:102CC00099FE08BDA882022008B5024B586FFFF795
:102CD00091FE08BDA882022008B5024B186FFFF7CD
:102CE00089FE08BDA882022008B5024BD86EFFF706
:102CF00081FE08BDA882022008B5024B986EFFF73E
:102D000079FE08BDA882022008B5024B586EFFF775
:102D100071FE08BDA882022008B5024B186EFFF7AD
:102D200069FE08BDA882022008B5024BD86DFFF7E6
:102D300061FE08BDA882022008B5024B986DFFF71E
:102D400059FE08BDA882022008B5024B586DFFF756
:102D500051FE08BDA882022008B5024B186DFFF78E
:102D600049FE08BDA882022008B5024BD86CFFF7C7
:102D700041FE08BDA882022008B5024B986CFFF7FF
:102D800039FE08BDA882022008B5024B586CFFF737
:102D900031FE08BDA882022008B5024B186CFFF76F
:102DA00029FE08BDA882022008B5024BD86BFFF7A8
:102DB00021FE08BDA882022008B5024B986BFFF7E0
:102DC00019FE08BDA882022008B5024B586BFFF718
:102DD00011FE08BDA882022008B5024B186BFFF750
:102DE00009FE08BDA882022008B5024BD86AFFF789
:102DF00001FE08BDA882022008B5024B986AFFF7C1
:102E0000F9FD08BDA882022008B5024B586AFFF7F9
:102E1000F1FD08BDA882022008B5024B186AFFF731
:102E2000E9FD08BDA882022008B5024BD869FFF76A
:102E3000E1FD08BDA882022008B5024B9869FFF7A2
:102E4000D9FD08BDA882022008B5024B5869FFF7DA
:102E5000D1FD08BDA882022008B5024B1869FFF712
:102E6000C9FD08BDA882022008B5024BD868FFF74B
:102E7000C1FD08BDA882022008B5024B9868FFF783
:102E8000B9FD08BDA882022008B5024B5868FFF7BB
:102E9000B1FD08BDA882022008B5024B1868FFF7F3
:102EA000A9FD08BDA882022008B50B463B2800F208
:102EB000C682DFE810F0BB02B202A902A0029702AC
:102EC0008E0285027C0273026A02610258024F027E
:102ED00046023D0234022B022202190210020702AE
:102EE000AE01A5019C0193018A01810178016F0166
:102EF00066015D0154014A01400136012C012201A5
:102F000018010E010401FA00F000E600DC00D20016
:102F1000C800BE00B400AA00A00096008C00820089
:102F200078006E0064005A00500046003C00BD4A24
:102F3000BD49C2F8EC303B20042217F071FA0120A1
:102F400008BDB84AB949C2F8E8303A20042217F05F
:102F500067FA012008BDB34AB549C2F8E430392008
:102F6000042217F05DFA012008BDAE4AB149C2F84B
:102F7000E0303820042217F053FA012008BDA94A96
:102F8000AD49C2F8DC303720042217F049FA01209D
:102F900008BDA44AA949C2F8D8303620042217F047
:102FA0003FFA012008BD9F4AA549C2F8D430352018
:102FB000042217F035FA012008BD9A4AA149C2F847
:102FC000D0303420042217F02BFA012008BD954A96
:102FD0009D49C2F8CC303320042217F021FA012099
:102FE00008BD904A9949C2F8C8303220042217F02F
:102FF00017FA012008BD8B4A9549C2F8C430312028
:10300000042217F00DFA012008BD864A9149C2F842
:10301000C0303020042217F003FA012008BD814A95
:103020008D49C2F8BC302F20042217F0F9F9012095
:1030300008BD7C4A8949C2F8B8302E20042217F016
:10304000EFF9012008BD774A8549C2F8B4302D2038
:10305000042217F0E5F9012008BD724A8149C2F83F
:10306000B0302C20042217F0DBF9012008BD6D4A96
:103070007D49C2F8AC302B20042217F0D1F9012091
:1030800008BD684A7949C2F8A8302A20042217F0FE
:10309000C7F9012008BD634A7549C2F8A430292048
:1030A000042217F0BDF9012008BD5E4A7149C2F83B
:1030B000A0302820042217F0B3F9012008BD594A96
:1030C0006D49C2F89C302720042217F0A9F901208D
:1030D00008BD544A6949C2F898302620042217F0E6
:1030E0009FF9012008BD4F4A6549C2F89430252058
:1030F000042217F095F9012008BD4A4A6149C2F837
:1031000090302420042217F08BF9012008BD454A95
:103110005D49C2F88C302320042217F081F9012088
:1031200008BD404A5949C2F888302220042217F0CD
:1031300077F9012008BD3B4A5549C2F88430212067
:10314000042217F06DF9012008BD364A5149C2F832
:1031500080302020042217F063F9012008BD314A95
:103160004D49D3671F20042217F05AF9012008BDEA
:103170002C4A4A4993671E20042217F051F9012076
:1031800008BD284A464953671D20042217F048F914
:10319000012008BD234A434913671C20042217F06D
:1031A0003FF9012008BD1F4A3F49D3661B20042276
:1031B00017F036F9012008BD1A4A3C4993661A20D7
:1031C000042217F02DF9012008BD164A384953662C
:1031D0001920042217F024F9012008BD114A3549AD
:1031E00013661820042217F01BF9012008BD0D4AB0
:1031F0003149D3651720042217F012F9012008BDC8
:10320000084A2E4993651620042217F009F9012077
:1032100008BD044A2A4953651520042217F000F915
:10322000012008BDA8820220792A00008D2A000012
:10323000A12A0000B52A0000C92A0000DD2A0000EA
:10324000F12A0000052B0000192B00002D2B000097
:10325000412B0000552B0000692B00007D2B000046
:10326000912B0000A52B0000B92B0000CD2B0000F6
:10327000E12B0000F52B0000092C00001D2C0000A4
:10328000312C0000452C0000592C00006D2C000052
:10329000812C0000952C0000A92C0000B92C000006
:1032A000C92C0000D92C0000E92C0000F92C0000EA
:1032B000092D0000192D0000292D0000392D0000D6
:1032C000492D00005F4A604913651420042217F05D
:1032D000A7F8012008BD5B4A5C49D364132004228F
:1032E00017F09EF8012008BD564A594993641220F0
:1032F000042217F095F8012008BD524A554953643D
:103300001120042217F08CF8012008BD4D4A5249C3
:1033100013641020042217F083F8012008BD494AE5
:103320004E49D3630F20042217F07AF8012008BD1C
:10333000444A4B4993630E20042217F071F8012090
:1033400008BD404A474953630D20042217F068F82E
:10335000012008BD3B4A444913630C20042217F0A6
:103360005FF8012008BD374A4049D3620B20042290
:1033700017F056F8012008BD324A3D4993620A20F1
:10338000042217F04DF8012008BD2E4A3949536236
:103390000920042217F044F8012008BD294A3649C3
:1033A00013620820042217F03BF8012008BD254ACB
:1033B0003249D3610720042217F032F8012008BDFA
:1033C000204A2F4993610620042217F029F8012092
:1033D00008BD1C4A2B4953610520042217F020F830
:1033E000012008BD174A284913610422104617F02E
:1033F00017F8012008BD134A2449D3600320042292
:1034000017F00EF8012008BD0E4A214993600220F2
:10341000042217F005F8012008BD0A4A1D4953602F
:103420000120042216F0FCFF012008BD054A1A49BC
:1034300013600020042216F0F3FF012008BD0020D5
:1034400008BD00BFA8820220592D0000692D000090
:10345000792D0000892D0000992D0000A92D000074
:10346000B92D0000C92D0000D92D0000E92D000064
:10347000F92D0000092E0000192E0000292E000051
:10348000392E0000492E0000592E0000692E000040
:10349000792E0000892E0000992E0000F8B5044610
:1034A00015460E460846022117F062F8284602210A
:1034B00017F05EF8164A174B52F83610012001F546
:1034C00000772760207252F83520607202F500778D
:1034D00000206760E060013BFDD191F8003292F876
:1034E000002203F00103D20744BF43F00203DBB222
:1034F000A37221463046FFF7D7FC214620742846A8
:10350000FFF7D2FC237C184420742046F8BD00BF8E
:10351000F80E0400C0D401002DE9F0412DED048B1C
:103520006F48704990F800E06F4C704E704A714BD4
:10353000714F724D3F7803C9206096E80300A06088
:1035400092E80300E06093E8070004F1140303C36A
:1035500095E8030023F8022BF821022F4FEA1242CC
:103560004FF01005616008BF0027D421BEF1010FA4
:103570001A708EB025616062A1625ED0604B1868DF
:103580001CF0BEFD04AECDE900015E4A28213046A4
:103590001EF000F93146054604F12C001EF0BEFA7B
:1035A0002C35594BDFF840810FCBB646AEE807000B
:1035B0000D228EF800303146601916F04BFD3B4667
:1035C000524A282130461EF0E5F80C3507463146B0
:1035D00060191EF0A3FA4E4B1B783D44FBB14D4BD6
:1035E0004D4A1B78282130461EF0D4F83146074654
:1035F00008EB05001EF092FA484B494A1B7803EB92
:10360000830303EB8303282130461EF0C3F83D44B7
:103610003146074608EB05001EF080FA3D442023A2
:10362000314660190222ADF8103016F013FD2E4815
:103630000EB0BDEC048BBDE8F0813A4B3A4E1B78DE
:103640003A495A08A6FB02029208C2EBC200A3EB59
:103650004003DBB207EE103A07EE902AB8EEC77AC5
:10366000B7EE089AF8EEE76A27EE097AF3EE048AD5
:10367000A6EEA87A0D78B1EE088A77EE487A17EEB2
:10368000900A1CF03DFD6B08A6FB03239B08C3EBCF
:10369000C302A5EB4205EAB207EE902A07EE103A04
:1036A000F8EEE77AB8EEC77A67EE897ACDE90201DB
:1036B000E7EE287A04AE77EEC87A17EE900A1CF08F
:1036C0001FFD1B4ACDE90001304628211EF062F89B
:1036D0003146054604F12C002C351EF01FFA60E738
:1036E000786B0220D0590200EC7B0220D8590200EE
:1036F000E0590200E859020008440220F45902008F
:1037000094600220145A0200245A0200345A020023
:10371000615E0220B3430220485A02008E43022019
:10372000585A0200D772022093244992254402205D
:10373000FC5902003E4B93E80300F0B53D4D3E4E70
:1037400028600FCE8DB002AC0FC4D6F800E0C4F8EC
:1037500000E002AE0FCE394F05F108060FC60FCFBD
:10376000C6F800E04FF4FC7C3F68C5F804C002AE28
:103770000FC602A9277005F11B001EF0CFF9304AD1
:10378000304B02A828211EF005F802A9044605F1D5
:103790002B001EF0C3F92C4B18681CF0B1FC2B4A0F
:1037A000CDE9000102A828211DF0F4FF2B340646C4
:1037B00002A928191EF0B2F9254B264A1B78022BC4
:1037C00008BF002302A828211DF0E4FF344402A909
:1037D000064628191EF0A2F91F4A204B1168204AFC
:1037E00003EB011302A89B6828211DF0D3FF34448A
:1037F000034602A928191C441EF090F9194B1A4AD5
:1038000002A828211DF0C6FF02A9064628191EF0AD
:1038100085F9164B164A02A828211DF0BBFF301966
:1038200002A928441EF07AF928460DB0F0BD00BF69
:10383000685A020068780220705A0200845A020016
:10384000A45A0200985A020094600220BC5A020056
:1038500008440220D05A020090430220148802003B
:10386000E45A0200CC5D0220F85A02009C5D02205E
:10387000145B0200224AF8B51268224B224E234FF5
:1038800003EB021304469D682148052117F078FEDA
:103890000121204817F074FE2946304616F0D8F969
:1038A000304616F06BF91C491C4B1D4E1D4A9D619C
:1038B00003C9186097E80300986096E80300D86091
:1038C00092E803001849586203C9A4F1AC0222F03F
:1038D0000102102401216D0002F5697E022778267D
:1038E000C3F8A400DD61C3F8A820C3F804E01F8476
:1038F0009E621C615C849982D9821846F8BD00BF23
:1039000090430220148802002C460220385B0200FB
:10391000285B0200CC5D0200305B020024730220B1
:10392000405B0200485B0200505B020070B5092159
:10393000A2B0824817F024FE814816F01FF9814B8F
:10394000814A00935021814B81481DF023FF0921BA
:10395000804817F015FE01217F4817F011FE7C48C2
:103960001EF04EF901467A4817F00AFE744816F028
:1039700005F9002302A8764A78490DF04DF9149B09
:10398000002B00F0D180682016F0B4FC04464FF400
:103990007A759DF80C00049A9DF814307049A56062
:1039A000704E207600256161E26106A984F820301E
:1039B000266025712573256104F124000CF0A8FF11
:1039C0002369694A6261013323616566674B02932B
:1039D00006A80CF0CBFF23680095596B002200234A
:1039E00020468847236820469B6A242202A99847DC
:1039F0009DF821509DF820309DF8222003EB0523EF
:103A000013EB024559D09DF80D609DF80C209DF8F0
:103A10000E309DF80F009FED567A564902EB0622B4
:103A200002EB034303EB0063A3F5697307EE903ADF
:103A3000F8EE677A67EE877A07EE105AF8EEC76AF3
:103A400087EEA67ABCEEC77A81ED007A0B214A4850
:103A500017F096FD0121404817F092FD00230A223D
:103A60002946374816F0B4F8354816F087F8002C88
:103A700048D02368042202A99B6A20469847042262
:103A80003E4902A81DF094FBD0B13D4B002103F14B
:103A9000780203F8011F9A42FBD15CB123682046EB
:103AA0001B6C98472369013B23611BB9236820469F
:103AB0001B6A9847284622B070BD2E4B1D60C5E793
:103AC0000E21304817F05CFD1D4816F057F82E4ABD
:103AD0002368012111709B6A042202A9204698479D
:103AE000236802A99B6A782220469847244B0DF14F
:103AF000070203F1780012F8011F03F8011F984232
:103B0000F9D1CAE702A804221C491DF051FB002884
:103B1000BBD10E211B4817F033FD094816F02EF8D3
:103B2000194B01221A70E1E7159C002C7FF42BAF92
:103B30000E4B029306A80CF019FF59E7585B0200E0
:103B40002C460220645E0220645B0200285F022093
:103B5000C05202206C5B0200CC5D0200987D022006
:103B60005C52020034530200B05202008C52020038
:103B70000000FA43747A0220785B0200485B02007E
:103B8000875F0220845B0200E0730220F0B54D4D98
:103B9000296891B0064621B100234B4A4B480CF0EE
:103BA0002FFF4B4C49490023324604F110000CF022
:103BB00067FF4849A06C00230B7000287BD050227F
:103BC0000CF014F844480CF0D1FE40480CF0CEFE46
:103BD0000521424817F0D4FC0121414817F0D0FCE0
:103BE0003C481EF00DF801463A4817F0C9FC3D4824
:103BF00015F0C4FF296821B10023364A33480CF080
:103C0000FFFE334F002519E00BF0F0FF3649684600
:103C100016F042F9354904A816F03EF904A96846A1
:103C200016F04EF910B304A816F0F6F8684616F030
:103C3000F3F80135ADB228480CF098FE0022234974
:103C400025480CF053FF284B00265022194648B354
:103C5000BC6C1E702046002CD6D1FC6C502219463C
:103C60002046002CD2D009F011FCCFE71E4908A84D
:103C700016F012F91E490CA816F00EF90CA908A8A6
:103C800016F01EF904460CA816F0C6F808A816F09F
:103C9000C3F804A816F0C0F8684616F0BDF8002C6A
:103CA000C9D0C6E70C480CF061FE08480CF05EFE77
:103CB000284611B0F0BDE06C002883D0502209F0F6
:103CC000E5FB7FE73C7D0220945B0200887B0220BD
:103CD000805602205858022090560220985B02001D
:103CE000CC5D02002C460220645E0220A05B020034
:103CF000A85B02002DE9F041172190B006467A48F2
:103D00007A4D17F03DFC7A4815F038FF03217948C9
:103D100017F036FC0121784817F032FC3146744820
:103D200015F096FF724815F029FF296821B100238C
:103D3000724A73480CF064FE724C7149002332469B
:103D400004F110000CF09CFE6F49A06C00230B7076
:103D5000002800F0AB8050220BF048FF6B480CF0BD
:103D600005FE67480CF002FE0521694817F008FCC3
:103D70000121614817F004FC63481DF041FF014632
:103D8000614817F0FDFB5A4815F0F8FE296821B18B
:103D900000235D4A5A480CF033FE5E4EB06C10B101
:103DA00000210BF03FFCF06C18B10022002309F059
:103DB00027FD594D534C00272F802FE050220BF048
:103DC00015FF5649684616F067F8554904A816F0DD
:103DD00063F804A9684616F073F8002831D004A8E7
:103DE00016F01AF8684616F017F8B36C2A88494995
:103DF000002B54D05B695B09013B9BB2494940F2FF
:103E0000E63001EB4201824298BF0132A1F8DC3773
:103E100098BF2A8001273D480CF0A8FD00223849B0
:103E20003A480CF063FE48B33C49A06C00230B7089
:103E30000028C3D1E06C0028C3D0502209F026FB33
:103E4000BFE7364908A816F027F837490CA816F03E
:103E500023F80CA908A816F033F880460CA815F032
:103E6000DBFF08A815F0D8FF04A815F0D5FF6846B9
:103E700015F0D2FFB8F1000FCDD0B6E723480CF013
:103E800075FD1F480CF072FDC7B90821274817F0CF
:103E900077FB174815F072FE10B0BDE8F081CB6CCF
:103EA000F3B11B685B09013B9BB2A7E7E06C0028FC
:103EB0003FF454AF502209F0E9FA4FE70D211C48B6
:103EC00017F05EFB01210C4817F05AFB29880848BF
:103ED00015F0BEFE064815F051FE10B0BDE8F081A9
:103EE0004FF6FF738AE700BFB05B02003C7D022003
:103EF0002C460220C85B0200CC5D0200945B0200ED
:103F0000887B0220805602205858022090560220BA
:103F1000985B0200787B022050580220645E0220E9
:103F2000A05B02000002FF1FA85B0200DC5B020036
:103F3000CC5B020038B511210546314817F020FB53
:103F40000921304817F01CFB01212F4817F018FBFE
:103F500029462E4815F07CFE2C4815F00FFE2C4803
:103F60000CF004FD2B4B196821B100232A4A284884
:103F70000CF046FD0A212948294C17F001FB0121CC
:103F8000214817F0FDFA24481DF03AFE0146224868
:103F900017F0F6FA1D4815F0F1FD00231C492A46DA
:103FA00004F110000CF06CFD1E49A06C00230B7096
:103FB000F8B150220BF01AFE04211B4817F0E0FA6A
:103FC0000121114817F0DCFA16481DF019FE0146D0
:103FD000144817F0D5FA0D4815F0D0FD0C480CF038
:103FE000C5FC124B1B781BB9FFF7A0FC104B1860E7
:103FF00038BDE06C0028DFD0502209F047FADBE73B
:10400000E85B0200FC5B0200CC5D02002C46022053
:10401000887B02203C7D0220285F0220085C020091
:1040200080560220645E0220145C0200207B022085
:10403000587802202DE9F04F8E488F4E97B00CF043
:1040400095FC8E480CF092FC316821B100238C4A1B
:104050008A480CF0D5FC10218A488B4D17F090FA55
:104060008A4815F08BFDA86C10B100210BF0DAFA2C
:10407000E86C18B10022002309F0C2FBDFF82CA283
:10408000DFF818820023AAF800304446994600223F
:104090007A4978480CF02AFD002844D07C49A06C6D
:1040A00000230B7050B350220BF0A0FDD8F848301D
:1040B00073B31B7813F0700F14BF01230023CBB12F
:1040C000AB6CBAF800207049002B00F0B8805B6937
:1040D0005B09013B9BB26F4940F2E63001EB4201C4
:1040E000824298BF0132A1F8AC3F98BFAAF80020E5
:1040F0004FF001095F480CF039FCC8E7E06C00287C
:10410000F8D0502209F0C2F9D8F84830002BD0D1AD
:10411000E36C002BEED093F8313013F0500F14BF46
:1041200001230023CBE707465248CDF804900CF05A
:104130001DFC52480CF01AFC316821B13B46504A34
:104140004E480CF05DFCBAF80030012B65DD4FF0F5
:1041500001094F46002F58D000273D46CDF800906A
:104160004D4C2FE050220BF041FD42480CF0FEFB7D
:10417000002334F8022F41493E480CF081FCD8F866
:104180004800002301358DF80830002833D002AEF6
:10419000314650220BF02AFD36480CF0E7FB3C4834
:1041A0001CF0D6FC834630461CF0D2FC834507DD6C
:1041B00034F8023C228824F8022C0137BFB2238055
:1041C000BAF80030C9EB0302954220DA00232B49EC
:1041D000228828480CF054FC2D49D8F848000023C8
:1041E0000B700028BED12D4BD86C0028BDD05022BA
:1041F00009F04CF9B9E7294BD86C02AE0028CBD0B6
:104200003146502209F042F9C6E7CDF800900099F6
:104210005A1E8A4209F101099CDC019BB3B90721AE
:104220001F4817F0ADF9194815F0A8FC11480CF01B
:104230009DFB12480CF09AFB17B0BDE8F08FCB6CD9
:10424000ABB11B685B09013B9BB244E70C211548ED
:1042500017F096F90121144817F092F9BAF80010F6
:104260000A4815F0F5FC094815F088FCDEE74FF622
:10427000FF7330E7905602203C7D0220887B0220AD
:10428000945B02001C5C0200787B02202C4602201A
:10429000585802200002FF1FAC11FF1F8056022059
:1042A000405C0200305C0200CC5D020050530220F2
:1042B0002DE9F04F072195B0B448B54E17F060F9DD
:1042C0000821B44817F05CF9B34815F057FC0421F5
:1042D000B24817F055F9B36C002B00F05281B0488A
:1042E0000CF044FBAF4BB04F1868B04DB04CDFF84A
:1042F00024B3DFF824A3DFF82493DFF82483FCF74A
:104300005FFF3B6822682968019103F2B273009253
:104310005021A84AA8481DF03DFA3B682268296848
:10432000DBF8000001910092DAF80010D9F80020C3
:10433000049003F2B2730391029250219F4AA04865
:104340001DF028FA9E4A9F4850211DF023FA3B6831
:104350002A682468DAF80000D9F80010DBF8007049
:10436000039003F2B273029101921421964A0497CA
:10437000009496481DF00EFA0821954817F000F9B0
:104380000121944817F0FCF88B481DF039FC0146D8
:10439000894817F0F5F8804815F0F0FBD8F80010C0
:1043A000002900F0E18000238B4A8C480CF028FBA8
:1043B000044609218A488B4D17F0E2F8012185480F
:1043C00017F0DEF82146744815F042FC724815F0EB
:1043D000D5FB0123784A844805F110010CF0DAFA84
:1043E00006210446814817F0CBF80121794817F0DF
:1043F000C7F82146684815F02BFC674815F0BEFB4E
:1044000007217B4817F0BCF80121724817F0B8F873
:10441000AF6C002F00F097804FF0000E39467346C6
:10442000654A8DF818E006A88DF819E08DF81AE0B5
:104430000AF070FE0146584815F00AFC564815F07F
:104440009DFB002C4FD010216A4817F099F8524874
:1044500015F094FB68495B4B009301240C70564B9C
:10446000664A574850211DF095F955481DF0C8FB84
:104470000146534817F084F8474815F07FFBD8F8F9
:104480000010002972D040F201234D4A44480CF03C
:10449000B7FA04460C215A4817F072F801214D482A
:1044A00017F06EF821463C4815F0D2FB3A4815F05B
:1044B00065FBB06C364B00285AD052490AF098FE82
:1044C00004461121504817F05BF80121414817F0CC
:1044D00057F82146304815F0BBFB2F4815F04EFB2E
:1044E00015B0BDE8F08FA96C3E4BC1B12346324AEE
:1044F0008DF8184006A88DF819408DF81A400AF07A
:1045000009FED8B141492448FCF726FE2D4B009303
:104510003A4A294B2A4850211DF03CF9A5E7D96CAD
:1045200061B12346244A8DF8494006A88DF84A40D7
:104530008DF84B4009F0D2FB0028E3D134491648EE
:10454000FCF70AFE91E7E96C00293FF474AF3B46A3
:10455000194A8DF8497006A88DF84A708DF84B708D
:1045600009F0BCFB014666E70C4622E70C4691E7E2
:10457000D86C002856D0234A002309F021FF0446B6
:104580009FE7F36C002B7FF4AAAEABE6485C020019
:1045900080560220505C02002C460220B8580200CF
:1045A0009056022000D00340F07C0220806202205E
:1045B000386002205C5C0200D07702206C5C020054
:1045C000645E0220CC5D02208C5C02009C5D0220B7
:1045D000AC5C0200CC5D0200945B02005C570220E0
:1045E000B85C02004C570220887B0220C45C0200A9
:1045F000CC5C0200D45C020060780220E85C02001F
:10460000185D0200C0E1E400285D0200F05C0200D9
:10461000045D020058550220D4730220AC770220BA
:104620003C7D022004464CE72DE9F0410721ADF521
:10463000856D3648364F16F0A3FF1021354816F029
:104640009FFF354815F09AFA0421344816F098FF78
:104650003D68C5F35115002D00F02382304C314EDA
:1046600004EB8535B04605E00BF076F904F580449F
:10467000A54214D0B36C4FF4804221461846002B5B
:10468000F2D1D8F84C3021464FF480421846002B26
:10469000ECD004F5804409F095FFA542EAD1082149
:1046A0002148204D16F06CFF0121204816F068FFCC
:1046B0001F4B19481A680092002300990A2215F02E
:1046C00087FA154815F05AFA00233B6004E00BF016
:1046D00043F9184815F0A8F8164815F05BF80028BB
:1046E000144829DD15F084F8B36C044601464FF4F4
:1046F00080721846002BEAD1EB6C4FF48072214691
:104700001846002BE5D009F05DFFE2E7485C0200A7
:10471000C87702203C5D02002C460220B8580200F7
:104720008019FF1F80560220505D0200CC5D020000
:10473000CC840220485A0220B06CB94B002800F00B
:1047400022810BF0CDF80C21B64816F019FF01219B
:10475000B54816F015FFB54AB54B1268B54803EBDE
:104760000212002391680A2215F032FAB14815F0BE
:1047700005FAB06CAA4B002800F0788100210AF0FD
:1047800051FFB36CA64A002B00F07B81DF69002546
:104790003C463846FFF76EF8AC2201461FA815F0DC
:1047A00059FCB06C9E4B002800F0728100210AF089
:1047B00039FFB06C9A4B002800F010811FA9AC2281
:1047C0000BF0CAF8B06C964B002800F06C812C21DD
:1047D0000AF028FF984A9FED997A02F5F070134687
:1047E00053F8041F07EE901AF8EE677AF4EE477A52
:1047F000F1EE10FAC8BFB0EE677A9842F0D1B5EE8C
:10480000407AF1EE10FA1CBFF7EE007A87EE877A55
:104810000DF10301DFED8A6A52F8043F07EE903A8A
:10482000F8EE677A904267EE877A67EEA67AFCEE3A
:10483000E77A17EE903A01F8013FEDD1B06C784B72
:10484000002800F0BA80782201A90BF085F8B06C3E
:10485000734B002840F0BE80D86C18B122462B461E
:1048600008F0CEFFFEF758FE4FF4807201464AA8CA
:1048700015F0F0FBB06C6A4B002800F094804AA958
:104880004FF480720BF068F8FEF754FF4FF400729B
:1048900001468AA815F0DEFBB06C614B002879D088
:1048A0008AA94FF400720BF057F86648664E0CF078
:1048B0005DF81221654816F063FE01215A4816F092
:1048C0005FFE634B5B48198815F0C2F9594815F033
:1048D00055F908215F4816F053FE0121524816F0A1
:1048E0004FFE5D4B5348198815F0B2F9514815F049
:1048F00045F9D6F88404002800F082808279C569E1
:10490000564C4FF4007303FA02F292B2013DA2FB3F
:10491000052322600BF016FFD6F884344A492A1A80
:10492000002B64D099794FF400738B409BB2A3FBAA
:1049300002234B4D4B482A60092116F021FE01212C
:10494000394816F01DFE29683A4800230A22090D4D
:1049500015F03EF9374815F011F90A21424816F0D2
:104960000FFE0121304816F00BFE21683148090D79
:1049700000230A2215F02CF92E4815F0FFF80DF54A
:10498000856DBDE8F081D86C00283FF4DCAE09F0FD
:10499000A7FDD8E6D86C002887D08AA94FF400720A
:1049A00009F010FE81E7D86C00283FF46DAF4AA9EA
:1049B0004FF4807209F006FE66E7D86C00283FF4D9
:1049C00051AF782201A909F0FDFDB06C144B00280D
:1049D0003FF442AF39460AF025FE43E7D86C002881
:1049E0003FF4F8AE1FA9AC2209F0ECFDEAE6D1F8DD
:1049F0008834002B68D0D3F83C3402FB03F298E7EC
:104A0000D6F8880400285BD0D0F83054D0F83C2485
:104A1000124CA2FB052322600AF0A4F87CE700BF39
:104A2000805602205C5D0200CC5D020090430220B3
:104A3000148802002C46022050530220000000007F
:104A40000000484390560220947D02206C5D0200D5
:104A5000F47C0220805D02002C7D0220DC730220A9
:104A6000545802208C5D0200985D0200D86C18B387
:104A70000022002308F0C4FEB36C144A002B7FF41C
:104A800085AED76CCFB1D7E904450025274680E62F
:104A9000D86C00283FF49EAE0022002308F0B0FE40
:104AA00087E60A4EFBE5D86C00283FF493AE2C2233
:104AB000002308F0A5FE8DE607460024002568E6E1
:104AC000034C0246206034E71A4632E78056022043
:104AD000DC7302202DE9F0433B4EC1B0374619E0AC
:104AE000DFF8F08000253368384805EB430308EB16
:104AF000032414F07DFE4FF480720146204615F029
:104B0000A9FA0135314814F08FFE022DEBD13B6834
:104B100001333B602D4814F03DFE0128E0DC336892
:104B2000BF2B4ED9DFF8AC80294D444608F5C0377D
:104B3000A94605E00AF010FF04F58044BC4214D0F9
:104B4000AB6C4FF4804221461846002BF2D1D9F8C5
:104B50004C3021464FF480421846002BECD004F52F
:104B6000804409F02FFDBC42EAD100252946684661
:104B70004FF4807235601CF0B1FB144808EB05243B
:104B800014F008FED8B1114814F032FE4FF48072D0
:104B90000146204615F05EFA0C4814F045FE214609
:104BA0004FF4807268461CF003FB0028E5D0013505
:104BB000064808EB052414F0EDFD0028E3D16D084C
:104BC000356041B0BDE8F083C8770220485A022022
:104BD000805602208019FF1F2DE9F843DFF8748208
:104BE0008D4A98F8003000251570002B00F0F580F4
:104BF0005E1EF6B2894A8A4B92F800E0DFF858C28E
:104C0000013606EB460603EB860603F10804BEF107
:104C1000000F00F0C080197A05EB4507A4F10802E7
:104C20000CEB870705F1010921B107CA87E80700E6
:104C30005FFA89F50C33B34204F10C04E7D12C463A
:104C40000D21784888F8005016F09AFC2146002380
:104C50000A22754814F0BCFF734814F08FFFDFF888
:104C6000FCE19EF8006096B1751EEDB2013505EBD2
:104C70004505DFF8ACC16D4FAD0000230CEB03021E
:104C800007CAFC180C33AB4284E80700F6D10E21AA
:104C900067488EF8006016F073FC314600230A2244
:104CA0006148644FDFF8B891DFF8B88114F090FFE5
:104CB0005D4814F063FF0A24082206230D2509210C
:104CC0005D487A70BB703D70FC7016F059FC012194
:104CD0005A485B4D16F054FC22460023397852485E
:104CE00014F076FF504814F049FF0921554816F09A
:104CF00047FC0121514816F043FC224600237978F5
:104D0000494814F065FF484814F038FF09214E481F
:104D100016F036FC0121494816F032FC22460023E9
:104D2000B978414814F054FF3F4814F027FF092197
:104D3000464816F025FC0121404816F021FC224689
:104D40000023F978384814F043FF374814F016FF71
:104D50003F4BDFF814C104223E461A70002034781D
:104D60009CB301224FF0000EC1B2531EDBB203EB25
:104D70004303A8B3012944D002293CD005EB8303A7
:104D80001B7A1BB10EF1010E5FFA8EFEA2423ED2DB
:104D90000132D2B2E9E714F8082CA2F1640101292A
:104DA0007FF648AF672A3FF445AF197A05EB450710
:104DB000A4F108020CEB870700293FF43BAF07CAB8
:104DC000013587E80700EDB234E7A6460130042834
:104DD00006F801EBC3D1BDE8F8831C461D462FE75A
:104DE0000CEB83031B7A1BB10EF1010E5FFA8EFEF2
:104DF000A242CDD3EAE709EB83031B7A002BF7D05D
:104E0000F2E708EB83031B7A002BF1D0ECE707F8FD
:104E100000E0BDE8F88300BF906002205E590220E8
:104E200068CD0300A45D02002C460220F856022043
:104E3000B45D020060590220C45D0200CC5D020036
:104E400050C00300D05D0200DC5D0200E85D02009E
:104E5000944302201C440220787A02202C43022032
:104E60002454020010890200C8C00300FFFFFFFFA6
:104E700030B5044B1B68044683B018460D46FCF75A
:104E80009FF901E000D00340FF2C00F21B81DFE816
:104E900014F0C502BA02B802AD023B022F0219019A
:104EA0002D022402DC0219011901D2021901190193
:104EB0001901190119011901190119011901190122
:104EC0001901190119011901190119011901190112
:104ED0001901190119011901190119011901190102
:104EE00019011901190119011901190119011901F2
:104EF00019011901190119011901190119011901E2
:104F000019011901190119011901190119011901D1
:104F100019011901190119011901190119011901C1
:104F200019011901190119011901190119011901B1
:104F300019011901190119011901190119011901A1
:104F40001901190119011901190119011901190191
:104F500019011901190119011901D002C80203032D
:104F60001901190101031901190119011901190187
:104F70001901190119011901190119011901190161
:104F800019019C018401F901190119011901190183
:104F90001901190119011901190119011901190141
:104FA0001901190119011901190119011901190131
:104FB0001901190119011901190119011901ED014D
:104FC000EB01E101D901CD01AC01A4011B021302E7
:104FD0000F0219011901190119011901190119010A
:104FE00019011901190119011901190119011901F1
:104FF00019011901190119011901190119011901E1
:1050000019011901190119011901190119011901D0
:1050100019011901190119011901190119011901C0
:1050200019011901FB016501590119011901190142
:105030001901190152014A0142013A0119012E01D7
:10504000190119011901190119012C0124011C016F
:105050001901190119011901190119011901190180
:105060001901190119011901190119011901190170
:105070001901190119011901190119011901190160
:105080001901190119011901190119011901190150
:105090000001032D00F20C829F4BA04853F82520FD
:1050A00014211CF077FB9E4B1B78AB420AD19D4B21
:1050B0001B78002B40F03C829B4D984C0FCD0FC4C9
:1050C0002B682360954803B030BD984B984A1B88E5
:1050D000924814211CF05EFBF4E7964B964A1B683D
:1050E0008E4814211CF056FBECE7944BF6E7944BEA
:1050F0001B78002B40F0ED80924B884A1B68138090
:105100001B0C9370DEE7904B904A9B6883481421F8
:105110001CF040FBD6E78C4B8C4A5B687F4814211F
:105120001CF038FBCEE7884B884A1B687B4814216B
:105130001CF030FBC6E7864B784819680C221CF03F
:105140001DFEBFE7834B93F90030012B00F0D381A4
:10515000814A724B07CA03C31A70B3E77F4B804C76
:105160001868FCF72DF894F90030002B00F0A481AA
:10517000012B00F0CB81022BA4D17A4B7A497B4AD8
:105180001B68096812680092019103F2B273784AB1
:10519000624814211CF0FEFA94E7764B1B889FEDC1
:1051A000767A07EE903AF8EEE77A67EE877A17EEAE
:1051B000900A1AF0A5FF714ACDE900011421574861
:1051C0001CF0E8FA554803B030BD6D4B1B78002B3E
:1051D0007FD0524B6B4A1A6074E76B4B5B4A1B786B
:1051E0004E4814211CF0D6FA6CE7684B1B786849CE
:1051F0005A08A1FB02129208C2EBC201A3EB4103C1
:10520000DBB207EE903AF8EEE77AB7EE087A67EE8F
:10521000877A07EE102AB8EEC77AF3EE046AE7EE53
:10522000267AB1EE087A77EEC77AC0E7594B5A4A28
:105230001B783A4803EB830303EB830314211CF030
:10524000A9FA3FE7554B564A1B78344814211CF005
:10525000A1FA37E7534B1B783C4A304803EB8303F2
:1052600014211CF097FA2DE74F4BF4E74F4A1168D1
:105270004F4B504A294803EB011314215B681CF083
:1052800089FA1FE74C4B89E7354C94F90030002B25
:1052900000F02481002B7FF715AF484A484B126875
:1052A0001B681E4800921421464A1CF073FA09E755
:1052B0001A4B20221A8005E7434B187848B107EEB5
:1052C000900AFAEEEF7A72E7404B1B78002B7FF4DE
:1052D00013AF124B3E4A1A60F4E63E4B1B4A93F959
:1052E00000300E4814211CF055FAEBE63A4B7DE7EE
:1052F0003A4B18681AF004FF394ACDE9000114212D
:1053000006481CF047FADDE6364B374A1B7803485F
:1053100014211CF03FFAD5E6784302203C780220A5
:10532000E04302205E590220A45E02005058022091
:10533000A05E020054580220985E0200DC73022036
:105340009C4302204C650200387B0220105E020064
:105350000C590220714302208C5E020000D00340F1
:105360000C600220F07C0220806202203860022063
:10537000645E020028440220CDCCCC3D745E020065
:10538000786B02204F4E200040430220CC77022051
:10539000932449928E4302202C5E0200B3430220E4
:1053A000045E02008C430220B2430220E843022044
:1053B00014880200EC5C02008A430220D4730220AD
:1053C000AC770220685E02005F590220525802202A
:1053D0004F464600884302203A44022034440220CB
:1053E0007C5E02002D430220645C0200584B1B7857
:1053F000022B7FF66EAF574A574814211CF0CAF9AA
:1054000060E6564A33E7564A564B1168524853F8FD
:105410002130554A14211CF0BDF953E6534A544B30
:10542000F3E7544B544A1B784B4814211CF0B2F953
:1054300048E6524B07E7524B1B68012B64DD514A8B
:10544000454814211CF0A6F93CE64F4B1B782BBBBA
:105450004E4B9FED4F7A93F9003007EE903AF8EEFD
:10546000E77A67EE877A17EE900A1AF049FE41EC68
:10547000100B18F0B9F834A3D3E9002351EC100B4A
:105480001AF092FE434ACDE90001142132481CF083
:1054900081F917E6404BC5E7404B9FE603EB8303DA
:1054A00003EB83033E4A2C4814211CF073F909E6F0
:1054B000294B3C4A1A60F6E53B4B3C493C4A1B6889
:1054C000096812680092019103F2B273394A2248C6
:1054D00014211CF05FF994F9003049E6364A374B45
:1054E00012681B681C4800921421354A1CF052F9BE
:1054F00094F90030CEE6334A174B92E803000A0CC9
:10550000186099809A71DDE52F4AF5E7264B274907
:10551000274A1B68096812680092019103F2B2736E
:105520002A4A0D4814211CF035F994F9003022E67E
:10553000274B094C0FCB07C424F8023B1B0C2370EC
:10554000C0E500BFAFF3008000000020AEC72740D9
:1055500008440220045E02003C78022090430220AE
:105560002044022044430220EC5C02002C44022030
:105570005044022040440220185E02008D43022065
:1055800030430220345E0200E3430220D07B02203D
:10559000CFF7D33D205E0200E543022030440220D5
:1055A0002C5E02003F3F3F00F07C02208062022020
:1055B00038600220445E0200D4730220AC770220DF
:1055C000585E0200845E02003C5E0200545E0200EF
:1055D000F45D020070B5044682B00D4674480D219A
:1055E00015F0CEFF214600230A22724814F0F0FA8B
:1055F000704814F0C3FA74B96F4B1978294449B252
:10560000002947DB5A29A8BF5A2108461970FDF71F
:10561000C9F902B070BD032C15D1684B1B78012B62
:10562000F7D067496348FBF789FD664B1968294441
:105630000E29A8BF0E2121EAE17108461960FDF785
:10564000B5F802B070BD012C26D15F495F4C5948B6
:10565000FBF774FD5E495748FBF770FD94F90010A5
:105660005448FBF797FD2178294449B2002922DBF1
:105670002729A8BF27214BB2C9B2564A564D1268F6
:1056800056482370012A29700370C2D15448FCF790
:1056900005FCBEE72146B8E7042C0FD1514A136838
:1056A0000133022B05DC002BB8BF0223136002B0CC
:1056B00070BD0023FAE700210B46DEE7022C50D133
:1056C000494B1B68002BA4D1484E494C33680093CA
:1056D000009B22689B1AB3F5FA7F59D2F92B63D845
:1056E000642B41F2883134BF0B464FF4FA63414AD0
:1056F0004148116890ED007A03FB051141F65733DC
:10570000994242DDDFED3D6AC7EE267A4FF47A75A5
:10571000FDEEE77A17EE903A013B05FB03F5A9424F
:10572000A8BF2946364B116008461960FCF756FCA5
:10573000344BD3ED007AF5EEC07AF1EE10FA2AD4AC
:10574000B7EE007AF4EEC77AF1EE10FA25DD4FF4E9
:1057500080333268019201992B4A2160536202B072
:1057600070BD052C7FF455AF284B197801EB45012E
:10577000C9B2012907D93229A8BF32211970FCF713
:10578000B7FC02B070BD0221F8E741F65831C9E715
:105790004FF4FA73ABE70023DBE7B0EE677ABEEEB7
:1057A000C87A17EE103AD4E74FF47A739FE700BF38
:1057B000B85E02002C460220A8580220D8720220AF
:1057C000C85E020090430220DC5E02003A440220E0
:1057D000CC5D02005C43022054550220D07B0220A5
:1057E000487B022038430220AC430220CC840220B4
:1057F0003478022028430220346002200000FA445A
:105800008867022098430220D056022008440220D4
:1058100038B505460C46B448102115F0B1FE2946AE
:1058200000230A22B14814F0D3F9B04814F0A6F9C5
:10583000692D19D0092D0DD0662D3BD1AC4A1178B8
:10584000052313FB0413C82B31DC0E2B09DCC82302
:1058500013701AE0A74A13782344C82B24DC002BCA
:10586000F5DBDBB2137010E0A3490B782344102B57
:1058700018DC032B45DDDBB2A04A0B70002182F857
:10588000243082F8251082F82610962D40F0A28050
:105890009B4A13681C440E2C2CDC042CD8BF0E240D
:1058A000146038BD0423E7E700231370EDE70F23EE
:1058B0001370EAE7642D2AD1924A137803EB44036C
:1058C000232B1ADC002B1EDB07EE903A9FED8E7A1D
:1058D000F8EEE77ADBB227EE877A8C488C49D0ED78
:1058E000006A1370C7EE267AFDEEE77A17EE903A5B
:1058F0000B70CAE70524146038BD9FED867A00233B
:10590000EBE71023B8E79FED847A2323E5E7652DC5
:105910000ED1824A137823441E2B4FDC042B53DD17
:10592000DBB27F4875491370037081F82730ACE70C
:10593000022D0CD17B4A13681C440E2CA8BF0E24E8
:1059400024EAE47420461460FCF730FF38BD072DCC
:1059500022D1754D2B781C4464B2002C30DB272CEF
:10596000A8BF2724714961482C70FBF7E7FB7049F9
:105970005E48FBF7E3FB95F900105C48FBF70AFC77
:105980006C4B95F900106C481B686C4A0170012B38
:10599000C9B211701AD038BD082D4CD1684A13789D
:1059A0001C4464B2002C0DDB5A2CA8BF5A24654B52
:1059B000147020461C70FCF7F5FF38BD0523B0E7D6
:1059C0000024CFE70024F2E71E23AAE75E48FCF795
:1059D00065FA38BD9A2D18D15C4A13781C44C82C3E
:1059E0000EDC002C0FDDE4B2147038BD9D2D40F0AC
:1059F000F380574A13781C44012C19DC002CF2DA8E
:105A00000124147038BDC824EEE79B2DEED1514A15
:105A100013781C44272C0BDC002CE4DA2724E3E762
:105A2000782D40F00F814C4A13781C44012CE5DDA1
:105A30000024147038BD032D0FD1484A137803EBAE
:105A40004404E4B2012C06D9322CA8BF32241470CD
:105A5000FCF74EFB38BD0224F9E7052D26D1404B5B
:105A6000DFED406AD3ED007A9FED3F7A06EE104AF3
:105A7000B8EEC66AE6EE267AF4EEC77AF1EE10FAD0
:105A80000DD4B2EE047AF4EE477AF1EE10FAC8BF04
:105A9000F0EE477AC3ED007AFCF72AFB38BDF0EE52
:105AA000477AC3ED007AFCF723FB38BD042D0ED1F5
:105AB0002E4A13781C4414F0FF0406D0042CA8BF0F
:105AC00004241470FCF714FB38BD0124BFE7002D3B
:105AD00053D1274A13681C44022C4BDC002CB8BF5E
