:1000000000000320D1010000D99701009197010061
:10001000919701009197010091970100919701003C
:10002000919701009197010091970100D9970100E4
:10003000D997010091970100E9AE0100EDAE0100F2
:10004000D9970100D9970100D9970100D9970100EC
:10005000D9970100D9970100D9970100D9970100DC
:10006000D9970100D9970100D9970100D9970100CC
:10007000D9970100D9970100D9970100D9970100BC
:10008000D9970100D9970100D9970100D9970100AC
:10009000D9970100D9970100D9970100D99701009C
:1000A000D9C90100E5C90100D9970100D99701001C
:1000B000D9970100D9970100D9970100699D0100E6
:1000C000D9970100D9970100D9970100D99701006C
:1000D000D9970100D9970100D9970100D99701005C
:1000E000D9970100D9970100D9970100D99701004C
:1000F000D9970100D9970100D9970100D99701003C
:10010000D9970100D9970100D9970100D99701002B
:10011000D99701005DA00100D9970100D99701008E
:10012000D9970100D9970100D9970100D99701000B
:10013000D9970100D9970100D9970100D9970100FB
:1001400061C70000D9970100D9970100D997010034
:10015000D9970100D9970100D9970100D9970100DB
:10016000D9970100D9970100F1C90100D997010081
:10017000D9970100D9970100D9970100D9970100BB
:10018000D9970100D9970100D9970100D9970100AB
:10019000D9970100D9970100D9970100D99701009B
:1001A000D9970100D9970100D9970100D99701008B
:1001B000D9970100D9970100D9970100D99701007B
:1001C000D9970100D9970100D9970100D99701006B
:1001D0005C4B4CF2205210B51A804DF628121A8052
:1001E00000BF00BF19F0FCFA574B4FF030621A60A5
:1001F000564A9A60564ADA60564B4FF470021A60BB
:10020000554B564A1A60564B1A78110703D51A787F
:1002100042F008021A70534B5349AA221A70534AEB
:10022000534B8B4204D252F8040F43F8040BF8E707
:10023000504B514900228B4202D243F8042BFAE77B
:100240004E494F4A002352F8230041F8230001335E
:10025000742BF8D14B4B4C4A802103F8011B93427D
:10026000FBD14A4B454A1A60494B8A221A70A3F5C2
:10027000805324225A70A0221A709A799207FCD5D2
:100280009A79D406FCD4434A937903F00C03082BE3
:10029000FAD1414B60221A7002331A78802AFCD1BD
:1002A0003C4B01221A715D225A719A799006FCD555
:1002B0009979384A4906FBD5384B394919600021EC
:1002C000596020231370937903F00C030C2BFAD19F
:1002D000344B354A1A60354A354C136813F4807331
:1002E00003D123604FF4A8531360324B324A1A6093
:1002F00000225A60072243F8042C304AC3F80C2D20
:1003000062B619F07BFC2368DA0705D52C4819F092
:10031000D3FB2C4B2C4A1A602C4B1B785B0609D55F
:10032000284C294B22689A4204D1254819F0C4FB75
:10033000002323601FF0E8FE19F058FA19F04CF979
:10034000FEE700BF0E20054030800440823F0400DD
:100350000100002B88ED00E0002008E0030000858C
:1003600002D0074000E00740D0500220E4FA040029
:10037000303F0220E050022028850220003A02206F
:100380000000000000E400E064E400E008ED00E0AC
:10039000005006400040064001E007404480044011
:1003A0000000060204800440C010070010D0034083
:1003B00014D0034014E000E01FBF02000000202022
:1003C00086C739611CE00340A5C3945A00F007407A
:1003D000FFFFFFFFFFFFFFFFFFFFFFFFFFFFFFFF2D
:1003E000FFFFFFFFFFFFFFFFFFFFFFFFFFFFFFFF1D
:1003F000FFFFFFFFFFFFFFFFFFFFFFFFFFFFFFFF0D
:10040000FFFFFFFFFFFFFFFFFFFFFFFFDEF9FFFF23
:1004100010B5054C237833B9044B13B10448AFF33E
:1004200000800123237010BDE05002200000000076
:10043000E0FA0400084B10B51BB108490848AFF3B7
:1004400000800848036803B910BD074B002BFBD0A0
:10045000BDE81040184700BF00000000E450022033
:10046000E0FA0400D0500220000000000020704795
:10047000704700BF00207047002070474FF0FF30EA
:10048000704700BF006910B103689B6A1847704746
:10049000006910B10368DB6A18477047006910B142
:1004A00003681B6918477047006910B103689B69AE
:1004B00018474FF0FF307047006910B10368DB68E0
:1004C00018477047006910B10168096B0847704709
:1004D00010B4006920B10468616B5DF8044B0847F3
:1004E0005DF8044B704700BF006910B103689B6B57
:1004F0001847002000217047006910B10368DB6BCA
:100500001847002000217047006910B103681B6C78
:1005100018477047006910B103685B6C1847704753
:10052000006910B103689B6C18470148704700BF11
:10053000204C0200006910B10368DB6C184770475B
:1005400038B50B6904462BB11D6819462B6D9847C9
:10055000204638BD4FF47A70064A23712373A06099
:1005600022600B692361002BF2D01A6901321A61F3
:10057000204638BD54480200006910B103685B6D25
:1005800018477047006980B100B5036883B09B6A63
:1005900001220DF10701984720B19DF8070003B033
:1005A0005DF804FB4FF0FF30F9E74FF0FF30704784
:1005B00010B582B002AB026803F8011DD46A194677
:1005C0000122A04702B010BDC36D0BB101207047DE
:1005D000006E003018BF0120704700BF704700BF99
:1005E0009FED057ADFED057AE0EE077AFCEEE77A1B
:1005F00017EE901A11F080BE00000143EE7CFF3E22
:1006000010B50446406E18B11FF0C8FD00236366A4
:1006100004F12400BDE810400FF0E6BC10B5044B17
:10062000044640F8103B0FF0DFFC204610BD00BF31
:100630000C48020010B50446024603690549064805
:1006400018F05EFE206920B10368BDE810405B6AC7
:10065000184710BDEC4902006044022002460369BD
:100660000149024818F04CBE084A020060440220CA
:100670002DE9F041002394B01A460546243104A820
:100680004FF47A74254F8DF804308DF80C301293A6
:100690001393029400970FF067FD129B002B32D04A
:1006A000682019F0F1F804469DF80460029A9DF85C
:1006B0000C301B481B4926764FF47A7800262060C0
:1006C0006161E26184F8203004F1240004A92671FC
:1006D00026732661C4F808800FF058FC2369124A7B
:1006E0006761013366662E71C5F808802E732C6130
:1006F00023612A600D4B009304A80FF075FC284677
:1007000014B0BDE8F081139B002BC9D1064A2B71B0
:10071000AC602B732B612A60ECE700BF304802000D
:10072000B4480200DC470200544802000C480200B2
:1007300019F0BCB9F8B50D46064613F06FF812F083
:10074000DFFF044613F06AF812F0CCFF074613F0FF
:1007500065F812F0B9FFA4F2BC739BB27F2B02D8EC
:10076000FAB20C2A28D90023338013F057F812F07C
:1007700081FF064613F052F812F08AFF044613F088
:100780004DF812F093FFF3B2172B12D8E3B23B2BC4
:100790000FD8C3B23B2B0CD8F302640103F4FF2340
:1007A00004F4FF542343C0F3460003439BB22B8061
:1007B000F8BD00232B80F8BDC0B21F28D3D87F011D
:1007C00007F4FF57384340EA43239BB2CCE700BF0E
:1007D00010B504460CF034F9204610BDC26D62B16C
:1007E000137803F0080303F0FF0003B3D3695069E3
:1007F000181A48BF6FF000407047016EC1B191F800
:10080000313003F0080303F0FF0083B1D1E9042382
:10081000D1E90001101A30B463EB010100256FF03B
:1008200000448D4208BF844200D2204630BC70474D
:1008300008467047836C13B118460EF00FB9C06CB0
:1008400008B10CF003BB4FF0FF30704700B5836C6C
:1008500083B063B1184601220DF107010EF02EF8A6
:1008600001280CD19DF8070003B05DF804FBC06CB3
:1008700028B101220DF107010CF014FAF0E74FF056
:10088000FF30F1E7C36D13B118460EF061BB006E87
:1008900008B10CF0A7BF704702684AB11369013B69
:1008A000136103B17047006810B103681B6A1847F1
:1008B000704700BFD0B5C46D8CB1012B08BF002AB2
:1008C00001D30020D0BD114620460EF0E9F90028E2
:1008D000F7D020460EF042FB0028F2D0D0BD046EC7
:1008E000002CEED020460CF0C9FA0028E9D02046B2
:1008F000BDE8D0400DF032B910B5044619B1012958
:1009000011D0002010BD5522202111F0C9FC002873
:10091000F7D0E28842F00402204692B22421BDE8DA
:10092000104011F0BDBC40F273122A2111F0B8FC46
:100930000028E6D088222021204611F0B1FC0028B2
:10094000DFD0E288204622F004022421BDE81040D6
:1009500011F0A6BCC36D13B1D86900217047036EB6
:1009600013B118695969704718461946704700BF96
:10097000C36D13B1586900217047036E13B193E83A
:100980000300704718461946704700BFC36D13B186
:1009900018460DF093BF006E08B10CF083B94FF00C
:1009A000FF307047C36D13B118460EF057B8006E94
:1009B00008B10CF04BBA4FF0FF307047C36D33B144
:1009C0001B7813F0700F14BF012000207047006ED9
:1009D00030B190F8313013F0500F14BF01200020D7
:1009E000704700BF836C13B118460EF0B1BAC06CEB
:1009F00008B10CF0F7BE7047826C62B1137803F057
:100A0000080303F0FF0003B3D3695069181A48BF05
:100A10006FF000407047C16CC1B191F8313003F004
:100A2000080303F0FF0083B1D1E90423D1E90001F9
:100A3000101A30B463EB010100256FF000448D42C1
:100A400008BF844200D2204630BC70470846704739
:100A5000C36D9BB11A7812F0700F00D1704710B5BA
:100A60000446002118460EF01BF9206E28B1002222
:100A70000023BDE810400CF001BA10BD006E002844
:100A8000ECD090F8313013F0500FE7D00022002363
:100A90000CF0F4B9836C13B118460EF09BBAC06C1D
:100AA00008B10DF0CDB87047C36D13B118460EF004
:100AB00091BA006E08B10DF0C3B8704700B5836CF1
:100AC00083B08DF8071043B1184601220DF10701DC
:100AD0000EF080FA03B05DF804FBC06C0028F9D07A
:100AE00001220DF107010DF0ABF803B05DF804FB36
:100AF0000269084B10B50446036042B11369013B1B
:100B0000136123B9006910B103681B6A9847204636
:100B100010BD00BF54480200C26A0949094B10B514
:100B200004460160C36142B11369013B136123B9FB
:100B3000C06A10B103681B6A9847204610BD00BF09
:100B400088C503005448020038B5C36D144A0260DA
:100B5000044600F12405F3B128460FF045FA606E13
:100B600008B11FF01BFB0F4B636128460FF03CFAE6
:100B700022690D4B236042B11369013B136123B914
:100B8000206910B103681B6A98472046682118F055
:100B90007DFE204638BD036E002BDDD1DFE700BFB0
:100BA000B44802000C4802005448020002690A4B93
:100BB00010B50446036042B11369013B136123B9C8
:100BC000006910B103681B6A98472046142118F089
:100BD0005DFE204610BD00BF54480200D0B4039C07
:100BE00016461F4634B1012C1ED0022C0DD0002019
:100BF000D0BC7047C46DDCB1012B08BF002AF6D20F
:100C000020461146D0BC0EF04BB8C36DB3B1DA69C3
:100C1000B61847F10007012F08BF002EE7D2314672
:100C20001846D0BC0EF03CB8C36D8BB15A69EFE7E3
:100C3000006E0028DBD0D0BC0CF020B9006E00287C
:100C4000D5D0D0E9042392197B41D0BC0CF016B961
:100C5000006E0028CBD0D0E9002392197B41EAE74F
:100C600038B5C36D124A0260044600F12405D3B1C1
:100C700028460FF0B9F9606E08B11FF08FFA0D4BDE
:100C8000636128460FF0B0F922690B4B236042B133
:100C90001369013B136123B9206910B103681B6A12
:100CA0009847204638BD036E002BE1D1E3E700BF33
:100CB000B44802000C4802005448020038B5446EA3
:100CC0000CB1204638BD05464FF480701FF05EFA27
:100CD0000146686680B1E86D0C7028B14FF48072EF
:100CE0000EF0C2FA6C6EECE7286E40B14FF48072E1
:100CF0000BF00AFF6C6EE4E7024C6C66E1E70C4611
:100D0000DFE700BFFC5002202DE9F0419AB040F22D
:100D10000223A04AA04906A80FF0BCFA189B002B9A
:100D200000F0F981682018F0AFFD044600259DF819
:100D30001C60089A9DF824309848994920604FF427
:100D40007A780AAF26766161E26184F8203004F196
:100D500024003946257125732561C4F808800FF0F9
:100D600015F923698F4A904E656601338DF8085056
:100D7000CDF80C808DF810500594626123610196C6
:100D80008A4B069338460FF02FF9894B89491A6828
:100D9000894C01A818F0B4FA884B89491A6801A84F
:100DA00018F0AEFA874B88491A6801A818F0A8FA1B
:100DB000864B87491A6801A818F0A2FA854B864924
:100DC0001A6801A818F09CFA844B854993F9002011
:100DD00001A818F095FA834B834993F9002001A8E4
:100DE00018F08EFA814B82491A6801A818F088FA27
:100DF000804B81491A7801A818F082FA7F4B80490C
:100E00001A7801A818F07CFA7E4B7F491A7801A85D
:100E100018F076FA7D4B7E491A7801A818F070FA1E
:100E20007C4B7D491A7801A818F06AFA7B4B7C4903
:100E30001A7801A818F064FA7A4B7B491A7801A84D
:100E400018F05EFA794B7A491A7801A818F058FA26
:100E5000784B79491A7801A818F052FA774B7849FB
:100E60001A7801A818F04CFA764B77491A7801A83D
:100E700018F046FA754B76491A7801A818F040FA2E
:100E8000744B75491A7801A818F03AFA734B7449F3
:100E90001A7801A818F034FA724B73491A7801A82D
:100EA00018F02EFA714B72491A7801A818F028FA36
:100EB000704B71491A7801A818F022FA6F4B7049EB
:100EC0001A8801A818F01CFA6E4B6F491A8801A8FD
:100ED00018F016FA6D4B6E491A8801A818F010FA2E
:100EE0006C4B6D491A8801A818F00AFA6B4B6C49D3
:100EF0001A7801A818F004FA6A4B6B491A7801A80D
:100F000018F0FEF9694B6A491A7801A818F0F8F947
:100F1000684B694993F9002001A818F0F1F9674B73
:100F2000674993F9002001A818F0EAF9654B664972
:100F30001A7801A818F0E4F92268644901A818F0A9
:100F4000DFF96268624901A818F0DAF9A26861491C
:100F500001A818F0D5F9604B60491A7801A818F07B
:100F6000CFF95F4B5F491A7801A818F0C9F95E4BB9
:100F70005E4993F9002001A818F0C2F905980028ED
:100F800000F0C5800368DB6898470598002800F0EA
:100F9000BE80ADE048420220DC7B0220B448020063
:100FA000DC47020030480200544802000C480200AE
:100FB000EC410220284A02006879022054420220B3
:100FC0003C4A020080410220544A0200284202208A
:100FD000644A0200D0410220744A0200147A0220BE
:100FE000844A0200D4560220944A0200784102202A
:100FF000A04A02003C420220B44A02007D41022085
:10100000C44A020080420220D84A0200CD41022098
:10101000E84A020070420220F44A02002342022001
:10102000004B020025420220104B020064420220C5
:10103000204B0200F2410220344B0200CC4102203E
:10104000404B0200904102204C4B0200F341022031
:10105000584B0200CE410220644B0200FC75022076
:10106000704B02007E5602207C4B02008B57022000
:10107000904B0200A8690220A44B02008242022089
:10108000B44B020084410220C84B02006842022097
:10109000DC4B0200CA410220EC4B020094530220B8
:1010A000FC4B0200AC600220104C020036420220D1
:1010B000244C0200B1410220384C02009141022030
:1010C0004C4C020020710220644C0200784C02005B
:1010D000884C0200A04C0200B0410220B44C020037
:1010E000DC410220C84C020021420220D84C020000
:1010F00003681B6C9847059A019642B11369013B3E
:10110000136123B9059810B103681B6A9847012041
:101110001AB0BDE8F081199B002B7FF403AE4FF4A9
:101120007A72054E8DF808308DF8103005930392D1
:1011300001960AAF24E600BF54480200214B10B4C8
:10114000D3F8E0201368506819780478507A137A3D
:10115000044201EA03011BD0937A03F0030309B1AF
:1011600043F0040343F008039910013B91720D2BE7
:101170000BD8DFE803F021071B070A152121150A08
:10118000071B0721D368013BD3605DF8044B704710
:10119000937A03F003030029E6D043F00403E3E766
:1011A000D3685DF8044B023BD3607047D3685DF8A9
:1011B000044B0233D3607047D3685DF8044B0133AE
:1011C000D3607047EC800220214B10B4D3F8E420A8
:1011D0001368506819780478507A137A044201EA47
:1011E00003011BD0937A03F0030309B143F0040316
:1011F00043F008039910013B91720D2B0BD8DFE8E7
:1012000003F021071B070A152121150A071B0721D7
:10121000D368013BD3605DF8044B7047937A03F0C9
:1012200003030029E6D043F00403E3E7D3685DF845
:10123000044B023BD3607047D3685DF8044B023324
:10124000D3607047D3685DF8044B0133D3607047B7
:10125000EC800220214B10B4D3F8E82013685068CA
:1012600019780478507A137A044201EA03011BD0FA
:10127000937A03F0030309B143F0040343F0080336
:101280009910013B91720D2B0BD8DFE803F0210779
:101290001B070A152121150A071B0721D368013BEB
:1012A000D3605DF8044B7047937A03F00303002981
:1012B000E6D043F00403E3E7D3685DF8044B023B58
:1012C000D3607047D3685DF8044B0233D360704736
:1012D000D3685DF8044B0133D3607047EC80022083
:1012E000214B10B4D3F8EC201368506819780478B7
:1012F000507A137A044201EA03011BD0937A03F077
:10130000030309B143F0040343F008039910013BC0
:1013100091720D2B0BD8DFE803F021071B070A158C
:101320002121150A071B0721D368013BD3605DF813
:10133000044B7047937A03F003030029E6D043F08F
:101340000403E3E7D3685DF8044B023BD3607047C6
:10135000D3685DF8044B0233D3607047D3685DF8FF
:10136000044B0133D3607047EC800220214B10B452
:101370001A681368506819780478507A137A04420E
:1013800001EA03011BD0937A03F0030309B143F090
:10139000040343F008039910013B91720D2B0BD805
:1013A000DFE803F021071B070A152121150A071B97
:1013B0000721D368013BD3605DF8044B7047937AF3
:1013C00003F003030029E6D043F00403E3E7D36806
:1013D0005DF8044B023BD3607047D3685DF8044B63
:1013E0000233D3607047D3685DF8044B0133D36098
:1013F000704700BFEC800220214B10B45A6813687C
:10140000506819780478507A137A044201EA03018B
:101410001BD0937A03F0030309B143F0040343F0B4
:1014200008039910013B91720D2B0BD8DFE803F0F4
:1014300021071B070A152121150A071B0721D3685D
:10144000013BD3605DF8044B7047937A03F00303CC
:101450000029E6D043F00403E3E7D3685DF8044BCA
:10146000023BD3607047D3685DF8044B0233D3600E
:101470007047D3685DF8044B0133D360704700BFF9
:10148000EC800220214B10B49A68136850681978D8
:101490000478507A137A044201EA03011BD0937A4C
:1014A00003F0030309B143F0040343F00803991068
:1014B000013B91720D2B0BD8DFE803F021071B07CE
:1014C0000A152121150A071B0721D368013BD360A8
:1014D0005DF8044B7047937A03F003030029E6D0CC
:1014E00043F00403E3E7D3685DF8044B023BD360A9
:1014F0007047D3685DF8044B0233D3607047D368FC
:101500005DF8044B0133D360704700BFEC800220CC
:10151000214B10B4DA681368506819780478507A4F
:10152000137A044201EA03011BD0937A03F0030308
:1015300009B143F0040343F008039910013B917291
:101540000D2B0BD8DFE803F021071B070A1521211B
:10155000150A071B0721D368013BD3605DF8044BD4
:101560007047937A03F003030029E6D043F00403A5
:10157000E3E7D3685DF8044B023BD3607047D36860
:101580005DF8044B0233D3607047D3685DF8044BB9
:101590000133D360704700BFEC800220214B10B4B0
:1015A0001A691368506819780478507A137A0442DB
:1015B00001EA03011BD0937A03F0030309B143F05E
:1015C000040343F008039910013B91720D2B0BD8D3
:1015D000DFE803F021071B070A152121150A071B65
:1015E0000721D368013BD3605DF8044B7047937AC1
:1015F00003F003030029E6D043F00403E3E7D368D4
:101600005DF8044B023BD3607047D3685DF8044B30
:101610000233D3607047D3685DF8044B0133D36065
:10162000704700BFEC800220214B10B45A69136848
:10163000506819780478507A137A044201EA030159
:101640001BD0937A03F0030309B143F0040343F082
:1016500008039910013B91720D2B0BD8DFE803F0C2
:1016600021071B070A152121150A071B0721D3682B
:10167000013BD3605DF8044B7047937A03F003039A
:101680000029E6D043F00403E3E7D3685DF8044B98
:10169000023BD3607047D3685DF8044B0233D360DC
:1016A0007047D3685DF8044B0133D360704700BFC7
:1016B000EC800220214B10B49A69136850681978A5
:1016C0000478507A137A044201EA03011BD0937A1A
:1016D00003F0030309B143F0040343F00803991036
:1016E000013B91720D2B0BD8DFE803F021071B079C
:1016F0000A152121150A071B0721D368013BD36076
:101700005DF8044B7047937A03F003030029E6D099
:1017100043F00403E3E7D3685DF8044B023BD36076
:101720007047D3685DF8044B0233D3607047D368C9
:101730005DF8044B0133D360704700BFEC8002209A
:10174000214B10B4DA691368506819780478507A1C
:10175000137A044201EA03011BD0937A03F00303D6
:1017600009B143F0040343F008039910013B91725F
:101770000D2B0BD8DFE803F021071B070A152121E9
:10178000150A071B0721D368013BD3605DF8044BA2
:101790007047937A03F003030029E6D043F0040373
:1017A000E3E7D3685DF8044B023BD3607047D3682E
:1017B0005DF8044B0233D3607047D3685DF8044B87
:1017C0000133D360704700BFEC800220214B10B47E
:1017D0001A6A1368506819780478507A137A0442A8
:1017E00001EA03011BD0937A03F0030309B143F02C
:1017F000040343F008039910013B91720D2B0BD8A1
:10180000DFE803F021071B070A152121150A071B32
:101810000721D368013BD3605DF8044B7047937A8E
:1018200003F003030029E6D043F00403E3E7D368A1
:101830005DF8044B023BD3607047D3685DF8044BFE
:101840000233D3607047D3685DF8044B0133D36033
:10185000704700BFEC800220214B10B45A6A136815
:10186000506819780478507A137A044201EA030127
:101870001BD0937A03F0030309B143F0040343F050
:1018800008039910013B91720D2B0BD8DFE803F090
:1018900021071B070A152121150A071B0721D368F9
:1018A000013BD3605DF8044B7047937A03F0030368
:1018B0000029E6D043F00403E3E7D3685DF8044B66
:1018C000023BD3607047D3685DF8044B0233D360AA
:1018D0007047D3685DF8044B0133D360704700BF95
:1018E000EC800220214B10B49A6A13685068197872
:1018F0000478507A137A044201EA03011BD0937AE8
:1019000003F0030309B143F0040343F00803991003
:10191000013B91720D2B0BD8DFE803F021071B0769
:101920000A152121150A071B0721D368013BD36043
:101930005DF8044B7047937A03F003030029E6D067
:1019400043F00403E3E7D3685DF8044B023BD36044
:101950007047D3685DF8044B0233D3607047D36897
:101960005DF8044B0133D360704700BFEC80022068
:10197000214B10B4DA6A1368506819780478507AE9
:10198000137A044201EA03011BD0937A03F00303A4
:1019900009B143F0040343F008039910013B91722D
:1019A0000D2B0BD8DFE803F021071B070A152121B7
:1019B000150A071B0721D368013BD3605DF8044B70
:1019C0007047937A03F003030029E6D043F0040341
:1019D000E3E7D3685DF8044B023BD3607047D368FC
:1019E0005DF8044B0233D3607047D3685DF8044B55
:1019F0000133D360704700BFEC800220214B10B44C
:101A00001A6B1368506819780478507A137A044274
:101A100001EA03011BD0937A03F0030309B143F0F9
:101A2000040343F008039910013B91720D2B0BD86E
:101A3000DFE803F021071B070A152121150A071B00
:101A40000721D368013BD3605DF8044B7047937A5C
:101A500003F003030029E6D043F00403E3E7D3686F
:101A60005DF8044B023BD3607047D3685DF8044BCC
:101A70000233D3607047D3685DF8044B0133D36001
:101A8000704700BFEC800220214B10B45A6B1368E2
:101A9000506819780478507A137A044201EA0301F5
:101AA0001BD0937A03F0030309B143F0040343F01E
:101AB00008039910013B91720D2B0BD8DFE803F05E
:101AC00021071B070A152121150A071B0721D368C7
:101AD000013BD3605DF8044B7047937A03F0030336
:101AE0000029E6D043F00403E3E7D3685DF8044B34
:101AF000023BD3607047D3685DF8044B0233D36078
:101B00007047D3685DF8044B0133D360704700BF62
:101B1000EC800220214B10B49A6B1368506819783E
:101B20000478507A137A044201EA03011BD0937AB5
:101B300003F0030309B143F0040343F008039910D1
:101B4000013B91720D2B0BD8DFE803F021071B0737
:101B50000A152121150A071B0721D368013BD36011
:101B60005DF8044B7047937A03F003030029E6D035
:101B700043F00403E3E7D3685DF8044B023BD36012
:101B80007047D3685DF8044B0233D3607047D36865
:101B90005DF8044B0133D360704700BFEC80022036
:101BA000214B10B4DA6B1368506819780478507AB6
:101BB000137A044201EA03011BD0937A03F0030372
:101BC00009B143F0040343F008039910013B9172FB
:101BD0000D2B0BD8DFE803F021071B070A15212185
:101BE000150A071B0721D368013BD3605DF8044B3E
:101BF0007047937A03F003030029E6D043F004030F
:101C0000E3E7D3685DF8044B023BD3607047D368C9
:101C10005DF8044B0233D3607047D3685DF8044B22
:101C20000133D360704700BFEC800220214B10B419
:101C30001A6C1368506819780478507A137A044241
:101C400001EA03011BD0937A03F0030309B143F0C7
:101C5000040343F008039910013B91720D2B0BD83C
:101C6000DFE803F021071B070A152121150A071BCE
:101C70000721D368013BD3605DF8044B7047937A2A
:101C800003F003030029E6D043F00403E3E7D3683D
:101C90005DF8044B023BD3607047D3685DF8044B9A
:101CA0000233D3607047D3685DF8044B0133D360CF
:101CB000704700BFEC800220214B10B45A6C1368AF
:101CC000506819780478507A137A044201EA0301C3
:101CD0001BD0937A03F0030309B143F0040343F0EC
:101CE00008039910013B91720D2B0BD8DFE803F02C
:101CF00021071B070A152121150A071B0721D36895
:101D0000013BD3605DF8044B7047937A03F0030303
:101D10000029E6D043F00403E3E7D3685DF8044B01
:101D2000023BD3607047D3685DF8044B0233D36045
:101D30007047D3685DF8044B0133D360704700BF30
:101D4000EC800220214B10B49A6C1368506819780B
:101D50000478507A137A044201EA03011BD0937A83
:101D600003F0030309B143F0040343F0080399109F
:101D7000013B91720D2B0BD8DFE803F021071B0705
:101D80000A152121150A071B0721D368013BD360DF
:101D90005DF8044B7047937A03F003030029E6D003
:101DA00043F00403E3E7D3685DF8044B023BD360E0
:101DB0007047D3685DF8044B0233D3607047D36833
:101DC0005DF8044B0133D360704700BFEC80022004
:101DD000214B10B4DA6C1368506819780478507A83
:101DE000137A044201EA03011BD0937A03F0030340
:101DF00009B143F0040343F008039910013B9172C9
:101E00000D2B0BD8DFE803F021071B070A15212152
:101E1000150A071B0721D368013BD3605DF8044B0B
:101E20007047937A03F003030029E6D043F00403DC
:101E3000E3E7D3685DF8044B023BD3607047D36897
:101E40005DF8044B0233D3607047D3685DF8044BF0
:101E50000133D360704700BFEC800220214B10B4E7
:101E60001A6D1368506819780478507A137A04420E
:101E700001EA03011BD0937A03F0030309B143F095
:101E8000040343F008039910013B91720D2B0BD80A
:101E9000DFE803F021071B070A152121150A071B9C
:101EA0000721D368013BD3605DF8044B7047937AF8
:101EB00003F003030029E6D043F00403E3E7D3680B
:101EC0005DF8044B023BD3607047D3685DF8044B68
:101ED0000233D3607047D3685DF8044B0133D3609D
:101EE000704700BFEC800220214B10B45A6D13687C
:101EF000506819780478507A137A044201EA030191
:101F00001BD0937A03F0030309B143F0040343F0B9
:101F100008039910013B91720D2B0BD8DFE803F0F9
:101F200021071B070A152121150A071B0721D36862
:101F3000013BD3605DF8044B7047937A03F00303D1
:101F40000029E6D043F00403E3E7D3685DF8044BCF
:101F5000023BD3607047D3685DF8044B0233D36013
:101F60007047D3685DF8044B0133D360704700BFFE
:101F7000EC800220214B10B49A6D136850681978D8
:101F80000478507A137A044201EA03011BD0937A51
:101F900003F0030309B143F0040343F0080399106D
:101FA000013B91720D2B0BD8DFE803F021071B07D3
:101FB0000A152121150A071B0721D368013BD360AD
:101FC0005DF8044B7047937A03F003030029E6D0D1
:101FD00043F00403E3E7D3685DF8044B023BD360AE
:101FE0007047D3685DF8044B0233D3607047D36801
:101FF0005DF8044B0133D360704700BFEC800220D2
:10200000214B10B4DA6D1368506819780478507A4F
:10201000137A044201EA03011BD0937A03F003030D
:1020200009B143F0040343F008039910013B917296
:102030000D2B0BD8DFE803F021071B070A15212120
:10204000150A071B0721D368013BD3605DF8044BD9
:102050007047937A03F003030029E6D043F00403AA
:10206000E3E7D3685DF8044B023BD3607047D36865
:102070005DF8044B0233D3607047D3685DF8044BBE
:102080000133D360704700BFEC80022070B5044676
:1020900008460D461FF074F823680246294620467C
:1020A0005B68BDE87040184738B5044608460D46E1
:1020B0001FF066F82368024629465B682046984769
:1020C0000546204617F000F9284438BD624B634AA4
:1020D0006349DFF8B8C12DE9F043A3FB0053614C1D
:1020E000614E1D0C2F1DA4FB0043A2FB00E4A7FBC7
:1020F00006896409A2FB04E2C9EB0706DB0A09EBC7
:1021000056065209A1FB03E1B608C2EB0212A4EB8A
:102110008202C6EBC606C4EB04140909BE1BDFF835
:1021200070E1524FA0EB840001EB4101504C3A604A
:102130000136A3EBC1010023CEF80060CCF800000B
:102140002160DFF834E14B4F1C4640F26D186426E5
:102150004FF4C87C0DE0C9090CFB112100285BD1AC
:10216000002914BF42464FF4B77213449D4211D365
:10217000013404F2B272A7FB02014809744506FB60
:10218000102002D012F0030FE5D040F26D1213447C
:102190009D42EDD2384A394994420C604CD004F249
:1021A000B27291073BD040F26D11324F344EDFF8DE
:1021B000C8E0A7FB02075B1A4FEA571C64204FF4E4
:1021C000C871FF0900FB1C2C01FB1727EB1A02F05A
:1021D00003021F2000210CE0451CBCF1000F00D1C0
:1021E0005FB9012909D19D4224D85B1B022116F851
:1021F000010F744501D0002AEED098421AD801315F
:102200000C29A3EB0003F2D10D211E481E4A013315
:1022100003601160BDE8F0834FF4B772A5E715497C
:10222000A1FB02014809642606FB102040B14FF4CF
:10223000B771BAE70131E8E740F26D110022B4E767
:10224000C9094FF4C87000FB1121002940F26D113B
:1022500008BF4FF4B771A8E707452EC28988888860
:10226000ABAAAAAAC5B3A29125499224047202205E
:10227000DC7502201F85EB514EF8FFFF347B0220F6
:1022800054710200B0600220685E02209853022060
:10229000405E0220DFED277A9FED277A80EE270A45
:1022A000B4EEC70AF1EE10FA32D4F6EE007AB4EECC
:1022B000E70AF1EE10FA12D430EE670ADFED1F7A6A
:1022C00030EE000A6FF01F0020EE270ABCEEC00AB5
:1022D00010EE103AC3F3C403184380B2704730EED7
:1022E000470ADFED176A9FED157AC0EE267A0023C4
:1022F00067EE877AFCEEE77A17EE900AC00000F4EA
:10230000FC606FEA40506FEA5050184380B270474B
:10231000C0EE077A00239FED097A67EE877AFCEE1C
:10232000E77A17EE900A000200F4784000B21843F2
:1023300080B2704700401C46CDCCCC3D00007F43AE
:10234000CDCCCC3E9FED7E7ADFED7E7AE0EE077A53
:1023500084B0F5EEC07AF1EE10FA00F1DF809FED67
:102360007A7AF4EEC77AF1EE10FA00F38980FCEE87
:10237000E77ACDED017A9DF80420B5EEC00AF1EEC2
:1023800010FA40F38580DFED717AB4EEE70AF1EEE2
:1023900010FA7DD5DFED6E7A60EE277AF5EEC07A21
:1023A000F1EE10FA00F1B8809FED677AF4EEC77A8B
:1023B000F1EE10FA7ADCFCEEE77ACDED017A9DF8C9
:1023C0000430DFED647AB4EEE70AF1EE10FA76D865
:1023D0009FED617ADFED617AE0EE077AF5EEC07A83
:1023E000F1EE10FA73D49FED587AF4EEC77AF1EE5D
:1023F00010FA00F39580FCEEE77ACDED017A9DF8B6
:1024000004109FED526AB4EEC60AF1EE10FA29D517
:1024100007EE902A06EE901AB8EEE77A07EE903AA9
:10242000F8EEE66AF8EEE77A27EE007A67EE807A51
:1024300026EE800AC7EE066A87EE867AC0EE067A36
:10244000FCEEE66ABCEEC77AFCEEE77ACDED016AF7
:102450008DED027ACDED037A9DF804209DF80830C9
:102460009DF80C10120222F4FF60DB0020F0070040
:1024700003F4FC63034343EAD10080B204B0704725
:10248000B5EEC00AF1EE10FA4FF0FF023FF77BAF56
:10249000DFED2E7AB4EEE70AF1EE10FA35DBDFED70
:1024A000307AB4EEE70AF1EE10FA2ED8DFED297A91
:1024B000B4EEE70AF1EE10FA4FF0FF0388D908DD19
:1024C000DFED287AB4EEE70AF1EE10FA01D8002128
:1024D00097E7DFED247AB4EEE70AF1EE10FAF6DDC5
:1024E0009FED217ADFED217AE0EE077AF5EEC07AF2
:1024F000F1EE10FAEBD49FED1E7AF4EEC77AF1EE0E
:1025000010FA7FF778AFF0217BE7DFED157AB4EEB4
:10251000E70AF1EE10FA05DC002352E700222CE76F
:10252000FF216EE79FED137ADFED137AE0EE077A75
:10253000F5EEC07AF1EE10FA7FF536AFECE700BFAA
:102540003F5B2C3D38A2B7C200007F4300208C4483
:1025500054EF683E00600845821B76BEE71A0344CC
:1025600000C8004600780F465538963EC45F28C51F
:1025700000007043C4E48ABECAAD1B452DE9F04794
:102580002DED028B4FF47A7999FBF1F909F10109EC
:1025900082B08A46B0EE408A364DDFF8E080DFED4B
:1025A000368A07465FFA89F9002440F2E7362DE0C3
:1025B00094FBF9F080B200EB400007EB8000D0ED17
:1025C000006AD0ED017A90ED027A68EE266A68EE34
:1025D000277AFCEEE66AFCEEE77A16EE903A17EE02
:1025E000902A68EE077A1B02D200FCEEE77A02F42A
:1025F000FC6203F47843134317EE902A0134C2F3CC
:10260000C4021343B44225F8023F2ED0B8F800307C
:10261000642BCDD007EE903AF8EEE77A87EEA87AF1
:1026200017EE100A1DF038F807EE904AF8EEE77A38
:10263000CDE9000187EEA87A17EE100A1DF02CF8FC
:102640009DED001B41EC100B1AF01EFB53EC102B00
:102650005046CDE900231DF00DF8DDE900231DF003
:102660006FF81DF045FB80B2A5E702B0BDEC028B10
:10267000BDE8F087FE01FF1F00007A44F041022010
:102680002DE9F0412DED048BCD4B092282B01A705B
:10269000002840F08180CB4BCB4ACC4FCC4DDFF8AB
:1026A0004883DFEDCC8A9FEDCC8A9FEDCC9A1A60EF
:1026B000064604463DE007EE906AB8EEE77AF0EE93
:1026C000086AC7EE267AF4EEC87AF1EE10FA61DCF9
:1026D000FCEEE77A17EE902A120202F4784211B269
:1026E000F2EE046AC7EE267AF4EEC87AF1EE10FA3A
:1026F0004DDCFCEEE77A17EE902AD20002F4FC6281
:10270000C7EE097A0A4301340A36F4EEC87AF1EECC
:1027100010FAD7BFFCEEE77A1F2317EE903AC3F307
:10272000C403134340F2E732944227F8023F00F01B
:1027300077812B88B3F57A7FBDD007EE903AF8EE1B
:10274000E77AA8F8003087EEA87A17EE100A1CF096
:10275000A3FF07EE904AF8EEE77ACDE9000187EE95
:10276000A87A17EE100A1CF097FF9DED001B41ECB4
:10277000100B1AF089FA90A3D3E9002351EC100B47
:102780001CF0DEFF1DF0D4FA07EE100A97E74FF4B5
:10279000FC62B5E79249A3E7012868D1894B914AC9
:1027A0008A4F8B4D9FED8B8ADFED8B8A1A60002656
:1027B00034462EE007EE906AF8EEE77AB5EE007A3E
:1027C00067EE877AF4EEE87AF1EE10FA00F39B8078
:1027D000FCEEE77ACDED007A9DF800104FEA012378
:1027E00000F395804FEAC10203F4784302F4FC62DF
:1027F00043EA02031BB200F39180CA081343013479
:1028000040F2E732944227F8023F06F10A0600F050
:1028100007812B88B3F57A7FCCD007EE903AF8EE9B
:10282000E77A714A87EE887A138017EE100A1CF057
:1028300033FF07EE904AF8EEE77ACDE9000187EE24
:10284000887A17EE100A1CF027FF9DED001B41EC63
:10285000100B1AF019FA58A3D3E9002351EC100B0E
:102860001CF06EFF1DF064FA07EE900AA6E702283E
:1028700056D1544B5D4A554F554DDFF86C819FED55
:10288000558A1A60002634460FE007EE906AB8EECB
:10289000E70AFFF757FD013440F2E7339C4206F1A7
:1028A0000A0627F8020F00F0BB802B88B3F57A7F69
:1028B000EBD007EE903AF8EEE77AA8F8003087EE12
:1028C000887A17EE100A1CF0E7FE07EE904AF8EE41
:1028D000E77ACDE9000187EE887A17EE100A1CF03E
:1028E000DBFE9DED001B41EC100B1AF0CDF932A37D
:1028F000D3E9002351EC100B1CF022FF1DF018FA55
:1029000000EE100AC5E76FF01F031F2276E703F4FD
:10291000784343F4FC631BB21F226FE71F226DE76D
:10292000032867D1274B324A284F294DDFF8B8805A
:102930009FED288A1A60002634460EE007EE906A62
:10294000B8EEE70AFFF7A6FC013440F2E7339C42F9
:1029500006F10A0627F8020F62D02B88B3F57A7FBA
:10296000ECD007EE903AF8EEE77AA8F8003087EE60
:10297000887A17EE100A1CF08FFE07EE904AF8EEE8
:10298000E77ACDE9000187EE887A17EE100A1CF08D
:1029900083FE9DED001B41EC100B1AF075F906A3A8
:1029A000D3E9002351EC100B1CF0CAFE1DF0C0F956
:1029B00000EE100AC6E700BF000000000088C34018
:1029C000B45D022038570220E84C0200FE01FF1FD0
:1029D0003E42022000007A4400007F430000204273
:1029E00000F8FFFFF04C0200F0410220FC4C020016
:1029F000044D0200042818D14D4B4E491A884E4808
:102A00004E4B08604FF448711980B2F57A7F9FED04
:102A10004C0A4C4818BF1A804FF48071FFF7AEFD86
:102A200002B0BDEC048BBDE8F081052818D1404B05
:102A300040491A884448414B08609FED410A434889
:102A400040F24C411980B2F57A7F4FF4807118BF83
:102A50001A8002B0BDEC048BBDE8F041FFF78EBDDB
:102A6000062818D1324B33491A883948334B08604D
:102A70009FED330A37484FF461711980B2F57A7FC0
:102A80004FF4807118BF1A8002B0BDEC048BBDE812
:102A9000F041FFF773BD072818D1254B25491A8847
:102AA0002D48264B08609FED260A2C4840F24C41E9
:102AB0001980B2F57A7F4FF4807118BF1A8002B086
:102AC000BDEC048BBDE8F041FFF758BD082816D1D6
:102AD000174B184A1B8822491160B3F57A7F18BF3B
:102AE000164A204818BF1380B7EE000A4FF48071D1
:102AF00002B0BDEC048BBDE8F041FFF73FBD0928F3
:102B00008ED10B4B0B4A1B8817491160B3F57A7FA6
:102B100018BF0A4A154818BF1380B7EE000A4FF4D1
:102B2000807102B0BDEC048BBDE8F041FFF726BD1B
:102B30003E420220385702200C4D0200F041022094
:102B400000007F4364640200144D020064580200D8
:102B5000204D020054B60300284D0200C07102004F
:102B6000304D0200B8A903003C4D0200C07D0200B8
:102B7000002310B4114C417342610460037303617C
:102B800041B1194600E0426942F82310427B01330B
:102B90009A42F8DC0A4B1A680AB90CE01A469369A3
:102BA000002BFBD1906100238361436083608373BA
:102BB0005DF8044B70471860F5E700BF004802005D
:102BC000407B022070B51E4D4B08A5FB0335AD08B8
:102BD00005EB8504A400C5EBC505E4B2A1EB4501F6
:102BE000272C0646CDB227D8132C94BF00220122F1
:102BF00042F4B8722A21718130460FF051FB202136
:102C000045F480727181304642EA05120FF048FBAC
:102C100007EE905AB8EEE77A07EE904AF8EEE77AB8
:102C2000F7EE086AE7EE267A064BB1EE087A77EE01
:102C3000C77AC3ED007A70BD40F27312DAE700BFC5
:102C400093244992C45E0220214BDFED226A93ED6A
:102C5000006A9FED217A214AC6EE865A07EE900A55
:102C6000F8EEE77A67EEA57AF4EEC77AF1EE10FA9D
:102C7000C2ED007A10DDC6EE265A1949194BF2EE64
:102C8000027AE5EE877A82ED007AFDEEE77AC1ED11
:102C9000007A154A13627047F5EEC07AF1EE10FA29
:102CA00012D49FED127AF4EEC77AF1EE10FAC8BF93
:102CB0004FF00043EDDC9FED0E7A67EE877AFCEE75
:102CC000E77A17EE903AE4E7074A00231362704769
:102CD000645E022000442C4700E0AB468C41022099
:102CE0007841022000B2B57FFC5402200044AC467B
:102CF000C637BE472DE9F04FBD4EBE4C33782DEDA3
:102D0000048B022B8DB040F28B810022BA4BDFED99
:102D1000BB9A9FEDBB9ADFF804B3D4E900011CF025
:102D20000FFD1CF0BDFF0022B34B0790D4E9020158
:102D30001CF006FD1CF0B4FF0022AF4B0890D4E954
:102D400004011CF0FDFC1CF0ABFF0022AA4B099013
:102D5000D4E906011CF0F4FC1CF0A2FFA64B0A907B
:102D60000022D4E908011CF0EBFC1CF099FF07AA33
:102D70000B900021A3480FF0FFFC00229E4BD4E9EA
:102D800000011CF0DDFC1CF08BFF00229A4B079029
:102D9000D4E902011CF0D4FC1CF082FF0022964B07
:102DA0000890D4E904011CF0CBFC1CF079FF002250
:102DB000914B0990D4E906011CF0C2FC1CF070FF95
:102DC0008D4B0A900022D4E908011CF0B9FC1CF0DC
:102DD00067FF07AA0B9001218A480FF0CDFC002263
:102DE000854BD4E900011CF0ABFC1CF059FF00221C
:102DF000814B0790D4E902011CF0A2FC1CF050FFAB
:102E000000227D4B0890D4E904011CF099FC1CF0D1
:102E100047FF0022784B0990D4E906011CF090FC92
:102E20001CF03EFF744B0A900022D4E908011CF00C
:102E300087FC1CF035FF07AA0B90022171480FF0A8
:102E40009BFC00226C4BD4E900011CF079FC1CF0C7
:102E500027FF0022684B0790D4E902011CF070FCA8
:102E60001CF01EFF0022644B0890D4E904011CF002
:102E700067FC1CF015FF00225F4B0990D4E90601A6
:102E80001CF05EFC1CF00CFF00225B4B0A90D4E9A6
:102E900008011CF055FC1CF003FF07AA0B9003214E
:102EA00058480FF069FC4FF0000A9BF800205FFAC9
:102EB0008AF39A420FD80AF1010ABAF1040FF4D149
:102EC000514B00214FF48032D9611A620DB0BDEC34
:102ED000048BBDE8F08F4D4B3278D3ED007A89EE4C
:102EE000A77A4FF47A7303FB02F307EE903AF8EEF9
:102EF000E77A67EE877A67EE897A17EE900A1CF018
:102F0000CBFB41EC100B41EC180B19F0D9FD404BF9
:102F100018688DED020B1CF0BFFB02460B461CF03F
:102F20005DFA9DED020B02460B4651EC100B1CF0B6
:102F300031FDB0EE480AF0EE680A04460D4619F07D
:102F40005FFD204629460022324B58EC107BCDE92C
:102F500004451CF043FA02460B46002026491CF0AB
:102F600019FD002204460D462A4B38464146CDE95C
:102F700002781CF033FA00228946274B009009F1B1
:102F800000471CF0DDFB22462B4601971CF0D8FBC6
:102F90001CF086FE224607462B46DDE90001079716
:102FA0001CF0CEFB1CF07CFE002208904FF040434A
:102FB000DDE9020109971CF0C3FB22462B461CF0F9
:102FC000BFFB1CF06DFEDDE904230A9011490020CF
:102FD0001CF002FA22462B461CF0B2FB1CF060FEED
:102FE00007AA0B90514607480FF0C6FB63E700BFE6
:102FF0003C420220F84102200000D04100442C470E
:1030000093651539C855022054510220645E022090
:10301000744202200000F03F0000E03F7D410220AA
:103020000022694BD4E900011CF08AFB1CF038FE39
:103030000022654B0790D4E902011CF081FB1CF0D3
:103040002FFE0022604B0890D4E904011CF078FBAD
:103050001CF026FE00225C4B0990D4E906011CF00E
:103060006FFB1CF01DFE584B0A900022D4E90801AA
:103070001CF066FB1CF014FE07AA0B9000215348BD
:103080000FF07AFBD4E9000100224F4B1CF058FBF3
:103090001CF006FE00224C4B0790D4E902011CF004
:1030A0004FFB1CF0FDFD0022474B0890D4E90401C2
:1030B0001CF046FB1CF0F4FD0022434B0990D4E9C0
:1030C00006011CF03DFB1CF0EBFD3F4B0A9000227B
:1030D000D4E908011CF034FB1CF0E2FD07AA0B90B8
:1030E00001213A480FF048FBD4E900010022364B99
:1030F0001CF026FB1CF0D4FD0022334B0790D4E9D2
:1031000002011CF01DFB1CF0CBFD00222E4B089091
:10311000D4E904011CF014FB1CF0C2FD00222A4B70
:103120000990D4E906011CF00BFB1CF0B9FD264BFD
:103130000A900022D4E908011CF002FB1CF0B0FD4B
:1031400007AA0B90022121480FF016FBD4E90001D9
:1031500000221D4B1CF0F4FA1CF0A2FD00221A4BB9
:103160000790D4E902011CF0EBFA1CF099FD002253
:10317000154B0890D4E904011CF0E2FA1CF090FD14
:103180000022114B0990D4E906011CF0D9FA1CF079
:1031900087FD0D4B0A900022D4E908011CF0D0FAFB
:1031A0001CF07EFD07AA0B90032108480FF0E4FAFB
:1031B000074B00214FF480321962DA610DB0BDEC8B
:1031C000048BBDE8F08F00BF0000D041C85502203D
:1031D0005451022070B54000334BDFED346A01FBDF
:1031E0000001B3FBF1F607EE906A314BF8EEE77A97
:1031F00001242DED068B1B68DFED2EAAB0EE409A60
:10320000C7EE809A354622462346B6EE00AA03E072
:103210000134B4F5807F38D007EE904AF8EEE77AB3
:1032200067EEA97AF5EEC07AF1EE10FAACBF77EE50
:103230008A7A77EECA7ABDEEE78A07EE905AB8EE40
:10324000677AF8EE487A3544C7EE278A79EE688ABD
:10325000F0EEE88AF4EEE68AF1EE10FAD8D518EE30
:10326000101AB1F5805FD3D2134816F02DF8F4EEA2
:10327000EA8AF1EE10FA13D923460134B4F5807FBF
:10328000F0EE686A18EE102AC6D1BDEC068B013B41
:103290001B03013A03F47F23C2F30B00184370BDF4
:1032A000234618EE102AF0E70095BA0A8096184BCC
:1032B00000F1024000007A44604402200F4B104AA3
:1032C0001B6810491268096810B5C2F30340C3F3C4
:1032D0000444C3F30463013304FB0000C9B218447F
:1032E000FFF778FF014638B1074A1368002BFCDB73
:1032F000064B0120196010BD10BD00BF14F0024044
:1033000010F0024008F0024000F1024004F10240D7
:1033100070B5374B374D1B789FED377ADFED375A55
:10332000374A384E1178384A0401281906EE903A87
:10333000D0ED027A354BF8EE677AF8EEE66A27EEC2
:10334000877A66EEA56A83ED007A86EE876AC6ED17
:10335000007AFDEEC66A16EE903A137071B12C4BEE
:103360001B7806EE903AF8EEE66A66EEA56A86EEFF
:10337000876AFDEEC66A16EE903A1370F6EE006AA2
:1033800067EEA67A2B19C7EE876A5A68214E224843
:103390000421FDEEE67A17EE903A33701DF0C6FC7C
:1033A0001E4B1F4A012119601368002BFCDB2C44C3
:1033B0001C49A289E389013A1203013B02F47F22EE
:1033C000C3F30B0313430B60C82016F0C5FB164B69
:1033D0001868FFF739FC154B01241C60142016F007
:1033E000BBFB134B83F82447BDE87040FFF782BC5A
:1033F000CD410220647002000000003B00007A44CE
:10340000915C0220645E0220A078022040420220EB
:10341000F3410220445E02203842022088E100E0AD
:1034200000F1024004F102407841022008E100E08E
:10343000C069022007EE900A9FED0C6ADFED0C6A6E
:103440000C4B0D48B8EEE77ADFED0C7A27EE067AE2
:1034500010B5E7EE267A01241C60FCEEE77A17EE41
:10346000901A0EF049FF064B1C6010BD0AD7233C92
:103470000000014388E100E078790220EE7CFF3E05
:1034800008E100E010B4036841681A780C78417ACA
:10349000037A0C4202EA03021BD0837A03F003038F
:1034A0000AB143F0040343F008039A10013B82720F
:1034B0000D2B0BD8DFE803F021071B070A1521218C
:1034C000150A071B0721C368013BC3605DF8044B65
:1034D0007047837A03F00303002AE6D043F0040325
:1034E000E3E7C3685DF8044B023BC3607047C36801
:1034F0005DF8044B0233C3607047C3685DF8044B4A
:103500000133C360704700BF08B5034BD3F8DC003C
:10351000FFF7B8FF08BD00BFEC80022008B5034BE1
:10352000D3F8D800FFF7AEFF08BD00BFEC80022043
:1035300008B5034BD3F8D400FFF7A4FF08BD00BFC4
:10354000EC80022008B5034BD3F8D000FFF79AFFB8
:1035500008BD00BFEC80022008B5034BD3F8CC00B7
:10356000FFF790FF08BD00BFEC80022008B5034BB9
:10357000D3F8C800FFF786FF08BD00BFEC8002202B
:1035800008B5034BD3F8C400FFF77CFF08BD00BFAC
:10359000EC80022008B5034BD3F8C000FFF772FFA0
:1035A00008BD00BFEC80022008B5034BD3F8BC0077
:1035B000FFF768FF08BD00BFEC80022008B5034B91
:1035C000D3F8B800FFF75EFF08BD00BFEC80022013
:1035D00008B5034BD3F8B400FFF754FF08BD00BF94
:1035E000EC80022008B5034BD3F8B000FFF74AFF88
:1035F00008BD00BFEC80022008B5034BD3F8AC0037
:10360000FFF740FF08BD00BFEC80022008B5034B68
:10361000D3F8A800FFF736FF08BD00BFEC800220FA
:1036200008B5034BD3F8A400FFF72CFF08BD00BF7B
:10363000EC80022008B5034BD3F8A000FFF722FF6F
:1036400008BD00BFEC80022008B5034BD3F89C00F6
:10365000FFF718FF08BD00BFEC80022008B5034B40
:10366000D3F89800FFF70EFF08BD00BFEC800220E2
:1036700008B5034BD3F89400FFF704FF08BD00BF63
:10368000EC80022008B5034BD3F89000FFF7FAFE58
:1036900008BD00BFEC80022008B5034BD3F88C00B6
:1036A000FFF7F0FE08BD00BFEC80022008B5034B19
:1036B000D3F88800FFF7E6FE08BD00BFEC800220CB
:1036C00008B5034BD3F88400FFF7DCFE08BD00BF4C
:1036D000EC80022008B5034BD3F88000FFF7D2FE40
:1036E00008BD00BFEC80022008B5024BD86FFFF781
:1036F000C9FE08BDEC80022008B5024B986FFFF7A9
:10370000C1FE08BDEC80022008B5024B586FFFF7E0
:10371000B9FE08BDEC80022008B5024B186FFFF718
:10372000B1FE08BDEC80022008B5024BD86EFFF751
:10373000A9FE08BDEC80022008B5024B986EFFF789
:10374000A1FE08BDEC80022008B5024B586EFFF7C1
:1037500099FE08BDEC80022008B5024B186EFFF7F9
:1037600091FE08BDEC80022008B50B463B2800F214
:10377000C682DFE810F0BB02B202A902A0029702E3
:103780008E0285027C0273026A02610258024F02B5
:1037900046023D0234022B022202190210020702E5
:1037A000AE01A5019C0193018A01810178016F019D
:1037B00066015D0154014A01400136012C012201DC
:1037C00018010E010401FA00F000E600DC00D2004E
:1037D000C800BE00B400AA00A00096008C008200C1
:1037E00078006E0064005A00500046003C00BD4A5C
:1037F000BD49C2F8EC303B20042216F0DBF8012072
:1038000008BDB84AB949C2F8E8303A20042216F097
:10381000D1F8012008BDB34AB549C2F8E4303920D7
:10382000042216F0C7F8012008BDAE4AB149C2F81B
:10383000E0303820042216F0BDF8012008BDA94A66
:10384000AD49C2F8DC303720042216F0B3F801206D
:1038500008BDA44AA949C2F8D8303620042216F07F
:10386000A9F8012008BD9F4AA549C2F8D4303520E7
:10387000042216F09FF8012008BD9A4AA149C2F817
:10388000D0303420042216F095F8012008BD954A66
:103890009D49C2F8CC303320042216F08BF8012069
:1038A00008BD904A9949C2F8C8303220042216F067
:1038B00081F8012008BD8B4A9549C2F8C4303120F7
:1038C000042216F077F8012008BD864A9149C2F813
:1038D000C0303020042216F06DF8012008BD814A66
:1038E0008D49C2F8BC302F20042216F063F8012065
:1038F00008BD7C4A8949C2F8B8302E20042216F04F
:1039000059F8012008BD774A8549C2F8B4302D2006
:10391000042216F04FF8012008BD724A8149C2F80E
:10392000B0302C20042216F045F8012008BD6D4A65
:103930007D49C2F8AC302B20042216F03BF8012060
:1039400008BD684A7949C2F8A8302A20042216F036
:1039500031F8012008BD634A7549C2F8A430292016
:10396000042216F027F8012008BD5E4A7149C2F80A
:10397000A0302820042216F01DF8012008BD594A65
:103980006D49C2F89C302720042216F013F801205C
:1039900008BD544A6949C2F898302620042216F01E
:1039A00009F8012008BD4F4A6549C2F89430252026
:1039B000042215F0FFFF012008BD4A4A6149C2F800
:1039C00090302420042215F0F5FF012008BD454A5F
:1039D0005D49C2F88C302320042215F0EBFF012052
:1039E00008BD404A5949C2F888302220042215F007
:1039F000E1FF012008BD3B4A5549C2F8843021202F
:103A0000042215F0D7FF012008BD364A5149C2F8FB
:103A100080302020042215F0CDFF012008BD314A5E
:103A20004D49D3671F20042215F0C4FF012008BDB3
:103A30002C4A4A4993671E20042215F0BBFF01203F
:103A400008BD284A464953671D20042215F0B2FFDD
:103A5000012008BD234A434913671C20042215F0A6
:103A6000A9FF012008BD1F4A3F49D3661B2004223D
:103A700015F0A0FF012008BD1A4A3C4993661A20A0
:103A8000042215F097FF012008BD164A38495366F5
:103A90001920042215F08EFF012008BD114A354976
:103AA00013661820042215F085FF012008BD0D4A79
:103AB0003149D3651720042215F07CFF012008BD91
:103AC000084A2E4993651620042215F073FF012041
:103AD00008BD044A2A4953651520042215F06AFFDF
:103AE000012008BDEC800220E11200005512000008
:103AF000C91100003D110000093500001D3500000E
:103B00003135000045350000593500006D350000A5
:103B10008135000095350000A9350000BD35000055
:103B2000D1350000E5350000F93500000D36000004
:103B30002136000035360000493600005D360000B1
:103B4000713600008536000099360000AD36000061
:103B5000C1360000D5360000E9360000F936000015
:103B600009370000193700002937000039370000F5
:103B7000493700005937000001200000751F000080
:103B8000E91E00005F4A604913651420042215F005
:103B900011FF012008BD5B4A5C49D3641320042255
:103BA00015F008FF012008BD564A594993641220B8
:103BB000042215F0FFFE012008BD524A5549536406
:103BC0001120042215F0F6FE012008BD4D4A52498D
:103BD00013641020042215F0EDFE012008BD494AAF
:103BE0004E49D3630F20042215F0E4FE012008BDE6
:103BF000444A4B4993630E20042215F0DBFE01205A
:103C000008BD404A474953630D20042215F0D2FEF7
:103C1000012008BD3B4A444913630C20042215F0DF
:103C2000C9FE012008BD374A4049D3620B20042257
:103C300015F0C0FE012008BD324A3D4993620A20BA
:103C4000042215F0B7FE012008BD2E4A39495362FF
:103C50000920042215F0AEFE012008BD294A36498C
:103C600013620820042215F0A5FE012008BD254A94
:103C70003249D3610720042215F09CFE012008BDC3
:103C8000204A2F4993610620042215F093FE01205B
:103C900008BD1C4A2B4953610520042215F08AFEF9
:103CA000012008BD174A284913610422104615F067
:103CB00081FE012008BD134A2449D3600320042259
:103CC00015F078FE012008BD0E4A214993600220BC
:103CD000042215F06FFE012008BD0A4A1D495360F9
:103CE0000120042215F066FE012008BD054A1A498C
:103CF00013600020042215F05DFE012008BD0020A5
:103D000008BD00BFEC8002205D1E0000D11D000038
:103D1000451D0000B91C00002D1C0000A11B000067
:103D2000151B0000891A0000FD1900007119000020
:103D3000E518000059180000CD17000041170000D9
:103D4000B5160000291600009D1500001115000091
:103D500085140000F91300006D130000F8B5044647
:103D600015460E460846022115F0CCFE28460221D3
:103D700015F0C8FE164A174B52F83610012001F50F
:103D800000772760207252F83520607202F50077C4
:103D900000206760E060013BFDD191F8003292F8AD
:103DA000002203F00103D20744BF43F00203DBB259
:103DB000A37221463046FFF7D7FC214620742846DF
:103DC000FFF7D2FC237C184420742046F8BD00BFC6
:103DD0003CF70300C0D401002DE9F0412DED048B28
:103DE0006F48704990F800E06F4C704E704A714B0C
:103DF000714F724D3F7803C9206096E80300A060C0
:103E000092E80300E06093E8070004F1140303C3A1
:103E100095E8030023F8022BF821022F4FEA124203
:103E20004FF01005616008BF0027D421BEF1010FDB
:103E30001A708EB025616062A1625ED0604B186816
:103E40001BF02AFC04AECDE900015E4A2821304671
:103E50001CF06CFF3146054604F12C001DF02EF9D4
:103E60002C35594BDFF840810FCBB646AEE8070042
:103E70000D228EF800303146601915F0B5FB3B4637
:103E8000524A282130461CF051FF0C350746314676
:103E900060191DF013F94E4B1B783D44FBB14D4B9F
:103EA0004D4A1B78282130461CF040FF314607461A
:103EB00008EB05001DF002F9484B494A1B7803EB5B
:103EC000830303EB8303282130461CF02FFF3D447E
:103ED0003146074608EB05001DF0F0F83D4420236D
:103EE000314660190222ADF8103015F07DFB2E48E6
:103EF0000EB0BDEC048BBDE8F0813A4B3A4E1B7816
:103F00003A495A08A6FB02029208C2EBC200A3EB90
:103F10004003DBB207EE103A07EE902AB8EEC77AFC
:103F2000B7EE089AF8EEE76A27EE097AF3EE048A0C
:103F3000A6EEA87A0D78B1EE088A77EE487A17EEE9
:103F4000900A1BF0A9FB6B08A6FB03239B08C3EB9D
:103F5000C302A5EB4205EAB207EE902A07EE103A3B
:103F6000F8EEE77AB8EEC77A67EE897ACDE9020112
:103F7000E7EE287A04AE77EEC87A17EE900A1BF0C7
:103F80008BFB1B4ACDE90001304628211CF0CEFEF8
:103F90003146054604F12C002C351DF08FF860E702
:103FA000A8690220484D0200307A0220504D0200DC
:103FB000584D0200604D02003C4202206C4D020050
:103FC000C45E02208C4D02009C4D0200AC4D0200EC
:103FD000915C0220F3410220C04D0200CE4102203C
:103FE000D04D0200077102209324499265420220BD
:103FF000744D02003E4B93E80300F0B53D4D3E4E3C
:1040000028600FCE8DB002AC0FC4D6F800E0C4F823
:1040100000E002AE0FCE394F05F108060FC60FCFF4
:10402000C6F800E04FF4FC7C3F68C5F804C002AE5F
:104030000FC602A9277005F11B001DF03FF8304A9A
:10404000304B02A828211CF071FE02A9044605F19C
:104050002B001DF033F82C4B18681BF01DFB2B4A6E
:10406000CDE9000102A828211CF060FE2B34064691
:1040700002A928191DF022F8254B264A1B78022B8D
:1040800008BF002302A828211CF050FE344402A9D6
:10409000064628191DF012F81F4A204B1168204AC5
:1040A00003EB011302A89B6828211CF03FFE344457
:1040B000034602A928191C441DF000F8194B1A4A9E
:1040C00002A828211CF032FE02A9064628191CF07D
:1040D000F5FF164B164A02A828211CF027FE3019BE
:1040E00002A928441CF0EAFF28460DB0F0BD00BF2D
:1040F000E04D020098760220E84D0200FC4D0200DF
:104100001C4E0200104E0200C45E0220344E02001B
:104110003C420220484E0200D0410220647002005E
:104120005C4E0200FC5B0220704E0200C85B022065
:104130008C4E02001A4A1B491B4BF0B5D2F800E026
:104140001A4F1B4E1B4D1C4C024603C9186097E8C2
:104150000300986096E80300D86095E803001749CB
:10416000586204EB0E1403C9A468C3F8A400AC3A67
:1041700022F0010000F5697E10210122670002266D
:104180007825C3F8A800C3F804E09C61DF611E84B1
:104190009D62196159849A82DA821846F0BD00BF87
:1041A000D0410220A04E020054710220A84E02000D
:1041B000B04E0200B84E020064700200C04E020011
:1041C00070B5A2B0664B0093664A674B67485021B2
:1041D0001CF0ACFD002302A8644A65490CF05AF8B3
:1041E000149B002B00F0B280682015F04DFB0446B4
:1041F0004FF47A759DF80C00049A9DF814305D49CF
:10420000A5605D4E207600256161E26106A984F813
:104210002030266025712573256104F124000BF000
:10422000B5FE2369554A6261013323616566544BCB
:10423000029306A80BF0D8FE23680095596B002264
:10424000002320468847236820469B6A242202A92F
:1042500098479DF821509DF820309DF8222003EBCF
:10426000052313EB024547D09DF80D609DF80C2007
:104270009DF80E309DF80F009FED427A424902EB07
:10428000062202EB034303EB0063A3F5697307EE19
:10429000903AF8EE677A67EE877A07EE105AF8EEF2
:1042A000C76A87EEA67ABCEEC77A81ED007A3CB386
:1042B0002368042202A99B6A2046984704223349B6
:1042C00002A81CF041FA30B3314B002103F178020F
:1042D00003F8011F9A42FBD15CB1236820461B6C96
:1042E00098472369013B23611BB9236820461B6A59
:1042F0009847284622B070BD234B1D60002CD7D1B3
:1043000002A8042221491CF01FFA0028DCD1214B0D
:1043100001221A700EE01F4A2368012111709B6A66
:10432000042202A920469847236802A99B6A7822A2
:1043300020469847164B0DF1070203F1780012F85A
:10434000011F03F8011F9842F9D1C5E7159C002C05
:104350007FF44AAF0A4B029306A80BF045FE78E7BC
:10436000945C0220C84E0200585D022000510220D9
:10437000DC7B0220DC470200B44802003048020027
:104380000C4802000000FA43A4780220B84E020054
:10439000B75D022010720220F0B5444D296891B03B
:1043A000064621B10023424A42480BF067FE424CC8
:1043B00040490023324604F110000BF09FFE3F49B4
:1043C000A06C00230B70002869D050220AF04CFF2B
:1043D0003B480BF009FE37480BF006FE296821B177
:1043E0000023364A33480BF049FE334F002519E0CD
:1043F0000AF03AFF3349684615F018F8324904A824
:1044000015F014F804A9684615F024F810B304A8B0
:1044100014F0CCFF684614F0C9FF0135ADB228484E
:104420000BF0E2FD0022234925480BF09DFE254BB1
:1044300000265022194648B3BC6C1E702046002C42
:10444000D6D1FC6C502219462046002CD2D008F060
:104450005BFBCFE71B4908A814F0E8FF1B490CA839
:1044600014F0E4FF0CA908A814F0F4FF04460CA80B
:1044700014F09CFF08A814F099FF04A814F096FF0C
:10448000684614F093FF002CC9D0C6E70C480BF027
:10449000ABFD08480BF0A8FD284611B0F0BDE06C5C
:1044A000002895D0502208F02FFB91E7807B022056
:1044B000D04E0200B8790220AC540220845602206B
:1044C000BC540220945C0220D44E0200DC4E020058
:1044D000F0B5594D296891B0064621B10023574ADD
:1044E00057480BF0CBFD574C55490023324604F199
:1044F00010000BF003FE5449A06C00230B70002841
:1045000000F08E8050220AF0AFFE50480BF06CFD98
:104510004B480BF069FD296821B100234A4A4848FD
:104520000BF0ACFD4A4EB06C10B100210AF0B8FBA4
:10453000F06C18B10022002308F0A0FC454D414C5E
:1045400000232B802EE050220AF08EFE424968465E
:1045500014F06CFF414904A814F068FF04A96846F0
:1045600014F078FF002830D004A814F01FFF68462C
:1045700014F01CFFB36C2A883549002B49D05B69C5
:104580005B09013B9BB2364940F2E63001EB420148
:10459000824298BF0132A1F8DC3798BF2A802B48AD
:1045A0000BF022FD0022264928480BF0DDFD40B328
:1045B0002949A06C00230B700028C4D1E06C0028AE
:1045C000C4D0502208F0A0FAC0E7234908A814F08C
:1045D0002DFF24490CA814F029FF0CA908A814F0F9
:1045E00039FF07460CA814F0E1FE08A814F0DEFE1F
:1045F00004A814F0DBFE684614F0D8FE002FCED0DD
:10460000B8E712480BF0F0FC0D480BF0EDFC11B0D0
:10461000F0BDCB6C63B11B685B09013B9BB2B2E799
:10462000E06C00283FF471AF502208F06DFA6CE79F
:104630004FF6FF73A7E700BF807B0220D04E020039
:10464000B8790220AC54022084560220BC540220C7
:10465000A87902207C560220945C0220D44E0200ED
:104660000002FF1FDC4E020038B5054616480BF06D
:10467000BBFC164B196821B10023154A12480BF0F8
:10468000FDFC144C104900232A4604F110000BF0E5
:1046900035FD1149A06C00230B7068B150220AF05F
:1046A000E3FD09480BF0A0FC0C4B1B781BB9FFF78E
:1046B00087FD0B4B186038BDE06C0028F1D050220C
:1046C00008F022FAEDE700BFB8790220807B0220D3
:1046D000585D0220AC540220945C022050790220E4
:1046E000887602202DE9F04F7B487C4E97B00BF086
:1046F0007BFC7B480BF078FC316821B10023794AC0
:1047000077480BF0BBFC784DA86C10B100210AF083
:10471000C7FAE86C18B10022002308F0AFFBDFF8FD
:10472000DCA1DFF8D4810023AAF80030444600223F
:104730006B4969480BF018FD0746002842D06B49C9
:10474000A06C00230B7040B350220AF08DFDD8F806
:10475000483063B31B7813F0700F14BF012300239C
:10476000BBB1AB6CBAF800205F49002B00F0AA8007
:104770005B695B09013B9BB25D4940F2E63001EBAE
:104780004201824298BF0132A1F8AC3F98BFAAF81B
:10479000002051480BF028FCC9E7E06C0028F8D055
:1047A000502208F0B1F9D8F84830002BD2D1E36C90
:1047B000002BEED093F8313013F0500F14BF0123CB
:1047C0000023CDE744480BF00FFC45480BF00CFCF0
:1047D000316821B13B46434A41480BF04FFCBAF8DF
:1047E0000030012B65DD4FF001094F46002F58D0F6
:1047F00000273D46CDF804903E4C2FE050220AF0B1
:1048000033FD35480BF0F0FB002334F8022F344918
:1048100031480BF073FCD8F84800002301358DF8BF
:104820000830002833D002AE314650220AF01CFD79
:1048300029480BF0D9FB2D481BF056FC8346304627
:104840001BF052FC834507DD34F8023C228824F833
:10485000022C0137BFB22380BAF80030C9EB030243
:10486000954220DA00231E4922881B480BF046FCA3
:104870001E49D8F8480000230B700028BED11E4BFB
:10488000D86C0028BDD0502208F03EF9B9E71A4B89
:10489000D86C02AE0028CBD03146502208F034F953
:1048A000C6E7CDF8049001995A1E8A4209F1010920
:1048B0009CDC09480BF098FB09480BF095FB17B0FE
:1048C000BDE8F08FCB6C23B11B685B09013B9BB249
:1048D00052E74FF6FF734FE7BC540220807B022063
:1048E000B8790220D04E0200A87902208456022016
:1048F0000002FF1FAC11FF1FAC5402209051022098
:104900002DE9F04F5D4FBB6C95B0002B00F0A780F8
:104910005B480BF069FB5B4B5B4E18685B4D5C4C76
:10492000DFF8A8B1DFF8A8A1DFF8A891DFF8A88127
:10493000FDF7CCFB336822682968019103F2B2735A
:1049400000925021534A54481CF0F0F93368226811
:104950002968DBF8000001910092DAF80010D9F81C
:104960000020049003F2B2730391029250214B4A4B
:104970004B481CF0DBF94A4A4A4850211CF0D6F952
:1049800033682A682468DAF80000D9F80010DBF8E8
:1049900000600390029101921421049603F2B27315
:1049A0000094414A41481CF0C1F9D8F8001021B1E7
:1049B00000233F4A3F480BF061FB3F4D364A3F48DA
:1049C00005F1100101230BF023FB0446E8B13C493B
:1049D000344B009301240C702F4B3A4A304850213D
:1049E0001CF0A4F9D8F8001029B140F201232C4A98
:1049F00023480BF043FBB86C204B002834D03249DD
:104A000009F034FF15B0BDE8F08FAE6CB6B10346C7
:104A10008DF818003146204A8DF8194006A88DF807
:104A20001A4009F0B5FE0028DCD01E4B0093254A41
:104A3000194B1B4850211CF079F9D3E7E96C002988
:104A4000D0D03346144A8DF8496006A88DF84A60E4
:104A50008DF84B6008F080FC0028C3D0E5E7FB6CC4
:104A6000002B7FF455AF56E7D86C0028CAD0164A01
:104A7000002308F0E3FF15B0BDE8F08FAC5402202E
:104A8000BC54022000D00340347B0220B0600220DE
:104A9000685E0220E44E020000760220F44E02001E
:104AA000945C0220FC5B0220144F0200C85B0220D1
:104AB000D04E02008855022078550220B879022095
:104AC00090760220344F0200C0E1E40098530220A7
:104AD00004720220DC750220807B02202DE9F04167
:104AE000A74F3D68C5F35115ADF5856D002D00F05C
:104AF0003381A44CA44E04EB8535B04605E00AF0A2
:104B000069FA04F58044AC4214D0B36C4FF480428F
:104B100021461846002BF2D1D8F84C3021464FF4EC
:104B200080421846002BECD004F5804409F088F848
:104B3000AC42EAD10023944D3B6004E00AF04AFA0B
:104B4000924814F017FA914814F0CAF900288F48D7
:104B500013DD14F0F3F9B36C044601464FF4807290
:104B60001846002BEAD1EB6C4FF4807221461846B0
:104B7000002BE5D009F064F8E2E7B06C824B002826
:104B800000F0A0800AF0EAF9B06C7F4B002800F03A
:104B9000EE8000210AF084F8B36C7B4A002B00F011
:104BA000D080DF6900253C463846FFF7C3FAAC22C7
:104BB00001461FA814F018FDB06C734B002800F0DC
:104BC000B78000210AF06CF8B06C6F4B002800F041
:104BD000A6801FA9AC220AF0FDF9B06C6A4B002830
:104BE00000F0BC802C210AF05BF8694A9FED697ADD
:104BF00002F5F070134653F8041F07EE901AF8EE12
:104C0000677AF4EE477AF1EE10FAC8BFB0EE677A31
:104C10009842F0D1B5EE407AF1EE10FA1CBFF7EEF3
:104C2000007A87EE877A0DF10301DFED5B6A52F8B7
:104C3000043F07EE903AF8EE677A904267EE877A83
:104C400067EEA67AFCEEE77A17EE903A01F8013F9C
:104C5000EDD1B06C4C4B002852D0782201A90AF05B
:104C6000B9F9B06C484B002855D1D86C18B1224620
:104C70002B4608F003F9FFF7AFF84FF480720146B6
:104C80004AA814F0B1FCB06C3F4B80B34AA94FF472
:104C900080720AF09FF9FFF7ADF94FF400720146F8
:104CA0008AA814F0A1FCB06C374B88B18AA94FF4E4
:104CB00000720AF08FF939480BF096F90DF5856D01
:104CC000BDE8F081D86C002842D008F047FF5BE7D0
:104CD000D86C0028EFD08AA94FF4007208F0B0FF1A
:104CE0002E480BF081F90DF5856DBDE8F081D86C8B
:104CF0000028D0D04AA94FF4807208F0A1FFCAE77B
:104D0000D86C0028B7D0782201A908F099FFB06CC0
:104D10001D4B0028A9D0394609F0C2FFABE7D86C7B
:104D200000283FF462AF1FA9AC2208F089FF54E7C6
:104D3000D86C00283FF459AF0022002308F09EF8F9
:104D400042E7D76C2FB1D7E90445002527462BE76A
:104D500007460024002527E70B4EEBE6D86C002819
:104D60003FF443AF2C22002308F088F83DE7D86CCD
:104D70000028EDD00022002308F080F80CE700BFE7
:104D8000F87502208019FF1FAC54022074580220CD
:104D9000905102200000000000004843BC54022053
:104DA0002DE9F0433B4EC1B0374619E0DFF8F08003
:104DB00000253368384805EB430308EB032414F05F
:104DC000BDF84FF480720146204614F00DFC013509
:104DD000314814F0CFF8022DEBD13B6801333B6032
:104DE0002D4814F07DF80128E0DC3368BF2B4ED944
:104DF000DFF8AC80294D444608F5C037A94605E0E8
:104E00000AF0E8F804F58044BC4214D0AB6C4FF4CF
:104E1000804221461846002BF2D1D9F84C30214669
:104E20004FF480421846002BECD004F5804408F083
:104E300007FFBC42EAD10025294668464FF480723C
:104E400035601BF017FD144808EB052414F048F8F2
:104E5000D8B1114814F072F84FF480720146204620
:104E600014F0C2FB0C4814F085F821464FF4807210
:104E700068461BF069FC0028E5D00135064808EBC0
:104E8000052414F02DF80028E3D16D08356041B0F9
:104E9000BDE8F083F875022074580220AC5402205B
:104EA0008019FF1F2DE9F043DFF884C1594A9CF8AF
:104EB000003000251570002B00F090805F1EFFB2BF
:104EC000554A564B92F800E0DFF86881013707EB4E
:104ED000470703EB870703F10804BEF1000F5CD01E
:104EE000197A05EB4506A4F1080208EB860605F1E0
:104EF000010921B107CA86E807005FFA89F50C337A
:104F0000BB4204F10C04E8D1454E8CF800503778D0
:104F1000A7B17D1EEDB2013505EB4505DFF8FCC0FC
:104F2000DFF814E1AD0000230CEB030207CA0EEB1F
:104F300003040C33AB4284E80700F5D1394B3A4AFD
:104F40003A4DDFF8F890DFF8F880DFF8F8C03770F6
:104F500008240A2106205C70D9700D240421987061
:104F60009E461C701E46117000206CB30122002763
:104F7000C1B2531EDBB203EB430388B301293ED019
:104F8000022936D005EB83031B7A0BB10137FFB240
:104F9000A2423AD20132D2B2EBE714F8082CA2F1C5
:104FA00064010129ABD9672AA9D0197A05EB450616
:104FB000A4F1080208EB86060029A0D007CA013533
:104FC00086E80700EDB29AE72746013004283770DB
:104FD00002D016F8014FC8E7BDE8F0831D4693E7FD
:104FE0000CEB83031B7A0BB10137FFB2A242D1D382
:104FF000EBE709EB83031B7A002BF7D0F4E708EB10
:1050000083031B7A002BF1D0EEE70EF80070BDE8A9
:10501000F08300BFC05E02208A570220B8B50300AB
:105020007C4102208C570220D4410220A0A803001A
:105030005C420220A878022024550220A4490200E4
:105040006071020018A9030030B5044B1B680446C8
:1050500083B018460D46FDF739F801E000D0034053
:10506000FF2C00F21B81DFE814F0C502BA02B8027F
:10507000AD023B022F0219012D022402DC021901AC
:105080001901D20219011901190119011901190196
:105090001901190119011901190119011901190140
:1050A0001901190119011901190119011901190130
:1050B0001901190119011901190119011901190120
:1050C0001901190119011901190119011901190110
:1050D0001901190119011901190119011901190100
:1050E00019011901190119011901190119011901F0
:1050F00019011901190119011901190119011901E0
:1051000019011901190119011901190119011901CF
:1051100019011901190119011901190119011901BF
:1051200019011901190119011901190119011901AF
:105130001901D002C8020303190119010103190161
:10514000190119011901190119011901190119018F
:10515000190119011901190119019C018401F901B1
:10516000190119011901190119011901190119016F
:10517000190119011901190119011901190119015F
:10518000190119011901190119011901190119014F
:10519000190119011901ED01EB01E101D901CD015D
:1051A000AC01A4011B0213020F021901190119011C
:1051B000190119011901190119011901190119011F
:1051C000190119011901190119011901190119010F
:1051D00019011901190119011901190119011901FF
:1051E00019011901190119011901190119011901EF
:1051F000190119011901190119011901FB016501B1
:1052000059011901190119011901190152014A0124
:1052100042013A0119012E0119011901190119015F
:1052200019012C0124011C0119011901190119018D
:10523000190119011901190119011901190119019E
:10524000190119011901190119011901190119018E
:10525000190119011901190119011901190119017E
:1052600019011901190119010001032D00F20C8225
:105270009F4BA04853F8252014211BF057FD9E4B4F
:105280001B78AB420AD19D4B1B78002B40F03C822F
:105290009B4D984C0FCD0FC42B682360954803B0ED
:1052A00030BD984B984A1B88924814211BF03EFD54
:1052B000F4E7964B964A1B688E4814211BF036FD86
:1052C000ECE7944BF6E7944B1B78002B40F0ED8015
:1052D000924B884A1B6813801B0C9370DEE7904B3F
:1052E000904A9B68834814211BF020FDD6E78C4B25
:1052F0008C4A5B687F4814211BF018FDCEE7884B71
:10530000884A1B687B4814211BF010FDC6E7864BBA
:10531000784819680C221BF0F1FFBFE7834B93F923
:105320000030012B00F0D381814A724B07CA03C3BE
:105330001A70B3E77F4B804C1868FCF7C7FE94F9EE
:105340000030002B00F0A481012B00F0CB81022B58
:10535000A4D17A4B7A497B4A1B680968126800928B
:10536000019103F2B273784A624814211BF0DEFC0B
:1053700094E7764B1B889FED767A07EE903AF8EE2D
:10538000E77A67EE877A17EE900A1AF085F9714A84
:10539000CDE90001142157481BF0C8FC554803B063
:1053A00030BD6D4B1B78002B7FD0524B6B4A1A607F
:1053B00074E76B4B5B4A1B784E4814211BF0B6FC1C
:1053C0006CE7684B1B7868495A08A1FB02129208E7
:1053D000C2EBC201A3EB4103DBB207EE903AF8EE59
:1053E000E77AB7EE087A67EE877A07EE102AB8EE0A
:1053F000C77AF3EE046AE7EE267AB1EE087A77EE22
:10540000C77AC0E7594B5A4A1B783A4803EB8303E3
:1054100003EB830314211BF089FC3FE7554B564AED
:105420001B78344814211BF081FC37E7534B1B7861
:105430003C4A304803EB830314211BF077FC2DE733
:105440004F4BF4E74F4A11684F4B504A294803EB42
:10545000011314215B681BF069FC1FE74C4B89E7C3
:10546000354C94F90030002B00F02481002B7FF79D
:1054700015AF484A484B12681B681E480092142119
:10548000464A1BF053FC09E71A4B20221A8005E715
:10549000434B187848B107EE900AFAEEEF7A72E7BC
:1054A000404B1B78002B7FF413AF124B3E4A1A601F
:1054B000F4E63E4B1B4A93F900300E4814211BF0D2
:1054C00035FCEBE63A4B7DE73A4B18681AF0E4F806
:1054D000394ACDE90001142106481BF027FCDDE61E
:1054E000364B374A1B78034814211BF01FFCD5E6C6
:1054F000B84102206C760220204202208A57022006
:10550000F04F02007C560220EC4F02008056022031
:10551000E44F02000C720220DC410220CC4F02005A
:1055200068790220584F020038570220B14102200A
:10553000D84F020000D003403C5E0220347B0220A2
:10554000B0600220685E0220AC4F02006842022078
:10555000CDCCCC3DBC4F0200A86902204F4E2000AC
:1055600090410220FC75022093244992CE410220F2
:10557000744F0200F34102204C4F0200CC41022044
:10558000F24102202842022064700200384F0200DB
:10559000CA41022004720220DC750220B04F0200D2
:1055A0008B5702207E5602204F464600C8410220FB
:1055B0007A42022074420220C44F02007D41022040
:1055C000EC4E0200584B1B78022B7FF66EAF574A09
:1055D000574814211BF0AAFB60E6564A33E7564AA7
:1055E000564B1168524853F82130554A14211BF08C
:1055F0009DFB53E6534A544BF3E7544B544A1B78F4
:105600004B4814211BF092FB48E6524B07E7524BE4
:105610001B68012B64DD514A454814211BF086FBB1
:105620003CE64F4B1B782BBB4E4B9FED4F7A93F9CB
:10563000003007EE903AF8EEE77A67EE877A17EED9
:10564000900A1AF029F841EC100B17F099FA34A3DC
:10565000D3E9002351EC100B1AF072F8434ACDE95C
:105660000001142132481BF061FB17E6404BC5E7EF
:10567000404B9FE603EB830303EB83033E4A2C4836
:1056800014211BF053FB09E6294B3C4A1A60F6E54E
:105690003B4B3C493C4A1B680968126800920191E7
:1056A00003F2B273394A224814211BF03FFB94F9EC
:1056B000003049E6364A374B12681B681C48009296
:1056C0001421354A1BF032FB94F90030CEE6334A00
:1056D000174B92E803000A0C186099809A71DDE577
:1056E0002F4AF5E7264B2749274A1B6809681268A5
:1056F0000092019103F2B2732A4A0D4814211BF063
:1057000015FB94F9003022E6274B094C0FCB07C458
:1057100024F8023B1B0C2370C0E500BFAFF30080F0
:1057200000000020AEC727403C4202204C4F020040
:105730006C760220D0410220604202209441022077
:10574000384F02006C420220844202208042022034
:10575000604F0200CD410220804102207C4F0200B8
:1057600023420220147A0220CFF7D33D684F020073
:105770002542022070420220744F02003F3F3F004A
:10578000347B0220B0600220685E02208C4F020051
:1057900004720220DC750220A04F0200D04F0200EC
:1057A000844F02009C4F02003C4F020070B582B053
:1057B00070B9644A1378194449B2002936DB5A2972
:1057C000A8BF5A2108461170FDF734FE02B070BD23
:1057D000032811D15C4B1B78012BF7D05B4A13686F
:1057E00019440E29A8BF0E2121EAE1710846116073
:1057F000FDF78EFD02B070BD01281CD1544A13780C
:10580000194449B2002913DB2729A8BF27214BB22D
:10581000C9B25048504D0068504C1370012829708F
:105820002370D3D14E48FDF7CDF9CFE70146C9E744
:1058300000210B46EDE704280CD14A4A13680133D6
:10584000022B05DC002BB8BF0223136002B070BD31
:105850000023FAE702284FD1434B1B68002BB5D138
:10586000424C434D23680093009B2A689B1AB3F572
:10587000FA7F58D2F92B62D8642B41F2883328BFC3
:105880004FF4FA633B4A3C4E106896ED007A03FBF6
:10589000010141F65733994242DDDFED386AC7EE28
:1058A000267A4FF47A70FDEEE77A17EE903A013BD4
:1058B00000FB03F39942A8BF1946314B116008461B
:1058C0001960FDF7C1F92F4BD3ED007AF5EEC07AE0
:1058D000F1EE10FA2AD4B7EE007AF4EEC77AF1EEC0
:1058E00010FA25DD4FF48033226801920199264A8F
:1058F0002960536202B070BD05287FF467AF234A68
:10590000137803EB4101C9B2012907D93229A8BF95
:1059100032211170FDF7EEF902B070BD0221F8E7F7
:1059200041F65831C9E74FF4FA73ABE70023DBE7E0
:10593000B0EE677ABEEEC87A17EE103AD4E74FF4AD
:105940007A739FE7D456022008710220D0410220CA
:105950007A420220AC41022094530220147A0220A1
:105960007879022088410220EC4102200C83022039
:105970006476022078410220645E02200000FA442E
:10598000B8650220D8410220FC5402203C4202208B
:10599000692838B519D009280DD066283BD1AD4A01
:1059A0001478052313FB0143C82B31DC0E2B09DCD3
:1059B000C82313701AE0A84A13780B44C82B24DCC0
:1059C000002BF5DBDBB2137010E0A44C23780B4402
:1059D000102B18DC032B45DDDBB2A14A2370002419
:1059E00082F8243082F8254082F82640962840F03C
:1059F00097809C4A136819440E292CDC0429D8BFCF
:105A00000E21116038BD0423E7E700231370EDE792
:105A10000F231370EAE764282AD1934A137803EB23
:105A20004103232B1ADC002B1EDB07EE903A9FED7F
:105A30008F7AF8EEE77ADBB227EE877A8C4D8D4CC1
:105A4000D5ED006A1370C7EE267AFDEEE77A17EE01
:105A5000903A2370CAE70521116038BD9FED867A20
:105A60000023EBE71023B8E79FED847A2323E5E7D3
:105A700065280ED1824A13780B441E2B43DC042B7D
:105A800048DDDBB27F4D764C13702B7084F82730E5
:105A9000ACE702280B4604460CD17B490A68134444
:105AA0000E2BA8BF0E2323EAE37318460B60FDF705
:105AB0002FFC38BD072814D1744A11780B4459B211
:105AC000002922DB2729A8BF27214BB2C9B2704881
:105AD000704D0068704C13700128297023701BD022
