:1000000000000320D10100007D9D0100359D01000D
:10001000359D0100359D0100359D0100359D010094
:10002000359D0100359D0100359D01007D9D01003C
:100030007D9D0100359D010039B901003DB90100E8
:100040007D9D01007D9D01007D9D01007D9D010044
:100050007D9D01007D9D01007D9D01007D9D010034
:100060007D9D01007D9D01007D9D01007D9D010024
:100070007D9D01007D9D01007D9D01007D9D010014
:100080007D9D01007D9D01007D9D01007D9D010004
:100090007D9D01007D9D01007D9D01007D9D0100F4
:1000A000A1D40100ADD401007D9D01007D9D010022
:1000B0007D9D01007D9D01007D9D0100B9A701008E
:1000C0007D9D01007D9D01007D9D01007D9D0100C4
:1000D0007D9D01007D9D01007D9D01007D9D0100B4
:1000E0007D9D01007D9D01007D9D01007D9D0100A4
:1000F0007D9D01007D9D01007D9D01007D9D010094
:100100007D9D01007D9D01007D9D01007D9D010083
:100110007D9D0100ADAA01007D9D01007D9D010036
:100120007D9D01007D9D01007D9D01007D9D010063
:100130007D9D01007D9D01007D9D01007D9D010053
:1001400005CD00007D9D01007D9D01007D9D01008C
:100150007D9D01007D9D01007D9D01007D9D010033
:100160007D9D01007D9D0100B9D401007D9D0100B0
:100170007D9D01007D9D01007D9D01007D9D010013
:100180007D9D01007D9D01007D9D01007D9D010003
:100190007D9D01007D9D01007D9D01007D9D0100F3
:1001A0007D9D01007D9D01007D9D01007D9D0100E3
:1001B0007D9D01007D9D01007D9D01007D9D0100D3
:1001C0007D9D01007D9D01007D9D01007D9D0100C3
:1001D0005C4B4CF2205210B51A804DF628121A8052
:1001E00000BF00BF19F0CEFD574B4FF030621A60D0
:1001F000564A9A60564ADA60564B4FF470021A60BB
:10020000554B564A1A60564B1A78110703D51A787F
:1002100042F008021A70534B5349AA221A70534AEB
:10022000534B8B4204D252F8040F43F8040BF8E707
:10023000504B514900228B4202D243F8042BFAE77B
:100240004E494F4A002352F8230041F8230001335E
:10025000742BF8D14B4B4C4A802103F8011B93427D
:10026000FBD14A4B454A1A60494B8A221A70A3F5C2
:10027000805324225A70A0221A709A799207FCD5D2
:100280009A79D406FCD4434A937903F00C03082BE3
:10029000FAD1414B60221A7002331A78802AFCD1BD
:1002A0003C4B01221A715D225A719A799006FCD555
:1002B0009979384A4906FBD5384B394919600021EC
:1002C000596020231370937903F00C030C2BFAD19F
:1002D000344B354A1A60354A354C136813F4807331
:1002E00003D123604FF4A8531360324B324A1A6093
:1002F00000225A60072243F8042C304AC3F80C2D20
:1003000062B61AF0A3F92368DA0705D52C4819F06C
:10031000A5FE2C4B2C4A1A602C4B1B785B0609D58A
:10032000284C294B22689A4204D1254819F096FEA0
:100330000023236020F04CFC19F02AFD19F01EFC6C
:10034000FEE700BF0E20054030800440823F0400DD
:100350000100002B88ED00E0002008E0030000858C
:1003600002D0074000E00740D05002200C060500F4
:10037000303F0220E050022028850220003A02206F
:100380000000000000E400E064E400E008ED00E0AC
:10039000005006400040064001E007404480044011
:1003A0000000060204800440C010070010D0034083
:1003B00014D0034014E000E01FBF02000000202022
:1003C000DAC739611CE00340A5C3945A00F0074026
:1003D000FFFFFFFFFFFFFFFFFFFFFFFFFFFFFFFF2D
:1003E000FFFFFFFFFFFFFFFFFFFFFFFFFFFFFFFF1D
:1003F000FFFFFFFFFFFFFFFFFFFFFFFFFFFFFFFF0D
:10040000FFFFFFFFFFFFFFFFFFFFFFFFDEF9FFFF23
:1004100010B5054C237833B9044B13B10448AFF33E
:1004200000800123237010BDE05002200000000076
:1004300008060500084B10B51BB108490848AFF382
:1004400000800848036803B910BD074B002BFBD0A0
:10045000BDE81040184700BF00000000E450022033
:1004600008060500D0500220000000000020704760
:10047000704700BF00207047002070474FF0FF30EA
:10048000704700BF006910B103689B6A1847704746
:10049000006910B10368DB6A18477047006910B142
:1004A00003681B6918477047006910B103689B69AE
:1004B00018474FF0FF307047006910B10368DB68E0
:1004C00018477047006910B10168096B0847704709
:1004D00010B4006920B10468616B5DF8044B0847F3
:1004E0005DF8044B704700BF006910B103689B6B57
:1004F0001847002000217047006910B10368DB6BCA
:100500001847002000217047006910B103681B6C78
:1005100018477047006910B103685B6C1847704753
:10052000006910B103689B6C18470148704700BF11
:10053000E0560200006910B10368DB6C1847704791
:1005400038B50B6904462BB11D6819462B6D9847C9
:10055000204638BD4FF47A70064A23712373A06099
:1005600022600B692361002BF2D01A6901321A61F3
:10057000204638BD14530200006910B103685B6D5A
:1005800018477047006980B100B5036883B09B6A63
:1005900001220DF10701984720B19DF8070003B033
:1005A0005DF804FB4FF0FF30F9E74FF0FF30704784
:1005B00010B582B002AB026803F8011DD46A194677
:1005C0000122A04702B010BDC36D0BB101207047DE
:1005D000006E003018BF0120704700BF704700BF99
:1005E0009FED057ADFED057AE0EE077AFCEEE77A1B
:1005F00017EE901A12F052B900000143EE7CFF3E54
:1006000010B50446406E18B120F02CFB0023636641
:1006100004F12400BDE810400FF0B8BF10B5044B42
:10062000044640F8103B0FF0B1FF204610BD00BF5C
:10063000CC52020010B5044602460369054906483B
:1006400019F030F9206920B10368BDE810405B6AF9
:10065000184710BDAC5402006444022002460369EE
:100660000149024819F01EB9C8540200644402202E
:100670002DE9F041002394B01A460546243104A820
:100680004FF47A74254F8DF804308DF80C301293A6
:1006900013930294009710F039F8129B002B32D07C
:1006A000682019F0C3FB04469DF80460029A9DF887
:1006B0000C301B481B4926764FF47A7800262060C0
:1006C0006161E26184F8203004F1240004A92671FC
:1006D00026732661C4F808800FF02AFF2369124AA6
:1006E0006761013366662E71C5F808802E732C6130
:1006F00023612A600D4B009304A80FF047FF2846A2
:1007000014B0BDE8F081139B002BC9D1064A2B71B0
:10071000AC602B732B612A60ECE700BFF052020043
:10072000745302009C52020014530200CC52020087
:1007300019F08EBCF8B50D46064613F041FB13F0D8
:10074000B1FA044613F03CFB13F09EFA074613F08F
:1007500037FB13F08BFAA4F2BC739BB27F2B02D849
:10076000FAB20C2A28D90023338013F029FB13F0A6
:1007700053FA064613F024FB13F05CFA044613F018
:100780001FFB13F065FAF3B2172B12D8E3B23B2B21
:100790000FD8C3B23B2B0CD8F302640103F4FF2340
:1007A00004F4FF542343C0F3460003439BB22B8061
:1007B000F8BD00232B80F8BDC0B21F28D3D87F011D
:1007C00007F4FF57384340EA43239BB2CCE700BF0E
:1007D00010B504460CF006FC204610BD826C62B1D8
:1007E000137803F0080303F0FF0003B3D3695069E3
:1007F000181A48BF6FF000407047C16CC1B191F842
:10080000313003F0080303F0FF0083B1D1E9042382
:10081000D1E90001101A30B463EB010100256FF03B
:1008200000448D4208BF844200D2204630BC70474D
:1008300008467047836C13B118460EF0E1BBC06CDC
:1008400008B10CF0D5BD4FF0FF30704700B5836C98
:1008500083B063B1184601220DF107010EF000FBD1
:1008600001280CD19DF8070003B05DF804FBC06CB3
:1008700028B101220DF107010CF0E6FCF0E74FF082
:10088000FF30F1E7836C13B118460EF033BEC06C35
:1008900008B10DF079BA704702684AB11369013B9B
:1008A000136103B17047006810B103681B6A1847F1
:1008B000704700BFD0B5C46D8CB1012B08BF002AB2
:1008C00001D30020D0BD114620460EF0BBFC00280D
:1008D000F7D020460EF014FE0028F2D0D0BD046EF2
:1008E000002CEED020460CF09BFD0028E9D02046DD
:1008F000BDE8D0400DF004BC10B5044619B1012983
:1009000011D0002010BD5522202111F09BFF00289E
:10091000F7D0E28842F00402204692B22421BDE8DA
:10092000104011F08FBF40F273122A2111F08AFF9C
:100930000028E6D088222021204611F083FF0028DD
:10094000DFD0E288204622F004022421BDE81040D6
:1009500011F078BFC36D13B1D86900217047036EE1
:1009600013B118695969704718461946704700BF96
:10097000C36D13B1586900217047036E13B193E83A
:100980000300704718461946704700BFC36D13B186
:1009900018460EF065BA006E08B10CF055BC4FF069
:1009A000FF307047C36D13B118460EF029BB006EBF
:1009B00008B10CF01DBD4FF0FF307047C36D33B16F
:1009C0001B7813F0700F14BF012000207047006ED9
:1009D00030B190F8313013F0500F14BF01200020D7
:1009E000704700BFC36D13B118460EF083BD006E93
:1009F00008B10DF0C9B97047C26D62B1137803F048
:100A0000080303F0FF0003B3D3695069181A48BF05
:100A10006FF000407047016EC1B191F8313003F0C2
:100A2000080303F0FF0083B1D1E90423D1E90001F9
:100A3000101A30B463EB010100256FF000448D42C1
:100A400008BF844200D2204630BC70470846704739
:100A5000C36D9BB11A7812F0700F00D1704710B5BA
:100A60000446002118460EF0EDFB206E28B100224E
:100A70000023BDE810400CF0D3BC10BD006E002870
:100A8000ECD090F8313013F0500FE7D00022002363
:100A90000CF0C6BCC36D13B118460EF06DBD006EF0
:100AA00008B10DF09FBB7047836C13B118460EF070
:100AB00063BDC06C08B10DF095BB704700B5836C89
:100AC00083B08DF8071043B1184601220DF10701DC
:100AD0000EF052FD03B05DF804FBC06C0028F9D0A5
:100AE00001220DF107010DF07DFB03B05DF804FB61
:100AF0000269084B10B50446036042B11369013B1B
:100B0000136123B9006910B103681B6A9847204636
:100B100010BD00BF14530200C26A0949094B10B549
:100B200004460160C36142B11369013B136123B9FB
:100B3000C06A10B103681B6A9847204610BD00BF09
:100B4000ACD003001453020038B5C36D144A0260E0
:100B5000044600F12405F3B128460FF017FD606E3E
:100B600008B120F07FF80F4B636128460FF00EFDAF
:100B700022690D4B236042B11369013B136123B914
:100B8000206910B103681B6A98472046682119F054
:100B90004FF9204638BD036E002BDDD1DFE700BFE3
:100BA00074530200CC5202001453020002690A4B33
:100BB00010B50446036042B11369013B136123B9C8
:100BC000006910B103681B6A98472046142119F088
:100BD0002FF9204610BD00BF14530200D0B4039C6F
:100BE00016461F4634B1012C1ED0022C0DD0002019
:100BF000D0BC7047C46DDCB1012B08BF002AF6D20F
:100C000020461146D0BC0EF01DBBC36DB3B1DA69EE
:100C1000B61847F10007012F08BF002EE7D2314672
:100C20001846D0BC0EF00EBBC36D8BB15A69EFE70E
:100C3000006E0028DBD0D0BC0CF0F2BB006E0028A8
:100C4000D5D0D0E9042392197B41D0BC0CF0E8BB8D
:100C5000006E0028CBD0D0E9002392197B41EAE74F
:100C600038B5C36D124A0260044600F12405D3B1C1
:100C700028460FF08BFC606E08B11FF0F3FF0D4BA0
:100C8000636128460FF082FC22690B4B236042B15E
:100C90001369013B136123B9206910B103681B6A12
:100CA0009847204638BD036E002BE1D1E3E700BF33
:100CB00074530200CC5202001453020038B5446E43
:100CC0000CB1204638BD05464FF480701FF0C2FFBE
:100CD0000146686680B1E86D0C7028B14FF48072EF
:100CE0000EF094FD6C6EECE7286E40B14FF480720C
:100CF0000CF0DCF96C6EE4E7024C6C66E1E70C4644
:100D0000DFE700BFFC5002202DE9F0419AB040F22D
:100D10000223A04AA04906A80FF08EFD189B002BC5
:100D200000F0F981682019F081F8044600259DF84B
:100D30001C60089A9DF824309848994920604FF427
:100D40007A780AAF26766161E26184F8203004F196
:100D500024003946257125732561C4F808800FF0F9
:100D6000E7FB23698F4A904E656601338DF8085082
:100D7000CDF80C808DF810500594626123610196C6
:100D80008A4B069338460FF001FC894B89491A6853
:100D9000894C01A818F086FD884B89491A6801A87A
:100DA00018F080FD874B88491A6801A818F07AFD71
:100DB000864B87491A6801A818F074FD854B86494F
:100DC0001A6801A818F06EFD844B854993F900203C
:100DD00001A818F067FD834B834993F9002001A80F
:100DE00018F060FD814B82491A6801A818F05AFD7D
:100DF000804B81491A7801A818F054FD7F4B804937
:100E00001A7801A818F04EFD7E4B7F491A7801A888
:100E100018F048FD7D4B7E491A7801A818F042FD74
:100E20007C4B7D491A7801A818F03CFD7B4B7C492E
:100E30001A7801A818F036FD7A4B7B491A7801A878
:100E400018F030FD794B7A491A7801A818F02AFD7C
:100E5000784B79491A7801A818F024FD774B784926
:100E60001A7801A818F01EFD764B77491A7801A868
:100E700018F018FD754B76491A7801A818F012FD84
:100E8000744B75491A7801A818F00CFD734B74491E
:100E90001A7801A818F006FD724B73491A7801A858
:100EA00018F000FD714B72491A7801A818F0FAFC8D
:100EB000704B71491A7801A818F0F4FC6F4B704917
:100EC0001A8801A818F0EEFC6E4B6F491A8801A829
:100ED00018F0E8FC6D4B6E491A8801A818F0E2FC86
:100EE0006C4B6D491A8801A818F0DCFC6B4B6C49FF
:100EF0001A7801A818F0D6FC6A4B6B491A7801A839
:100F000018F0D0FC694B6A491A7801A818F0CAFC9D
:100F1000684B694993F9002001A818F0C3FC674B9E
:100F2000674993F9002001A818F0BCFC654B66499D
:100F30001A7801A818F0B6FC2268644901A818F0D4
:100F4000B1FC6268624901A818F0ACFCA268614972
:100F500001A818F0A7FC604B60491A7801A818F0A6
:100F6000A1FC5F4B5F491A7801A818F09BFC5E4B0F
:100F70005E4993F9002001A818F094FC0598002818
:100F800000F0C5800368DB6898470598002800F0EA
:100F9000BE80ADE048420220E07B02207453020094
:100FA0009C520200F052020014530200CC52020084
:100FB000EC410220E85402006C79022054420220E5
:100FC000FC540200804102201455020028420220F5
:100FD00024550200D041022034550200187A022024
:100FE00044550200D4560220545502007841022094
:100FF000605502003C420220745502007D410220EF
:10100000845502008042022098550200CD41022002
:10101000A855020070420220B4550200234202206B
:10102000C055020025420220D05502006442022031
:10103000E0550200F2410220F4550200CC410220AA
:1010400000560200904102200C560200F34102209B
:1010500018560200CE4102202456020000760220DB
:10106000305602007E5602203C5602008B5702206A
:1010700050560200AC6902206456020082420220EF
:101080007456020084410220885602006842022001
:101090009C560200CA410220AC5602009453022022
:1010A000BC560200B0600220D05602003642022038
:1010B000E4560200B1410220F8560200914102209C
:1010C0000C570200247102202457020038570200F6
:1010D0004857020060570200B041022074570200D6
:1010E000DC4102208857020021420220985702006A
:1010F00003681B6C9847059A019642B11369013B3E
:10110000136123B9059810B103681B6A9847012041
:101110001AB0BDE8F081199B002B7FF403AE4FF4A9
:101120007A72054E8DF808308DF8103005930392D1
:1011300001960AAF24E600BF14530200214B10B4FD
:10114000D3F8E8201368506819780478507A137A35
:10115000044201EA03011BD0937A03F0030309B1AF
:1011600043F0040343F008039910013B91720D2BE7
:101170000BD8DFE803F021071B070A152121150A08
:10118000071B0721D368013BD3605DF8044B704710
:10119000937A03F003030029E6D043F00403E3E766
:1011A000D3685DF8044B023BD3607047D3685DF8A9
:1011B000044B0233D3607047D3685DF8044B0133AE
:1011C000D3607047F0800220214B10B4D3F8EC209C
:1011D0001368506819780478507A137A044201EA47
:1011E00003011BD0937A03F0030309B143F0040316
:1011F00043F008039910013B91720D2B0BD8DFE8E7
:1012000003F021071B070A152121150A071B0721D7
:10121000D368013BD3605DF8044B7047937A03F0C9
:1012200003030029E6D043F00403E3E7D3685DF845
:10123000044B023BD3607047D3685DF8044B023324
:10124000D3607047D3685DF8044B0133D3607047B7
:10125000F0800220214B10B41A6813685068197886
:101260000478507A137A044201EA03011BD0937A7E
:1012700003F0030309B143F0040343F0080399109A
:10128000013B91720D2B0BD8DFE803F021071B0700
:101290000A152121150A071B0721D368013BD360DA
:1012A0005DF8044B7047937A03F003030029E6D0FE
:1012B00043F00403E3E7D3685DF8044B023BD360DB
:1012C0007047D3685DF8044B0233D3607047D3682E
:1012D0005DF8044B0133D360704700BFF0800220FB
:1012E000214B10B45A681368506819780478507A02
:1012F000137A044201EA03011BD0937A03F003033B
:1013000009B143F0040343F008039910013B9172C3
:101310000D2B0BD8DFE803F021071B070A1521214D
:10132000150A071B0721D368013BD3605DF8044B06
:101330007047937A03F003030029E6D043F00403D7
:10134000E3E7D3685DF8044B023BD3607047D36892
:101350005DF8044B0233D3607047D3685DF8044BEB
:101360000133D360704700BFF0800220214B10B4DE
:101370009A681368506819780478507A137A04428E
:1013800001EA03011BD0937A03F0030309B143F090
:10139000040343F008039910013B91720D2B0BD805
:1013A000DFE803F021071B070A152121150A071B97
:1013B0000721D368013BD3605DF8044B7047937AF3
:1013C00003F003030029E6D043F00403E3E7D36806
:1013D0005DF8044B023BD3607047D3685DF8044B63
:1013E0000233D3607047D3685DF8044B0133D36098
:1013F000704700BFF0800220214B10B4DA681368F8
:10140000506819780478507A137A044201EA03018B
:101410001BD0937A03F0030309B143F0040343F0B4
:1014200008039910013B91720D2B0BD8DFE803F0F4
:1014300021071B070A152121150A071B0721D3685D
:10144000013BD3605DF8044B7047937A03F00303CC
:101450000029E6D043F00403E3E7D3685DF8044BCA
:10146000023BD3607047D3685DF8044B0233D3600E
:101470007047D3685DF8044B0133D360704700BFF9
:10148000F0800220214B10B41A6913685068197853
:101490000478507A137A044201EA03011BD0937A4C
:1014A00003F0030309B143F0040343F00803991068
:1014B000013B91720D2B0BD8DFE803F021071B07CE
:1014C0000A152121150A071B0721D368013BD360A8
:1014D0005DF8044B7047937A03F003030029E6D0CC
:1014E00043F00403E3E7D3685DF8044B023BD360A9
:1014F0007047D3685DF8044B0233D3607047D368FC
:101500005DF8044B0133D360704700BFF0800220C8
:10151000214B10B45A691368506819780478507ACE
:10152000137A044201EA03011BD0937A03F0030308
:1015300009B143F0040343F008039910013B917291
:101540000D2B0BD8DFE803F021071B070A1521211B
:10155000150A071B0721D368013BD3605DF8044BD4
:101560007047937A03F003030029E6D043F00403A5
:10157000E3E7D3685DF8044B023BD3607047D36860
:101580005DF8044B0233D3607047D3685DF8044BB9
:101590000133D360704700BFF0800220214B10B4AC
:1015A0009A691368506819780478507A137A04425B
:1015B00001EA03011BD0937A03F0030309B143F05E
:1015C000040343F008039910013B91720D2B0BD8D3
:1015D000DFE803F021071B070A152121150A071B65
:1015E0000721D368013BD3605DF8044B7047937AC1
:1015F00003F003030029E6D043F00403E3E7D368D4
:101600005DF8044B023BD3607047D3685DF8044B30
:101610000233D3607047D3685DF8044B0133D36065
:10162000704700BFF0800220214B10B4DA691368C4
:10163000506819780478507A137A044201EA030159
:101640001BD0937A03F0030309B143F0040343F082
:1016500008039910013B91720D2B0BD8DFE803F0C2
:1016600021071B070A152121150A071B0721D3682B
:10167000013BD3605DF8044B7047937A03F003039A
:101680000029E6D043F00403E3E7D3685DF8044B98
:10169000023BD3607047D3685DF8044B0233D360DC
:1016A0007047D3685DF8044B0133D360704700BFC7
:1016B000F0800220214B10B41A6A13685068197820
:1016C0000478507A137A044201EA03011BD0937A1A
:1016D00003F0030309B143F0040343F00803991036
:1016E000013B91720D2B0BD8DFE803F021071B079C
:1016F0000A152121150A071B0721D368013BD36076
:101700005DF8044B7047937A03F003030029E6D099
:1017100043F00403E3E7D3685DF8044B023BD36076
:101720007047D3685DF8044B0233D3607047D368C9
:101730005DF8044B0133D360704700BFF080022096
:10174000214B10B45A6A1368506819780478507A9B
:10175000137A044201EA03011BD0937A03F00303D6
:1017600009B143F0040343F008039910013B91725F
:101770000D2B0BD8DFE803F021071B070A152121E9
:10178000150A071B0721D368013BD3605DF8044BA2
:101790007047937A03F003030029E6D043F0040373
:1017A000E3E7D3685DF8044B023BD3607047D3682E
:1017B0005DF8044B0233D3607047D3685DF8044B87
:1017C0000133D360704700BFF0800220214B10B47A
:1017D0009A6A1368506819780478507A137A044228
:1017E00001EA03011BD0937A03F0030309B143F02C
:1017F000040343F008039910013B91720D2B0BD8A1
:10180000DFE803F021071B070A152121150A071B32
:101810000721D368013BD3605DF8044B7047937A8E
:1018200003F003030029E6D043F00403E3E7D368A1
:101830005DF8044B023BD3607047D3685DF8044BFE
:101840000233D3607047D3685DF8044B0133D36033
:10185000704700BFF0800220214B10B4DA6A136891
:10186000506819780478507A137A044201EA030127
:101870001BD0937A03F0030309B143F0040343F050
:1018800008039910013B91720D2B0BD8DFE803F090
:1018900021071B070A152121150A071B0721D368F9
:1018A000013BD3605DF8044B7047937A03F0030368
:1018B0000029E6D043F00403E3E7D3685DF8044B66
:1018C000023BD3607047D3685DF8044B0233D360AA
:1018D0007047D3685DF8044B0133D360704700BF95
:1018E000F0800220214B10B41A6B136850681978ED
:1018F0000478507A137A044201EA03011BD0937AE8
:1019000003F0030309B143F0040343F00803991003
:10191000013B91720D2B0BD8DFE803F021071B0769
:101920000A152121150A071B0721D368013BD36043
:101930005DF8044B7047937A03F003030029E6D067
:1019400043F00403E3E7D3685DF8044B023BD36044
:101950007047D3685DF8044B0233D3607047D36897
:101960005DF8044B0133D360704700BFF080022064
:10197000214B10B45A6B1368506819780478507A68
:10198000137A044201EA03011BD0937A03F00303A4
:1019900009B143F0040343F008039910013B91722D
:1019A0000D2B0BD8DFE803F021071B070A152121B7
:1019B000150A071B0721D368013BD3605DF8044B70
:1019C0007047937A03F003030029E6D043F0040341
:1019D000E3E7D3685DF8044B023BD3607047D368FC
:1019E0005DF8044B0233D3607047D3685DF8044B55
:1019F0000133D360704700BFF0800220214B10B448
:101A00009A6B1368506819780478507A137A0442F4
:101A100001EA03011BD0937A03F0030309B143F0F9
:101A2000040343F008039910013B91720D2B0BD86E
:101A3000DFE803F021071B070A152121150A071B00
:101A40000721D368013BD3605DF8044B7047937A5C
:101A500003F003030029E6D043F00403E3E7D3686F
:101A60005DF8044B023BD3607047D3685DF8044BCC
:101A70000233D3607047D3685DF8044B0133D36001
:101A8000704700BFF0800220214B10B4DA6B13685E
:101A9000506819780478507A137A044201EA0301F5
:101AA0001BD0937A03F0030309B143F0040343F01E
:101AB00008039910013B91720D2B0BD8DFE803F05E
:101AC00021071B070A152121150A071B0721D368C7
:101AD000013BD3605DF8044B7047937A03F0030336
:101AE0000029E6D043F00403E3E7D3685DF8044B34
:101AF000023BD3607047D3685DF8044B0233D36078
:101B00007047D3685DF8044B0133D360704700BF62
:101B1000F0800220214B10B41A6C136850681978B9
:101B20000478507A137A044201EA03011BD0937AB5
:101B300003F0030309B143F0040343F008039910D1
:101B4000013B91720D2B0BD8DFE803F021071B0737
:101B50000A152121150A071B0721D368013BD36011
:101B60005DF8044B7047937A03F003030029E6D035
:101B700043F00403E3E7D3685DF8044B023BD36012
:101B80007047D3685DF8044B0233D3607047D36865
:101B90005DF8044B0133D360704700BFF080022032
:101BA000214B10B45A6C1368506819780478507A35
:101BB000137A044201EA03011BD0937A03F0030372
:101BC00009B143F0040343F008039910013B9172FB
:101BD0000D2B0BD8DFE803F021071B070A15212185
:101BE000150A071B0721D368013BD3605DF8044B3E
:101BF0007047937A03F003030029E6D043F004030F
:101C0000E3E7D3685DF8044B023BD3607047D368C9
:101C10005DF8044B0233D3607047D3685DF8044B22
:101C20000133D360704700BFF0800220214B10B415
:101C30009A6C1368506819780478507A137A0442C1
:101C400001EA03011BD0937A03F0030309B143F0C7
:101C5000040343F008039910013B91720D2B0BD83C
:101C6000DFE803F021071B070A152121150A071BCE
:101C70000721D368013BD3605DF8044B7047937A2A
:101C800003F003030029E6D043F00403E3E7D3683D
:101C90005DF8044B023BD3607047D3685DF8044B9A
:101CA0000233D3607047D3685DF8044B0133D360CF
:101CB000704700BFF0800220214B10B4DA6C13682B
:101CC000506819780478507A137A044201EA0301C3
:101CD0001BD0937A03F0030309B143F0040343F0EC
:101CE00008039910013B91720D2B0BD8DFE803F02C
:101CF00021071B070A152121150A071B0721D36895
:101D0000013BD3605DF8044B7047937A03F0030303
:101D10000029E6D043F00403E3E7D3685DF8044B01
:101D2000023BD3607047D3685DF8044B0233D36045
:101D30007047D3685DF8044B0133D360704700BF30
:101D4000F0800220214B10B41A6D13685068197886
:101D50000478507A137A044201EA03011BD0937A83
:101D600003F0030309B143F0040343F0080399109F
:101D7000013B91720D2B0BD8DFE803F021071B0705
:101D80000A152121150A071B0721D368013BD360DF
:101D90005DF8044B7047937A03F003030029E6D003
:101DA00043F00403E3E7D3685DF8044B023BD360E0
:101DB0007047D3685DF8044B0233D3607047D36833
:101DC0005DF8044B0133D360704700BFF080022000
:101DD000214B10B45A6D1368506819780478507A02
:101DE000137A044201EA03011BD0937A03F0030340
:101DF00009B143F0040343F008039910013B9172C9
:101E00000D2B0BD8DFE803F021071B070A15212152
:101E1000150A071B0721D368013BD3605DF8044B0B
:101E20007047937A03F003030029E6D043F00403DC
:101E3000E3E7D3685DF8044B023BD3607047D36897
:101E40005DF8044B0233D3607047D3685DF8044BF0
:101E50000133D360704700BFF0800220214B10B4E3
:101E60009A6D1368506819780478507A137A04428E
:101E700001EA03011BD0937A03F0030309B143F095
:101E8000040343F008039910013B91720D2B0BD80A
:101E9000DFE803F021071B070A152121150A071B9C
:101EA0000721D368013BD3605DF8044B7047937AF8
:101EB00003F003030029E6D043F00403E3E7D3680B
:101EC0005DF8044B023BD3607047D3685DF8044B68
:101ED0000233D3607047D3685DF8044B0133D3609D
:101EE000704700BFF0800220214B10B4DA6D1368F8
:101EF000506819780478507A137A044201EA030191
:101F00001BD0937A03F0030309B143F0040343F0B9
:101F100008039910013B91720D2B0BD8DFE803F0F9
:101F200021071B070A152121150A071B0721D36862
:101F3000013BD3605DF8044B7047937A03F00303D1
:101F40000029E6D043F00403E3E7D3685DF8044BCF
:101F5000023BD3607047D3685DF8044B0233D36013
:101F60007047D3685DF8044B0133D360704700BFFE
:101F7000F0800220214B10B41A6E13685068197853
:101F80000478507A137A044201EA03011BD0937A51
:101F900003F0030309B143F0040343F0080399106D
:101FA000013B91720D2B0BD8DFE803F021071B07D3
:101FB0000A152121150A071B0721D368013BD360AD
:101FC0005DF8044B7047937A03F003030029E6D0D1
:101FD00043F00403E3E7D3685DF8044B023BD360AE
:101FE0007047D3685DF8044B0233D3607047D36801
:101FF0005DF8044B0133D360704700BFF0800220CE
:10200000214B10B45A6E1368506819780478507ACE
:10201000137A044201EA03011BD0937A03F003030D
:1020200009B143F0040343F008039910013B917296
:102030000D2B0BD8DFE803F021071B070A15212120
:10204000150A071B0721D368013BD3605DF8044BD9
:102050007047937A03F003030029E6D043F00403AA
:10206000E3E7D3685DF8044B023BD3607047D36865
:102070005DF8044B0233D3607047D3685DF8044BBE
:102080000133D360704700BFF0800220214B10B4B1
:102090009A6E1368506819780478507A137A04425B
:1020A00001EA03011BD0937A03F0030309B143F063
:1020B000040343F008039910013B91720D2B0BD8D8
:1020C000DFE803F021071B070A152121150A071B6A
:1020D0000721D368013BD3605DF8044B7047937AC6
:1020E00003F003030029E6D043F00403E3E7D368D9
:1020F0005DF8044B023BD3607047D3685DF8044B36
:102100000233D3607047D3685DF8044B0133D3606A
:10211000704700BFF0800220214B10B4DA6E1368C4
:10212000506819780478507A137A044201EA03015E
:102130001BD0937A03F0030309B143F0040343F087
:1021400008039910013B91720D2B0BD8DFE803F0C7
:1021500021071B070A152121150A071B0721D36830
:10216000013BD3605DF8044B7047937A03F003039F
:102170000029E6D043F00403E3E7D3685DF8044B9D
:10218000023BD3607047D3685DF8044B0233D360E1
:102190007047D3685DF8044B0133D360704700BFCC
:1021A000F080022070B5044608460D461FF048FD39
:1021B00023680246294620465B68BDE87040184700
:1021C00038B5044608460D461FF03AFD236802461E
:1021D00029465B68204698470546204617F046FB8F
:1021E000284438BD624B634A6349DFF8B8C12DE922
:1021F000F043A3FB0053614C614E1D0C2F1DA4FB4B
:102200000043A2FB00E4A7FB06896409A2FB04E2E9
:10221000C9EB0706DB0A09EB56065209A1FB03E1ED
:10222000B608C2EB0212A4EB8202C6EBC606C4EBF0
:1022300004140909BE1BDFF870E1524FA0EB8400C3
:1022400001EB4101504C3A600136A3EBC101002380
:10225000CEF80060CCF800002160DFF834E14B4F8D
:102260001C4640F26D1864264FF4C87C0DE0C90985
:102270000CFB112100285BD1002914BF42464FF40A
:10228000B77213449D4211D3013404F2B272A7FB1A
:1022900002014809744506FB102002D012F0030F1A
:1022A000E5D040F26D1213449D42EDD2384A3949CF
:1022B00094420C604CD004F2B27291073BD040F2D1
:1022C0006D11324F344EDFF8C8E0A7FB02075B1AEE
:1022D0004FEA571C64204FF4C871FF0900FB1C2C07
:1022E00001FB1727EB1A02F003021F2000210CE06C
:1022F000451CBCF1000F00D15FB9012909D19D42F5
:1023000024D85B1B022116F8010F744501D0002A66
:10231000EED098421AD801310C29A3EB0003F2D178
:102320000D211E481E4A013303601160BDE8F08391
:102330004FF4B772A5E71549A1FB020148096426CD
:1023400006FB102040B14FF4B771BAE70131E8E75E
:1023500040F26D110022B4E7C9094FF4C87000FBC8
:102360001121002940F26D1108BF4FF4B771A8E7A1
:1023700007452EC289888888ABAAAAAAC5B3A291AC
:102380002549922408720220E07502201F85EB5136
:102390004EF8FFFF387B022048700200B460022034
:1023A0006C5E022098530220445E022010B59FED1F
:1023B000070A0446112018F013F8082018F000F856
:1023C00021461120BDE8104017F05ABE001BB74847
:1023D000DFED277A9FED277A80EE270AB4EEC70A51
:1023E000F1EE10FA32D4F6EE007AB4EEE70AF1EE2E
:1023F00010FA12D430EE670ADFED1F7A30EE000AD1
:102400006FF01F0020EE270ABCEEC00A10EE103A53
:10241000C3F3C403184380B2704730EE470ADFEDC0
:10242000176A9FED157AC0EE267A002367EE877A49
:10243000FCEEE77A17EE900AC00000F4FC606FEA49
:1024400040506FEA5050184380B27047C0EE077A90
:1024500000239FED097A67EE877AFCEEE77A17EEA4
:10246000900A000200F4784000B2184380B270472E
:1024700000401C46CDCCCC3D00007F43CDCCCC3EB3
:102480009FED7E7ADFED7E7AE0EE077A84B0F5EE9E
:10249000C07AF1EE10FA00F1DF809FED7A7AF4EE67
:1024A000C77AF1EE10FA00F38980FCEEE77ACDED01
:1024B000017A9DF80420B5EEC00AF1EE10FA40F35F
:1024C0008580DFED717AB4EEE70AF1EE10FA7DD582
:1024D000DFED6E7A60EE277AF5EEC07AF1EE10FA53
:1024E00000F1B8809FED677AF4EEC77AF1EE10FA4A
:1024F0007ADCFCEEE77ACDED017A9DF80430DFED71
:10250000647AB4EEE70AF1EE10FA76D89FED617ABC
:10251000DFED617AE0EE077AF5EEC07AF1EE10FABF
:1025200073D49FED587AF4EEC77AF1EE10FA00F307
:102530009580FCEEE77ACDED017A9DF804109FEDD1
:10254000526AB4EEC60AF1EE10FA29D507EE902AC7
:1025500006EE901AB8EEE77A07EE903AF8EEE66AE1
:10256000F8EEE77A27EE007A67EE807A26EE800AA8
:10257000C7EE066A87EE867AC0EE067AFCEEE66A59
:10258000BCEEC77AFCEEE77ACDED016A8DED027AFA
:10259000CDED037A9DF804209DF808309DF80C10CD
:1025A000120222F4FF60DB0020F0070003F4FC635A
:1025B000034343EAD10080B204B07047B5EEC00ACD
:1025C000F1EE10FA4FF0FF023FF77BAFDFED2E7A0E
:1025D000B4EEE70AF1EE10FA35DBDFED307AB4EE57
:1025E000E70AF1EE10FA2ED8DFED297AB4EEE70A09
:1025F000F1EE10FA4FF0FF0388D908DDDFED287AFD
:10260000B4EEE70AF1EE10FA01D8002197E7DFED0A
:10261000247AB4EEE70AF1EE10FAF6DD9FED217AA6
:10262000DFED217AE0EE077AF5EEC07AF1EE10FAEE
:10263000EBD49FED1E7AF4EEC77AF1EE10FA7FF735
:1026400078AFF0217BE7DFED157AB4EEE70AF1EE23
:1026500010FA05DC002352E700222CE7FF216EE789
:102660009FED137ADFED137AE0EE077AF5EEC07A8C
:10267000F1EE10FA7FF536AFECE700BF3F5B2C3D83
:1026800038A2B7C200007F4300208C4454EF683E5C
:1026900000600845821B76BEE71A034400C8004666
:1026A00000780F465538963EC45F28C50000704339
:1026B000C4E48ABECAAD1B452DE9F0472DED028B5F
:1026C0004FF47A7999FBF1F909F1010982B08A4650
:1026D000B0EE408A364DDFF8E080DFED368A0746FF
:1026E0005FFA89F9002440F2E7362DE094FBF9F017
:1026F00080B200EB400007EB8000D0ED006AD0ED27
:10270000017A90ED027A68EE266A68EE277AFCEE8E
:10271000E66AFCEEE77A16EE903A17EE902A68EE3B
:10272000077A1B02D200FCEEE77A02F4FC6203F4A3
:102730007843134317EE902A0134C2F3C4021343C3
:10274000B44225F8023F2ED0B8F80030642BCDD02B
:1027500007EE903AF8EEE77A87EEA87A17EE100ABD
:102760001DF0FEFC07EE904AF8EEE77ACDE9000195
:1027700087EEA87A17EE100A1DF0F2FC9DED001B03
:1027800041EC100B1AF0E4FF53EC102B5046CDE94E
:1027900000231DF0D3FCDDE900231DF035FD1EF004
:1027A0000BF880B2A5E702B0BDEC028BBDE8F08764
:1027B000FE01FF1F00007A44F0410220FFFFFFFFEF
:1027C0002DE9F0412DED048BCD4B092282B01A701A
:1027D000002840F08180CB4BCB4ACC4FCC4DDFF86A
:1027E0004883DFEDCC8A9FEDCC8A9FEDCC9A1A60AE
:1027F000064604463DE007EE906AB8EEE77AF0EE52
:10280000086AC7EE267AF4EEC87AF1EE10FA61DCB7
:10281000FCEEE77A17EE902A120202F4784211B227
:10282000F2EE046AC7EE267AF4EEC87AF1EE10FAF8
:102830004DDCFCEEE77A17EE902AD20002F4FC623F
:10284000C7EE097A0A4301340A36F4EEC87AF1EE8B
:1028500010FAD7BFFCEEE77A1F2317EE903AC3F3C6
:10286000C403134340F2E732944227F8023F00F0DA
:1028700077812B88B3F57A7FBDD007EE903AF8EEDA
:10288000E77AA8F8003087EEA87A17EE100A1DF054
:1028900067FC07EE904AF8EEE77ACDE9000187EE93
:1028A000A87A17EE100A1DF05BFC9DED001B41ECB1
:1028B000100B1AF04DFF90A3D3E9002351EC100B3D
:1028C0001DF0A2FC1DF098FF07EE100A97E74FF4E9
:1028D000FC62B5E79249A3E7012868D1894B914A88
:1028E0008A4F8B4D9FED8B8ADFED8B8A1A60002615
:1028F00034462EE007EE906AF8EEE77AB5EE007AFD
:1029000067EE877AF4EEE87AF1EE10FA00F39B8036
:10291000FCEEE77ACDED007A9DF800104FEA012336
:1029200000F395804FEAC10203F4784302F4FC629D
:1029300043EA02031BB200F39180CA081343013437
:1029400040F2E732944227F8023F06F10A0600F00F
:1029500007812B88B3F57A7FCCD007EE903AF8EE5A
:10296000E77A714A87EE887A138017EE100A1DF015
:10297000F7FB07EE904AF8EEE77ACDE9000187EE23
:10298000887A17EE100A1DF0EBFB9DED001B41EC61
:10299000100B1AF0DDFE58A3D3E9002351EC100B05
:1029A0001DF032FC1DF028FF07EE900AA6E7022872
:1029B00056D1544B5D4A554F554DDFF86C819FED14
:1029C000558A1A60002634460FE007EE906AB8EE8A
:1029D000E70AFFF755FD013440F2E7339C4206F168
:1029E0000A0627F8020F00F0BB802B88B3F57A7F28
:1029F000EBD007EE903AF8EEE77AA8F8003087EED1
:102A0000887A17EE100A1DF0ABFB07EE904AF8EE3D
:102A1000E77ACDE9000187EE887A17EE100A1DF0FB
:102A20009FFB9DED001B41EC100B1AF091FE32A3B1
:102A3000D3E9002351EC100B1DF0E6FB1DF0DCFE8A
:102A400000EE100AC5E76FF01F031F2276E703F4BC
:102A5000784343F4FC631BB21F226FE71F226DE72C
:102A6000032867D1274B324A284F294DDFF8B88019
:102A70009FED288A1A60002634460EE007EE906A21
:102A8000B8EEE70AFFF7A4FC013440F2E7339C42BA
:102A900006F10A0627F8020F62D02B88B3F57A7F79
:102AA000ECD007EE903AF8EEE77AA8F8003087EE1F
:102AB000887A17EE100A1DF053FB07EE904AF8EEE5
:102AC000E77ACDE9000187EE887A17EE100A1DF04B
:102AD00047FB9DED001B41EC100B1AF039FE06A3DD
:102AE000D3E9002351EC100B1DF08EFB1DF084FE8A
:102AF00000EE100AC6E700BF000000000088C340D7
:102B0000B85D022038570220A8570200FE01FF1FBF
:102B10003E42022000007A4400007F430000204231
:102B200000F8FFFFB0570200F0410220BC5702003E
:102B3000C4570200042818D14D4B4E491A884E48FC
:102B40004E4B08604FF448711980B2F57A7F9FEDC3
:102B50004C0A4C4818BF1A804FF48071FFF7ACFD47
:102B600002B0BDEC048BBDE8F081052818D1404BC4
:102B700040491A884448414B08609FED410A434848
:102B800040F24C411980B2F57A7F4FF4807118BF42
:102B90001A8002B0BDEC048BBDE8F041FFF78CBD9C
:102BA000062818D1324B33491A883948334B08600C
:102BB0009FED330A37484FF461711980B2F57A7F7F
:102BC0004FF4807118BF1A8002B0BDEC048BBDE8D1
:102BD000F041FFF771BD072818D1254B25491A8808
:102BE0002D48264B08609FED260A2C4840F24C41A8
:102BF0001980B2F57A7F4FF4807118BF1A8002B045
:102C0000BDEC048BBDE8F041FFF756BD082816D196
:102C1000174B184A1B8822491160B3F57A7F18BFF9
:102C2000164A204818BF1380B7EE000A4FF480718F
:102C300002B0BDEC048BBDE8F041FFF73DBD0928B3
:102C40008ED10B4B0B4A1B8817491160B3F57A7F65
:102C500018BF0A4A154818BF1380B7EE000A4FF490
:102C6000807102B0BDEC048BBDE8F041FFF724BDDC
:102C70003E42022038570220CC570200F041022089
:102C800000007F4358630200D4570200D8A8030015
:102C9000E057020078C10300E8570200C07002004C
:102CA000F0570200DCB40300FC570200C07C0200B5
:102CB000404B41491A68DFF838C122F400422DE93F
:102CC000F0411A601A683D4E3D4F3E4D3E4CDFF8D4
:102CD0002481DFF824E142F000521A600B683B4A7D
:102CE00043F480730B6000233B7033702B702370B0
:102CF000A4F55334A4F2FF34202188F800308CF876
:102D000000308EF80030B371117022683049DFF85E
:102D1000ECC042F0806222600A68AEF54C3E04F5D9
:102D20004054A7F54B37A6F54B366FF47D78A5F5E3
:102D3000473542F08042AEF1020EA7F57E77464459
:102D4000A5F2FA3508340A60224ACCF80030CEF8F1
:102D500000303B6033602B6023601368A1F51F4196
:102D6000F8391C3218440860136843F004031360F8
:102D700013685B07FCD518F0F9FC174A174E537916
:102D800003F0DF03537117F01DF8154B1548164972
:102D9000164A04250227002437701D7004701B7822
:102DA0000B6823F002030B6013682B43136030BFE2
:102DB000BDE8F0813C80044010D0034001C00740D2
:102DC00000C0074002C0074003C0074008C00740DA
:102DD0000070044000D003400040064000E007407F
:102DE00001E0074002E0074010E000E010ED00E0E5
:102DF00005C0074004C0074006C0074000900440DB
:102E0000002310B4114C41734261046003730361E9
:102E100041B1194600E0426942F82310427B013378
:102E20009A42F8DC0A4B1A680AB90CE01A46936910
:102E3000002BFBD190610023836143608360837327
:102E40005DF8044B70471860F5E700BFC052020000
:102E5000447B022070B5144686B005460E4600221B
:102E6000194BD4E900011DF0CFF91DF07DFC0022C3
:102E7000154B0190D4E902011DF0C6F91DF074FC58
:102E80000022114B0290D4E904011DF0BDF91DF0A0
:102E90006BFC00220C4B0390D4E906011DF0B4F941
:102EA0001DF062FC084B04900022D4E908011DF0DB
:102EB000ABF91DF059FC3146059001AA28460FF0E8
:102EC0002DFF06B070BD00BF0000D04170B51E4D93
:102ED0004B08A5FB0335AD0805EB8504A400C5EB45
:102EE000C505E4B2A1EB4501272C0646CDB227D893
:102EF000132C94BF0022012242F4B8722A2171815E
:102F000030460FF09FFC202145F4807271813046DD
:102F100042EA05120FF096FC07EE905AB8EEE77AF7
:102F200007EE904AF8EEE77AF7EE086AE7EE267ABF
:102F3000064BB1EE087A77EEC77AC3ED007A70BD22
:102F400040F27312DAE700BF93244992C85E022070
:102F5000214BDFED226A93ED006A9FED217A214A31
:102F6000C6EE865A07EE900AF8EEE77A67EEA57A83
:102F7000F4EEC77AF1EE10FAC2ED007A10DDC6EE7B
:102F8000265A1949194BF2EE027AE5EE877A82ED5C
:102F9000007AFDEEE77AC1ED007A154A13627047B8
:102FA000F5EEC07AF1EE10FA12D49FED127AF4EE3B
:102FB000C77AF1EE10FAC8BF4FF00043EDDC9FED89
:102FC0000E7A67EE877AFCEEE77A17EE903AE4E73E
:102FD000074A002313627047685E022000442C47B2
:102FE00000E0AB468C4102207841022000B2B57F60
:102FF000FC5402200044AC46C637BE472DE9F04FD2
:10300000BD4EBE4C33782DED048B022B8DB040F2BB
:103010008B810022BA4BDFEDBB9A9FEDBB9ADFF8A4
:1030200004B3D4E900011DF0EFF81DF09DFB002270
:10303000B34B0790D4E902011DF0E6F81DF094FBB4
:103040000022AF4B0890D4E904011DF0DDF81DF01B
:103050008BFB0022AA4B0990D4E906011DF0D4F89D
:103060001DF082FBA64B0A900022D4E908011DF056
:10307000CBF81DF079FB07AA0B900021A3480FF0B5
:103080004DFE00229E4BD4E900011DF0BDF81DF05D
:103090006BFB00229A4B0790D4E902011DF0B4F8B3
:1030A0001DF062FB0022964B0890D4E904011DF04C
:1030B000ABF81DF059FB0022914B0990D4E90601B1
:1030C0001DF0A2F81DF050FB8D4B0A900022D4E9B0
:1030D00008011DF099F81DF047FB07AA0B9001218C
:1030E0008A480FF01BFE0022854BD4E900011DF039
:1030F0008BF81DF039FB0022814B0790D4E90201C7
:103100001DF082F81DF030FB00227D4B0890D4E9C1
:1031100004011DF079F81DF027FB0022784B09907F
:10312000D4E906011DF070F81DF01EFB744B0A90E7
:103130000022D4E908011DF067F81DF015FB07AA6D
:103140000B90022171480FF0E9FD00226C4BD4E98D
:1031500000011DF059F81DF007FB0022684B079095
:10316000D4E902011DF050F81DF0FEFA0022644B74
:103170000890D4E904011DF047F81DF0F5FA00228B
:103180005F4B0990D4E906011DF03EF81DF0ECFA02
:1031900000225B4B0A90D4E908011DF035F81DF0C0
:1031A000E3FA07AA0B90032158480FF0B7FD4FF040
:1031B000000A9BF800205FFA8AF39A420FD80AF1BE
:1031C000010ABAF1040FF4D1514B00214FF48032BF
:1031D000D9611A620DB0BDEC048BBDE8F08F4D4B88
:1031E0003278D3ED007A89EEA77A4FF47A7303FB35
:1031F00002F307EE903AF8EEE77A67EE877A67EE29
:10320000897A17EE900A1CF0ABFF41EC100B41ECF1
:10321000180B1AF0B9F9404B18688DED020B1CF031
:103220009FFF02460B461CF03DFE9DED020B024641
:103230000B4651EC100B1DF011F9B0EE480AF0EE00
:10324000680A04460D461AF03FF920462946002236
:10325000324B58EC107BCDE904451CF023FE0246AE
:103260000B46002026491DF0F9F8002204460D46C1
:103270002A4B38464146CDE902781CF013FE002265
:103280008946274B009009F100471CF0BDFF2246FC
:103290002B4601971CF0B8FF1DF066FA2246074640
:1032A0002B46DDE9000107971CF0AEFF1DF05CFA2C
:1032B000002208904FF04043DDE9020109971CF01D
:1032C000A3FF22462B461CF09FFF1DF04DFADDE9BF
:1032D00004230A90114900201CF0E2FD22462B46EF
:1032E0001CF092FF1DF040FA07AA0B9051460748C8
:1032F0000FF014FD63E700BF3C420220F8410220BA
:103300000000D04100442C4793651539C855022070
:1033100054510220685E0220744202200000F03FF7
:103320000000E03F7D4102200022694BD4E900010A
:103330001CF06AFF1DF018FA0022654B0790D4E9D3
:1033400002011CF061FF1DF00FFA0022604B089093
:10335000D4E904011CF058FF1DF006FA00225C4B72
:103360000990D4E906011CF04FFF1DF0FDF9584B00
:103370000A900022D4E908011CF046FF1DF0F4F980
:1033800007AA0B90002153480FF0C8FCD4E90001B4
:1033900000224F4B1CF038FF1DF0E6F900224C4B89
:1033A0000790D4E902011CF02FFF1DF0DDF9002287
:1033B000474B0890D4E904011CF026FF1DF0D4F916
:1033C0000022434B0990D4E906011CF01DFF1DF0BB
:1033D000CBF93F4B0A900022D4E908011CF014FFFE
:1033E0001DF0C2F907AA0B9001213A480FF096FC94
:1033F000D4E900010022364B1CF006FF1DF0B4F9A1
:103400000022334B0790D4E902011CF0FDFE1DF0B1
:10341000ABF900222E4B0890D4E904011CF0F4FE15
:103420001DF0A2F900222A4B0990D4E906011CF0F4
:10343000EBFE1DF099F9264B0A900022D4E9080111
:103440001CF0E2FE1DF090F907AA0B900221214822
:103450000FF064FCD4E9000100221D4B1CF0D4FEE7
:103460001DF082F900221A4B0790D4E902011CF0EA
:10347000CBFE1DF079F90022154B0890D4E9040128
:103480001CF0C2FE1DF070F90022114B0990D4E926
:1034900006011CF0B9FE1DF067F90D4B0A900022E1
:1034A000D4E908011CF0B0FE1DF05EF907AA0B90EC
:1034B000032108480FF032FC074B00214FF4803203
:1034C0001962DA610DB0BDEC048BBDE8F08F00BF6E
:1034D0000000D041C85502205451022070B5400070
:1034E000334BDFED346A01FB0001B3FBF1F607EE6D
:1034F000906A314BF8EEE77A01242DED068B1B68BC
:10350000DFED2EAAB0EE409AC7EE809A35462246ED
:103510002346B6EE00AA03E00134B4F5807F38D02C
:1035200007EE904AF8EEE77A67EEA97AF5EEC07AF0
:10353000F1EE10FAACBF77EE8A7A77EECA7ABDEE7A
:10354000E78A07EE905AB8EE677AF8EE487A354483
:10355000C7EE278A79EE688AF0EEE88AF4EEE68A0A
:10356000F1EE10FAD8D518EE101AB1F5805FD3D26B
:10357000134816F07BF9F4EEEA8AF1EE10FA13D94B
:1035800023460134B4F5807FF0EE686A18EE102A05
:10359000C6D1BDEC068B013B1B03013A03F47F232C
:1035A000C2F30B00184370BD234618EE102AF0E753
:1035B0000095BA0A8096184B00F1024000007A4448
:1035C000644402200F4B104A1B68104912680968B6
:1035D00010B5C2F30340C3F30444C3F304630133DF
:1035E00004FB0000C9B21844FFF778FF014638B168
:1035F000074A1368002BFCDB064B0120196010BD45
:1036000010BD00BF14F0024010F0024008F002406C
:1036100000F1024004F1024070B5374B374D1B7882
:103620009FED377ADFED375A374A384E1178384AEE
:103630000401281906EE903AD0ED027A354BF8EEE7
:10364000677AF8EEE66A27EE877A66EEA56A83ED7A
:10365000007A86EE876AC6ED007AFDEEC66A16EE3F
:10366000903A137071B12C4B1B7806EE903AF8EE3D
:10367000E66A66EEA56A86EE876AFDEEC66A16EE13
:10368000903A1370F6EE006A67EEA67A2B19C7EE31
:10369000876A5A68214E22480421FDEEE67A17EE29
:1036A000903A33701EF0A6F81E4B1F4A0121196094
:1036B0001368002BFCDB2C441C49A289E389013AE6
:1036C0001203013B02F47F22C3F30B0313430B608D
:1036D000C82016F069FF164B1868FFF739FC154B28
:1036E00001241C60142016F05FFF134B83F824475D
:1036F000BDE87040FFF782BCCD410220586F020048
:103700000000003B00007A44915C0220685E0220C9
:10371000A478022040420220F3410220485E0220A9
:103720003842022088E100E000F1024004F102404A
:103730007841022008E100E0C469022007EE900A07
:103740009FED0C6ADFED0C6A0C4B0D48B8EEE77A82
:10375000DFED0C7A27EE067A10B5E7EE267A012423
:103760001C60FCEEE77A17EE901A0FF097F8064B04
:103770001C6010BD0AD7233C0000014388E100E033
:103780007C790220EE7CFF3E08E100E010B4036883
:1037900041681A780C78417A037A0C4202EA0302F3
:1037A0001BD0837A03F003030AB143F0040343F010
:1037B00008039A10013B82720D2B0BD8DFE803F04F
:1037C00021071B070A152121150A071B0721C368BA
:1037D000013BC3605DF8044B7047837A03F0030339
:1037E000002AE6D043F00403E3E7C3685DF8044B26
:1037F000023BC3607047C3685DF8044B0233C3608B
:103800007047C3685DF8044B0133C360704700BF65
:1038100008B5034BD3F8E400FFF7B8FF08BD00BFBD
:10382000F080022008B5034BD3F8E000FFF7AEFFAD
:1038300008BD00BFF080022008B5034BD3F8DC00C0
:10384000FFF7A4FF08BD00BFF080022008B5034BBE
:10385000D3F8D800FFF79AFF08BD00BFF080022020
:1038600008B5034BD3F8D400FFF790FF08BD00BFA5
:10387000F080022008B5034BD3F8D000FFF786FF95
:1038800008BD00BFF080022008B5034BD3F8CC0080
:10389000FFF77CFF08BD00BFF080022008B5034B96
:1038A000D3F8C800FFF772FF08BD00BFF080022008
:1038B00008B5034BD3F8C400FFF768FF08BD00BF8D
:1038C000F080022008B5034BD3F8C000FFF75EFF7D
:1038D00008BD00BFF080022008B5034BD3F8BC0040
:1038E000FFF754FF08BD00BFF080022008B5034B6E
:1038F000D3F8B800FFF74AFF08BD00BFF0800220F0
:1039000008B5034BD3F8B400FFF740FF08BD00BF74
:10391000F080022008B5034BD3F8B000FFF736FF64
:1039200008BD00BFF080022008B5034BD3F8AC00FF
:10393000FFF72CFF08BD00BFF080022008B5034B45
:10394000D3F8A800FFF722FF08BD00BFF0800220D7
:1039500008B5034BD3F8A400FFF718FF08BD00BF5C
:10396000F080022008B5034BD3F8A000FFF70EFF4C
:1039700008BD00BFF080022008B5034BD3F89C00BF
:10398000FFF704FF08BD00BFF080022008B5034B1D
:10399000D3F89800FFF7FAFE08BD00BFF0800220C0
:1039A00008B5034BD3F89400FFF7F0FE08BD00BF45
:1039B000F080022008B5034BD3F89000FFF7E6FE35
:1039C00008BD00BFF080022008B5034BD3F88C007F
:1039D000FFF7DCFE08BD00BFF080022008B5034BF6
:1039E000D3F88800FFF7D2FE08BD00BFF0800220A8
:1039F00008B5034BD3F88400FFF7C8FE08BD00BF2D
:103A0000F080022008B5034BD3F88000FFF7BEFE1C
:103A100008BD00BFF080022008B5024BD86FFFF749
:103A2000B5FE08BDF080022008B5024B986FFFF785
:103A3000ADFE08BDF080022008B5024B586FFFF7BD
:103A4000A5FE08BDF080022008B5024B186FFFF7F5
:103A50009DFE08BDF080022008B50B463B2800F211
:103A6000C682DFE810F0BB02B202A902A0029702F0
:103A70008E0285027C0273026A02610258024F02C2
:103A800046023D0234022B022202190210020702F2
:103A9000AE01A5019C0193018A01810178016F01AA
:103AA00066015D0154014A01400136012C012201E9
:103AB00018010E010401FA00F000E600DC00D2005B
:103AC000C800BE00B400AA00A00096008C008200CE
:103AD00078006E0064005A00500046003C00BD4A69
:103AE000BD49C2F8EC303B20042216F035FA012023
:103AF00008BDB84AB949C2F8E8303A20042216F0A5
:103B00002BFA012008BDB34AB549C2F8E430392088
:103B1000042216F021FA012008BDAE4AB149C2F8CC
:103B2000E0303820042216F017FA012008BDA94A17
:103B3000AD49C2F8DC303720042216F00DFA01201E
:103B400008BDA44AA949C2F8D8303620042216F08C
:103B500003FA012008BD9F4AA549C2F8D430352098
:103B6000042216F0F9F9012008BD9A4AA149C2F8C9
:103B7000D0303420042216F0EFF9012008BD954A18
:103B80009D49C2F8CC303320042216F0E5F901201B
:103B900008BD904A9949C2F8C8303220042216F074
:103BA000DBF9012008BD8B4A9549C2F8C4303120A9
:103BB000042216F0D1F9012008BD864A9149C2F8C5
:103BC000C0303020042216F0C7F9012008BD814A18
:103BD0008D49C2F8BC302F20042216F0BDF9012017
:103BE00008BD7C4A8949C2F8B8302E20042216F05C
:103BF000B3F9012008BD774A8549C2F8B4302D20B9
:103C0000042216F0A9F9012008BD724A8149C2F8C0
:103C1000B0302C20042216F09FF9012008BD6D4A17
:103C20007D49C2F8AC302B20042216F095F9012012
:103C300008BD684A7949C2F8A8302A20042216F043
:103C40008BF9012008BD634A7549C2F8A4302920C8
:103C5000042216F081F9012008BD5E4A7149C2F8BC
:103C6000A0302820042216F077F9012008BD594A17
:103C70006D49C2F89C302720042216F06DF901200E
:103C800008BD544A6949C2F898302620042216F02B
:103C900063F9012008BD4F4A6549C2F894302520D8
:103CA000042216F059F9012008BD4A4A6149C2F8B8
:103CB00090302420042216F04FF9012008BD454A17
:103CC0005D49C2F88C302320042216F045F901200A
:103CD00008BD404A5949C2F888302220042216F013
:103CE0003BF9012008BD3B4A5549C2F884302120E8
:103CF000042216F031F9012008BD364A5149C2F8B4
:103D000080302020042216F027F9012008BD314A16
:103D10004D49D3671F20042216F01EF9012008BD6B
:103D20002C4A4A4993671E20042216F015F90120F7
:103D300008BD284A464953671D20042216F00CF995
:103D4000012008BD234A434913671C20042216F0B2
:103D500003F9012008BD1F4A3F49D3661B200422F6
:103D600016F0FAF8012008BD1A4A3C4993661A2059
:103D7000042216F0F1F8012008BD164A38495366AE
:103D80001920042216F0E8F8012008BD114A35492F
:103D900013661820042216F0DFF8012008BD0D4A32
:103DA0003149D3651720042216F0D6F8012008BD4A
:103DB000084A2E4993651620042216F0CDF80120FA
:103DC00008BD044A2A4953651520042216F0C4F898
:103DD000012008BDF0800220C91100003D11000043
:103DE0001138000025380000393800004D38000037
:103DF0006138000075380000893800009D380000E7
:103E0000B1380000C5380000D9380000ED38000096
:103E10000139000015390000293900003D39000042
:103E20005139000065390000793900008D390000F2
:103E3000A1390000B5390000C9390000DD390000A2
:103E4000F1390000053A0000193A0000293A000053
:103E5000393A0000493A0000192100008D20000085
:103E600001200000751F0000E91E00005D1E00001B
:103E7000D11D00005F4A604913651420042216F02A
:103E80006BF8012008BD5B4A5C49D364132004220F
:103E900016F062F8012008BD564A59499364122071
:103EA000042216F059F8012008BD524A55495364BE
:103EB0001120042216F050F8012008BD4D4A524945
:103EC00013641020042216F047F8012008BD494A67
:103ED0004E49D3630F20042216F03EF8012008BD9E
:103EE000444A4B4993630E20042216F035F8012012
:103EF00008BD404A474953630D20042216F02CF8B0
:103F0000012008BD3B4A444913630C20042216F0EB
:103F100023F8012008BD374A4049D3620B20042210
:103F200016F01AF8012008BD324A3D4993620A2072
:103F3000042216F011F8012008BD2E4A39495362B7
:103F40000920042216F008F8012008BD294A364944
:103F500013620820042215F0FFFF012008BD254A46
:103F60003249D3610720042215F0F6FF012008BD75
:103F7000204A2F4993610620042215F0EDFF01200D
:103F800008BD1C4A2B4953610520042215F0E4FFAB
:103F9000012008BD174A284913610422104615F074
:103FA000DBFF012008BD134A2449D360032004220B
:103FB00015F0D2FF012008BD0E4A2149936002206E
:103FC000042215F0C9FF012008BD0A4A1D495360AB
:103FD0000120042215F0C0FF012008BD054A1A493E
:103FE00013600020042215F0B7FF012008BD002057
:103FF00008BD00BFF0800220451D0000B91C000074
:104000002D1C0000A11B0000151B0000891A0000D8
:10401000FD19000071190000E51800005918000092
:10402000CD17000041170000B5160000291600004A
:104030009D1500001115000085140000F913000003
:104040006D130000E112000055120000F8B504469F
:1040500015460E460846022116F07CFA2846022133
:1040600016F078FA164A174B52F83610012001F56F
:1040700000772760207252F83520607202F50077D1
:1040800000206760E060013BFDD191F8003292F8BA
:10409000002203F00103D20744BF43F00203DBB266
:1040A000A37221463046FFF7D7FC214620742846EC
:1040B000FFF7D2FC237C184420742046F8BD00BFD3
:1040C00060020400C0D401002DE9F0412DED048B05
:1040D0006F48704990F800E06F4C704E704A714B19
:1040E000714F724D3F7803C9206096E80300A060CD
:1040F00092E80300E06093E8070004F1140303C3AF
:1041000095E8030023F8022BF821022F4FEA124210
:104110004FF01005616008BF0027D421BEF1010FE8
:104120001A708EB025616062A1625ED0604B186823
:104130001CF016F804AECDE900015E4A2821304695
:104140001DF058FB3146054604F12C001DF016FD0C
:104150002C35594BDFF840810FCBB646AEE807004F
:104160000D228EF800303146601915F00FFD3B46E8
:10417000524A282130461DF03DFB0C35074631469A
:1041800060191DF0FBFC4E4B1B783D44FBB14D4BC1
:104190004D4A1B78282130461DF02CFB314607463E
:1041A00008EB05001DF0EAFC484B494A1B7803EB7D
:1041B000830303EB8303282130461DF01BFB3D44A2
:1041C0003146074608EB05001DF0D8FC3D4420238E
:1041D000314660190222ADF8103015F0D7FC2E4898
:1041E0000EB0BDEC048BBDE8F0813A4B3A4E1B7823
:1041F0003A495A08A6FB02029208C2EBC200A3EB9E
:104200004003DBB207EE103A07EE902AB8EEC77A09
:10421000B7EE089AF8EEE76A27EE097AF3EE048A19
:10422000A6EEA87A0D78B1EE088A77EE487A17EEF6
:10423000900A1BF095FF6B08A6FB03239B08C3EBBA
:10424000C302A5EB4205EAB207EE902A07EE103A48
:10425000F8EEE77AB8EEC77A67EE897ACDE902011F
:10426000E7EE287A04AE77EEC87A17EE900A1BF0D4
:1042700077FF1B4ACDE90001304628211DF0BAFA2C
:104280003146054604F12C002C351DF077FC60E723
:10429000AC69022008580200347A0220105802004B
:1042A00018580200205802003C4202202C580200FC
:1042B000C85E02204C5802005C5802006C58020094
:1042C000915C0220F341022080580200CE4102207E
:1042D000905802000B7102209324499265420220FB
:1042E000345802003E4B93E80300F0B53D4D3E4E7E
:1042F00028600FCE8DB002AC0FC4D6F800E0C4F831
:1043000000E002AE0FCE394F05F108060FC60FCF01
:10431000C6F800E04FF4FC7C3F68C5F804C002AE6C
:104320000FC602A9277005F11B001DF027FC304ABB
:10433000304B02A828211DF05DFA02A9044605F1C0
:104340002B001DF01BFC2C4B18681BF009FF2B4A9F
:10435000CDE9000102A828211DF04CFA2B340646B5
:1043600002A928191DF00AFC254B264A1B78022BAE
:1043700008BF002302A828211DF03CFA344402A9FA
:10438000064628191DF0FAFB1F4A204B1168204AE7
:1043900003EB011302A89B6828211DF02BFA34447B
:1043A000034602A928191C441DF0E8FB194B1A4AC0
:1043B00002A828211DF01EFA02A9064628191DF0A0
:1043C000DDFB164B164A02A828211DF013FA3019FE
:1043D00002A928441DF0D2FB28460DB0F0BD00BF55
:1043E000A05802009C760220A8580200BC58020087
:1043F000DC580200D0580200C85E0220F4580200C7
:104400003C42022008590200D0410220586F0200AD
:104410001C590200FC5B022030590200C85B0220DC
:104420004C5902001A4A1B491B4BF0B5D2F800E068
:104430001A4F1B4E1B4D1C4C024603C9186097E8CF
:104440000300986096E80300D86095E803001749D8
:10445000586204EB0E1403C9A468C3F8A400AC3A74
:1044600022F0010000F5697E10210122670002267A
:104470007825C3F8A800C3F804E09C61DF611E84BE
:104480009D62196159849A82DA821846F0BD00BF94
:10449000D041022060590200587102206859020080
:1044A0007059020078590200586F020080590200CA
:1044B00070B5A2B0664B0093664A674B67485021BF
:1044C0001DF098F9002302A8644A65490CF0B4F97C
:1044D000149B002B00F0B280682015F0A7FC044666
:1044E0004FF47A759DF80C00049A9DF814305D49DC
:1044F000A5605D4E207600256161E26106A984F821
:104500002030266025712573256104F124000CF00C
:104510000FF82369554A6261013323616566544B84
:10452000029306A80CF032F823680095596B00221C
:10453000002320468847236820469B6A242202A93C
:1045400098479DF821509DF820309DF8222003EBDC
:10455000052313EB024547D09DF80D609DF80C2014
:104560009DF80E309DF80F009FED427A424902EB14
:10457000062202EB034303EB0063A3F5697307EE26
:10458000903AF8EE677A67EE877A07EE105AF8EEFF
:10459000C76A87EEA67ABCEEC77A81ED007A3CB393
:1045A0002368042202A99B6A2046984704223349C3
:1045B00002A81CF02DFE30B3314B002103F178022C
:1045C00003F8011F9A42FBD15CB1236820461B6CA3
:1045D00098472369013B23611BB9236820461B6A66
:1045E0009847284622B070BD234B1D60002CD7D1C0
:1045F00002A8042221491CF00BFE0028DCD1214B2B
:1046000001221A700EE01F4A2368012111709B6A73
:10461000042202A920469847236802A99B6A7822AF
:1046200020469847164B0DF1070203F1780012F867
:10463000011F03F8011F9842F9D1C5E7159C002C12
:104640007FF44AAF0A4B029306A80BF09FFF78E76E
:10465000945C0220885902005C5D02200051022017
:10466000E07B02209C52020074530200F0520200D0
:10467000CC5202000000FA43A878022078590200C8
:10468000BB5D022014720220F0B5444D296891B040
:10469000064621B10023424A42480BF0C1FF424C7A
:1046A00040490023324604F110000BF0F9FF3F4966
:1046B000A06C00230B70002869D050220BF0A6F8E4
:1046C0003B480BF063FF37480BF060FF296821B1CE
:1046D0000023364A33480BF0A3FF334F002519E07F
:1046E0000BF094F83349684615F072F9324904A882
:1046F00015F06EF904A9684615F07EF910B304A808
:1047000015F026F9684615F023F90135ADB22848B1
:104710000BF03CFF0022234925480BF0F7FF254B07
:1047200000265022194648B3BC6C1E702046002C4F
:10473000D6D1FC6C502219462046002CD2D008F06D
:10474000B5FCCFE71B4908A815F042F91B490CA896
:1047500015F03EF90CA908A815F04EF904460CA86E
:1047600015F0F6F808A815F0F3F804A815F0F0F81D
:10477000684615F0EDF8002CC9D0C6E70C480BF0E0
:1047800005FF08480BF002FF284611B0F0BDE06CB1
:10479000002895D0502208F089FC91E7847B022004
:1047A00090590200BC790220AC54022084560220A9
:1047B000BC540220945C0220945902009C590200CF
:1047C000F0B5594D296891B0064621B10023574AEA
:1047D00057480BF025FF574C55490023324604F14A
:1047E00010000BF05DFF5449A06C00230B700028F3
:1047F00000F08E8050220BF009F850480BF0C6FEF6
:104800004B480BF0C3FE296821B100234A4A4848AF
:104810000BF006FF4A4EB06C10B100210AF012FDF9
:10482000F06C18B10022002308F0FAFD454D414C10
:1048300000232B802EE050220AF0E8FF4249684610
:1048400015F0C6F8414904A815F0C2F804A9684655
:1048500015F0D2F8002830D004A815F079F8684691
:1048600015F076F8B36C2A883549002B49D05B697E
:104870005B09013B9BB2364940F2E63001EB420155
:10488000824298BF0132A1F8DC3798BF2A802B48BA
:104890000BF07CFE0022264928480BF037FF40B37E
:1048A0002949A06C00230B700028C4D1E06C0028BB
:1048B000C4D0502208F0FAFBC0E7234908A815F03D
:1048C00087F824490CA815F083F80CA908A815F05E
:1048D00093F807460CA815F03BF808A815F038F82F
:1048E00004A815F035F8684615F032F8002FCED040
:1048F000B8E712480BF04AFE0D480BF047FE11B026
:10490000F0BDCB6C63B11B685B09013B9BB2B2E7A6
:10491000E06C00283FF471AF502208F0C7FB6CE751
:104920004FF6FF73A7E700BF847B02209059020077
:10493000BC790220AC54022084560220BC540220D0
:10494000AC7902207C560220945C0220945902002B
:104950000002FF1F9C59020038B5054616480BF0AF
:1049600015FE164B196821B10023154A12480BF0A9
:1049700057FE144C104900232A4604F110000BF096
:104980008FFE1149A06C00230B7068B150220AF011
:104990003DFF09480BF0FAFD0C4B1B781BB9FFF7E4
:1049A00087FD0B4B186038BDE06C0028F1D0502219
:1049B00008F07CFBEDE700BFBC790220847B02207D
:1049C0005C5D0220AC540220945C022054790220E9
:1049D0008C7602202DE9F04F7B487C4E97B00BF08F
:1049E000D5FD7B480BF0D2FD316821B10023794A17
:1049F00077480BF015FE784DA86C10B100210AF035
:104A000021FCE86C18B10022002308F009FDDFF852
:104A1000DCA1DFF8D4810023AAF80030444600224C
:104A20006B4969480BF072FE0746002842D06B497B
:104A3000A06C00230B7040B350220AF0E7FED8F8B8
:104A4000483063B31B7813F0700F14BF01230023A9
:104A5000BBB1AB6CBAF800205F49002B00F0AA8014
:104A60005B695B09013B9BB25D4940F2E63001EBBB
:104A70004201824298BF0132A1F8AC3F98BFAAF828
:104A8000002051480BF082FDC9E7E06C0028F8D007
:104A9000502208F00BFBD8F84830002BD2D1E36C41
:104AA000002BEED093F8313013F0500F14BF0123D8
:104AB0000023CDE744480BF069FD45480BF066FD47
:104AC000316821B13B46434A41480BF0A9FDBAF891
:104AD0000030012B65DD4FF001094F46002F58D003
:104AE00000273D46CDF804903E4C2FE050220AF0BE
:104AF0008DFE35480BF04AFD002334F8022F34496F
:104B000031480BF0CDFDD8F84800002301358DF871
:104B10000830002833D002AE314650220AF076FE2B
:104B200029480BF033FD2D481CF042F883463046EF
:104B30001CF03EF8834507DD34F8023C228824F857
:104B4000022C0137BFB22380BAF80030C9EB030250
:104B5000954220DA00231E4922881B480BF0A0FD55
:104B60001E49D8F8480000230B700028BED11E4B08
:104B7000D86C0028BDD0502208F098FAB9E71A4B3B
:104B8000D86C02AE0028CBD03146502208F08EFA05
:104B9000C6E7CDF8049001995A1E8A4209F101092D
:104BA0009CDC09480BF0F2FC09480BF0EFFC17B055
:104BB000BDE8F08FCB6C23B11B685B09013B9BB256
:104BC00052E74FF6FF734FE7BC540220847B02206C
:104BD000BC79022090590200AC7902208456022050
:104BE0000002FF1FAC11FF1FAC54022090510220A5
:104BF0002DE9F04F5D4FBB6C95B0002B00F0A78006
:104C00005B480BF0C3FC5B4B5B4E18685B4D5C4C28
:104C1000DFF8A8B1DFF8A8A1DFF8A891DFF8A88134
:104C2000FDF7E0FA336822682968019103F2B27354
:104C300000925021534A54481CF0DCFD336822682E
:104C40002968DBF8000001910092DAF80010D9F829
:104C50000020049003F2B2730391029250214B4A58
:104C60004B481CF0C7FD4A4A4A4850211CF0C2FD7F
:104C700033682A682468DAF80000D9F80010DBF8F5
:104C800000600390029101921421049603F2B27322
:104C90000094414A41481CF0ADFDD8F8001021B104
:104CA00000233F4A3F480BF0BBFC3F4D364A3F488C
:104CB00005F1100101230BF07DFC0446E8B13C49ED
:104CC000344B009301240C702F4B3A4A304850214A
:104CD0001CF090FDD8F8001029B140F201232C4AB5
:104CE00023480BF09DFCB86C204B002834D032498F
:104CF0000AF08EF815B0BDE8F08FAE6CB6B1034681
:104D00008DF818003146204A8DF8194006A88DF814
:104D10001A400AF00FF80028DCD01E4B0093254AF9
:104D2000194B1B4850211CF065FDD3E7E96C0029A5
:104D3000D0D03346144A8DF8496006A88DF84A60F1
:104D40008DF84B6008F0DAFD0028C3D0E5E7FB6C76
:104D5000002B7FF455AF56E7D86C0028CAD0164A0E
:104D6000002309F03DF915B0BDE8F08FAC540220E6
:104D7000BC54022000D00340387B0220B4600220E3
:104D80006C5E0220A459020004760220B45902008D
:104D9000945C0220FC5B0220D4590200C85B022014
:104DA000905902008855022078550220BC790220D3
:104DB00094760220F4590200C0E1E40098530220E6
:104DC00008720220E0750220847B02202DE9F04168
:104DD000A74F3D68C5F35115ADF5856D002D00F069
:104DE0003381A44CA44E04EB8535B04605E00AF0AF
:104DF000C3FB04F58044AC4214D0B36C4FF4804242
:104E000021461846002BF2D1D8F84C3021464FF4F9
:104E100080421846002BECD004F5804409F0E2F9FA
:104E2000AC42EAD10023944D3B6004E00AF0A4FBBD
:104E3000924814F071FB914814F024FB00288F482D
:104E400013DD14F04DFBB36C044601464FF4807241
:104E50001846002BEAD1EB6C4FF4807221461846BD
:104E6000002BE5D009F0BEF9E2E7B06C824B0028D8
:104E700000F0A0800AF044FBB06C7F4B002800F0EB
:104E8000EE8000210AF0DEF9B36C7B4A002B00F0C3
:104E9000D080DF6900253C463846FFF7C3FAAC22D4
:104EA00001461FA814F072FEB06C734B002800F08E
:104EB000B78000210AF0C6F9B06C6F4B002800F0F3
:104EC000A6801FA9AC220AF057FBB06C6A4B0028E1
:104ED00000F0BC802C210AF0B5F9694A9FED697A8F
:104EE00002F5F070134653F8041F07EE901AF8EE1F
:104EF000677AF4EE477AF1EE10FAC8BFB0EE677A3F
:104F00009842F0D1B5EE407AF1EE10FA1CBFF7EE00
:104F1000007A87EE877A0DF10301DFED5B6A52F8C4
:104F2000043F07EE903AF8EE677A904267EE877A90
:104F300067EEA67AFCEEE77A17EE903A01F8013FA9
:104F4000EDD1B06C4C4B002852D0782201A90AF068
:104F500013FBB06C484B002855D1D86C18B12246D1
:104F60002B4608F05DFAFFF7AFF84FF48072014668
:104F70004AA814F00BFEB06C3F4B80B34AA94FF423
:104F800080720AF0F9FAFFF7ADF94FF400720146AA
:104F90008AA814F0FBFDB06C374B88B18AA94FF496
:104FA00000720AF0E9FA39480BF0F0FA0DF5856D58
:104FB000BDE8F081D86C002842D009F0A1F85BE789
:104FC000D86C0028EFD08AA94FF4007209F00AF9D2
:104FD0002E480BF0DBFA0DF5856DBDE8F081D86C3D
:104FE0000028D0D04AA94FF4807209F0FBF8CAE734
:104FF000D86C0028B7D0782201A909F0F3F8B06C7A
:105000001D4B0028A9D039460AF01CF9ABE7D86C33
:1050100000283FF462AF1FA9AC2209F0E3F854E77F
:10502000D86C00283FF459AF0022002308F0F8F9AB
:1050300042E7D76C2FB1D7E90445002527462BE777
:1050400007460024002527E70B4EEBE6D86C002826
:105050003FF443AF2C22002308F0E2F93DE7D86C7F
:105060000028EDD00022002308F0DAF90CE700BF99
:10507000FC7502208019FF1FAC54022074580220D6
:10508000905102200000000000004843BC54022060
:105090002DE9F0433B4EC1B0374619E0DFF8F08010
:1050A00000253368384805EB430308EB032414F06C
:1050B00017FA4FF480720146204614F067FD01355F
:1050C000314814F029FA022DEBD13B6801333B60E3
:1050D0002D4814F0D7F90128E0DC3368BF2B4ED9F6
:1050E000DFF8AC80294D444608F5C037A94605E0F5
:1050F0000AF042FA04F58044BC4214D0AB6C4FF481
:10510000804221461846002BF2D1D9F84C30214676
:105110004FF480421846002BECD004F5804409F08F
:1051200061F8BC42EAD10025294668464FF48072F6
:1051300035601CF003F9144808EB052414F0A2F9BB
:10514000D8B1114814F0CCF94FF4807201462046D2
:1051500014F01CFD0C4814F0DFF921464FF4807266
:1051600068461CF055F80028E5D00135064808EBE4
:10517000052414F087F90028E3D16D08356041B0AB
:10518000BDE8F083FC75022074580220AC54022064
:105190008019FF1F2DE9F043DFF880C1584A9CF8C1
:1051A000003000251570002B00F08F805F1EFFB2CD
:1051B000544A554B92F800E0DFF86481013707EB61
:1051C000470703EB870703F10804BEF1000F5BD02C
:1051D000197A05EB4506A4F1080208EB860605F1ED
:1051E000010921B107CA86E807005FFA89F50C3387
:1051F000BB4204F10C04E8D1444E8CF800503778DF
:10520000A7B17D1EEDB2013505EB4505DFF8F8C00D
:10521000DFF810E1AD0000230CEB030207CA0EEB30
:1052200003040C33AB4284E80700F5D1384B394A0C
:10523000377009200D24062158709E4699701E462D
:105240001C70DC70344DDFF8E090DFF8E080DFF8B0
:10525000E0C00423137000206CB301220027C1B208
:10526000531EDBB203EB430388B301293ED002296E
:1052700036D005EB83031B7A0BB10137FFB2A24294
:105280003AD20132D2B2EBE714F8082CA2F1640151
:105290000129ACD9672AAAD0197A05EB4506A4F1F1
:1052A000080208EB86060029A1D007CA013586E866
:1052B0000700EDB29BE7274601300428377002D083
:1052C00016F8014FC8E7BDE8F0831D4694E70CEBE4
:1052D00083031B7A0BB10137FFB2A242D1D3EBE7B4
:1052E00009EB83031B7A002BF7D0F4E708EB830369
:1052F0001B7A002BF1D0EEE70EF80070BDE8F083CA
:10530000C45E02208A570220DCC003007C410220D8
:105310008C570220D4410220A0A703005C42022047
:10532000AC7802202455022064540200547002001C
:105330003CA80300FFFFFFFF30B5044B1B68044689
:1053400083B018460D46FCF74DFF01E000D0034046
:10535000FF2C00F21B81DFE814F0110306030403A5
:10536000F9022003140319012803F002CA021901EB
:105370001901BF02190119011901190119011901B6
:10538000190119011901190119011901190119014D
:10539000190119011901190119011901190119013D
:1053A000190119011901190119011901190119012D
:1053B000190119011901190119011901190119011D
:1053C000190119011901190119011901190119010D
:1053D00019011901190119011901190119011901FD
:1053E00019011901190119011901190119011901ED
:1053F00019011901190119011901190119011901DD
:1054000019011901190119011901190119011901CC
:1054100019011901190119011901190119011901BC
:105420001901BD02BB02480219011901400219010C
:10543000190119011901190119011901190119019C
:1054400019011901190119011901370235022A023E
:10545000190119011901190119011901190119017C
:10546000190119011901190119011901190119016C
:10547000190119011901190119011901190119015C
:105480001901190119011E021C0212020A02FE0171
:10549000DD01DB01D601C001BC01B301B1019F01F7
:1054A000190119011901190119011901190119012C
:1054B000190119011901190119011901190119011C
:1054C000190119011901190119011901190119010C
:1054D00019011901190119011901190119011901FC
:1054E0001901190119011901190119018C016D0125
:1054F00059011901190119011901190152014A0132
:10550000420165013A012E01190119011901190120
:1055100019012C0124011C0119011901190119019A
:1055200019011901190119011901190119011901AB
:10553000190119011901190119011901190119019B
:10554000190119011901190119011901190119018B
:1055500019011901190119010001032D00F231820D
:10556000A34BA44853F8252014211CF043F9A24B67
:105570001B78AB420AD1A14B1B78002B40F0618213
:105580009F4D9C4C0FCD0FC42B682360994803B0EE
:1055900030BD9C4B9C4A1B88964814211CF02AF96C
:1055A000F4E79A4B9A4A1B68924814211CF022F99E
:1055B000ECE7984BF6E7984B1B78002B40F0858082
:1055C000964B8C4A1B6813801B0C9370DEE7944B40
:1055D000944A1B78874814211CF00CF9D6E7924BAB
:1055E000904A5B68834814211CF004F9CEE78E4B87
:1055F0008C4A1B687F4814211CF0FCF8C6E78B4BD3
:105600007C4819680C221CF0D9FBBFE7884B93F942
:105610000030012B00F0F881864A764B07CA03C39D
:105620001A70B3E7804B7F4A9B68724814211CF0C4
:10563000E1F8ABE7804B814C1868FCF7D3FD94F997
:105640000030002B00F0CE81012B00F0E881022B0E
:105650009CD17B4B7B497C4A1B680968126800928D
:10566000019103F2B273794A624814211CF0C2F826
:105670008CE7724C94F90030002B00F0A681002BCF
:1056800084DD734A734B12681B685A4800921421D8
:10569000714A1CF0AFF879E7704A1188704B714A73
:1056A0005448A3FB01435B09C3EB0314A1EB840142
:1056B00089B2009114211CF09DF867E76A4AECE773
:1056C0006A4B1B78012B3FF47BAF4A4B684A1A6048
:1056D0005CE7484B20221A8058E7664B1878002870
:1056E000F3D007EE900AFAEEEF7A17EE900A1AF06E
:1056F00037FD614ACDE9000114213E481CF07AF8DB
:105700003C4803B030BD5D4B1B78002BDDD057E724
:105710005B4B5DE75B4B1B785B495A08A1FB0212B0
:105720009208C2EBC201A3EB4103DBB207EE903A51
:10573000F8EEE77AB7EE087A67EE877A07EE102A76
:10574000B8EEC77AF3EE046AE7EE267AB1EE087A8D
:1057500077EEC77AC9E74D4B4D4A1B78254803EBD6
:10576000830303EB830314211CF044F80EE7494B39
:10577000494A1B781F4814211CF03CF806E7474BA8
:105780001B78284A1B4803EB830314211CF032F8D2
:10579000FCE6434BF4E7434A1168434B434A154840
:1057A00003EB011314215B681CF024F8EEE6404B78
:1057B0001B889FED407A07EE903AF8EEE77A67EEA5
:1057C000877A92E73C4BF3E73C4B1B78002B3FF486
:1057D0007CAF084B3A4A1A60D8E63A4B3A4A1B78F3
:1057E000044814211CF006F8D0E6384BF0E600BF60
:1057F000B841022070760220204202208A570220FF
:10580000B05A02007C560220AC5A02008056022098
:10581000A45A020010720220DC4102208C5A0200BD
:10582000B0410220185A02006C7902203857022039
:10583000B1410220985A020000D00340405E02208D
:10584000387B0220B46002206C5E02206C5A020099
:1058500008720220E0750220705A0200967602203B
:1058600089888888E859020008710220A857022018
:105870004F4646008B5702207C5A02007E5602207B
:10588000904102200076022093244992CE410220CA
:10589000345A0200F34102200C5A0200CC4102208B
:1058A000F241022028420220586F0200F8590200FB
:1058B000CA410220CDCCCC3D68420220AC69022016
:1058C0004F4E200025420220205A02007042022042
:1058D000634B83E7634B4BE7634B1B68012B40F340
:1058E0009C80624A624814211BF084FF4EE6614BA3
:1058F0001B78002B5BD1604B9FED607A93F90030F1
:1059000007EE903AF8EEE77A67EE877A17EE900A9C
:105910001AF026FC41EC100B17F096FE4EA3D3E9CB
:10592000002351EC100B1AF06FFC554ACDE9000131
:1059300014214F481BF05EFF28E6524B524A93F960
:1059400000304B4814211BF055FF1FE64F4B1B78CE
:10595000022B7FF6BAAE4E4A454814211BF04AFF8F
:1059600014E64C4A18E74C4A4C4B1168404853F82F
:1059700021304B4A14211BF03DFF07E6494A4A4BB0
:10598000F3E74A4B18681AF0EBFB494ACDE90001EE
:10599000142137481BF02EFFF8E5464B464A1B788A
:1059A000334814211BF026FFF0E5444BB3E603EB2C
:1059B000830303EB8303424A2D4814211BF01AFF93
:1059C000E4E52B4B3F4A1A60D1E53F4A3F4B126852
:1059D0001B682748009214213D4A1BF00BFF94F9E5
:1059E00000304CE63B4B3C493C4A1B680968126856
:1059F0000092019103F2B273394A1D4814211BF041
:105A0000F9FE94F900301FE6364A194B92E803007C
:105A10000A0C186099809A71B8E5334AF5E72D4B66
:105A20002D492E4A1B68096812680092019103F201
:105A3000B2732E4A0E4814211BF0DCFE94F900309C
:105A400005E62B4B0A4C0FCB07C424F8023B1B0C7A
:105A500023709BE5AFF3008000000020AEC7274015
:105A600080420220CD410220804102203C5A0200A7
:105A70007076022023420220187A0220CFF7D33D0D
:105A8000285A0200C8410220185A02003C42022053
:105A90000C5A0200D04102206042022094410220B0
:105AA000F85902006C420220844202207442022013
:105AB000845A02007D410220AC5902007A42022041
:105AC000345A02003F3F3F0008720220E075022076
:105AD000605A0200387B0220B46002206C5E022013
